{
	"contracts/NFTMain.sol": {
		"NFTmain": {
			"abi": [
				{
					"inputs": [
						{
							"internalType": "address payable",
							"name": "_marketer",
							"type": "address"
						},
						{
							"internalType": "address payable",
							"name": "_developer",
							"type": "address"
						},
						{
							"internalType": "address",
							"name": "gold_",
							"type": "address"
						},
						{
							"internalType": "uint256",
							"name": "_fee",
							"type": "uint256"
						},
						{
							"internalType": "address",
							"name": "_feeAddress",
							"type": "address"
						}
					],
					"stateMutability": "nonpayable",
					"type": "constructor"
				},
				{
					"anonymous": false,
					"inputs": [
						{
							"indexed": true,
							"internalType": "address",
							"name": "owner",
							"type": "address"
						},
						{
							"indexed": true,
							"internalType": "address",
							"name": "approved",
							"type": "address"
						},
						{
							"indexed": true,
							"internalType": "uint256",
							"name": "tokenId",
							"type": "uint256"
						}
					],
					"name": "Approval",
					"type": "event"
				},
				{
					"anonymous": false,
					"inputs": [
						{
							"indexed": true,
							"internalType": "address",
							"name": "owner",
							"type": "address"
						},
						{
							"indexed": true,
							"internalType": "address",
							"name": "operator",
							"type": "address"
						},
						{
							"indexed": false,
							"internalType": "bool",
							"name": "approved",
							"type": "bool"
						}
					],
					"name": "ApprovalForAll",
					"type": "event"
				},
				{
					"anonymous": false,
					"inputs": [
						{
							"indexed": true,
							"internalType": "uint256",
							"name": "index",
							"type": "uint256"
						},
						{
							"indexed": true,
							"internalType": "address",
							"name": "minter",
							"type": "address"
						}
					],
					"name": "Mint",
					"type": "event"
				},
				{
					"anonymous": false,
					"inputs": [
						{
							"indexed": false,
							"internalType": "uint256",
							"name": "_tokenId",
							"type": "uint256"
						},
						{
							"indexed": false,
							"internalType": "uint256",
							"name": "price",
							"type": "uint256"
						},
						{
							"indexed": false,
							"internalType": "uint256",
							"name": "purchaseTokenId",
							"type": "uint256"
						}
					],
					"name": "NFTbought",
					"type": "event"
				},
				{
					"anonymous": false,
					"inputs": [
						{
							"indexed": true,
							"internalType": "address",
							"name": "previousOwner",
							"type": "address"
						},
						{
							"indexed": true,
							"internalType": "address",
							"name": "newOwner",
							"type": "address"
						}
					],
					"name": "OwnershipTransferred",
					"type": "event"
				},
				{
					"anonymous": false,
					"inputs": [],
					"name": "PrivateSaleBegins",
					"type": "event"
				},
				{
					"anonymous": false,
					"inputs": [],
					"name": "SaleBegins",
					"type": "event"
				},
				{
					"anonymous": false,
					"inputs": [
						{
							"indexed": true,
							"internalType": "address",
							"name": "from",
							"type": "address"
						},
						{
							"indexed": true,
							"internalType": "address",
							"name": "to",
							"type": "address"
						},
						{
							"indexed": true,
							"internalType": "uint256",
							"name": "tokenId",
							"type": "uint256"
						}
					],
					"name": "Transfer",
					"type": "event"
				},
				{
					"anonymous": false,
					"inputs": [
						{
							"indexed": false,
							"internalType": "uint256",
							"name": "_tokenId",
							"type": "uint256"
						},
						{
							"indexed": false,
							"internalType": "uint256",
							"name": "_price",
							"type": "uint256"
						},
						{
							"indexed": false,
							"internalType": "uint256",
							"name": "purchaseTokenId",
							"type": "uint256"
						}
					],
					"name": "listingCreated",
					"type": "event"
				},
				{
					"anonymous": false,
					"inputs": [
						{
							"indexed": false,
							"internalType": "uint256",
							"name": "_tokenId",
							"type": "uint256"
						}
					],
					"name": "listingRemoved",
					"type": "event"
				},
				{
					"inputs": [
						{
							"internalType": "uint256",
							"name": "numberOfNfts",
							"type": "uint256"
						}
					],
					"name": "Goldmint",
					"outputs": [],
					"stateMutability": "payable",
					"type": "function"
				},
				{
					"inputs": [],
					"name": "TOKEN_LIMIT",
					"outputs": [
						{
							"internalType": "uint256",
							"name": "",
							"type": "uint256"
						}
					],
					"stateMutability": "view",
					"type": "function"
				},
				{
					"inputs": [
						{
							"internalType": "uint256",
							"name": "_paymentTokenId",
							"type": "uint256"
						},
						{
							"internalType": "address",
							"name": "_tokenAddress",
							"type": "address"
						}
					],
					"name": "addPaymentToken",
					"outputs": [],
					"stateMutability": "nonpayable",
					"type": "function"
				},
				{
					"inputs": [
						{
							"internalType": "address",
							"name": "_approved",
							"type": "address"
						},
						{
							"internalType": "uint256",
							"name": "_tokenId",
							"type": "uint256"
						}
					],
					"name": "approve",
					"outputs": [],
					"stateMutability": "nonpayable",
					"type": "function"
				},
				{
					"inputs": [
						{
							"internalType": "address",
							"name": "_owner",
							"type": "address"
						}
					],
					"name": "balanceOf",
					"outputs": [
						{
							"internalType": "uint256",
							"name": "",
							"type": "uint256"
						}
					],
					"stateMutability": "view",
					"type": "function"
				},
				{
					"inputs": [],
					"name": "baseFee",
					"outputs": [
						{
							"internalType": "uint256",
							"name": "",
							"type": "uint256"
						}
					],
					"stateMutability": "view",
					"type": "function"
				},
				{
					"inputs": [],
					"name": "baseUri",
					"outputs": [
						{
							"internalType": "string",
							"name": "",
							"type": "string"
						}
					],
					"stateMutability": "view",
					"type": "function"
				},
				{
					"inputs": [
						{
							"internalType": "uint256",
							"name": "_tokenId",
							"type": "uint256"
						}
					],
					"name": "buyNFTMatic",
					"outputs": [],
					"stateMutability": "payable",
					"type": "function"
				},
				{
					"inputs": [
						{
							"internalType": "uint256",
							"name": "_tokenId",
							"type": "uint256"
						}
					],
					"name": "buyNFTWithToken",
					"outputs": [],
					"stateMutability": "nonpayable",
					"type": "function"
				},
				{
					"inputs": [
						{
							"internalType": "uint256",
							"name": "_tokenId",
							"type": "uint256"
						},
						{
							"internalType": "address",
							"name": "_check",
							"type": "address"
						}
					],
					"name": "canUse",
					"outputs": [
						{
							"internalType": "bool",
							"name": "",
							"type": "bool"
						}
					],
					"stateMutability": "view",
					"type": "function"
				},
				{
					"inputs": [
						{
							"internalType": "uint256",
							"name": "_price",
							"type": "uint256"
						},
						{
							"internalType": "uint256",
							"name": "_tokenId",
							"type": "uint256"
						},
						{
							"internalType": "uint256",
							"name": "_purchaseTokenId",
							"type": "uint256"
						}
					],
					"name": "createListing",
					"outputs": [],
					"stateMutability": "nonpayable",
					"type": "function"
				},
				{
					"inputs": [],
					"name": "feeWallet",
					"outputs": [
						{
							"internalType": "address",
							"name": "",
							"type": "address"
						}
					],
					"stateMutability": "view",
					"type": "function"
				},
				{
					"inputs": [
						{
							"internalType": "uint256",
							"name": "_tokenId",
							"type": "uint256"
						}
					],
					"name": "getApproved",
					"outputs": [
						{
							"internalType": "address",
							"name": "",
							"type": "address"
						}
					],
					"stateMutability": "view",
					"type": "function"
				},
				{
					"inputs": [],
					"name": "gold",
					"outputs": [
						{
							"internalType": "contract IERC20",
							"name": "",
							"type": "address"
						}
					],
					"stateMutability": "view",
					"type": "function"
				},
				{
					"inputs": [
						{
							"internalType": "address",
							"name": "_owner",
							"type": "address"
						},
						{
							"internalType": "address",
							"name": "_operator",
							"type": "address"
						}
					],
					"name": "isApprovedForAll",
					"outputs": [
						{
							"internalType": "bool",
							"name": "",
							"type": "bool"
						}
					],
					"stateMutability": "view",
					"type": "function"
				},
				{
					"inputs": [
						{
							"internalType": "uint256",
							"name": "",
							"type": "uint256"
						}
					],
					"name": "list",
					"outputs": [
						{
							"internalType": "bool",
							"name": "isForSale",
							"type": "bool"
						},
						{
							"internalType": "address",
							"name": "owner",
							"type": "address"
						},
						{
							"internalType": "uint256",
							"name": "price",
							"type": "uint256"
						},
						{
							"internalType": "uint256",
							"name": "purchaseTokenId",
							"type": "uint256"
						}
					],
					"stateMutability": "view",
					"type": "function"
				},
				{
					"inputs": [],
					"name": "marketStatus",
					"outputs": [
						{
							"internalType": "bool",
							"name": "",
							"type": "bool"
						}
					],
					"stateMutability": "view",
					"type": "function"
				},
				{
					"inputs": [],
					"name": "mintsRemaining",
					"outputs": [
						{
							"internalType": "uint256",
							"name": "",
							"type": "uint256"
						}
					],
					"stateMutability": "view",
					"type": "function"
				},
				{
					"inputs": [],
					"name": "name",
					"outputs": [
						{
							"internalType": "string",
							"name": "_name",
							"type": "string"
						}
					],
					"stateMutability": "view",
					"type": "function"
				},
				{
					"inputs": [],
					"name": "owner",
					"outputs": [
						{
							"internalType": "address",
							"name": "",
							"type": "address"
						}
					],
					"stateMutability": "view",
					"type": "function"
				},
				{
					"inputs": [
						{
							"internalType": "uint256",
							"name": "_tokenId",
							"type": "uint256"
						}
					],
					"name": "ownerOf",
					"outputs": [
						{
							"internalType": "address",
							"name": "_owner",
							"type": "address"
						}
					],
					"stateMutability": "view",
					"type": "function"
				},
				{
					"inputs": [],
					"name": "privateSale",
					"outputs": [
						{
							"internalType": "bool",
							"name": "",
							"type": "bool"
						}
					],
					"stateMutability": "view",
					"type": "function"
				},
				{
					"inputs": [
						{
							"internalType": "uint256",
							"name": "numberOfNfts",
							"type": "uint256"
						}
					],
					"name": "publicMint",
					"outputs": [],
					"stateMutability": "payable",
					"type": "function"
				},
				{
					"inputs": [],
					"name": "publicSale",
					"outputs": [
						{
							"internalType": "bool",
							"name": "",
							"type": "bool"
						}
					],
					"stateMutability": "view",
					"type": "function"
				},
				{
					"inputs": [
						{
							"internalType": "uint256",
							"name": "",
							"type": "uint256"
						}
					],
					"name": "purchaseToken",
					"outputs": [
						{
							"internalType": "contract IERC20",
							"name": "",
							"type": "address"
						}
					],
					"stateMutability": "view",
					"type": "function"
				},
				{
					"inputs": [],
					"name": "remainderOfGold",
					"outputs": [
						{
							"internalType": "uint256",
							"name": "",
							"type": "uint256"
						}
					],
					"stateMutability": "view",
					"type": "function"
				},
				{
					"inputs": [],
					"name": "remainderOfPrimary",
					"outputs": [
						{
							"internalType": "uint256",
							"name": "",
							"type": "uint256"
						}
					],
					"stateMutability": "view",
					"type": "function"
				},
				{
					"inputs": [
						{
							"internalType": "uint256",
							"name": "_tokenId",
							"type": "uint256"
						}
					],
					"name": "removeListing",
					"outputs": [],
					"stateMutability": "nonpayable",
					"type": "function"
				},
				{
					"inputs": [],
					"name": "renounceOwnership",
					"outputs": [],
					"stateMutability": "nonpayable",
					"type": "function"
				},
				{
					"inputs": [
						{
							"internalType": "address",
							"name": "_from",
							"type": "address"
						},
						{
							"internalType": "address",
							"name": "_to",
							"type": "address"
						},
						{
							"internalType": "uint256",
							"name": "_tokenId",
							"type": "uint256"
						}
					],
					"name": "safeTransferFrom",
					"outputs": [],
					"stateMutability": "nonpayable",
					"type": "function"
				},
				{
					"inputs": [
						{
							"internalType": "address",
							"name": "_from",
							"type": "address"
						},
						{
							"internalType": "address",
							"name": "_to",
							"type": "address"
						},
						{
							"internalType": "uint256",
							"name": "_tokenId",
							"type": "uint256"
						},
						{
							"internalType": "bytes",
							"name": "_data",
							"type": "bytes"
						}
					],
					"name": "safeTransferFrom",
					"outputs": [],
					"stateMutability": "nonpayable",
					"type": "function"
				},
				{
					"inputs": [],
					"name": "saleStartTime",
					"outputs": [
						{
							"internalType": "uint256",
							"name": "",
							"type": "uint256"
						}
					],
					"stateMutability": "view",
					"type": "function"
				},
				{
					"inputs": [
						{
							"internalType": "address",
							"name": "_operator",
							"type": "address"
						},
						{
							"internalType": "bool",
							"name": "_approved",
							"type": "bool"
						}
					],
					"name": "setApprovalForAll",
					"outputs": [],
					"stateMutability": "nonpayable",
					"type": "function"
				},
				{
					"inputs": [
						{
							"internalType": "uint256",
							"name": "_newBaseFee",
							"type": "uint256"
						}
					],
					"name": "setFee",
					"outputs": [],
					"stateMutability": "nonpayable",
					"type": "function"
				},
				{
					"inputs": [
						{
							"internalType": "bool",
							"name": "_marketStatus",
							"type": "bool"
						}
					],
					"name": "setSale",
					"outputs": [],
					"stateMutability": "nonpayable",
					"type": "function"
				},
				{
					"inputs": [
						{
							"internalType": "string",
							"name": "newUri",
							"type": "string"
						}
					],
					"name": "setUri",
					"outputs": [],
					"stateMutability": "nonpayable",
					"type": "function"
				},
				{
					"inputs": [],
					"name": "startPrivateSale",
					"outputs": [],
					"stateMutability": "nonpayable",
					"type": "function"
				},
				{
					"inputs": [],
					"name": "startSale",
					"outputs": [],
					"stateMutability": "nonpayable",
					"type": "function"
				},
				{
					"inputs": [
						{
							"internalType": "bytes4",
							"name": "_interfaceID",
							"type": "bytes4"
						}
					],
					"name": "supportsInterface",
					"outputs": [
						{
							"internalType": "bool",
							"name": "",
							"type": "bool"
						}
					],
					"stateMutability": "view",
					"type": "function"
				},
				{
					"inputs": [],
					"name": "symbol",
					"outputs": [
						{
							"internalType": "string",
							"name": "_symbol",
							"type": "string"
						}
					],
					"stateMutability": "view",
					"type": "function"
				},
				{
					"inputs": [
						{
							"internalType": "uint256",
							"name": "index",
							"type": "uint256"
						}
					],
					"name": "tokenByIndex",
					"outputs": [
						{
							"internalType": "uint256",
							"name": "",
							"type": "uint256"
						}
					],
					"stateMutability": "pure",
					"type": "function"
				},
				{
					"inputs": [
						{
							"internalType": "address",
							"name": "_owner",
							"type": "address"
						},
						{
							"internalType": "uint256",
							"name": "_index",
							"type": "uint256"
						}
					],
					"name": "tokenOfOwnerByIndex",
					"outputs": [
						{
							"internalType": "uint256",
							"name": "",
							"type": "uint256"
						}
					],
					"stateMutability": "view",
					"type": "function"
				},
				{
					"inputs": [
						{
							"internalType": "uint256",
							"name": "_tokenId",
							"type": "uint256"
						}
					],
					"name": "tokenURI",
					"outputs": [
						{
							"internalType": "string",
							"name": "",
							"type": "string"
						}
					],
					"stateMutability": "view",
					"type": "function"
				},
				{
					"inputs": [],
					"name": "totalSupply",
					"outputs": [
						{
							"internalType": "uint256",
							"name": "",
							"type": "uint256"
						}
					],
					"stateMutability": "view",
					"type": "function"
				},
				{
					"inputs": [
						{
							"internalType": "address",
							"name": "_from",
							"type": "address"
						},
						{
							"internalType": "address",
							"name": "_to",
							"type": "address"
						},
						{
							"internalType": "uint256",
							"name": "_tokenId",
							"type": "uint256"
						}
					],
					"name": "transferFrom",
					"outputs": [],
					"stateMutability": "nonpayable",
					"type": "function"
				},
				{
					"inputs": [
						{
							"internalType": "address",
							"name": "newOwner",
							"type": "address"
						}
					],
					"name": "transferOwnership",
					"outputs": [],
					"stateMutability": "nonpayable",
					"type": "function"
				}
			],
			"devdoc": {
				"kind": "dev",
				"methods": {
					"owner()": {
						"details": "Returns the address of the current owner."
					},
					"renounceOwnership()": {
						"details": "Leaves the contract without owner. It will not be possible to call `onlyOwner` functions anymore. Can only be called by the current owner. NOTE: Renouncing ownership will leave the contract without an owner, thereby removing any functionality that is only available to the owner."
					},
					"transferOwnership(address)": {
						"details": "Transfers ownership of the contract to a new account (`newOwner`). Can only be called by the current owner."
					}
				},
				"version": 1
			},
			"evm": {
				"assembly": "    /* \"contracts/NFTMain.sol\":2879:2917  string internal nftName = \"PolyHeroes\" */\n  0xc0\n    /* \"contracts/NFTMain.sol\":2146:19330  contract NFTmain is Ownable, IERC721 {\r... */\n  0x40\n    /* \"contracts/NFTMain.sol\":2879:2917  string internal nftName = \"PolyHeroes\" */\n  mstore\n  0x0a\n    /* \"contracts/NFTMain.sol\":2146:19330  contract NFTmain is Ownable, IERC721 {\r... */\n  0x80\n    /* \"contracts/NFTMain.sol\":2879:2917  string internal nftName = \"PolyHeroes\" */\n  dup2\n  swap1\n  mstore\n  shl(0xb0, 0x506f6c794865726f6573)\n  0xa0\n  swap1\n  dup2\n  mstore\n  tag_1\n  swap2\n  0x07\n  swap2\n  swap1\n  tag_2\n  jump\t// in\ntag_1:\n  pop\n    /* \"contracts/NFTMain.sol\":2924:2964  string internal nftSymbol = \"PolyHeroes\" */\n  0x40\n  dup1\n  mload\n  dup1\n  dup3\n  add\n  swap1\n  swap2\n  mstore\n  0x0a\n  dup1\n  dup3\n  mstore\n  shl(0xb0, 0x506f6c794865726f6573)\n  0x20\n  swap1\n  swap3\n  add\n  swap2\n  dup3\n  mstore\n  tag_3\n  swap2\n  0x08\n  swap2\n  tag_2\n  jump\t// in\ntag_3:\n  pop\n    /* \"contracts/NFTMain.sol\":3001:3002  0 */\n  0x00\n    /* \"contracts/NFTMain.sol\":2975:3002  uint internal numTokens = 0 */\n  0x09\n  dup2\n  swap1\n  sstore\n    /* \"contracts/NFTMain.sol\":3009:3035  uint internal numSales = 0 */\n  0x0a\n  dup2\n  swap1\n  sstore\n    /* \"contracts/NFTMain.sol\":3076:3081  10000 */\n  0x2710\n    /* \"contracts/NFTMain.sol\":3042:3081  uint public  remainderOfPrimary = 10000 */\n  0x0b\n  dup2\n  swap1\n  sstore\n    /* \"contracts/NFTMain.sol\":3088:3124  uint public  remainderOfGold = 10000 */\n  0x0c\n  sstore\n    /* \"contracts/NFTMain.sol\":3254:3284  bool public publicSale = false */\n  0x0f\n  dup1\n  sload\n  not(shl(0xa0, 0xffff))\n    /* \"contracts/NFTMain.sol\":3291:3322  bool public privateSale = false */\n  and\n  swap1\n  sstore\n    /* \"contracts/NFTMain.sol\":3354:3364  0.02 ether */\n  0x470de4df820000\n    /* \"contracts/NFTMain.sol\":3329:3364  uint private mintPrice = 0.02 ether */\n  0x10\n  sstore\n    /* \"contracts/NFTMain.sol\":3400:3409  100 ether */\n  0x056bc75e2d63100000\n    /* \"contracts/NFTMain.sol\":3371:3409  uint private goldMintPrice = 100 ether */\n  0x11\n  sstore\n    /* \"contracts/NFTMain.sol\":3291:3322  bool public privateSale = false */\n  0x15\n    /* \"contracts/NFTMain.sol\":3503:3526  uint internal nonce = 0 */\n  sstore\n    /* \"contracts/NFTMain.sol\":3576:3611  bool private reentrancyLock = false */\n  0x4e36\n  dup1\n  sload\n  not(0xff)\n  and\n  swap1\n  sstore\n    /* \"contracts/NFTMain.sol\":15554:15586  bool public marketStatus = false */\n  0x4e3a\n  dup1\n  sload\n  not(shl(0xa0, 0xff))\n  and\n  swap1\n  sstore\n    /* \"contracts/NFTMain.sol\":4482:5017  constructor(address payable _marketer, address payable _developer, address gold_, uint256 _fee, address _feeAddress) {\r... */\n  callvalue\n  dup1\n  iszero\n  tag_4\n  jumpi\n  0x00\n  dup1\n  revert\ntag_4:\n  pop\n  mload(0x40)\n  sub(codesize, bytecodeSize)\n  dup1\n  bytecodeSize\n  dup4\n  codecopy\n  dup2\n  add\n  0x40\n  dup2\n  swap1\n  mstore\n  tag_5\n  swap2\n  tag_6\n  jump\t// in\ntag_5:\n    /* \"@openzeppelin/contracts/access/Ownable.sol\":921:953  _transferOwnership(_msgSender()) */\n  tag_10\n    /* \"@openzeppelin/contracts/utils/Context.sol\":719:729  msg.sender */\n  caller\n    /* \"@openzeppelin/contracts/access/Ownable.sol\":921:939  _transferOwnership */\n  tag_13\n    /* \"@openzeppelin/contracts/access/Ownable.sol\":921:953  _transferOwnership(_msgSender()) */\n  jump\t// in\ntag_10:\n    /* \"contracts/NFTMain.sol\":4644:4648  true */\n  0x01\n    /* \"contracts/NFTMain.sol\":4610:4641  supportedInterfaces[0x01ffc9a7] */\n  0x20\n  dup2\n  swap1\n  mstore\n  0xb45820386466a8e01597d6e1efaf8f11ba4467972de5ca6c1f8aa3544ac2888e\n    /* \"contracts/NFTMain.sol\":4610:4648  supportedInterfaces[0x01ffc9a7] = true */\n  dup1\n  sload\n  not(0xff)\n  swap1\n  dup2\n  and\n  dup4\n  or\n  swap1\n  swap2\n  sstore\n    /* \"contracts/NFTMain.sol\":4669:4700  supportedInterfaces[0x80ac58cd] */\n  0xb8349d7b7b0b2b924bf96f90971cda8c7ac1ea4cde292a182bd2a203eef6c5d0\n    /* \"contracts/NFTMain.sol\":4669:4707  supportedInterfaces[0x80ac58cd] = true */\n  dup1\n  sload\n  dup3\n  and\n  dup4\n  or\n  swap1\n  sstore\n    /* \"contracts/NFTMain.sol\":4728:4759  supportedInterfaces[0x780e9d63] */\n  0x0e20bd7b4297895bdd985faac9360f413d46658b4c96e853899576249f1474ab\n    /* \"contracts/NFTMain.sol\":4728:4766  supportedInterfaces[0x780e9d63] = true */\n  dup1\n  sload\n  dup3\n  and\n  dup4\n  or\n  swap1\n  sstore\n  shl(0xe0, 0x5b5e139f)\n  0x00\n    /* \"contracts/NFTMain.sol\":4798:4829  supportedInterfaces[0x5b5e139f] */\n  mstore\n  0xce9309d5fe1c6050fdfde39d28ca0616e34393306d1cba1a247c40f9ef5c5d09\n    /* \"contracts/NFTMain.sol\":4798:4836  supportedInterfaces[0x5b5e139f] = true */\n  dup1\n  sload\n  swap1\n  swap2\n  and\n  swap1\n  swap2\n  or\n  swap1\n  sstore\n    /* \"contracts/NFTMain.sol\":4866:4873  baseFee */\n  0x4e39\n    /* \"contracts/NFTMain.sol\":4866:4880  baseFee = _fee */\n  swap2\n  swap1\n  swap2\n  sstore\n    /* \"contracts/NFTMain.sol\":4891:4900  feeWallet */\n  0x4e3a\n    /* \"contracts/NFTMain.sol\":4891:4914  feeWallet = _feeAddress */\n  dup1\n  sload\n  not(sub(shl(0xa0, 0x01), 0x01))\n  swap1\n  dup2\n  and\n  sub(shl(0xa0, 0x01), 0x01)\n  swap4\n  dup5\n  and\n  or\n  swap1\n  swap2\n  sstore\n    /* \"contracts/NFTMain.sol\":4925:4933  marketer */\n  0x0e\n    /* \"contracts/NFTMain.sol\":4925:4945  marketer = _marketer */\n  dup1\n  sload\n  dup3\n  and\n  swap6\n  dup4\n  and\n  swap6\n  swap1\n  swap6\n  or\n  swap1\n  swap5\n  sstore\n    /* \"contracts/NFTMain.sol\":4956:4965  developer */\n  0x0f\n    /* \"contracts/NFTMain.sol\":4956:4978  developer = _developer */\n  dup1\n  sload\n  dup6\n  and\n  swap4\n  dup3\n  and\n  swap4\n  swap1\n  swap4\n  or\n  swap1\n  swap3\n  sstore\n    /* \"contracts/NFTMain.sol\":4989:4993  gold */\n  0x13\n    /* \"contracts/NFTMain.sol\":4989:5009  gold = IERC20(gold_) */\n  dup1\n  sload\n  swap1\n  swap4\n  and\n  swap2\n  and\n  or\n  swap1\n  sstore\n    /* \"contracts/NFTMain.sol\":2146:19330  contract NFTmain is Ownable, IERC721 {\r... */\n  jump(tag_29)\n    /* \"@openzeppelin/contracts/access/Ownable.sol\":2270:2457  function _transferOwnership(address newOwner) internal virtual {... */\ntag_13:\n    /* \"@openzeppelin/contracts/access/Ownable.sol\":2343:2359  address oldOwner */\n  0x00\n    /* \"@openzeppelin/contracts/access/Ownable.sol\":2362:2368  _owner */\n  dup1\n  sload\n  sub(shl(0xa0, 0x01), 0x01)\n    /* \"@openzeppelin/contracts/access/Ownable.sol\":2378:2395  _owner = newOwner */\n  dup4\n  dup2\n  and\n  not(sub(shl(0xa0, 0x01), 0x01))\n  dup4\n  and\n  dup2\n  or\n  dup5\n  sstore\n    /* \"@openzeppelin/contracts/access/Ownable.sol\":2410:2450  OwnershipTransferred(oldOwner, newOwner) */\n  mload(0x40)\n    /* \"@openzeppelin/contracts/access/Ownable.sol\":2362:2368  _owner */\n  swap2\n  swap1\n  swap3\n  and\n  swap3\n  dup4\n  swap2\n    /* \"@openzeppelin/contracts/access/Ownable.sol\":2410:2450  OwnershipTransferred(oldOwner, newOwner) */\n  0x8be0079c531659141344cd1fd0a4f28419497f9722a3daafe3b4186f6b6457e0\n  swap2\n    /* \"@openzeppelin/contracts/access/Ownable.sol\":2343:2359  address oldOwner */\n  swap1\n    /* \"@openzeppelin/contracts/access/Ownable.sol\":2410:2450  OwnershipTransferred(oldOwner, newOwner) */\n  log3\n    /* \"@openzeppelin/contracts/access/Ownable.sol\":2333:2457  {... */\n  pop\n    /* \"@openzeppelin/contracts/access/Ownable.sol\":2270:2457  function _transferOwnership(address newOwner) internal virtual {... */\n  pop\n  jump\t// out\n    /* \"contracts/NFTMain.sol\":2146:19330  contract NFTmain is Ownable, IERC721 {\r... */\ntag_2:\n  dup3\n  dup1\n  sload\n  tag_18\n  swap1\n  tag_19\n  jump\t// in\ntag_18:\n  swap1\n  0x00\n  mstore\n  keccak256(0x00, 0x20)\n  swap1\n  0x1f\n  add\n  0x20\n  swap1\n  div\n  dup2\n  add\n  swap3\n  dup3\n  tag_21\n  jumpi\n  0x00\n  dup6\n  sstore\n  jump(tag_24)\ntag_21:\n  dup3\n  0x1f\n  lt\n  tag_22\n  jumpi\n  dup1\n  mload\n  not(0xff)\n  and\n  dup4\n  dup1\n  add\n  or\n  dup6\n  sstore\n  jump(tag_24)\ntag_22:\n  dup3\n  dup1\n  add\n  0x01\n  add\n  dup6\n  sstore\n  dup3\n  iszero\n  tag_24\n  jumpi\n  swap2\n  dup3\n  add\ntag_23:\n  dup3\n  dup2\n  gt\n  iszero\n  tag_24\n  jumpi\n  dup3\n  mload\n  dup3\n  sstore\n  swap2\n  0x20\n  add\n  swap2\n  swap1\n  0x01\n  add\n  swap1\n  jump(tag_23)\ntag_24:\n  pop\n  tag_25\n  swap3\n  swap2\n  pop\n  tag_26\n  jump\t// in\ntag_25:\n  pop\n  swap1\n  jump\t// out\ntag_26:\ntag_27:\n  dup1\n  dup3\n  gt\n  iszero\n  tag_25\n  jumpi\n  0x00\n  dup2\n  sstore\n  0x01\n  add\n  jump(tag_27)\n    /* \"#utility.yul\":14:746   */\ntag_6:\n    /* \"#utility.yul\":136:142   */\n  0x00\n    /* \"#utility.yul\":144:150   */\n  dup1\n    /* \"#utility.yul\":152:158   */\n  0x00\n    /* \"#utility.yul\":160:166   */\n  dup1\n    /* \"#utility.yul\":168:174   */\n  0x00\n    /* \"#utility.yul\":221:224   */\n  0xa0\n    /* \"#utility.yul\":209:218   */\n  dup7\n    /* \"#utility.yul\":200:207   */\n  dup9\n    /* \"#utility.yul\":196:219   */\n  sub\n    /* \"#utility.yul\":192:225   */\n  slt\n    /* \"#utility.yul\":189:242   */\n  iszero\n  tag_31\n  jumpi\n    /* \"#utility.yul\":238:239   */\n  0x00\n    /* \"#utility.yul\":235:236   */\n  dup1\n    /* \"#utility.yul\":228:240   */\n  revert\n    /* \"#utility.yul\":189:242   */\ntag_31:\n    /* \"#utility.yul\":270:279   */\n  dup6\n    /* \"#utility.yul\":264:280   */\n  mload\n    /* \"#utility.yul\":289:320   */\n  tag_32\n    /* \"#utility.yul\":314:319   */\n  dup2\n    /* \"#utility.yul\":289:320   */\n  tag_33\n  jump\t// in\ntag_32:\n    /* \"#utility.yul\":389:391   */\n  0x20\n    /* \"#utility.yul\":374:392   */\n  dup8\n  add\n    /* \"#utility.yul\":368:393   */\n  mload\n    /* \"#utility.yul\":339:344   */\n  swap1\n  swap6\n  pop\n    /* \"#utility.yul\":402:435   */\n  tag_34\n    /* \"#utility.yul\":368:393   */\n  dup2\n    /* \"#utility.yul\":402:435   */\n  tag_33\n  jump\t// in\ntag_34:\n    /* \"#utility.yul\":506:508   */\n  0x40\n    /* \"#utility.yul\":491:509   */\n  dup8\n  add\n    /* \"#utility.yul\":485:510   */\n  mload\n    /* \"#utility.yul\":454:461   */\n  swap1\n  swap5\n  pop\n    /* \"#utility.yul\":519:552   */\n  tag_35\n    /* \"#utility.yul\":485:510   */\n  dup2\n    /* \"#utility.yul\":519:552   */\n  tag_33\n  jump\t// in\ntag_35:\n    /* \"#utility.yul\":618:620   */\n  0x60\n    /* \"#utility.yul\":603:621   */\n  dup8\n  add\n    /* \"#utility.yul\":597:622   */\n  mload\n    /* \"#utility.yul\":667:670   */\n  0x80\n    /* \"#utility.yul\":652:671   */\n  dup9\n  add\n    /* \"#utility.yul\":646:672   */\n  mload\n    /* \"#utility.yul\":571:578   */\n  swap2\n  swap5\n  pop\n    /* \"#utility.yul\":597:622   */\n  swap3\n  pop\n    /* \"#utility.yul\":681:714   */\n  tag_36\n    /* \"#utility.yul\":646:672   */\n  dup2\n    /* \"#utility.yul\":681:714   */\n  tag_33\n  jump\t// in\ntag_36:\n    /* \"#utility.yul\":733:740   */\n  dup1\n    /* \"#utility.yul\":723:740   */\n  swap2\n  pop\n  pop\n    /* \"#utility.yul\":14:746   */\n  swap3\n  swap6\n  pop\n  swap3\n  swap6\n  swap1\n  swap4\n  pop\n  jump\t// out\n    /* \"#utility.yul\":751:1131   */\ntag_19:\n    /* \"#utility.yul\":830:831   */\n  0x01\n    /* \"#utility.yul\":826:838   */\n  dup2\n  dup2\n  shr\n  swap1\n    /* \"#utility.yul\":873:885   */\n  dup3\n  and\n  dup1\n    /* \"#utility.yul\":894:955   */\n  tag_38\n  jumpi\n    /* \"#utility.yul\":948:952   */\n  0x7f\n    /* \"#utility.yul\":940:946   */\n  dup3\n    /* \"#utility.yul\":936:953   */\n  and\n    /* \"#utility.yul\":926:953   */\n  swap2\n  pop\n    /* \"#utility.yul\":894:955   */\ntag_38:\n    /* \"#utility.yul\":1001:1003   */\n  0x20\n    /* \"#utility.yul\":993:999   */\n  dup3\n    /* \"#utility.yul\":990:1004   */\n  lt\n    /* \"#utility.yul\":970:988   */\n  dup2\n    /* \"#utility.yul\":967:1005   */\n  eq\n    /* \"#utility.yul\":964:1125   */\n  iszero\n  tag_39\n  jumpi\n    /* \"#utility.yul\":1047:1057   */\n  0x4e487b71\n    /* \"#utility.yul\":1042:1045   */\n  0xe0\n    /* \"#utility.yul\":1038:1058   */\n  shl\n    /* \"#utility.yul\":1035:1036   */\n  0x00\n    /* \"#utility.yul\":1028:1059   */\n  mstore\n    /* \"#utility.yul\":1082:1086   */\n  0x22\n    /* \"#utility.yul\":1079:1080   */\n  0x04\n    /* \"#utility.yul\":1072:1087   */\n  mstore\n    /* \"#utility.yul\":1110:1114   */\n  0x24\n    /* \"#utility.yul\":1107:1108   */\n  0x00\n    /* \"#utility.yul\":1100:1115   */\n  revert\n    /* \"#utility.yul\":964:1125   */\ntag_39:\n  pop\n    /* \"#utility.yul\":751:1131   */\n  swap2\n  swap1\n  pop\n  jump\t// out\n    /* \"#utility.yul\":1136:1267   */\ntag_33:\n  sub(shl(0xa0, 0x01), 0x01)\n    /* \"#utility.yul\":1211:1242   */\n  dup2\n  and\n    /* \"#utility.yul\":1201:1243   */\n  dup2\n  eq\n    /* \"#utility.yul\":1191:1261   */\n  tag_41\n  jumpi\n    /* \"#utility.yul\":1257:1258   */\n  0x00\n    /* \"#utility.yul\":1254:1255   */\n  dup1\n    /* \"#utility.yul\":1247:1259   */\n  revert\n    /* \"#utility.yul\":1191:1261   */\ntag_41:\n    /* \"#utility.yul\":1136:1267   */\n  pop\n  jump\t// out\ntag_29:\n    /* \"contracts/NFTMain.sol\":2146:19330  contract NFTmain is Ownable, IERC721 {\r... */\n  dataSize(sub_0)\n  dup1\n  dataOffset(sub_0)\n  0x00\n  codecopy\n  0x00\n  return\nstop\n\nsub_0: assembly {\n        /* \"contracts/NFTMain.sol\":2146:19330  contract NFTmain is Ownable, IERC721 {\r... */\n      mstore(0x40, 0x80)\n      jumpi(tag_1, lt(calldatasize, 0x04))\n      shr(0xe0, calldataload(0x00))\n      dup1\n      0x6ef25c3a\n      gt\n      tag_48\n      jumpi\n      dup1\n      0xb88d4fde\n      gt\n      tag_49\n      jumpi\n      dup1\n      0xe985e9c5\n      gt\n      tag_50\n      jumpi\n      dup1\n      0xe985e9c5\n      eq\n      tag_42\n      jumpi\n      dup1\n      0xed38b79c\n      eq\n      tag_43\n      jumpi\n      dup1\n      0xf25f4b56\n      eq\n      tag_44\n      jumpi\n      dup1\n      0xf2fde38b\n      eq\n      tag_45\n      jumpi\n      dup1\n      0xf9ae7aaf\n      eq\n      tag_46\n      jumpi\n      dup1\n      0xfbec6f21\n      eq\n      tag_47\n      jumpi\n      0x00\n      dup1\n      revert\n    tag_50:\n      dup1\n      0xb88d4fde\n      eq\n      tag_36\n      jumpi\n      dup1\n      0xba1f879f\n      eq\n      tag_37\n      jumpi\n      dup1\n      0xc2db2c42\n      eq\n      tag_38\n      jumpi\n      dup1\n      0xc87b56dd\n      eq\n      tag_39\n      jumpi\n      dup1\n      0xd4c66861\n      eq\n      tag_40\n      jumpi\n      dup1\n      0xe0e081d7\n      eq\n      tag_41\n      jumpi\n      0x00\n      dup1\n      revert\n    tag_49:\n      dup1\n      0x95d89b41\n      gt\n      tag_51\n      jumpi\n      dup1\n      0x95d89b41\n      eq\n      tag_30\n      jumpi\n      dup1\n      0x9abc8320\n      eq\n      tag_31\n      jumpi\n      dup1\n      0x9b642de1\n      eq\n      tag_32\n      jumpi\n      dup1\n      0xa22cb465\n      eq\n      tag_33\n      jumpi\n      dup1\n      0xb03053b6\n      eq\n      tag_34\n      jumpi\n      dup1\n      0xb66a0e5d\n      eq\n      tag_35\n      jumpi\n      0x00\n      dup1\n      revert\n    tag_51:\n      dup1\n      0x6ef25c3a\n      eq\n      tag_25\n      jumpi\n      dup1\n      0x70a08231\n      eq\n      tag_26\n      jumpi\n      dup1\n      0x715018a6\n      eq\n      tag_27\n      jumpi\n      dup1\n      0x80c9419e\n      eq\n      tag_28\n      jumpi\n      dup1\n      0x8da5cb5b\n      eq\n      tag_29\n      jumpi\n      0x00\n      dup1\n      revert\n    tag_48:\n      dup1\n      0x23b872dd\n      gt\n      tag_52\n      jumpi\n      dup1\n      0x44c66be7\n      gt\n      tag_53\n      jumpi\n      dup1\n      0x44c66be7\n      eq\n      tag_19\n      jumpi\n      dup1\n      0x479ad4c3\n      eq\n      tag_20\n      jumpi\n      dup1\n      0x4c211c28\n      eq\n      tag_21\n      jumpi\n      dup1\n      0x4f6ccce7\n      eq\n      tag_22\n      jumpi\n      dup1\n      0x6352211e\n      eq\n      tag_23\n      jumpi\n      dup1\n      0x69fe0e2d\n      eq\n      tag_24\n      jumpi\n      0x00\n      dup1\n      revert\n    tag_53:\n      dup1\n      0x23b872dd\n      eq\n      tag_13\n      jumpi\n      dup1\n      0x2db11544\n      eq\n      tag_14\n      jumpi\n      dup1\n      0x2f745c59\n      eq\n      tag_15\n      jumpi\n      dup1\n      0x338dbf59\n      eq\n      tag_16\n      jumpi\n      dup1\n      0x33bc1c5c\n      eq\n      tag_17\n      jumpi\n      dup1\n      0x42842e0e\n      eq\n      tag_18\n      jumpi\n      0x00\n      dup1\n      revert\n    tag_52:\n      dup1\n      0x095ea7b3\n      gt\n      tag_54\n      jumpi\n      dup1\n      0x095ea7b3\n      eq\n      tag_7\n      jumpi\n      dup1\n      0x0cef3df1\n      eq\n      tag_8\n      jumpi\n      dup1\n      0x10a15cc8\n      eq\n      tag_9\n      jumpi\n      dup1\n      0x18160ddd\n      eq\n      tag_10\n      jumpi\n      dup1\n      0x1cbaee2d\n      eq\n      tag_11\n      jumpi\n      dup1\n      0x1d2e5a3a\n      eq\n      tag_12\n      jumpi\n      0x00\n      dup1\n      revert\n    tag_54:\n      dup1\n      0x01ffc9a7\n      eq\n      tag_2\n      jumpi\n      dup1\n      0x031bd4c4\n      eq\n      tag_3\n      jumpi\n      dup1\n      0x0612c478\n      eq\n      tag_4\n      jumpi\n      dup1\n      0x06fdde03\n      eq\n      tag_5\n      jumpi\n      dup1\n      0x081812fc\n      eq\n      tag_6\n      jumpi\n    tag_1:\n      0x00\n      dup1\n      revert\n        /* \"contracts/NFTMain.sol\":5638:5783  function supportsInterface(bytes4 _interfaceID) external view override returns (bool) {\r... */\n    tag_2:\n      callvalue\n      dup1\n      iszero\n      tag_55\n      jumpi\n      0x00\n      dup1\n      revert\n    tag_55:\n      pop\n      tag_56\n      tag_57\n      calldatasize\n      0x04\n      tag_58\n      jump\t// in\n    tag_57:\n      not(sub(shl(0xe0, 0x01), 0x01))\n        /* \"contracts/NFTMain.sol\":5742:5775  supportedInterfaces[_interfaceID] */\n      and\n        /* \"contracts/NFTMain.sol\":5718:5722  bool */\n      0x00\n        /* \"contracts/NFTMain.sol\":5742:5775  supportedInterfaces[_interfaceID] */\n      swap1\n      dup2\n      mstore\n        /* \"contracts/NFTMain.sol\":5742:5761  supportedInterfaces */\n      0x01\n        /* \"contracts/NFTMain.sol\":5742:5775  supportedInterfaces[_interfaceID] */\n      0x20\n      mstore\n      0x40\n      swap1\n      keccak256\n      sload\n      0xff\n      and\n      swap1\n        /* \"contracts/NFTMain.sol\":5638:5783  function supportsInterface(bytes4 _interfaceID) external view override returns (bool) {\r... */\n      jump\n    tag_56:\n      mload(0x40)\n        /* \"#utility.yul\":9169:9183   */\n      swap1\n      iszero\n        /* \"#utility.yul\":9162:9184   */\n      iszero\n        /* \"#utility.yul\":9144:9185   */\n      dup2\n      mstore\n        /* \"#utility.yul\":9132:9134   */\n      0x20\n        /* \"#utility.yul\":9117:9135   */\n      add\n        /* \"contracts/NFTMain.sol\":5638:5783  function supportsInterface(bytes4 _interfaceID) external view override returns (bool) {\r... */\n    tag_60:\n      mload(0x40)\n      dup1\n      swap2\n      sub\n      swap1\n      return\n        /* \"contracts/NFTMain.sol\":2455:2495  uint public constant TOKEN_LIMIT = 20000 */\n    tag_3:\n      callvalue\n      dup1\n      iszero\n      tag_62\n      jumpi\n      0x00\n      dup1\n      revert\n    tag_62:\n      pop\n      tag_63\n        /* \"contracts/NFTMain.sol\":2490:2495  20000 */\n      0x4e20\n        /* \"contracts/NFTMain.sol\":2455:2495  uint public constant TOKEN_LIMIT = 20000 */\n      dup2\n      jump\n    tag_63:\n      mload(0x40)\n        /* \"#utility.yul\":20820:20845   */\n      swap1\n      dup2\n      mstore\n        /* \"#utility.yul\":20808:20810   */\n      0x20\n        /* \"#utility.yul\":20793:20811   */\n      add\n        /* \"contracts/NFTMain.sol\":2455:2495  uint public constant TOKEN_LIMIT = 20000 */\n      tag_60\n        /* \"#utility.yul\":20674:20851   */\n      jump\n        /* \"contracts/NFTMain.sol\":19161:19325  function addPaymentToken (uint256 _paymentTokenId, address _tokenAddress) public onlyOwner {\r... */\n    tag_4:\n      callvalue\n      dup1\n      iszero\n      tag_67\n      jumpi\n      0x00\n      dup1\n      revert\n    tag_67:\n      pop\n      tag_68\n      tag_69\n      calldatasize\n      0x04\n      tag_70\n      jump\t// in\n    tag_69:\n      tag_71\n      jump\t// in\n    tag_68:\n      stop\n        /* \"contracts/NFTMain.sol\":14641:14735  function name() external view returns (string memory _name) {\r... */\n    tag_5:\n      callvalue\n      dup1\n      iszero\n      tag_72\n      jumpi\n      0x00\n      dup1\n      revert\n    tag_72:\n      pop\n      tag_73\n      tag_74\n      jump\t// in\n    tag_73:\n      mload(0x40)\n      tag_60\n      swap2\n      swap1\n      tag_76\n      jump\t// in\n        /* \"contracts/NFTMain.sol\":7405:7556  function getApproved(uint256 _tokenId) external view override validNFToken(_tokenId) returns (address) {\r... */\n    tag_6:\n      callvalue\n      dup1\n      iszero\n      tag_77\n      jumpi\n      0x00\n      dup1\n      revert\n    tag_77:\n      pop\n      tag_78\n      tag_79\n      calldatasize\n      0x04\n      tag_80\n      jump\t// in\n    tag_79:\n      tag_81\n      jump\t// in\n    tag_78:\n      mload(0x40)\n      sub(shl(0xa0, 0x01), 0x01)\n        /* \"#utility.yul\":7767:7799   */\n      swap1\n      swap2\n      and\n        /* \"#utility.yul\":7749:7800   */\n      dup2\n      mstore\n        /* \"#utility.yul\":7737:7739   */\n      0x20\n        /* \"#utility.yul\":7722:7740   */\n      add\n        /* \"contracts/NFTMain.sol\":7405:7556  function getApproved(uint256 _tokenId) external view override validNFToken(_tokenId) returns (address) {\r... */\n      tag_60\n        /* \"#utility.yul\":7603:7806   */\n      jump\n        /* \"contracts/NFTMain.sol\":6491:6811  function approve(address _approved, uint256 _tokenId) external override canOperate(_tokenId) validNFToken(_tokenId) {\r... */\n    tag_7:\n      callvalue\n      dup1\n      iszero\n      tag_84\n      jumpi\n      0x00\n      dup1\n      revert\n    tag_84:\n      pop\n      tag_68\n      tag_86\n      calldatasize\n      0x04\n      tag_87\n      jump\t// in\n    tag_86:\n      tag_88\n      jump\t// in\n        /* \"contracts/NFTMain.sol\":7732:8068  function canUse (uint256 _tokenId, address _check) public view returns (bool)  {\r... */\n    tag_8:\n      callvalue\n      dup1\n      iszero\n      tag_89\n      jumpi\n      0x00\n      dup1\n      revert\n    tag_89:\n      pop\n      tag_56\n      tag_91\n      calldatasize\n      0x04\n      tag_70\n      jump\t// in\n    tag_91:\n      tag_92\n      jump\t// in\n        /* \"contracts/NFTMain.sol\":10180:10883  function Goldmint(uint256 numberOfNfts) external payable reentrancyGuard {\r... */\n    tag_9:\n      tag_68\n      tag_95\n      calldatasize\n      0x04\n      tag_80\n      jump\t// in\n    tag_95:\n      tag_96\n      jump\t// in\n        /* \"contracts/NFTMain.sol\":13612:13700  function totalSupply() public view returns (uint256) {\r... */\n    tag_10:\n      callvalue\n      dup1\n      iszero\n      tag_97\n      jumpi\n      0x00\n      dup1\n      revert\n    tag_97:\n      pop\n        /* \"contracts/NFTMain.sol\":13683:13692  numTokens */\n      sload(0x09)\n        /* \"contracts/NFTMain.sol\":13612:13700  function totalSupply() public view returns (uint256) {\r... */\n      jump(tag_63)\n        /* \"contracts/NFTMain.sol\":3469:3494  uint public saleStartTime */\n    tag_11:\n      callvalue\n      dup1\n      iszero\n      tag_101\n      jumpi\n      0x00\n      dup1\n      revert\n    tag_101:\n      pop\n      tag_63\n      sload(0x14)\n      dup2\n      jump\n        /* \"contracts/NFTMain.sol\":18948:19050  function setSale (bool _marketStatus) public onlyOwner {\r... */\n    tag_12:\n      callvalue\n      dup1\n      iszero\n      tag_105\n      jumpi\n      0x00\n      dup1\n      revert\n    tag_105:\n      pop\n      tag_68\n      tag_107\n      calldatasize\n      0x04\n      tag_108\n      jump\t// in\n    tag_107:\n      tag_109\n      jump\t// in\n        /* \"contracts/NFTMain.sol\":6136:6483  function transferFrom(address _from, address _to, uint256 _tokenId) external override canTransfer(_tokenId) validNFToken(_tokenId) {\r... */\n    tag_13:\n      callvalue\n      dup1\n      iszero\n      tag_110\n      jumpi\n      0x00\n      dup1\n      revert\n    tag_110:\n      pop\n      tag_68\n      tag_112\n      calldatasize\n      0x04\n      tag_113\n      jump\t// in\n    tag_112:\n      tag_114\n      jump\t// in\n        /* \"contracts/NFTMain.sol\":9353:10166  function publicMint (uint256 numberOfNfts) external payable reentrancyGuard {\r... */\n    tag_14:\n      tag_68\n      tag_116\n      calldatasize\n      0x04\n      tag_80\n      jump\t// in\n    tag_116:\n      tag_117\n      jump\t// in\n        /* \"contracts/NFTMain.sol\":13871:14070  function tokenOfOwnerByIndex(address _owner, uint256 _index) external view returns (uint256) {\r... */\n    tag_15:\n      callvalue\n      dup1\n      iszero\n      tag_118\n      jumpi\n      0x00\n      dup1\n      revert\n    tag_118:\n      pop\n      tag_63\n      tag_120\n      calldatasize\n      0x04\n      tag_87\n      jump\t// in\n    tag_120:\n      tag_121\n      jump\t// in\n        /* \"contracts/NFTMain.sol\":5214:5407  function startPrivateSale() external onlyOwner {\r... */\n    tag_16:\n      callvalue\n      dup1\n      iszero\n      tag_123\n      jumpi\n      0x00\n      dup1\n      revert\n    tag_123:\n      pop\n      tag_68\n      tag_125\n      jump\t// in\n        /* \"contracts/NFTMain.sol\":3254:3284  bool public publicSale = false */\n    tag_17:\n      callvalue\n      dup1\n      iszero\n      tag_126\n      jumpi\n      0x00\n      dup1\n      revert\n    tag_126:\n      pop\n      sload(0x0f)\n      tag_56\n      swap1\n      shl(0xa0, 0x01)\n      swap1\n      div\n      0xff\n      and\n      dup2\n      jump\n        /* \"contracts/NFTMain.sol\":5976:6128  function safeTransferFrom(address _from, address _to, uint256 _tokenId) external override {\r... */\n    tag_18:\n      callvalue\n      dup1\n      iszero\n      tag_130\n      jumpi\n      0x00\n      dup1\n      revert\n    tag_130:\n      pop\n      tag_68\n      tag_132\n      calldatasize\n      0x04\n      tag_113\n      jump\t// in\n    tag_132:\n      tag_133\n      jump\t// in\n        /* \"contracts/NFTMain.sol\":9233:9339  function mintsRemaining() external view returns (uint) {\r... */\n    tag_19:\n      callvalue\n      dup1\n      iszero\n      tag_134\n      jumpi\n      0x00\n      dup1\n      revert\n    tag_134:\n      pop\n      tag_63\n      tag_136\n      jump\t// in\n        /* \"contracts/NFTMain.sol\":16361:16663  function removeListing (uint256 _tokenId) public {\r... */\n    tag_20:\n      callvalue\n      dup1\n      iszero\n      tag_138\n      jumpi\n      0x00\n      dup1\n      revert\n    tag_138:\n      pop\n      tag_68\n      tag_140\n      calldatasize\n      0x04\n      tag_80\n      jump\t// in\n    tag_140:\n      tag_141\n      jump\t// in\n        /* \"contracts/NFTMain.sol\":3042:3081  uint public  remainderOfPrimary = 10000 */\n    tag_21:\n      callvalue\n      dup1\n      iszero\n      tag_142\n      jumpi\n      0x00\n      dup1\n      revert\n    tag_142:\n      pop\n      tag_63\n      sload(0x0b)\n      dup2\n      jump\n        /* \"contracts/NFTMain.sol\":13708:13863  function tokenByIndex(uint256 index) public pure returns (uint256) {\r... */\n    tag_22:\n      callvalue\n      dup1\n      iszero\n      tag_146\n      jumpi\n      0x00\n      dup1\n      revert\n    tag_146:\n      pop\n      tag_63\n      tag_148\n      calldatasize\n      0x04\n      tag_80\n      jump\t// in\n    tag_148:\n      tag_149\n      jump\t// in\n        /* \"contracts/NFTMain.sol\":7216:7397  function ownerOf(uint256 _tokenId) public view override returns (address _owner) {\r... */\n    tag_23:\n      callvalue\n      dup1\n      iszero\n      tag_151\n      jumpi\n      0x00\n      dup1\n      revert\n    tag_151:\n      pop\n      tag_78\n      tag_153\n      calldatasize\n      0x04\n      tag_80\n      jump\t// in\n    tag_153:\n      tag_154\n      jump\t// in\n        /* \"contracts/NFTMain.sol\":19058:19153  function setFee (uint256 _newBaseFee) public onlyOwner {\r... */\n    tag_24:\n      callvalue\n      dup1\n      iszero\n      tag_156\n      jumpi\n      0x00\n      dup1\n      revert\n    tag_156:\n      pop\n      tag_68\n      tag_158\n      calldatasize\n      0x04\n      tag_80\n      jump\t// in\n    tag_158:\n      tag_159\n      jump\t// in\n        /* \"contracts/NFTMain.sol\":15494:15516  uint256 public baseFee */\n    tag_25:\n      callvalue\n      dup1\n      iszero\n      tag_160\n      jumpi\n      0x00\n      dup1\n      revert\n    tag_160:\n      pop\n      tag_63\n      sload(0x4e39)\n      dup2\n      jump\n        /* \"contracts/NFTMain.sol\":7041:7208  function balanceOf(address _owner) external view override returns (uint256) {\r... */\n    tag_26:\n      callvalue\n      dup1\n      iszero\n      tag_164\n      jumpi\n      0x00\n      dup1\n      revert\n    tag_164:\n      pop\n      tag_63\n      tag_166\n      calldatasize\n      0x04\n      tag_167\n      jump\t// in\n    tag_166:\n      tag_168\n      jump\t// in\n        /* \"@openzeppelin/contracts/access/Ownable.sol\":1668:1769  function renounceOwnership() public virtual onlyOwner {... */\n    tag_27:\n      callvalue\n      dup1\n      iszero\n      tag_170\n      jumpi\n      0x00\n      dup1\n      revert\n    tag_170:\n      pop\n      tag_68\n      tag_172\n      jump\t// in\n        /* \"contracts/NFTMain.sol\":15370:15410  mapping (uint256 => listing) public list */\n    tag_28:\n      callvalue\n      dup1\n      iszero\n      tag_173\n      jumpi\n      0x00\n      dup1\n      revert\n    tag_173:\n      pop\n      tag_174\n      tag_175\n      calldatasize\n      0x04\n      tag_80\n      jump\t// in\n    tag_175:\n      mstore(0x20, 0x4e37)\n      0x00\n      swap1\n      dup2\n      mstore\n      0x40\n      swap1\n      keccak256\n      dup1\n      sload\n      0x01\n      dup3\n      add\n      sload\n      0x02\n      swap1\n      swap3\n      add\n      sload\n      0xff\n      dup3\n      and\n      swap3\n      0x0100\n      swap1\n      swap3\n      div\n      sub(shl(0xa0, 0x01), 0x01)\n      and\n      swap2\n      swap1\n      dup5\n      jump\n    tag_174:\n      0x40\n      dup1\n      mload\n        /* \"#utility.yul\":9446:9460   */\n      swap5\n      iszero\n        /* \"#utility.yul\":9439:9461   */\n      iszero\n        /* \"#utility.yul\":9421:9462   */\n      dup6\n      mstore\n      sub(shl(0xa0, 0x01), 0x01)\n        /* \"#utility.yul\":9498:9530   */\n      swap1\n      swap4\n      and\n        /* \"#utility.yul\":9493:9495   */\n      0x20\n        /* \"#utility.yul\":9478:9496   */\n      dup6\n      add\n        /* \"#utility.yul\":9471:9531   */\n      mstore\n        /* \"#utility.yul\":9547:9565   */\n      swap2\n      dup4\n      add\n        /* \"#utility.yul\":9540:9574   */\n      mstore\n        /* \"#utility.yul\":9605:9607   */\n      0x60\n        /* \"#utility.yul\":9590:9608   */\n      dup3\n      add\n        /* \"#utility.yul\":9583:9617   */\n      mstore\n        /* \"#utility.yul\":9408:9411   */\n      0x80\n        /* \"#utility.yul\":9393:9412   */\n      add\n        /* \"contracts/NFTMain.sol\":15370:15410  mapping (uint256 => listing) public list */\n      tag_60\n        /* \"#utility.yul\":9196:9623   */\n      jump\n        /* \"@openzeppelin/contracts/access/Ownable.sol\":1036:1121  function owner() public view virtual returns (address) {... */\n    tag_29:\n      callvalue\n      dup1\n      iszero\n      tag_179\n      jumpi\n      0x00\n      dup1\n      revert\n    tag_179:\n      pop\n        /* \"@openzeppelin/contracts/access/Ownable.sol\":1082:1089  address */\n      0x00\n        /* \"@openzeppelin/contracts/access/Ownable.sol\":1108:1114  _owner */\n      sload\n      sub(shl(0xa0, 0x01), 0x01)\n      and\n        /* \"@openzeppelin/contracts/access/Ownable.sol\":1036:1121  function owner() public view virtual returns (address) {... */\n      jump(tag_78)\n        /* \"contracts/NFTMain.sol\":14743:14845  function symbol() external view returns (string memory _symbol) {\r... */\n    tag_30:\n      callvalue\n      dup1\n      iszero\n      tag_183\n      jumpi\n      0x00\n      dup1\n      revert\n    tag_183:\n      pop\n      tag_73\n      tag_185\n      jump\t// in\n        /* \"contracts/NFTMain.sol\":3416:3437  string public baseUri */\n    tag_31:\n      callvalue\n      dup1\n      iszero\n      tag_187\n      jumpi\n      0x00\n      dup1\n      revert\n    tag_187:\n      pop\n      tag_73\n      tag_189\n      jump\t// in\n        /* \"contracts/NFTMain.sol\":15039:15130  function setUri (string memory newUri) public onlyOwner {\r... */\n    tag_32:\n      callvalue\n      dup1\n      iszero\n      tag_191\n      jumpi\n      0x00\n      dup1\n      revert\n    tag_191:\n      pop\n      tag_68\n      tag_193\n      calldatasize\n      0x04\n      tag_194\n      jump\t// in\n    tag_193:\n      tag_195\n      jump\t// in\n        /* \"contracts/NFTMain.sol\":6819:7033  function setApprovalForAll(address _operator, bool _approved) external override {\r... */\n    tag_33:\n      callvalue\n      dup1\n      iszero\n      tag_196\n      jumpi\n      0x00\n      dup1\n      revert\n    tag_196:\n      pop\n      tag_68\n      tag_198\n      calldatasize\n      0x04\n      tag_199\n      jump\t// in\n    tag_198:\n      tag_200\n      jump\t// in\n        /* \"contracts/NFTMain.sol\":15853:16353  function createListing (uint256 _price, uint256 _tokenId, uint256 _purchaseTokenId) public {\r... */\n    tag_34:\n      callvalue\n      dup1\n      iszero\n      tag_201\n      jumpi\n      0x00\n      dup1\n      revert\n    tag_201:\n      pop\n      tag_68\n      tag_203\n      calldatasize\n      0x04\n      tag_204\n      jump\t// in\n    tag_203:\n      tag_205\n      jump\t// in\n        /* \"contracts/NFTMain.sol\":5025:5202  function startSale() external onlyOwner {\r... */\n    tag_35:\n      callvalue\n      dup1\n      iszero\n      tag_206\n      jumpi\n      0x00\n      dup1\n      revert\n    tag_206:\n      pop\n      tag_68\n      tag_208\n      jump\t// in\n        /* \"contracts/NFTMain.sol\":5791:5968  function safeTransferFrom(address _from, address _to, uint256 _tokenId, bytes calldata _data) external override {\r... */\n    tag_36:\n      callvalue\n      dup1\n      iszero\n      tag_209\n      jumpi\n      0x00\n      dup1\n      revert\n    tag_209:\n      pop\n      tag_68\n      tag_211\n      calldatasize\n      0x04\n      tag_212\n      jump\t// in\n    tag_211:\n      tag_213\n      jump\t// in\n        /* \"contracts/NFTMain.sol\":3291:3322  bool public privateSale = false */\n    tag_37:\n      callvalue\n      dup1\n      iszero\n      tag_214\n      jumpi\n      0x00\n      dup1\n      revert\n    tag_214:\n      pop\n      sload(0x0f)\n      tag_56\n      swap1\n      shl(0xa8, 0x01)\n      swap1\n      div\n      0xff\n      and\n      dup2\n      jump\n        /* \"contracts/NFTMain.sol\":15419:15467  mapping (uint256 => IERC20) public purchaseToken */\n    tag_38:\n      callvalue\n      dup1\n      iszero\n      tag_218\n      jumpi\n      0x00\n      dup1\n      revert\n    tag_218:\n      pop\n      tag_78\n      tag_220\n      calldatasize\n      0x04\n      tag_80\n      jump\t// in\n    tag_220:\n      mstore(0x20, 0x4e38)\n      0x00\n      swap1\n      dup2\n      mstore\n      0x40\n      swap1\n      keccak256\n      sload\n      sub(shl(0xa0, 0x01), 0x01)\n      and\n      dup2\n      jump\n        /* \"contracts/NFTMain.sol\":14855:15031  function tokenURI(uint256 _tokenId) external view validNFToken(_tokenId) returns (string memory) {\r... */\n    tag_39:\n      callvalue\n      dup1\n      iszero\n      tag_224\n      jumpi\n      0x00\n      dup1\n      revert\n    tag_224:\n      pop\n      tag_73\n      tag_226\n      calldatasize\n      0x04\n      tag_80\n      jump\t// in\n    tag_226:\n      tag_227\n      jump\t// in\n        /* \"contracts/NFTMain.sol\":16671:17877  function buyNFTWithToken (uint256 _tokenId) public {\r... */\n    tag_40:\n      callvalue\n      dup1\n      iszero\n      tag_229\n      jumpi\n      0x00\n      dup1\n      revert\n    tag_229:\n      pop\n      tag_68\n      tag_231\n      calldatasize\n      0x04\n      tag_80\n      jump\t// in\n    tag_231:\n      tag_232\n      jump\t// in\n        /* \"contracts/NFTMain.sol\":15554:15586  bool public marketStatus = false */\n    tag_41:\n      callvalue\n      dup1\n      iszero\n      tag_233\n      jumpi\n      0x00\n      dup1\n      revert\n    tag_233:\n      pop\n      sload(0x4e3a)\n      tag_56\n      swap1\n      shl(0xa0, 0x01)\n      swap1\n      div\n      0xff\n      and\n      dup2\n      jump\n        /* \"contracts/NFTMain.sol\":7564:7724  function isApprovedForAll(address _owner, address _operator) external override view returns (bool) {\r... */\n    tag_42:\n      callvalue\n      dup1\n      iszero\n      tag_237\n      jumpi\n      0x00\n      dup1\n      revert\n    tag_237:\n      pop\n      tag_56\n      tag_239\n      calldatasize\n      0x04\n      tag_240\n      jump\t// in\n    tag_239:\n      sub(shl(0xa0, 0x01), 0x01)\n        /* \"contracts/NFTMain.sol\":7681:7705  ownerToOperators[_owner] */\n      swap2\n      dup3\n      and\n        /* \"contracts/NFTMain.sol\":7657:7661  bool */\n      0x00\n        /* \"contracts/NFTMain.sol\":7681:7705  ownerToOperators[_owner] */\n      swap1\n      dup2\n      mstore\n        /* \"contracts/NFTMain.sol\":7681:7697  ownerToOperators */\n      0x04\n        /* \"contracts/NFTMain.sol\":7681:7705  ownerToOperators[_owner] */\n      0x20\n      swap1\n      dup2\n      mstore\n      0x40\n      dup1\n      dup4\n      keccak256\n        /* \"contracts/NFTMain.sol\":7681:7716  ownerToOperators[_owner][_operator] */\n      swap4\n      swap1\n      swap5\n      and\n      dup3\n      mstore\n      swap2\n      swap1\n      swap2\n      mstore\n      keccak256\n      sload\n      0xff\n      and\n      swap1\n        /* \"contracts/NFTMain.sol\":7564:7724  function isApprovedForAll(address _owner, address _operator) external override view returns (bool) {\r... */\n      jump\n        /* \"contracts/NFTMain.sol\":3088:3124  uint public  remainderOfGold = 10000 */\n    tag_43:\n      callvalue\n      dup1\n      iszero\n      tag_243\n      jumpi\n      0x00\n      dup1\n      revert\n    tag_243:\n      pop\n      tag_63\n      sload(0x0c)\n      dup2\n      jump\n        /* \"contracts/NFTMain.sol\":15523:15547  address public feeWallet */\n    tag_44:\n      callvalue\n      dup1\n      iszero\n      tag_247\n      jumpi\n      0x00\n      dup1\n      revert\n    tag_247:\n      pop\n      sload(0x4e3a)\n      tag_78\n      swap1\n      sub(shl(0xa0, 0x01), 0x01)\n      and\n      dup2\n      jump\n        /* \"@openzeppelin/contracts/access/Ownable.sol\":1918:2116  function transferOwnership(address newOwner) public virtual onlyOwner {... */\n    tag_45:\n      callvalue\n      dup1\n      iszero\n      tag_251\n      jumpi\n      0x00\n      dup1\n      revert\n    tag_251:\n      pop\n      tag_68\n      tag_253\n      calldatasize\n      0x04\n      tag_167\n      jump\t// in\n    tag_253:\n      tag_254\n      jump\t// in\n        /* \"contracts/NFTMain.sol\":17885:18760  function buyNFTMatic (uint256 _tokenId) public payable {\r... */\n    tag_46:\n      tag_68\n      tag_256\n      calldatasize\n      0x04\n      tag_80\n      jump\t// in\n    tag_256:\n      tag_257\n      jump\t// in\n        /* \"contracts/NFTMain.sol\":3444:3462  IERC20 public gold */\n    tag_47:\n      callvalue\n      dup1\n      iszero\n      tag_258\n      jumpi\n      0x00\n      dup1\n      revert\n    tag_258:\n      pop\n      sload(0x13)\n      tag_78\n      swap1\n      sub(shl(0xa0, 0x01), 0x01)\n      and\n      dup2\n      jump\n        /* \"contracts/NFTMain.sol\":19161:19325  function addPaymentToken (uint256 _paymentTokenId, address _tokenAddress) public onlyOwner {\r... */\n    tag_71:\n        /* \"@openzeppelin/contracts/access/Ownable.sol\":1082:1089  address */\n      0x00\n        /* \"@openzeppelin/contracts/access/Ownable.sol\":1108:1114  _owner */\n      sload\n      sub(shl(0xa0, 0x01), 0x01)\n      and\n        /* \"@openzeppelin/contracts/utils/Context.sol\":719:729  msg.sender */\n      caller\n        /* \"@openzeppelin/contracts/access/Ownable.sol\":1248:1271  owner() == _msgSender() */\n      eq\n        /* \"@openzeppelin/contracts/access/Ownable.sol\":1240:1308  require(owner() == _msgSender(), \"Ownable: caller is not the owner\") */\n      tag_267\n      jumpi\n      mload(0x40)\n      shl(0xe5, 0x461bcd)\n      dup2\n      mstore\n      0x04\n      add\n      tag_268\n      swap1\n      tag_269\n      jump\t// in\n    tag_268:\n      mload(0x40)\n      dup1\n      swap2\n      sub\n      swap1\n      revert\n    tag_267:\n        /* \"contracts/NFTMain.sol\":19263:19293  purchaseToken[_paymentTokenId] */\n      0x00\n      swap2\n      dup3\n      mstore\n        /* \"contracts/NFTMain.sol\":19263:19276  purchaseToken */\n      0x4e38\n        /* \"contracts/NFTMain.sol\":19263:19293  purchaseToken[_paymentTokenId] */\n      0x20\n      mstore\n      0x40\n      swap1\n      swap2\n      keccak256\n        /* \"contracts/NFTMain.sol\":19263:19317  purchaseToken[_paymentTokenId] = IERC20(_tokenAddress) */\n      dup1\n      sload\n      not(sub(shl(0xa0, 0x01), 0x01))\n      and\n      sub(shl(0xa0, 0x01), 0x01)\n      swap1\n      swap3\n      and\n      swap2\n      swap1\n      swap2\n      or\n      swap1\n      sstore\n        /* \"contracts/NFTMain.sol\":19161:19325  function addPaymentToken (uint256 _paymentTokenId, address _tokenAddress) public onlyOwner {\r... */\n      jump\t// out\n        /* \"contracts/NFTMain.sol\":14641:14735  function name() external view returns (string memory _name) {\r... */\n    tag_74:\n        /* \"contracts/NFTMain.sol\":14680:14699  string memory _name */\n      0x60\n        /* \"contracts/NFTMain.sol\":14720:14727  nftName */\n      0x07\n        /* \"contracts/NFTMain.sol\":14712:14727  _name = nftName */\n      dup1\n      sload\n      tag_272\n      swap1\n      tag_273\n      jump\t// in\n    tag_272:\n      dup1\n      0x1f\n      add\n      0x20\n      dup1\n      swap2\n      div\n      mul\n      0x20\n      add\n      mload(0x40)\n      swap1\n      dup2\n      add\n      0x40\n      mstore\n      dup1\n      swap3\n      swap2\n      swap1\n      dup2\n      dup2\n      mstore\n      0x20\n      add\n      dup3\n      dup1\n      sload\n      tag_274\n      swap1\n      tag_273\n      jump\t// in\n    tag_274:\n      dup1\n      iszero\n      tag_275\n      jumpi\n      dup1\n      0x1f\n      lt\n      tag_276\n      jumpi\n      0x0100\n      dup1\n      dup4\n      sload\n      div\n      mul\n      dup4\n      mstore\n      swap2\n      0x20\n      add\n      swap2\n      jump(tag_275)\n    tag_276:\n      dup3\n      add\n      swap2\n      swap1\n      0x00\n      mstore\n      keccak256(0x00, 0x20)\n      swap1\n    tag_277:\n      dup2\n      sload\n      dup2\n      mstore\n      swap1\n      0x01\n      add\n      swap1\n      0x20\n      add\n      dup1\n      dup4\n      gt\n      tag_277\n      jumpi\n      dup3\n      swap1\n      sub\n      0x1f\n      and\n      dup3\n      add\n      swap2\n    tag_275:\n      pop\n      pop\n      pop\n      pop\n      pop\n      swap1\n      pop\n        /* \"contracts/NFTMain.sol\":14641:14735  function name() external view returns (string memory _name) {\r... */\n      swap1\n      jump\t// out\n        /* \"contracts/NFTMain.sol\":7405:7556  function getApproved(uint256 _tokenId) external view override validNFToken(_tokenId) returns (address) {\r... */\n    tag_81:\n        /* \"contracts/NFTMain.sol\":7499:7506  address */\n      0x00\n        /* \"contracts/NFTMain.sol\":4402:4421  idToOwner[_tokenId] */\n      dup2\n      dup2\n      mstore\n        /* \"contracts/NFTMain.sol\":4402:4411  idToOwner */\n      0x02\n        /* \"contracts/NFTMain.sol\":4402:4421  idToOwner[_tokenId] */\n      0x20\n      mstore\n      0x40\n      dup2\n      keccak256\n      sload\n        /* \"contracts/NFTMain.sol\":7480:7488  _tokenId */\n      dup3\n      swap1\n      sub(shl(0xa0, 0x01), 0x01)\n        /* \"contracts/NFTMain.sol\":4402:4421  idToOwner[_tokenId] */\n      and\n        /* \"contracts/NFTMain.sol\":4394:4454  require(idToOwner[_tokenId] != address(0), \"Invalid token.\") */\n      tag_279\n      jumpi\n      mload(0x40)\n      shl(0xe5, 0x461bcd)\n      dup2\n      mstore\n      0x04\n      add\n      tag_268\n      swap1\n      tag_281\n      jump\t// in\n    tag_279:\n        /* \"contracts/NFTMain.sol\":7526:7548  idToApproval[_tokenId] */\n      0x00\n      dup4\n      dup2\n      mstore\n        /* \"contracts/NFTMain.sol\":7526:7538  idToApproval */\n      0x03\n        /* \"contracts/NFTMain.sol\":7526:7548  idToApproval[_tokenId] */\n      0x20\n      mstore\n      0x40\n      swap1\n      keccak256\n      sload\n      sub(shl(0xa0, 0x01), 0x01)\n      and\n      swap2\n      pop\n        /* \"contracts/NFTMain.sol\":4465:4466  _ */\n    tag_282:\n        /* \"contracts/NFTMain.sol\":7405:7556  function getApproved(uint256 _tokenId) external view override validNFToken(_tokenId) returns (address) {\r... */\n      pop\n      swap2\n      swap1\n      pop\n      jump\t// out\n        /* \"contracts/NFTMain.sol\":6491:6811  function approve(address _approved, uint256 _tokenId) external override canOperate(_tokenId) validNFToken(_tokenId) {\r... */\n    tag_88:\n        /* \"contracts/NFTMain.sol\":3852:3870  address tokenOwner */\n      0x00\n        /* \"contracts/NFTMain.sol\":3873:3892  idToOwner[_tokenId] */\n      dup2\n      dup2\n      mstore\n        /* \"contracts/NFTMain.sol\":3873:3882  idToOwner */\n      0x02\n        /* \"contracts/NFTMain.sol\":3873:3892  idToOwner[_tokenId] */\n      0x20\n      mstore\n      0x40\n      swap1\n      keccak256\n      sload\n        /* \"contracts/NFTMain.sol\":6574:6582  _tokenId */\n      dup2\n      swap1\n      sub(shl(0xa0, 0x01), 0x01)\n        /* \"contracts/NFTMain.sol\":3873:3892  idToOwner[_tokenId] */\n      and\n        /* \"contracts/NFTMain.sol\":3925:3935  msg.sender */\n      caller\n        /* \"contracts/NFTMain.sol\":3911:3935  tokenOwner == msg.sender */\n      dup2\n      eq\n      dup1\n        /* \"contracts/NFTMain.sol\":3911:3979  tokenOwner == msg.sender || ownerToOperators[tokenOwner][msg.sender] */\n      tag_284\n      jumpi\n      pop\n      sub(shl(0xa0, 0x01), 0x01)\n        /* \"contracts/NFTMain.sol\":3939:3967  ownerToOperators[tokenOwner] */\n      dup2\n      and\n      0x00\n      swap1\n      dup2\n      mstore\n        /* \"contracts/NFTMain.sol\":3939:3955  ownerToOperators */\n      0x04\n        /* \"contracts/NFTMain.sol\":3939:3967  ownerToOperators[tokenOwner] */\n      0x20\n      swap1\n      dup2\n      mstore\n      0x40\n      dup1\n      dup4\n      keccak256\n        /* \"contracts/NFTMain.sol\":3968:3978  msg.sender */\n      caller\n        /* \"contracts/NFTMain.sol\":3939:3979  ownerToOperators[tokenOwner][msg.sender] */\n      dup5\n      mstore\n      swap1\n      swap2\n      mstore\n      swap1\n      keccak256\n      sload\n      0xff\n      and\n        /* \"contracts/NFTMain.sol\":3911:3979  tokenOwner == msg.sender || ownerToOperators[tokenOwner][msg.sender] */\n    tag_284:\n        /* \"contracts/NFTMain.sol\":3903:3999  require(tokenOwner == msg.sender || ownerToOperators[tokenOwner][msg.sender], \"Cannot operate.\") */\n      tag_285\n      jumpi\n      mload(0x40)\n      shl(0xe5, 0x461bcd)\n      dup2\n      mstore\n        /* \"#utility.yul\":14253:14255   */\n      0x20\n        /* \"contracts/NFTMain.sol\":3903:3999  require(tokenOwner == msg.sender || ownerToOperators[tokenOwner][msg.sender], \"Cannot operate.\") */\n      0x04\n      dup3\n      add\n        /* \"#utility.yul\":14235:14256   */\n      mstore\n        /* \"#utility.yul\":14292:14294   */\n      0x0f\n        /* \"#utility.yul\":14272:14290   */\n      0x24\n      dup3\n      add\n        /* \"#utility.yul\":14265:14295   */\n      mstore\n      shl(0x89, 0x21b0b73737ba1037b832b930ba3297)\n        /* \"#utility.yul\":14311:14329   */\n      0x44\n      dup3\n      add\n        /* \"#utility.yul\":14304:14349   */\n      mstore\n        /* \"#utility.yul\":14366:14384   */\n      0x64\n      add\n        /* \"contracts/NFTMain.sol\":3903:3999  require(tokenOwner == msg.sender || ownerToOperators[tokenOwner][msg.sender], \"Cannot operate.\") */\n      tag_268\n        /* \"#utility.yul\":14051:14390   */\n      jump\n        /* \"contracts/NFTMain.sol\":3903:3999  require(tokenOwner == msg.sender || ownerToOperators[tokenOwner][msg.sender], \"Cannot operate.\") */\n    tag_285:\n        /* \"contracts/NFTMain.sol\":4433:4434  0 */\n      0x00\n        /* \"contracts/NFTMain.sol\":4402:4421  idToOwner[_tokenId] */\n      dup4\n      dup2\n      mstore\n        /* \"contracts/NFTMain.sol\":4402:4411  idToOwner */\n      0x02\n        /* \"contracts/NFTMain.sol\":4402:4421  idToOwner[_tokenId] */\n      0x20\n      mstore\n      0x40\n      swap1\n      keccak256\n      sload\n        /* \"contracts/NFTMain.sol\":6597:6605  _tokenId */\n      dup4\n      swap1\n      sub(shl(0xa0, 0x01), 0x01)\n        /* \"contracts/NFTMain.sol\":4402:4421  idToOwner[_tokenId] */\n      and\n        /* \"contracts/NFTMain.sol\":4394:4454  require(idToOwner[_tokenId] != address(0), \"Invalid token.\") */\n      tag_289\n      jumpi\n      mload(0x40)\n      shl(0xe5, 0x461bcd)\n      dup2\n      mstore\n      0x04\n      add\n      tag_268\n      swap1\n      tag_281\n      jump\t// in\n    tag_289:\n        /* \"contracts/NFTMain.sol\":6618:6636  address tokenOwner */\n      0x00\n        /* \"contracts/NFTMain.sol\":6639:6658  idToOwner[_tokenId] */\n      dup5\n      dup2\n      mstore\n        /* \"contracts/NFTMain.sol\":6639:6648  idToOwner */\n      0x02\n        /* \"contracts/NFTMain.sol\":6639:6658  idToOwner[_tokenId] */\n      0x20\n      mstore\n      0x40\n      swap1\n      keccak256\n      sload\n      sub(shl(0xa0, 0x01), 0x01)\n      swap1\n      dup2\n      and\n      swap1\n        /* \"contracts/NFTMain.sol\":6677:6700  _approved != tokenOwner */\n      dup7\n      and\n      dup2\n      eq\n      iszero\n        /* \"contracts/NFTMain.sol\":6669:6701  require(_approved != tokenOwner) */\n      tag_292\n      jumpi\n      0x00\n      dup1\n      revert\n    tag_292:\n        /* \"contracts/NFTMain.sol\":6712:6734  idToApproval[_tokenId] */\n      0x00\n      dup6\n      dup2\n      mstore\n        /* \"contracts/NFTMain.sol\":6712:6724  idToApproval */\n      0x03\n        /* \"contracts/NFTMain.sol\":6712:6734  idToApproval[_tokenId] */\n      0x20\n      mstore\n      0x40\n      dup1\n      dup3\n      keccak256\n        /* \"contracts/NFTMain.sol\":6712:6746  idToApproval[_tokenId] = _approved */\n      dup1\n      sload\n      not(sub(shl(0xa0, 0x01), 0x01))\n      and\n      sub(shl(0xa0, 0x01), 0x01)\n      dup11\n      dup2\n      and\n      swap2\n      dup3\n      or\n      swap1\n      swap3\n      sstore\n        /* \"contracts/NFTMain.sol\":6762:6803  Approval(tokenOwner, _approved, _tokenId) */\n      swap2\n      mload\n        /* \"contracts/NFTMain.sol\":6712:6734  idToApproval[_tokenId] */\n      dup9\n      swap4\n        /* \"contracts/NFTMain.sol\":6762:6803  Approval(tokenOwner, _approved, _tokenId) */\n      swap2\n      dup6\n      and\n      swap2\n      0x8c5be1e5ebec7d5bd14f71427d1e84f3dd0314c0f7b2291e5b200ac8c7c3b925\n      swap2\n      log4\n        /* \"contracts/NFTMain.sol\":6607:6811  {\r... */\n      pop\n        /* \"contracts/NFTMain.sol\":4010:4011  _ */\n      pop\n        /* \"contracts/NFTMain.sol\":3841:4019  {\r... */\n      pop\n        /* \"contracts/NFTMain.sol\":6491:6811  function approve(address _approved, uint256 _tokenId) external override canOperate(_tokenId) validNFToken(_tokenId) {\r... */\n      pop\n      pop\n      pop\n      jump\t// out\n        /* \"contracts/NFTMain.sol\":7732:8068  function canUse (uint256 _tokenId, address _check) public view returns (bool)  {\r... */\n    tag_92:\n        /* \"contracts/NFTMain.sol\":7804:7808  bool */\n      0x00\n        /* \"contracts/NFTMain.sol\":7843:7862  idToOwner[_tokenId] */\n      dup3\n      dup2\n      mstore\n        /* \"contracts/NFTMain.sol\":7843:7852  idToOwner */\n      0x02\n        /* \"contracts/NFTMain.sol\":7843:7862  idToOwner[_tokenId] */\n      0x20\n      mstore\n      0x40\n      dup2\n      keccak256\n      sload\n      sub(shl(0xa0, 0x01), 0x01)\n      swap1\n      dup2\n      and\n      swap1\n        /* \"contracts/NFTMain.sol\":7890:7910  tokenOwner == _check */\n      dup4\n      and\n      dup2\n      eq\n      dup1\n        /* \"contracts/NFTMain.sol\":7890:7959  tokenOwner == _check\r... */\n      tag_294\n      jumpi\n      pop\n        /* \"contracts/NFTMain.sol\":7927:7949  idToApproval[_tokenId] */\n      0x00\n      dup5\n      dup2\n      mstore\n        /* \"contracts/NFTMain.sol\":7927:7939  idToApproval */\n      0x03\n        /* \"contracts/NFTMain.sol\":7927:7949  idToApproval[_tokenId] */\n      0x20\n      mstore\n      0x40\n      swap1\n      keccak256\n      sload\n      sub(shl(0xa0, 0x01), 0x01)\n        /* \"contracts/NFTMain.sol\":7927:7959  idToApproval[_tokenId] == _check */\n      dup5\n      dup2\n      and\n        /* \"contracts/NFTMain.sol\":7927:7949  idToApproval[_tokenId] */\n      swap2\n      and\n        /* \"contracts/NFTMain.sol\":7927:7959  idToApproval[_tokenId] == _check */\n      eq\n        /* \"contracts/NFTMain.sol\":7890:7959  tokenOwner == _check\r... */\n    tag_294:\n        /* \"contracts/NFTMain.sol\":7890:8012  tokenOwner == _check\r... */\n      dup1\n      tag_295\n      jumpi\n      pop\n      sub(shl(0xa0, 0x01), 0x01)\n        /* \"contracts/NFTMain.sol\":7976:8004  ownerToOperators[tokenOwner] */\n      dup1\n      dup3\n      and\n      0x00\n      swap1\n      dup2\n      mstore\n        /* \"contracts/NFTMain.sol\":7976:7992  ownerToOperators */\n      0x04\n        /* \"contracts/NFTMain.sol\":7976:8004  ownerToOperators[tokenOwner] */\n      0x20\n      swap1\n      dup2\n      mstore\n      0x40\n      dup1\n      dup4\n      keccak256\n        /* \"contracts/NFTMain.sol\":7976:8012  ownerToOperators[tokenOwner][_check] */\n      swap4\n      dup8\n      and\n      dup4\n      mstore\n      swap3\n      swap1\n      mstore\n      keccak256\n      sload\n      0xff\n      and\n        /* \"contracts/NFTMain.sol\":7890:8012  tokenOwner == _check\r... */\n    tag_295:\n        /* \"contracts/NFTMain.sol\":7873:8059  if(\r... */\n      iszero\n      tag_296\n      jumpi\n        /* \"contracts/NFTMain.sol\":8032:8036  true */\n      0x01\n        /* \"contracts/NFTMain.sol\":8025:8036  return true */\n      swap2\n      pop\n      pop\n      jump(tag_293)\n        /* \"contracts/NFTMain.sol\":7873:8059  if(\r... */\n    tag_296:\n        /* \"contracts/NFTMain.sol\":8052:8057  false */\n      0x00\n        /* \"contracts/NFTMain.sol\":8045:8057  return false */\n      swap2\n      pop\n      pop\n        /* \"contracts/NFTMain.sol\":7732:8068  function canUse (uint256 _tokenId, address _check) public view returns (bool)  {\r... */\n    tag_293:\n      swap3\n      swap2\n      pop\n      pop\n      jump\t// out\n        /* \"contracts/NFTMain.sol\":10180:10883  function Goldmint(uint256 numberOfNfts) external payable reentrancyGuard {\r... */\n    tag_96:\n        /* \"contracts/NFTMain.sol\":3660:3674  reentrancyLock */\n      and(0xff, sload(0x4e36))\n        /* \"contracts/NFTMain.sol\":3656:3711  if (reentrancyLock) {\r... */\n      iszero\n      tag_299\n      jumpi\n        /* \"contracts/NFTMain.sol\":3691:3699  revert() */\n      0x00\n      dup1\n      revert\n        /* \"contracts/NFTMain.sol\":3656:3711  if (reentrancyLock) {\r... */\n    tag_299:\n        /* \"contracts/NFTMain.sol\":3721:3735  reentrancyLock */\n      0x4e36\n        /* \"contracts/NFTMain.sol\":3721:3742  reentrancyLock = true */\n      dup1\n      sload\n      not(0xff)\n      and\n        /* \"contracts/NFTMain.sol\":3738:3742  true */\n      0x01\n        /* \"contracts/NFTMain.sol\":3721:3742  reentrancyLock = true */\n      or\n      swap1\n      sstore\n        /* \"contracts/NFTMain.sol\":10272:10282  publicSale */\n      sload(0x0f)\n      shl(0xa0, 0x01)\n      swap1\n      div\n        /* \"contracts/NFTMain.sol\":3721:3742  reentrancyLock = true */\n      0xff\n        /* \"contracts/NFTMain.sol\":10272:10282  publicSale */\n      and\n        /* \"contracts/NFTMain.sol\":10264:10304  require(publicSale, \"Sale not started.\") */\n      tag_301\n      jumpi\n      mload(0x40)\n      shl(0xe5, 0x461bcd)\n      dup2\n      mstore\n        /* \"#utility.yul\":11751:11753   */\n      0x20\n        /* \"contracts/NFTMain.sol\":10264:10304  require(publicSale, \"Sale not started.\") */\n      0x04\n      dup3\n      add\n        /* \"#utility.yul\":11733:11754   */\n      mstore\n        /* \"#utility.yul\":11790:11792   */\n      0x11\n        /* \"#utility.yul\":11770:11788   */\n      0x24\n      dup3\n      add\n        /* \"#utility.yul\":11763:11793   */\n      mstore\n      shl(0x79, 0x29b0b632903737ba1039ba30b93a32b217)\n        /* \"#utility.yul\":11809:11827   */\n      0x44\n      dup3\n      add\n        /* \"#utility.yul\":11802:11849   */\n      mstore\n        /* \"#utility.yul\":11866:11884   */\n      0x64\n      add\n        /* \"contracts/NFTMain.sol\":10264:10304  require(publicSale, \"Sale not started.\") */\n      tag_268\n        /* \"#utility.yul\":11549:11890   */\n      jump\n        /* \"contracts/NFTMain.sol\":10264:10304  require(publicSale, \"Sale not started.\") */\n    tag_301:\n        /* \"contracts/NFTMain.sol\":10339:10341  20 */\n      0x14\n        /* \"contracts/NFTMain.sol\":10323:10335  numberOfNfts */\n      dup2\n        /* \"contracts/NFTMain.sol\":10323:10341  numberOfNfts <= 20 */\n      gt\n      iszero\n        /* \"contracts/NFTMain.sol\":10315:10387  require(numberOfNfts <= 20, \"You can not buy more than 20 NFTs at once\") */\n      tag_304\n      jumpi\n      mload(0x40)\n      shl(0xe5, 0x461bcd)\n      dup2\n      mstore\n      0x04\n      add\n      tag_268\n      swap1\n      tag_306\n      jump\t// in\n    tag_304:\n        /* \"contracts/NFTMain.sol\":2490:2495  20000 */\n      0x4e20\n        /* \"contracts/NFTMain.sol\":10406:10437  totalSupply().add(numberOfNfts) */\n      tag_307\n        /* \"contracts/NFTMain.sol\":10424:10436  numberOfNfts */\n      dup3\n        /* \"contracts/NFTMain.sol\":10406:10419  totalSupply() */\n      tag_308\n        /* \"contracts/NFTMain.sol\":13683:13692  numTokens */\n      sload(0x09)\n      swap1\n        /* \"contracts/NFTMain.sol\":13612:13700  function totalSupply() public view returns (uint256) {\r... */\n      jump\n        /* \"contracts/NFTMain.sol\":10406:10419  totalSupply() */\n    tag_308:\n        /* \"contracts/NFTMain.sol\":10406:10423  totalSupply().add */\n      swap1\n      tag_309\n        /* \"contracts/NFTMain.sol\":10406:10437  totalSupply().add(numberOfNfts) */\n      jump\t// in\n    tag_307:\n        /* \"contracts/NFTMain.sol\":10406:10452  totalSupply().add(numberOfNfts) <= TOKEN_LIMIT */\n      gt\n      iszero\n        /* \"contracts/NFTMain.sol\":10398:10476  require(totalSupply().add(numberOfNfts) <= TOKEN_LIMIT, \"Exceeds TOKEN_LIMIT\") */\n      tag_310\n      jumpi\n      mload(0x40)\n      shl(0xe5, 0x461bcd)\n      dup2\n      mstore\n        /* \"#utility.yul\":12097:12099   */\n      0x20\n        /* \"contracts/NFTMain.sol\":10398:10476  require(totalSupply().add(numberOfNfts) <= TOKEN_LIMIT, \"Exceeds TOKEN_LIMIT\") */\n      0x04\n      dup3\n      add\n        /* \"#utility.yul\":12079:12100   */\n      mstore\n        /* \"#utility.yul\":12136:12138   */\n      0x13\n        /* \"#utility.yul\":12116:12134   */\n      0x24\n      dup3\n      add\n        /* \"#utility.yul\":12109:12139   */\n      mstore\n      shl(0x6a, 0x115e18d959591cc81513d2d15397d312535255)\n        /* \"#utility.yul\":12155:12173   */\n      0x44\n      dup3\n      add\n        /* \"#utility.yul\":12148:12197   */\n      mstore\n        /* \"#utility.yul\":12214:12232   */\n      0x64\n      add\n        /* \"contracts/NFTMain.sol\":10398:10476  require(totalSupply().add(numberOfNfts) <= TOKEN_LIMIT, \"Exceeds TOKEN_LIMIT\") */\n      tag_268\n        /* \"#utility.yul\":11895:12238   */\n      jump\n        /* \"contracts/NFTMain.sol\":10398:10476  require(totalSupply().add(numberOfNfts) <= TOKEN_LIMIT, \"Exceeds TOKEN_LIMIT\") */\n    tag_310:\n        /* \"contracts/NFTMain.sol\":10495:10510  remainderOfGold */\n      sload(0x0c)\n        /* \"contracts/NFTMain.sol\":10532:10533  0 */\n      0x00\n      swap1\n        /* \"contracts/NFTMain.sol\":10495:10528  remainderOfGold.sub(numberOfNfts) */\n      tag_313\n      swap1\n        /* \"contracts/NFTMain.sol\":10515:10527  numberOfNfts */\n      dup4\n        /* \"contracts/NFTMain.sol\":10495:10514  remainderOfGold.sub */\n      tag_314\n        /* \"contracts/NFTMain.sol\":10495:10528  remainderOfGold.sub(numberOfNfts) */\n      jump\t// in\n    tag_313:\n        /* \"contracts/NFTMain.sol\":10495:10533  remainderOfGold.sub(numberOfNfts) >= 0 */\n      lt\n      iszero\n        /* \"contracts/NFTMain.sol\":10487:10582  require(remainderOfGold.sub(numberOfNfts) >= 0, \"Exceeds remaining primary sale of MATIC sale\") */\n      tag_315\n      jumpi\n      mload(0x40)\n      shl(0xe5, 0x461bcd)\n      dup2\n      mstore\n      0x04\n      add\n      tag_268\n      swap1\n      tag_317\n      jump\t// in\n    tag_315:\n        /* \"contracts/NFTMain.sol\":10603:10684  gold.safeTransferFrom(msg.sender, address(this), goldMintPrice.mul(numberOfNfts)) */\n      tag_318\n        /* \"contracts/NFTMain.sol\":10625:10635  msg.sender */\n      caller\n        /* \"contracts/NFTMain.sol\":10645:10649  this */\n      address\n        /* \"contracts/NFTMain.sol\":10652:10683  goldMintPrice.mul(numberOfNfts) */\n      tag_319\n        /* \"contracts/NFTMain.sol\":10670:10682  numberOfNfts */\n      dup5\n        /* \"contracts/NFTMain.sol\":10652:10665  goldMintPrice */\n      sload(0x11)\n        /* \"contracts/NFTMain.sol\":10652:10669  goldMintPrice.mul */\n      tag_320\n      swap1\n        /* \"contracts/NFTMain.sol\":10652:10683  goldMintPrice.mul(numberOfNfts) */\n      swap2\n      swap1\n      0xffffffff\n      and\n      jump\t// in\n    tag_319:\n        /* \"contracts/NFTMain.sol\":10603:10607  gold */\n      and(sub(shl(0xa0, 0x01), 0x01), sload(0x13))\n      swap3\n        /* \"contracts/NFTMain.sol\":10603:10684  gold.safeTransferFrom(msg.sender, address(this), goldMintPrice.mul(numberOfNfts)) */\n      swap2\n      swap1\n        /* \"contracts/NFTMain.sol\":10603:10624  gold.safeTransferFrom */\n      tag_321\n        /* \"contracts/NFTMain.sol\":10603:10684  gold.safeTransferFrom(msg.sender, address(this), goldMintPrice.mul(numberOfNfts)) */\n      jump\t// in\n    tag_318:\n        /* \"contracts/NFTMain.sol\":10710:10716  uint i */\n      0x00\n        /* \"contracts/NFTMain.sol\":10705:10866  for (uint i = 0; i < numberOfNfts; i++) {\r... */\n    tag_322:\n        /* \"contracts/NFTMain.sol\":10726:10738  numberOfNfts */\n      dup2\n        /* \"contracts/NFTMain.sol\":10722:10723  i */\n      dup2\n        /* \"contracts/NFTMain.sol\":10722:10738  i < numberOfNfts */\n      lt\n        /* \"contracts/NFTMain.sol\":10705:10866  for (uint i = 0; i < numberOfNfts; i++) {\r... */\n      iszero\n      tag_323\n      jumpi\n        /* \"contracts/NFTMain.sol\":10760:10768  numSales */\n      0x0a\n        /* \"contracts/NFTMain.sol\":10760:10770  numSales++ */\n      dup1\n      sload\n      swap1\n        /* \"contracts/NFTMain.sol\":10760:10768  numSales */\n      0x00\n        /* \"contracts/NFTMain.sol\":10760:10770  numSales++ */\n      tag_325\n      dup4\n      tag_326\n      jump\t// in\n    tag_325:\n      swap2\n      swap1\n      pop\n      sstore\n      pop\n        /* \"contracts/NFTMain.sol\":10821:10822  1 */\n      0x01\n        /* \"contracts/NFTMain.sol\":10803:10818  remainderOfGold */\n      sload(0x0c)\n        /* \"contracts/NFTMain.sol\":10803:10822  remainderOfGold - 1 */\n      tag_327\n      swap2\n      swap1\n      tag_328\n      jump\t// in\n    tag_327:\n        /* \"contracts/NFTMain.sol\":10785:10800  remainderOfGold */\n      0x0c\n        /* \"contracts/NFTMain.sol\":10785:10822  remainderOfGold = remainderOfGold - 1 */\n      sstore\n        /* \"contracts/NFTMain.sol\":10837:10854  _mint(msg.sender) */\n      tag_329\n        /* \"contracts/NFTMain.sol\":10843:10853  msg.sender */\n      caller\n        /* \"contracts/NFTMain.sol\":10837:10842  _mint */\n      tag_330\n        /* \"contracts/NFTMain.sol\":10837:10854  _mint(msg.sender) */\n      jump\t// in\n    tag_329:\n      pop\n        /* \"contracts/NFTMain.sol\":10740:10743  i++ */\n      dup1\n      tag_331\n      dup2\n      tag_326\n      jump\t// in\n    tag_331:\n      swap2\n      pop\n      pop\n        /* \"contracts/NFTMain.sol\":10705:10866  for (uint i = 0; i < numberOfNfts; i++) {\r... */\n      jump(tag_322)\n    tag_323:\n      pop\n      pop\n        /* \"contracts/NFTMain.sol\":3765:3779  reentrancyLock */\n      0x4e36\n        /* \"contracts/NFTMain.sol\":3765:3787  reentrancyLock = false */\n      dup1\n      sload\n      not(0xff)\n      and\n      swap1\n      sstore\n        /* \"contracts/NFTMain.sol\":10180:10883  function Goldmint(uint256 numberOfNfts) external payable reentrancyGuard {\r... */\n      jump\t// out\n        /* \"contracts/NFTMain.sol\":18948:19050  function setSale (bool _marketStatus) public onlyOwner {\r... */\n    tag_109:\n        /* \"@openzeppelin/contracts/access/Ownable.sol\":1082:1089  address */\n      0x00\n        /* \"@openzeppelin/contracts/access/Ownable.sol\":1108:1114  _owner */\n      sload\n      sub(shl(0xa0, 0x01), 0x01)\n      and\n        /* \"@openzeppelin/contracts/utils/Context.sol\":719:729  msg.sender */\n      caller\n        /* \"@openzeppelin/contracts/access/Ownable.sol\":1248:1271  owner() == _msgSender() */\n      eq\n        /* \"@openzeppelin/contracts/access/Ownable.sol\":1240:1308  require(owner() == _msgSender(), \"Ownable: caller is not the owner\") */\n      tag_336\n      jumpi\n      mload(0x40)\n      shl(0xe5, 0x461bcd)\n      dup2\n      mstore\n      0x04\n      add\n      tag_268\n      swap1\n      tag_269\n      jump\t// in\n    tag_336:\n        /* \"contracts/NFTMain.sol\":19014:19026  marketStatus */\n      0x4e3a\n        /* \"contracts/NFTMain.sol\":19014:19042  marketStatus = _marketStatus */\n      dup1\n      sload\n      swap2\n      iszero\n      iszero\n      shl(0xa0, 0x01)\n      mul\n      not(shl(0xa0, 0xff))\n      swap1\n      swap3\n      and\n      swap2\n      swap1\n      swap2\n      or\n      swap1\n      sstore\n        /* \"contracts/NFTMain.sol\":18948:19050  function setSale (bool _marketStatus) public onlyOwner {\r... */\n      jump\t// out\n        /* \"contracts/NFTMain.sol\":6136:6483  function transferFrom(address _from, address _to, uint256 _tokenId) external override canTransfer(_tokenId) validNFToken(_tokenId) {\r... */\n    tag_114:\n        /* \"contracts/NFTMain.sol\":4077:4095  address tokenOwner */\n      0x00\n        /* \"contracts/NFTMain.sol\":4098:4117  idToOwner[_tokenId] */\n      dup2\n      dup2\n      mstore\n        /* \"contracts/NFTMain.sol\":4098:4107  idToOwner */\n      0x02\n        /* \"contracts/NFTMain.sol\":4098:4117  idToOwner[_tokenId] */\n      0x20\n      mstore\n      0x40\n      swap1\n      keccak256\n      sload\n        /* \"contracts/NFTMain.sol\":6234:6242  _tokenId */\n      dup2\n      swap1\n      sub(shl(0xa0, 0x01), 0x01)\n        /* \"contracts/NFTMain.sol\":4098:4117  idToOwner[_tokenId] */\n      and\n        /* \"contracts/NFTMain.sol\":4164:4174  msg.sender */\n      caller\n        /* \"contracts/NFTMain.sol\":4150:4174  tokenOwner == msg.sender */\n      dup2\n      eq\n      dup1\n        /* \"contracts/NFTMain.sol\":4150:4227  tokenOwner == msg.sender\r... */\n      tag_340\n      jumpi\n      pop\n        /* \"contracts/NFTMain.sol\":4191:4213  idToApproval[_tokenId] */\n      0x00\n      dup3\n      dup2\n      mstore\n        /* \"contracts/NFTMain.sol\":4191:4203  idToApproval */\n      0x03\n        /* \"contracts/NFTMain.sol\":4191:4213  idToApproval[_tokenId] */\n      0x20\n      mstore\n      0x40\n      swap1\n      keccak256\n      sload\n      sub(shl(0xa0, 0x01), 0x01)\n      and\n        /* \"contracts/NFTMain.sol\":4217:4227  msg.sender */\n      caller\n        /* \"contracts/NFTMain.sol\":4191:4227  idToApproval[_tokenId] == msg.sender */\n      eq\n        /* \"contracts/NFTMain.sol\":4150:4227  tokenOwner == msg.sender\r... */\n    tag_340:\n        /* \"contracts/NFTMain.sol\":4150:4284  tokenOwner == msg.sender\r... */\n      dup1\n      tag_341\n      jumpi\n      pop\n      sub(shl(0xa0, 0x01), 0x01)\n        /* \"contracts/NFTMain.sol\":4244:4272  ownerToOperators[tokenOwner] */\n      dup2\n      and\n      0x00\n      swap1\n      dup2\n      mstore\n        /* \"contracts/NFTMain.sol\":4244:4260  ownerToOperators */\n      0x04\n        /* \"contracts/NFTMain.sol\":4244:4272  ownerToOperators[tokenOwner] */\n      0x20\n      swap1\n      dup2\n      mstore\n      0x40\n      dup1\n      dup4\n      keccak256\n        /* \"contracts/NFTMain.sol\":4273:4283  msg.sender */\n      caller\n        /* \"contracts/NFTMain.sol\":4244:4284  ownerToOperators[tokenOwner][msg.sender] */\n      dup5\n      mstore\n      swap1\n      swap2\n      mstore\n      swap1\n      keccak256\n      sload\n      0xff\n      and\n        /* \"contracts/NFTMain.sol\":4150:4284  tokenOwner == msg.sender\r... */\n    tag_341:\n        /* \"contracts/NFTMain.sol\":4128:4315  require(\r... */\n      tag_342\n      jumpi\n      mload(0x40)\n      shl(0xe5, 0x461bcd)\n      dup2\n      mstore\n        /* \"#utility.yul\":14597:14599   */\n      0x20\n        /* \"contracts/NFTMain.sol\":4128:4315  require(\r... */\n      0x04\n      dup3\n      add\n        /* \"#utility.yul\":14579:14600   */\n      mstore\n        /* \"#utility.yul\":14636:14638   */\n      0x10\n        /* \"#utility.yul\":14616:14634   */\n      0x24\n      dup3\n      add\n        /* \"#utility.yul\":14609:14639   */\n      mstore\n      shl(0x81, 0x21b0b73737ba103a3930b739b332b917)\n        /* \"#utility.yul\":14655:14673   */\n      0x44\n      dup3\n      add\n        /* \"#utility.yul\":14648:14694   */\n      mstore\n        /* \"#utility.yul\":14711:14729   */\n      0x64\n      add\n        /* \"contracts/NFTMain.sol\":4128:4315  require(\r... */\n      tag_268\n        /* \"#utility.yul\":14395:14735   */\n      jump\n        /* \"contracts/NFTMain.sol\":4128:4315  require(\r... */\n    tag_342:\n        /* \"contracts/NFTMain.sol\":4433:4434  0 */\n      0x00\n        /* \"contracts/NFTMain.sol\":4402:4421  idToOwner[_tokenId] */\n      dup4\n      dup2\n      mstore\n        /* \"contracts/NFTMain.sol\":4402:4411  idToOwner */\n      0x02\n        /* \"contracts/NFTMain.sol\":4402:4421  idToOwner[_tokenId] */\n      0x20\n      mstore\n      0x40\n      swap1\n      keccak256\n      sload\n        /* \"contracts/NFTMain.sol\":6257:6265  _tokenId */\n      dup4\n      swap1\n      sub(shl(0xa0, 0x01), 0x01)\n        /* \"contracts/NFTMain.sol\":4402:4421  idToOwner[_tokenId] */\n      and\n        /* \"contracts/NFTMain.sol\":4394:4454  require(idToOwner[_tokenId] != address(0), \"Invalid token.\") */\n      tag_346\n      jumpi\n      mload(0x40)\n      shl(0xe5, 0x461bcd)\n      dup2\n      mstore\n      0x04\n      add\n      tag_268\n      swap1\n      tag_281\n      jump\t// in\n    tag_346:\n        /* \"contracts/NFTMain.sol\":6278:6296  address tokenOwner */\n      0x00\n        /* \"contracts/NFTMain.sol\":6299:6318  idToOwner[_tokenId] */\n      dup5\n      dup2\n      mstore\n        /* \"contracts/NFTMain.sol\":6299:6308  idToOwner */\n      0x02\n        /* \"contracts/NFTMain.sol\":6299:6318  idToOwner[_tokenId] */\n      0x20\n      mstore\n      0x40\n      swap1\n      keccak256\n      sload\n      sub(shl(0xa0, 0x01), 0x01)\n      swap1\n      dup2\n      and\n      swap1\n        /* \"contracts/NFTMain.sol\":6337:6356  tokenOwner == _from */\n      dup8\n      and\n      dup2\n      eq\n        /* \"contracts/NFTMain.sol\":6329:6380  require(tokenOwner == _from, \"Wrong from address.\") */\n      tag_349\n      jumpi\n      mload(0x40)\n      shl(0xe5, 0x461bcd)\n      dup2\n      mstore\n        /* \"#utility.yul\":16005:16007   */\n      0x20\n        /* \"contracts/NFTMain.sol\":6329:6380  require(tokenOwner == _from, \"Wrong from address.\") */\n      0x04\n      dup3\n      add\n        /* \"#utility.yul\":15987:16008   */\n      mstore\n        /* \"#utility.yul\":16044:16046   */\n      0x13\n        /* \"#utility.yul\":16024:16042   */\n      0x24\n      dup3\n      add\n        /* \"#utility.yul\":16017:16047   */\n      mstore\n      shl(0x69, 0x2bb937b73390333937b69030b2323932b9b997)\n        /* \"#utility.yul\":16063:16081   */\n      0x44\n      dup3\n      add\n        /* \"#utility.yul\":16056:16105   */\n      mstore\n        /* \"#utility.yul\":16122:16140   */\n      0x64\n      add\n        /* \"contracts/NFTMain.sol\":6329:6380  require(tokenOwner == _from, \"Wrong from address.\") */\n      tag_268\n        /* \"#utility.yul\":15803:16146   */\n      jump\n        /* \"contracts/NFTMain.sol\":6329:6380  require(tokenOwner == _from, \"Wrong from address.\") */\n    tag_349:\n      sub(shl(0xa0, 0x01), 0x01)\n        /* \"contracts/NFTMain.sol\":6399:6416  _to != address(0) */\n      dup7\n      and\n        /* \"contracts/NFTMain.sol\":6391:6440  require(_to != address(0), \"Cannot send to 0x0.\") */\n      tag_352\n      jumpi\n      mload(0x40)\n      shl(0xe5, 0x461bcd)\n      dup2\n      mstore\n        /* \"#utility.yul\":18996:18998   */\n      0x20\n        /* \"contracts/NFTMain.sol\":6391:6440  require(_to != address(0), \"Cannot send to 0x0.\") */\n      0x04\n      dup3\n      add\n        /* \"#utility.yul\":18978:18999   */\n      mstore\n        /* \"#utility.yul\":19035:19037   */\n      0x13\n        /* \"#utility.yul\":19015:19033   */\n      0x24\n      dup3\n      add\n        /* \"#utility.yul\":19008:19038   */\n      mstore\n      shl(0x69, 0x21b0b73737ba1039b2b732103a3790183c1817)\n        /* \"#utility.yul\":19054:19072   */\n      0x44\n      dup3\n      add\n        /* \"#utility.yul\":19047:19096   */\n      mstore\n        /* \"#utility.yul\":19113:19131   */\n      0x64\n      add\n        /* \"contracts/NFTMain.sol\":6391:6440  require(_to != address(0), \"Cannot send to 0x0.\") */\n      tag_268\n        /* \"#utility.yul\":18794:19137   */\n      jump\n        /* \"contracts/NFTMain.sol\":6391:6440  require(_to != address(0), \"Cannot send to 0x0.\") */\n    tag_352:\n        /* \"contracts/NFTMain.sol\":6451:6475  _transfer(_to, _tokenId) */\n      tag_355\n        /* \"contracts/NFTMain.sol\":6461:6464  _to */\n      dup7\n        /* \"contracts/NFTMain.sol\":6466:6474  _tokenId */\n      dup7\n        /* \"contracts/NFTMain.sol\":6451:6460  _transfer */\n      tag_356\n        /* \"contracts/NFTMain.sol\":6451:6475  _transfer(_to, _tokenId) */\n      jump\t// in\n    tag_355:\n        /* \"contracts/NFTMain.sol\":6267:6483  {\r... */\n      pop\n        /* \"contracts/NFTMain.sol\":4326:4327  _ */\n      pop\n        /* \"contracts/NFTMain.sol\":4066:4335  {\r... */\n      pop\n        /* \"contracts/NFTMain.sol\":6136:6483  function transferFrom(address _from, address _to, uint256 _tokenId) external override canTransfer(_tokenId) validNFToken(_tokenId) {\r... */\n      pop\n      pop\n      pop\n      pop\n      jump\t// out\n        /* \"contracts/NFTMain.sol\":9353:10166  function publicMint (uint256 numberOfNfts) external payable reentrancyGuard {\r... */\n    tag_117:\n        /* \"contracts/NFTMain.sol\":3660:3674  reentrancyLock */\n      and(0xff, sload(0x4e36))\n        /* \"contracts/NFTMain.sol\":3656:3711  if (reentrancyLock) {\r... */\n      iszero\n      tag_358\n      jumpi\n        /* \"contracts/NFTMain.sol\":3691:3699  revert() */\n      0x00\n      dup1\n      revert\n        /* \"contracts/NFTMain.sol\":3656:3711  if (reentrancyLock) {\r... */\n    tag_358:\n        /* \"contracts/NFTMain.sol\":3721:3735  reentrancyLock */\n      0x4e36\n        /* \"contracts/NFTMain.sol\":3721:3742  reentrancyLock = true */\n      dup1\n      sload\n      not(0xff)\n      and\n        /* \"contracts/NFTMain.sol\":3738:3742  true */\n      0x01\n        /* \"contracts/NFTMain.sol\":3721:3742  reentrancyLock = true */\n      or\n      swap1\n      sstore\n        /* \"contracts/NFTMain.sol\":9448:9458  publicSale */\n      sload(0x0f)\n      shl(0xa0, 0x01)\n      swap1\n      div\n        /* \"contracts/NFTMain.sol\":3721:3742  reentrancyLock = true */\n      0xff\n        /* \"contracts/NFTMain.sol\":9448:9458  publicSale */\n      and\n        /* \"contracts/NFTMain.sol\":9440:9480  require(publicSale, \"Sale not started.\") */\n      tag_360\n      jumpi\n      mload(0x40)\n      shl(0xe5, 0x461bcd)\n      dup2\n      mstore\n        /* \"#utility.yul\":11751:11753   */\n      0x20\n        /* \"contracts/NFTMain.sol\":9440:9480  require(publicSale, \"Sale not started.\") */\n      0x04\n      dup3\n      add\n        /* \"#utility.yul\":11733:11754   */\n      mstore\n        /* \"#utility.yul\":11790:11792   */\n      0x11\n        /* \"#utility.yul\":11770:11788   */\n      0x24\n      dup3\n      add\n        /* \"#utility.yul\":11763:11793   */\n      mstore\n      shl(0x79, 0x29b0b632903737ba1039ba30b93a32b217)\n        /* \"#utility.yul\":11809:11827   */\n      0x44\n      dup3\n      add\n        /* \"#utility.yul\":11802:11849   */\n      mstore\n        /* \"#utility.yul\":11866:11884   */\n      0x64\n      add\n        /* \"contracts/NFTMain.sol\":9440:9480  require(publicSale, \"Sale not started.\") */\n      tag_268\n        /* \"#utility.yul\":11549:11890   */\n      jump\n        /* \"contracts/NFTMain.sol\":9440:9480  require(publicSale, \"Sale not started.\") */\n    tag_360:\n        /* \"contracts/NFTMain.sol\":9515:9517  20 */\n      0x14\n        /* \"contracts/NFTMain.sol\":9499:9511  numberOfNfts */\n      dup2\n        /* \"contracts/NFTMain.sol\":9499:9517  numberOfNfts <= 20 */\n      gt\n      iszero\n        /* \"contracts/NFTMain.sol\":9491:9563  require(numberOfNfts <= 20, \"You can not buy more than 20 NFTs at once\") */\n      tag_362\n      jumpi\n      mload(0x40)\n      shl(0xe5, 0x461bcd)\n      dup2\n      mstore\n      0x04\n      add\n      tag_268\n      swap1\n      tag_306\n      jump\t// in\n    tag_362:\n        /* \"contracts/NFTMain.sol\":2490:2495  20000 */\n      0x4e20\n        /* \"contracts/NFTMain.sol\":9582:9613  totalSupply().add(numberOfNfts) */\n      tag_364\n        /* \"contracts/NFTMain.sol\":9600:9612  numberOfNfts */\n      dup3\n        /* \"contracts/NFTMain.sol\":9582:9595  totalSupply() */\n      tag_308\n        /* \"contracts/NFTMain.sol\":13683:13692  numTokens */\n      sload(0x09)\n      swap1\n        /* \"contracts/NFTMain.sol\":13612:13700  function totalSupply() public view returns (uint256) {\r... */\n      jump\n        /* \"contracts/NFTMain.sol\":9582:9613  totalSupply().add(numberOfNfts) */\n    tag_364:\n        /* \"contracts/NFTMain.sol\":9582:9628  totalSupply().add(numberOfNfts) <= TOKEN_LIMIT */\n      gt\n      iszero\n        /* \"contracts/NFTMain.sol\":9574:9652  require(totalSupply().add(numberOfNfts) <= TOKEN_LIMIT, \"Exceeds TOKEN_LIMIT\") */\n      tag_366\n      jumpi\n      mload(0x40)\n      shl(0xe5, 0x461bcd)\n      dup2\n      mstore\n        /* \"#utility.yul\":12097:12099   */\n      0x20\n        /* \"contracts/NFTMain.sol\":9574:9652  require(totalSupply().add(numberOfNfts) <= TOKEN_LIMIT, \"Exceeds TOKEN_LIMIT\") */\n      0x04\n      dup3\n      add\n        /* \"#utility.yul\":12079:12100   */\n      mstore\n        /* \"#utility.yul\":12136:12138   */\n      0x13\n        /* \"#utility.yul\":12116:12134   */\n      0x24\n      dup3\n      add\n        /* \"#utility.yul\":12109:12139   */\n      mstore\n      shl(0x6a, 0x115e18d959591cc81513d2d15397d312535255)\n        /* \"#utility.yul\":12155:12173   */\n      0x44\n      dup3\n      add\n        /* \"#utility.yul\":12148:12197   */\n      mstore\n        /* \"#utility.yul\":12214:12232   */\n      0x64\n      add\n        /* \"contracts/NFTMain.sol\":9574:9652  require(totalSupply().add(numberOfNfts) <= TOKEN_LIMIT, \"Exceeds TOKEN_LIMIT\") */\n      tag_268\n        /* \"#utility.yul\":11895:12238   */\n      jump\n        /* \"contracts/NFTMain.sol\":9574:9652  require(totalSupply().add(numberOfNfts) <= TOKEN_LIMIT, \"Exceeds TOKEN_LIMIT\") */\n    tag_366:\n        /* \"contracts/NFTMain.sol\":9671:9689  remainderOfPrimary */\n      sload(0x0b)\n        /* \"contracts/NFTMain.sol\":9711:9712  0 */\n      0x00\n      swap1\n        /* \"contracts/NFTMain.sol\":9671:9707  remainderOfPrimary.sub(numberOfNfts) */\n      tag_368\n      swap1\n        /* \"contracts/NFTMain.sol\":9694:9706  numberOfNfts */\n      dup4\n        /* \"contracts/NFTMain.sol\":9671:9693  remainderOfPrimary.sub */\n      tag_314\n        /* \"contracts/NFTMain.sol\":9671:9707  remainderOfPrimary.sub(numberOfNfts) */\n      jump\t// in\n    tag_368:\n        /* \"contracts/NFTMain.sol\":9671:9712  remainderOfPrimary.sub(numberOfNfts) >= 0 */\n      lt\n      iszero\n        /* \"contracts/NFTMain.sol\":9663:9761  require(remainderOfPrimary.sub(numberOfNfts) >= 0, \"Exceeds remaining primary sale of MATIC sale\") */\n      tag_369\n      jumpi\n      mload(0x40)\n      shl(0xe5, 0x461bcd)\n      dup2\n      mstore\n      0x04\n      add\n      tag_268\n      swap1\n      tag_317\n      jump\t// in\n    tag_369:\n        /* \"contracts/NFTMain.sol\":9780:9789  mintPrice */\n      sload(0x10)\n        /* \"contracts/NFTMain.sol\":9811:9820  msg.value */\n      callvalue\n      swap1\n        /* \"contracts/NFTMain.sol\":9780:9807  mintPrice.mul(numberOfNfts) */\n      tag_371\n      swap1\n        /* \"contracts/NFTMain.sol\":9794:9806  numberOfNfts */\n      dup4\n        /* \"contracts/NFTMain.sol\":9780:9793  mintPrice.mul */\n      tag_320\n        /* \"contracts/NFTMain.sol\":9780:9807  mintPrice.mul(numberOfNfts) */\n      jump\t// in\n    tag_371:\n        /* \"contracts/NFTMain.sol\":9780:9820  mintPrice.mul(numberOfNfts) == msg.value */\n      eq\n        /* \"contracts/NFTMain.sol\":9772:9856  require(mintPrice.mul(numberOfNfts) == msg.value, \"MATIC value sent is not correct\") */\n      tag_372\n      jumpi\n      mload(0x40)\n      shl(0xe5, 0x461bcd)\n      dup2\n      mstore\n        /* \"#utility.yul\":16353:16355   */\n      0x20\n        /* \"contracts/NFTMain.sol\":9772:9856  require(mintPrice.mul(numberOfNfts) == msg.value, \"MATIC value sent is not correct\") */\n      0x04\n      dup3\n      add\n        /* \"#utility.yul\":16335:16356   */\n      mstore\n        /* \"#utility.yul\":16392:16394   */\n      0x1f\n        /* \"#utility.yul\":16372:16390   */\n      0x24\n      dup3\n      add\n        /* \"#utility.yul\":16365:16395   */\n      mstore\n        /* \"#utility.yul\":16431:16464   */\n      0x4d415449432076616c75652073656e74206973206e6f7420636f727265637400\n        /* \"#utility.yul\":16411:16429   */\n      0x44\n      dup3\n      add\n        /* \"#utility.yul\":16404:16465   */\n      mstore\n        /* \"#utility.yul\":16482:16500   */\n      0x64\n      add\n        /* \"contracts/NFTMain.sol\":9772:9856  require(mintPrice.mul(numberOfNfts) == msg.value, \"MATIC value sent is not correct\") */\n      tag_268\n        /* \"#utility.yul\":16151:16506   */\n      jump\n        /* \"contracts/NFTMain.sol\":9772:9856  require(mintPrice.mul(numberOfNfts) == msg.value, \"MATIC value sent is not correct\") */\n    tag_372:\n        /* \"contracts/NFTMain.sol\":9879:9887  marketer */\n      and(sub(shl(0xa0, 0x01), 0x01), sload(0x0e))\n        /* \"contracts/NFTMain.sol\":9879:9914  marketer.transfer(msg.value.div(2)) */\n      0x08fc\n        /* \"contracts/NFTMain.sol\":9897:9913  msg.value.div(2) */\n      tag_375\n        /* \"contracts/NFTMain.sol\":9897:9906  msg.value */\n      callvalue\n        /* \"contracts/NFTMain.sol\":9911:9912  2 */\n      0x02\n        /* \"contracts/NFTMain.sol\":9897:9910  msg.value.div */\n      tag_376\n        /* \"contracts/NFTMain.sol\":9897:9913  msg.value.div(2) */\n      jump\t// in\n    tag_375:\n        /* \"contracts/NFTMain.sol\":9879:9914  marketer.transfer(msg.value.div(2)) */\n      mload(0x40)\n      dup2\n      iszero\n      swap1\n      swap3\n      mul\n      swap2\n      0x00\n      dup2\n      dup2\n      dup2\n      dup6\n      dup9\n      dup9\n      call\n      swap4\n      pop\n      pop\n      pop\n      pop\n      iszero\n      dup1\n      iszero\n      tag_378\n      jumpi\n      returndatasize\n      0x00\n      dup1\n      returndatacopy\n      revert(0x00, returndatasize)\n    tag_378:\n      pop\n        /* \"contracts/NFTMain.sol\":9925:9934  developer */\n      and(sub(shl(0xa0, 0x01), 0x01), sload(0x0f))\n        /* \"contracts/NFTMain.sol\":9925:9961  developer.transfer(msg.value.div(2)) */\n      0x08fc\n        /* \"contracts/NFTMain.sol\":9944:9960  msg.value.div(2) */\n      tag_379\n        /* \"contracts/NFTMain.sol\":9944:9953  msg.value */\n      callvalue\n        /* \"contracts/NFTMain.sol\":9958:9959  2 */\n      0x02\n        /* \"contracts/NFTMain.sol\":9944:9957  msg.value.div */\n      tag_376\n        /* \"contracts/NFTMain.sol\":9944:9960  msg.value.div(2) */\n      jump\t// in\n    tag_379:\n        /* \"contracts/NFTMain.sol\":9925:9961  developer.transfer(msg.value.div(2)) */\n      mload(0x40)\n      dup2\n      iszero\n      swap1\n      swap3\n      mul\n      swap2\n      0x00\n      dup2\n      dup2\n      dup2\n      dup6\n      dup9\n      dup9\n      call\n      swap4\n      pop\n      pop\n      pop\n      pop\n      iszero\n      dup1\n      iszero\n      tag_381\n      jumpi\n      returndatasize\n      0x00\n      dup1\n      returndatacopy\n      revert(0x00, returndatasize)\n    tag_381:\n      pop\n        /* \"contracts/NFTMain.sol\":9987:9993  uint i */\n      0x00\n        /* \"contracts/NFTMain.sol\":9982:10149  for (uint i = 0; i < numberOfNfts; i++) {\r... */\n    tag_382:\n        /* \"contracts/NFTMain.sol\":10003:10015  numberOfNfts */\n      dup2\n        /* \"contracts/NFTMain.sol\":9999:10000  i */\n      dup2\n        /* \"contracts/NFTMain.sol\":9999:10015  i < numberOfNfts */\n      lt\n        /* \"contracts/NFTMain.sol\":9982:10149  for (uint i = 0; i < numberOfNfts; i++) {\r... */\n      iszero\n      tag_323\n      jumpi\n        /* \"contracts/NFTMain.sol\":10037:10045  numSales */\n      0x0a\n        /* \"contracts/NFTMain.sol\":10037:10047  numSales++ */\n      dup1\n      sload\n      swap1\n        /* \"contracts/NFTMain.sol\":10037:10045  numSales */\n      0x00\n        /* \"contracts/NFTMain.sol\":10037:10047  numSales++ */\n      tag_385\n      dup4\n      tag_326\n      jump\t// in\n    tag_385:\n      swap2\n      swap1\n      pop\n      sstore\n      pop\n        /* \"contracts/NFTMain.sol\":10104:10105  1 */\n      0x01\n        /* \"contracts/NFTMain.sol\":10083:10101  remainderOfPrimary */\n      sload(0x0b)\n        /* \"contracts/NFTMain.sol\":10083:10105  remainderOfPrimary - 1 */\n      tag_386\n      swap2\n      swap1\n      tag_328\n      jump\t// in\n    tag_386:\n        /* \"contracts/NFTMain.sol\":10062:10080  remainderOfPrimary */\n      0x0b\n        /* \"contracts/NFTMain.sol\":10062:10105  remainderOfPrimary = remainderOfPrimary - 1 */\n      sstore\n        /* \"contracts/NFTMain.sol\":10120:10137  _mint(msg.sender) */\n      tag_387\n        /* \"contracts/NFTMain.sol\":10126:10136  msg.sender */\n      caller\n        /* \"contracts/NFTMain.sol\":10120:10125  _mint */\n      tag_330\n        /* \"contracts/NFTMain.sol\":10120:10137  _mint(msg.sender) */\n      jump\t// in\n    tag_387:\n      pop\n        /* \"contracts/NFTMain.sol\":10017:10020  i++ */\n      dup1\n      tag_388\n      dup2\n      tag_326\n      jump\t// in\n    tag_388:\n      swap2\n      pop\n      pop\n        /* \"contracts/NFTMain.sol\":9982:10149  for (uint i = 0; i < numberOfNfts; i++) {\r... */\n      jump(tag_382)\n        /* \"contracts/NFTMain.sol\":13871:14070  function tokenOfOwnerByIndex(address _owner, uint256 _index) external view returns (uint256) {\r... */\n    tag_121:\n      sub(shl(0xa0, 0x01), 0x01)\n        /* \"contracts/NFTMain.sol\":13992:14010  ownerToIds[_owner] */\n      dup3\n      and\n        /* \"contracts/NFTMain.sol\":13955:13962  uint256 */\n      0x00\n        /* \"contracts/NFTMain.sol\":13992:14010  ownerToIds[_owner] */\n      swap1\n      dup2\n      mstore\n        /* \"contracts/NFTMain.sol\":13992:14002  ownerToIds */\n      0x05\n        /* \"contracts/NFTMain.sol\":13992:14010  ownerToIds[_owner] */\n      0x20\n      mstore\n      0x40\n      dup2\n      keccak256\n        /* \"contracts/NFTMain.sol\":13992:14017  ownerToIds[_owner].length */\n      sload\n        /* \"contracts/NFTMain.sol\":13983:14017  _index < ownerToIds[_owner].length */\n      dup3\n      lt\n        /* \"contracts/NFTMain.sol\":13975:14018  require(_index < ownerToIds[_owner].length) */\n      tag_390\n      jumpi\n      0x00\n      dup1\n      revert\n    tag_390:\n      sub(shl(0xa0, 0x01), 0x01)\n        /* \"contracts/NFTMain.sol\":14036:14054  ownerToIds[_owner] */\n      dup4\n      and\n      0x00\n      swap1\n      dup2\n      mstore\n        /* \"contracts/NFTMain.sol\":14036:14046  ownerToIds */\n      0x05\n        /* \"contracts/NFTMain.sol\":14036:14054  ownerToIds[_owner] */\n      0x20\n      mstore\n      0x40\n      swap1\n      keccak256\n        /* \"contracts/NFTMain.sol\":14036:14062  ownerToIds[_owner][_index] */\n      dup1\n      sload\n        /* \"contracts/NFTMain.sol\":14055:14061  _index */\n      dup4\n      swap1\n        /* \"contracts/NFTMain.sol\":14036:14062  ownerToIds[_owner][_index] */\n      dup2\n      lt\n      tag_392\n      jumpi\n      tag_392\n      tag_393\n      jump\t// in\n    tag_392:\n      swap1\n      0x00\n      mstore\n      keccak256(0x00, 0x20)\n      add\n      sload\n        /* \"contracts/NFTMain.sol\":14029:14062  return ownerToIds[_owner][_index] */\n      swap1\n      pop\n        /* \"contracts/NFTMain.sol\":13871:14070  function tokenOfOwnerByIndex(address _owner, uint256 _index) external view returns (uint256) {\r... */\n      swap3\n      swap2\n      pop\n      pop\n      jump\t// out\n        /* \"contracts/NFTMain.sol\":5214:5407  function startPrivateSale() external onlyOwner {\r... */\n    tag_125:\n        /* \"@openzeppelin/contracts/access/Ownable.sol\":1082:1089  address */\n      0x00\n        /* \"@openzeppelin/contracts/access/Ownable.sol\":1108:1114  _owner */\n      sload\n      sub(shl(0xa0, 0x01), 0x01)\n      and\n        /* \"@openzeppelin/contracts/utils/Context.sol\":719:729  msg.sender */\n      caller\n        /* \"@openzeppelin/contracts/access/Ownable.sol\":1248:1271  owner() == _msgSender() */\n      eq\n        /* \"@openzeppelin/contracts/access/Ownable.sol\":1240:1308  require(owner() == _msgSender(), \"Ownable: caller is not the owner\") */\n      tag_398\n      jumpi\n      mload(0x40)\n      shl(0xe5, 0x461bcd)\n      dup2\n      mstore\n      0x04\n      add\n      tag_268\n      swap1\n      tag_269\n      jump\t// in\n    tag_398:\n        /* \"contracts/NFTMain.sol\":5281:5292  privateSale */\n      sload(0x0f)\n      shl(0xa8, 0x01)\n      swap1\n      div\n      0xff\n      and\n        /* \"contracts/NFTMain.sol\":5280:5292  !privateSale */\n      iszero\n        /* \"contracts/NFTMain.sol\":5272:5293  require(!privateSale) */\n      tag_401\n      jumpi\n      0x00\n      dup1\n      revert\n    tag_401:\n        /* \"contracts/NFTMain.sol\":5320:5335  block.timestamp */\n      timestamp\n        /* \"contracts/NFTMain.sol\":5304:5317  saleStartTime */\n      0x14\n        /* \"contracts/NFTMain.sol\":5304:5335  saleStartTime = block.timestamp */\n      sstore\n        /* \"contracts/NFTMain.sol\":5346:5357  privateSale */\n      0x0f\n        /* \"contracts/NFTMain.sol\":5346:5364  privateSale = true */\n      dup1\n      sload\n      not(shl(0xa8, 0xff))\n      and\n      shl(0xa8, 0x01)\n      or\n      swap1\n      sstore\n        /* \"contracts/NFTMain.sol\":5380:5399  PrivateSaleBegins() */\n      mload(0x40)\n      0x993f573ffb8079ca4daf5b6e3d44f057b10842c65aeccd95ddb52e3790d2d99f\n      swap1\n        /* \"contracts/NFTMain.sol\":5346:5364  privateSale = true */\n      0x00\n      swap1\n        /* \"contracts/NFTMain.sol\":5380:5399  PrivateSaleBegins() */\n      log1\n        /* \"contracts/NFTMain.sol\":5214:5407  function startPrivateSale() external onlyOwner {\r... */\n      jump\t// out\n        /* \"contracts/NFTMain.sol\":5976:6128  function safeTransferFrom(address _from, address _to, uint256 _tokenId) external override {\r... */\n    tag_133:\n        /* \"contracts/NFTMain.sol\":6077:6120  _safeTransferFrom(_from, _to, _tokenId, \"\") */\n      tag_403\n        /* \"contracts/NFTMain.sol\":6095:6100  _from */\n      dup4\n        /* \"contracts/NFTMain.sol\":6102:6105  _to */\n      dup4\n        /* \"contracts/NFTMain.sol\":6107:6115  _tokenId */\n      dup4\n        /* \"contracts/NFTMain.sol\":6077:6120  _safeTransferFrom(_from, _to, _tokenId, \"\") */\n      mload(0x40)\n      dup1\n      0x20\n      add\n      0x40\n      mstore\n      dup1\n      0x00\n      dup2\n      mstore\n      pop\n        /* \"contracts/NFTMain.sol\":6077:6094  _safeTransferFrom */\n      tag_404\n        /* \"contracts/NFTMain.sol\":6077:6120  _safeTransferFrom(_from, _to, _tokenId, \"\") */\n      jump\t// in\n    tag_403:\n        /* \"contracts/NFTMain.sol\":5976:6128  function safeTransferFrom(address _from, address _to, uint256 _tokenId) external override {\r... */\n      pop\n      pop\n      pop\n      jump\t// out\n        /* \"contracts/NFTMain.sol\":9233:9339  function mintsRemaining() external view returns (uint) {\r... */\n    tag_136:\n        /* \"contracts/NFTMain.sol\":9282:9286  uint */\n      0x00\n        /* \"contracts/NFTMain.sol\":9306:9331  TOKEN_LIMIT.sub(numSales) */\n      tag_406\n        /* \"contracts/NFTMain.sol\":9322:9330  numSales */\n      sload(0x0a)\n        /* \"contracts/NFTMain.sol\":2490:2495  20000 */\n      0x4e20\n        /* \"contracts/NFTMain.sol\":9306:9321  TOKEN_LIMIT.sub */\n      tag_314\n      swap1\n        /* \"contracts/NFTMain.sol\":9306:9331  TOKEN_LIMIT.sub(numSales) */\n      swap2\n      swap1\n      0xffffffff\n      and\n      jump\t// in\n    tag_406:\n        /* \"contracts/NFTMain.sol\":9299:9331  return TOKEN_LIMIT.sub(numSales) */\n      swap1\n      pop\n        /* \"contracts/NFTMain.sol\":9233:9339  function mintsRemaining() external view returns (uint) {\r... */\n      swap1\n      jump\t// out\n        /* \"contracts/NFTMain.sol\":16361:16663  function removeListing (uint256 _tokenId) public {\r... */\n    tag_141:\n        /* \"contracts/NFTMain.sol\":16429:16441  marketStatus */\n      sload(0x4e3a)\n      shl(0xa0, 0x01)\n      swap1\n      div\n      0xff\n      and\n        /* \"contracts/NFTMain.sol\":16421:16464  require(marketStatus, \"Market not started\") */\n      tag_408\n      jumpi\n      mload(0x40)\n      shl(0xe5, 0x461bcd)\n      dup2\n      mstore\n      0x04\n      add\n      tag_268\n      swap1\n      tag_410\n      jump\t// in\n    tag_408:\n        /* \"@openzeppelin/contracts/utils/Context.sol\":719:729  msg.sender */\n      caller\n        /* \"contracts/NFTMain.sol\":16483:16500  ownerOf(_tokenId) */\n      tag_412\n        /* \"contracts/NFTMain.sol\":16491:16499  _tokenId */\n      dup3\n        /* \"contracts/NFTMain.sol\":16483:16490  ownerOf */\n      tag_154\n        /* \"contracts/NFTMain.sol\":16483:16500  ownerOf(_tokenId) */\n      jump\t// in\n    tag_412:\n      sub(shl(0xa0, 0x01), 0x01)\n        /* \"contracts/NFTMain.sol\":16483:16516  ownerOf(_tokenId) == _msgSender() */\n      and\n      eq\n        /* \"contracts/NFTMain.sol\":16475:16555  require(ownerOf(_tokenId) == _msgSender(), \"You are not the owner of the token\") */\n      tag_413\n      jumpi\n      mload(0x40)\n      shl(0xe5, 0x461bcd)\n      dup2\n      mstore\n      0x04\n      add\n      tag_268\n      swap1\n      tag_415\n      jump\t// in\n    tag_413:\n        /* \"contracts/NFTMain.sol\":16583:16615  listing(false, address(0), 0, 0) */\n      0x40\n      dup1\n      mload\n      0x80\n      dup2\n      add\n      dup3\n      mstore\n      0x00\n      dup1\n      dup3\n      mstore\n      0x20\n      dup1\n      dup4\n      add\n      dup3\n      dup2\n      mstore\n      dup4\n      dup6\n      add\n      dup4\n      dup2\n      mstore\n      0x60\n      dup6\n      add\n      dup5\n      dup2\n      mstore\n        /* \"contracts/NFTMain.sol\":16566:16580  list[_tokenId] */\n      dup8\n      dup6\n      mstore\n        /* \"contracts/NFTMain.sol\":16566:16570  list */\n      0x4e37\n        /* \"contracts/NFTMain.sol\":16566:16580  list[_tokenId] */\n      swap1\n      swap4\n      mstore\n      swap3\n      dup6\n      swap1\n      keccak256\n        /* \"contracts/NFTMain.sol\":16566:16615  list[_tokenId] = listing(false, address(0), 0, 0) */\n      swap4\n      mload\n      dup5\n      sload\n      swap2\n      mload\n      sub(shl(0xa0, 0x01), 0x01)\n      and\n      0x0100\n      mul\n      not(sub(shl(0xa8, 0x01), 0x0100))\n      swap2\n      iszero\n      iszero\n      swap2\n      swap1\n      swap2\n      and\n      not(sub(shl(0xa8, 0x01), 0x01))\n      swap1\n      swap3\n      and\n      swap2\n      swap1\n      swap2\n      or\n      or\n      dup4\n      sstore\n      swap1\n      mload\n        /* \"contracts/NFTMain.sol\":16583:16615  listing(false, address(0), 0, 0) */\n      0x01\n        /* \"contracts/NFTMain.sol\":16566:16615  list[_tokenId] = listing(false, address(0), 0, 0) */\n      dup4\n      add\n      sstore\n      mload\n      0x02\n      swap1\n      swap2\n      add\n      sstore\n        /* \"contracts/NFTMain.sol\":16631:16655  listingRemoved(_tokenId) */\n      mload\n      0x76915038033fd095a1c41c63de78ca96195fdeb0013ce2bfe4fbc0afe4b0b187\n      swap1\n      tag_416\n      swap1\n        /* \"contracts/NFTMain.sol\":16571:16579  _tokenId */\n      dup4\n        /* \"#utility.yul\":20820:20845   */\n      dup2\n      mstore\n        /* \"#utility.yul\":20808:20810   */\n      0x20\n        /* \"#utility.yul\":20793:20811   */\n      add\n      swap1\n        /* \"#utility.yul\":20674:20851   */\n      jump\n        /* \"contracts/NFTMain.sol\":16631:16655  listingRemoved(_tokenId) */\n    tag_416:\n      mload(0x40)\n      dup1\n      swap2\n      sub\n      swap1\n      log1\n        /* \"contracts/NFTMain.sol\":16361:16663  function removeListing (uint256 _tokenId) public {\r... */\n      pop\n      jump\t// out\n        /* \"contracts/NFTMain.sol\":13708:13863  function tokenByIndex(uint256 index) public pure returns (uint256) {\r... */\n    tag_149:\n        /* \"contracts/NFTMain.sol\":13766:13773  uint256 */\n      0x00\n        /* \"contracts/NFTMain.sol\":2490:2495  20000 */\n      0x4e20\n        /* \"contracts/NFTMain.sol\":13808:13813  index */\n      dup3\n        /* \"contracts/NFTMain.sol\":13808:13827  index < TOKEN_LIMIT */\n      lt\n        /* \"contracts/NFTMain.sol\":13786:13828  require(index >= 0 && index < TOKEN_LIMIT) */\n      tag_419\n      jumpi\n      0x00\n      dup1\n      revert\n    tag_419:\n        /* \"contracts/NFTMain.sol\":13846:13855  index + 1 */\n      tag_293\n        /* \"contracts/NFTMain.sol\":13846:13851  index */\n      dup3\n        /* \"contracts/NFTMain.sol\":13854:13855  1 */\n      0x01\n        /* \"contracts/NFTMain.sol\":13846:13855  index + 1 */\n      tag_421\n      jump\t// in\n        /* \"contracts/NFTMain.sol\":7216:7397  function ownerOf(uint256 _tokenId) public view override returns (address _owner) {\r... */\n    tag_154:\n        /* \"contracts/NFTMain.sol\":7281:7295  address _owner */\n      0x00\n        /* \"contracts/NFTMain.sol\":7316:7335  idToOwner[_tokenId] */\n      dup2\n      dup2\n      mstore\n        /* \"contracts/NFTMain.sol\":7316:7325  idToOwner */\n      0x02\n        /* \"contracts/NFTMain.sol\":7316:7335  idToOwner[_tokenId] */\n      0x20\n      mstore\n      0x40\n      dup2\n      keccak256\n      sload\n      sub(shl(0xa0, 0x01), 0x01)\n      and\n        /* \"contracts/NFTMain.sol\":7308:7350  require(idToOwner[_tokenId] != address(0)) */\n      tag_423\n      jumpi\n      0x00\n      dup1\n      revert\n    tag_423:\n      pop\n        /* \"contracts/NFTMain.sol\":7370:7389  idToOwner[_tokenId] */\n      0x00\n      swap1\n      dup2\n      mstore\n        /* \"contracts/NFTMain.sol\":7370:7379  idToOwner */\n      0x02\n        /* \"contracts/NFTMain.sol\":7370:7389  idToOwner[_tokenId] */\n      0x20\n      mstore\n      0x40\n      swap1\n      keccak256\n      sload\n      sub(shl(0xa0, 0x01), 0x01)\n      and\n      swap1\n        /* \"contracts/NFTMain.sol\":7216:7397  function ownerOf(uint256 _tokenId) public view override returns (address _owner) {\r... */\n      jump\t// out\n        /* \"contracts/NFTMain.sol\":19058:19153  function setFee (uint256 _newBaseFee) public onlyOwner {\r... */\n    tag_159:\n        /* \"@openzeppelin/contracts/access/Ownable.sol\":1082:1089  address */\n      0x00\n        /* \"@openzeppelin/contracts/access/Ownable.sol\":1108:1114  _owner */\n      sload\n      sub(shl(0xa0, 0x01), 0x01)\n      and\n        /* \"@openzeppelin/contracts/utils/Context.sol\":719:729  msg.sender */\n      caller\n        /* \"@openzeppelin/contracts/access/Ownable.sol\":1248:1271  owner() == _msgSender() */\n      eq\n        /* \"@openzeppelin/contracts/access/Ownable.sol\":1240:1308  require(owner() == _msgSender(), \"Ownable: caller is not the owner\") */\n      tag_427\n      jumpi\n      mload(0x40)\n      shl(0xe5, 0x461bcd)\n      dup2\n      mstore\n      0x04\n      add\n      tag_268\n      swap1\n      tag_269\n      jump\t// in\n    tag_427:\n        /* \"contracts/NFTMain.sol\":19124:19131  baseFee */\n      0x4e39\n        /* \"contracts/NFTMain.sol\":19124:19145  baseFee = _newBaseFee */\n      sstore\n        /* \"contracts/NFTMain.sol\":19058:19153  function setFee (uint256 _newBaseFee) public onlyOwner {\r... */\n      jump\t// out\n        /* \"contracts/NFTMain.sol\":7041:7208  function balanceOf(address _owner) external view override returns (uint256) {\r... */\n    tag_168:\n        /* \"contracts/NFTMain.sol\":7108:7115  uint256 */\n      0x00\n      sub(shl(0xa0, 0x01), 0x01)\n        /* \"contracts/NFTMain.sol\":7136:7156  _owner != address(0) */\n      dup3\n      and\n        /* \"contracts/NFTMain.sol\":7128:7157  require(_owner != address(0)) */\n      tag_431\n      jumpi\n      0x00\n      dup1\n      revert\n    tag_431:\n      sub(shl(0xa0, 0x01), 0x01)\n        /* \"contracts/NFTMain.sol\":12299:12317  ownerToIds[_owner] */\n      dup3\n      and\n        /* \"contracts/NFTMain.sol\":12272:12279  uint256 */\n      0x00\n        /* \"contracts/NFTMain.sol\":12299:12317  ownerToIds[_owner] */\n      swap1\n      dup2\n      mstore\n        /* \"contracts/NFTMain.sol\":12299:12309  ownerToIds */\n      0x05\n        /* \"contracts/NFTMain.sol\":12299:12317  ownerToIds[_owner] */\n      0x20\n      mstore\n      0x40\n      swap1\n      keccak256\n        /* \"contracts/NFTMain.sol\":12299:12324  ownerToIds[_owner].length */\n      sload\n        /* \"contracts/NFTMain.sol\":7175:7200  _getOwnerNFTCount(_owner) */\n      tag_293\n        /* \"contracts/NFTMain.sol\":12206:12332  function _getOwnerNFTCount(address _owner) internal view returns (uint256) {\r... */\n      jump\n        /* \"@openzeppelin/contracts/access/Ownable.sol\":1668:1769  function renounceOwnership() public virtual onlyOwner {... */\n    tag_172:\n        /* \"@openzeppelin/contracts/access/Ownable.sol\":1082:1089  address */\n      0x00\n        /* \"@openzeppelin/contracts/access/Ownable.sol\":1108:1114  _owner */\n      sload\n      sub(shl(0xa0, 0x01), 0x01)\n      and\n        /* \"@openzeppelin/contracts/utils/Context.sol\":719:729  msg.sender */\n      caller\n        /* \"@openzeppelin/contracts/access/Ownable.sol\":1248:1271  owner() == _msgSender() */\n      eq\n        /* \"@openzeppelin/contracts/access/Ownable.sol\":1240:1308  require(owner() == _msgSender(), \"Ownable: caller is not the owner\") */\n      tag_437\n      jumpi\n      mload(0x40)\n      shl(0xe5, 0x461bcd)\n      dup2\n      mstore\n      0x04\n      add\n      tag_268\n      swap1\n      tag_269\n      jump\t// in\n    tag_437:\n        /* \"@openzeppelin/contracts/access/Ownable.sol\":1732:1762  _transferOwnership(address(0)) */\n      tag_440\n        /* \"@openzeppelin/contracts/access/Ownable.sol\":1759:1760  0 */\n      0x00\n        /* \"@openzeppelin/contracts/access/Ownable.sol\":1732:1750  _transferOwnership */\n      tag_441\n        /* \"@openzeppelin/contracts/access/Ownable.sol\":1732:1762  _transferOwnership(address(0)) */\n      jump\t// in\n    tag_440:\n        /* \"@openzeppelin/contracts/access/Ownable.sol\":1668:1769  function renounceOwnership() public virtual onlyOwner {... */\n      jump\t// out\n        /* \"contracts/NFTMain.sol\":14743:14845  function symbol() external view returns (string memory _symbol) {\r... */\n    tag_185:\n        /* \"contracts/NFTMain.sol\":14784:14805  string memory _symbol */\n      0x60\n        /* \"contracts/NFTMain.sol\":14828:14837  nftSymbol */\n      0x08\n        /* \"contracts/NFTMain.sol\":14818:14837  _symbol = nftSymbol */\n      dup1\n      sload\n      tag_272\n      swap1\n      tag_273\n      jump\t// in\n        /* \"contracts/NFTMain.sol\":3416:3437  string public baseUri */\n    tag_189:\n      0x12\n      dup1\n      sload\n      tag_449\n      swap1\n      tag_273\n      jump\t// in\n    tag_449:\n      dup1\n      0x1f\n      add\n      0x20\n      dup1\n      swap2\n      div\n      mul\n      0x20\n      add\n      mload(0x40)\n      swap1\n      dup2\n      add\n      0x40\n      mstore\n      dup1\n      swap3\n      swap2\n      swap1\n      dup2\n      dup2\n      mstore\n      0x20\n      add\n      dup3\n      dup1\n      sload\n      tag_450\n      swap1\n      tag_273\n      jump\t// in\n    tag_450:\n      dup1\n      iszero\n      tag_451\n      jumpi\n      dup1\n      0x1f\n      lt\n      tag_452\n      jumpi\n      0x0100\n      dup1\n      dup4\n      sload\n      div\n      mul\n      dup4\n      mstore\n      swap2\n      0x20\n      add\n      swap2\n      jump(tag_451)\n    tag_452:\n      dup3\n      add\n      swap2\n      swap1\n      0x00\n      mstore\n      keccak256(0x00, 0x20)\n      swap1\n    tag_453:\n      dup2\n      sload\n      dup2\n      mstore\n      swap1\n      0x01\n      add\n      swap1\n      0x20\n      add\n      dup1\n      dup4\n      gt\n      tag_453\n      jumpi\n      dup3\n      swap1\n      sub\n      0x1f\n      and\n      dup3\n      add\n      swap2\n    tag_451:\n      pop\n      pop\n      pop\n      pop\n      pop\n      dup2\n      jump\t// out\n        /* \"contracts/NFTMain.sol\":15039:15130  function setUri (string memory newUri) public onlyOwner {\r... */\n    tag_195:\n        /* \"@openzeppelin/contracts/access/Ownable.sol\":1082:1089  address */\n      0x00\n        /* \"@openzeppelin/contracts/access/Ownable.sol\":1108:1114  _owner */\n      sload\n      sub(shl(0xa0, 0x01), 0x01)\n      and\n        /* \"@openzeppelin/contracts/utils/Context.sol\":719:729  msg.sender */\n      caller\n        /* \"@openzeppelin/contracts/access/Ownable.sol\":1248:1271  owner() == _msgSender() */\n      eq\n        /* \"@openzeppelin/contracts/access/Ownable.sol\":1240:1308  require(owner() == _msgSender(), \"Ownable: caller is not the owner\") */\n      tag_457\n      jumpi\n      mload(0x40)\n      shl(0xe5, 0x461bcd)\n      dup2\n      mstore\n      0x04\n      add\n      tag_268\n      swap1\n      tag_269\n      jump\t// in\n    tag_457:\n        /* \"contracts/NFTMain.sol\":15106:15122  baseUri = newUri */\n      dup1\n      mload\n      tag_460\n      swap1\n        /* \"contracts/NFTMain.sol\":15106:15113  baseUri */\n      0x12\n      swap1\n        /* \"contracts/NFTMain.sol\":15106:15122  baseUri = newUri */\n      0x20\n      dup5\n      add\n      swap1\n      tag_461\n      jump\t// in\n    tag_460:\n      pop\n        /* \"contracts/NFTMain.sol\":15039:15130  function setUri (string memory newUri) public onlyOwner {\r... */\n      pop\n      jump\t// out\n        /* \"contracts/NFTMain.sol\":6819:7033  function setApprovalForAll(address _operator, bool _approved) external override {\r... */\n    tag_200:\n        /* \"contracts/NFTMain.sol\":6927:6937  msg.sender */\n      caller\n        /* \"contracts/NFTMain.sol\":6910:6938  ownerToOperators[msg.sender] */\n      0x00\n      dup2\n      dup2\n      mstore\n        /* \"contracts/NFTMain.sol\":6910:6926  ownerToOperators */\n      0x04\n        /* \"contracts/NFTMain.sol\":6910:6938  ownerToOperators[msg.sender] */\n      0x20\n      swap1\n      dup2\n      mstore\n      0x40\n      dup1\n      dup4\n      keccak256\n      sub(shl(0xa0, 0x01), 0x01)\n        /* \"contracts/NFTMain.sol\":6910:6949  ownerToOperators[msg.sender][_operator] */\n      dup8\n      and\n      dup1\n      dup6\n      mstore\n      swap1\n      dup4\n      mstore\n      swap3\n      dup2\n      swap1\n      keccak256\n        /* \"contracts/NFTMain.sol\":6910:6961  ownerToOperators[msg.sender][_operator] = _approved */\n      dup1\n      sload\n      not(0xff)\n      and\n      dup7\n      iszero\n      iszero\n      swap1\n      dup2\n      or\n      swap1\n      swap2\n      sstore\n        /* \"contracts/NFTMain.sol\":6977:7025  ApprovalForAll(msg.sender, _operator, _approved) */\n      swap1\n      mload\n        /* \"#utility.yul\":9144:9185   */\n      swap1\n      dup2\n      mstore\n        /* \"contracts/NFTMain.sol\":6910:6949  ownerToOperators[msg.sender][_operator] */\n      swap2\n      swap3\n        /* \"contracts/NFTMain.sol\":6927:6937  msg.sender */\n      swap2\n        /* \"contracts/NFTMain.sol\":6977:7025  ApprovalForAll(msg.sender, _operator, _approved) */\n      0x17307eab39ab6107e8899845ad3d59bd9653f200f220920489ca2b5937696c31\n      swap2\n        /* \"#utility.yul\":9117:9135   */\n      add\n        /* \"contracts/NFTMain.sol\":6977:7025  ApprovalForAll(msg.sender, _operator, _approved) */\n      mload(0x40)\n      dup1\n      swap2\n      sub\n      swap1\n      log3\n        /* \"contracts/NFTMain.sol\":6819:7033  function setApprovalForAll(address _operator, bool _approved) external override {\r... */\n      pop\n      pop\n      jump\t// out\n        /* \"contracts/NFTMain.sol\":15853:16353  function createListing (uint256 _price, uint256 _tokenId, uint256 _purchaseTokenId) public {\r... */\n    tag_205:\n        /* \"contracts/NFTMain.sol\":15963:15975  marketStatus */\n      sload(0x4e3a)\n      shl(0xa0, 0x01)\n      swap1\n      div\n      0xff\n      and\n        /* \"contracts/NFTMain.sol\":15955:15998  require(marketStatus, \"Market not started\") */\n      tag_465\n      jumpi\n      mload(0x40)\n      shl(0xe5, 0x461bcd)\n      dup2\n      mstore\n      0x04\n      add\n      tag_268\n      swap1\n      tag_410\n      jump\t// in\n    tag_465:\n        /* \"@openzeppelin/contracts/utils/Context.sol\":719:729  msg.sender */\n      caller\n        /* \"contracts/NFTMain.sol\":16017:16034  ownerOf(_tokenId) */\n      tag_468\n        /* \"contracts/NFTMain.sol\":16025:16033  _tokenId */\n      dup4\n        /* \"contracts/NFTMain.sol\":16017:16024  ownerOf */\n      tag_154\n        /* \"contracts/NFTMain.sol\":16017:16034  ownerOf(_tokenId) */\n      jump\t// in\n    tag_468:\n      sub(shl(0xa0, 0x01), 0x01)\n        /* \"contracts/NFTMain.sol\":16017:16050  ownerOf(_tokenId) == _msgSender() */\n      and\n      eq\n        /* \"contracts/NFTMain.sol\":16009:16089  require(ownerOf(_tokenId) == _msgSender(), \"You are not the owner of the token\") */\n      tag_469\n      jumpi\n      mload(0x40)\n      shl(0xe5, 0x461bcd)\n      dup2\n      mstore\n      0x04\n      add\n      tag_268\n      swap1\n      tag_415\n      jump\t// in\n    tag_469:\n        /* \"contracts/NFTMain.sol\":16108:16139  canUse(_tokenId, address(this)) */\n      tag_471\n        /* \"contracts/NFTMain.sol\":16115:16123  _tokenId */\n      dup3\n        /* \"contracts/NFTMain.sol\":16133:16137  this */\n      address\n        /* \"contracts/NFTMain.sol\":16108:16114  canUse */\n      tag_92\n        /* \"contracts/NFTMain.sol\":16108:16139  canUse(_tokenId, address(this)) */\n      jump\t// in\n    tag_471:\n        /* \"contracts/NFTMain.sol\":16100:16200  require(canUse(_tokenId, address(this)), \"You don't own the token or you do not have have approval\") */\n      tag_472\n      jumpi\n      mload(0x40)\n      shl(0xe5, 0x461bcd)\n      dup2\n      mstore\n        /* \"#utility.yul\":19344:19346   */\n      0x20\n        /* \"contracts/NFTMain.sol\":16100:16200  require(canUse(_tokenId, address(this)), \"You don't own the token or you do not have have approval\") */\n      0x04\n      dup3\n      add\n        /* \"#utility.yul\":19326:19347   */\n      mstore\n        /* \"#utility.yul\":19383:19385   */\n      0x38\n        /* \"#utility.yul\":19363:19381   */\n      0x24\n      dup3\n      add\n        /* \"#utility.yul\":19356:19386   */\n      mstore\n        /* \"#utility.yul\":19422:19456   */\n      0x596f7520646f6e2774206f776e2074686520746f6b656e206f7220796f752064\n        /* \"#utility.yul\":19402:19420   */\n      0x44\n      dup3\n      add\n        /* \"#utility.yul\":19395:19457   */\n      mstore\n        /* \"#utility.yul\":19493:19519   */\n      0x6f206e6f742068617665206861766520617070726f76616c0000000000000000\n        /* \"#utility.yul\":19473:19491   */\n      0x64\n      dup3\n      add\n        /* \"#utility.yul\":19466:19520   */\n      mstore\n        /* \"#utility.yul\":19537:19556   */\n      0x84\n      add\n        /* \"contracts/NFTMain.sol\":16100:16200  require(canUse(_tokenId, address(this)), \"You don't own the token or you do not have have approval\") */\n      tag_268\n        /* \"#utility.yul\":19142:19562   */\n      jump\n        /* \"contracts/NFTMain.sol\":16100:16200  require(canUse(_tokenId, address(this)), \"You don't own the token or you do not have have approval\") */\n    tag_472:\n        /* \"contracts/NFTMain.sol\":16228:16279  listing(true, msg.sender, _price, _purchaseTokenId) */\n      0x40\n      dup1\n      mload\n      0x80\n      dup2\n      add\n      dup3\n      mstore\n        /* \"contracts/NFTMain.sol\":16236:16240  true */\n      0x01\n        /* \"contracts/NFTMain.sol\":16228:16279  listing(true, msg.sender, _price, _purchaseTokenId) */\n      dup1\n      dup3\n      mstore\n        /* \"contracts/NFTMain.sol\":16242:16252  msg.sender */\n      caller\n        /* \"contracts/NFTMain.sol\":16228:16279  listing(true, msg.sender, _price, _purchaseTokenId) */\n      0x20\n      dup1\n      dup5\n      add\n      swap2\n      dup3\n      mstore\n      dup4\n      dup6\n      add\n      dup9\n      dup2\n      mstore\n      0x60\n      dup1\n      dup7\n      add\n      dup9\n      dup2\n      mstore\n      0x00\n        /* \"contracts/NFTMain.sol\":16211:16225  list[_tokenId] */\n      dup11\n      dup2\n      mstore\n        /* \"contracts/NFTMain.sol\":16211:16215  list */\n      0x4e37\n        /* \"contracts/NFTMain.sol\":16211:16225  list[_tokenId] */\n      dup6\n      mstore\n      dup9\n      swap1\n      keccak256\n        /* \"contracts/NFTMain.sol\":16211:16279  list[_tokenId] = listing(true, msg.sender, _price, _purchaseTokenId) */\n      swap7\n      mload\n      dup8\n      sload\n      swap6\n      mload\n      not(sub(shl(0xa8, 0x01), 0x01))\n      swap1\n      swap7\n      and\n      swap1\n      iszero\n      iszero\n      not(sub(shl(0xa8, 0x01), 0x0100))\n      and\n      or\n      0x0100\n      sub(shl(0xa0, 0x01), 0x01)\n      swap1\n      swap7\n      and\n      swap6\n      swap1\n      swap6\n      mul\n      swap5\n      swap1\n      swap5\n      or\n      dup7\n      sstore\n      swap1\n      mload\n      swap4\n      dup6\n      add\n      swap4\n      swap1\n      swap4\n      sstore\n      swap1\n      mload\n      0x02\n      swap1\n      swap4\n      add\n      swap3\n      swap1\n      swap3\n      sstore\n        /* \"contracts/NFTMain.sol\":16295:16345  listingCreated(_tokenId, _price, _purchaseTokenId) */\n      dup3\n      mload\n        /* \"#utility.yul\":21058:21083   */\n      dup6\n      dup2\n      mstore\n        /* \"#utility.yul\":21099:21117   */\n      swap2\n      dup3\n      add\n        /* \"#utility.yul\":21092:21126   */\n      dup7\n      swap1\n      mstore\n        /* \"#utility.yul\":21142:21160   */\n      swap2\n      dup2\n      add\n        /* \"#utility.yul\":21135:21169   */\n      dup4\n      swap1\n      mstore\n        /* \"contracts/NFTMain.sol\":16295:16345  listingCreated(_tokenId, _price, _purchaseTokenId) */\n      0xe04275091c8ec0cacfa344ba26fef01e27e1aa9fa1c5211500f11e92ff862e05\n      swap2\n        /* \"#utility.yul\":21031:21049   */\n      add\n        /* \"contracts/NFTMain.sol\":16295:16345  listingCreated(_tokenId, _price, _purchaseTokenId) */\n      mload(0x40)\n      dup1\n      swap2\n      sub\n      swap1\n      log1\n        /* \"contracts/NFTMain.sol\":15853:16353  function createListing (uint256 _price, uint256 _tokenId, uint256 _purchaseTokenId) public {\r... */\n      pop\n      pop\n      pop\n      jump\t// out\n        /* \"contracts/NFTMain.sol\":5025:5202  function startSale() external onlyOwner {\r... */\n    tag_208:\n        /* \"@openzeppelin/contracts/access/Ownable.sol\":1082:1089  address */\n      0x00\n        /* \"@openzeppelin/contracts/access/Ownable.sol\":1108:1114  _owner */\n      sload\n      sub(shl(0xa0, 0x01), 0x01)\n      and\n        /* \"@openzeppelin/contracts/utils/Context.sol\":719:729  msg.sender */\n      caller\n        /* \"@openzeppelin/contracts/access/Ownable.sol\":1248:1271  owner() == _msgSender() */\n      eq\n        /* \"@openzeppelin/contracts/access/Ownable.sol\":1240:1308  require(owner() == _msgSender(), \"Ownable: caller is not the owner\") */\n      tag_480\n      jumpi\n      mload(0x40)\n      shl(0xe5, 0x461bcd)\n      dup2\n      mstore\n      0x04\n      add\n      tag_268\n      swap1\n      tag_269\n      jump\t// in\n    tag_480:\n        /* \"contracts/NFTMain.sol\":5085:5095  publicSale */\n      sload(0x0f)\n      shl(0xa0, 0x01)\n      swap1\n      div\n      0xff\n      and\n        /* \"contracts/NFTMain.sol\":5084:5095  !publicSale */\n      iszero\n        /* \"contracts/NFTMain.sol\":5076:5096  require(!publicSale) */\n      tag_483\n      jumpi\n      0x00\n      dup1\n      revert\n    tag_483:\n        /* \"contracts/NFTMain.sol\":5123:5138  block.timestamp */\n      timestamp\n        /* \"contracts/NFTMain.sol\":5107:5120  saleStartTime */\n      0x14\n        /* \"contracts/NFTMain.sol\":5107:5138  saleStartTime = block.timestamp */\n      sstore\n        /* \"contracts/NFTMain.sol\":5149:5159  publicSale */\n      0x0f\n        /* \"contracts/NFTMain.sol\":5149:5166  publicSale = true */\n      dup1\n      sload\n      not(shl(0xa0, 0xff))\n      and\n      shl(0xa0, 0x01)\n      or\n      swap1\n      sstore\n        /* \"contracts/NFTMain.sol\":5182:5194  SaleBegins() */\n      mload(0x40)\n      0x771cfe172460b7d64cc46cca57a1e1f40f52b47cf1d16fe30c78a2935b3dd580\n      swap1\n        /* \"contracts/NFTMain.sol\":5149:5166  publicSale = true */\n      0x00\n      swap1\n        /* \"contracts/NFTMain.sol\":5182:5194  SaleBegins() */\n      log1\n        /* \"contracts/NFTMain.sol\":5025:5202  function startSale() external onlyOwner {\r... */\n      jump\t// out\n        /* \"contracts/NFTMain.sol\":5791:5968  function safeTransferFrom(address _from, address _to, uint256 _tokenId, bytes calldata _data) external override {\r... */\n    tag_213:\n        /* \"contracts/NFTMain.sol\":5914:5960  _safeTransferFrom(_from, _to, _tokenId, _data) */\n      tag_485\n        /* \"contracts/NFTMain.sol\":5932:5937  _from */\n      dup6\n        /* \"contracts/NFTMain.sol\":5939:5942  _to */\n      dup6\n        /* \"contracts/NFTMain.sol\":5944:5952  _tokenId */\n      dup6\n        /* \"contracts/NFTMain.sol\":5954:5959  _data */\n      dup6\n      dup6\n        /* \"contracts/NFTMain.sol\":5914:5960  _safeTransferFrom(_from, _to, _tokenId, _data) */\n      dup1\n      dup1\n      0x1f\n      add\n      0x20\n      dup1\n      swap2\n      div\n      mul\n      0x20\n      add\n      mload(0x40)\n      swap1\n      dup2\n      add\n      0x40\n      mstore\n      dup1\n      swap4\n      swap3\n      swap2\n      swap1\n      dup2\n      dup2\n      mstore\n      0x20\n      add\n      dup4\n      dup4\n      dup1\n      dup3\n      dup5\n      calldatacopy\n      0x00\n      swap3\n      add\n      swap2\n      swap1\n      swap2\n      mstore\n      pop\n        /* \"contracts/NFTMain.sol\":5914:5931  _safeTransferFrom */\n      tag_404\n      swap3\n      pop\n      pop\n      pop\n        /* \"contracts/NFTMain.sol\":5914:5960  _safeTransferFrom(_from, _to, _tokenId, _data) */\n      jump\t// in\n    tag_485:\n        /* \"contracts/NFTMain.sol\":5791:5968  function safeTransferFrom(address _from, address _to, uint256 _tokenId, bytes calldata _data) external override {\r... */\n      pop\n      pop\n      pop\n      pop\n      pop\n      jump\t// out\n        /* \"contracts/NFTMain.sol\":14855:15031  function tokenURI(uint256 _tokenId) external view validNFToken(_tokenId) returns (string memory) {\r... */\n    tag_227:\n        /* \"contracts/NFTMain.sol\":4433:4434  0 */\n      0x00\n        /* \"contracts/NFTMain.sol\":4402:4421  idToOwner[_tokenId] */\n      dup2\n      dup2\n      mstore\n        /* \"contracts/NFTMain.sol\":4402:4411  idToOwner */\n      0x02\n        /* \"contracts/NFTMain.sol\":4402:4421  idToOwner[_tokenId] */\n      0x20\n      mstore\n      0x40\n      swap1\n      keccak256\n      sload\n        /* \"contracts/NFTMain.sol\":14937:14950  string memory */\n      0x60\n      swap1\n        /* \"contracts/NFTMain.sol\":14918:14926  _tokenId */\n      dup3\n      swap1\n      sub(shl(0xa0, 0x01), 0x01)\n        /* \"contracts/NFTMain.sol\":4402:4421  idToOwner[_tokenId] */\n      and\n        /* \"contracts/NFTMain.sol\":4394:4454  require(idToOwner[_tokenId] != address(0), \"Invalid token.\") */\n      tag_487\n      jumpi\n      mload(0x40)\n      shl(0xe5, 0x461bcd)\n      dup2\n      mstore\n      0x04\n      add\n      tag_268\n      swap1\n      tag_281\n      jump\t// in\n    tag_487:\n        /* \"contracts/NFTMain.sol\":14994:15001  baseUri */\n      0x12\n        /* \"contracts/NFTMain.sol\":15003:15021  toString(_tokenId) */\n      tag_490\n        /* \"contracts/NFTMain.sol\":15012:15020  _tokenId */\n      dup5\n        /* \"contracts/NFTMain.sol\":15003:15011  toString */\n      tag_491\n        /* \"contracts/NFTMain.sol\":15003:15021  toString(_tokenId) */\n      jump\t// in\n    tag_490:\n        /* \"contracts/NFTMain.sol\":14977:15022  abi.encodePacked(baseUri, toString(_tokenId)) */\n      add(0x20, mload(0x40))\n      tag_492\n      swap3\n      swap2\n      swap1\n      tag_493\n      jump\t// in\n    tag_492:\n      mload(0x40)\n      0x20\n      dup2\n      dup4\n      sub\n      sub\n      dup2\n      mstore\n      swap1\n      0x40\n      mstore\n        /* \"contracts/NFTMain.sol\":14963:15023  return string(abi.encodePacked(baseUri, toString(_tokenId))) */\n      swap2\n      pop\n        /* \"contracts/NFTMain.sol\":14855:15031  function tokenURI(uint256 _tokenId) external view validNFToken(_tokenId) returns (string memory) {\r... */\n      pop\n      swap2\n      swap1\n      pop\n      jump\t// out\n        /* \"contracts/NFTMain.sol\":16671:17877  function buyNFTWithToken (uint256 _tokenId) public {\r... */\n    tag_232:\n        /* \"contracts/NFTMain.sol\":16741:16772  canUse(_tokenId, address(this)) */\n      tag_495\n        /* \"contracts/NFTMain.sol\":16748:16756  _tokenId */\n      dup2\n        /* \"contracts/NFTMain.sol\":16766:16770  this */\n      address\n        /* \"contracts/NFTMain.sol\":16741:16747  canUse */\n      tag_92\n        /* \"contracts/NFTMain.sol\":16741:16772  canUse(_tokenId, address(this)) */\n      jump\t// in\n    tag_495:\n        /* \"contracts/NFTMain.sol\":16733:16796  require(canUse(_tokenId, address(this)), \"Error with approval\") */\n      tag_496\n      jumpi\n      mload(0x40)\n      shl(0xe5, 0x461bcd)\n      dup2\n      mstore\n        /* \"#utility.yul\":20528:20530   */\n      0x20\n        /* \"contracts/NFTMain.sol\":16733:16796  require(canUse(_tokenId, address(this)), \"Error with approval\") */\n      0x04\n      dup3\n      add\n        /* \"#utility.yul\":20510:20531   */\n      mstore\n        /* \"#utility.yul\":20567:20569   */\n      0x13\n        /* \"#utility.yul\":20547:20565   */\n      0x24\n      dup3\n      add\n        /* \"#utility.yul\":20540:20570   */\n      mstore\n      shl(0x6a, 0x115c9c9bdc881dda5d1a08185c1c1c9bdd985b)\n        /* \"#utility.yul\":20586:20604   */\n      0x44\n      dup3\n      add\n        /* \"#utility.yul\":20579:20628   */\n      mstore\n        /* \"#utility.yul\":20645:20663   */\n      0x64\n      add\n        /* \"contracts/NFTMain.sol\":16733:16796  require(canUse(_tokenId, address(this)), \"Error with approval\") */\n      tag_268\n        /* \"#utility.yul\":20326:20669   */\n      jump\n        /* \"contracts/NFTMain.sol\":16733:16796  require(canUse(_tokenId, address(this)), \"Error with approval\") */\n    tag_496:\n        /* \"contracts/NFTMain.sol\":16815:16827  marketStatus */\n      sload(0x4e3a)\n      shl(0xa0, 0x01)\n      swap1\n      div\n      0xff\n      and\n        /* \"contracts/NFTMain.sol\":16807:16850  require(marketStatus, \"Market not started\") */\n      tag_499\n      jumpi\n      mload(0x40)\n      shl(0xe5, 0x461bcd)\n      dup2\n      mstore\n      0x04\n      add\n      tag_268\n      swap1\n      tag_410\n      jump\t// in\n    tag_499:\n        /* \"contracts/NFTMain.sol\":16869:16883  list[_tokenId] */\n      0x00\n      dup2\n      dup2\n      mstore\n        /* \"contracts/NFTMain.sol\":16869:16873  list */\n      0x4e37\n        /* \"contracts/NFTMain.sol\":16869:16883  list[_tokenId] */\n      0x20\n      mstore\n      0x40\n      swap1\n      keccak256\n        /* \"contracts/NFTMain.sol\":16869:16893  list[_tokenId].isForSale */\n      sload\n      0xff\n      and\n        /* \"contracts/NFTMain.sol\":16861:16923  require(list[_tokenId].isForSale, \"The token is not for sale\") */\n      tag_501\n      jumpi\n      mload(0x40)\n      shl(0xe5, 0x461bcd)\n      dup2\n      mstore\n        /* \"#utility.yul\":17123:17125   */\n      0x20\n        /* \"contracts/NFTMain.sol\":16861:16923  require(list[_tokenId].isForSale, \"The token is not for sale\") */\n      0x04\n      dup3\n      add\n        /* \"#utility.yul\":17105:17126   */\n      mstore\n        /* \"#utility.yul\":17162:17164   */\n      0x19\n        /* \"#utility.yul\":17142:17160   */\n      0x24\n      dup3\n      add\n        /* \"#utility.yul\":17135:17165   */\n      mstore\n      shl(0x38, 0x54686520746f6b656e206973206e6f7420666f722073616c65)\n        /* \"#utility.yul\":17181:17199   */\n      0x44\n      dup3\n      add\n        /* \"#utility.yul\":17174:17229   */\n      mstore\n        /* \"#utility.yul\":17246:17264   */\n      0x64\n      add\n        /* \"contracts/NFTMain.sol\":16861:16923  require(list[_tokenId].isForSale, \"The token is not for sale\") */\n      tag_268\n        /* \"#utility.yul\":16921:17270   */\n      jump\n        /* \"contracts/NFTMain.sol\":16861:16923  require(list[_tokenId].isForSale, \"The token is not for sale\") */\n    tag_501:\n        /* \"contracts/NFTMain.sol\":16942:16956  list[_tokenId] */\n      0x00\n      dup2\n      dup2\n      mstore\n        /* \"contracts/NFTMain.sol\":16942:16946  list */\n      0x4e37\n        /* \"contracts/NFTMain.sol\":16942:16956  list[_tokenId] */\n      0x20\n      mstore\n      0x40\n      swap1\n      keccak256\n        /* \"contracts/NFTMain.sol\":16942:16972  list[_tokenId].purchaseTokenId */\n      0x02\n      add\n      sload\n        /* \"contracts/NFTMain.sol\":16934:17006  require(list[_tokenId].purchaseTokenId != 0, \"Error with token payment\") */\n      tag_504\n      jumpi\n      mload(0x40)\n      shl(0xe5, 0x461bcd)\n      dup2\n      mstore\n        /* \"#utility.yul\":10991:10993   */\n      0x20\n        /* \"contracts/NFTMain.sol\":16934:17006  require(list[_tokenId].purchaseTokenId != 0, \"Error with token payment\") */\n      0x04\n      dup3\n      add\n        /* \"#utility.yul\":10973:10994   */\n      mstore\n        /* \"#utility.yul\":11030:11032   */\n      0x18\n        /* \"#utility.yul\":11010:11028   */\n      0x24\n      dup3\n      add\n        /* \"#utility.yul\":11003:11033   */\n      mstore\n        /* \"#utility.yul\":11069:11095   */\n      0x4572726f72207769746820746f6b656e207061796d656e740000000000000000\n        /* \"#utility.yul\":11049:11067   */\n      0x44\n      dup3\n      add\n        /* \"#utility.yul\":11042:11096   */\n      mstore\n        /* \"#utility.yul\":11113:11131   */\n      0x64\n      add\n        /* \"contracts/NFTMain.sol\":16934:17006  require(list[_tokenId].purchaseTokenId != 0, \"Error with token payment\") */\n      tag_268\n        /* \"#utility.yul\":10789:11137   */\n      jump\n        /* \"contracts/NFTMain.sol\":16934:17006  require(list[_tokenId].purchaseTokenId != 0, \"Error with token payment\") */\n    tag_504:\n        /* \"contracts/NFTMain.sol\":17096:17110  list[_tokenId] */\n      0x00\n      dup2\n      dup2\n      mstore\n        /* \"contracts/NFTMain.sol\":17096:17100  list */\n      0x4e37\n        /* \"contracts/NFTMain.sol\":17096:17110  list[_tokenId] */\n      0x20\n      swap1\n      dup2\n      mstore\n      0x40\n      dup1\n      dup4\n      keccak256\n        /* \"contracts/NFTMain.sol\":17096:17116  list[_tokenId].price */\n      0x01\n      dup2\n      add\n      sload\n        /* \"contracts/NFTMain.sol\":17039:17069  list[_tokenId].purchaseTokenId */\n      0x02\n      swap1\n      swap2\n      add\n      sload\n        /* \"contracts/NFTMain.sol\":17025:17070  purchaseToken[list[_tokenId].purchaseTokenId] */\n      dup5\n      mstore\n        /* \"contracts/NFTMain.sol\":17025:17038  purchaseToken */\n      0x4e38\n        /* \"contracts/NFTMain.sol\":17025:17070  purchaseToken[list[_tokenId].purchaseTokenId] */\n      swap1\n      swap3\n      mstore\n      swap2\n      dup3\n      swap1\n      keccak256\n      sload\n        /* \"contracts/NFTMain.sol\":17025:17092  purchaseToken[list[_tokenId].purchaseTokenId].balanceOf(msg.sender) */\n      swap2\n      mload\n      shl(0xe0, 0x70a08231)\n      dup2\n      mstore\n        /* \"contracts/NFTMain.sol\":17081:17091  msg.sender */\n      caller\n        /* \"contracts/NFTMain.sol\":17025:17092  purchaseToken[list[_tokenId].purchaseTokenId].balanceOf(msg.sender) */\n      0x04\n      dup3\n      add\n        /* \"#utility.yul\":7749:7800   */\n      mstore\n        /* \"contracts/NFTMain.sol\":17096:17116  list[_tokenId].price */\n      swap1\n      swap2\n      sub(shl(0xa0, 0x01), 0x01)\n        /* \"contracts/NFTMain.sol\":17025:17070  purchaseToken[list[_tokenId].purchaseTokenId] */\n      and\n      swap1\n        /* \"contracts/NFTMain.sol\":17025:17080  purchaseToken[list[_tokenId].purchaseTokenId].balanceOf */\n      0x70a08231\n      swap1\n        /* \"#utility.yul\":7722:7740   */\n      0x24\n      add\n        /* \"contracts/NFTMain.sol\":17025:17092  purchaseToken[list[_tokenId].purchaseTokenId].balanceOf(msg.sender) */\n      0x20\n      mload(0x40)\n      dup1\n      dup4\n      sub\n      dup2\n      dup7\n      dup1\n      extcodesize\n      iszero\n      dup1\n      iszero\n      tag_508\n      jumpi\n      0x00\n      dup1\n      revert\n    tag_508:\n      pop\n      gas\n      staticcall\n      iszero\n      dup1\n      iszero\n      tag_510\n      jumpi\n      returndatasize\n      0x00\n      dup1\n      returndatacopy\n      revert(0x00, returndatasize)\n    tag_510:\n      pop\n      pop\n      pop\n      pop\n      mload(0x40)\n      returndatasize\n      not(0x1f)\n      0x1f\n      dup3\n      add\n      and\n      dup3\n      add\n      dup1\n      0x40\n      mstore\n      pop\n      dup2\n      add\n      swap1\n      tag_511\n      swap2\n      swap1\n      tag_512\n      jump\t// in\n    tag_511:\n        /* \"contracts/NFTMain.sol\":17025:17116  purchaseToken[list[_tokenId].purchaseTokenId].balanceOf(msg.sender) >= list[_tokenId].price */\n      lt\n      iszero\n        /* \"contracts/NFTMain.sol\":17017:17148  require(purchaseToken[list[_tokenId].purchaseTokenId].balanceOf(msg.sender) >= list[_tokenId].price, \"You do not own enough gold\" ) */\n      tag_513\n      jumpi\n      mload(0x40)\n      shl(0xe5, 0x461bcd)\n      dup2\n      mstore\n        /* \"#utility.yul\":12445:12447   */\n      0x20\n        /* \"contracts/NFTMain.sol\":17017:17148  require(purchaseToken[list[_tokenId].purchaseTokenId].balanceOf(msg.sender) >= list[_tokenId].price, \"You do not own enough gold\" ) */\n      0x04\n      dup3\n      add\n        /* \"#utility.yul\":12427:12448   */\n      mstore\n        /* \"#utility.yul\":12484:12486   */\n      0x1a\n        /* \"#utility.yul\":12464:12482   */\n      0x24\n      dup3\n      add\n        /* \"#utility.yul\":12457:12487   */\n      mstore\n        /* \"#utility.yul\":12523:12551   */\n      0x596f7520646f206e6f74206f776e20656e6f75676820676f6c64000000000000\n        /* \"#utility.yul\":12503:12521   */\n      0x44\n      dup3\n      add\n        /* \"#utility.yul\":12496:12552   */\n      mstore\n        /* \"#utility.yul\":12569:12587   */\n      0x64\n      add\n        /* \"contracts/NFTMain.sol\":17017:17148  require(purchaseToken[list[_tokenId].purchaseTokenId].balanceOf(msg.sender) >= list[_tokenId].price, \"You do not own enough gold\" ) */\n      tag_268\n        /* \"#utility.yul\":12243:12593   */\n      jump\n        /* \"contracts/NFTMain.sol\":17017:17148  require(purchaseToken[list[_tokenId].purchaseTokenId].balanceOf(msg.sender) >= list[_tokenId].price, \"You do not own enough gold\" ) */\n    tag_513:\n        /* \"contracts/NFTMain.sol\":17253:17267  list[_tokenId] */\n      0x00\n      dup2\n      dup2\n      mstore\n        /* \"contracts/NFTMain.sol\":17253:17257  list */\n      0x4e37\n        /* \"contracts/NFTMain.sol\":17253:17267  list[_tokenId] */\n      0x20\n      swap1\n      dup2\n      mstore\n      0x40\n      dup1\n      dup4\n      keccak256\n        /* \"contracts/NFTMain.sol\":17253:17273  list[_tokenId].price */\n      0x01\n      dup2\n      add\n      sload\n        /* \"contracts/NFTMain.sol\":17181:17211  list[_tokenId].purchaseTokenId */\n      0x02\n      swap1\n      swap2\n      add\n      sload\n        /* \"contracts/NFTMain.sol\":17167:17212  purchaseToken[list[_tokenId].purchaseTokenId] */\n      dup5\n      mstore\n        /* \"contracts/NFTMain.sol\":17167:17180  purchaseToken */\n      0x4e38\n        /* \"contracts/NFTMain.sol\":17167:17212  purchaseToken[list[_tokenId].purchaseTokenId] */\n      swap1\n      swap3\n      mstore\n      swap2\n      dup3\n      swap1\n      keccak256\n      sload\n        /* \"contracts/NFTMain.sol\":17167:17249  purchaseToken[list[_tokenId].purchaseTokenId].allowance(msg.sender, address(this)) */\n      swap2\n      mload\n      shl(0xe1, 0x6eb1769f)\n      dup2\n      mstore\n        /* \"contracts/NFTMain.sol\":17223:17233  msg.sender */\n      caller\n        /* \"contracts/NFTMain.sol\":17167:17249  purchaseToken[list[_tokenId].purchaseTokenId].allowance(msg.sender, address(this)) */\n      0x04\n      dup3\n      add\n        /* \"#utility.yul\":8023:8057   */\n      mstore\n        /* \"contracts/NFTMain.sol\":17243:17247  this */\n      address\n        /* \"#utility.yul\":8073:8091   */\n      0x24\n      dup3\n      add\n        /* \"#utility.yul\":8066:8109   */\n      mstore\n        /* \"contracts/NFTMain.sol\":17253:17273  list[_tokenId].price */\n      swap1\n      swap2\n      sub(shl(0xa0, 0x01), 0x01)\n        /* \"contracts/NFTMain.sol\":17167:17212  purchaseToken[list[_tokenId].purchaseTokenId] */\n      and\n      swap1\n        /* \"contracts/NFTMain.sol\":17167:17222  purchaseToken[list[_tokenId].purchaseTokenId].allowance */\n      0xdd62ed3e\n      swap1\n        /* \"#utility.yul\":7958:7976   */\n      0x44\n      add\n        /* \"contracts/NFTMain.sol\":17167:17249  purchaseToken[list[_tokenId].purchaseTokenId].allowance(msg.sender, address(this)) */\n      0x20\n      mload(0x40)\n      dup1\n      dup4\n      sub\n      dup2\n      dup7\n      dup1\n      extcodesize\n      iszero\n      dup1\n      iszero\n      tag_518\n      jumpi\n      0x00\n      dup1\n      revert\n    tag_518:\n      pop\n      gas\n      staticcall\n      iszero\n      dup1\n      iszero\n      tag_520\n      jumpi\n      returndatasize\n      0x00\n      dup1\n      returndatacopy\n      revert(0x00, returndatasize)\n    tag_520:\n      pop\n      pop\n      pop\n      pop\n      mload(0x40)\n      returndatasize\n      not(0x1f)\n      0x1f\n      dup3\n      add\n      and\n      dup3\n      add\n      dup1\n      0x40\n      mstore\n      pop\n      dup2\n      add\n      swap1\n      tag_521\n      swap2\n      swap1\n      tag_512\n      jump\t// in\n    tag_521:\n        /* \"contracts/NFTMain.sol\":17167:17273  purchaseToken[list[_tokenId].purchaseTokenId].allowance(msg.sender, address(this)) >= list[_tokenId].price */\n      lt\n      iszero\n        /* \"contracts/NFTMain.sol\":17159:17304  require(purchaseToken[list[_tokenId].purchaseTokenId].allowance(msg.sender, address(this)) >= list[_tokenId].price, \"You allowance is too small\") */\n      tag_522\n      jumpi\n      mload(0x40)\n      shl(0xe5, 0x461bcd)\n      dup2\n      mstore\n        /* \"#utility.yul\":15289:15291   */\n      0x20\n        /* \"contracts/NFTMain.sol\":17159:17304  require(purchaseToken[list[_tokenId].purchaseTokenId].allowance(msg.sender, address(this)) >= list[_tokenId].price, \"You allowance is too small\") */\n      0x04\n      dup3\n      add\n        /* \"#utility.yul\":15271:15292   */\n      mstore\n        /* \"#utility.yul\":15328:15330   */\n      0x1a\n        /* \"#utility.yul\":15308:15326   */\n      0x24\n      dup3\n      add\n        /* \"#utility.yul\":15301:15331   */\n      mstore\n        /* \"#utility.yul\":15367:15395   */\n      0x596f7520616c6c6f77616e636520697320746f6f20736d616c6c000000000000\n        /* \"#utility.yul\":15347:15365   */\n      0x44\n      dup3\n      add\n        /* \"#utility.yul\":15340:15396   */\n      mstore\n        /* \"#utility.yul\":15413:15431   */\n      0x64\n      add\n        /* \"contracts/NFTMain.sol\":17159:17304  require(purchaseToken[list[_tokenId].purchaseTokenId].allowance(msg.sender, address(this)) >= list[_tokenId].price, \"You allowance is too small\") */\n      tag_268\n        /* \"#utility.yul\":15087:15437   */\n      jump\n        /* \"contracts/NFTMain.sol\":17159:17304  require(purchaseToken[list[_tokenId].purchaseTokenId].allowance(msg.sender, address(this)) >= list[_tokenId].price, \"You allowance is too small\") */\n    tag_522:\n        /* \"contracts/NFTMain.sol\":17329:17336  baseFee */\n      sload(0x4e39)\n        /* \"contracts/NFTMain.sol\":17315:17326  uint256 fee */\n      0x00\n        /* \"contracts/NFTMain.sol\":17372:17382  1000 - fee */\n      tag_525\n        /* \"contracts/NFTMain.sol\":17329:17336  baseFee */\n      dup3\n        /* \"contracts/NFTMain.sol\":17372:17376  1000 */\n      0x03e8\n        /* \"contracts/NFTMain.sol\":17372:17382  1000 - fee */\n      tag_328\n      jump\t// in\n    tag_525:\n        /* \"contracts/NFTMain.sol\":17468:17477  feeWallet */\n      sload(0x4e3a)\n      0x00\n        /* \"contracts/NFTMain.sol\":17479:17493  list[_tokenId] */\n      dup6\n      dup2\n      mstore\n        /* \"contracts/NFTMain.sol\":17479:17483  list */\n      0x4e37\n        /* \"contracts/NFTMain.sol\":17479:17493  list[_tokenId] */\n      0x20\n      mstore\n      0x40\n      swap1\n      keccak256\n        /* \"contracts/NFTMain.sol\":17468:17477  feeWallet */\n      0x01\n        /* \"contracts/NFTMain.sol\":17479:17499  list[_tokenId].price */\n      add\n      sload\n        /* \"contracts/NFTMain.sol\":17347:17382  uint256 amountAfterFee = 1000 - fee */\n      swap2\n      swap3\n      pop\n        /* \"contracts/NFTMain.sol\":17393:17519  purchaseToken[list[_tokenId].purchaseTokenId].safeTransferFrom(msg.sender, feeWallet, list[_tokenId].price.mul(fee).div(1000)) */\n      tag_526\n      swap2\n        /* \"contracts/NFTMain.sol\":17456:17466  msg.sender */\n      caller\n      swap2\n      sub(shl(0xa0, 0x01), 0x01)\n        /* \"contracts/NFTMain.sol\":17468:17477  feeWallet */\n      and\n      swap1\n        /* \"contracts/NFTMain.sol\":17479:17518  list[_tokenId].price.mul(fee).div(1000) */\n      tag_527\n      swap1\n        /* \"contracts/NFTMain.sol\":17513:17517  1000 */\n      0x03e8\n      swap1\n        /* \"contracts/NFTMain.sol\":17479:17508  list[_tokenId].price.mul(fee) */\n      tag_528\n      swap1\n        /* \"contracts/NFTMain.sol\":17504:17507  fee */\n      dup9\n        /* \"contracts/NFTMain.sol\":17479:17503  list[_tokenId].price.mul */\n      tag_320\n        /* \"contracts/NFTMain.sol\":17479:17508  list[_tokenId].price.mul(fee) */\n      jump\t// in\n    tag_528:\n        /* \"contracts/NFTMain.sol\":17479:17512  list[_tokenId].price.mul(fee).div */\n      swap1\n      tag_376\n        /* \"contracts/NFTMain.sol\":17479:17518  list[_tokenId].price.mul(fee).div(1000) */\n      jump\t// in\n    tag_527:\n        /* \"contracts/NFTMain.sol\":17393:17438  purchaseToken[list[_tokenId].purchaseTokenId] */\n      0x00\n        /* \"contracts/NFTMain.sol\":17407:17421  list[_tokenId] */\n      dup8\n      dup2\n      mstore\n        /* \"contracts/NFTMain.sol\":17407:17411  list */\n      0x4e37\n        /* \"contracts/NFTMain.sol\":17407:17421  list[_tokenId] */\n      0x20\n      swap1\n      dup2\n      mstore\n      0x40\n      dup1\n      dup4\n      keccak256\n        /* \"contracts/NFTMain.sol\":17407:17437  list[_tokenId].purchaseTokenId */\n      0x02\n      add\n      sload\n        /* \"contracts/NFTMain.sol\":17393:17438  purchaseToken[list[_tokenId].purchaseTokenId] */\n      dup4\n      mstore\n        /* \"contracts/NFTMain.sol\":17393:17406  purchaseToken */\n      0x4e38\n        /* \"contracts/NFTMain.sol\":17393:17438  purchaseToken[list[_tokenId].purchaseTokenId] */\n      swap1\n      swap2\n      mstore\n      swap1\n      keccak256\n      sload\n      sub(shl(0xa0, 0x01), 0x01)\n      and\n      swap3\n        /* \"contracts/NFTMain.sol\":17393:17519  purchaseToken[list[_tokenId].purchaseTokenId].safeTransferFrom(msg.sender, feeWallet, list[_tokenId].price.mul(fee).div(1000)) */\n      swap2\n      swap1\n        /* \"contracts/NFTMain.sol\":17393:17455  purchaseToken[list[_tokenId].purchaseTokenId].safeTransferFrom */\n      tag_321\n        /* \"contracts/NFTMain.sol\":17393:17519  purchaseToken[list[_tokenId].purchaseTokenId].safeTransferFrom(msg.sender, feeWallet, list[_tokenId].price.mul(fee).div(1000)) */\n      jump\t// in\n    tag_526:\n        /* \"contracts/NFTMain.sol\":17605:17619  list[_tokenId] */\n      0x00\n      dup4\n      dup2\n      mstore\n        /* \"contracts/NFTMain.sol\":17605:17609  list */\n      0x4e37\n        /* \"contracts/NFTMain.sol\":17605:17619  list[_tokenId] */\n      0x20\n      mstore\n      0x40\n      swap1\n      keccak256\n        /* \"contracts/NFTMain.sol\":17605:17625  list[_tokenId].owner */\n      dup1\n      sload\n      0x01\n        /* \"contracts/NFTMain.sol\":17627:17647  list[_tokenId].price */\n      swap1\n      swap2\n      add\n      sload\n        /* \"contracts/NFTMain.sol\":17530:17678  purchaseToken[list[_tokenId].purchaseTokenId].safeTransferFrom(msg.sender, list[_tokenId].owner, list[_tokenId].price.mul(amountAfterFee).div(1000)) */\n      tag_529\n      swap2\n        /* \"contracts/NFTMain.sol\":17593:17603  msg.sender */\n      caller\n      swap2\n        /* \"contracts/NFTMain.sol\":17605:17625  list[_tokenId].owner */\n      0x0100\n      swap1\n      swap2\n      div\n      sub(shl(0xa0, 0x01), 0x01)\n      and\n      swap1\n        /* \"contracts/NFTMain.sol\":17627:17677  list[_tokenId].price.mul(amountAfterFee).div(1000) */\n      tag_527\n      swap1\n        /* \"contracts/NFTMain.sol\":17672:17676  1000 */\n      0x03e8\n      swap1\n        /* \"contracts/NFTMain.sol\":17627:17667  list[_tokenId].price.mul(amountAfterFee) */\n      tag_528\n      swap1\n        /* \"contracts/NFTMain.sol\":17652:17666  amountAfterFee */\n      dup8\n        /* \"contracts/NFTMain.sol\":17627:17651  list[_tokenId].price.mul */\n      tag_320\n        /* \"contracts/NFTMain.sol\":17627:17667  list[_tokenId].price.mul(amountAfterFee) */\n      jump\t// in\n        /* \"contracts/NFTMain.sol\":17530:17678  purchaseToken[list[_tokenId].purchaseTokenId].safeTransferFrom(msg.sender, list[_tokenId].owner, list[_tokenId].price.mul(amountAfterFee).div(1000)) */\n    tag_529:\n        /* \"contracts/NFTMain.sol\":17689:17720  _transfer(msg.sender, _tokenId) */\n      tag_532\n        /* \"contracts/NFTMain.sol\":17699:17709  msg.sender */\n      caller\n        /* \"contracts/NFTMain.sol\":17711:17719  _tokenId */\n      dup5\n        /* \"contracts/NFTMain.sol\":17689:17698  _transfer */\n      tag_356\n        /* \"contracts/NFTMain.sol\":17689:17720  _transfer(msg.sender, _tokenId) */\n      jump\t// in\n    tag_532:\n        /* \"contracts/NFTMain.sol\":17756:17770  list[_tokenId] */\n      0x00\n      dup4\n      dup2\n      mstore\n        /* \"contracts/NFTMain.sol\":17756:17760  list */\n      0x4e37\n        /* \"contracts/NFTMain.sol\":17756:17770  list[_tokenId] */\n      0x20\n      swap1\n      dup2\n      mstore\n      0x40\n      swap2\n      dup3\n      swap1\n      keccak256\n        /* \"contracts/NFTMain.sol\":17756:17776  list[_tokenId].price */\n      0x01\n      dup2\n      add\n      sload\n        /* \"contracts/NFTMain.sol\":17778:17808  list[_tokenId].purchaseTokenId */\n      0x02\n      swap1\n      swap2\n      add\n      sload\n        /* \"contracts/NFTMain.sol\":17736:17809  NFTbought(_tokenId, list[_tokenId].price, list[_tokenId].purchaseTokenId) */\n      dup4\n      mload\n        /* \"#utility.yul\":21058:21083   */\n      dup8\n      dup2\n      mstore\n        /* \"#utility.yul\":21099:21117   */\n      swap3\n      dup4\n      add\n        /* \"#utility.yul\":21092:21126   */\n      swap2\n      swap1\n      swap2\n      mstore\n        /* \"#utility.yul\":21142:21160   */\n      dup2\n      dup4\n      add\n        /* \"#utility.yul\":21135:21169   */\n      mstore\n        /* \"contracts/NFTMain.sol\":17736:17809  NFTbought(_tokenId, list[_tokenId].price, list[_tokenId].purchaseTokenId) */\n      swap1\n      mload\n      0x9695d5ebf5115e7b172f9c06e511f76a01df1de76571b792ff9b6d506f06d3ef\n      swap2\n      dup2\n      swap1\n      sub\n        /* \"#utility.yul\":21046:21048   */\n      0x60\n        /* \"contracts/NFTMain.sol\":17736:17809  NFTbought(_tokenId, list[_tokenId].price, list[_tokenId].purchaseTokenId) */\n      add\n      swap1\n      log1\n      pop\n      pop\n        /* \"contracts/NFTMain.sol\":17837:17869  listing(false, address(0), 0, 0) */\n      0x40\n      dup1\n      mload\n      0x80\n      dup2\n      add\n      dup3\n      mstore\n      0x00\n      dup1\n      dup3\n      mstore\n      0x20\n      dup1\n      dup4\n      add\n      dup3\n      dup2\n      mstore\n      dup4\n      dup6\n      add\n      dup4\n      dup2\n      mstore\n      0x60\n      dup6\n      add\n      dup5\n      dup2\n      mstore\n        /* \"contracts/NFTMain.sol\":17820:17834  list[_tokenId] */\n      swap7\n      dup5\n      mstore\n        /* \"contracts/NFTMain.sol\":17820:17824  list */\n      0x4e37\n        /* \"contracts/NFTMain.sol\":17820:17834  list[_tokenId] */\n      swap1\n      swap3\n      mstore\n      swap4\n      swap1\n      swap2\n      keccak256\n        /* \"contracts/NFTMain.sol\":17820:17869  list[_tokenId] = listing(false, address(0), 0, 0) */\n      swap2\n      mload\n      dup3\n      sload\n      swap4\n      mload\n      not(sub(shl(0xa8, 0x01), 0x01))\n      swap1\n      swap5\n      and\n      swap1\n      iszero\n      iszero\n      not(sub(shl(0xa8, 0x01), 0x0100))\n      and\n      or\n      0x0100\n      sub(shl(0xa0, 0x01), 0x01)\n      swap1\n      swap5\n      and\n      swap4\n      swap1\n      swap4\n      mul\n      swap3\n      swap1\n      swap3\n      or\n      dup2\n      sstore\n      swap1\n      mload\n      0x01\n      dup3\n      add\n      sstore\n      swap1\n      mload\n      0x02\n      swap1\n      swap2\n      add\n      sstore\n        /* \"contracts/NFTMain.sol\":16671:17877  function buyNFTWithToken (uint256 _tokenId) public {\r... */\n      jump\t// out\n        /* \"@openzeppelin/contracts/access/Ownable.sol\":1918:2116  function transferOwnership(address newOwner) public virtual onlyOwner {... */\n    tag_254:\n        /* \"@openzeppelin/contracts/access/Ownable.sol\":1082:1089  address */\n      0x00\n        /* \"@openzeppelin/contracts/access/Ownable.sol\":1108:1114  _owner */\n      sload\n      sub(shl(0xa0, 0x01), 0x01)\n      and\n        /* \"@openzeppelin/contracts/utils/Context.sol\":719:729  msg.sender */\n      caller\n        /* \"@openzeppelin/contracts/access/Ownable.sol\":1248:1271  owner() == _msgSender() */\n      eq\n        /* \"@openzeppelin/contracts/access/Ownable.sol\":1240:1308  require(owner() == _msgSender(), \"Ownable: caller is not the owner\") */\n      tag_538\n      jumpi\n      mload(0x40)\n      shl(0xe5, 0x461bcd)\n      dup2\n      mstore\n      0x04\n      add\n      tag_268\n      swap1\n      tag_269\n      jump\t// in\n    tag_538:\n      sub(shl(0xa0, 0x01), 0x01)\n        /* \"@openzeppelin/contracts/access/Ownable.sol\":2006:2028  newOwner != address(0) */\n      dup2\n      and\n        /* \"@openzeppelin/contracts/access/Ownable.sol\":1998:2071  require(newOwner != address(0), \"Ownable: new owner is the zero address\") */\n      tag_541\n      jumpi\n      mload(0x40)\n      shl(0xe5, 0x461bcd)\n      dup2\n      mstore\n        /* \"#utility.yul\":11344:11346   */\n      0x20\n        /* \"@openzeppelin/contracts/access/Ownable.sol\":1998:2071  require(newOwner != address(0), \"Ownable: new owner is the zero address\") */\n      0x04\n      dup3\n      add\n        /* \"#utility.yul\":11326:11347   */\n      mstore\n        /* \"#utility.yul\":11383:11385   */\n      0x26\n        /* \"#utility.yul\":11363:11381   */\n      0x24\n      dup3\n      add\n        /* \"#utility.yul\":11356:11386   */\n      mstore\n        /* \"#utility.yul\":11422:11456   */\n      0x4f776e61626c653a206e6577206f776e657220697320746865207a65726f2061\n        /* \"#utility.yul\":11402:11420   */\n      0x44\n      dup3\n      add\n        /* \"#utility.yul\":11395:11457   */\n      mstore\n      shl(0xd0, 0x646472657373)\n        /* \"#utility.yul\":11473:11491   */\n      0x64\n      dup3\n      add\n        /* \"#utility.yul\":11466:11502   */\n      mstore\n        /* \"#utility.yul\":11519:11538   */\n      0x84\n      add\n        /* \"@openzeppelin/contracts/access/Ownable.sol\":1998:2071  require(newOwner != address(0), \"Ownable: new owner is the zero address\") */\n      tag_268\n        /* \"#utility.yul\":11142:11544   */\n      jump\n        /* \"@openzeppelin/contracts/access/Ownable.sol\":1998:2071  require(newOwner != address(0), \"Ownable: new owner is the zero address\") */\n    tag_541:\n        /* \"@openzeppelin/contracts/access/Ownable.sol\":2081:2109  _transferOwnership(newOwner) */\n      tag_544\n        /* \"@openzeppelin/contracts/access/Ownable.sol\":2100:2108  newOwner */\n      dup2\n        /* \"@openzeppelin/contracts/access/Ownable.sol\":2081:2099  _transferOwnership */\n      tag_441\n        /* \"@openzeppelin/contracts/access/Ownable.sol\":2081:2109  _transferOwnership(newOwner) */\n      jump\t// in\n    tag_544:\n        /* \"@openzeppelin/contracts/access/Ownable.sol\":1918:2116  function transferOwnership(address newOwner) public virtual onlyOwner {... */\n      pop\n      jump\t// out\n        /* \"contracts/NFTMain.sol\":17885:18760  function buyNFTMatic (uint256 _tokenId) public payable {\r... */\n    tag_257:\n        /* \"contracts/NFTMain.sol\":17959:17990  canUse(_tokenId, address(this)) */\n      tag_546\n        /* \"contracts/NFTMain.sol\":17966:17974  _tokenId */\n      dup2\n        /* \"contracts/NFTMain.sol\":17984:17988  this */\n      address\n        /* \"contracts/NFTMain.sol\":17959:17965  canUse */\n      tag_92\n        /* \"contracts/NFTMain.sol\":17959:17990  canUse(_tokenId, address(this)) */\n      jump\t// in\n    tag_546:\n        /* \"contracts/NFTMain.sol\":17951:18014  require(canUse(_tokenId, address(this)), \"Error with approval\") */\n      tag_547\n      jumpi\n      mload(0x40)\n      shl(0xe5, 0x461bcd)\n      dup2\n      mstore\n        /* \"#utility.yul\":20528:20530   */\n      0x20\n        /* \"contracts/NFTMain.sol\":17951:18014  require(canUse(_tokenId, address(this)), \"Error with approval\") */\n      0x04\n      dup3\n      add\n        /* \"#utility.yul\":20510:20531   */\n      mstore\n        /* \"#utility.yul\":20567:20569   */\n      0x13\n        /* \"#utility.yul\":20547:20565   */\n      0x24\n      dup3\n      add\n        /* \"#utility.yul\":20540:20570   */\n      mstore\n      shl(0x6a, 0x115c9c9bdc881dda5d1a08185c1c1c9bdd985b)\n        /* \"#utility.yul\":20586:20604   */\n      0x44\n      dup3\n      add\n        /* \"#utility.yul\":20579:20628   */\n      mstore\n        /* \"#utility.yul\":20645:20663   */\n      0x64\n      add\n        /* \"contracts/NFTMain.sol\":17951:18014  require(canUse(_tokenId, address(this)), \"Error with approval\") */\n      tag_268\n        /* \"#utility.yul\":20326:20669   */\n      jump\n        /* \"contracts/NFTMain.sol\":17951:18014  require(canUse(_tokenId, address(this)), \"Error with approval\") */\n    tag_547:\n        /* \"contracts/NFTMain.sol\":18033:18045  marketStatus */\n      sload(0x4e3a)\n      shl(0xa0, 0x01)\n      swap1\n      div\n      0xff\n      and\n        /* \"contracts/NFTMain.sol\":18025:18068  require(marketStatus, \"Market not started\") */\n      tag_549\n      jumpi\n      mload(0x40)\n      shl(0xe5, 0x461bcd)\n      dup2\n      mstore\n      0x04\n      add\n      tag_268\n      swap1\n      tag_410\n      jump\t// in\n    tag_549:\n        /* \"contracts/NFTMain.sol\":18087:18101  list[_tokenId] */\n      0x00\n      dup2\n      dup2\n      mstore\n        /* \"contracts/NFTMain.sol\":18087:18091  list */\n      0x4e37\n        /* \"contracts/NFTMain.sol\":18087:18101  list[_tokenId] */\n      0x20\n      mstore\n      0x40\n      swap1\n      keccak256\n        /* \"contracts/NFTMain.sol\":18087:18111  list[_tokenId].isForSale */\n      sload\n      0xff\n      and\n        /* \"contracts/NFTMain.sol\":18079:18141  require(list[_tokenId].isForSale, \"The token is not for sale\") */\n      tag_551\n      jumpi\n      mload(0x40)\n      shl(0xe5, 0x461bcd)\n      dup2\n      mstore\n        /* \"#utility.yul\":17123:17125   */\n      0x20\n        /* \"contracts/NFTMain.sol\":18079:18141  require(list[_tokenId].isForSale, \"The token is not for sale\") */\n      0x04\n      dup3\n      add\n        /* \"#utility.yul\":17105:17126   */\n      mstore\n        /* \"#utility.yul\":17162:17164   */\n      0x19\n        /* \"#utility.yul\":17142:17160   */\n      0x24\n      dup3\n      add\n        /* \"#utility.yul\":17135:17165   */\n      mstore\n      shl(0x38, 0x54686520746f6b656e206973206e6f7420666f722073616c65)\n        /* \"#utility.yul\":17181:17199   */\n      0x44\n      dup3\n      add\n        /* \"#utility.yul\":17174:17229   */\n      mstore\n        /* \"#utility.yul\":17246:17264   */\n      0x64\n      add\n        /* \"contracts/NFTMain.sol\":18079:18141  require(list[_tokenId].isForSale, \"The token is not for sale\") */\n      tag_268\n        /* \"#utility.yul\":16921:17270   */\n      jump\n        /* \"contracts/NFTMain.sol\":18079:18141  require(list[_tokenId].isForSale, \"The token is not for sale\") */\n    tag_551:\n        /* \"contracts/NFTMain.sol\":18160:18174  list[_tokenId] */\n      0x00\n      dup2\n      dup2\n      mstore\n        /* \"contracts/NFTMain.sol\":18160:18164  list */\n      0x4e37\n        /* \"contracts/NFTMain.sol\":18160:18174  list[_tokenId] */\n      0x20\n      mstore\n      0x40\n      swap1\n      keccak256\n        /* \"contracts/NFTMain.sol\":18160:18190  list[_tokenId].purchaseTokenId */\n      0x02\n      add\n      sload\n        /* \"contracts/NFTMain.sol\":18160:18195  list[_tokenId].purchaseTokenId == 0 */\n      iszero\n        /* \"contracts/NFTMain.sol\":18152:18219  require(list[_tokenId].purchaseTokenId == 0, \"Not listed in Matic\") */\n      tag_553\n      jumpi\n      mload(0x40)\n      shl(0xe5, 0x461bcd)\n      dup2\n      mstore\n        /* \"#utility.yul\":12800:12802   */\n      0x20\n        /* \"contracts/NFTMain.sol\":18152:18219  require(list[_tokenId].purchaseTokenId == 0, \"Not listed in Matic\") */\n      0x04\n      dup3\n      add\n        /* \"#utility.yul\":12782:12803   */\n      mstore\n        /* \"#utility.yul\":12839:12841   */\n      0x13\n        /* \"#utility.yul\":12819:12837   */\n      0x24\n      dup3\n      add\n        /* \"#utility.yul\":12812:12842   */\n      mstore\n      shl(0x68, 0x4e6f74206c697374656420696e204d61746963)\n        /* \"#utility.yul\":12858:12876   */\n      0x44\n      dup3\n      add\n        /* \"#utility.yul\":12851:12900   */\n      mstore\n        /* \"#utility.yul\":12917:12935   */\n      0x64\n      add\n        /* \"contracts/NFTMain.sol\":18152:18219  require(list[_tokenId].purchaseTokenId == 0, \"Not listed in Matic\") */\n      tag_268\n        /* \"#utility.yul\":12598:12941   */\n      jump\n        /* \"contracts/NFTMain.sol\":18152:18219  require(list[_tokenId].purchaseTokenId == 0, \"Not listed in Matic\") */\n    tag_553:\n        /* \"contracts/NFTMain.sol\":18251:18265  list[_tokenId] */\n      0x00\n      dup2\n      dup2\n      mstore\n        /* \"contracts/NFTMain.sol\":18251:18255  list */\n      0x4e37\n        /* \"contracts/NFTMain.sol\":18251:18265  list[_tokenId] */\n      0x20\n      mstore\n      0x40\n      swap1\n      keccak256\n        /* \"contracts/NFTMain.sol\":18251:18271  list[_tokenId].price */\n      0x01\n      add\n      sload\n        /* \"contracts/NFTMain.sol\":18238:18247  msg.value */\n      callvalue\n        /* \"contracts/NFTMain.sol\":18238:18271  msg.value == list[_tokenId].price */\n      eq\n        /* \"contracts/NFTMain.sol\":18230:18302  require(msg.value == list[_tokenId].price, \"Wrong amount of Matic sent\") */\n      tag_556\n      jumpi\n      mload(0x40)\n      shl(0xe5, 0x461bcd)\n      dup2\n      mstore\n        /* \"#utility.yul\":10287:10289   */\n      0x20\n        /* \"contracts/NFTMain.sol\":18230:18302  require(msg.value == list[_tokenId].price, \"Wrong amount of Matic sent\") */\n      0x04\n      dup3\n      add\n        /* \"#utility.yul\":10269:10290   */\n      mstore\n        /* \"#utility.yul\":10326:10328   */\n      0x1a\n        /* \"#utility.yul\":10306:10324   */\n      0x24\n      dup3\n      add\n        /* \"#utility.yul\":10299:10329   */\n      mstore\n        /* \"#utility.yul\":10365:10393   */\n      0x57726f6e6720616d6f756e74206f66204d617469632073656e74000000000000\n        /* \"#utility.yul\":10345:10363   */\n      0x44\n      dup3\n      add\n        /* \"#utility.yul\":10338:10394   */\n      mstore\n        /* \"#utility.yul\":10411:10429   */\n      0x64\n      add\n        /* \"contracts/NFTMain.sol\":18230:18302  require(msg.value == list[_tokenId].price, \"Wrong amount of Matic sent\") */\n      tag_268\n        /* \"#utility.yul\":10085:10435   */\n      jump\n        /* \"contracts/NFTMain.sol\":18230:18302  require(msg.value == list[_tokenId].price, \"Wrong amount of Matic sent\") */\n    tag_556:\n        /* \"contracts/NFTMain.sol\":18327:18334  baseFee */\n      sload(0x4e39)\n        /* \"contracts/NFTMain.sol\":18313:18324  uint256 fee */\n      0x00\n        /* \"contracts/NFTMain.sol\":18370:18380  1000 - fee */\n      tag_559\n        /* \"contracts/NFTMain.sol\":18327:18334  baseFee */\n      dup3\n        /* \"contracts/NFTMain.sol\":18370:18374  1000 */\n      0x03e8\n        /* \"contracts/NFTMain.sol\":18370:18380  1000 - fee */\n      tag_328\n      jump\t// in\n    tag_559:\n        /* \"contracts/NFTMain.sol\":18399:18408  feeWallet */\n      sload(0x4e3a)\n      0x00\n        /* \"contracts/NFTMain.sol\":18419:18433  list[_tokenId] */\n      dup6\n      dup2\n      mstore\n        /* \"contracts/NFTMain.sol\":18419:18423  list */\n      0x4e37\n        /* \"contracts/NFTMain.sol\":18419:18433  list[_tokenId] */\n      0x20\n      mstore\n      0x40\n      swap1\n      keccak256\n        /* \"contracts/NFTMain.sol\":18399:18408  feeWallet */\n      0x01\n        /* \"contracts/NFTMain.sol\":18419:18439  list[_tokenId].price */\n      add\n      sload\n        /* \"contracts/NFTMain.sol\":18345:18380  uint256 amountAfterFee = 1000 - fee */\n      swap2\n      swap3\n      pop\n      sub(shl(0xa0, 0x01), 0x01)\n        /* \"contracts/NFTMain.sol\":18399:18408  feeWallet */\n      and\n      swap1\n        /* \"contracts/NFTMain.sol\":18391:18459  payable(feeWallet).transfer(list[_tokenId].price.mul(fee).div(1000)) */\n      0x08fc\n      swap1\n        /* \"contracts/NFTMain.sol\":18419:18458  list[_tokenId].price.mul(fee).div(1000) */\n      tag_560\n      swap1\n        /* \"contracts/NFTMain.sol\":18453:18457  1000 */\n      0x03e8\n      swap1\n        /* \"contracts/NFTMain.sol\":18419:18448  list[_tokenId].price.mul(fee) */\n      tag_528\n      swap1\n        /* \"contracts/NFTMain.sol\":18444:18447  fee */\n      dup8\n        /* \"contracts/NFTMain.sol\":18419:18443  list[_tokenId].price.mul */\n      tag_320\n        /* \"contracts/NFTMain.sol\":18419:18448  list[_tokenId].price.mul(fee) */\n      jump\t// in\n        /* \"contracts/NFTMain.sol\":18419:18458  list[_tokenId].price.mul(fee).div(1000) */\n    tag_560:\n        /* \"contracts/NFTMain.sol\":18391:18459  payable(feeWallet).transfer(list[_tokenId].price.mul(fee).div(1000)) */\n      mload(0x40)\n      dup2\n      iszero\n      swap1\n      swap3\n      mul\n      swap2\n      0x00\n      dup2\n      dup2\n      dup2\n      dup6\n      dup9\n      dup9\n      call\n      swap4\n      pop\n      pop\n      pop\n      pop\n      iszero\n      dup1\n      iszero\n      tag_563\n      jumpi\n      returndatasize\n      0x00\n      dup1\n      returndatacopy\n      revert(0x00, returndatasize)\n    tag_563:\n      pop\n        /* \"contracts/NFTMain.sol\":18478:18492  list[_tokenId] */\n      0x00\n      dup4\n      dup2\n      mstore\n        /* \"contracts/NFTMain.sol\":18478:18482  list */\n      0x4e37\n        /* \"contracts/NFTMain.sol\":18478:18492  list[_tokenId] */\n      0x20\n      mstore\n      0x40\n      swap1\n      keccak256\n        /* \"contracts/NFTMain.sol\":18478:18498  list[_tokenId].owner */\n      dup1\n      sload\n      0x01\n        /* \"contracts/NFTMain.sol\":18509:18529  list[_tokenId].price */\n      swap1\n      swap2\n      add\n      sload\n        /* \"contracts/NFTMain.sol\":18478:18498  list[_tokenId].owner */\n      0x0100\n      swap1\n      swap2\n      div\n      sub(shl(0xa0, 0x01), 0x01)\n      and\n      swap1\n        /* \"contracts/NFTMain.sol\":18470:18560  payable(list[_tokenId].owner).transfer(list[_tokenId].price.mul(amountAfterFee).div(1000)) */\n      0x08fc\n      swap1\n        /* \"contracts/NFTMain.sol\":18509:18559  list[_tokenId].price.mul(amountAfterFee).div(1000) */\n      tag_564\n      swap1\n        /* \"contracts/NFTMain.sol\":18554:18558  1000 */\n      0x03e8\n      swap1\n        /* \"contracts/NFTMain.sol\":18509:18549  list[_tokenId].price.mul(amountAfterFee) */\n      tag_528\n      swap1\n        /* \"contracts/NFTMain.sol\":18534:18548  amountAfterFee */\n      dup7\n        /* \"contracts/NFTMain.sol\":18509:18533  list[_tokenId].price.mul */\n      tag_320\n        /* \"contracts/NFTMain.sol\":18509:18549  list[_tokenId].price.mul(amountAfterFee) */\n      jump\t// in\n        /* \"contracts/NFTMain.sol\":18509:18559  list[_tokenId].price.mul(amountAfterFee).div(1000) */\n    tag_564:\n        /* \"contracts/NFTMain.sol\":18470:18560  payable(list[_tokenId].owner).transfer(list[_tokenId].price.mul(amountAfterFee).div(1000)) */\n      mload(0x40)\n      dup2\n      iszero\n      swap1\n      swap3\n      mul\n      swap2\n      0x00\n      dup2\n      dup2\n      dup2\n      dup6\n      dup9\n      dup9\n      call\n      swap4\n      pop\n      pop\n      pop\n      pop\n      iszero\n      dup1\n      iszero\n      tag_567\n      jumpi\n      returndatasize\n      0x00\n      dup1\n      returndatacopy\n      revert(0x00, returndatasize)\n    tag_567:\n      pop\n        /* \"contracts/NFTMain.sol\":18571:18603  _transfer( msg.sender, _tokenId) */\n      tag_532\n        /* \"contracts/NFTMain.sol\":18582:18592  msg.sender */\n      caller\n        /* \"contracts/NFTMain.sol\":18594:18602  _tokenId */\n      dup5\n        /* \"contracts/NFTMain.sol\":18571:18580  _transfer */\n      tag_356\n        /* \"contracts/NFTMain.sol\":18571:18603  _transfer( msg.sender, _tokenId) */\n      jump\t// in\n        /* \"contracts/NFTMain.sol\":1997:2139  function add(uint256 a, uint256 b) internal pure returns (uint256 c) {\r... */\n    tag_309:\n        /* \"contracts/NFTMain.sol\":2055:2064  uint256 c */\n      0x00\n        /* \"contracts/NFTMain.sol\":2081:2086  a + b */\n      tag_572\n        /* \"contracts/NFTMain.sol\":2085:2086  b */\n      dup3\n        /* \"contracts/NFTMain.sol\":2081:2082  a */\n      dup5\n        /* \"contracts/NFTMain.sol\":2081:2086  a + b */\n      tag_421\n      jump\t// in\n    tag_572:\n        /* \"contracts/NFTMain.sol\":2077:2086  c = a + b */\n      swap1\n      pop\n        /* \"contracts/NFTMain.sol\":2110:2111  a */\n      dup3\n        /* \"contracts/NFTMain.sol\":2105:2106  c */\n      dup2\n        /* \"contracts/NFTMain.sol\":2105:2111  c >= a */\n      lt\n      iszero\n        /* \"contracts/NFTMain.sol\":2097:2112  require(c >= a) */\n      tag_293\n      jumpi\n      0x00\n      dup1\n      revert\n        /* \"contracts/NFTMain.sol\":1863:1987  function sub(uint256 a, uint256 b) internal pure returns (uint256) {\r... */\n    tag_314:\n        /* \"contracts/NFTMain.sol\":1921:1928  uint256 */\n      0x00\n        /* \"contracts/NFTMain.sol\":1954:1955  a */\n      dup3\n        /* \"contracts/NFTMain.sol\":1949:1950  b */\n      dup3\n        /* \"contracts/NFTMain.sol\":1949:1955  b <= a */\n      gt\n      iszero\n        /* \"contracts/NFTMain.sol\":1941:1956  require(b <= a) */\n      tag_575\n      jumpi\n      0x00\n      dup1\n      revert\n    tag_575:\n        /* \"contracts/NFTMain.sol\":1974:1979  a - b */\n      tag_576\n        /* \"contracts/NFTMain.sol\":1978:1979  b */\n      dup3\n        /* \"contracts/NFTMain.sol\":1974:1975  a */\n      dup5\n        /* \"contracts/NFTMain.sol\":1974:1979  a - b */\n      tag_328\n      jump\t// in\n    tag_576:\n        /* \"contracts/NFTMain.sol\":1967:1979  return a - b */\n      swap4\n        /* \"contracts/NFTMain.sol\":1863:1987  function sub(uint256 a, uint256 b) internal pure returns (uint256) {\r... */\n      swap3\n      pop\n      pop\n      pop\n      jump\t// out\n        /* \"contracts/NFTMain.sol\":1546:1749  function mul(uint256 a, uint256 b) internal pure returns (uint256 c) {\r... */\n    tag_320:\n        /* \"contracts/NFTMain.sol\":1604:1613  uint256 c */\n      0x00\n        /* \"contracts/NFTMain.sol\":1630:1636  a == 0 */\n      dup3\n        /* \"contracts/NFTMain.sol\":1626:1673  if (a == 0) {\r... */\n      tag_578\n      jumpi\n      pop\n        /* \"contracts/NFTMain.sol\":1660:1661  0 */\n      0x00\n        /* \"contracts/NFTMain.sol\":1653:1661  return 0 */\n      jump(tag_293)\n        /* \"contracts/NFTMain.sol\":1626:1673  if (a == 0) {\r... */\n    tag_578:\n        /* \"contracts/NFTMain.sol\":1687:1692  a * b */\n      tag_579\n        /* \"contracts/NFTMain.sol\":1691:1692  b */\n      dup3\n        /* \"contracts/NFTMain.sol\":1687:1688  a */\n      dup5\n        /* \"contracts/NFTMain.sol\":1687:1692  a * b */\n      tag_580\n      jump\t// in\n    tag_579:\n        /* \"contracts/NFTMain.sol\":1683:1692  c = a * b */\n      swap1\n      pop\n        /* \"contracts/NFTMain.sol\":1720:1721  b */\n      dup2\n        /* \"contracts/NFTMain.sol\":1711:1716  c / a */\n      tag_581\n        /* \"contracts/NFTMain.sol\":1715:1716  a */\n      dup5\n        /* \"contracts/NFTMain.sol\":1683:1692  c = a * b */\n      dup4\n        /* \"contracts/NFTMain.sol\":1711:1716  c / a */\n      tag_582\n      jump\t// in\n    tag_581:\n        /* \"contracts/NFTMain.sol\":1711:1721  c / a == b */\n      eq\n        /* \"contracts/NFTMain.sol\":1703:1722  require(c / a == b) */\n      tag_293\n      jumpi\n      0x00\n      dup1\n      revert\n        /* \"@openzeppelin/contracts/token/ERC20/utils/SafeERC20.sol\":912:1153  function safeTransferFrom(... */\n    tag_321:\n        /* \"@openzeppelin/contracts/token/ERC20/utils/SafeERC20.sol\":1077:1145  abi.encodeWithSelector(token.transferFrom.selector, from, to, value) */\n      0x40\n      dup1\n      mload\n      sub(shl(0xa0, 0x01), 0x01)\n        /* \"#utility.yul\":8378:8393   */\n      dup6\n      dup2\n      and\n        /* \"@openzeppelin/contracts/token/ERC20/utils/SafeERC20.sol\":1077:1145  abi.encodeWithSelector(token.transferFrom.selector, from, to, value) */\n      0x24\n      dup4\n      add\n        /* \"#utility.yul\":8360:8394   */\n      mstore\n        /* \"#utility.yul\":8430:8445   */\n      dup5\n      and\n        /* \"#utility.yul\":8410:8428   */\n      0x44\n      dup3\n      add\n        /* \"#utility.yul\":8403:8446   */\n      mstore\n        /* \"#utility.yul\":8462:8480   */\n      0x64\n      dup1\n      dup3\n      add\n        /* \"#utility.yul\":8455:8489   */\n      dup5\n      swap1\n      mstore\n        /* \"@openzeppelin/contracts/token/ERC20/utils/SafeERC20.sol\":1077:1145  abi.encodeWithSelector(token.transferFrom.selector, from, to, value) */\n      dup3\n      mload\n      dup1\n      dup4\n      sub\n      swap1\n      swap2\n      add\n      dup2\n      mstore\n        /* \"#utility.yul\":8295:8313   */\n      0x84\n      swap1\n      swap2\n      add\n        /* \"@openzeppelin/contracts/token/ERC20/utils/SafeERC20.sol\":1077:1145  abi.encodeWithSelector(token.transferFrom.selector, from, to, value) */\n      swap1\n      swap2\n      mstore\n      0x20\n      dup2\n      add\n      dup1\n      mload\n      sub(shl(0xe0, 0x01), 0x01)\n      and\n      shl(0xe0, 0x23b872dd)\n      or\n      swap1\n      mstore\n        /* \"@openzeppelin/contracts/token/ERC20/utils/SafeERC20.sol\":1050:1146  _callOptionalReturn(token, abi.encodeWithSelector(token.transferFrom.selector, from, to, value)) */\n      tag_585\n      swap1\n        /* \"@openzeppelin/contracts/token/ERC20/utils/SafeERC20.sol\":1070:1075  token */\n      dup6\n      swap1\n        /* \"@openzeppelin/contracts/token/ERC20/utils/SafeERC20.sol\":1050:1069  _callOptionalReturn */\n      tag_588\n        /* \"@openzeppelin/contracts/token/ERC20/utils/SafeERC20.sol\":1050:1146  _callOptionalReturn(token, abi.encodeWithSelector(token.transferFrom.selector, from, to, value)) */\n      jump\t// in\n    tag_585:\n        /* \"@openzeppelin/contracts/token/ERC20/utils/SafeERC20.sol\":912:1153  function safeTransferFrom(... */\n      pop\n      pop\n      pop\n      pop\n      jump\t// out\n        /* \"contracts/NFTMain.sol\":10891:11277  function _mint(address _to) internal returns (uint) {\r... */\n    tag_330:\n        /* \"contracts/NFTMain.sol\":10937:10941  uint */\n      0x00\n      sub(shl(0xa0, 0x01), 0x01)\n        /* \"contracts/NFTMain.sol\":10962:10979  _to != address(0) */\n      dup3\n      and\n        /* \"contracts/NFTMain.sol\":10954:11003  require(_to != address(0), \"Cannot mint to 0x0.\") */\n      tag_590\n      jumpi\n      mload(0x40)\n      shl(0xe5, 0x461bcd)\n      dup2\n      mstore\n        /* \"#utility.yul\":19769:19771   */\n      0x20\n        /* \"contracts/NFTMain.sol\":10954:11003  require(_to != address(0), \"Cannot mint to 0x0.\") */\n      0x04\n      dup3\n      add\n        /* \"#utility.yul\":19751:19772   */\n      mstore\n        /* \"#utility.yul\":19808:19810   */\n      0x13\n        /* \"#utility.yul\":19788:19806   */\n      0x24\n      dup3\n      add\n        /* \"#utility.yul\":19781:19811   */\n      mstore\n      shl(0x69, 0x21b0b73737ba1036b4b73a103a3790183c1817)\n        /* \"#utility.yul\":19827:19845   */\n      0x44\n      dup3\n      add\n        /* \"#utility.yul\":19820:19869   */\n      mstore\n        /* \"#utility.yul\":19886:19904   */\n      0x64\n      add\n        /* \"contracts/NFTMain.sol\":10954:11003  require(_to != address(0), \"Cannot mint to 0x0.\") */\n      tag_268\n        /* \"#utility.yul\":19567:19910   */\n      jump\n        /* \"contracts/NFTMain.sol\":10954:11003  require(_to != address(0), \"Cannot mint to 0x0.\") */\n    tag_590:\n        /* \"contracts/NFTMain.sol\":2490:2495  20000 */\n      0x4e20\n        /* \"contracts/NFTMain.sol\":11022:11031  numTokens */\n      sload(0x09)\n        /* \"contracts/NFTMain.sol\":11022:11045  numTokens < TOKEN_LIMIT */\n      lt\n        /* \"contracts/NFTMain.sol\":11014:11070  require(numTokens < TOKEN_LIMIT, \"Token limit reached.\") */\n      tag_593\n      jumpi\n      mload(0x40)\n      shl(0xe5, 0x461bcd)\n      dup2\n      mstore\n        /* \"#utility.yul\":10642:10644   */\n      0x20\n        /* \"contracts/NFTMain.sol\":11014:11070  require(numTokens < TOKEN_LIMIT, \"Token limit reached.\") */\n      0x04\n      dup3\n      add\n        /* \"#utility.yul\":10624:10645   */\n      mstore\n        /* \"#utility.yul\":10681:10683   */\n      0x14\n        /* \"#utility.yul\":10661:10679   */\n      0x24\n      dup3\n      add\n        /* \"#utility.yul\":10654:10684   */\n      mstore\n      shl(0x61, 0x2a37b5b2b7103634b6b4ba103932b0b1b432b217)\n        /* \"#utility.yul\":10700:10718   */\n      0x44\n      dup3\n      add\n        /* \"#utility.yul\":10693:10743   */\n      mstore\n        /* \"#utility.yul\":10760:10778   */\n      0x64\n      add\n        /* \"contracts/NFTMain.sol\":11014:11070  require(numTokens < TOKEN_LIMIT, \"Token limit reached.\") */\n      tag_268\n        /* \"#utility.yul\":10440:10784   */\n      jump\n        /* \"contracts/NFTMain.sol\":11014:11070  require(numTokens < TOKEN_LIMIT, \"Token limit reached.\") */\n    tag_593:\n        /* \"contracts/NFTMain.sol\":11081:11088  uint id */\n      0x00\n        /* \"contracts/NFTMain.sol\":11091:11104  randomIndex() */\n      tag_596\n        /* \"contracts/NFTMain.sol\":11091:11102  randomIndex */\n      tag_597\n        /* \"contracts/NFTMain.sol\":11091:11104  randomIndex() */\n      jump\t// in\n    tag_596:\n        /* \"contracts/NFTMain.sol\":11081:11104  uint id = randomIndex() */\n      swap1\n      pop\n        /* \"contracts/NFTMain.sol\":11129:11138  numTokens */\n      sload(0x09)\n        /* \"contracts/NFTMain.sol\":11141:11142  1 */\n      0x01\n        /* \"contracts/NFTMain.sol\":11129:11142  numTokens + 1 */\n      tag_598\n      swap2\n      swap1\n      tag_421\n      jump\t// in\n    tag_598:\n        /* \"contracts/NFTMain.sol\":11117:11126  numTokens */\n      0x09\n        /* \"contracts/NFTMain.sol\":11117:11142  numTokens = numTokens + 1 */\n      sstore\n        /* \"contracts/NFTMain.sol\":11153:11173  _addNFToken(_to, id) */\n      tag_599\n        /* \"contracts/NFTMain.sol\":11165:11168  _to */\n      dup4\n        /* \"contracts/NFTMain.sol\":11170:11172  id */\n      dup3\n        /* \"contracts/NFTMain.sol\":11153:11164  _addNFToken */\n      tag_600\n        /* \"contracts/NFTMain.sol\":11153:11173  _addNFToken(_to, id) */\n      jump\t// in\n    tag_599:\n        /* \"contracts/NFTMain.sol\":11191:11204  Mint(id, _to) */\n      mload(0x40)\n      sub(shl(0xa0, 0x01), 0x01)\n      dup5\n      and\n      swap1\n        /* \"contracts/NFTMain.sol\":11196:11198  id */\n      dup3\n      swap1\n        /* \"contracts/NFTMain.sol\":11191:11204  Mint(id, _to) */\n      0xf3cea5493d790af0133817606f7350a91d7f154ea52eaa79d179d4d231e50102\n      swap1\n      0x00\n      swap1\n      log3\n        /* \"contracts/NFTMain.sol\":11220:11249  Transfer(address(0), _to, id) */\n      mload(0x40)\n        /* \"contracts/NFTMain.sol\":11246:11248  id */\n      dup2\n      swap1\n      sub(shl(0xa0, 0x01), 0x01)\n        /* \"contracts/NFTMain.sol\":11220:11249  Transfer(address(0), _to, id) */\n      dup6\n      and\n      swap1\n        /* \"contracts/NFTMain.sol\":11237:11238  0 */\n      0x00\n      swap1\n        /* \"contracts/NFTMain.sol\":11220:11249  Transfer(address(0), _to, id) */\n      0xddf252ad1be2c89b69c2b068fc378daa952ba7f163c4a11628f55a4df523b3ef\n      swap1\n        /* \"contracts/NFTMain.sol\":11237:11238  0 */\n      dup3\n      swap1\n        /* \"contracts/NFTMain.sol\":11220:11249  Transfer(address(0), _to, id) */\n      log4\n        /* \"contracts/NFTMain.sol\":11267:11269  id */\n      swap3\n        /* \"contracts/NFTMain.sol\":10891:11277  function _mint(address _to) internal returns (uint) {\r... */\n      swap2\n      pop\n      pop\n      jump\t// out\n        /* \"contracts/NFTMain.sol\":8076:8383  function _transfer(address _to, uint256 _tokenId) internal {\r... */\n    tag_356:\n        /* \"contracts/NFTMain.sol\":8146:8158  address from */\n      0x00\n        /* \"contracts/NFTMain.sol\":8161:8180  idToOwner[_tokenId] */\n      dup2\n      dup2\n      mstore\n        /* \"contracts/NFTMain.sol\":8161:8170  idToOwner */\n      0x02\n        /* \"contracts/NFTMain.sol\":8161:8180  idToOwner[_tokenId] */\n      0x20\n      mstore\n      0x40\n      swap1\n      keccak256\n      sload\n      sub(shl(0xa0, 0x01), 0x01)\n      and\n        /* \"contracts/NFTMain.sol\":8191:8215  _clearApproval(_tokenId) */\n      tag_602\n        /* \"contracts/NFTMain.sol\":8171:8179  _tokenId */\n      dup3\n        /* \"contracts/NFTMain.sol\":8191:8205  _clearApproval */\n      tag_603\n        /* \"contracts/NFTMain.sol\":8191:8215  _clearApproval(_tokenId) */\n      jump\t// in\n    tag_602:\n        /* \"contracts/NFTMain.sol\":18875:18907  listing(false, address(0), 0, 0) */\n      0x40\n      dup1\n      mload\n      0x80\n      dup2\n      add\n      dup3\n      mstore\n      0x00\n      dup1\n      dup3\n      mstore\n      0x20\n      dup1\n      dup4\n      add\n      dup3\n      dup2\n      mstore\n      dup4\n      dup6\n      add\n      dup4\n      dup2\n      mstore\n      0x60\n      dup6\n      add\n      dup5\n      dup2\n      mstore\n        /* \"contracts/NFTMain.sol\":18858:18872  list[_tokenId] */\n      dup9\n      dup6\n      mstore\n        /* \"contracts/NFTMain.sol\":18858:18862  list */\n      0x4e37\n        /* \"contracts/NFTMain.sol\":18858:18872  list[_tokenId] */\n      swap1\n      swap4\n      mstore\n      swap5\n      swap1\n      swap3\n      keccak256\n        /* \"contracts/NFTMain.sol\":18858:18907  list[_tokenId] = listing(false, address(0), 0, 0) */\n      swap3\n      mload\n      dup4\n      sload\n      swap3\n      mload\n      not(sub(shl(0xa8, 0x01), 0x01))\n      swap1\n      swap4\n      and\n      swap1\n      iszero\n      iszero\n      not(sub(shl(0xa8, 0x01), 0x0100))\n      and\n      or\n      0x0100\n      sub(shl(0xa0, 0x01), 0x01)\n      swap1\n      swap4\n      and\n      swap3\n      swap1\n      swap3\n      mul\n      swap2\n      swap1\n      swap2\n      or\n      dup3\n      sstore\n      swap2\n      mload\n      0x01\n      dup3\n      add\n      sstore\n      swap1\n      mload\n      0x02\n      swap1\n      swap2\n      add\n      sstore\n        /* \"contracts/NFTMain.sol\":8261:8291  _removeNFToken(from, _tokenId) */\n      tag_606\n        /* \"contracts/NFTMain.sol\":8276:8280  from */\n      dup2\n        /* \"contracts/NFTMain.sol\":8282:8290  _tokenId */\n      dup4\n        /* \"contracts/NFTMain.sol\":8261:8275  _removeNFToken */\n      tag_607\n        /* \"contracts/NFTMain.sol\":8261:8291  _removeNFToken(from, _tokenId) */\n      jump\t// in\n    tag_606:\n        /* \"contracts/NFTMain.sol\":8302:8328  _addNFToken(_to, _tokenId) */\n      tag_608\n        /* \"contracts/NFTMain.sol\":8314:8317  _to */\n      dup4\n        /* \"contracts/NFTMain.sol\":8319:8327  _tokenId */\n      dup4\n        /* \"contracts/NFTMain.sol\":8302:8313  _addNFToken */\n      tag_600\n        /* \"contracts/NFTMain.sol\":8302:8328  _addNFToken(_to, _tokenId) */\n      jump\t// in\n    tag_608:\n        /* \"contracts/NFTMain.sol\":8366:8374  _tokenId */\n      dup2\n        /* \"contracts/NFTMain.sol\":8361:8364  _to */\n      dup4\n      sub(shl(0xa0, 0x01), 0x01)\n        /* \"contracts/NFTMain.sol\":8346:8375  Transfer(from, _to, _tokenId) */\n      and\n        /* \"contracts/NFTMain.sol\":8355:8359  from */\n      dup3\n      sub(shl(0xa0, 0x01), 0x01)\n        /* \"contracts/NFTMain.sol\":8346:8375  Transfer(from, _to, _tokenId) */\n      and\n      0xddf252ad1be2c89b69c2b068fc378daa952ba7f163c4a11628f55a4df523b3ef\n      mload(0x40)\n      mload(0x40)\n      dup1\n      swap2\n      sub\n      swap1\n      log4\n        /* \"contracts/NFTMain.sol\":8135:8383  {\r... */\n      pop\n        /* \"contracts/NFTMain.sol\":8076:8383  function _transfer(address _to, uint256 _tokenId) internal {\r... */\n      pop\n      pop\n      jump\t// out\n        /* \"contracts/NFTMain.sol\":1757:1855  function div(uint256 a, uint256 b) internal pure returns (uint256) {\r... */\n    tag_376:\n        /* \"contracts/NFTMain.sol\":1815:1822  uint256 */\n      0x00\n        /* \"contracts/NFTMain.sol\":1842:1847  a / b */\n      tag_576\n        /* \"contracts/NFTMain.sol\":1846:1847  b */\n      dup3\n        /* \"contracts/NFTMain.sol\":1842:1843  a */\n      dup5\n        /* \"contracts/NFTMain.sol\":1842:1847  a / b */\n      tag_582\n      jump\t// in\n        /* \"contracts/NFTMain.sol\":12340:12892  function _safeTransferFrom(address _from,  address _to,  uint256 _tokenId,  bytes memory _data) private canTransfer(_tokenId) validNFToken(_tokenId) {\r... */\n    tag_404:\n        /* \"contracts/NFTMain.sol\":4077:4095  address tokenOwner */\n      0x00\n        /* \"contracts/NFTMain.sol\":4098:4117  idToOwner[_tokenId] */\n      dup3\n      dup2\n      mstore\n        /* \"contracts/NFTMain.sol\":4098:4107  idToOwner */\n      0x02\n        /* \"contracts/NFTMain.sol\":4098:4117  idToOwner[_tokenId] */\n      0x20\n      mstore\n      0x40\n      swap1\n      keccak256\n      sload\n        /* \"contracts/NFTMain.sol\":12456:12464  _tokenId */\n      dup3\n      swap1\n      sub(shl(0xa0, 0x01), 0x01)\n        /* \"contracts/NFTMain.sol\":4098:4117  idToOwner[_tokenId] */\n      and\n        /* \"contracts/NFTMain.sol\":4164:4174  msg.sender */\n      caller\n        /* \"contracts/NFTMain.sol\":4150:4174  tokenOwner == msg.sender */\n      dup2\n      eq\n      dup1\n        /* \"contracts/NFTMain.sol\":4150:4227  tokenOwner == msg.sender\r... */\n      tag_612\n      jumpi\n      pop\n        /* \"contracts/NFTMain.sol\":4191:4213  idToApproval[_tokenId] */\n      0x00\n      dup3\n      dup2\n      mstore\n        /* \"contracts/NFTMain.sol\":4191:4203  idToApproval */\n      0x03\n        /* \"contracts/NFTMain.sol\":4191:4213  idToApproval[_tokenId] */\n      0x20\n      mstore\n      0x40\n      swap1\n      keccak256\n      sload\n      sub(shl(0xa0, 0x01), 0x01)\n      and\n        /* \"contracts/NFTMain.sol\":4217:4227  msg.sender */\n      caller\n        /* \"contracts/NFTMain.sol\":4191:4227  idToApproval[_tokenId] == msg.sender */\n      eq\n        /* \"contracts/NFTMain.sol\":4150:4227  tokenOwner == msg.sender\r... */\n    tag_612:\n        /* \"contracts/NFTMain.sol\":4150:4284  tokenOwner == msg.sender\r... */\n      dup1\n      tag_613\n      jumpi\n      pop\n      sub(shl(0xa0, 0x01), 0x01)\n        /* \"contracts/NFTMain.sol\":4244:4272  ownerToOperators[tokenOwner] */\n      dup2\n      and\n      0x00\n      swap1\n      dup2\n      mstore\n        /* \"contracts/NFTMain.sol\":4244:4260  ownerToOperators */\n      0x04\n        /* \"contracts/NFTMain.sol\":4244:4272  ownerToOperators[tokenOwner] */\n      0x20\n      swap1\n      dup2\n      mstore\n      0x40\n      dup1\n      dup4\n      keccak256\n        /* \"contracts/NFTMain.sol\":4273:4283  msg.sender */\n      caller\n        /* \"contracts/NFTMain.sol\":4244:4284  ownerToOperators[tokenOwner][msg.sender] */\n      dup5\n      mstore\n      swap1\n      swap2\n      mstore\n      swap1\n      keccak256\n      sload\n      0xff\n      and\n        /* \"contracts/NFTMain.sol\":4150:4284  tokenOwner == msg.sender\r... */\n    tag_613:\n        /* \"contracts/NFTMain.sol\":4128:4315  require(\r... */\n      tag_614\n      jumpi\n      mload(0x40)\n      shl(0xe5, 0x461bcd)\n      dup2\n      mstore\n        /* \"#utility.yul\":14597:14599   */\n      0x20\n        /* \"contracts/NFTMain.sol\":4128:4315  require(\r... */\n      0x04\n      dup3\n      add\n        /* \"#utility.yul\":14579:14600   */\n      mstore\n        /* \"#utility.yul\":14636:14638   */\n      0x10\n        /* \"#utility.yul\":14616:14634   */\n      0x24\n      dup3\n      add\n        /* \"#utility.yul\":14609:14639   */\n      mstore\n      shl(0x81, 0x21b0b73737ba103a3930b739b332b917)\n        /* \"#utility.yul\":14655:14673   */\n      0x44\n      dup3\n      add\n        /* \"#utility.yul\":14648:14694   */\n      mstore\n        /* \"#utility.yul\":14711:14729   */\n      0x64\n      add\n        /* \"contracts/NFTMain.sol\":4128:4315  require(\r... */\n      tag_268\n        /* \"#utility.yul\":14395:14735   */\n      jump\n        /* \"contracts/NFTMain.sol\":4128:4315  require(\r... */\n    tag_614:\n        /* \"contracts/NFTMain.sol\":4433:4434  0 */\n      0x00\n        /* \"contracts/NFTMain.sol\":4402:4421  idToOwner[_tokenId] */\n      dup5\n      dup2\n      mstore\n        /* \"contracts/NFTMain.sol\":4402:4411  idToOwner */\n      0x02\n        /* \"contracts/NFTMain.sol\":4402:4421  idToOwner[_tokenId] */\n      0x20\n      mstore\n      0x40\n      swap1\n      keccak256\n      sload\n        /* \"contracts/NFTMain.sol\":12479:12487  _tokenId */\n      dup5\n      swap1\n      sub(shl(0xa0, 0x01), 0x01)\n        /* \"contracts/NFTMain.sol\":4402:4421  idToOwner[_tokenId] */\n      and\n        /* \"contracts/NFTMain.sol\":4394:4454  require(idToOwner[_tokenId] != address(0), \"Invalid token.\") */\n      tag_617\n      jumpi\n      mload(0x40)\n      shl(0xe5, 0x461bcd)\n      dup2\n      mstore\n      0x04\n      add\n      tag_268\n      swap1\n      tag_281\n      jump\t// in\n    tag_617:\n        /* \"contracts/NFTMain.sol\":12500:12518  address tokenOwner */\n      0x00\n        /* \"contracts/NFTMain.sol\":12521:12540  idToOwner[_tokenId] */\n      dup6\n      dup2\n      mstore\n        /* \"contracts/NFTMain.sol\":12521:12530  idToOwner */\n      0x02\n        /* \"contracts/NFTMain.sol\":12521:12540  idToOwner[_tokenId] */\n      0x20\n      mstore\n      0x40\n      swap1\n      keccak256\n      sload\n      sub(shl(0xa0, 0x01), 0x01)\n      swap1\n      dup2\n      and\n      swap1\n        /* \"contracts/NFTMain.sol\":12559:12578  tokenOwner == _from */\n      dup9\n      and\n      dup2\n      eq\n        /* \"contracts/NFTMain.sol\":12551:12599  require(tokenOwner == _from, \"Incorrect owner.\") */\n      tag_620\n      jumpi\n      mload(0x40)\n      shl(0xe5, 0x461bcd)\n      dup2\n      mstore\n        /* \"#utility.yul\":17477:17479   */\n      0x20\n        /* \"contracts/NFTMain.sol\":12551:12599  require(tokenOwner == _from, \"Incorrect owner.\") */\n      0x04\n      dup3\n      add\n        /* \"#utility.yul\":17459:17480   */\n      mstore\n        /* \"#utility.yul\":17516:17518   */\n      0x10\n        /* \"#utility.yul\":17496:17514   */\n      0x24\n      dup3\n      add\n        /* \"#utility.yul\":17489:17519   */\n      mstore\n      shl(0x81, 0x24b731b7b93932b1ba1037bbb732b917)\n        /* \"#utility.yul\":17535:17553   */\n      0x44\n      dup3\n      add\n        /* \"#utility.yul\":17528:17574   */\n      mstore\n        /* \"#utility.yul\":17591:17609   */\n      0x64\n      add\n        /* \"contracts/NFTMain.sol\":12551:12599  require(tokenOwner == _from, \"Incorrect owner.\") */\n      tag_268\n        /* \"#utility.yul\":17275:17615   */\n      jump\n        /* \"contracts/NFTMain.sol\":12551:12599  require(tokenOwner == _from, \"Incorrect owner.\") */\n    tag_620:\n      sub(shl(0xa0, 0x01), 0x01)\n        /* \"contracts/NFTMain.sol\":12618:12635  _to != address(0) */\n      dup8\n      and\n        /* \"contracts/NFTMain.sol\":12610:12636  require(_to != address(0)) */\n      tag_623\n      jumpi\n      0x00\n      dup1\n      revert\n    tag_623:\n        /* \"contracts/NFTMain.sol\":12649:12673  _transfer(_to, _tokenId) */\n      tag_624\n        /* \"contracts/NFTMain.sol\":12659:12662  _to */\n      dup8\n        /* \"contracts/NFTMain.sol\":12664:12672  _tokenId */\n      dup8\n        /* \"contracts/NFTMain.sol\":12649:12658  _transfer */\n      tag_356\n        /* \"contracts/NFTMain.sol\":12649:12673  _transfer(_to, _tokenId) */\n      jump\t// in\n    tag_624:\n        /* \"contracts/NFTMain.sol\":5545:5563  extcodesize(_addr) */\n      dup7\n      extcodesize\n        /* \"contracts/NFTMain.sol\":5614:5622  size > 0 */\n      iszero\n        /* \"contracts/NFTMain.sol\":12686:12885  if (isContract(_to)) {\r... */\n      tag_627\n      jumpi\n        /* \"contracts/NFTMain.sol\":12738:12815  ERC721TokenReceiver(_to).onERC721Received(msg.sender, _from, _tokenId, _data) */\n      mload(0x40)\n      shl(0xe1, 0x0a85bd01)\n      dup2\n      mstore\n        /* \"contracts/NFTMain.sol\":12722:12735  bytes4 retval */\n      0x00\n      swap1\n      sub(shl(0xa0, 0x01), 0x01)\n        /* \"contracts/NFTMain.sol\":12738:12779  ERC721TokenReceiver(_to).onERC721Received */\n      dup10\n      and\n      swap1\n      0x150b7a02\n      swap1\n        /* \"contracts/NFTMain.sol\":12738:12815  ERC721TokenReceiver(_to).onERC721Received(msg.sender, _from, _tokenId, _data) */\n      tag_628\n      swap1\n        /* \"contracts/NFTMain.sol\":12780:12790  msg.sender */\n      caller\n      swap1\n        /* \"contracts/NFTMain.sol\":12792:12797  _from */\n      dup14\n      swap1\n        /* \"contracts/NFTMain.sol\":12799:12807  _tokenId */\n      dup13\n      swap1\n        /* \"contracts/NFTMain.sol\":12809:12814  _data */\n      dup13\n      swap1\n        /* \"contracts/NFTMain.sol\":12738:12815  ERC721TokenReceiver(_to).onERC721Received(msg.sender, _from, _tokenId, _data) */\n      0x04\n      add\n      tag_629\n      jump\t// in\n    tag_628:\n      0x20\n      mload(0x40)\n      dup1\n      dup4\n      sub\n      dup2\n      0x00\n      dup8\n      dup1\n      extcodesize\n      iszero\n      dup1\n      iszero\n      tag_630\n      jumpi\n      0x00\n      dup1\n      revert\n    tag_630:\n      pop\n      gas\n      call\n      iszero\n      dup1\n      iszero\n      tag_632\n      jumpi\n      returndatasize\n      0x00\n      dup1\n      returndatacopy\n      revert(0x00, returndatasize)\n    tag_632:\n      pop\n      pop\n      pop\n      pop\n      mload(0x40)\n      returndatasize\n      not(0x1f)\n      0x1f\n      dup3\n      add\n      and\n      dup3\n      add\n      dup1\n      0x40\n      mstore\n      pop\n      dup2\n      add\n      swap1\n      tag_633\n      swap2\n      swap1\n      tag_634\n      jump\t// in\n    tag_633:\n        /* \"contracts/NFTMain.sol\":12722:12815  bytes4 retval = ERC721TokenReceiver(_to).onERC721Received(msg.sender, _from, _tokenId, _data) */\n      swap1\n      pop\n      not(sub(shl(0xe0, 0x01), 0x01))\n        /* \"contracts/NFTMain.sol\":12838:12872  retval == MAGIC_ON_ERC721_RECEIVED */\n      dup2\n      and\n      shl(0xe1, 0x0a85bd01)\n      eq\n        /* \"contracts/NFTMain.sol\":12830:12873  require(retval == MAGIC_ON_ERC721_RECEIVED) */\n      tag_635\n      jumpi\n      0x00\n      dup1\n      revert\n    tag_635:\n        /* \"contracts/NFTMain.sol\":12707:12885  {\r... */\n      pop\n        /* \"contracts/NFTMain.sol\":12686:12885  if (isContract(_to)) {\r... */\n    tag_627:\n        /* \"contracts/NFTMain.sol\":12489:12892  {\r... */\n      pop\n        /* \"contracts/NFTMain.sol\":4326:4327  _ */\n      pop\n        /* \"contracts/NFTMain.sol\":4066:4335  {\r... */\n      pop\n        /* \"contracts/NFTMain.sol\":12340:12892  function _safeTransferFrom(address _from,  address _to,  uint256 _tokenId,  bytes memory _data) private canTransfer(_tokenId) validNFToken(_tokenId) {\r... */\n      pop\n      pop\n      pop\n      pop\n      pop\n      jump\t// out\n        /* \"@openzeppelin/contracts/access/Ownable.sol\":2270:2457  function _transferOwnership(address newOwner) internal virtual {... */\n    tag_441:\n        /* \"@openzeppelin/contracts/access/Ownable.sol\":2343:2359  address oldOwner */\n      0x00\n        /* \"@openzeppelin/contracts/access/Ownable.sol\":2362:2368  _owner */\n      dup1\n      sload\n      sub(shl(0xa0, 0x01), 0x01)\n        /* \"@openzeppelin/contracts/access/Ownable.sol\":2378:2395  _owner = newOwner */\n      dup4\n      dup2\n      and\n      not(sub(shl(0xa0, 0x01), 0x01))\n      dup4\n      and\n      dup2\n      or\n      dup5\n      sstore\n        /* \"@openzeppelin/contracts/access/Ownable.sol\":2410:2450  OwnershipTransferred(oldOwner, newOwner) */\n      mload(0x40)\n        /* \"@openzeppelin/contracts/access/Ownable.sol\":2362:2368  _owner */\n      swap2\n      swap1\n      swap3\n      and\n      swap3\n      dup4\n      swap2\n        /* \"@openzeppelin/contracts/access/Ownable.sol\":2410:2450  OwnershipTransferred(oldOwner, newOwner) */\n      0x8be0079c531659141344cd1fd0a4f28419497f9722a3daafe3b4186f6b6457e0\n      swap2\n        /* \"@openzeppelin/contracts/access/Ownable.sol\":2343:2359  address oldOwner */\n      swap1\n        /* \"@openzeppelin/contracts/access/Ownable.sol\":2410:2450  OwnershipTransferred(oldOwner, newOwner) */\n      log3\n        /* \"@openzeppelin/contracts/access/Ownable.sol\":2333:2457  {... */\n      pop\n        /* \"@openzeppelin/contracts/access/Ownable.sol\":2270:2457  function _transferOwnership(address newOwner) internal virtual {... */\n      pop\n      jump\t// out\n        /* \"contracts/NFTMain.sol\":14078:14633  function toString(uint256 value) internal pure returns (string memory) {\r... */\n    tag_491:\n        /* \"contracts/NFTMain.sol\":14134:14147  string memory */\n      0x60\n        /* \"contracts/NFTMain.sol\":14164:14174  value == 0 */\n      dup2\n        /* \"contracts/NFTMain.sol\":14160:14213  if (value == 0) {\r... */\n      tag_639\n      jumpi\n      pop\n      pop\n        /* \"contracts/NFTMain.sol\":14191:14201  return \"0\" */\n      0x40\n      dup1\n      mload\n      dup1\n      dup3\n      add\n      swap1\n      swap2\n      mstore\n      0x01\n      dup2\n      mstore\n      shl(0xfc, 0x03)\n      0x20\n      dup3\n      add\n      mstore\n      swap1\n        /* \"contracts/NFTMain.sol\":14078:14633  function toString(uint256 value) internal pure returns (string memory) {\r... */\n      jump\t// out\n        /* \"contracts/NFTMain.sol\":14160:14213  if (value == 0) {\r... */\n    tag_639:\n        /* \"contracts/NFTMain.sol\":14238:14243  value */\n      dup2\n        /* \"contracts/NFTMain.sol\":14223:14235  uint256 temp */\n      0x00\n        /* \"contracts/NFTMain.sol\":14279:14357  while (temp != 0) {\r... */\n    tag_640:\n        /* \"contracts/NFTMain.sol\":14286:14295  temp != 0 */\n      dup2\n      iszero\n        /* \"contracts/NFTMain.sol\":14279:14357  while (temp != 0) {\r... */\n      tag_641\n      jumpi\n        /* \"contracts/NFTMain.sol\":14312:14320  digits++ */\n      dup1\n      tag_642\n      dup2\n      tag_326\n      jump\t// in\n    tag_642:\n      swap2\n      pop\n        /* \"contracts/NFTMain.sol\":14335:14345  temp /= 10 */\n      tag_643\n      swap1\n      pop\n        /* \"contracts/NFTMain.sol\":14343:14345  10 */\n      0x0a\n        /* \"contracts/NFTMain.sol\":14335:14345  temp /= 10 */\n      dup4\n      tag_582\n      jump\t// in\n    tag_643:\n      swap2\n      pop\n        /* \"contracts/NFTMain.sol\":14279:14357  while (temp != 0) {\r... */\n      jump(tag_640)\n    tag_641:\n        /* \"contracts/NFTMain.sol\":14367:14386  bytes memory buffer */\n      0x00\n        /* \"contracts/NFTMain.sol\":14399:14405  digits */\n      dup2\n        /* \"contracts/NFTMain.sol\":14389:14406  new bytes(digits) */\n      0xffffffffffffffff\n      dup2\n      gt\n      iszero\n      tag_645\n      jumpi\n      tag_645\n      tag_646\n      jump\t// in\n    tag_645:\n      mload(0x40)\n      swap1\n      dup1\n      dup3\n      mstore\n      dup1\n      0x1f\n      add\n      not(0x1f)\n      and\n      0x20\n      add\n      dup3\n      add\n      0x40\n      mstore\n      dup1\n      iszero\n      tag_647\n      jumpi\n      0x20\n      dup3\n      add\n      dup2\n      dup1\n      calldatasize\n      dup4\n      calldatacopy\n      add\n      swap1\n      pop\n    tag_647:\n      pop\n        /* \"contracts/NFTMain.sol\":14367:14406  bytes memory buffer = new bytes(digits) */\n      swap1\n      pop\n        /* \"contracts/NFTMain.sol\":14417:14430  uint256 index */\n      0x00\n        /* \"contracts/NFTMain.sol\":14433:14443  digits - 1 */\n      tag_648\n        /* \"contracts/NFTMain.sol\":14442:14443  1 */\n      0x01\n        /* \"contracts/NFTMain.sol\":14433:14439  digits */\n      dup5\n        /* \"contracts/NFTMain.sol\":14433:14443  digits - 1 */\n      tag_328\n      jump\t// in\n    tag_648:\n        /* \"contracts/NFTMain.sol\":14417:14443  uint256 index = digits - 1 */\n      swap1\n      pop\n        /* \"contracts/NFTMain.sol\":14461:14466  value */\n      dup6\n        /* \"contracts/NFTMain.sol\":14454:14466  temp = value */\n      swap4\n      pop\n        /* \"contracts/NFTMain.sol\":14477:14594  while (temp != 0) {\r... */\n    tag_649:\n        /* \"contracts/NFTMain.sol\":14484:14493  temp != 0 */\n      dup4\n      iszero\n        /* \"contracts/NFTMain.sol\":14477:14594  while (temp != 0) {\r... */\n      tag_650\n      jumpi\n        /* \"contracts/NFTMain.sol\":14546:14555  temp % 10 */\n      tag_651\n        /* \"contracts/NFTMain.sol\":14553:14555  10 */\n      0x0a\n        /* \"contracts/NFTMain.sol\":14546:14550  temp */\n      dup6\n        /* \"contracts/NFTMain.sol\":14546:14555  temp % 10 */\n      tag_652\n      jump\t// in\n    tag_651:\n        /* \"contracts/NFTMain.sol\":14541:14555  48 + temp % 10 */\n      tag_653\n      swap1\n        /* \"contracts/NFTMain.sol\":14541:14543  48 */\n      0x30\n        /* \"contracts/NFTMain.sol\":14541:14555  48 + temp % 10 */\n      tag_421\n      jump\t// in\n    tag_653:\n        /* \"contracts/NFTMain.sol\":14528:14557  bytes1(uint8(48 + temp % 10)) */\n      0xf8\n      shl\n        /* \"contracts/NFTMain.sol\":14510:14516  buffer */\n      dup3\n        /* \"contracts/NFTMain.sol\":14517:14524  index-- */\n      dup3\n      tag_654\n      dup2\n      tag_655\n      jump\t// in\n    tag_654:\n      swap4\n      pop\n        /* \"contracts/NFTMain.sol\":14510:14525  buffer[index--] */\n      dup2\n      mload\n      dup2\n      lt\n      tag_657\n      jumpi\n      tag_657\n      tag_393\n      jump\t// in\n    tag_657:\n      0x20\n      add\n      add\n        /* \"contracts/NFTMain.sol\":14510:14557  buffer[index--] = bytes1(uint8(48 + temp % 10)) */\n      swap1\n      not(sub(shl(0xf8, 0x01), 0x01))\n      and\n      swap1\n      dup2\n      0x00\n      byte\n      swap1\n      mstore8\n      pop\n        /* \"contracts/NFTMain.sol\":14572:14582  temp /= 10 */\n      tag_658\n        /* \"contracts/NFTMain.sol\":14580:14582  10 */\n      0x0a\n        /* \"contracts/NFTMain.sol\":14572:14582  temp /= 10 */\n      dup6\n      tag_582\n      jump\t// in\n    tag_658:\n      swap4\n      pop\n        /* \"contracts/NFTMain.sol\":14477:14594  while (temp != 0) {\r... */\n      jump(tag_649)\n    tag_650:\n      pop\n        /* \"contracts/NFTMain.sol\":14618:14624  buffer */\n      swap5\n        /* \"contracts/NFTMain.sol\":14078:14633  function toString(uint256 value) internal pure returns (string memory) {\r... */\n      swap4\n      pop\n      pop\n      pop\n      pop\n      jump\t// out\n        /* \"@openzeppelin/contracts/token/ERC20/utils/SafeERC20.sol\":3207:3913  function _callOptionalReturn(IERC20 token, bytes memory data) private {... */\n    tag_588:\n        /* \"@openzeppelin/contracts/token/ERC20/utils/SafeERC20.sol\":3626:3649  bytes memory returndata */\n      0x00\n        /* \"@openzeppelin/contracts/token/ERC20/utils/SafeERC20.sol\":3652:3721  address(token).functionCall(data, \"SafeERC20: low-level call failed\") */\n      tag_660\n        /* \"@openzeppelin/contracts/token/ERC20/utils/SafeERC20.sol\":3680:3684  data */\n      dup3\n        /* \"@openzeppelin/contracts/token/ERC20/utils/SafeERC20.sol\":3652:3721  address(token).functionCall(data, \"SafeERC20: low-level call failed\") */\n      mload(0x40)\n      dup1\n      0x40\n      add\n      0x40\n      mstore\n      dup1\n      0x20\n      dup2\n      mstore\n      0x20\n      add\n      0x5361666545524332303a206c6f772d6c6576656c2063616c6c206661696c6564\n      dup2\n      mstore\n      pop\n        /* \"@openzeppelin/contracts/token/ERC20/utils/SafeERC20.sol\":3660:3665  token */\n      dup6\n      sub(shl(0xa0, 0x01), 0x01)\n        /* \"@openzeppelin/contracts/token/ERC20/utils/SafeERC20.sol\":3652:3679  address(token).functionCall */\n      and\n      tag_661\n      swap1\n        /* \"@openzeppelin/contracts/token/ERC20/utils/SafeERC20.sol\":3652:3721  address(token).functionCall(data, \"SafeERC20: low-level call failed\") */\n      swap3\n      swap2\n      swap1\n      0xffffffff\n      and\n      jump\t// in\n    tag_660:\n        /* \"@openzeppelin/contracts/token/ERC20/utils/SafeERC20.sol\":3735:3752  returndata.length */\n      dup1\n      mload\n        /* \"@openzeppelin/contracts/token/ERC20/utils/SafeERC20.sol\":3626:3721  bytes memory returndata = address(token).functionCall(data, \"SafeERC20: low-level call failed\") */\n      swap1\n      swap2\n      pop\n        /* \"@openzeppelin/contracts/token/ERC20/utils/SafeERC20.sol\":3735:3756  returndata.length > 0 */\n      iszero\n        /* \"@openzeppelin/contracts/token/ERC20/utils/SafeERC20.sol\":3731:3907  if (returndata.length > 0) {... */\n      tag_403\n      jumpi\n        /* \"@openzeppelin/contracts/token/ERC20/utils/SafeERC20.sol\":3830:3840  returndata */\n      dup1\n        /* \"@openzeppelin/contracts/token/ERC20/utils/SafeERC20.sol\":3819:3849  abi.decode(returndata, (bool)) */\n      dup1\n      0x20\n      add\n      swap1\n      mload\n      dup2\n      add\n      swap1\n      tag_663\n      swap2\n      swap1\n      tag_664\n      jump\t// in\n    tag_663:\n        /* \"@openzeppelin/contracts/token/ERC20/utils/SafeERC20.sol\":3811:3896  require(abi.decode(returndata, (bool)), \"SafeERC20: ERC20 operation did not succeed\") */\n      tag_403\n      jumpi\n      mload(0x40)\n      shl(0xe5, 0x461bcd)\n      dup2\n      mstore\n        /* \"#utility.yul\":20117:20119   */\n      0x20\n        /* \"@openzeppelin/contracts/token/ERC20/utils/SafeERC20.sol\":3811:3896  require(abi.decode(returndata, (bool)), \"SafeERC20: ERC20 operation did not succeed\") */\n      0x04\n      dup3\n      add\n        /* \"#utility.yul\":20099:20120   */\n      mstore\n        /* \"#utility.yul\":20156:20158   */\n      0x2a\n        /* \"#utility.yul\":20136:20154   */\n      0x24\n      dup3\n      add\n        /* \"#utility.yul\":20129:20159   */\n      mstore\n        /* \"#utility.yul\":20195:20229   */\n      0x5361666545524332303a204552433230206f7065726174696f6e20646964206e\n        /* \"#utility.yul\":20175:20193   */\n      0x44\n      dup3\n      add\n        /* \"#utility.yul\":20168:20230   */\n      mstore\n      shl(0xb2, 0x1bdd081cdd58d8d95959)\n        /* \"#utility.yul\":20246:20264   */\n      0x64\n      dup3\n      add\n        /* \"#utility.yul\":20239:20279   */\n      mstore\n        /* \"#utility.yul\":20296:20315   */\n      0x84\n      add\n        /* \"@openzeppelin/contracts/token/ERC20/utils/SafeERC20.sol\":3811:3896  require(abi.decode(returndata, (bool)), \"SafeERC20: ERC20 operation did not succeed\") */\n      tag_268\n        /* \"#utility.yul\":19915:20321   */\n      jump\n        /* \"contracts/NFTMain.sol\":8391:9225  function randomIndex() internal returns (uint) {\r... */\n    tag_597:\n        /* \"contracts/NFTMain.sol\":8432:8436  uint */\n      0x00\n        /* \"contracts/NFTMain.sol\":8449:8463  uint totalSize */\n      dup1\n        /* \"contracts/NFTMain.sol\":8480:8489  numTokens */\n      sload(0x09)\n        /* \"contracts/NFTMain.sol\":2490:2495  20000 */\n      0x4e20\n        /* \"contracts/NFTMain.sol\":8466:8489  TOKEN_LIMIT - numTokens */\n      tag_669\n      swap2\n      swap1\n      tag_328\n      jump\t// in\n    tag_669:\n        /* \"contracts/NFTMain.sol\":8545:8550  nonce */\n      sload(0x15)\n        /* \"contracts/NFTMain.sol\":8528:8598  abi.encodePacked(nonce, msg.sender, block.difficulty, block.timestamp) */\n      0x40\n      dup1\n      mload\n      0x20\n      dup2\n      add\n        /* \"#utility.yul\":7386:7405   */\n      swap3\n      swap1\n      swap3\n      mstore\n      not(0xffffffffffffffffffffffff)\n        /* \"contracts/NFTMain.sol\":8552:8562  msg.sender */\n      caller\n        /* \"#utility.yul\":7443:7445   */\n      0x60\n        /* \"#utility.yul\":7439:7454   */\n      shl\n        /* \"#utility.yul\":7435:7488   */\n      and\n        /* \"#utility.yul\":7421:7433   */\n      swap1\n      dup3\n      add\n        /* \"#utility.yul\":7414:7489   */\n      mstore\n        /* \"contracts/NFTMain.sol\":8564:8580  block.difficulty */\n      difficulty\n        /* \"#utility.yul\":7505:7517   */\n      0x54\n      dup3\n      add\n        /* \"#utility.yul\":7498:7526   */\n      mstore\n        /* \"contracts/NFTMain.sol\":8582:8597  block.timestamp */\n      timestamp\n        /* \"#utility.yul\":7542:7554   */\n      0x74\n      dup3\n      add\n        /* \"#utility.yul\":7535:7563   */\n      mstore\n        /* \"contracts/NFTMain.sol\":8449:8489  uint totalSize = TOKEN_LIMIT - numTokens */\n      swap1\n      swap2\n      pop\n        /* \"contracts/NFTMain.sol\":8500:8510  uint index */\n      0x00\n      swap1\n        /* \"contracts/NFTMain.sol\":8449:8489  uint totalSize = TOKEN_LIMIT - numTokens */\n      dup3\n      swap1\n        /* \"#utility.yul\":7579:7592   */\n      0x94\n      add\n        /* \"contracts/NFTMain.sol\":8528:8598  abi.encodePacked(nonce, msg.sender, block.difficulty, block.timestamp) */\n      mload(0x40)\n      0x20\n      dup2\n      dup4\n      sub\n      sub\n      dup2\n      mstore\n      swap1\n      0x40\n      mstore\n        /* \"contracts/NFTMain.sol\":8518:8599  keccak256(abi.encodePacked(nonce, msg.sender, block.difficulty, block.timestamp)) */\n      dup1\n      mload\n      swap1\n      0x20\n      add\n      keccak256\n        /* \"contracts/NFTMain.sol\":8513:8600  uint(keccak256(abi.encodePacked(nonce, msg.sender, block.difficulty, block.timestamp))) */\n      0x00\n      shr\n        /* \"contracts/NFTMain.sol\":8513:8612  uint(keccak256(abi.encodePacked(nonce, msg.sender, block.difficulty, block.timestamp))) % totalSize */\n      tag_672\n      swap2\n      swap1\n      tag_652\n      jump\t// in\n    tag_672:\n        /* \"contracts/NFTMain.sol\":8500:8612  uint index = uint(keccak256(abi.encodePacked(nonce, msg.sender, block.difficulty, block.timestamp))) % totalSize */\n      swap1\n      pop\n        /* \"contracts/NFTMain.sol\":8623:8633  uint value */\n      0x00\n        /* \"contracts/NFTMain.sol\":8652:8659  indices */\n      0x16\n        /* \"contracts/NFTMain.sol\":8660:8665  index */\n      dup3\n        /* \"contracts/NFTMain.sol\":8652:8666  indices[index] */\n      0x4e20\n      dup2\n      lt\n      tag_674\n      jumpi\n      tag_674\n      tag_393\n      jump\t// in\n    tag_674:\n      add\n      sload\n        /* \"contracts/NFTMain.sol\":8652:8671  indices[index] != 0 */\n      iszero\n        /* \"contracts/NFTMain.sol\":8648:8768  if (indices[index] != 0) {\r... */\n      tag_676\n      jumpi\n        /* \"contracts/NFTMain.sol\":8696:8703  indices */\n      0x16\n        /* \"contracts/NFTMain.sol\":8704:8709  index */\n      dup3\n        /* \"contracts/NFTMain.sol\":8696:8710  indices[index] */\n      0x4e20\n      dup2\n      lt\n      tag_678\n      jumpi\n      tag_678\n      tag_393\n      jump\t// in\n    tag_678:\n      add\n      sload\n        /* \"contracts/NFTMain.sol\":8688:8710  value = indices[index] */\n      swap1\n      pop\n        /* \"contracts/NFTMain.sol\":8648:8768  if (indices[index] != 0) {\r... */\n      jump(tag_680)\n    tag_676:\n      pop\n        /* \"contracts/NFTMain.sol\":8751:8756  index */\n      dup1\n        /* \"contracts/NFTMain.sol\":8648:8768  if (indices[index] != 0) {\r... */\n    tag_680:\n        /* \"contracts/NFTMain.sol\":8833:8840  indices */\n      0x16\n        /* \"contracts/NFTMain.sol\":8841:8854  totalSize - 1 */\n      tag_681\n        /* \"contracts/NFTMain.sol\":8853:8854  1 */\n      0x01\n        /* \"contracts/NFTMain.sol\":8841:8850  totalSize */\n      dup6\n        /* \"contracts/NFTMain.sol\":8841:8854  totalSize - 1 */\n      tag_328\n      jump\t// in\n    tag_681:\n        /* \"contracts/NFTMain.sol\":8833:8855  indices[totalSize - 1] */\n      0x4e20\n      dup2\n      lt\n      tag_683\n      jumpi\n      tag_683\n      tag_393\n      jump\t// in\n    tag_683:\n      add\n      sload\n        /* \"contracts/NFTMain.sol\":8829:9112  if (indices[totalSize - 1] == 0) {\r... */\n      tag_685\n      jumpi\n        /* \"contracts/NFTMain.sol\":8958:8971  totalSize - 1 */\n      tag_686\n        /* \"contracts/NFTMain.sol\":8970:8971  1 */\n      0x01\n        /* \"contracts/NFTMain.sol\":8958:8967  totalSize */\n      dup5\n        /* \"contracts/NFTMain.sol\":8958:8971  totalSize - 1 */\n      tag_328\n      jump\t// in\n    tag_686:\n        /* \"contracts/NFTMain.sol\":8941:8948  indices */\n      0x16\n        /* \"contracts/NFTMain.sol\":8949:8954  index */\n      dup4\n        /* \"contracts/NFTMain.sol\":8941:8955  indices[index] */\n      0x4e20\n      dup2\n      lt\n      tag_688\n      jumpi\n      tag_688\n      tag_393\n      jump\t// in\n    tag_688:\n      add\n        /* \"contracts/NFTMain.sol\":8941:8971  indices[index] = totalSize - 1 */\n      sstore\n        /* \"contracts/NFTMain.sol\":8829:9112  if (indices[totalSize - 1] == 0) {\r... */\n      jump(tag_690)\n    tag_685:\n        /* \"contracts/NFTMain.sol\":9078:9085  indices */\n      0x16\n        /* \"contracts/NFTMain.sol\":9086:9099  totalSize - 1 */\n      tag_691\n        /* \"contracts/NFTMain.sol\":9098:9099  1 */\n      0x01\n        /* \"contracts/NFTMain.sol\":9086:9095  totalSize */\n      dup6\n        /* \"contracts/NFTMain.sol\":9086:9099  totalSize - 1 */\n      tag_328\n      jump\t// in\n    tag_691:\n        /* \"contracts/NFTMain.sol\":9078:9100  indices[totalSize - 1] */\n      0x4e20\n      dup2\n      lt\n      tag_693\n      jumpi\n      tag_693\n      tag_393\n      jump\t// in\n    tag_693:\n      add\n      sload\n        /* \"contracts/NFTMain.sol\":9061:9068  indices */\n      0x16\n        /* \"contracts/NFTMain.sol\":9069:9074  index */\n      dup4\n        /* \"contracts/NFTMain.sol\":9061:9075  indices[index] */\n      0x4e20\n      dup2\n      lt\n      tag_696\n      jumpi\n      tag_696\n      tag_393\n      jump\t// in\n    tag_696:\n      add\n        /* \"contracts/NFTMain.sol\":9061:9100  indices[index] = indices[totalSize - 1] */\n      sstore\n        /* \"contracts/NFTMain.sol\":8829:9112  if (indices[totalSize - 1] == 0) {\r... */\n    tag_690:\n        /* \"contracts/NFTMain.sol\":9122:9127  nonce */\n      0x15\n        /* \"contracts/NFTMain.sol\":9122:9129  nonce++ */\n      dup1\n      sload\n      swap1\n        /* \"contracts/NFTMain.sol\":9122:9127  nonce */\n      0x00\n        /* \"contracts/NFTMain.sol\":9122:9129  nonce++ */\n      tag_698\n      dup4\n      tag_326\n      jump\t// in\n    tag_698:\n      swap1\n      swap2\n      sstore\n      pop\n        /* \"contracts/NFTMain.sol\":9205:9217  value.add(1) */\n      tag_699\n      swap1\n      pop\n        /* \"contracts/NFTMain.sol\":9205:9210  value */\n      dup2\n        /* \"contracts/NFTMain.sol\":9215:9216  1 */\n      0x01\n        /* \"contracts/NFTMain.sol\":9205:9214  value.add */\n      tag_309\n        /* \"contracts/NFTMain.sol\":9205:9217  value.add(1) */\n      jump\t// in\n    tag_699:\n        /* \"contracts/NFTMain.sol\":9198:9217  return value.add(1) */\n      swap4\n      pop\n      pop\n      pop\n      pop\n        /* \"contracts/NFTMain.sol\":8391:9225  function randomIndex() internal returns (uint) {\r... */\n      swap1\n      jump\t// out\n        /* \"contracts/NFTMain.sol\":11285:11583  function _addNFToken(address _to, uint256 _tokenId) internal {\r... */\n    tag_600:\n        /* \"contracts/NFTMain.sol\":11396:11397  0 */\n      0x00\n        /* \"contracts/NFTMain.sol\":11365:11384  idToOwner[_tokenId] */\n      dup2\n      dup2\n      mstore\n        /* \"contracts/NFTMain.sol\":11365:11374  idToOwner */\n      0x02\n        /* \"contracts/NFTMain.sol\":11365:11384  idToOwner[_tokenId] */\n      0x20\n      mstore\n      0x40\n      swap1\n      keccak256\n      sload\n      sub(shl(0xa0, 0x01), 0x01)\n      and\n        /* \"contracts/NFTMain.sol\":11365:11398  idToOwner[_tokenId] == address(0) */\n      iszero\n        /* \"contracts/NFTMain.sol\":11357:11429  require(idToOwner[_tokenId] == address(0), \"Cannot add, already owned.\") */\n      tag_701\n      jumpi\n      mload(0x40)\n      shl(0xe5, 0x461bcd)\n      dup2\n      mstore\n        /* \"#utility.yul\":13491:13493   */\n      0x20\n        /* \"contracts/NFTMain.sol\":11357:11429  require(idToOwner[_tokenId] == address(0), \"Cannot add, already owned.\") */\n      0x04\n      dup3\n      add\n        /* \"#utility.yul\":13473:13494   */\n      mstore\n        /* \"#utility.yul\":13530:13532   */\n      0x1a\n        /* \"#utility.yul\":13510:13528   */\n      0x24\n      dup3\n      add\n        /* \"#utility.yul\":13503:13533   */\n      mstore\n        /* \"#utility.yul\":13569:13597   */\n      0x43616e6e6f74206164642c20616c7265616479206f776e65642e000000000000\n        /* \"#utility.yul\":13549:13567   */\n      0x44\n      dup3\n      add\n        /* \"#utility.yul\":13542:13598   */\n      mstore\n        /* \"#utility.yul\":13615:13633   */\n      0x64\n      add\n        /* \"contracts/NFTMain.sol\":11357:11429  require(idToOwner[_tokenId] == address(0), \"Cannot add, already owned.\") */\n      tag_268\n        /* \"#utility.yul\":13289:13639   */\n      jump\n        /* \"contracts/NFTMain.sol\":11357:11429  require(idToOwner[_tokenId] == address(0), \"Cannot add, already owned.\") */\n    tag_701:\n        /* \"contracts/NFTMain.sol\":11440:11459  idToOwner[_tokenId] */\n      0x00\n      dup2\n      dup2\n      mstore\n        /* \"contracts/NFTMain.sol\":11440:11449  idToOwner */\n      0x02\n        /* \"contracts/NFTMain.sol\":11440:11459  idToOwner[_tokenId] */\n      0x20\n      swap1\n      dup2\n      mstore\n      0x40\n      dup1\n      dup4\n      keccak256\n        /* \"contracts/NFTMain.sol\":11440:11465  idToOwner[_tokenId] = _to */\n      dup1\n      sload\n      not(sub(shl(0xa0, 0x01), 0x01))\n      and\n      sub(shl(0xa0, 0x01), 0x01)\n      dup8\n      and\n      swap1\n      dup2\n      or\n      swap1\n      swap2\n      sstore\n        /* \"contracts/NFTMain.sol\":11478:11493  ownerToIds[_to] */\n      dup1\n      dup5\n      mstore\n        /* \"contracts/NFTMain.sol\":11478:11488  ownerToIds */\n      0x05\n        /* \"contracts/NFTMain.sol\":11478:11493  ownerToIds[_to] */\n      dup4\n      mstore\n      swap1\n      dup4\n      keccak256\n        /* \"contracts/NFTMain.sol\":11478:11508  ownerToIds[_to].push(_tokenId) */\n      dup1\n      sload\n      0x01\n      dup2\n      dup2\n      add\n      dup4\n      sstore\n      dup3\n      dup7\n      mstore\n      swap4\n      dup6\n      keccak256\n      add\n      dup6\n      swap1\n      sstore\n        /* \"contracts/NFTMain.sol\":11546:11561  ownerToIds[_to] */\n      swap3\n      mstore\n        /* \"contracts/NFTMain.sol\":11546:11568  ownerToIds[_to].length */\n      swap1\n      sload\n        /* \"contracts/NFTMain.sol\":11546:11575  ownerToIds[_to].length.sub(1) */\n      tag_705\n      swap2\n        /* \"contracts/NFTMain.sol\":11546:11572  ownerToIds[_to].length.sub */\n      tag_314\n        /* \"contracts/NFTMain.sol\":11546:11575  ownerToIds[_to].length.sub(1) */\n      jump\t// in\n    tag_705:\n        /* \"contracts/NFTMain.sol\":11519:11543  idToOwnerIndex[_tokenId] */\n      0x00\n      swap2\n      dup3\n      mstore\n        /* \"contracts/NFTMain.sol\":11519:11533  idToOwnerIndex */\n      0x06\n        /* \"contracts/NFTMain.sol\":11519:11543  idToOwnerIndex[_tokenId] */\n      0x20\n      mstore\n      0x40\n      swap1\n      swap2\n      keccak256\n        /* \"contracts/NFTMain.sol\":11519:11575  idToOwnerIndex[_tokenId] = ownerToIds[_to].length.sub(1) */\n      sstore\n      pop\n        /* \"contracts/NFTMain.sol\":11285:11583  function _addNFToken(address _to, uint256 _tokenId) internal {\r... */\n      jump\t// out\n        /* \"contracts/NFTMain.sol\":13438:13604  function _clearApproval(uint256 _tokenId) private {\r... */\n    tag_603:\n        /* \"contracts/NFTMain.sol\":13537:13538  0 */\n      0x00\n        /* \"contracts/NFTMain.sol\":13503:13525  idToApproval[_tokenId] */\n      dup2\n      dup2\n      mstore\n        /* \"contracts/NFTMain.sol\":13503:13515  idToApproval */\n      0x03\n        /* \"contracts/NFTMain.sol\":13503:13525  idToApproval[_tokenId] */\n      0x20\n      mstore\n      0x40\n      swap1\n      keccak256\n      sload\n      sub(shl(0xa0, 0x01), 0x01)\n      and\n        /* \"contracts/NFTMain.sol\":13503:13539  idToApproval[_tokenId] != address(0) */\n      iszero\n        /* \"contracts/NFTMain.sol\":13499:13597  if (idToApproval[_tokenId] != address(0)) {\r... */\n      tag_544\n      jumpi\n        /* \"contracts/NFTMain.sol\":13563:13585  idToApproval[_tokenId] */\n      0x00\n      swap1\n      dup2\n      mstore\n        /* \"contracts/NFTMain.sol\":13563:13575  idToApproval */\n      0x03\n        /* \"contracts/NFTMain.sol\":13563:13585  idToApproval[_tokenId] */\n      0x20\n      mstore\n      0x40\n      swap1\n      keccak256\n        /* \"contracts/NFTMain.sol\":13556:13585  delete idToApproval[_tokenId] */\n      dup1\n      sload\n      not(sub(shl(0xa0, 0x01), 0x01))\n      and\n      swap1\n      sstore\n        /* \"contracts/NFTMain.sol\":13438:13604  function _clearApproval(uint256 _tokenId) private {\r... */\n      jump\t// out\n        /* \"contracts/NFTMain.sol\":11591:12198  function _removeNFToken(address _from, uint256 _tokenId) internal {\r... */\n    tag_607:\n        /* \"contracts/NFTMain.sol\":11676:11695  idToOwner[_tokenId] */\n      0x00\n      dup2\n      dup2\n      mstore\n        /* \"contracts/NFTMain.sol\":11676:11685  idToOwner */\n      0x02\n        /* \"contracts/NFTMain.sol\":11676:11695  idToOwner[_tokenId] */\n      0x20\n      mstore\n      0x40\n      swap1\n      keccak256\n      sload\n      sub(shl(0xa0, 0x01), 0x01)\n        /* \"contracts/NFTMain.sol\":11676:11704  idToOwner[_tokenId] == _from */\n      dup4\n      dup2\n      and\n        /* \"contracts/NFTMain.sol\":11676:11695  idToOwner[_tokenId] */\n      swap2\n      and\n        /* \"contracts/NFTMain.sol\":11676:11704  idToOwner[_tokenId] == _from */\n      eq\n        /* \"contracts/NFTMain.sol\":11668:11725  require(idToOwner[_tokenId] == _from, \"Incorrect owner.\") */\n      tag_710\n      jumpi\n      mload(0x40)\n      shl(0xe5, 0x461bcd)\n      dup2\n      mstore\n        /* \"#utility.yul\":17477:17479   */\n      0x20\n        /* \"contracts/NFTMain.sol\":11668:11725  require(idToOwner[_tokenId] == _from, \"Incorrect owner.\") */\n      0x04\n      dup3\n      add\n        /* \"#utility.yul\":17459:17480   */\n      mstore\n        /* \"#utility.yul\":17516:17518   */\n      0x10\n        /* \"#utility.yul\":17496:17514   */\n      0x24\n      dup3\n      add\n        /* \"#utility.yul\":17489:17519   */\n      mstore\n      shl(0x81, 0x24b731b7b93932b1ba1037bbb732b917)\n        /* \"#utility.yul\":17535:17553   */\n      0x44\n      dup3\n      add\n        /* \"#utility.yul\":17528:17574   */\n      mstore\n        /* \"#utility.yul\":17591:17609   */\n      0x64\n      add\n        /* \"contracts/NFTMain.sol\":11668:11725  require(idToOwner[_tokenId] == _from, \"Incorrect owner.\") */\n      tag_268\n        /* \"#utility.yul\":17275:17615   */\n      jump\n        /* \"contracts/NFTMain.sol\":11668:11725  require(idToOwner[_tokenId] == _from, \"Incorrect owner.\") */\n    tag_710:\n        /* \"contracts/NFTMain.sol\":11743:11762  idToOwner[_tokenId] */\n      0x00\n      dup2\n      dup2\n      mstore\n        /* \"contracts/NFTMain.sol\":11743:11752  idToOwner */\n      0x02\n        /* \"contracts/NFTMain.sol\":11743:11762  idToOwner[_tokenId] */\n      0x20\n      swap1\n      dup2\n      mstore\n      0x40\n      dup1\n      dup4\n      keccak256\n        /* \"contracts/NFTMain.sol\":11736:11762  delete idToOwner[_tokenId] */\n      dup1\n      sload\n      not(sub(shl(0xa0, 0x01), 0x01))\n      and\n      swap1\n      sstore\n        /* \"contracts/NFTMain.sol\":11804:11818  idToOwnerIndex */\n      0x06\n        /* \"contracts/NFTMain.sol\":11804:11828  idToOwnerIndex[_tokenId] */\n      dup3\n      mstore\n      dup1\n      dup4\n      keccak256\n      sload\n      sub(shl(0xa0, 0x01), 0x01)\n        /* \"contracts/NFTMain.sol\":11864:11881  ownerToIds[_from] */\n      dup7\n      and\n      dup5\n      mstore\n        /* \"contracts/NFTMain.sol\":11864:11874  ownerToIds */\n      0x05\n        /* \"contracts/NFTMain.sol\":11864:11881  ownerToIds[_from] */\n      swap1\n      swap3\n      mstore\n      dup3\n      keccak256\n        /* \"contracts/NFTMain.sol\":11864:11888  ownerToIds[_from].length */\n      sload\n        /* \"contracts/NFTMain.sol\":11804:11828  idToOwnerIndex[_tokenId] */\n      swap1\n      swap2\n        /* \"contracts/NFTMain.sol\":11743:11762  idToOwner[_tokenId] */\n      swap1\n        /* \"contracts/NFTMain.sol\":11864:11895  ownerToIds[_from].length.sub(1) */\n      tag_712\n      swap1\n        /* \"contracts/NFTMain.sol\":11736:11762  delete idToOwner[_tokenId] */\n      0x01\n        /* \"contracts/NFTMain.sol\":11864:11892  ownerToIds[_from].length.sub */\n      tag_314\n        /* \"contracts/NFTMain.sol\":11864:11895  ownerToIds[_from].length.sub(1) */\n      jump\t// in\n    tag_712:\n        /* \"contracts/NFTMain.sol\":11839:11895  uint256 lastTokenIndex = ownerToIds[_from].length.sub(1) */\n      swap1\n      pop\n        /* \"contracts/NFTMain.sol\":11930:11948  tokenToRemoveIndex */\n      dup2\n        /* \"contracts/NFTMain.sol\":11912:11926  lastTokenIndex */\n      dup2\n        /* \"contracts/NFTMain.sol\":11912:11948  lastTokenIndex != tokenToRemoveIndex */\n      eq\n        /* \"contracts/NFTMain.sol\":11908:12155  if (lastTokenIndex != tokenToRemoveIndex) {\r... */\n      tag_713\n      jumpi\n      sub(shl(0xa0, 0x01), 0x01)\n        /* \"contracts/NFTMain.sol\":11985:12002  ownerToIds[_from] */\n      dup5\n      and\n        /* \"contracts/NFTMain.sol\":11965:11982  uint256 lastToken */\n      0x00\n        /* \"contracts/NFTMain.sol\":11985:12002  ownerToIds[_from] */\n      swap1\n      dup2\n      mstore\n        /* \"contracts/NFTMain.sol\":11985:11995  ownerToIds */\n      0x05\n        /* \"contracts/NFTMain.sol\":11985:12002  ownerToIds[_from] */\n      0x20\n      mstore\n      0x40\n      dup2\n      keccak256\n        /* \"contracts/NFTMain.sol\":11985:12018  ownerToIds[_from][lastTokenIndex] */\n      dup1\n      sload\n        /* \"contracts/NFTMain.sol\":12003:12017  lastTokenIndex */\n      dup4\n      swap1\n        /* \"contracts/NFTMain.sol\":11985:12018  ownerToIds[_from][lastTokenIndex] */\n      dup2\n      lt\n      tag_715\n      jumpi\n      tag_715\n      tag_393\n      jump\t// in\n    tag_715:\n      swap1\n      0x00\n      mstore\n      keccak256(0x00, 0x20)\n      add\n      sload\n        /* \"contracts/NFTMain.sol\":11965:12018  uint256 lastToken = ownerToIds[_from][lastTokenIndex] */\n      swap1\n      pop\n        /* \"contracts/NFTMain.sol\":12073:12082  lastToken */\n      dup1\n        /* \"contracts/NFTMain.sol\":12033:12043  ownerToIds */\n      0x05\n        /* \"contracts/NFTMain.sol\":12033:12050  ownerToIds[_from] */\n      0x00\n        /* \"contracts/NFTMain.sol\":12044:12049  _from */\n      dup8\n      sub(shl(0xa0, 0x01), 0x01)\n        /* \"contracts/NFTMain.sol\":12033:12050  ownerToIds[_from] */\n      and\n      sub(shl(0xa0, 0x01), 0x01)\n      and\n      dup2\n      mstore\n      0x20\n      add\n      swap1\n      dup2\n      mstore\n      0x20\n      add\n      0x00\n      keccak256\n        /* \"contracts/NFTMain.sol\":12051:12069  tokenToRemoveIndex */\n      dup5\n        /* \"contracts/NFTMain.sol\":12033:12070  ownerToIds[_from][tokenToRemoveIndex] */\n      dup2\n      sload\n      dup2\n      lt\n      tag_718\n      jumpi\n      tag_718\n      tag_393\n      jump\t// in\n    tag_718:\n      0x00\n      swap2\n      dup3\n      mstore\n      0x20\n      dup1\n      dup4\n      keccak256\n      swap1\n      swap2\n      add\n        /* \"contracts/NFTMain.sol\":12033:12082  ownerToIds[_from][tokenToRemoveIndex] = lastToken */\n      swap3\n      swap1\n      swap3\n      sstore\n        /* \"contracts/NFTMain.sol\":12097:12122  idToOwnerIndex[lastToken] */\n      swap2\n      dup3\n      mstore\n        /* \"contracts/NFTMain.sol\":12097:12111  idToOwnerIndex */\n      0x06\n        /* \"contracts/NFTMain.sol\":12097:12122  idToOwnerIndex[lastToken] */\n      swap1\n      mstore\n      0x40\n      swap1\n      keccak256\n        /* \"contracts/NFTMain.sol\":12097:12143  idToOwnerIndex[lastToken] = tokenToRemoveIndex */\n      dup3\n      swap1\n      sstore\n        /* \"contracts/NFTMain.sol\":11908:12155  if (lastTokenIndex != tokenToRemoveIndex) {\r... */\n    tag_713:\n      sub(shl(0xa0, 0x01), 0x01)\n        /* \"contracts/NFTMain.sol\":12167:12184  ownerToIds[_from] */\n      dup5\n      and\n      0x00\n      swap1\n      dup2\n      mstore\n        /* \"contracts/NFTMain.sol\":12167:12177  ownerToIds */\n      0x05\n        /* \"contracts/NFTMain.sol\":12167:12184  ownerToIds[_from] */\n      0x20\n      mstore\n      0x40\n      swap1\n      keccak256\n        /* \"contracts/NFTMain.sol\":12167:12190  ownerToIds[_from].pop() */\n      dup1\n      sload\n      dup1\n      tag_721\n      jumpi\n      tag_721\n      tag_722\n      jump\t// in\n    tag_721:\n      0x01\n      swap1\n      sub\n      dup2\n      dup2\n      swap1\n      0x00\n      mstore\n      keccak256(0x00, 0x20)\n      add\n      0x00\n      swap1\n      sstore\n      swap1\n      sstore\n        /* \"contracts/NFTMain.sol\":11657:12198  {\r... */\n      pop\n      pop\n        /* \"contracts/NFTMain.sol\":11591:12198  function _removeNFToken(address _from, uint256 _tokenId) internal {\r... */\n      pop\n      pop\n      jump\t// out\n        /* \"@openzeppelin/contracts/utils/Address.sol\":3861:4084  function functionCall(... */\n    tag_661:\n        /* \"@openzeppelin/contracts/utils/Address.sol\":3994:4006  bytes memory */\n      0x60\n        /* \"@openzeppelin/contracts/utils/Address.sol\":4025:4077  functionCallWithValue(target, data, 0, errorMessage) */\n      tag_726\n        /* \"@openzeppelin/contracts/utils/Address.sol\":4047:4053  target */\n      dup5\n        /* \"@openzeppelin/contracts/utils/Address.sol\":4055:4059  data */\n      dup5\n        /* \"@openzeppelin/contracts/utils/Address.sol\":4061:4062  0 */\n      0x00\n        /* \"@openzeppelin/contracts/utils/Address.sol\":4064:4076  errorMessage */\n      dup6\n        /* \"@openzeppelin/contracts/utils/Address.sol\":4025:4046  functionCallWithValue */\n      tag_727\n        /* \"@openzeppelin/contracts/utils/Address.sol\":4025:4077  functionCallWithValue(target, data, 0, errorMessage) */\n      jump\t// in\n    tag_726:\n        /* \"@openzeppelin/contracts/utils/Address.sol\":4018:4077  return functionCallWithValue(target, data, 0, errorMessage) */\n      swap5\n        /* \"@openzeppelin/contracts/utils/Address.sol\":3861:4084  function functionCall(... */\n      swap4\n      pop\n      pop\n      pop\n      pop\n      jump\t// out\n        /* \"@openzeppelin/contracts/utils/Address.sol\":4948:5447  function functionCallWithValue(... */\n    tag_727:\n        /* \"@openzeppelin/contracts/utils/Address.sol\":5113:5125  bytes memory */\n      0x60\n        /* \"@openzeppelin/contracts/utils/Address.sol\":5170:5175  value */\n      dup3\n        /* \"@openzeppelin/contracts/utils/Address.sol\":5145:5166  address(this).balance */\n      selfbalance\n        /* \"@openzeppelin/contracts/utils/Address.sol\":5145:5175  address(this).balance >= value */\n      lt\n      iszero\n        /* \"@openzeppelin/contracts/utils/Address.sol\":5137:5218  require(address(this).balance >= value, \"Address: insufficient balance for call\") */\n      tag_729\n      jumpi\n      mload(0x40)\n      shl(0xe5, 0x461bcd)\n      dup2\n      mstore\n        /* \"#utility.yul\":13846:13848   */\n      0x20\n        /* \"@openzeppelin/contracts/utils/Address.sol\":5137:5218  require(address(this).balance >= value, \"Address: insufficient balance for call\") */\n      0x04\n      dup3\n      add\n        /* \"#utility.yul\":13828:13849   */\n      mstore\n        /* \"#utility.yul\":13885:13887   */\n      0x26\n        /* \"#utility.yul\":13865:13883   */\n      0x24\n      dup3\n      add\n        /* \"#utility.yul\":13858:13888   */\n      mstore\n        /* \"#utility.yul\":13924:13958   */\n      0x416464726573733a20696e73756666696369656e742062616c616e636520666f\n        /* \"#utility.yul\":13904:13922   */\n      0x44\n      dup3\n      add\n        /* \"#utility.yul\":13897:13959   */\n      mstore\n      shl(0xd2, 0x1c8818d85b1b)\n        /* \"#utility.yul\":13975:13993   */\n      0x64\n      dup3\n      add\n        /* \"#utility.yul\":13968:14004   */\n      mstore\n        /* \"#utility.yul\":14021:14040   */\n      0x84\n      add\n        /* \"@openzeppelin/contracts/utils/Address.sol\":5137:5218  require(address(this).balance >= value, \"Address: insufficient balance for call\") */\n      tag_268\n        /* \"#utility.yul\":13644:14046   */\n      jump\n        /* \"@openzeppelin/contracts/utils/Address.sol\":5137:5218  require(address(this).balance >= value, \"Address: insufficient balance for call\") */\n    tag_729:\n      sub(shl(0xa0, 0x01), 0x01)\n        /* \"@openzeppelin/contracts/utils/Address.sol\":1465:1484  account.code.length */\n      dup6\n      and\n      extcodesize\n        /* \"@openzeppelin/contracts/utils/Address.sol\":5228:5288  require(isContract(target), \"Address: call to non-contract\") */\n      tag_734\n      jumpi\n      mload(0x40)\n      shl(0xe5, 0x461bcd)\n      dup2\n      mstore\n        /* \"#utility.yul\":18638:18640   */\n      0x20\n        /* \"@openzeppelin/contracts/utils/Address.sol\":5228:5288  require(isContract(target), \"Address: call to non-contract\") */\n      0x04\n      dup3\n      add\n        /* \"#utility.yul\":18620:18641   */\n      mstore\n        /* \"#utility.yul\":18677:18679   */\n      0x1d\n        /* \"#utility.yul\":18657:18675   */\n      0x24\n      dup3\n      add\n        /* \"#utility.yul\":18650:18680   */\n      mstore\n        /* \"#utility.yul\":18716:18747   */\n      0x416464726573733a2063616c6c20746f206e6f6e2d636f6e7472616374000000\n        /* \"#utility.yul\":18696:18714   */\n      0x44\n      dup3\n      add\n        /* \"#utility.yul\":18689:18748   */\n      mstore\n        /* \"#utility.yul\":18765:18783   */\n      0x64\n      add\n        /* \"@openzeppelin/contracts/utils/Address.sol\":5228:5288  require(isContract(target), \"Address: call to non-contract\") */\n      tag_268\n        /* \"#utility.yul\":18436:18789   */\n      jump\n        /* \"@openzeppelin/contracts/utils/Address.sol\":5228:5288  require(isContract(target), \"Address: call to non-contract\") */\n    tag_734:\n        /* \"@openzeppelin/contracts/utils/Address.sol\":5300:5312  bool success */\n      0x00\n        /* \"@openzeppelin/contracts/utils/Address.sol\":5314:5337  bytes memory returndata */\n      dup1\n        /* \"@openzeppelin/contracts/utils/Address.sol\":5341:5347  target */\n      dup7\n      sub(shl(0xa0, 0x01), 0x01)\n        /* \"@openzeppelin/contracts/utils/Address.sol\":5341:5352  target.call */\n      and\n        /* \"@openzeppelin/contracts/utils/Address.sol\":5360:5365  value */\n      dup6\n        /* \"@openzeppelin/contracts/utils/Address.sol\":5367:5371  data */\n      dup8\n        /* \"@openzeppelin/contracts/utils/Address.sol\":5341:5372  target.call{value: value}(data) */\n      mload(0x40)\n      tag_737\n      swap2\n      swap1\n      tag_738\n      jump\t// in\n    tag_737:\n      0x00\n      mload(0x40)\n      dup1\n      dup4\n      sub\n      dup2\n      dup6\n      dup8\n      gas\n      call\n      swap3\n      pop\n      pop\n      pop\n      returndatasize\n      dup1\n      0x00\n      dup2\n      eq\n      tag_741\n      jumpi\n      mload(0x40)\n      swap2\n      pop\n      and(add(returndatasize, 0x3f), not(0x1f))\n      dup3\n      add\n      0x40\n      mstore\n      returndatasize\n      dup3\n      mstore\n      returndatasize\n      0x00\n      0x20\n      dup5\n      add\n      returndatacopy\n      jump(tag_740)\n    tag_741:\n      0x60\n      swap2\n      pop\n    tag_740:\n      pop\n        /* \"@openzeppelin/contracts/utils/Address.sol\":5299:5372  (bool success, bytes memory returndata) = target.call{value: value}(data) */\n      swap2\n      pop\n      swap2\n      pop\n        /* \"@openzeppelin/contracts/utils/Address.sol\":5389:5440  verifyCallResult(success, returndata, errorMessage) */\n      tag_742\n        /* \"@openzeppelin/contracts/utils/Address.sol\":5406:5413  success */\n      dup3\n        /* \"@openzeppelin/contracts/utils/Address.sol\":5415:5425  returndata */\n      dup3\n        /* \"@openzeppelin/contracts/utils/Address.sol\":5427:5439  errorMessage */\n      dup7\n        /* \"@openzeppelin/contracts/utils/Address.sol\":5389:5405  verifyCallResult */\n      tag_743\n        /* \"@openzeppelin/contracts/utils/Address.sol\":5389:5440  verifyCallResult(success, returndata, errorMessage) */\n      jump\t// in\n    tag_742:\n        /* \"@openzeppelin/contracts/utils/Address.sol\":5382:5440  return verifyCallResult(success, returndata, errorMessage) */\n      swap8\n        /* \"@openzeppelin/contracts/utils/Address.sol\":4948:5447  function functionCallWithValue(... */\n      swap7\n      pop\n      pop\n      pop\n      pop\n      pop\n      pop\n      pop\n      jump\t// out\n        /* \"@openzeppelin/contracts/utils/Address.sol\":7561:8253  function verifyCallResult(... */\n    tag_743:\n        /* \"@openzeppelin/contracts/utils/Address.sol\":7707:7719  bytes memory */\n      0x60\n        /* \"@openzeppelin/contracts/utils/Address.sol\":7735:7742  success */\n      dup4\n        /* \"@openzeppelin/contracts/utils/Address.sol\":7731:8247  if (success) {... */\n      iszero\n      tag_746\n      jumpi\n      pop\n        /* \"@openzeppelin/contracts/utils/Address.sol\":7765:7775  returndata */\n      dup2\n        /* \"@openzeppelin/contracts/utils/Address.sol\":7758:7775  return returndata */\n      jump(tag_576)\n        /* \"@openzeppelin/contracts/utils/Address.sol\":7731:8247  if (success) {... */\n    tag_746:\n        /* \"@openzeppelin/contracts/utils/Address.sol\":7876:7893  returndata.length */\n      dup3\n      mload\n        /* \"@openzeppelin/contracts/utils/Address.sol\":7876:7897  returndata.length > 0 */\n      iszero\n        /* \"@openzeppelin/contracts/utils/Address.sol\":7872:8237  if (returndata.length > 0) {... */\n      tag_748\n      jumpi\n        /* \"@openzeppelin/contracts/utils/Address.sol\":8070:8080  returndata */\n      dup3\n        /* \"@openzeppelin/contracts/utils/Address.sol\":8064:8081  mload(returndata) */\n      mload\n        /* \"@openzeppelin/contracts/utils/Address.sol\":8130:8145  returndata_size */\n      dup1\n        /* \"@openzeppelin/contracts/utils/Address.sol\":8117:8127  returndata */\n      dup5\n        /* \"@openzeppelin/contracts/utils/Address.sol\":8113:8115  32 */\n      0x20\n        /* \"@openzeppelin/contracts/utils/Address.sol\":8109:8128  add(32, returndata) */\n      add\n        /* \"@openzeppelin/contracts/utils/Address.sol\":8102:8146  revert(add(32, returndata), returndata_size) */\n      revert\n        /* \"@openzeppelin/contracts/utils/Address.sol\":7872:8237  if (returndata.length > 0) {... */\n    tag_748:\n        /* \"@openzeppelin/contracts/utils/Address.sol\":8209:8221  errorMessage */\n      dup2\n        /* \"@openzeppelin/contracts/utils/Address.sol\":8202:8222  revert(errorMessage) */\n      mload(0x40)\n      shl(0xe5, 0x461bcd)\n      dup2\n      mstore\n      0x04\n      add\n      tag_268\n      swap2\n      swap1\n      tag_76\n      jump\t// in\n    tag_461:\n      dup3\n      dup1\n      sload\n      tag_751\n      swap1\n      tag_273\n      jump\t// in\n    tag_751:\n      swap1\n      0x00\n      mstore\n      keccak256(0x00, 0x20)\n      swap1\n      0x1f\n      add\n      0x20\n      swap1\n      div\n      dup2\n      add\n      swap3\n      dup3\n      tag_753\n      jumpi\n      0x00\n      dup6\n      sstore\n      jump(tag_756)\n    tag_753:\n      dup3\n      0x1f\n      lt\n      tag_754\n      jumpi\n      dup1\n      mload\n      not(0xff)\n      and\n      dup4\n      dup1\n      add\n      or\n      dup6\n      sstore\n      jump(tag_756)\n    tag_754:\n      dup3\n      dup1\n      add\n      0x01\n      add\n      dup6\n      sstore\n      dup3\n      iszero\n      tag_756\n      jumpi\n      swap2\n      dup3\n      add\n    tag_755:\n      dup3\n      dup2\n      gt\n      iszero\n      tag_756\n      jumpi\n      dup3\n      mload\n      dup3\n      sstore\n      swap2\n      0x20\n      add\n      swap2\n      swap1\n      0x01\n      add\n      swap1\n      jump(tag_755)\n    tag_756:\n      pop\n      tag_757\n      swap3\n      swap2\n      pop\n      tag_758\n      jump\t// in\n    tag_757:\n      pop\n      swap1\n      jump\t// out\n    tag_758:\n    tag_759:\n      dup1\n      dup3\n      gt\n      iszero\n      tag_757\n      jumpi\n      0x00\n      dup2\n      sstore\n      0x01\n      add\n      jump(tag_759)\n        /* \"#utility.yul\":14:187   */\n    tag_762:\n        /* \"#utility.yul\":82:102   */\n      dup1\n      calldataload\n      sub(shl(0xa0, 0x01), 0x01)\n        /* \"#utility.yul\":131:162   */\n      dup2\n      and\n        /* \"#utility.yul\":121:163   */\n      dup2\n      eq\n        /* \"#utility.yul\":111:181   */\n      tag_764\n      jumpi\n        /* \"#utility.yul\":177:178   */\n      0x00\n        /* \"#utility.yul\":174:175   */\n      dup1\n        /* \"#utility.yul\":167:179   */\n      revert\n        /* \"#utility.yul\":111:181   */\n    tag_764:\n        /* \"#utility.yul\":14:187   */\n      swap2\n      swap1\n      pop\n      jump\t// out\n        /* \"#utility.yul\":192:378   */\n    tag_167:\n        /* \"#utility.yul\":251:257   */\n      0x00\n        /* \"#utility.yul\":304:306   */\n      0x20\n        /* \"#utility.yul\":292:301   */\n      dup3\n        /* \"#utility.yul\":283:290   */\n      dup5\n        /* \"#utility.yul\":279:302   */\n      sub\n        /* \"#utility.yul\":275:307   */\n      slt\n        /* \"#utility.yul\":272:324   */\n      iszero\n      tag_766\n      jumpi\n        /* \"#utility.yul\":320:321   */\n      0x00\n        /* \"#utility.yul\":317:318   */\n      dup1\n        /* \"#utility.yul\":310:322   */\n      revert\n        /* \"#utility.yul\":272:324   */\n    tag_766:\n        /* \"#utility.yul\":343:372   */\n      tag_576\n        /* \"#utility.yul\":362:371   */\n      dup3\n        /* \"#utility.yul\":343:372   */\n      tag_762\n      jump\t// in\n        /* \"#utility.yul\":383:643   */\n    tag_240:\n        /* \"#utility.yul\":451:457   */\n      0x00\n        /* \"#utility.yul\":459:465   */\n      dup1\n        /* \"#utility.yul\":512:514   */\n      0x40\n        /* \"#utility.yul\":500:509   */\n      dup4\n        /* \"#utility.yul\":491:498   */\n      dup6\n        /* \"#utility.yul\":487:510   */\n      sub\n        /* \"#utility.yul\":483:515   */\n      slt\n        /* \"#utility.yul\":480:532   */\n      iszero\n      tag_769\n      jumpi\n        /* \"#utility.yul\":528:529   */\n      0x00\n        /* \"#utility.yul\":525:526   */\n      dup1\n        /* \"#utility.yul\":518:530   */\n      revert\n        /* \"#utility.yul\":480:532   */\n    tag_769:\n        /* \"#utility.yul\":551:580   */\n      tag_770\n        /* \"#utility.yul\":570:579   */\n      dup4\n        /* \"#utility.yul\":551:580   */\n      tag_762\n      jump\t// in\n    tag_770:\n        /* \"#utility.yul\":541:580   */\n      swap2\n      pop\n        /* \"#utility.yul\":599:637   */\n      tag_771\n        /* \"#utility.yul\":633:635   */\n      0x20\n        /* \"#utility.yul\":622:631   */\n      dup5\n        /* \"#utility.yul\":618:636   */\n      add\n        /* \"#utility.yul\":599:637   */\n      tag_762\n      jump\t// in\n    tag_771:\n        /* \"#utility.yul\":589:637   */\n      swap1\n      pop\n        /* \"#utility.yul\":383:643   */\n      swap3\n      pop\n      swap3\n      swap1\n      pop\n      jump\t// out\n        /* \"#utility.yul\":648:976   */\n    tag_113:\n        /* \"#utility.yul\":725:731   */\n      0x00\n        /* \"#utility.yul\":733:739   */\n      dup1\n        /* \"#utility.yul\":741:747   */\n      0x00\n        /* \"#utility.yul\":794:796   */\n      0x60\n        /* \"#utility.yul\":782:791   */\n      dup5\n        /* \"#utility.yul\":773:780   */\n      dup7\n        /* \"#utility.yul\":769:792   */\n      sub\n        /* \"#utility.yul\":765:797   */\n      slt\n        /* \"#utility.yul\":762:814   */\n      iszero\n      tag_773\n      jumpi\n        /* \"#utility.yul\":810:811   */\n      0x00\n        /* \"#utility.yul\":807:808   */\n      dup1\n        /* \"#utility.yul\":800:812   */\n      revert\n        /* \"#utility.yul\":762:814   */\n    tag_773:\n        /* \"#utility.yul\":833:862   */\n      tag_774\n        /* \"#utility.yul\":852:861   */\n      dup5\n        /* \"#utility.yul\":833:862   */\n      tag_762\n      jump\t// in\n    tag_774:\n        /* \"#utility.yul\":823:862   */\n      swap3\n      pop\n        /* \"#utility.yul\":881:919   */\n      tag_775\n        /* \"#utility.yul\":915:917   */\n      0x20\n        /* \"#utility.yul\":904:913   */\n      dup6\n        /* \"#utility.yul\":900:918   */\n      add\n        /* \"#utility.yul\":881:919   */\n      tag_762\n      jump\t// in\n    tag_775:\n        /* \"#utility.yul\":871:919   */\n      swap2\n      pop\n        /* \"#utility.yul\":966:968   */\n      0x40\n        /* \"#utility.yul\":955:964   */\n      dup5\n        /* \"#utility.yul\":951:969   */\n      add\n        /* \"#utility.yul\":938:970   */\n      calldataload\n        /* \"#utility.yul\":928:970   */\n      swap1\n      pop\n        /* \"#utility.yul\":648:976   */\n      swap3\n      pop\n      swap3\n      pop\n      swap3\n      jump\t// out\n        /* \"#utility.yul\":981:1789   */\n    tag_212:\n        /* \"#utility.yul\":1078:1084   */\n      0x00\n        /* \"#utility.yul\":1086:1092   */\n      dup1\n        /* \"#utility.yul\":1094:1100   */\n      0x00\n        /* \"#utility.yul\":1102:1108   */\n      dup1\n        /* \"#utility.yul\":1110:1116   */\n      0x00\n        /* \"#utility.yul\":1163:1166   */\n      0x80\n        /* \"#utility.yul\":1151:1160   */\n      dup7\n        /* \"#utility.yul\":1142:1149   */\n      dup9\n        /* \"#utility.yul\":1138:1161   */\n      sub\n        /* \"#utility.yul\":1134:1167   */\n      slt\n        /* \"#utility.yul\":1131:1184   */\n      iszero\n      tag_777\n      jumpi\n        /* \"#utility.yul\":1180:1181   */\n      0x00\n        /* \"#utility.yul\":1177:1178   */\n      dup1\n        /* \"#utility.yul\":1170:1182   */\n      revert\n        /* \"#utility.yul\":1131:1184   */\n    tag_777:\n        /* \"#utility.yul\":1203:1232   */\n      tag_778\n        /* \"#utility.yul\":1222:1231   */\n      dup7\n        /* \"#utility.yul\":1203:1232   */\n      tag_762\n      jump\t// in\n    tag_778:\n        /* \"#utility.yul\":1193:1232   */\n      swap5\n      pop\n        /* \"#utility.yul\":1251:1289   */\n      tag_779\n        /* \"#utility.yul\":1285:1287   */\n      0x20\n        /* \"#utility.yul\":1274:1283   */\n      dup8\n        /* \"#utility.yul\":1270:1288   */\n      add\n        /* \"#utility.yul\":1251:1289   */\n      tag_762\n      jump\t// in\n    tag_779:\n        /* \"#utility.yul\":1241:1289   */\n      swap4\n      pop\n        /* \"#utility.yul\":1336:1338   */\n      0x40\n        /* \"#utility.yul\":1325:1334   */\n      dup7\n        /* \"#utility.yul\":1321:1339   */\n      add\n        /* \"#utility.yul\":1308:1340   */\n      calldataload\n        /* \"#utility.yul\":1298:1340   */\n      swap3\n      pop\n        /* \"#utility.yul\":1391:1393   */\n      0x60\n        /* \"#utility.yul\":1380:1389   */\n      dup7\n        /* \"#utility.yul\":1376:1394   */\n      add\n        /* \"#utility.yul\":1363:1395   */\n      calldataload\n        /* \"#utility.yul\":1414:1432   */\n      0xffffffffffffffff\n        /* \"#utility.yul\":1455:1457   */\n      dup1\n        /* \"#utility.yul\":1447:1453   */\n      dup3\n        /* \"#utility.yul\":1444:1458   */\n      gt\n        /* \"#utility.yul\":1441:1475   */\n      iszero\n      tag_780\n      jumpi\n        /* \"#utility.yul\":1471:1472   */\n      0x00\n        /* \"#utility.yul\":1468:1469   */\n      dup1\n        /* \"#utility.yul\":1461:1473   */\n      revert\n        /* \"#utility.yul\":1441:1475   */\n    tag_780:\n        /* \"#utility.yul\":1509:1515   */\n      dup2\n        /* \"#utility.yul\":1498:1507   */\n      dup9\n        /* \"#utility.yul\":1494:1516   */\n      add\n        /* \"#utility.yul\":1484:1516   */\n      swap2\n      pop\n        /* \"#utility.yul\":1554:1561   */\n      dup9\n        /* \"#utility.yul\":1547:1551   */\n      0x1f\n        /* \"#utility.yul\":1543:1545   */\n      dup4\n        /* \"#utility.yul\":1539:1552   */\n      add\n        /* \"#utility.yul\":1535:1562   */\n      slt\n        /* \"#utility.yul\":1525:1580   */\n      tag_781\n      jumpi\n        /* \"#utility.yul\":1576:1577   */\n      0x00\n        /* \"#utility.yul\":1573:1574   */\n      dup1\n        /* \"#utility.yul\":1566:1578   */\n      revert\n        /* \"#utility.yul\":1525:1580   */\n    tag_781:\n        /* \"#utility.yul\":1616:1618   */\n      dup2\n        /* \"#utility.yul\":1603:1619   */\n      calldataload\n        /* \"#utility.yul\":1642:1644   */\n      dup2\n        /* \"#utility.yul\":1634:1640   */\n      dup2\n        /* \"#utility.yul\":1631:1645   */\n      gt\n        /* \"#utility.yul\":1628:1662   */\n      iszero\n      tag_782\n      jumpi\n        /* \"#utility.yul\":1658:1659   */\n      0x00\n        /* \"#utility.yul\":1655:1656   */\n      dup1\n        /* \"#utility.yul\":1648:1660   */\n      revert\n        /* \"#utility.yul\":1628:1662   */\n    tag_782:\n        /* \"#utility.yul\":1703:1710   */\n      dup10\n        /* \"#utility.yul\":1698:1700   */\n      0x20\n        /* \"#utility.yul\":1689:1695   */\n      dup3\n        /* \"#utility.yul\":1685:1687   */\n      dup6\n        /* \"#utility.yul\":1681:1696   */\n      add\n        /* \"#utility.yul\":1677:1701   */\n      add\n        /* \"#utility.yul\":1674:1711   */\n      gt\n        /* \"#utility.yul\":1671:1728   */\n      iszero\n      tag_783\n      jumpi\n        /* \"#utility.yul\":1724:1725   */\n      0x00\n        /* \"#utility.yul\":1721:1722   */\n      dup1\n        /* \"#utility.yul\":1714:1726   */\n      revert\n        /* \"#utility.yul\":1671:1728   */\n    tag_783:\n        /* \"#utility.yul\":981:1789   */\n      swap7\n      swap10\n      swap6\n      swap9\n      pop\n      swap4\n      swap7\n      pop\n        /* \"#utility.yul\":1755:1757   */\n      0x20\n        /* \"#utility.yul\":1747:1758   */\n      add\n      swap5\n        /* \"#utility.yul\":1777:1783   */\n      swap4\n        /* \"#utility.yul\":981:1789   */\n      swap3\n      pop\n      pop\n      pop\n      jump\t// out\n        /* \"#utility.yul\":1794:2109   */\n    tag_199:\n        /* \"#utility.yul\":1859:1865   */\n      0x00\n        /* \"#utility.yul\":1867:1873   */\n      dup1\n        /* \"#utility.yul\":1920:1922   */\n      0x40\n        /* \"#utility.yul\":1908:1917   */\n      dup4\n        /* \"#utility.yul\":1899:1906   */\n      dup6\n        /* \"#utility.yul\":1895:1918   */\n      sub\n        /* \"#utility.yul\":1891:1923   */\n      slt\n        /* \"#utility.yul\":1888:1940   */\n      iszero\n      tag_785\n      jumpi\n        /* \"#utility.yul\":1936:1937   */\n      0x00\n        /* \"#utility.yul\":1933:1934   */\n      dup1\n        /* \"#utility.yul\":1926:1938   */\n      revert\n        /* \"#utility.yul\":1888:1940   */\n    tag_785:\n        /* \"#utility.yul\":1959:1988   */\n      tag_786\n        /* \"#utility.yul\":1978:1987   */\n      dup4\n        /* \"#utility.yul\":1959:1988   */\n      tag_762\n      jump\t// in\n    tag_786:\n        /* \"#utility.yul\":1949:1988   */\n      swap2\n      pop\n        /* \"#utility.yul\":2038:2040   */\n      0x20\n        /* \"#utility.yul\":2027:2036   */\n      dup4\n        /* \"#utility.yul\":2023:2041   */\n      add\n        /* \"#utility.yul\":2010:2042   */\n      calldataload\n        /* \"#utility.yul\":2051:2079   */\n      tag_787\n        /* \"#utility.yul\":2073:2078   */\n      dup2\n        /* \"#utility.yul\":2051:2079   */\n      tag_788\n      jump\t// in\n    tag_787:\n        /* \"#utility.yul\":2098:2103   */\n      dup1\n        /* \"#utility.yul\":2088:2103   */\n      swap2\n      pop\n      pop\n        /* \"#utility.yul\":1794:2109   */\n      swap3\n      pop\n      swap3\n      swap1\n      pop\n      jump\t// out\n        /* \"#utility.yul\":2114:2368   */\n    tag_87:\n        /* \"#utility.yul\":2182:2188   */\n      0x00\n        /* \"#utility.yul\":2190:2196   */\n      dup1\n        /* \"#utility.yul\":2243:2245   */\n      0x40\n        /* \"#utility.yul\":2231:2240   */\n      dup4\n        /* \"#utility.yul\":2222:2229   */\n      dup6\n        /* \"#utility.yul\":2218:2241   */\n      sub\n        /* \"#utility.yul\":2214:2246   */\n      slt\n        /* \"#utility.yul\":2211:2263   */\n      iszero\n      tag_790\n      jumpi\n        /* \"#utility.yul\":2259:2260   */\n      0x00\n        /* \"#utility.yul\":2256:2257   */\n      dup1\n        /* \"#utility.yul\":2249:2261   */\n      revert\n        /* \"#utility.yul\":2211:2263   */\n    tag_790:\n        /* \"#utility.yul\":2282:2311   */\n      tag_791\n        /* \"#utility.yul\":2301:2310   */\n      dup4\n        /* \"#utility.yul\":2282:2311   */\n      tag_762\n      jump\t// in\n    tag_791:\n        /* \"#utility.yul\":2272:2311   */\n      swap5\n        /* \"#utility.yul\":2358:2360   */\n      0x20\n        /* \"#utility.yul\":2343:2361   */\n      swap4\n      swap1\n      swap4\n      add\n        /* \"#utility.yul\":2330:2362   */\n      calldataload\n      swap4\n      pop\n      pop\n      pop\n        /* \"#utility.yul\":2114:2368   */\n      jump\t// out\n        /* \"#utility.yul\":2373:2614   */\n    tag_108:\n        /* \"#utility.yul\":2429:2435   */\n      0x00\n        /* \"#utility.yul\":2482:2484   */\n      0x20\n        /* \"#utility.yul\":2470:2479   */\n      dup3\n        /* \"#utility.yul\":2461:2468   */\n      dup5\n        /* \"#utility.yul\":2457:2480   */\n      sub\n        /* \"#utility.yul\":2453:2485   */\n      slt\n        /* \"#utility.yul\":2450:2502   */\n      iszero\n      tag_793\n      jumpi\n        /* \"#utility.yul\":2498:2499   */\n      0x00\n        /* \"#utility.yul\":2495:2496   */\n      dup1\n        /* \"#utility.yul\":2488:2500   */\n      revert\n        /* \"#utility.yul\":2450:2502   */\n    tag_793:\n        /* \"#utility.yul\":2537:2546   */\n      dup2\n        /* \"#utility.yul\":2524:2547   */\n      calldataload\n        /* \"#utility.yul\":2556:2584   */\n      tag_576\n        /* \"#utility.yul\":2578:2583   */\n      dup2\n        /* \"#utility.yul\":2556:2584   */\n      tag_788\n      jump\t// in\n        /* \"#utility.yul\":2619:2864   */\n    tag_664:\n        /* \"#utility.yul\":2686:2692   */\n      0x00\n        /* \"#utility.yul\":2739:2741   */\n      0x20\n        /* \"#utility.yul\":2727:2736   */\n      dup3\n        /* \"#utility.yul\":2718:2725   */\n      dup5\n        /* \"#utility.yul\":2714:2737   */\n      sub\n        /* \"#utility.yul\":2710:2742   */\n      slt\n        /* \"#utility.yul\":2707:2759   */\n      iszero\n      tag_796\n      jumpi\n        /* \"#utility.yul\":2755:2756   */\n      0x00\n        /* \"#utility.yul\":2752:2753   */\n      dup1\n        /* \"#utility.yul\":2745:2757   */\n      revert\n        /* \"#utility.yul\":2707:2759   */\n    tag_796:\n        /* \"#utility.yul\":2787:2796   */\n      dup2\n        /* \"#utility.yul\":2781:2797   */\n      mload\n        /* \"#utility.yul\":2806:2834   */\n      tag_576\n        /* \"#utility.yul\":2828:2833   */\n      dup2\n        /* \"#utility.yul\":2806:2834   */\n      tag_788\n      jump\t// in\n        /* \"#utility.yul\":2869:3114   */\n    tag_58:\n        /* \"#utility.yul\":2927:2933   */\n      0x00\n        /* \"#utility.yul\":2980:2982   */\n      0x20\n        /* \"#utility.yul\":2968:2977   */\n      dup3\n        /* \"#utility.yul\":2959:2966   */\n      dup5\n        /* \"#utility.yul\":2955:2978   */\n      sub\n        /* \"#utility.yul\":2951:2983   */\n      slt\n        /* \"#utility.yul\":2948:3000   */\n      iszero\n      tag_799\n      jumpi\n        /* \"#utility.yul\":2996:2997   */\n      0x00\n        /* \"#utility.yul\":2993:2994   */\n      dup1\n        /* \"#utility.yul\":2986:2998   */\n      revert\n        /* \"#utility.yul\":2948:3000   */\n    tag_799:\n        /* \"#utility.yul\":3035:3044   */\n      dup2\n        /* \"#utility.yul\":3022:3045   */\n      calldataload\n        /* \"#utility.yul\":3054:3084   */\n      tag_576\n        /* \"#utility.yul\":3078:3083   */\n      dup2\n        /* \"#utility.yul\":3054:3084   */\n      tag_801\n      jump\t// in\n        /* \"#utility.yul\":3119:3368   */\n    tag_634:\n        /* \"#utility.yul\":3188:3194   */\n      0x00\n        /* \"#utility.yul\":3241:3243   */\n      0x20\n        /* \"#utility.yul\":3229:3238   */\n      dup3\n        /* \"#utility.yul\":3220:3227   */\n      dup5\n        /* \"#utility.yul\":3216:3239   */\n      sub\n        /* \"#utility.yul\":3212:3244   */\n      slt\n        /* \"#utility.yul\":3209:3261   */\n      iszero\n      tag_803\n      jumpi\n        /* \"#utility.yul\":3257:3258   */\n      0x00\n        /* \"#utility.yul\":3254:3255   */\n      dup1\n        /* \"#utility.yul\":3247:3259   */\n      revert\n        /* \"#utility.yul\":3209:3261   */\n    tag_803:\n        /* \"#utility.yul\":3289:3298   */\n      dup2\n        /* \"#utility.yul\":3283:3299   */\n      mload\n        /* \"#utility.yul\":3308:3338   */\n      tag_576\n        /* \"#utility.yul\":3332:3337   */\n      dup2\n        /* \"#utility.yul\":3308:3338   */\n      tag_801\n      jump\t// in\n        /* \"#utility.yul\":3373:4295   */\n    tag_194:\n        /* \"#utility.yul\":3442:3448   */\n      0x00\n        /* \"#utility.yul\":3495:3497   */\n      0x20\n        /* \"#utility.yul\":3483:3492   */\n      dup3\n        /* \"#utility.yul\":3474:3481   */\n      dup5\n        /* \"#utility.yul\":3470:3493   */\n      sub\n        /* \"#utility.yul\":3466:3498   */\n      slt\n        /* \"#utility.yul\":3463:3515   */\n      iszero\n      tag_806\n      jumpi\n        /* \"#utility.yul\":3511:3512   */\n      0x00\n        /* \"#utility.yul\":3508:3509   */\n      dup1\n        /* \"#utility.yul\":3501:3513   */\n      revert\n        /* \"#utility.yul\":3463:3515   */\n    tag_806:\n        /* \"#utility.yul\":3551:3560   */\n      dup2\n        /* \"#utility.yul\":3538:3561   */\n      calldataload\n        /* \"#utility.yul\":3580:3598   */\n      0xffffffffffffffff\n        /* \"#utility.yul\":3621:3623   */\n      dup1\n        /* \"#utility.yul\":3613:3619   */\n      dup3\n        /* \"#utility.yul\":3610:3624   */\n      gt\n        /* \"#utility.yul\":3607:3641   */\n      iszero\n      tag_807\n      jumpi\n        /* \"#utility.yul\":3637:3638   */\n      0x00\n        /* \"#utility.yul\":3634:3635   */\n      dup1\n        /* \"#utility.yul\":3627:3639   */\n      revert\n        /* \"#utility.yul\":3607:3641   */\n    tag_807:\n        /* \"#utility.yul\":3675:3681   */\n      dup2\n        /* \"#utility.yul\":3664:3673   */\n      dup5\n        /* \"#utility.yul\":3660:3682   */\n      add\n        /* \"#utility.yul\":3650:3682   */\n      swap2\n      pop\n        /* \"#utility.yul\":3720:3727   */\n      dup5\n        /* \"#utility.yul\":3713:3717   */\n      0x1f\n        /* \"#utility.yul\":3709:3711   */\n      dup4\n        /* \"#utility.yul\":3705:3718   */\n      add\n        /* \"#utility.yul\":3701:3728   */\n      slt\n        /* \"#utility.yul\":3691:3746   */\n      tag_808\n      jumpi\n        /* \"#utility.yul\":3742:3743   */\n      0x00\n        /* \"#utility.yul\":3739:3740   */\n      dup1\n        /* \"#utility.yul\":3732:3744   */\n      revert\n        /* \"#utility.yul\":3691:3746   */\n    tag_808:\n        /* \"#utility.yul\":3778:3780   */\n      dup2\n        /* \"#utility.yul\":3765:3781   */\n      calldataload\n        /* \"#utility.yul\":3800:3802   */\n      dup2\n        /* \"#utility.yul\":3796:3798   */\n      dup2\n        /* \"#utility.yul\":3793:3803   */\n      gt\n        /* \"#utility.yul\":3790:3826   */\n      iszero\n      tag_810\n      jumpi\n        /* \"#utility.yul\":3806:3824   */\n      tag_810\n      tag_646\n      jump\t// in\n    tag_810:\n        /* \"#utility.yul\":3881:3883   */\n      0x40\n        /* \"#utility.yul\":3875:3884   */\n      mload\n        /* \"#utility.yul\":3849:3851   */\n      0x1f\n        /* \"#utility.yul\":3935:3948   */\n      dup3\n      add\n      not(0x1f)\n        /* \"#utility.yul\":3931:3953   */\n      swap1\n      dup2\n      and\n        /* \"#utility.yul\":3955:3957   */\n      0x3f\n        /* \"#utility.yul\":3927:3958   */\n      add\n        /* \"#utility.yul\":3923:3963   */\n      and\n        /* \"#utility.yul\":3911:3964   */\n      dup2\n      add\n      swap1\n        /* \"#utility.yul\":3979:3997   */\n      dup4\n      dup3\n      gt\n        /* \"#utility.yul\":3999:4021   */\n      dup2\n      dup4\n      lt\n        /* \"#utility.yul\":3976:4022   */\n      or\n        /* \"#utility.yul\":3973:4045   */\n      iszero\n      tag_812\n      jumpi\n        /* \"#utility.yul\":4025:4043   */\n      tag_812\n      tag_646\n      jump\t// in\n    tag_812:\n        /* \"#utility.yul\":4065:4075   */\n      dup2\n        /* \"#utility.yul\":4061:4063   */\n      0x40\n        /* \"#utility.yul\":4054:4076   */\n      mstore\n        /* \"#utility.yul\":4100:4102   */\n      dup3\n        /* \"#utility.yul\":4092:4098   */\n      dup2\n        /* \"#utility.yul\":4085:4103   */\n      mstore\n        /* \"#utility.yul\":4140:4147   */\n      dup8\n        /* \"#utility.yul\":4135:4137   */\n      0x20\n        /* \"#utility.yul\":4130:4132   */\n      dup5\n        /* \"#utility.yul\":4126:4128   */\n      dup8\n        /* \"#utility.yul\":4122:4133   */\n      add\n        /* \"#utility.yul\":4118:4138   */\n      add\n        /* \"#utility.yul\":4115:4148   */\n      gt\n        /* \"#utility.yul\":4112:4165   */\n      iszero\n      tag_813\n      jumpi\n        /* \"#utility.yul\":4161:4162   */\n      0x00\n        /* \"#utility.yul\":4158:4159   */\n      dup1\n        /* \"#utility.yul\":4151:4163   */\n      revert\n        /* \"#utility.yul\":4112:4165   */\n    tag_813:\n        /* \"#utility.yul\":4217:4219   */\n      dup3\n        /* \"#utility.yul\":4212:4214   */\n      0x20\n        /* \"#utility.yul\":4208:4210   */\n      dup7\n        /* \"#utility.yul\":4204:4215   */\n      add\n        /* \"#utility.yul\":4199:4201   */\n      0x20\n        /* \"#utility.yul\":4191:4197   */\n      dup4\n        /* \"#utility.yul\":4187:4202   */\n      add\n        /* \"#utility.yul\":4174:4220   */\n      calldatacopy\n        /* \"#utility.yul\":4262:4263   */\n      0x00\n        /* \"#utility.yul\":4240:4255   */\n      swap3\n      dup2\n      add\n        /* \"#utility.yul\":4257:4259   */\n      0x20\n        /* \"#utility.yul\":4236:4260   */\n      add\n        /* \"#utility.yul\":4229:4264   */\n      swap3\n      swap1\n      swap3\n      mstore\n      pop\n        /* \"#utility.yul\":4244:4250   */\n      swap6\n        /* \"#utility.yul\":3373:4295   */\n      swap5\n      pop\n      pop\n      pop\n      pop\n      pop\n      jump\t// out\n        /* \"#utility.yul\":4300:4480   */\n    tag_80:\n        /* \"#utility.yul\":4359:4365   */\n      0x00\n        /* \"#utility.yul\":4412:4414   */\n      0x20\n        /* \"#utility.yul\":4400:4409   */\n      dup3\n        /* \"#utility.yul\":4391:4398   */\n      dup5\n        /* \"#utility.yul\":4387:4410   */\n      sub\n        /* \"#utility.yul\":4383:4415   */\n      slt\n        /* \"#utility.yul\":4380:4432   */\n      iszero\n      tag_815\n      jumpi\n        /* \"#utility.yul\":4428:4429   */\n      0x00\n        /* \"#utility.yul\":4425:4426   */\n      dup1\n        /* \"#utility.yul\":4418:4430   */\n      revert\n        /* \"#utility.yul\":4380:4432   */\n    tag_815:\n      pop\n        /* \"#utility.yul\":4451:4474   */\n      calldataload\n      swap2\n        /* \"#utility.yul\":4300:4480   */\n      swap1\n      pop\n      jump\t// out\n        /* \"#utility.yul\":4485:4669   */\n    tag_512:\n        /* \"#utility.yul\":4555:4561   */\n      0x00\n        /* \"#utility.yul\":4608:4610   */\n      0x20\n        /* \"#utility.yul\":4596:4605   */\n      dup3\n        /* \"#utility.yul\":4587:4594   */\n      dup5\n        /* \"#utility.yul\":4583:4606   */\n      sub\n        /* \"#utility.yul\":4579:4611   */\n      slt\n        /* \"#utility.yul\":4576:4628   */\n      iszero\n      tag_817\n      jumpi\n        /* \"#utility.yul\":4624:4625   */\n      0x00\n        /* \"#utility.yul\":4621:4622   */\n      dup1\n        /* \"#utility.yul\":4614:4626   */\n      revert\n        /* \"#utility.yul\":4576:4628   */\n    tag_817:\n      pop\n        /* \"#utility.yul\":4647:4663   */\n      mload\n      swap2\n        /* \"#utility.yul\":4485:4669   */\n      swap1\n      pop\n      jump\t// out\n        /* \"#utility.yul\":4674:4928   */\n    tag_70:\n        /* \"#utility.yul\":4742:4748   */\n      0x00\n        /* \"#utility.yul\":4750:4756   */\n      dup1\n        /* \"#utility.yul\":4803:4805   */\n      0x40\n        /* \"#utility.yul\":4791:4800   */\n      dup4\n        /* \"#utility.yul\":4782:4789   */\n      dup6\n        /* \"#utility.yul\":4778:4801   */\n      sub\n        /* \"#utility.yul\":4774:4806   */\n      slt\n        /* \"#utility.yul\":4771:4823   */\n      iszero\n      tag_819\n      jumpi\n        /* \"#utility.yul\":4819:4820   */\n      0x00\n        /* \"#utility.yul\":4816:4817   */\n      dup1\n        /* \"#utility.yul\":4809:4821   */\n      revert\n        /* \"#utility.yul\":4771:4823   */\n    tag_819:\n        /* \"#utility.yul\":4855:4864   */\n      dup3\n        /* \"#utility.yul\":4842:4865   */\n      calldataload\n        /* \"#utility.yul\":4832:4865   */\n      swap2\n      pop\n        /* \"#utility.yul\":4884:4922   */\n      tag_771\n        /* \"#utility.yul\":4918:4920   */\n      0x20\n        /* \"#utility.yul\":4907:4916   */\n      dup5\n        /* \"#utility.yul\":4903:4921   */\n      add\n        /* \"#utility.yul\":4884:4922   */\n      tag_762\n      jump\t// in\n        /* \"#utility.yul\":4933:5249   */\n    tag_204:\n        /* \"#utility.yul\":5010:5016   */\n      0x00\n        /* \"#utility.yul\":5018:5024   */\n      dup1\n        /* \"#utility.yul\":5026:5032   */\n      0x00\n        /* \"#utility.yul\":5079:5081   */\n      0x60\n        /* \"#utility.yul\":5067:5076   */\n      dup5\n        /* \"#utility.yul\":5058:5065   */\n      dup7\n        /* \"#utility.yul\":5054:5077   */\n      sub\n        /* \"#utility.yul\":5050:5082   */\n      slt\n        /* \"#utility.yul\":5047:5099   */\n      iszero\n      tag_822\n      jumpi\n        /* \"#utility.yul\":5095:5096   */\n      0x00\n        /* \"#utility.yul\":5092:5093   */\n      dup1\n        /* \"#utility.yul\":5085:5097   */\n      revert\n        /* \"#utility.yul\":5047:5099   */\n    tag_822:\n      pop\n      pop\n        /* \"#utility.yul\":5118:5141   */\n      dup2\n      calldataload\n      swap4\n        /* \"#utility.yul\":5188:5190   */\n      0x20\n        /* \"#utility.yul\":5173:5191   */\n      dup4\n      add\n        /* \"#utility.yul\":5160:5192   */\n      calldataload\n      swap4\n      pop\n        /* \"#utility.yul\":5239:5241   */\n      0x40\n        /* \"#utility.yul\":5224:5242   */\n      swap1\n      swap3\n      add\n        /* \"#utility.yul\":5211:5243   */\n      calldataload\n      swap2\n        /* \"#utility.yul\":4933:5249   */\n      swap1\n      pop\n      jump\t// out\n        /* \"#utility.yul\":5254:5522   */\n    tag_823:\n        /* \"#utility.yul\":5306:5309   */\n      0x00\n        /* \"#utility.yul\":5344:5349   */\n      dup2\n        /* \"#utility.yul\":5338:5350   */\n      mload\n        /* \"#utility.yul\":5371:5377   */\n      dup1\n        /* \"#utility.yul\":5366:5369   */\n      dup5\n        /* \"#utility.yul\":5359:5378   */\n      mstore\n        /* \"#utility.yul\":5387:5450   */\n      tag_825\n        /* \"#utility.yul\":5443:5449   */\n      dup2\n        /* \"#utility.yul\":5436:5440   */\n      0x20\n        /* \"#utility.yul\":5431:5434   */\n      dup7\n        /* \"#utility.yul\":5427:5441   */\n      add\n        /* \"#utility.yul\":5420:5424   */\n      0x20\n        /* \"#utility.yul\":5413:5418   */\n      dup7\n        /* \"#utility.yul\":5409:5425   */\n      add\n        /* \"#utility.yul\":5387:5450   */\n      tag_826\n      jump\t// in\n    tag_825:\n        /* \"#utility.yul\":5504:5506   */\n      0x1f\n        /* \"#utility.yul\":5483:5498   */\n      add\n      not(0x1f)\n        /* \"#utility.yul\":5479:5508   */\n      and\n        /* \"#utility.yul\":5470:5509   */\n      swap3\n      swap1\n      swap3\n      add\n        /* \"#utility.yul\":5511:5515   */\n      0x20\n        /* \"#utility.yul\":5466:5516   */\n      add\n      swap3\n        /* \"#utility.yul\":5254:5522   */\n      swap2\n      pop\n      pop\n      jump\t// out\n        /* \"#utility.yul\":5527:5711   */\n    tag_827:\n        /* \"#utility.yul\":5568:5571   */\n      0x00\n        /* \"#utility.yul\":5606:5611   */\n      dup2\n        /* \"#utility.yul\":5600:5612   */\n      mload\n        /* \"#utility.yul\":5621:5673   */\n      tag_829\n        /* \"#utility.yul\":5666:5672   */\n      dup2\n        /* \"#utility.yul\":5661:5664   */\n      dup6\n        /* \"#utility.yul\":5654:5658   */\n      0x20\n        /* \"#utility.yul\":5647:5652   */\n      dup7\n        /* \"#utility.yul\":5643:5659   */\n      add\n        /* \"#utility.yul\":5621:5673   */\n      tag_826\n      jump\t// in\n    tag_829:\n        /* \"#utility.yul\":5689:5705   */\n      swap3\n      swap1\n      swap3\n      add\n      swap3\n        /* \"#utility.yul\":5527:5711   */\n      swap2\n      pop\n      pop\n      jump\t// out\n        /* \"#utility.yul\":5716:5990   */\n    tag_738:\n        /* \"#utility.yul\":5845:5848   */\n      0x00\n        /* \"#utility.yul\":5883:5889   */\n      dup3\n        /* \"#utility.yul\":5877:5890   */\n      mload\n        /* \"#utility.yul\":5899:5952   */\n      tag_831\n        /* \"#utility.yul\":5945:5951   */\n      dup2\n        /* \"#utility.yul\":5940:5943   */\n      dup5\n        /* \"#utility.yul\":5933:5937   */\n      0x20\n        /* \"#utility.yul\":5925:5931   */\n      dup8\n        /* \"#utility.yul\":5921:5938   */\n      add\n        /* \"#utility.yul\":5899:5952   */\n      tag_826\n      jump\t// in\n    tag_831:\n        /* \"#utility.yul\":5968:5984   */\n      swap2\n      swap1\n      swap2\n      add\n      swap3\n        /* \"#utility.yul\":5716:5990   */\n      swap2\n      pop\n      pop\n      jump\t// out\n        /* \"#utility.yul\":5995:7168   */\n    tag_493:\n        /* \"#utility.yul\":6171:6174   */\n      0x00\n        /* \"#utility.yul\":6200:6201   */\n      dup1\n        /* \"#utility.yul\":6233:6239   */\n      dup5\n        /* \"#utility.yul\":6227:6240   */\n      sload\n        /* \"#utility.yul\":6263:6266   */\n      dup2\n        /* \"#utility.yul\":6285:6286   */\n      0x01\n        /* \"#utility.yul\":6313:6322   */\n      dup3\n        /* \"#utility.yul\":6309:6311   */\n      dup2\n        /* \"#utility.yul\":6305:6323   */\n      shr\n        /* \"#utility.yul\":6295:6323   */\n      swap2\n      pop\n        /* \"#utility.yul\":6373:6375   */\n      dup1\n        /* \"#utility.yul\":6362:6371   */\n      dup4\n        /* \"#utility.yul\":6358:6376   */\n      and\n        /* \"#utility.yul\":6395:6413   */\n      dup1\n        /* \"#utility.yul\":6385:6446   */\n      tag_833\n      jumpi\n        /* \"#utility.yul\":6439:6443   */\n      0x7f\n        /* \"#utility.yul\":6431:6437   */\n      dup4\n        /* \"#utility.yul\":6427:6444   */\n      and\n        /* \"#utility.yul\":6417:6444   */\n      swap3\n      pop\n        /* \"#utility.yul\":6385:6446   */\n    tag_833:\n        /* \"#utility.yul\":6465:6467   */\n      0x20\n        /* \"#utility.yul\":6513:6515   */\n      dup1\n        /* \"#utility.yul\":6505:6511   */\n      dup5\n        /* \"#utility.yul\":6502:6516   */\n      lt\n        /* \"#utility.yul\":6482:6500   */\n      dup3\n        /* \"#utility.yul\":6479:6517   */\n      eq\n        /* \"#utility.yul\":6476:6641   */\n      iszero\n      tag_834\n      jumpi\n      shl(0xe0, 0x4e487b71)\n        /* \"#utility.yul\":6540:6573   */\n      dup7\n      mstore\n        /* \"#utility.yul\":6596:6600   */\n      0x22\n        /* \"#utility.yul\":6593:6594   */\n      0x04\n        /* \"#utility.yul\":6586:6601   */\n      mstore\n        /* \"#utility.yul\":6626:6630   */\n      0x24\n        /* \"#utility.yul\":6547:6550   */\n      dup7\n        /* \"#utility.yul\":6614:6631   */\n      revert\n        /* \"#utility.yul\":6476:6641   */\n    tag_834:\n        /* \"#utility.yul\":6657:6675   */\n      dup2\n        /* \"#utility.yul\":6684:6788   */\n      dup1\n      iszero\n      tag_836\n      jumpi\n        /* \"#utility.yul\":6802:6803   */\n      0x01\n        /* \"#utility.yul\":6797:7117   */\n      dup2\n      eq\n      tag_837\n      jumpi\n        /* \"#utility.yul\":6650:7117   */\n      jump(tag_835)\n        /* \"#utility.yul\":6684:6788   */\n    tag_836:\n      not(0xff)\n        /* \"#utility.yul\":6717:6741   */\n      dup7\n      and\n        /* \"#utility.yul\":6705:6742   */\n      dup10\n      mstore\n        /* \"#utility.yul\":6762:6778   */\n      dup5\n      dup10\n      add\n      swap7\n      pop\n        /* \"#utility.yul\":6684:6788   */\n      jump(tag_835)\n        /* \"#utility.yul\":6797:7117   */\n    tag_837:\n        /* \"#utility.yul\":21253:21254   */\n      0x00\n        /* \"#utility.yul\":21246:21260   */\n      dup12\n      dup2\n      mstore\n        /* \"#utility.yul\":21290:21294   */\n      0x20\n        /* \"#utility.yul\":21277:21295   */\n      swap1\n      keccak256\n        /* \"#utility.yul\":6892:6893   */\n      0x00\n        /* \"#utility.yul\":6906:7071   */\n    tag_840:\n        /* \"#utility.yul\":6920:6926   */\n      dup7\n        /* \"#utility.yul\":6917:6918   */\n      dup2\n        /* \"#utility.yul\":6914:6927   */\n      lt\n        /* \"#utility.yul\":6906:7071   */\n      iszero\n      tag_842\n      jumpi\n        /* \"#utility.yul\":6998:7012   */\n      dup2\n      sload\n        /* \"#utility.yul\":6985:6996   */\n      dup12\n      dup3\n      add\n        /* \"#utility.yul\":6978:7013   */\n      mstore\n        /* \"#utility.yul\":7041:7057   */\n      swap1\n      dup6\n      add\n      swap1\n        /* \"#utility.yul\":6935:6945   */\n      dup4\n      add\n        /* \"#utility.yul\":6906:7071   */\n      jump(tag_840)\n    tag_842:\n        /* \"#utility.yul\":6910:6913   */\n      pop\n      pop\n        /* \"#utility.yul\":7100:7106   */\n      dup5\n        /* \"#utility.yul\":7095:7098   */\n      dup10\n        /* \"#utility.yul\":7091:7107   */\n      add\n        /* \"#utility.yul\":7084:7107   */\n      swap7\n      pop\n        /* \"#utility.yul\":6650:7117   */\n    tag_835:\n      pop\n      pop\n      pop\n      pop\n      pop\n      pop\n        /* \"#utility.yul\":7133:7162   */\n      tag_843\n        /* \"#utility.yul\":7158:7161   */\n      dup2\n        /* \"#utility.yul\":7150:7156   */\n      dup6\n        /* \"#utility.yul\":7133:7162   */\n      tag_827\n      jump\t// in\n    tag_843:\n        /* \"#utility.yul\":7126:7162   */\n      swap6\n        /* \"#utility.yul\":5995:7168   */\n      swap5\n      pop\n      pop\n      pop\n      pop\n      pop\n      jump\t// out\n        /* \"#utility.yul\":8500:8999   */\n    tag_629:\n      sub(shl(0xa0, 0x01), 0x01)\n        /* \"#utility.yul\":8769:8784   */\n      dup6\n      dup2\n      and\n        /* \"#utility.yul\":8751:8785   */\n      dup3\n      mstore\n        /* \"#utility.yul\":8821:8836   */\n      dup5\n      and\n        /* \"#utility.yul\":8816:8818   */\n      0x20\n        /* \"#utility.yul\":8801:8819   */\n      dup3\n      add\n        /* \"#utility.yul\":8794:8837   */\n      mstore\n        /* \"#utility.yul\":8868:8870   */\n      0x40\n        /* \"#utility.yul\":8853:8871   */\n      dup2\n      add\n        /* \"#utility.yul\":8846:8880   */\n      dup4\n      swap1\n      mstore\n        /* \"#utility.yul\":8916:8919   */\n      0x80\n        /* \"#utility.yul\":8911:8913   */\n      0x60\n        /* \"#utility.yul\":8896:8914   */\n      dup3\n      add\n        /* \"#utility.yul\":8889:8920   */\n      dup2\n      swap1\n      mstore\n        /* \"#utility.yul\":8694:8698   */\n      0x00\n      swap1\n        /* \"#utility.yul\":8937:8993   */\n      tag_849\n      swap1\n        /* \"#utility.yul\":8973:8992   */\n      dup4\n      add\n        /* \"#utility.yul\":8965:8971   */\n      dup5\n        /* \"#utility.yul\":8937:8993   */\n      tag_823\n      jump\t// in\n    tag_849:\n        /* \"#utility.yul\":8929:8993   */\n      swap7\n        /* \"#utility.yul\":8500:8999   */\n      swap6\n      pop\n      pop\n      pop\n      pop\n      pop\n      pop\n      jump\t// out\n        /* \"#utility.yul\":9850:10080   */\n    tag_76:\n        /* \"#utility.yul\":9999:10001   */\n      0x20\n        /* \"#utility.yul\":9988:9997   */\n      dup2\n        /* \"#utility.yul\":9981:10002   */\n      mstore\n        /* \"#utility.yul\":9962:9966   */\n      0x00\n        /* \"#utility.yul\":10019:10074   */\n      tag_576\n        /* \"#utility.yul\":10070:10072   */\n      0x20\n        /* \"#utility.yul\":10059:10068   */\n      dup4\n        /* \"#utility.yul\":10055:10073   */\n      add\n        /* \"#utility.yul\":10047:10053   */\n      dup5\n        /* \"#utility.yul\":10019:10074   */\n      tag_823\n      jump\t// in\n        /* \"#utility.yul\":12946:13284   */\n    tag_281:\n        /* \"#utility.yul\":13148:13150   */\n      0x20\n        /* \"#utility.yul\":13130:13151   */\n      dup1\n      dup3\n      mstore\n        /* \"#utility.yul\":13187:13189   */\n      0x0e\n        /* \"#utility.yul\":13167:13185   */\n      swap1\n      dup3\n      add\n        /* \"#utility.yul\":13160:13190   */\n      mstore\n      shl(0x91, 0x24b73b30b634b2103a37b5b2b717)\n        /* \"#utility.yul\":13221:13223   */\n      0x40\n        /* \"#utility.yul\":13206:13224   */\n      dup3\n      add\n        /* \"#utility.yul\":13199:13243   */\n      mstore\n        /* \"#utility.yul\":13275:13277   */\n      0x60\n        /* \"#utility.yul\":13260:13278   */\n      add\n      swap1\n        /* \"#utility.yul\":12946:13284   */\n      jump\t// out\n        /* \"#utility.yul\":14740:15082   */\n    tag_410:\n        /* \"#utility.yul\":14942:14944   */\n      0x20\n        /* \"#utility.yul\":14924:14945   */\n      dup1\n      dup3\n      mstore\n        /* \"#utility.yul\":14981:14983   */\n      0x12\n        /* \"#utility.yul\":14961:14979   */\n      swap1\n      dup3\n      add\n        /* \"#utility.yul\":14954:14984   */\n      mstore\n      shl(0x72, 0x13585c9ad95d081b9bdd081cdd185c9d1959)\n        /* \"#utility.yul\":15015:15017   */\n      0x40\n        /* \"#utility.yul\":15000:15018   */\n      dup3\n      add\n        /* \"#utility.yul\":14993:15041   */\n      mstore\n        /* \"#utility.yul\":15073:15075   */\n      0x60\n        /* \"#utility.yul\":15058:15076   */\n      add\n      swap1\n        /* \"#utility.yul\":14740:15082   */\n      jump\t// out\n        /* \"#utility.yul\":15442:15798   */\n    tag_269:\n        /* \"#utility.yul\":15644:15646   */\n      0x20\n        /* \"#utility.yul\":15626:15647   */\n      dup1\n      dup3\n      mstore\n        /* \"#utility.yul\":15663:15681   */\n      dup2\n      dup2\n      add\n        /* \"#utility.yul\":15656:15686   */\n      mstore\n        /* \"#utility.yul\":15722:15756   */\n      0x4f776e61626c653a2063616c6c6572206973206e6f7420746865206f776e6572\n        /* \"#utility.yul\":15717:15719   */\n      0x40\n        /* \"#utility.yul\":15702:15720   */\n      dup3\n      add\n        /* \"#utility.yul\":15695:15757   */\n      mstore\n        /* \"#utility.yul\":15789:15791   */\n      0x60\n        /* \"#utility.yul\":15774:15792   */\n      add\n      swap1\n        /* \"#utility.yul\":15442:15798   */\n      jump\t// out\n        /* \"#utility.yul\":16511:16916   */\n    tag_306:\n        /* \"#utility.yul\":16713:16715   */\n      0x20\n        /* \"#utility.yul\":16695:16716   */\n      dup1\n      dup3\n      mstore\n        /* \"#utility.yul\":16752:16754   */\n      0x29\n        /* \"#utility.yul\":16732:16750   */\n      swap1\n      dup3\n      add\n        /* \"#utility.yul\":16725:16755   */\n      mstore\n        /* \"#utility.yul\":16791:16825   */\n      0x596f752063616e206e6f7420627579206d6f7265207468616e203230204e4654\n        /* \"#utility.yul\":16786:16788   */\n      0x40\n        /* \"#utility.yul\":16771:16789   */\n      dup3\n      add\n        /* \"#utility.yul\":16764:16826   */\n      mstore\n      shl(0xb8, 0x73206174206f6e6365)\n        /* \"#utility.yul\":16857:16859   */\n      0x60\n        /* \"#utility.yul\":16842:16860   */\n      dup3\n      add\n        /* \"#utility.yul\":16835:16874   */\n      mstore\n        /* \"#utility.yul\":16906:16909   */\n      0x80\n        /* \"#utility.yul\":16891:16910   */\n      add\n      swap1\n        /* \"#utility.yul\":16511:16916   */\n      jump\t// out\n        /* \"#utility.yul\":17620:18018   */\n    tag_415:\n        /* \"#utility.yul\":17822:17824   */\n      0x20\n        /* \"#utility.yul\":17804:17825   */\n      dup1\n      dup3\n      mstore\n        /* \"#utility.yul\":17861:17863   */\n      0x22\n        /* \"#utility.yul\":17841:17859   */\n      swap1\n      dup3\n      add\n        /* \"#utility.yul\":17834:17864   */\n      mstore\n        /* \"#utility.yul\":17900:17934   */\n      0x596f7520617265206e6f7420746865206f776e6572206f662074686520746f6b\n        /* \"#utility.yul\":17895:17897   */\n      0x40\n        /* \"#utility.yul\":17880:17898   */\n      dup3\n      add\n        /* \"#utility.yul\":17873:17935   */\n      mstore\n      shl(0xf1, 0x32b7)\n        /* \"#utility.yul\":17966:17968   */\n      0x60\n        /* \"#utility.yul\":17951:17969   */\n      dup3\n      add\n        /* \"#utility.yul\":17944:17976   */\n      mstore\n        /* \"#utility.yul\":18008:18011   */\n      0x80\n        /* \"#utility.yul\":17993:18012   */\n      add\n      swap1\n        /* \"#utility.yul\":17620:18018   */\n      jump\t// out\n        /* \"#utility.yul\":18023:18431   */\n    tag_317:\n        /* \"#utility.yul\":18225:18227   */\n      0x20\n        /* \"#utility.yul\":18207:18228   */\n      dup1\n      dup3\n      mstore\n        /* \"#utility.yul\":18264:18266   */\n      0x2c\n        /* \"#utility.yul\":18244:18262   */\n      swap1\n      dup3\n      add\n        /* \"#utility.yul\":18237:18267   */\n      mstore\n        /* \"#utility.yul\":18303:18337   */\n      0x457863656564732072656d61696e696e67207072696d6172792073616c65206f\n        /* \"#utility.yul\":18298:18300   */\n      0x40\n        /* \"#utility.yul\":18283:18301   */\n      dup3\n      add\n        /* \"#utility.yul\":18276:18338   */\n      mstore\n      shl(0xa0, 0x66204d415449432073616c65)\n        /* \"#utility.yul\":18369:18371   */\n      0x60\n        /* \"#utility.yul\":18354:18372   */\n      dup3\n      add\n        /* \"#utility.yul\":18347:18389   */\n      mstore\n        /* \"#utility.yul\":18421:18424   */\n      0x80\n        /* \"#utility.yul\":18406:18425   */\n      add\n      swap1\n        /* \"#utility.yul\":18023:18431   */\n      jump\t// out\n        /* \"#utility.yul\":21306:21434   */\n    tag_421:\n        /* \"#utility.yul\":21346:21349   */\n      0x00\n        /* \"#utility.yul\":21377:21378   */\n      dup3\n        /* \"#utility.yul\":21373:21379   */\n      not\n        /* \"#utility.yul\":21370:21371   */\n      dup3\n        /* \"#utility.yul\":21367:21380   */\n      gt\n        /* \"#utility.yul\":21364:21403   */\n      iszero\n      tag_889\n      jumpi\n        /* \"#utility.yul\":21383:21401   */\n      tag_889\n      tag_890\n      jump\t// in\n    tag_889:\n      pop\n        /* \"#utility.yul\":21419:21428   */\n      add\n      swap1\n        /* \"#utility.yul\":21306:21434   */\n      jump\t// out\n        /* \"#utility.yul\":21439:21559   */\n    tag_582:\n        /* \"#utility.yul\":21479:21480   */\n      0x00\n        /* \"#utility.yul\":21505:21506   */\n      dup3\n        /* \"#utility.yul\":21495:21530   */\n      tag_893\n      jumpi\n        /* \"#utility.yul\":21510:21528   */\n      tag_893\n      tag_894\n      jump\t// in\n    tag_893:\n      pop\n        /* \"#utility.yul\":21544:21553   */\n      div\n      swap1\n        /* \"#utility.yul\":21439:21559   */\n      jump\t// out\n        /* \"#utility.yul\":21564:21732   */\n    tag_580:\n        /* \"#utility.yul\":21604:21611   */\n      0x00\n        /* \"#utility.yul\":21670:21671   */\n      dup2\n        /* \"#utility.yul\":21666:21667   */\n      0x00\n        /* \"#utility.yul\":21662:21668   */\n      not\n        /* \"#utility.yul\":21658:21672   */\n      div\n        /* \"#utility.yul\":21655:21656   */\n      dup4\n        /* \"#utility.yul\":21652:21673   */\n      gt\n        /* \"#utility.yul\":21647:21648   */\n      dup3\n        /* \"#utility.yul\":21640:21649   */\n      iszero\n        /* \"#utility.yul\":21633:21650   */\n      iszero\n        /* \"#utility.yul\":21629:21674   */\n      and\n        /* \"#utility.yul\":21626:21697   */\n      iszero\n      tag_897\n      jumpi\n        /* \"#utility.yul\":21677:21695   */\n      tag_897\n      tag_890\n      jump\t// in\n    tag_897:\n      pop\n        /* \"#utility.yul\":21717:21726   */\n      mul\n      swap1\n        /* \"#utility.yul\":21564:21732   */\n      jump\t// out\n        /* \"#utility.yul\":21737:21862   */\n    tag_328:\n        /* \"#utility.yul\":21777:21781   */\n      0x00\n        /* \"#utility.yul\":21805:21806   */\n      dup3\n        /* \"#utility.yul\":21802:21803   */\n      dup3\n        /* \"#utility.yul\":21799:21807   */\n      lt\n        /* \"#utility.yul\":21796:21830   */\n      iszero\n      tag_900\n      jumpi\n        /* \"#utility.yul\":21810:21828   */\n      tag_900\n      tag_890\n      jump\t// in\n    tag_900:\n      pop\n        /* \"#utility.yul\":21847:21856   */\n      sub\n      swap1\n        /* \"#utility.yul\":21737:21862   */\n      jump\t// out\n        /* \"#utility.yul\":21867:22125   */\n    tag_826:\n        /* \"#utility.yul\":21939:21940   */\n      0x00\n        /* \"#utility.yul\":21949:22062   */\n    tag_902:\n        /* \"#utility.yul\":21963:21969   */\n      dup4\n        /* \"#utility.yul\":21960:21961   */\n      dup2\n        /* \"#utility.yul\":21957:21970   */\n      lt\n        /* \"#utility.yul\":21949:22062   */\n      iszero\n      tag_904\n      jumpi\n        /* \"#utility.yul\":22039:22050   */\n      dup2\n      dup2\n      add\n        /* \"#utility.yul\":22033:22051   */\n      mload\n        /* \"#utility.yul\":22020:22031   */\n      dup4\n      dup3\n      add\n        /* \"#utility.yul\":22013:22052   */\n      mstore\n        /* \"#utility.yul\":21985:21987   */\n      0x20\n        /* \"#utility.yul\":21978:21988   */\n      add\n        /* \"#utility.yul\":21949:22062   */\n      jump(tag_902)\n    tag_904:\n        /* \"#utility.yul\":22080:22086   */\n      dup4\n        /* \"#utility.yul\":22077:22078   */\n      dup2\n        /* \"#utility.yul\":22074:22087   */\n      gt\n        /* \"#utility.yul\":22071:22119   */\n      iszero\n      tag_585\n      jumpi\n      pop\n      pop\n        /* \"#utility.yul\":22115:22116   */\n      0x00\n        /* \"#utility.yul\":22097:22113   */\n      swap2\n      add\n        /* \"#utility.yul\":22090:22117   */\n      mstore\n        /* \"#utility.yul\":21867:22125   */\n      jump\t// out\n        /* \"#utility.yul\":22130:22266   */\n    tag_655:\n        /* \"#utility.yul\":22169:22172   */\n      0x00\n        /* \"#utility.yul\":22197:22202   */\n      dup2\n        /* \"#utility.yul\":22187:22226   */\n      tag_908\n      jumpi\n        /* \"#utility.yul\":22206:22224   */\n      tag_908\n      tag_890\n      jump\t// in\n    tag_908:\n      pop\n      not(0x00)\n        /* \"#utility.yul\":22242:22260   */\n      add\n      swap1\n        /* \"#utility.yul\":22130:22266   */\n      jump\t// out\n        /* \"#utility.yul\":22271:22651   */\n    tag_273:\n        /* \"#utility.yul\":22350:22351   */\n      0x01\n        /* \"#utility.yul\":22346:22358   */\n      dup2\n      dup2\n      shr\n      swap1\n        /* \"#utility.yul\":22393:22405   */\n      dup3\n      and\n      dup1\n        /* \"#utility.yul\":22414:22475   */\n      tag_910\n      jumpi\n        /* \"#utility.yul\":22468:22472   */\n      0x7f\n        /* \"#utility.yul\":22460:22466   */\n      dup3\n        /* \"#utility.yul\":22456:22473   */\n      and\n        /* \"#utility.yul\":22446:22473   */\n      swap2\n      pop\n        /* \"#utility.yul\":22414:22475   */\n    tag_910:\n        /* \"#utility.yul\":22521:22523   */\n      0x20\n        /* \"#utility.yul\":22513:22519   */\n      dup3\n        /* \"#utility.yul\":22510:22524   */\n      lt\n        /* \"#utility.yul\":22490:22508   */\n      dup2\n        /* \"#utility.yul\":22487:22525   */\n      eq\n        /* \"#utility.yul\":22484:22645   */\n      iszero\n      tag_282\n      jumpi\n        /* \"#utility.yul\":22567:22577   */\n      0x4e487b71\n        /* \"#utility.yul\":22562:22565   */\n      0xe0\n        /* \"#utility.yul\":22558:22578   */\n      shl\n        /* \"#utility.yul\":22555:22556   */\n      0x00\n        /* \"#utility.yul\":22548:22579   */\n      mstore\n        /* \"#utility.yul\":22602:22606   */\n      0x22\n        /* \"#utility.yul\":22599:22600   */\n      0x04\n        /* \"#utility.yul\":22592:22607   */\n      mstore\n        /* \"#utility.yul\":22630:22634   */\n      0x24\n        /* \"#utility.yul\":22627:22628   */\n      0x00\n        /* \"#utility.yul\":22620:22635   */\n      revert\n        /* \"#utility.yul\":22656:22791   */\n    tag_326:\n        /* \"#utility.yul\":22695:22698   */\n      0x00\n      not(0x00)\n        /* \"#utility.yul\":22716:22733   */\n      dup3\n      eq\n        /* \"#utility.yul\":22713:22756   */\n      iszero\n      tag_914\n      jumpi\n        /* \"#utility.yul\":22736:22754   */\n      tag_914\n      tag_890\n      jump\t// in\n    tag_914:\n      pop\n        /* \"#utility.yul\":22783:22784   */\n      0x01\n        /* \"#utility.yul\":22772:22785   */\n      add\n      swap1\n        /* \"#utility.yul\":22656:22791   */\n      jump\t// out\n        /* \"#utility.yul\":22796:22908   */\n    tag_652:\n        /* \"#utility.yul\":22828:22829   */\n      0x00\n        /* \"#utility.yul\":22854:22855   */\n      dup3\n        /* \"#utility.yul\":22844:22879   */\n      tag_917\n      jumpi\n        /* \"#utility.yul\":22859:22877   */\n      tag_917\n      tag_894\n      jump\t// in\n    tag_917:\n      pop\n        /* \"#utility.yul\":22893:22902   */\n      mod\n      swap1\n        /* \"#utility.yul\":22796:22908   */\n      jump\t// out\n        /* \"#utility.yul\":22913:23040   */\n    tag_890:\n        /* \"#utility.yul\":22974:22984   */\n      0x4e487b71\n        /* \"#utility.yul\":22969:22972   */\n      0xe0\n        /* \"#utility.yul\":22965:22985   */\n      shl\n        /* \"#utility.yul\":22962:22963   */\n      0x00\n        /* \"#utility.yul\":22955:22986   */\n      mstore\n        /* \"#utility.yul\":23005:23009   */\n      0x11\n        /* \"#utility.yul\":23002:23003   */\n      0x04\n        /* \"#utility.yul\":22995:23010   */\n      mstore\n        /* \"#utility.yul\":23029:23033   */\n      0x24\n        /* \"#utility.yul\":23026:23027   */\n      0x00\n        /* \"#utility.yul\":23019:23034   */\n      revert\n        /* \"#utility.yul\":23045:23172   */\n    tag_894:\n        /* \"#utility.yul\":23106:23116   */\n      0x4e487b71\n        /* \"#utility.yul\":23101:23104   */\n      0xe0\n        /* \"#utility.yul\":23097:23117   */\n      shl\n        /* \"#utility.yul\":23094:23095   */\n      0x00\n        /* \"#utility.yul\":23087:23118   */\n      mstore\n        /* \"#utility.yul\":23137:23141   */\n      0x12\n        /* \"#utility.yul\":23134:23135   */\n      0x04\n        /* \"#utility.yul\":23127:23142   */\n      mstore\n        /* \"#utility.yul\":23161:23165   */\n      0x24\n        /* \"#utility.yul\":23158:23159   */\n      0x00\n        /* \"#utility.yul\":23151:23166   */\n      revert\n        /* \"#utility.yul\":23177:23304   */\n    tag_722:\n        /* \"#utility.yul\":23238:23248   */\n      0x4e487b71\n        /* \"#utility.yul\":23233:23236   */\n      0xe0\n        /* \"#utility.yul\":23229:23249   */\n      shl\n        /* \"#utility.yul\":23226:23227   */\n      0x00\n        /* \"#utility.yul\":23219:23250   */\n      mstore\n        /* \"#utility.yul\":23269:23273   */\n      0x31\n        /* \"#utility.yul\":23266:23267   */\n      0x04\n        /* \"#utility.yul\":23259:23274   */\n      mstore\n        /* \"#utility.yul\":23293:23297   */\n      0x24\n        /* \"#utility.yul\":23290:23291   */\n      0x00\n        /* \"#utility.yul\":23283:23298   */\n      revert\n        /* \"#utility.yul\":23309:23436   */\n    tag_393:\n        /* \"#utility.yul\":23370:23380   */\n      0x4e487b71\n        /* \"#utility.yul\":23365:23368   */\n      0xe0\n        /* \"#utility.yul\":23361:23381   */\n      shl\n        /* \"#utility.yul\":23358:23359   */\n      0x00\n        /* \"#utility.yul\":23351:23382   */\n      mstore\n        /* \"#utility.yul\":23401:23405   */\n      0x32\n        /* \"#utility.yul\":23398:23399   */\n      0x04\n        /* \"#utility.yul\":23391:23406   */\n      mstore\n        /* \"#utility.yul\":23425:23429   */\n      0x24\n        /* \"#utility.yul\":23422:23423   */\n      0x00\n        /* \"#utility.yul\":23415:23430   */\n      revert\n        /* \"#utility.yul\":23441:23568   */\n    tag_646:\n        /* \"#utility.yul\":23502:23512   */\n      0x4e487b71\n        /* \"#utility.yul\":23497:23500   */\n      0xe0\n        /* \"#utility.yul\":23493:23513   */\n      shl\n        /* \"#utility.yul\":23490:23491   */\n      0x00\n        /* \"#utility.yul\":23483:23514   */\n      mstore\n        /* \"#utility.yul\":23533:23537   */\n      0x41\n        /* \"#utility.yul\":23530:23531   */\n      0x04\n        /* \"#utility.yul\":23523:23538   */\n      mstore\n        /* \"#utility.yul\":23557:23561   */\n      0x24\n        /* \"#utility.yul\":23554:23555   */\n      0x00\n        /* \"#utility.yul\":23547:23562   */\n      revert\n        /* \"#utility.yul\":23573:23691   */\n    tag_788:\n        /* \"#utility.yul\":23659:23664   */\n      dup1\n        /* \"#utility.yul\":23652:23665   */\n      iszero\n        /* \"#utility.yul\":23645:23666   */\n      iszero\n        /* \"#utility.yul\":23638:23643   */\n      dup2\n        /* \"#utility.yul\":23635:23667   */\n      eq\n        /* \"#utility.yul\":23625:23685   */\n      tag_544\n      jumpi\n        /* \"#utility.yul\":23681:23682   */\n      0x00\n        /* \"#utility.yul\":23678:23679   */\n      dup1\n        /* \"#utility.yul\":23671:23683   */\n      revert\n        /* \"#utility.yul\":23696:23827   */\n    tag_801:\n      not(sub(shl(0xe0, 0x01), 0x01))\n        /* \"#utility.yul\":23770:23802   */\n      dup2\n      and\n        /* \"#utility.yul\":23760:23803   */\n      dup2\n      eq\n        /* \"#utility.yul\":23750:23821   */\n      tag_544\n      jumpi\n        /* \"#utility.yul\":23817:23818   */\n      0x00\n        /* \"#utility.yul\":23814:23815   */\n      dup1\n        /* \"#utility.yul\":23807:23819   */\n      revert\n\n    auxdata: 0xa264697066735822122014f02cbf8168faa0cc72be527ac82f5c5a9cc46d3721bd757f9d87f6cca81f8864736f6c63430008070033\n}\n",
				"bytecode": {
					"linkReferences": {},
					"object": "60c0604052600a608081905269506f6c794865726f657360b01b60a09081526200002d91600791906200025c565b5060408051808201909152600a80825269506f6c794865726f657360b01b602090920191825262000061916008916200025c565b5060006009819055600a819055612710600b819055600c55600f805461ffff60a01b1916905566470de4df82000060105568056bc75e2d63100000601155601555614e36805460ff19169055614e3a805460ff60a01b19169055348015620000c857600080fd5b506040516200397138038062003971833981016040819052620000eb9162000302565b620000f6336200020c565b600160208190527fb45820386466a8e01597d6e1efaf8f11ba4467972de5ca6c1f8aa3544ac2888e805460ff1990811683179091557fb8349d7b7b0b2b924bf96f90971cda8c7ac1ea4cde292a182bd2a203eef6c5d080548216831790557f0e20bd7b4297895bdd985faac9360f413d46658b4c96e853899576249f1474ab8054821683179055635b5e139f60e01b6000527fce9309d5fe1c6050fdfde39d28ca0616e34393306d1cba1a247c40f9ef5c5d0980549091169091179055614e3991909155614e3a80546001600160a01b03199081166001600160a01b0393841617909155600e8054821695831695909517909455600f8054851693821693909317909255601380549093169116179055620003cc565b600080546001600160a01b038381166001600160a01b0319831681178455604051919092169283917f8be0079c531659141344cd1fd0a4f28419497f9722a3daafe3b4186f6b6457e09190a35050565b8280546200026a9062000376565b90600052602060002090601f0160209004810192826200028e5760008555620002d9565b82601f10620002a957805160ff1916838001178555620002d9565b82800160010185558215620002d9579182015b82811115620002d9578251825591602001919060010190620002bc565b50620002e7929150620002eb565b5090565b5b80821115620002e75760008155600101620002ec565b600080600080600060a086880312156200031b57600080fd5b85516200032881620003b3565b60208701519095506200033b81620003b3565b60408701519094506200034e81620003b3565b6060870151608088015191945092506200036881620003b3565b809150509295509295909350565b600181811c908216806200038b57607f821691505b60208210811415620003ad57634e487b7160e01b600052602260045260246000fd5b50919050565b6001600160a01b0381168114620003c957600080fd5b50565b61359580620003dc6000396000f3fe60806040526004361061027d5760003560e01c80636ef25c3a1161014f578063b88d4fde116100c1578063e985e9c51161007a578063e985e9c5146107c0578063ed38b79c14610809578063f25f4b561461081f578063f2fde38b14610840578063f9ae7aaf14610860578063fbec6f211461087357600080fd5b8063b88d4fde146106e6578063ba1f879f14610706578063c2db2c4214610727578063c87b56dd1461075e578063d4c668611461077e578063e0e081d71461079e57600080fd5b806395d89b411161011357806395d89b41146106475780639abc83201461065c5780639b642de114610671578063a22cb46514610691578063b03053b6146106b1578063b66a0e5d146106d157600080fd5b80636ef25c3a1461056357806370a082311461057a578063715018a61461059a57806380c9419e146105af5780638da5cb5b1461062957600080fd5b806323b872dd116101f357806344c66be7116101ac57806344c66be7146104b8578063479ad4c3146104cd5780634c211c28146104ed5780634f6ccce7146105035780636352211e1461052357806369fe0e2d1461054357600080fd5b806323b872dd1461040f5780632db115441461042f5780632f745c5914610442578063338dbf591461046257806333bc1c5c1461047757806342842e0e1461049857600080fd5b8063095ea7b311610245578063095ea7b3146103715780630cef3df11461039157806310a15cc8146103b157806318160ddd146103c45780631cbaee2d146103d95780631d2e5a3a146103ef57600080fd5b806301ffc9a714610282578063031bd4c4146102d15780630612c478146102f557806306fdde0314610317578063081812fc14610339575b600080fd5b34801561028e57600080fd5b506102bc61029d366004612f9d565b6001600160e01b03191660009081526001602052604090205460ff1690565b60405190151581526020015b60405180910390f35b3480156102dd57600080fd5b506102e7614e2081565b6040519081526020016102c8565b34801561030157600080fd5b506103156103103660046130ba565b610893565b005b34801561032357600080fd5b5061032c6108f5565b6040516102c89190613251565b34801561034557600080fd5b50610359610354366004613088565b610987565b6040516001600160a01b0390911681526020016102c8565b34801561037d57600080fd5b5061031561038c366004612f39565b6109de565b34801561039d57600080fd5b506102bc6103ac3660046130ba565b610b25565b6103156103bf366004613088565b610bb3565b3480156103d057600080fd5b506009546102e7565b3480156103e557600080fd5b506102e760145481565b3480156103fb57600080fd5b5061031561040a366004612f63565b610d53565b34801561041b57600080fd5b5061031561042a366004612e2b565b610d9c565b61031561043d366004613088565b610f3d565b34801561044e57600080fd5b506102e761045d366004612f39565b61117c565b34801561046e57600080fd5b506103156111dd565b34801561048357600080fd5b50600f546102bc90600160a01b900460ff1681565b3480156104a457600080fd5b506103156104b3366004612e2b565b611260565b3480156104c457600080fd5b506102e7611280565b3480156104d957600080fd5b506103156104e8366004613088565b61129e565b3480156104f957600080fd5b506102e7600b5481565b34801561050f57600080fd5b506102e761051e366004613088565b6113a9565b34801561052f57600080fd5b5061035961053e366004613088565b6113c4565b34801561054f57600080fd5b5061031561055e366004613088565b611401565b34801561056f57600080fd5b506102e7614e395481565b34801561058657600080fd5b506102e7610595366004612ddd565b611431565b3480156105a657600080fd5b50610315611464565b3480156105bb57600080fd5b506105ff6105ca366004613088565b614e376020526000908152604090208054600182015460029092015460ff8216926101009092046001600160a01b0316919084565b6040805194151585526001600160a01b0390931660208501529183015260608201526080016102c8565b34801561063557600080fd5b506000546001600160a01b0316610359565b34801561065357600080fd5b5061032c61149a565b34801561066857600080fd5b5061032c6114a9565b34801561067d57600080fd5b5061031561068c366004612fd7565b611537565b34801561069d57600080fd5b506103156106ac366004612f02565b611578565b3480156106bd57600080fd5b506103156106cc3660046130dd565b6115e4565b3480156106dd57600080fd5b5061031561177b565b3480156106f257600080fd5b50610315610701366004612e67565b6117fe565b34801561071257600080fd5b50600f546102bc90600160a81b900460ff1681565b34801561073357600080fd5b50610359610742366004613088565b614e38602052600090815260409020546001600160a01b031681565b34801561076a57600080fd5b5061032c610779366004613088565b611847565b34801561078a57600080fd5b50610315610799366004613088565b6118b3565b3480156107aa57600080fd5b50614e3a546102bc90600160a01b900460ff1681565b3480156107cc57600080fd5b506102bc6107db366004612df8565b6001600160a01b03918216600090815260046020908152604080832093909416825291909152205460ff1690565b34801561081557600080fd5b506102e7600c5481565b34801561082b57600080fd5b50614e3a54610359906001600160a01b031681565b34801561084c57600080fd5b5061031561085b366004612ddd565b611d6d565b61031561086e366004613088565b611e08565b34801561087f57600080fd5b50601354610359906001600160a01b031681565b6000546001600160a01b031633146108c65760405162461bcd60e51b81526004016108bd906132b8565b60405180910390fd5b6000918252614e38602052604090912080546001600160a01b0319166001600160a01b03909216919091179055565b60606007805461090490613469565b80601f016020809104026020016040519081016040528092919081815260200182805461093090613469565b801561097d5780601f106109525761010080835404028352916020019161097d565b820191906000526020600020905b81548152906001019060200180831161096057829003601f168201915b5050505050905090565b60008181526002602052604081205482906001600160a01b03166109bd5760405162461bcd60e51b81526004016108bd90613264565b6000838152600360205260409020546001600160a01b031691505b50919050565b60008181526002602052604090205481906001600160a01b031633811480610a2957506001600160a01b038116600090815260046020908152604080832033845290915290205460ff165b610a675760405162461bcd60e51b815260206004820152600f60248201526e21b0b73737ba1037b832b930ba329760891b60448201526064016108bd565b60008381526002602052604090205483906001600160a01b0316610a9d5760405162461bcd60e51b81526004016108bd90613264565b6000848152600260205260409020546001600160a01b03908116908616811415610ac657600080fd5b60008581526003602052604080822080546001600160a01b0319166001600160a01b038a811691821790925591518893918516917f8c5be1e5ebec7d5bd14f71427d1e84f3dd0314c0f7b2291e5b200ac8c7c3b92591a4505050505050565b6000828152600260205260408120546001600160a01b03908116908316811480610b6857506000848152600360205260409020546001600160a01b038481169116145b80610b9857506001600160a01b0380821660009081526004602090815260408083209387168352929052205460ff165b15610ba7576001915050610bad565b60009150505b92915050565b614e365460ff1615610bc457600080fd5b614e36805460ff19166001179055600f54600160a01b900460ff16610c1f5760405162461bcd60e51b815260206004820152601160248201527029b0b632903737ba1039ba30b93a32b21760791b60448201526064016108bd565b6014811115610c405760405162461bcd60e51b81526004016108bd906132ed565b614e20610c5682610c5060095490565b90612075565b1115610c9a5760405162461bcd60e51b8152602060048201526013602482015272115e18d959591cc81513d2d15397d312535255606a1b60448201526064016108bd565b600c54600090610caa9083612090565b1015610cc85760405162461bcd60e51b81526004016108bd90613378565b610cf63330610ce2846011546120b090919063ffffffff16565b6013546001600160a01b03169291906120e0565b60005b81811015610d4457600a8054906000610d118361349e565b91905055506001600c54610d25919061340f565b600c55610d3133612140565b5080610d3c8161349e565b915050610cf9565b5050614e36805460ff19169055565b6000546001600160a01b03163314610d7d5760405162461bcd60e51b81526004016108bd906132b8565b614e3a8054911515600160a01b0260ff60a01b19909216919091179055565b60008181526002602052604090205481906001600160a01b031633811480610dda57506000828152600360205260409020546001600160a01b031633145b80610e0857506001600160a01b038116600090815260046020908152604080832033845290915290205460ff165b610e475760405162461bcd60e51b815260206004820152601060248201526f21b0b73737ba103a3930b739b332b91760811b60448201526064016108bd565b60008381526002602052604090205483906001600160a01b0316610e7d5760405162461bcd60e51b81526004016108bd90613264565b6000848152600260205260409020546001600160a01b039081169087168114610ede5760405162461bcd60e51b81526020600482015260136024820152722bb937b73390333937b69030b2323932b9b99760691b60448201526064016108bd565b6001600160a01b038616610f2a5760405162461bcd60e51b815260206004820152601360248201527221b0b73737ba1039b2b732103a3790183c181760691b60448201526064016108bd565b610f348686612274565b50505050505050565b614e365460ff1615610f4e57600080fd5b614e36805460ff19166001179055600f54600160a01b900460ff16610fa95760405162461bcd60e51b815260206004820152601160248201527029b0b632903737ba1039ba30b93a32b21760791b60448201526064016108bd565b6014811115610fca5760405162461bcd60e51b81526004016108bd906132ed565b614e20610fda82610c5060095490565b111561101e5760405162461bcd60e51b8152602060048201526013602482015272115e18d959591cc81513d2d15397d312535255606a1b60448201526064016108bd565b600b5460009061102e9083612090565b101561104c5760405162461bcd60e51b81526004016108bd90613378565b601054349061105b90836120b0565b146110a85760405162461bcd60e51b815260206004820152601f60248201527f4d415449432076616c75652073656e74206973206e6f7420636f72726563740060448201526064016108bd565b600e546001600160a01b03166108fc6110c2346002612368565b6040518115909202916000818181858888f193505050501580156110ea573d6000803e3d6000fd5b50600f546001600160a01b03166108fc611105346002612368565b6040518115909202916000818181858888f1935050505015801561112d573d6000803e3d6000fd5b5060005b81811015610d4457600a80549060006111498361349e565b91905055506001600b5461115d919061340f565b600b5561116933612140565b50806111748161349e565b915050611131565b6001600160a01b03821660009081526005602052604081205482106111a057600080fd5b6001600160a01b03831660009081526005602052604090208054839081106111ca576111ca61350f565b9060005260206000200154905092915050565b6000546001600160a01b031633146112075760405162461bcd60e51b81526004016108bd906132b8565b600f54600160a81b900460ff161561121e57600080fd5b42601455600f805460ff60a81b1916600160a81b1790556040517f993f573ffb8079ca4daf5b6e3d44f057b10842c65aeccd95ddb52e3790d2d99f90600090a1565b61127b83838360405180602001604052806000815250612374565b505050565b6000611299600a54614e2061209090919063ffffffff16565b905090565b614e3a54600160a01b900460ff166112c85760405162461bcd60e51b81526004016108bd9061328c565b336112d2826113c4565b6001600160a01b0316146112f85760405162461bcd60e51b81526004016108bd90613336565b604080516080810182526000808252602080830182815283850183815260608501848152878552614e37909352928590209351845491516001600160a01b031661010002610100600160a81b0319911515919091166001600160a81b0319909216919091171783559051600183015551600290910155517f76915038033fd095a1c41c63de78ca96195fdeb0013ce2bfe4fbc0afe4b0b1879061139e9083815260200190565b60405180910390a150565b6000614e2082106113b957600080fd5b610bad8260016133c4565b6000818152600260205260408120546001600160a01b03166113e557600080fd5b506000908152600260205260409020546001600160a01b031690565b6000546001600160a01b0316331461142b5760405162461bcd60e51b81526004016108bd906132b8565b614e3955565b60006001600160a01b03821661144657600080fd5b6001600160a01b038216600090815260056020526040902054610bad565b6000546001600160a01b0316331461148e5760405162461bcd60e51b81526004016108bd906132b8565b6114986000612589565b565b60606008805461090490613469565b601280546114b690613469565b80601f01602080910402602001604051908101604052809291908181526020018280546114e290613469565b801561152f5780601f106115045761010080835404028352916020019161152f565b820191906000526020600020905b81548152906001019060200180831161151257829003601f168201915b505050505081565b6000546001600160a01b031633146115615760405162461bcd60e51b81526004016108bd906132b8565b8051611574906012906020840190612d28565b5050565b3360008181526004602090815260408083206001600160a01b03871680855290835292819020805460ff191686151590811790915590519081529192917f17307eab39ab6107e8899845ad3d59bd9653f200f220920489ca2b5937696c31910160405180910390a35050565b614e3a54600160a01b900460ff1661160e5760405162461bcd60e51b81526004016108bd9061328c565b33611618836113c4565b6001600160a01b03161461163e5760405162461bcd60e51b81526004016108bd90613336565b6116488230610b25565b6116ba5760405162461bcd60e51b815260206004820152603860248201527f596f7520646f6e2774206f776e2074686520746f6b656e206f7220796f75206460448201527f6f206e6f742068617665206861766520617070726f76616c000000000000000060648201526084016108bd565b604080516080810182526001808252336020808401918252838501888152606080860188815260008a8152614e3785528890209651875495516001600160a81b0319909616901515610100600160a81b031916176101006001600160a01b0390961695909502949094178655905193850193909355905160029093019290925582518581529182018690529181018390527fe04275091c8ec0cacfa344ba26fef01e27e1aa9fa1c5211500f11e92ff862e05910160405180910390a1505050565b6000546001600160a01b031633146117a55760405162461bcd60e51b81526004016108bd906132b8565b600f54600160a01b900460ff16156117bc57600080fd5b42601455600f805460ff60a01b1916600160a01b1790556040517f771cfe172460b7d64cc46cca57a1e1f40f52b47cf1d16fe30c78a2935b3dd58090600090a1565b61184085858585858080601f01602080910402602001604051908101604052809392919081815260200183838082843760009201919091525061237492505050565b5050505050565b60008181526002602052604090205460609082906001600160a01b03166118805760405162461bcd60e51b81526004016108bd90613264565b601261188b846125d9565b60405160200161189c92919061316d565b604051602081830303815290604052915050919050565b6118bd8130610b25565b6118ff5760405162461bcd60e51b8152602060048201526013602482015272115c9c9bdc881dda5d1a08185c1c1c9bdd985b606a1b60448201526064016108bd565b614e3a54600160a01b900460ff166119295760405162461bcd60e51b81526004016108bd9061328c565b6000818152614e37602052604090205460ff166119845760405162461bcd60e51b815260206004820152601960248201527854686520746f6b656e206973206e6f7420666f722073616c6560381b60448201526064016108bd565b6000818152614e3760205260409020600201546119e35760405162461bcd60e51b815260206004820152601860248201527f4572726f72207769746820746f6b656e207061796d656e74000000000000000060448201526064016108bd565b6000818152614e376020908152604080832060018101546002909101548452614e38909252918290205491516370a0823160e01b815233600482015290916001600160a01b0316906370a082319060240160206040518083038186803b158015611a4c57600080fd5b505afa158015611a60573d6000803e3d6000fd5b505050506040513d601f19601f82011682018060405250810190611a8491906130a1565b1015611ad25760405162461bcd60e51b815260206004820152601a60248201527f596f7520646f206e6f74206f776e20656e6f75676820676f6c6400000000000060448201526064016108bd565b6000818152614e376020908152604080832060018101546002909101548452614e3890925291829020549151636eb1769f60e11b815233600482015230602482015290916001600160a01b03169063dd62ed3e9060440160206040518083038186803b158015611b4157600080fd5b505afa158015611b55573d6000803e3d6000fd5b505050506040513d601f19601f82011682018060405250810190611b7991906130a1565b1015611bc75760405162461bcd60e51b815260206004820152601a60248201527f596f7520616c6c6f77616e636520697320746f6f20736d616c6c00000000000060448201526064016108bd565b614e39546000611bd9826103e861340f565b614e3a546000858152614e376020526040902060010154919250611c4d9133916001600160a01b031690611c1b906103e890611c1590886120b0565b90612368565b6000878152614e3760209081526040808320600201548352614e389091529020546001600160a01b03169291906120e0565b6000838152614e37602052604090208054600190910154611c8c9133916101009091046001600160a01b031690611c1b906103e890611c1590876120b0565b611c963384612274565b6000838152614e37602090815260409182902060018101546002909101548351878152928301919091528183015290517f9695d5ebf5115e7b172f9c06e511f76a01df1de76571b792ff9b6d506f06d3ef9181900360600190a15050604080516080810182526000808252602080830182815283850183815260608501848152968452614e37909252939091209151825493516001600160a81b0319909416901515610100600160a81b031916176101006001600160a01b0390941693909302929092178155905160018201559051600290910155565b6000546001600160a01b03163314611d975760405162461bcd60e51b81526004016108bd906132b8565b6001600160a01b038116611dfc5760405162461bcd60e51b815260206004820152602660248201527f4f776e61626c653a206e6577206f776e657220697320746865207a65726f206160448201526564647265737360d01b60648201526084016108bd565b611e0581612589565b50565b611e128130610b25565b611e545760405162461bcd60e51b8152602060048201526013602482015272115c9c9bdc881dda5d1a08185c1c1c9bdd985b606a1b60448201526064016108bd565b614e3a54600160a01b900460ff16611e7e5760405162461bcd60e51b81526004016108bd9061328c565b6000818152614e37602052604090205460ff16611ed95760405162461bcd60e51b815260206004820152601960248201527854686520746f6b656e206973206e6f7420666f722073616c6560381b60448201526064016108bd565b6000818152614e37602052604090206002015415611f2f5760405162461bcd60e51b81526020600482015260136024820152724e6f74206c697374656420696e204d6174696360681b60448201526064016108bd565b6000818152614e3760205260409020600101543414611f905760405162461bcd60e51b815260206004820152601a60248201527f57726f6e6720616d6f756e74206f66204d617469632073656e7400000000000060448201526064016108bd565b614e39546000611fa2826103e861340f565b614e3a546000858152614e3760205260409020600101549192506001600160a01b0316906108fc90611fdc906103e890611c1590876120b0565b6040518115909202916000818181858888f19350505050158015612004573d6000803e3d6000fd5b506000838152614e376020526040902080546001909101546101009091046001600160a01b0316906108fc90612042906103e890611c1590866120b0565b6040518115909202916000818181858888f1935050505015801561206a573d6000803e3d6000fd5b50611c963384612274565b600061208182846133c4565b905082811015610bad57600080fd5b60008282111561209f57600080fd5b6120a9828461340f565b9392505050565b6000826120bf57506000610bad565b6120c982846133f0565b9050816120d684836133dc565b14610bad57600080fd5b604080516001600160a01b0385811660248301528416604482015260648082018490528251808303909101815260849091019091526020810180516001600160e01b03166323b872dd60e01b17905261213a9085906126f0565b50505050565b60006001600160a01b03821661218e5760405162461bcd60e51b815260206004820152601360248201527221b0b73737ba1036b4b73a103a3790183c181760691b60448201526064016108bd565b614e20600954106121d85760405162461bcd60e51b81526020600482015260146024820152732a37b5b2b7103634b6b4ba103932b0b1b432b21760611b60448201526064016108bd565b60006121e26127c2565b905060095460016121f391906133c4565b600955612200838261291e565b6040516001600160a01b0384169082907ff3cea5493d790af0133817606f7350a91d7f154ea52eaa79d179d4d231e5010290600090a360405181906001600160a01b038516906000907fddf252ad1be2c89b69c2b068fc378daa952ba7f163c4a11628f55a4df523b3ef908290a492915050565b6000818152600260205260409020546001600160a01b0316612295826129ed565b604080516080810182526000808252602080830182815283850183815260608501848152888552614e37909352949092209251835492516001600160a81b0319909316901515610100600160a81b031916176101006001600160a01b03909316929092029190911782559151600182015590516002909101556123188183612a28565b612322838361291e565b81836001600160a01b0316826001600160a01b03167fddf252ad1be2c89b69c2b068fc378daa952ba7f163c4a11628f55a4df523b3ef60405160405180910390a4505050565b60006120a982846133dc565b60008281526002602052604090205482906001600160a01b0316338114806123b257506000828152600360205260409020546001600160a01b031633145b806123e057506001600160a01b038116600090815260046020908152604080832033845290915290205460ff165b61241f5760405162461bcd60e51b815260206004820152601060248201526f21b0b73737ba103a3930b739b332b91760811b60448201526064016108bd565b60008481526002602052604090205484906001600160a01b03166124555760405162461bcd60e51b81526004016108bd90613264565b6000858152600260205260409020546001600160a01b0390811690881681146124b35760405162461bcd60e51b815260206004820152601060248201526f24b731b7b93932b1ba1037bbb732b91760811b60448201526064016108bd565b6001600160a01b0387166124c657600080fd5b6124d08787612274565b863b1561257f57604051630a85bd0160e11b81526000906001600160a01b0389169063150b7a029061250c9033908d908c908c90600401613214565b602060405180830381600087803b15801561252657600080fd5b505af115801561253a573d6000803e3d6000fd5b505050506040513d601f19601f8201168201806040525081019061255e9190612fba565b90506001600160e01b03198116630a85bd0160e11b1461257d57600080fd5b505b5050505050505050565b600080546001600160a01b038381166001600160a01b0319831681178455604051919092169283917f8be0079c531659141344cd1fd0a4f28419497f9722a3daafe3b4186f6b6457e09190a35050565b6060816125fd5750506040805180820190915260018152600360fc1b602082015290565b8160005b811561262757806126118161349e565b91506126209050600a836133dc565b9150612601565b60008167ffffffffffffffff81111561264257612642613525565b6040519080825280601f01601f19166020018201604052801561266c576020820181803683370190505b509050600061267c60018461340f565b90508593505b83156126e757612693600a856134b9565b61269e9060306133c4565b60f81b82826126ac81613452565b9350815181106126be576126be61350f565b60200101906001600160f81b031916908160001a9053506126e0600a856133dc565b9350612682565b50949350505050565b6000612745826040518060400160405280602081526020017f5361666545524332303a206c6f772d6c6576656c2063616c6c206661696c6564815250856001600160a01b0316612ba79092919063ffffffff16565b80519091501561127b57808060200190518101906127639190612f80565b61127b5760405162461bcd60e51b815260206004820152602a60248201527f5361666545524332303a204552433230206f7065726174696f6e20646964206e6044820152691bdd081cdd58d8d9595960b21b60648201526084016108bd565b600080600954614e206127d5919061340f565b6015546040805160208101929092526bffffffffffffffffffffffff193360601b169082015244605482015242607482015290915060009082906094016040516020818303038152906040528051906020012060001c61283591906134b9565b90506000601682614e20811061284d5761284d61350f565b01541561287157601682614e2081106128685761286861350f565b01549050612874565b50805b601661288160018561340f565b614e2081106128925761289261350f565b01546128be576128a360018461340f565b601683614e2081106128b7576128b761350f565b01556128f5565b60166128cb60018561340f565b614e2081106128dc576128dc61350f565b0154601683614e2081106128f2576128f261350f565b01555b601580549060006129058361349e565b909155506129169050816001612075565b935050505090565b6000818152600260205260409020546001600160a01b0316156129835760405162461bcd60e51b815260206004820152601a60248201527f43616e6e6f74206164642c20616c7265616479206f776e65642e00000000000060448201526064016108bd565b600081815260026020908152604080832080546001600160a01b0319166001600160a01b0387169081179091558084526005835290832080546001818101835582865293852001859055925290546129da91612090565b6000918252600660205260409091205550565b6000818152600360205260409020546001600160a01b031615611e0557600090815260036020526040902080546001600160a01b0319169055565b6000818152600260205260409020546001600160a01b03838116911614612a845760405162461bcd60e51b815260206004820152601060248201526f24b731b7b93932b1ba1037bbb732b91760811b60448201526064016108bd565b600081815260026020908152604080832080546001600160a01b031916905560068252808320546001600160a01b03861684526005909252822054909190612acd906001612090565b9050818114612b64576001600160a01b0384166000908152600560205260408120805483908110612b0057612b0061350f565b906000526020600020015490508060056000876001600160a01b03166001600160a01b031681526020019081526020016000208481548110612b4457612b4461350f565b600091825260208083209091019290925591825260069052604090208290555b6001600160a01b0384166000908152600560205260409020805480612b8b57612b8b6134f9565b6001900381819060005260206000200160009055905550505050565b6060612bb68484600085612bbe565b949350505050565b606082471015612c1f5760405162461bcd60e51b815260206004820152602660248201527f416464726573733a20696e73756666696369656e742062616c616e636520666f6044820152651c8818d85b1b60d21b60648201526084016108bd565b6001600160a01b0385163b612c765760405162461bcd60e51b815260206004820152601d60248201527f416464726573733a2063616c6c20746f206e6f6e2d636f6e747261637400000060448201526064016108bd565b600080866001600160a01b03168587604051612c929190613151565b60006040518083038185875af1925050503d8060008114612ccf576040519150601f19603f3d011682016040523d82523d6000602084013e612cd4565b606091505b5091509150612ce4828286612cef565b979650505050505050565b60608315612cfe5750816120a9565b825115612d0e5782518084602001fd5b8160405162461bcd60e51b81526004016108bd9190613251565b828054612d3490613469565b90600052602060002090601f016020900481019282612d565760008555612d9c565b82601f10612d6f57805160ff1916838001178555612d9c565b82800160010185558215612d9c579182015b82811115612d9c578251825591602001919060010190612d81565b50612da8929150612dac565b5090565b5b80821115612da85760008155600101612dad565b80356001600160a01b0381168114612dd857600080fd5b919050565b600060208284031215612def57600080fd5b6120a982612dc1565b60008060408385031215612e0b57600080fd5b612e1483612dc1565b9150612e2260208401612dc1565b90509250929050565b600080600060608486031215612e4057600080fd5b612e4984612dc1565b9250612e5760208501612dc1565b9150604084013590509250925092565b600080600080600060808688031215612e7f57600080fd5b612e8886612dc1565b9450612e9660208701612dc1565b935060408601359250606086013567ffffffffffffffff80821115612eba57600080fd5b818801915088601f830112612ece57600080fd5b813581811115612edd57600080fd5b896020828501011115612eef57600080fd5b9699959850939650602001949392505050565b60008060408385031215612f1557600080fd5b612f1e83612dc1565b91506020830135612f2e8161353b565b809150509250929050565b60008060408385031215612f4c57600080fd5b612f5583612dc1565b946020939093013593505050565b600060208284031215612f7557600080fd5b81356120a98161353b565b600060208284031215612f9257600080fd5b81516120a98161353b565b600060208284031215612faf57600080fd5b81356120a981613549565b600060208284031215612fcc57600080fd5b81516120a981613549565b600060208284031215612fe957600080fd5b813567ffffffffffffffff8082111561300157600080fd5b818401915084601f83011261301557600080fd5b81358181111561302757613027613525565b604051601f8201601f19908116603f0116810190838211818310171561304f5761304f613525565b8160405282815287602084870101111561306857600080fd5b826020860160208301376000928101602001929092525095945050505050565b60006020828403121561309a57600080fd5b5035919050565b6000602082840312156130b357600080fd5b5051919050565b600080604083850312156130cd57600080fd5b82359150612e2260208401612dc1565b6000806000606084860312156130f257600080fd5b505081359360208301359350604090920135919050565b60008151808452613121816020860160208601613426565b601f01601f19169290920160200192915050565b60008151613147818560208601613426565b9290920192915050565b60008251613163818460208701613426565b9190910192915050565b600080845481600182811c91508083168061318957607f831692505b60208084108214156131a957634e487b7160e01b86526022600452602486fd5b8180156131bd57600181146131ce576131fb565b60ff198616895284890196506131fb565b60008b81526020902060005b868110156131f35781548b8201529085019083016131da565b505084890196505b50505050505061320b8185613135565b95945050505050565b6001600160a01b038581168252841660208201526040810183905260806060820181905260009061324790830184613109565b9695505050505050565b6020815260006120a96020830184613109565b6020808252600e908201526d24b73b30b634b2103a37b5b2b71760911b604082015260600190565b60208082526012908201527113585c9ad95d081b9bdd081cdd185c9d195960721b604082015260600190565b6020808252818101527f4f776e61626c653a2063616c6c6572206973206e6f7420746865206f776e6572604082015260600190565b60208082526029908201527f596f752063616e206e6f7420627579206d6f7265207468616e203230204e465460408201526873206174206f6e636560b81b606082015260800190565b60208082526022908201527f596f7520617265206e6f7420746865206f776e6572206f662074686520746f6b60408201526132b760f11b606082015260800190565b6020808252602c908201527f457863656564732072656d61696e696e67207072696d6172792073616c65206f60408201526b66204d415449432073616c6560a01b606082015260800190565b600082198211156133d7576133d76134cd565b500190565b6000826133eb576133eb6134e3565b500490565b600081600019048311821515161561340a5761340a6134cd565b500290565b600082821015613421576134216134cd565b500390565b60005b83811015613441578181015183820152602001613429565b8381111561213a5750506000910152565b600081613461576134616134cd565b506000190190565b600181811c9082168061347d57607f821691505b602082108114156109d857634e487b7160e01b600052602260045260246000fd5b60006000198214156134b2576134b26134cd565b5060010190565b6000826134c8576134c86134e3565b500690565b634e487b7160e01b600052601160045260246000fd5b634e487b7160e01b600052601260045260246000fd5b634e487b7160e01b600052603160045260246000fd5b634e487b7160e01b600052603260045260246000fd5b634e487b7160e01b600052604160045260246000fd5b8015158114611e0557600080fd5b6001600160e01b031981168114611e0557600080fdfea264697066735822122014f02cbf8168faa0cc72be527ac82f5c5a9cc46d3721bd757f9d87f6cca81f8864736f6c63430008070033",
					"opcodes": "PUSH1 0xC0 PUSH1 0x40 MSTORE PUSH1 0xA PUSH1 0x80 DUP2 SWAP1 MSTORE PUSH10 0x506F6C794865726F6573 PUSH1 0xB0 SHL PUSH1 0xA0 SWAP1 DUP2 MSTORE PUSH3 0x2D SWAP2 PUSH1 0x7 SWAP2 SWAP1 PUSH3 0x25C JUMP JUMPDEST POP PUSH1 0x40 DUP1 MLOAD DUP1 DUP3 ADD SWAP1 SWAP2 MSTORE PUSH1 0xA DUP1 DUP3 MSTORE PUSH10 0x506F6C794865726F6573 PUSH1 0xB0 SHL PUSH1 0x20 SWAP1 SWAP3 ADD SWAP2 DUP3 MSTORE PUSH3 0x61 SWAP2 PUSH1 0x8 SWAP2 PUSH3 0x25C JUMP JUMPDEST POP PUSH1 0x0 PUSH1 0x9 DUP2 SWAP1 SSTORE PUSH1 0xA DUP2 SWAP1 SSTORE PUSH2 0x2710 PUSH1 0xB DUP2 SWAP1 SSTORE PUSH1 0xC SSTORE PUSH1 0xF DUP1 SLOAD PUSH2 0xFFFF PUSH1 0xA0 SHL NOT AND SWAP1 SSTORE PUSH7 0x470DE4DF820000 PUSH1 0x10 SSTORE PUSH9 0x56BC75E2D63100000 PUSH1 0x11 SSTORE PUSH1 0x15 SSTORE PUSH2 0x4E36 DUP1 SLOAD PUSH1 0xFF NOT AND SWAP1 SSTORE PUSH2 0x4E3A DUP1 SLOAD PUSH1 0xFF PUSH1 0xA0 SHL NOT AND SWAP1 SSTORE CALLVALUE DUP1 ISZERO PUSH3 0xC8 JUMPI PUSH1 0x0 DUP1 REVERT JUMPDEST POP PUSH1 0x40 MLOAD PUSH3 0x3971 CODESIZE SUB DUP1 PUSH3 0x3971 DUP4 CODECOPY DUP2 ADD PUSH1 0x40 DUP2 SWAP1 MSTORE PUSH3 0xEB SWAP2 PUSH3 0x302 JUMP JUMPDEST PUSH3 0xF6 CALLER PUSH3 0x20C JUMP JUMPDEST PUSH1 0x1 PUSH1 0x20 DUP2 SWAP1 MSTORE PUSH32 0xB45820386466A8E01597D6E1EFAF8F11BA4467972DE5CA6C1F8AA3544AC2888E DUP1 SLOAD PUSH1 0xFF NOT SWAP1 DUP2 AND DUP4 OR SWAP1 SWAP2 SSTORE PUSH32 0xB8349D7B7B0B2B924BF96F90971CDA8C7AC1EA4CDE292A182BD2A203EEF6C5D0 DUP1 SLOAD DUP3 AND DUP4 OR SWAP1 SSTORE PUSH32 0xE20BD7B4297895BDD985FAAC9360F413D46658B4C96E853899576249F1474AB DUP1 SLOAD DUP3 AND DUP4 OR SWAP1 SSTORE PUSH4 0x5B5E139F PUSH1 0xE0 SHL PUSH1 0x0 MSTORE PUSH32 0xCE9309D5FE1C6050FDFDE39D28CA0616E34393306D1CBA1A247C40F9EF5C5D09 DUP1 SLOAD SWAP1 SWAP2 AND SWAP1 SWAP2 OR SWAP1 SSTORE PUSH2 0x4E39 SWAP2 SWAP1 SWAP2 SSTORE PUSH2 0x4E3A DUP1 SLOAD PUSH1 0x1 PUSH1 0x1 PUSH1 0xA0 SHL SUB NOT SWAP1 DUP2 AND PUSH1 0x1 PUSH1 0x1 PUSH1 0xA0 SHL SUB SWAP4 DUP5 AND OR SWAP1 SWAP2 SSTORE PUSH1 0xE DUP1 SLOAD DUP3 AND SWAP6 DUP4 AND SWAP6 SWAP1 SWAP6 OR SWAP1 SWAP5 SSTORE PUSH1 0xF DUP1 SLOAD DUP6 AND SWAP4 DUP3 AND SWAP4 SWAP1 SWAP4 OR SWAP1 SWAP3 SSTORE PUSH1 0x13 DUP1 SLOAD SWAP1 SWAP4 AND SWAP2 AND OR SWAP1 SSTORE PUSH3 0x3CC JUMP JUMPDEST PUSH1 0x0 DUP1 SLOAD PUSH1 0x1 PUSH1 0x1 PUSH1 0xA0 SHL SUB DUP4 DUP2 AND PUSH1 0x1 PUSH1 0x1 PUSH1 0xA0 SHL SUB NOT DUP4 AND DUP2 OR DUP5 SSTORE PUSH1 0x40 MLOAD SWAP2 SWAP1 SWAP3 AND SWAP3 DUP4 SWAP2 PUSH32 0x8BE0079C531659141344CD1FD0A4F28419497F9722A3DAAFE3B4186F6B6457E0 SWAP2 SWAP1 LOG3 POP POP JUMP JUMPDEST DUP3 DUP1 SLOAD PUSH3 0x26A SWAP1 PUSH3 0x376 JUMP JUMPDEST SWAP1 PUSH1 0x0 MSTORE PUSH1 0x20 PUSH1 0x0 KECCAK256 SWAP1 PUSH1 0x1F ADD PUSH1 0x20 SWAP1 DIV DUP2 ADD SWAP3 DUP3 PUSH3 0x28E JUMPI PUSH1 0x0 DUP6 SSTORE PUSH3 0x2D9 JUMP JUMPDEST DUP3 PUSH1 0x1F LT PUSH3 0x2A9 JUMPI DUP1 MLOAD PUSH1 0xFF NOT AND DUP4 DUP1 ADD OR DUP6 SSTORE PUSH3 0x2D9 JUMP JUMPDEST DUP3 DUP1 ADD PUSH1 0x1 ADD DUP6 SSTORE DUP3 ISZERO PUSH3 0x2D9 JUMPI SWAP2 DUP3 ADD JUMPDEST DUP3 DUP2 GT ISZERO PUSH3 0x2D9 JUMPI DUP3 MLOAD DUP3 SSTORE SWAP2 PUSH1 0x20 ADD SWAP2 SWAP1 PUSH1 0x1 ADD SWAP1 PUSH3 0x2BC JUMP JUMPDEST POP PUSH3 0x2E7 SWAP3 SWAP2 POP PUSH3 0x2EB JUMP JUMPDEST POP SWAP1 JUMP JUMPDEST JUMPDEST DUP1 DUP3 GT ISZERO PUSH3 0x2E7 JUMPI PUSH1 0x0 DUP2 SSTORE PUSH1 0x1 ADD PUSH3 0x2EC JUMP JUMPDEST PUSH1 0x0 DUP1 PUSH1 0x0 DUP1 PUSH1 0x0 PUSH1 0xA0 DUP7 DUP9 SUB SLT ISZERO PUSH3 0x31B JUMPI PUSH1 0x0 DUP1 REVERT JUMPDEST DUP6 MLOAD PUSH3 0x328 DUP2 PUSH3 0x3B3 JUMP JUMPDEST PUSH1 0x20 DUP8 ADD MLOAD SWAP1 SWAP6 POP PUSH3 0x33B DUP2 PUSH3 0x3B3 JUMP JUMPDEST PUSH1 0x40 DUP8 ADD MLOAD SWAP1 SWAP5 POP PUSH3 0x34E DUP2 PUSH3 0x3B3 JUMP JUMPDEST PUSH1 0x60 DUP8 ADD MLOAD PUSH1 0x80 DUP9 ADD MLOAD SWAP2 SWAP5 POP SWAP3 POP PUSH3 0x368 DUP2 PUSH3 0x3B3 JUMP JUMPDEST DUP1 SWAP2 POP POP SWAP3 SWAP6 POP SWAP3 SWAP6 SWAP1 SWAP4 POP JUMP JUMPDEST PUSH1 0x1 DUP2 DUP2 SHR SWAP1 DUP3 AND DUP1 PUSH3 0x38B JUMPI PUSH1 0x7F DUP3 AND SWAP2 POP JUMPDEST PUSH1 0x20 DUP3 LT DUP2 EQ ISZERO PUSH3 0x3AD JUMPI PUSH4 0x4E487B71 PUSH1 0xE0 SHL PUSH1 0x0 MSTORE PUSH1 0x22 PUSH1 0x4 MSTORE PUSH1 0x24 PUSH1 0x0 REVERT JUMPDEST POP SWAP2 SWAP1 POP JUMP JUMPDEST PUSH1 0x1 PUSH1 0x1 PUSH1 0xA0 SHL SUB DUP2 AND DUP2 EQ PUSH3 0x3C9 JUMPI PUSH1 0x0 DUP1 REVERT JUMPDEST POP JUMP JUMPDEST PUSH2 0x3595 DUP1 PUSH3 0x3DC PUSH1 0x0 CODECOPY PUSH1 0x0 RETURN INVALID PUSH1 0x80 PUSH1 0x40 MSTORE PUSH1 0x4 CALLDATASIZE LT PUSH2 0x27D JUMPI PUSH1 0x0 CALLDATALOAD PUSH1 0xE0 SHR DUP1 PUSH4 0x6EF25C3A GT PUSH2 0x14F JUMPI DUP1 PUSH4 0xB88D4FDE GT PUSH2 0xC1 JUMPI DUP1 PUSH4 0xE985E9C5 GT PUSH2 0x7A JUMPI DUP1 PUSH4 0xE985E9C5 EQ PUSH2 0x7C0 JUMPI DUP1 PUSH4 0xED38B79C EQ PUSH2 0x809 JUMPI DUP1 PUSH4 0xF25F4B56 EQ PUSH2 0x81F JUMPI DUP1 PUSH4 0xF2FDE38B EQ PUSH2 0x840 JUMPI DUP1 PUSH4 0xF9AE7AAF EQ PUSH2 0x860 JUMPI DUP1 PUSH4 0xFBEC6F21 EQ PUSH2 0x873 JUMPI PUSH1 0x0 DUP1 REVERT JUMPDEST DUP1 PUSH4 0xB88D4FDE EQ PUSH2 0x6E6 JUMPI DUP1 PUSH4 0xBA1F879F EQ PUSH2 0x706 JUMPI DUP1 PUSH4 0xC2DB2C42 EQ PUSH2 0x727 JUMPI DUP1 PUSH4 0xC87B56DD EQ PUSH2 0x75E JUMPI DUP1 PUSH4 0xD4C66861 EQ PUSH2 0x77E JUMPI DUP1 PUSH4 0xE0E081D7 EQ PUSH2 0x79E JUMPI PUSH1 0x0 DUP1 REVERT JUMPDEST DUP1 PUSH4 0x95D89B41 GT PUSH2 0x113 JUMPI DUP1 PUSH4 0x95D89B41 EQ PUSH2 0x647 JUMPI DUP1 PUSH4 0x9ABC8320 EQ PUSH2 0x65C JUMPI DUP1 PUSH4 0x9B642DE1 EQ PUSH2 0x671 JUMPI DUP1 PUSH4 0xA22CB465 EQ PUSH2 0x691 JUMPI DUP1 PUSH4 0xB03053B6 EQ PUSH2 0x6B1 JUMPI DUP1 PUSH4 0xB66A0E5D EQ PUSH2 0x6D1 JUMPI PUSH1 0x0 DUP1 REVERT JUMPDEST DUP1 PUSH4 0x6EF25C3A EQ PUSH2 0x563 JUMPI DUP1 PUSH4 0x70A08231 EQ PUSH2 0x57A JUMPI DUP1 PUSH4 0x715018A6 EQ PUSH2 0x59A JUMPI DUP1 PUSH4 0x80C9419E EQ PUSH2 0x5AF JUMPI DUP1 PUSH4 0x8DA5CB5B EQ PUSH2 0x629 JUMPI PUSH1 0x0 DUP1 REVERT JUMPDEST DUP1 PUSH4 0x23B872DD GT PUSH2 0x1F3 JUMPI DUP1 PUSH4 0x44C66BE7 GT PUSH2 0x1AC JUMPI DUP1 PUSH4 0x44C66BE7 EQ PUSH2 0x4B8 JUMPI DUP1 PUSH4 0x479AD4C3 EQ PUSH2 0x4CD JUMPI DUP1 PUSH4 0x4C211C28 EQ PUSH2 0x4ED JUMPI DUP1 PUSH4 0x4F6CCCE7 EQ PUSH2 0x503 JUMPI DUP1 PUSH4 0x6352211E EQ PUSH2 0x523 JUMPI DUP1 PUSH4 0x69FE0E2D EQ PUSH2 0x543 JUMPI PUSH1 0x0 DUP1 REVERT JUMPDEST DUP1 PUSH4 0x23B872DD EQ PUSH2 0x40F JUMPI DUP1 PUSH4 0x2DB11544 EQ PUSH2 0x42F JUMPI DUP1 PUSH4 0x2F745C59 EQ PUSH2 0x442 JUMPI DUP1 PUSH4 0x338DBF59 EQ PUSH2 0x462 JUMPI DUP1 PUSH4 0x33BC1C5C EQ PUSH2 0x477 JUMPI DUP1 PUSH4 0x42842E0E EQ PUSH2 0x498 JUMPI PUSH1 0x0 DUP1 REVERT JUMPDEST DUP1 PUSH4 0x95EA7B3 GT PUSH2 0x245 JUMPI DUP1 PUSH4 0x95EA7B3 EQ PUSH2 0x371 JUMPI DUP1 PUSH4 0xCEF3DF1 EQ PUSH2 0x391 JUMPI DUP1 PUSH4 0x10A15CC8 EQ PUSH2 0x3B1 JUMPI DUP1 PUSH4 0x18160DDD EQ PUSH2 0x3C4 JUMPI DUP1 PUSH4 0x1CBAEE2D EQ PUSH2 0x3D9 JUMPI DUP1 PUSH4 0x1D2E5A3A EQ PUSH2 0x3EF JUMPI PUSH1 0x0 DUP1 REVERT JUMPDEST DUP1 PUSH4 0x1FFC9A7 EQ PUSH2 0x282 JUMPI DUP1 PUSH4 0x31BD4C4 EQ PUSH2 0x2D1 JUMPI DUP1 PUSH4 0x612C478 EQ PUSH2 0x2F5 JUMPI DUP1 PUSH4 0x6FDDE03 EQ PUSH2 0x317 JUMPI DUP1 PUSH4 0x81812FC EQ PUSH2 0x339 JUMPI JUMPDEST PUSH1 0x0 DUP1 REVERT JUMPDEST CALLVALUE DUP1 ISZERO PUSH2 0x28E JUMPI PUSH1 0x0 DUP1 REVERT JUMPDEST POP PUSH2 0x2BC PUSH2 0x29D CALLDATASIZE PUSH1 0x4 PUSH2 0x2F9D JUMP JUMPDEST PUSH1 0x1 PUSH1 0x1 PUSH1 0xE0 SHL SUB NOT AND PUSH1 0x0 SWAP1 DUP2 MSTORE PUSH1 0x1 PUSH1 0x20 MSTORE PUSH1 0x40 SWAP1 KECCAK256 SLOAD PUSH1 0xFF AND SWAP1 JUMP JUMPDEST PUSH1 0x40 MLOAD SWAP1 ISZERO ISZERO DUP2 MSTORE PUSH1 0x20 ADD JUMPDEST PUSH1 0x40 MLOAD DUP1 SWAP2 SUB SWAP1 RETURN JUMPDEST CALLVALUE DUP1 ISZERO PUSH2 0x2DD JUMPI PUSH1 0x0 DUP1 REVERT JUMPDEST POP PUSH2 0x2E7 PUSH2 0x4E20 DUP2 JUMP JUMPDEST PUSH1 0x40 MLOAD SWAP1 DUP2 MSTORE PUSH1 0x20 ADD PUSH2 0x2C8 JUMP JUMPDEST CALLVALUE DUP1 ISZERO PUSH2 0x301 JUMPI PUSH1 0x0 DUP1 REVERT JUMPDEST POP PUSH2 0x315 PUSH2 0x310 CALLDATASIZE PUSH1 0x4 PUSH2 0x30BA JUMP JUMPDEST PUSH2 0x893 JUMP JUMPDEST STOP JUMPDEST CALLVALUE DUP1 ISZERO PUSH2 0x323 JUMPI PUSH1 0x0 DUP1 REVERT JUMPDEST POP PUSH2 0x32C PUSH2 0x8F5 JUMP JUMPDEST PUSH1 0x40 MLOAD PUSH2 0x2C8 SWAP2 SWAP1 PUSH2 0x3251 JUMP JUMPDEST CALLVALUE DUP1 ISZERO PUSH2 0x345 JUMPI PUSH1 0x0 DUP1 REVERT JUMPDEST POP PUSH2 0x359 PUSH2 0x354 CALLDATASIZE PUSH1 0x4 PUSH2 0x3088 JUMP JUMPDEST PUSH2 0x987 JUMP JUMPDEST PUSH1 0x40 MLOAD PUSH1 0x1 PUSH1 0x1 PUSH1 0xA0 SHL SUB SWAP1 SWAP2 AND DUP2 MSTORE PUSH1 0x20 ADD PUSH2 0x2C8 JUMP JUMPDEST CALLVALUE DUP1 ISZERO PUSH2 0x37D JUMPI PUSH1 0x0 DUP1 REVERT JUMPDEST POP PUSH2 0x315 PUSH2 0x38C CALLDATASIZE PUSH1 0x4 PUSH2 0x2F39 JUMP JUMPDEST PUSH2 0x9DE JUMP JUMPDEST CALLVALUE DUP1 ISZERO PUSH2 0x39D JUMPI PUSH1 0x0 DUP1 REVERT JUMPDEST POP PUSH2 0x2BC PUSH2 0x3AC CALLDATASIZE PUSH1 0x4 PUSH2 0x30BA JUMP JUMPDEST PUSH2 0xB25 JUMP JUMPDEST PUSH2 0x315 PUSH2 0x3BF CALLDATASIZE PUSH1 0x4 PUSH2 0x3088 JUMP JUMPDEST PUSH2 0xBB3 JUMP JUMPDEST CALLVALUE DUP1 ISZERO PUSH2 0x3D0 JUMPI PUSH1 0x0 DUP1 REVERT JUMPDEST POP PUSH1 0x9 SLOAD PUSH2 0x2E7 JUMP JUMPDEST CALLVALUE DUP1 ISZERO PUSH2 0x3E5 JUMPI PUSH1 0x0 DUP1 REVERT JUMPDEST POP PUSH2 0x2E7 PUSH1 0x14 SLOAD DUP2 JUMP JUMPDEST CALLVALUE DUP1 ISZERO PUSH2 0x3FB JUMPI PUSH1 0x0 DUP1 REVERT JUMPDEST POP PUSH2 0x315 PUSH2 0x40A CALLDATASIZE PUSH1 0x4 PUSH2 0x2F63 JUMP JUMPDEST PUSH2 0xD53 JUMP JUMPDEST CALLVALUE DUP1 ISZERO PUSH2 0x41B JUMPI PUSH1 0x0 DUP1 REVERT JUMPDEST POP PUSH2 0x315 PUSH2 0x42A CALLDATASIZE PUSH1 0x4 PUSH2 0x2E2B JUMP JUMPDEST PUSH2 0xD9C JUMP JUMPDEST PUSH2 0x315 PUSH2 0x43D CALLDATASIZE PUSH1 0x4 PUSH2 0x3088 JUMP JUMPDEST PUSH2 0xF3D JUMP JUMPDEST CALLVALUE DUP1 ISZERO PUSH2 0x44E JUMPI PUSH1 0x0 DUP1 REVERT JUMPDEST POP PUSH2 0x2E7 PUSH2 0x45D CALLDATASIZE PUSH1 0x4 PUSH2 0x2F39 JUMP JUMPDEST PUSH2 0x117C JUMP JUMPDEST CALLVALUE DUP1 ISZERO PUSH2 0x46E JUMPI PUSH1 0x0 DUP1 REVERT JUMPDEST POP PUSH2 0x315 PUSH2 0x11DD JUMP JUMPDEST CALLVALUE DUP1 ISZERO PUSH2 0x483 JUMPI PUSH1 0x0 DUP1 REVERT JUMPDEST POP PUSH1 0xF SLOAD PUSH2 0x2BC SWAP1 PUSH1 0x1 PUSH1 0xA0 SHL SWAP1 DIV PUSH1 0xFF AND DUP2 JUMP JUMPDEST CALLVALUE DUP1 ISZERO PUSH2 0x4A4 JUMPI PUSH1 0x0 DUP1 REVERT JUMPDEST POP PUSH2 0x315 PUSH2 0x4B3 CALLDATASIZE PUSH1 0x4 PUSH2 0x2E2B JUMP JUMPDEST PUSH2 0x1260 JUMP JUMPDEST CALLVALUE DUP1 ISZERO PUSH2 0x4C4 JUMPI PUSH1 0x0 DUP1 REVERT JUMPDEST POP PUSH2 0x2E7 PUSH2 0x1280 JUMP JUMPDEST CALLVALUE DUP1 ISZERO PUSH2 0x4D9 JUMPI PUSH1 0x0 DUP1 REVERT JUMPDEST POP PUSH2 0x315 PUSH2 0x4E8 CALLDATASIZE PUSH1 0x4 PUSH2 0x3088 JUMP JUMPDEST PUSH2 0x129E JUMP JUMPDEST CALLVALUE DUP1 ISZERO PUSH2 0x4F9 JUMPI PUSH1 0x0 DUP1 REVERT JUMPDEST POP PUSH2 0x2E7 PUSH1 0xB SLOAD DUP2 JUMP JUMPDEST CALLVALUE DUP1 ISZERO PUSH2 0x50F JUMPI PUSH1 0x0 DUP1 REVERT JUMPDEST POP PUSH2 0x2E7 PUSH2 0x51E CALLDATASIZE PUSH1 0x4 PUSH2 0x3088 JUMP JUMPDEST PUSH2 0x13A9 JUMP JUMPDEST CALLVALUE DUP1 ISZERO PUSH2 0x52F JUMPI PUSH1 0x0 DUP1 REVERT JUMPDEST POP PUSH2 0x359 PUSH2 0x53E CALLDATASIZE PUSH1 0x4 PUSH2 0x3088 JUMP JUMPDEST PUSH2 0x13C4 JUMP JUMPDEST CALLVALUE DUP1 ISZERO PUSH2 0x54F JUMPI PUSH1 0x0 DUP1 REVERT JUMPDEST POP PUSH2 0x315 PUSH2 0x55E CALLDATASIZE PUSH1 0x4 PUSH2 0x3088 JUMP JUMPDEST PUSH2 0x1401 JUMP JUMPDEST CALLVALUE DUP1 ISZERO PUSH2 0x56F JUMPI PUSH1 0x0 DUP1 REVERT JUMPDEST POP PUSH2 0x2E7 PUSH2 0x4E39 SLOAD DUP2 JUMP JUMPDEST CALLVALUE DUP1 ISZERO PUSH2 0x586 JUMPI PUSH1 0x0 DUP1 REVERT JUMPDEST POP PUSH2 0x2E7 PUSH2 0x595 CALLDATASIZE PUSH1 0x4 PUSH2 0x2DDD JUMP JUMPDEST PUSH2 0x1431 JUMP JUMPDEST CALLVALUE DUP1 ISZERO PUSH2 0x5A6 JUMPI PUSH1 0x0 DUP1 REVERT JUMPDEST POP PUSH2 0x315 PUSH2 0x1464 JUMP JUMPDEST CALLVALUE DUP1 ISZERO PUSH2 0x5BB JUMPI PUSH1 0x0 DUP1 REVERT JUMPDEST POP PUSH2 0x5FF PUSH2 0x5CA CALLDATASIZE PUSH1 0x4 PUSH2 0x3088 JUMP JUMPDEST PUSH2 0x4E37 PUSH1 0x20 MSTORE PUSH1 0x0 SWAP1 DUP2 MSTORE PUSH1 0x40 SWAP1 KECCAK256 DUP1 SLOAD PUSH1 0x1 DUP3 ADD SLOAD PUSH1 0x2 SWAP1 SWAP3 ADD SLOAD PUSH1 0xFF DUP3 AND SWAP3 PUSH2 0x100 SWAP1 SWAP3 DIV PUSH1 0x1 PUSH1 0x1 PUSH1 0xA0 SHL SUB AND SWAP2 SWAP1 DUP5 JUMP JUMPDEST PUSH1 0x40 DUP1 MLOAD SWAP5 ISZERO ISZERO DUP6 MSTORE PUSH1 0x1 PUSH1 0x1 PUSH1 0xA0 SHL SUB SWAP1 SWAP4 AND PUSH1 0x20 DUP6 ADD MSTORE SWAP2 DUP4 ADD MSTORE PUSH1 0x60 DUP3 ADD MSTORE PUSH1 0x80 ADD PUSH2 0x2C8 JUMP JUMPDEST CALLVALUE DUP1 ISZERO PUSH2 0x635 JUMPI PUSH1 0x0 DUP1 REVERT JUMPDEST POP PUSH1 0x0 SLOAD PUSH1 0x1 PUSH1 0x1 PUSH1 0xA0 SHL SUB AND PUSH2 0x359 JUMP JUMPDEST CALLVALUE DUP1 ISZERO PUSH2 0x653 JUMPI PUSH1 0x0 DUP1 REVERT JUMPDEST POP PUSH2 0x32C PUSH2 0x149A JUMP JUMPDEST CALLVALUE DUP1 ISZERO PUSH2 0x668 JUMPI PUSH1 0x0 DUP1 REVERT JUMPDEST POP PUSH2 0x32C PUSH2 0x14A9 JUMP JUMPDEST CALLVALUE DUP1 ISZERO PUSH2 0x67D JUMPI PUSH1 0x0 DUP1 REVERT JUMPDEST POP PUSH2 0x315 PUSH2 0x68C CALLDATASIZE PUSH1 0x4 PUSH2 0x2FD7 JUMP JUMPDEST PUSH2 0x1537 JUMP JUMPDEST CALLVALUE DUP1 ISZERO PUSH2 0x69D JUMPI PUSH1 0x0 DUP1 REVERT JUMPDEST POP PUSH2 0x315 PUSH2 0x6AC CALLDATASIZE PUSH1 0x4 PUSH2 0x2F02 JUMP JUMPDEST PUSH2 0x1578 JUMP JUMPDEST CALLVALUE DUP1 ISZERO PUSH2 0x6BD JUMPI PUSH1 0x0 DUP1 REVERT JUMPDEST POP PUSH2 0x315 PUSH2 0x6CC CALLDATASIZE PUSH1 0x4 PUSH2 0x30DD JUMP JUMPDEST PUSH2 0x15E4 JUMP JUMPDEST CALLVALUE DUP1 ISZERO PUSH2 0x6DD JUMPI PUSH1 0x0 DUP1 REVERT JUMPDEST POP PUSH2 0x315 PUSH2 0x177B JUMP JUMPDEST CALLVALUE DUP1 ISZERO PUSH2 0x6F2 JUMPI PUSH1 0x0 DUP1 REVERT JUMPDEST POP PUSH2 0x315 PUSH2 0x701 CALLDATASIZE PUSH1 0x4 PUSH2 0x2E67 JUMP JUMPDEST PUSH2 0x17FE JUMP JUMPDEST CALLVALUE DUP1 ISZERO PUSH2 0x712 JUMPI PUSH1 0x0 DUP1 REVERT JUMPDEST POP PUSH1 0xF SLOAD PUSH2 0x2BC SWAP1 PUSH1 0x1 PUSH1 0xA8 SHL SWAP1 DIV PUSH1 0xFF AND DUP2 JUMP JUMPDEST CALLVALUE DUP1 ISZERO PUSH2 0x733 JUMPI PUSH1 0x0 DUP1 REVERT JUMPDEST POP PUSH2 0x359 PUSH2 0x742 CALLDATASIZE PUSH1 0x4 PUSH2 0x3088 JUMP JUMPDEST PUSH2 0x4E38 PUSH1 0x20 MSTORE PUSH1 0x0 SWAP1 DUP2 MSTORE PUSH1 0x40 SWAP1 KECCAK256 SLOAD PUSH1 0x1 PUSH1 0x1 PUSH1 0xA0 SHL SUB AND DUP2 JUMP JUMPDEST CALLVALUE DUP1 ISZERO PUSH2 0x76A JUMPI PUSH1 0x0 DUP1 REVERT JUMPDEST POP PUSH2 0x32C PUSH2 0x779 CALLDATASIZE PUSH1 0x4 PUSH2 0x3088 JUMP JUMPDEST PUSH2 0x1847 JUMP JUMPDEST CALLVALUE DUP1 ISZERO PUSH2 0x78A JUMPI PUSH1 0x0 DUP1 REVERT JUMPDEST POP PUSH2 0x315 PUSH2 0x799 CALLDATASIZE PUSH1 0x4 PUSH2 0x3088 JUMP JUMPDEST PUSH2 0x18B3 JUMP JUMPDEST CALLVALUE DUP1 ISZERO PUSH2 0x7AA JUMPI PUSH1 0x0 DUP1 REVERT JUMPDEST POP PUSH2 0x4E3A SLOAD PUSH2 0x2BC SWAP1 PUSH1 0x1 PUSH1 0xA0 SHL SWAP1 DIV PUSH1 0xFF AND DUP2 JUMP JUMPDEST CALLVALUE DUP1 ISZERO PUSH2 0x7CC JUMPI PUSH1 0x0 DUP1 REVERT JUMPDEST POP PUSH2 0x2BC PUSH2 0x7DB CALLDATASIZE PUSH1 0x4 PUSH2 0x2DF8 JUMP JUMPDEST PUSH1 0x1 PUSH1 0x1 PUSH1 0xA0 SHL SUB SWAP2 DUP3 AND PUSH1 0x0 SWAP1 DUP2 MSTORE PUSH1 0x4 PUSH1 0x20 SWAP1 DUP2 MSTORE PUSH1 0x40 DUP1 DUP4 KECCAK256 SWAP4 SWAP1 SWAP5 AND DUP3 MSTORE SWAP2 SWAP1 SWAP2 MSTORE KECCAK256 SLOAD PUSH1 0xFF AND SWAP1 JUMP JUMPDEST CALLVALUE DUP1 ISZERO PUSH2 0x815 JUMPI PUSH1 0x0 DUP1 REVERT JUMPDEST POP PUSH2 0x2E7 PUSH1 0xC SLOAD DUP2 JUMP JUMPDEST CALLVALUE DUP1 ISZERO PUSH2 0x82B JUMPI PUSH1 0x0 DUP1 REVERT JUMPDEST POP PUSH2 0x4E3A SLOAD PUSH2 0x359 SWAP1 PUSH1 0x1 PUSH1 0x1 PUSH1 0xA0 SHL SUB AND DUP2 JUMP JUMPDEST CALLVALUE DUP1 ISZERO PUSH2 0x84C JUMPI PUSH1 0x0 DUP1 REVERT JUMPDEST POP PUSH2 0x315 PUSH2 0x85B CALLDATASIZE PUSH1 0x4 PUSH2 0x2DDD JUMP JUMPDEST PUSH2 0x1D6D JUMP JUMPDEST PUSH2 0x315 PUSH2 0x86E CALLDATASIZE PUSH1 0x4 PUSH2 0x3088 JUMP JUMPDEST PUSH2 0x1E08 JUMP JUMPDEST CALLVALUE DUP1 ISZERO PUSH2 0x87F JUMPI PUSH1 0x0 DUP1 REVERT JUMPDEST POP PUSH1 0x13 SLOAD PUSH2 0x359 SWAP1 PUSH1 0x1 PUSH1 0x1 PUSH1 0xA0 SHL SUB AND DUP2 JUMP JUMPDEST PUSH1 0x0 SLOAD PUSH1 0x1 PUSH1 0x1 PUSH1 0xA0 SHL SUB AND CALLER EQ PUSH2 0x8C6 JUMPI PUSH1 0x40 MLOAD PUSH3 0x461BCD PUSH1 0xE5 SHL DUP2 MSTORE PUSH1 0x4 ADD PUSH2 0x8BD SWAP1 PUSH2 0x32B8 JUMP JUMPDEST PUSH1 0x40 MLOAD DUP1 SWAP2 SUB SWAP1 REVERT JUMPDEST PUSH1 0x0 SWAP2 DUP3 MSTORE PUSH2 0x4E38 PUSH1 0x20 MSTORE PUSH1 0x40 SWAP1 SWAP2 KECCAK256 DUP1 SLOAD PUSH1 0x1 PUSH1 0x1 PUSH1 0xA0 SHL SUB NOT AND PUSH1 0x1 PUSH1 0x1 PUSH1 0xA0 SHL SUB SWAP1 SWAP3 AND SWAP2 SWAP1 SWAP2 OR SWAP1 SSTORE JUMP JUMPDEST PUSH1 0x60 PUSH1 0x7 DUP1 SLOAD PUSH2 0x904 SWAP1 PUSH2 0x3469 JUMP JUMPDEST DUP1 PUSH1 0x1F ADD PUSH1 0x20 DUP1 SWAP2 DIV MUL PUSH1 0x20 ADD PUSH1 0x40 MLOAD SWAP1 DUP2 ADD PUSH1 0x40 MSTORE DUP1 SWAP3 SWAP2 SWAP1 DUP2 DUP2 MSTORE PUSH1 0x20 ADD DUP3 DUP1 SLOAD PUSH2 0x930 SWAP1 PUSH2 0x3469 JUMP JUMPDEST DUP1 ISZERO PUSH2 0x97D JUMPI DUP1 PUSH1 0x1F LT PUSH2 0x952 JUMPI PUSH2 0x100 DUP1 DUP4 SLOAD DIV MUL DUP4 MSTORE SWAP2 PUSH1 0x20 ADD SWAP2 PUSH2 0x97D JUMP JUMPDEST DUP3 ADD SWAP2 SWAP1 PUSH1 0x0 MSTORE PUSH1 0x20 PUSH1 0x0 KECCAK256 SWAP1 JUMPDEST DUP2 SLOAD DUP2 MSTORE SWAP1 PUSH1 0x1 ADD SWAP1 PUSH1 0x20 ADD DUP1 DUP4 GT PUSH2 0x960 JUMPI DUP3 SWAP1 SUB PUSH1 0x1F AND DUP3 ADD SWAP2 JUMPDEST POP POP POP POP POP SWAP1 POP SWAP1 JUMP JUMPDEST PUSH1 0x0 DUP2 DUP2 MSTORE PUSH1 0x2 PUSH1 0x20 MSTORE PUSH1 0x40 DUP2 KECCAK256 SLOAD DUP3 SWAP1 PUSH1 0x1 PUSH1 0x1 PUSH1 0xA0 SHL SUB AND PUSH2 0x9BD JUMPI PUSH1 0x40 MLOAD PUSH3 0x461BCD PUSH1 0xE5 SHL DUP2 MSTORE PUSH1 0x4 ADD PUSH2 0x8BD SWAP1 PUSH2 0x3264 JUMP JUMPDEST PUSH1 0x0 DUP4 DUP2 MSTORE PUSH1 0x3 PUSH1 0x20 MSTORE PUSH1 0x40 SWAP1 KECCAK256 SLOAD PUSH1 0x1 PUSH1 0x1 PUSH1 0xA0 SHL SUB AND SWAP2 POP JUMPDEST POP SWAP2 SWAP1 POP JUMP JUMPDEST PUSH1 0x0 DUP2 DUP2 MSTORE PUSH1 0x2 PUSH1 0x20 MSTORE PUSH1 0x40 SWAP1 KECCAK256 SLOAD DUP2 SWAP1 PUSH1 0x1 PUSH1 0x1 PUSH1 0xA0 SHL SUB AND CALLER DUP2 EQ DUP1 PUSH2 0xA29 JUMPI POP PUSH1 0x1 PUSH1 0x1 PUSH1 0xA0 SHL SUB DUP2 AND PUSH1 0x0 SWAP1 DUP2 MSTORE PUSH1 0x4 PUSH1 0x20 SWAP1 DUP2 MSTORE PUSH1 0x40 DUP1 DUP4 KECCAK256 CALLER DUP5 MSTORE SWAP1 SWAP2 MSTORE SWAP1 KECCAK256 SLOAD PUSH1 0xFF AND JUMPDEST PUSH2 0xA67 JUMPI PUSH1 0x40 MLOAD PUSH3 0x461BCD PUSH1 0xE5 SHL DUP2 MSTORE PUSH1 0x20 PUSH1 0x4 DUP3 ADD MSTORE PUSH1 0xF PUSH1 0x24 DUP3 ADD MSTORE PUSH15 0x21B0B73737BA1037B832B930BA3297 PUSH1 0x89 SHL PUSH1 0x44 DUP3 ADD MSTORE PUSH1 0x64 ADD PUSH2 0x8BD JUMP JUMPDEST PUSH1 0x0 DUP4 DUP2 MSTORE PUSH1 0x2 PUSH1 0x20 MSTORE PUSH1 0x40 SWAP1 KECCAK256 SLOAD DUP4 SWAP1 PUSH1 0x1 PUSH1 0x1 PUSH1 0xA0 SHL SUB AND PUSH2 0xA9D JUMPI PUSH1 0x40 MLOAD PUSH3 0x461BCD PUSH1 0xE5 SHL DUP2 MSTORE PUSH1 0x4 ADD PUSH2 0x8BD SWAP1 PUSH2 0x3264 JUMP JUMPDEST PUSH1 0x0 DUP5 DUP2 MSTORE PUSH1 0x2 PUSH1 0x20 MSTORE PUSH1 0x40 SWAP1 KECCAK256 SLOAD PUSH1 0x1 PUSH1 0x1 PUSH1 0xA0 SHL SUB SWAP1 DUP2 AND SWAP1 DUP7 AND DUP2 EQ ISZERO PUSH2 0xAC6 JUMPI PUSH1 0x0 DUP1 REVERT JUMPDEST PUSH1 0x0 DUP6 DUP2 MSTORE PUSH1 0x3 PUSH1 0x20 MSTORE PUSH1 0x40 DUP1 DUP3 KECCAK256 DUP1 SLOAD PUSH1 0x1 PUSH1 0x1 PUSH1 0xA0 SHL SUB NOT AND PUSH1 0x1 PUSH1 0x1 PUSH1 0xA0 SHL SUB DUP11 DUP2 AND SWAP2 DUP3 OR SWAP1 SWAP3 SSTORE SWAP2 MLOAD DUP9 SWAP4 SWAP2 DUP6 AND SWAP2 PUSH32 0x8C5BE1E5EBEC7D5BD14F71427D1E84F3DD0314C0F7B2291E5B200AC8C7C3B925 SWAP2 LOG4 POP POP POP POP POP POP JUMP JUMPDEST PUSH1 0x0 DUP3 DUP2 MSTORE PUSH1 0x2 PUSH1 0x20 MSTORE PUSH1 0x40 DUP2 KECCAK256 SLOAD PUSH1 0x1 PUSH1 0x1 PUSH1 0xA0 SHL SUB SWAP1 DUP2 AND SWAP1 DUP4 AND DUP2 EQ DUP1 PUSH2 0xB68 JUMPI POP PUSH1 0x0 DUP5 DUP2 MSTORE PUSH1 0x3 PUSH1 0x20 MSTORE PUSH1 0x40 SWAP1 KECCAK256 SLOAD PUSH1 0x1 PUSH1 0x1 PUSH1 0xA0 SHL SUB DUP5 DUP2 AND SWAP2 AND EQ JUMPDEST DUP1 PUSH2 0xB98 JUMPI POP PUSH1 0x1 PUSH1 0x1 PUSH1 0xA0 SHL SUB DUP1 DUP3 AND PUSH1 0x0 SWAP1 DUP2 MSTORE PUSH1 0x4 PUSH1 0x20 SWAP1 DUP2 MSTORE PUSH1 0x40 DUP1 DUP4 KECCAK256 SWAP4 DUP8 AND DUP4 MSTORE SWAP3 SWAP1 MSTORE KECCAK256 SLOAD PUSH1 0xFF AND JUMPDEST ISZERO PUSH2 0xBA7 JUMPI PUSH1 0x1 SWAP2 POP POP PUSH2 0xBAD JUMP JUMPDEST PUSH1 0x0 SWAP2 POP POP JUMPDEST SWAP3 SWAP2 POP POP JUMP JUMPDEST PUSH2 0x4E36 SLOAD PUSH1 0xFF AND ISZERO PUSH2 0xBC4 JUMPI PUSH1 0x0 DUP1 REVERT JUMPDEST PUSH2 0x4E36 DUP1 SLOAD PUSH1 0xFF NOT AND PUSH1 0x1 OR SWAP1 SSTORE PUSH1 0xF SLOAD PUSH1 0x1 PUSH1 0xA0 SHL SWAP1 DIV PUSH1 0xFF AND PUSH2 0xC1F JUMPI PUSH1 0x40 MLOAD PUSH3 0x461BCD PUSH1 0xE5 SHL DUP2 MSTORE PUSH1 0x20 PUSH1 0x4 DUP3 ADD MSTORE PUSH1 0x11 PUSH1 0x24 DUP3 ADD MSTORE PUSH17 0x29B0B632903737BA1039BA30B93A32B217 PUSH1 0x79 SHL PUSH1 0x44 DUP3 ADD MSTORE PUSH1 0x64 ADD PUSH2 0x8BD JUMP JUMPDEST PUSH1 0x14 DUP2 GT ISZERO PUSH2 0xC40 JUMPI PUSH1 0x40 MLOAD PUSH3 0x461BCD PUSH1 0xE5 SHL DUP2 MSTORE PUSH1 0x4 ADD PUSH2 0x8BD SWAP1 PUSH2 0x32ED JUMP JUMPDEST PUSH2 0x4E20 PUSH2 0xC56 DUP3 PUSH2 0xC50 PUSH1 0x9 SLOAD SWAP1 JUMP JUMPDEST SWAP1 PUSH2 0x2075 JUMP JUMPDEST GT ISZERO PUSH2 0xC9A JUMPI PUSH1 0x40 MLOAD PUSH3 0x461BCD PUSH1 0xE5 SHL DUP2 MSTORE PUSH1 0x20 PUSH1 0x4 DUP3 ADD MSTORE PUSH1 0x13 PUSH1 0x24 DUP3 ADD MSTORE PUSH19 0x115E18D959591CC81513D2D15397D312535255 PUSH1 0x6A SHL PUSH1 0x44 DUP3 ADD MSTORE PUSH1 0x64 ADD PUSH2 0x8BD JUMP JUMPDEST PUSH1 0xC SLOAD PUSH1 0x0 SWAP1 PUSH2 0xCAA SWAP1 DUP4 PUSH2 0x2090 JUMP JUMPDEST LT ISZERO PUSH2 0xCC8 JUMPI PUSH1 0x40 MLOAD PUSH3 0x461BCD PUSH1 0xE5 SHL DUP2 MSTORE PUSH1 0x4 ADD PUSH2 0x8BD SWAP1 PUSH2 0x3378 JUMP JUMPDEST PUSH2 0xCF6 CALLER ADDRESS PUSH2 0xCE2 DUP5 PUSH1 0x11 SLOAD PUSH2 0x20B0 SWAP1 SWAP2 SWAP1 PUSH4 0xFFFFFFFF AND JUMP JUMPDEST PUSH1 0x13 SLOAD PUSH1 0x1 PUSH1 0x1 PUSH1 0xA0 SHL SUB AND SWAP3 SWAP2 SWAP1 PUSH2 0x20E0 JUMP JUMPDEST PUSH1 0x0 JUMPDEST DUP2 DUP2 LT ISZERO PUSH2 0xD44 JUMPI PUSH1 0xA DUP1 SLOAD SWAP1 PUSH1 0x0 PUSH2 0xD11 DUP4 PUSH2 0x349E JUMP JUMPDEST SWAP2 SWAP1 POP SSTORE POP PUSH1 0x1 PUSH1 0xC SLOAD PUSH2 0xD25 SWAP2 SWAP1 PUSH2 0x340F JUMP JUMPDEST PUSH1 0xC SSTORE PUSH2 0xD31 CALLER PUSH2 0x2140 JUMP JUMPDEST POP DUP1 PUSH2 0xD3C DUP2 PUSH2 0x349E JUMP JUMPDEST SWAP2 POP POP PUSH2 0xCF9 JUMP JUMPDEST POP POP PUSH2 0x4E36 DUP1 SLOAD PUSH1 0xFF NOT AND SWAP1 SSTORE JUMP JUMPDEST PUSH1 0x0 SLOAD PUSH1 0x1 PUSH1 0x1 PUSH1 0xA0 SHL SUB AND CALLER EQ PUSH2 0xD7D JUMPI PUSH1 0x40 MLOAD PUSH3 0x461BCD PUSH1 0xE5 SHL DUP2 MSTORE PUSH1 0x4 ADD PUSH2 0x8BD SWAP1 PUSH2 0x32B8 JUMP JUMPDEST PUSH2 0x4E3A DUP1 SLOAD SWAP2 ISZERO ISZERO PUSH1 0x1 PUSH1 0xA0 SHL MUL PUSH1 0xFF PUSH1 0xA0 SHL NOT SWAP1 SWAP3 AND SWAP2 SWAP1 SWAP2 OR SWAP1 SSTORE JUMP JUMPDEST PUSH1 0x0 DUP2 DUP2 MSTORE PUSH1 0x2 PUSH1 0x20 MSTORE PUSH1 0x40 SWAP1 KECCAK256 SLOAD DUP2 SWAP1 PUSH1 0x1 PUSH1 0x1 PUSH1 0xA0 SHL SUB AND CALLER DUP2 EQ DUP1 PUSH2 0xDDA JUMPI POP PUSH1 0x0 DUP3 DUP2 MSTORE PUSH1 0x3 PUSH1 0x20 MSTORE PUSH1 0x40 SWAP1 KECCAK256 SLOAD PUSH1 0x1 PUSH1 0x1 PUSH1 0xA0 SHL SUB AND CALLER EQ JUMPDEST DUP1 PUSH2 0xE08 JUMPI POP PUSH1 0x1 PUSH1 0x1 PUSH1 0xA0 SHL SUB DUP2 AND PUSH1 0x0 SWAP1 DUP2 MSTORE PUSH1 0x4 PUSH1 0x20 SWAP1 DUP2 MSTORE PUSH1 0x40 DUP1 DUP4 KECCAK256 CALLER DUP5 MSTORE SWAP1 SWAP2 MSTORE SWAP1 KECCAK256 SLOAD PUSH1 0xFF AND JUMPDEST PUSH2 0xE47 JUMPI PUSH1 0x40 MLOAD PUSH3 0x461BCD PUSH1 0xE5 SHL DUP2 MSTORE PUSH1 0x20 PUSH1 0x4 DUP3 ADD MSTORE PUSH1 0x10 PUSH1 0x24 DUP3 ADD MSTORE PUSH16 0x21B0B73737BA103A3930B739B332B917 PUSH1 0x81 SHL PUSH1 0x44 DUP3 ADD MSTORE PUSH1 0x64 ADD PUSH2 0x8BD JUMP JUMPDEST PUSH1 0x0 DUP4 DUP2 MSTORE PUSH1 0x2 PUSH1 0x20 MSTORE PUSH1 0x40 SWAP1 KECCAK256 SLOAD DUP4 SWAP1 PUSH1 0x1 PUSH1 0x1 PUSH1 0xA0 SHL SUB AND PUSH2 0xE7D JUMPI PUSH1 0x40 MLOAD PUSH3 0x461BCD PUSH1 0xE5 SHL DUP2 MSTORE PUSH1 0x4 ADD PUSH2 0x8BD SWAP1 PUSH2 0x3264 JUMP JUMPDEST PUSH1 0x0 DUP5 DUP2 MSTORE PUSH1 0x2 PUSH1 0x20 MSTORE PUSH1 0x40 SWAP1 KECCAK256 SLOAD PUSH1 0x1 PUSH1 0x1 PUSH1 0xA0 SHL SUB SWAP1 DUP2 AND SWAP1 DUP8 AND DUP2 EQ PUSH2 0xEDE JUMPI PUSH1 0x40 MLOAD PUSH3 0x461BCD PUSH1 0xE5 SHL DUP2 MSTORE PUSH1 0x20 PUSH1 0x4 DUP3 ADD MSTORE PUSH1 0x13 PUSH1 0x24 DUP3 ADD MSTORE PUSH19 0x2BB937B73390333937B69030B2323932B9B997 PUSH1 0x69 SHL PUSH1 0x44 DUP3 ADD MSTORE PUSH1 0x64 ADD PUSH2 0x8BD JUMP JUMPDEST PUSH1 0x1 PUSH1 0x1 PUSH1 0xA0 SHL SUB DUP7 AND PUSH2 0xF2A JUMPI PUSH1 0x40 MLOAD PUSH3 0x461BCD PUSH1 0xE5 SHL DUP2 MSTORE PUSH1 0x20 PUSH1 0x4 DUP3 ADD MSTORE PUSH1 0x13 PUSH1 0x24 DUP3 ADD MSTORE PUSH19 0x21B0B73737BA1039B2B732103A3790183C1817 PUSH1 0x69 SHL PUSH1 0x44 DUP3 ADD MSTORE PUSH1 0x64 ADD PUSH2 0x8BD JUMP JUMPDEST PUSH2 0xF34 DUP7 DUP7 PUSH2 0x2274 JUMP JUMPDEST POP POP POP POP POP POP POP JUMP JUMPDEST PUSH2 0x4E36 SLOAD PUSH1 0xFF AND ISZERO PUSH2 0xF4E JUMPI PUSH1 0x0 DUP1 REVERT JUMPDEST PUSH2 0x4E36 DUP1 SLOAD PUSH1 0xFF NOT AND PUSH1 0x1 OR SWAP1 SSTORE PUSH1 0xF SLOAD PUSH1 0x1 PUSH1 0xA0 SHL SWAP1 DIV PUSH1 0xFF AND PUSH2 0xFA9 JUMPI PUSH1 0x40 MLOAD PUSH3 0x461BCD PUSH1 0xE5 SHL DUP2 MSTORE PUSH1 0x20 PUSH1 0x4 DUP3 ADD MSTORE PUSH1 0x11 PUSH1 0x24 DUP3 ADD MSTORE PUSH17 0x29B0B632903737BA1039BA30B93A32B217 PUSH1 0x79 SHL PUSH1 0x44 DUP3 ADD MSTORE PUSH1 0x64 ADD PUSH2 0x8BD JUMP JUMPDEST PUSH1 0x14 DUP2 GT ISZERO PUSH2 0xFCA JUMPI PUSH1 0x40 MLOAD PUSH3 0x461BCD PUSH1 0xE5 SHL DUP2 MSTORE PUSH1 0x4 ADD PUSH2 0x8BD SWAP1 PUSH2 0x32ED JUMP JUMPDEST PUSH2 0x4E20 PUSH2 0xFDA DUP3 PUSH2 0xC50 PUSH1 0x9 SLOAD SWAP1 JUMP JUMPDEST GT ISZERO PUSH2 0x101E JUMPI PUSH1 0x40 MLOAD PUSH3 0x461BCD PUSH1 0xE5 SHL DUP2 MSTORE PUSH1 0x20 PUSH1 0x4 DUP3 ADD MSTORE PUSH1 0x13 PUSH1 0x24 DUP3 ADD MSTORE PUSH19 0x115E18D959591CC81513D2D15397D312535255 PUSH1 0x6A SHL PUSH1 0x44 DUP3 ADD MSTORE PUSH1 0x64 ADD PUSH2 0x8BD JUMP JUMPDEST PUSH1 0xB SLOAD PUSH1 0x0 SWAP1 PUSH2 0x102E SWAP1 DUP4 PUSH2 0x2090 JUMP JUMPDEST LT ISZERO PUSH2 0x104C JUMPI PUSH1 0x40 MLOAD PUSH3 0x461BCD PUSH1 0xE5 SHL DUP2 MSTORE PUSH1 0x4 ADD PUSH2 0x8BD SWAP1 PUSH2 0x3378 JUMP JUMPDEST PUSH1 0x10 SLOAD CALLVALUE SWAP1 PUSH2 0x105B SWAP1 DUP4 PUSH2 0x20B0 JUMP JUMPDEST EQ PUSH2 0x10A8 JUMPI PUSH1 0x40 MLOAD PUSH3 0x461BCD PUSH1 0xE5 SHL DUP2 MSTORE PUSH1 0x20 PUSH1 0x4 DUP3 ADD MSTORE PUSH1 0x1F PUSH1 0x24 DUP3 ADD MSTORE PUSH32 0x4D415449432076616C75652073656E74206973206E6F7420636F727265637400 PUSH1 0x44 DUP3 ADD MSTORE PUSH1 0x64 ADD PUSH2 0x8BD JUMP JUMPDEST PUSH1 0xE SLOAD PUSH1 0x1 PUSH1 0x1 PUSH1 0xA0 SHL SUB AND PUSH2 0x8FC PUSH2 0x10C2 CALLVALUE PUSH1 0x2 PUSH2 0x2368 JUMP JUMPDEST PUSH1 0x40 MLOAD DUP2 ISZERO SWAP1 SWAP3 MUL SWAP2 PUSH1 0x0 DUP2 DUP2 DUP2 DUP6 DUP9 DUP9 CALL SWAP4 POP POP POP POP ISZERO DUP1 ISZERO PUSH2 0x10EA JUMPI RETURNDATASIZE PUSH1 0x0 DUP1 RETURNDATACOPY RETURNDATASIZE PUSH1 0x0 REVERT JUMPDEST POP PUSH1 0xF SLOAD PUSH1 0x1 PUSH1 0x1 PUSH1 0xA0 SHL SUB AND PUSH2 0x8FC PUSH2 0x1105 CALLVALUE PUSH1 0x2 PUSH2 0x2368 JUMP JUMPDEST PUSH1 0x40 MLOAD DUP2 ISZERO SWAP1 SWAP3 MUL SWAP2 PUSH1 0x0 DUP2 DUP2 DUP2 DUP6 DUP9 DUP9 CALL SWAP4 POP POP POP POP ISZERO DUP1 ISZERO PUSH2 0x112D JUMPI RETURNDATASIZE PUSH1 0x0 DUP1 RETURNDATACOPY RETURNDATASIZE PUSH1 0x0 REVERT JUMPDEST POP PUSH1 0x0 JUMPDEST DUP2 DUP2 LT ISZERO PUSH2 0xD44 JUMPI PUSH1 0xA DUP1 SLOAD SWAP1 PUSH1 0x0 PUSH2 0x1149 DUP4 PUSH2 0x349E JUMP JUMPDEST SWAP2 SWAP1 POP SSTORE POP PUSH1 0x1 PUSH1 0xB SLOAD PUSH2 0x115D SWAP2 SWAP1 PUSH2 0x340F JUMP JUMPDEST PUSH1 0xB SSTORE PUSH2 0x1169 CALLER PUSH2 0x2140 JUMP JUMPDEST POP DUP1 PUSH2 0x1174 DUP2 PUSH2 0x349E JUMP JUMPDEST SWAP2 POP POP PUSH2 0x1131 JUMP JUMPDEST PUSH1 0x1 PUSH1 0x1 PUSH1 0xA0 SHL SUB DUP3 AND PUSH1 0x0 SWAP1 DUP2 MSTORE PUSH1 0x5 PUSH1 0x20 MSTORE PUSH1 0x40 DUP2 KECCAK256 SLOAD DUP3 LT PUSH2 0x11A0 JUMPI PUSH1 0x0 DUP1 REVERT JUMPDEST PUSH1 0x1 PUSH1 0x1 PUSH1 0xA0 SHL SUB DUP4 AND PUSH1 0x0 SWAP1 DUP2 MSTORE PUSH1 0x5 PUSH1 0x20 MSTORE PUSH1 0x40 SWAP1 KECCAK256 DUP1 SLOAD DUP4 SWAP1 DUP2 LT PUSH2 0x11CA JUMPI PUSH2 0x11CA PUSH2 0x350F JUMP JUMPDEST SWAP1 PUSH1 0x0 MSTORE PUSH1 0x20 PUSH1 0x0 KECCAK256 ADD SLOAD SWAP1 POP SWAP3 SWAP2 POP POP JUMP JUMPDEST PUSH1 0x0 SLOAD PUSH1 0x1 PUSH1 0x1 PUSH1 0xA0 SHL SUB AND CALLER EQ PUSH2 0x1207 JUMPI PUSH1 0x40 MLOAD PUSH3 0x461BCD PUSH1 0xE5 SHL DUP2 MSTORE PUSH1 0x4 ADD PUSH2 0x8BD SWAP1 PUSH2 0x32B8 JUMP JUMPDEST PUSH1 0xF SLOAD PUSH1 0x1 PUSH1 0xA8 SHL SWAP1 DIV PUSH1 0xFF AND ISZERO PUSH2 0x121E JUMPI PUSH1 0x0 DUP1 REVERT JUMPDEST TIMESTAMP PUSH1 0x14 SSTORE PUSH1 0xF DUP1 SLOAD PUSH1 0xFF PUSH1 0xA8 SHL NOT AND PUSH1 0x1 PUSH1 0xA8 SHL OR SWAP1 SSTORE PUSH1 0x40 MLOAD PUSH32 0x993F573FFB8079CA4DAF5B6E3D44F057B10842C65AECCD95DDB52E3790D2D99F SWAP1 PUSH1 0x0 SWAP1 LOG1 JUMP JUMPDEST PUSH2 0x127B DUP4 DUP4 DUP4 PUSH1 0x40 MLOAD DUP1 PUSH1 0x20 ADD PUSH1 0x40 MSTORE DUP1 PUSH1 0x0 DUP2 MSTORE POP PUSH2 0x2374 JUMP JUMPDEST POP POP POP JUMP JUMPDEST PUSH1 0x0 PUSH2 0x1299 PUSH1 0xA SLOAD PUSH2 0x4E20 PUSH2 0x2090 SWAP1 SWAP2 SWAP1 PUSH4 0xFFFFFFFF AND JUMP JUMPDEST SWAP1 POP SWAP1 JUMP JUMPDEST PUSH2 0x4E3A SLOAD PUSH1 0x1 PUSH1 0xA0 SHL SWAP1 DIV PUSH1 0xFF AND PUSH2 0x12C8 JUMPI PUSH1 0x40 MLOAD PUSH3 0x461BCD PUSH1 0xE5 SHL DUP2 MSTORE PUSH1 0x4 ADD PUSH2 0x8BD SWAP1 PUSH2 0x328C JUMP JUMPDEST CALLER PUSH2 0x12D2 DUP3 PUSH2 0x13C4 JUMP JUMPDEST PUSH1 0x1 PUSH1 0x1 PUSH1 0xA0 SHL SUB AND EQ PUSH2 0x12F8 JUMPI PUSH1 0x40 MLOAD PUSH3 0x461BCD PUSH1 0xE5 SHL DUP2 MSTORE PUSH1 0x4 ADD PUSH2 0x8BD SWAP1 PUSH2 0x3336 JUMP JUMPDEST PUSH1 0x40 DUP1 MLOAD PUSH1 0x80 DUP2 ADD DUP3 MSTORE PUSH1 0x0 DUP1 DUP3 MSTORE PUSH1 0x20 DUP1 DUP4 ADD DUP3 DUP2 MSTORE DUP4 DUP6 ADD DUP4 DUP2 MSTORE PUSH1 0x60 DUP6 ADD DUP5 DUP2 MSTORE DUP8 DUP6 MSTORE PUSH2 0x4E37 SWAP1 SWAP4 MSTORE SWAP3 DUP6 SWAP1 KECCAK256 SWAP4 MLOAD DUP5 SLOAD SWAP2 MLOAD PUSH1 0x1 PUSH1 0x1 PUSH1 0xA0 SHL SUB AND PUSH2 0x100 MUL PUSH2 0x100 PUSH1 0x1 PUSH1 0xA8 SHL SUB NOT SWAP2 ISZERO ISZERO SWAP2 SWAP1 SWAP2 AND PUSH1 0x1 PUSH1 0x1 PUSH1 0xA8 SHL SUB NOT SWAP1 SWAP3 AND SWAP2 SWAP1 SWAP2 OR OR DUP4 SSTORE SWAP1 MLOAD PUSH1 0x1 DUP4 ADD SSTORE MLOAD PUSH1 0x2 SWAP1 SWAP2 ADD SSTORE MLOAD PUSH32 0x76915038033FD095A1C41C63DE78CA96195FDEB0013CE2BFE4FBC0AFE4B0B187 SWAP1 PUSH2 0x139E SWAP1 DUP4 DUP2 MSTORE PUSH1 0x20 ADD SWAP1 JUMP JUMPDEST PUSH1 0x40 MLOAD DUP1 SWAP2 SUB SWAP1 LOG1 POP JUMP JUMPDEST PUSH1 0x0 PUSH2 0x4E20 DUP3 LT PUSH2 0x13B9 JUMPI PUSH1 0x0 DUP1 REVERT JUMPDEST PUSH2 0xBAD DUP3 PUSH1 0x1 PUSH2 0x33C4 JUMP JUMPDEST PUSH1 0x0 DUP2 DUP2 MSTORE PUSH1 0x2 PUSH1 0x20 MSTORE PUSH1 0x40 DUP2 KECCAK256 SLOAD PUSH1 0x1 PUSH1 0x1 PUSH1 0xA0 SHL SUB AND PUSH2 0x13E5 JUMPI PUSH1 0x0 DUP1 REVERT JUMPDEST POP PUSH1 0x0 SWAP1 DUP2 MSTORE PUSH1 0x2 PUSH1 0x20 MSTORE PUSH1 0x40 SWAP1 KECCAK256 SLOAD PUSH1 0x1 PUSH1 0x1 PUSH1 0xA0 SHL SUB AND SWAP1 JUMP JUMPDEST PUSH1 0x0 SLOAD PUSH1 0x1 PUSH1 0x1 PUSH1 0xA0 SHL SUB AND CALLER EQ PUSH2 0x142B JUMPI PUSH1 0x40 MLOAD PUSH3 0x461BCD PUSH1 0xE5 SHL DUP2 MSTORE PUSH1 0x4 ADD PUSH2 0x8BD SWAP1 PUSH2 0x32B8 JUMP JUMPDEST PUSH2 0x4E39 SSTORE JUMP JUMPDEST PUSH1 0x0 PUSH1 0x1 PUSH1 0x1 PUSH1 0xA0 SHL SUB DUP3 AND PUSH2 0x1446 JUMPI PUSH1 0x0 DUP1 REVERT JUMPDEST PUSH1 0x1 PUSH1 0x1 PUSH1 0xA0 SHL SUB DUP3 AND PUSH1 0x0 SWAP1 DUP2 MSTORE PUSH1 0x5 PUSH1 0x20 MSTORE PUSH1 0x40 SWAP1 KECCAK256 SLOAD PUSH2 0xBAD JUMP JUMPDEST PUSH1 0x0 SLOAD PUSH1 0x1 PUSH1 0x1 PUSH1 0xA0 SHL SUB AND CALLER EQ PUSH2 0x148E JUMPI PUSH1 0x40 MLOAD PUSH3 0x461BCD PUSH1 0xE5 SHL DUP2 MSTORE PUSH1 0x4 ADD PUSH2 0x8BD SWAP1 PUSH2 0x32B8 JUMP JUMPDEST PUSH2 0x1498 PUSH1 0x0 PUSH2 0x2589 JUMP JUMPDEST JUMP JUMPDEST PUSH1 0x60 PUSH1 0x8 DUP1 SLOAD PUSH2 0x904 SWAP1 PUSH2 0x3469 JUMP JUMPDEST PUSH1 0x12 DUP1 SLOAD PUSH2 0x14B6 SWAP1 PUSH2 0x3469 JUMP JUMPDEST DUP1 PUSH1 0x1F ADD PUSH1 0x20 DUP1 SWAP2 DIV MUL PUSH1 0x20 ADD PUSH1 0x40 MLOAD SWAP1 DUP2 ADD PUSH1 0x40 MSTORE DUP1 SWAP3 SWAP2 SWAP1 DUP2 DUP2 MSTORE PUSH1 0x20 ADD DUP3 DUP1 SLOAD PUSH2 0x14E2 SWAP1 PUSH2 0x3469 JUMP JUMPDEST DUP1 ISZERO PUSH2 0x152F JUMPI DUP1 PUSH1 0x1F LT PUSH2 0x1504 JUMPI PUSH2 0x100 DUP1 DUP4 SLOAD DIV MUL DUP4 MSTORE SWAP2 PUSH1 0x20 ADD SWAP2 PUSH2 0x152F JUMP JUMPDEST DUP3 ADD SWAP2 SWAP1 PUSH1 0x0 MSTORE PUSH1 0x20 PUSH1 0x0 KECCAK256 SWAP1 JUMPDEST DUP2 SLOAD DUP2 MSTORE SWAP1 PUSH1 0x1 ADD SWAP1 PUSH1 0x20 ADD DUP1 DUP4 GT PUSH2 0x1512 JUMPI DUP3 SWAP1 SUB PUSH1 0x1F AND DUP3 ADD SWAP2 JUMPDEST POP POP POP POP POP DUP2 JUMP JUMPDEST PUSH1 0x0 SLOAD PUSH1 0x1 PUSH1 0x1 PUSH1 0xA0 SHL SUB AND CALLER EQ PUSH2 0x1561 JUMPI PUSH1 0x40 MLOAD PUSH3 0x461BCD PUSH1 0xE5 SHL DUP2 MSTORE PUSH1 0x4 ADD PUSH2 0x8BD SWAP1 PUSH2 0x32B8 JUMP JUMPDEST DUP1 MLOAD PUSH2 0x1574 SWAP1 PUSH1 0x12 SWAP1 PUSH1 0x20 DUP5 ADD SWAP1 PUSH2 0x2D28 JUMP JUMPDEST POP POP JUMP JUMPDEST CALLER PUSH1 0x0 DUP2 DUP2 MSTORE PUSH1 0x4 PUSH1 0x20 SWAP1 DUP2 MSTORE PUSH1 0x40 DUP1 DUP4 KECCAK256 PUSH1 0x1 PUSH1 0x1 PUSH1 0xA0 SHL SUB DUP8 AND DUP1 DUP6 MSTORE SWAP1 DUP4 MSTORE SWAP3 DUP2 SWAP1 KECCAK256 DUP1 SLOAD PUSH1 0xFF NOT AND DUP7 ISZERO ISZERO SWAP1 DUP2 OR SWAP1 SWAP2 SSTORE SWAP1 MLOAD SWAP1 DUP2 MSTORE SWAP2 SWAP3 SWAP2 PUSH32 0x17307EAB39AB6107E8899845AD3D59BD9653F200F220920489CA2B5937696C31 SWAP2 ADD PUSH1 0x40 MLOAD DUP1 SWAP2 SUB SWAP1 LOG3 POP POP JUMP JUMPDEST PUSH2 0x4E3A SLOAD PUSH1 0x1 PUSH1 0xA0 SHL SWAP1 DIV PUSH1 0xFF AND PUSH2 0x160E JUMPI PUSH1 0x40 MLOAD PUSH3 0x461BCD PUSH1 0xE5 SHL DUP2 MSTORE PUSH1 0x4 ADD PUSH2 0x8BD SWAP1 PUSH2 0x328C JUMP JUMPDEST CALLER PUSH2 0x1618 DUP4 PUSH2 0x13C4 JUMP JUMPDEST PUSH1 0x1 PUSH1 0x1 PUSH1 0xA0 SHL SUB AND EQ PUSH2 0x163E JUMPI PUSH1 0x40 MLOAD PUSH3 0x461BCD PUSH1 0xE5 SHL DUP2 MSTORE PUSH1 0x4 ADD PUSH2 0x8BD SWAP1 PUSH2 0x3336 JUMP JUMPDEST PUSH2 0x1648 DUP3 ADDRESS PUSH2 0xB25 JUMP JUMPDEST PUSH2 0x16BA JUMPI PUSH1 0x40 MLOAD PUSH3 0x461BCD PUSH1 0xE5 SHL DUP2 MSTORE PUSH1 0x20 PUSH1 0x4 DUP3 ADD MSTORE PUSH1 0x38 PUSH1 0x24 DUP3 ADD MSTORE PUSH32 0x596F7520646F6E2774206F776E2074686520746F6B656E206F7220796F752064 PUSH1 0x44 DUP3 ADD MSTORE PUSH32 0x6F206E6F742068617665206861766520617070726F76616C0000000000000000 PUSH1 0x64 DUP3 ADD MSTORE PUSH1 0x84 ADD PUSH2 0x8BD JUMP JUMPDEST PUSH1 0x40 DUP1 MLOAD PUSH1 0x80 DUP2 ADD DUP3 MSTORE PUSH1 0x1 DUP1 DUP3 MSTORE CALLER PUSH1 0x20 DUP1 DUP5 ADD SWAP2 DUP3 MSTORE DUP4 DUP6 ADD DUP9 DUP2 MSTORE PUSH1 0x60 DUP1 DUP7 ADD DUP9 DUP2 MSTORE PUSH1 0x0 DUP11 DUP2 MSTORE PUSH2 0x4E37 DUP6 MSTORE DUP9 SWAP1 KECCAK256 SWAP7 MLOAD DUP8 SLOAD SWAP6 MLOAD PUSH1 0x1 PUSH1 0x1 PUSH1 0xA8 SHL SUB NOT SWAP1 SWAP7 AND SWAP1 ISZERO ISZERO PUSH2 0x100 PUSH1 0x1 PUSH1 0xA8 SHL SUB NOT AND OR PUSH2 0x100 PUSH1 0x1 PUSH1 0x1 PUSH1 0xA0 SHL SUB SWAP1 SWAP7 AND SWAP6 SWAP1 SWAP6 MUL SWAP5 SWAP1 SWAP5 OR DUP7 SSTORE SWAP1 MLOAD SWAP4 DUP6 ADD SWAP4 SWAP1 SWAP4 SSTORE SWAP1 MLOAD PUSH1 0x2 SWAP1 SWAP4 ADD SWAP3 SWAP1 SWAP3 SSTORE DUP3 MLOAD DUP6 DUP2 MSTORE SWAP2 DUP3 ADD DUP7 SWAP1 MSTORE SWAP2 DUP2 ADD DUP4 SWAP1 MSTORE PUSH32 0xE04275091C8EC0CACFA344BA26FEF01E27E1AA9FA1C5211500F11E92FF862E05 SWAP2 ADD PUSH1 0x40 MLOAD DUP1 SWAP2 SUB SWAP1 LOG1 POP POP POP JUMP JUMPDEST PUSH1 0x0 SLOAD PUSH1 0x1 PUSH1 0x1 PUSH1 0xA0 SHL SUB AND CALLER EQ PUSH2 0x17A5 JUMPI PUSH1 0x40 MLOAD PUSH3 0x461BCD PUSH1 0xE5 SHL DUP2 MSTORE PUSH1 0x4 ADD PUSH2 0x8BD SWAP1 PUSH2 0x32B8 JUMP JUMPDEST PUSH1 0xF SLOAD PUSH1 0x1 PUSH1 0xA0 SHL SWAP1 DIV PUSH1 0xFF AND ISZERO PUSH2 0x17BC JUMPI PUSH1 0x0 DUP1 REVERT JUMPDEST TIMESTAMP PUSH1 0x14 SSTORE PUSH1 0xF DUP1 SLOAD PUSH1 0xFF PUSH1 0xA0 SHL NOT AND PUSH1 0x1 PUSH1 0xA0 SHL OR SWAP1 SSTORE PUSH1 0x40 MLOAD PUSH32 0x771CFE172460B7D64CC46CCA57A1E1F40F52B47CF1D16FE30C78A2935B3DD580 SWAP1 PUSH1 0x0 SWAP1 LOG1 JUMP JUMPDEST PUSH2 0x1840 DUP6 DUP6 DUP6 DUP6 DUP6 DUP1 DUP1 PUSH1 0x1F ADD PUSH1 0x20 DUP1 SWAP2 DIV MUL PUSH1 0x20 ADD PUSH1 0x40 MLOAD SWAP1 DUP2 ADD PUSH1 0x40 MSTORE DUP1 SWAP4 SWAP3 SWAP2 SWAP1 DUP2 DUP2 MSTORE PUSH1 0x20 ADD DUP4 DUP4 DUP1 DUP3 DUP5 CALLDATACOPY PUSH1 0x0 SWAP3 ADD SWAP2 SWAP1 SWAP2 MSTORE POP PUSH2 0x2374 SWAP3 POP POP POP JUMP JUMPDEST POP POP POP POP POP JUMP JUMPDEST PUSH1 0x0 DUP2 DUP2 MSTORE PUSH1 0x2 PUSH1 0x20 MSTORE PUSH1 0x40 SWAP1 KECCAK256 SLOAD PUSH1 0x60 SWAP1 DUP3 SWAP1 PUSH1 0x1 PUSH1 0x1 PUSH1 0xA0 SHL SUB AND PUSH2 0x1880 JUMPI PUSH1 0x40 MLOAD PUSH3 0x461BCD PUSH1 0xE5 SHL DUP2 MSTORE PUSH1 0x4 ADD PUSH2 0x8BD SWAP1 PUSH2 0x3264 JUMP JUMPDEST PUSH1 0x12 PUSH2 0x188B DUP5 PUSH2 0x25D9 JUMP JUMPDEST PUSH1 0x40 MLOAD PUSH1 0x20 ADD PUSH2 0x189C SWAP3 SWAP2 SWAP1 PUSH2 0x316D JUMP JUMPDEST PUSH1 0x40 MLOAD PUSH1 0x20 DUP2 DUP4 SUB SUB DUP2 MSTORE SWAP1 PUSH1 0x40 MSTORE SWAP2 POP POP SWAP2 SWAP1 POP JUMP JUMPDEST PUSH2 0x18BD DUP2 ADDRESS PUSH2 0xB25 JUMP JUMPDEST PUSH2 0x18FF JUMPI PUSH1 0x40 MLOAD PUSH3 0x461BCD PUSH1 0xE5 SHL DUP2 MSTORE PUSH1 0x20 PUSH1 0x4 DUP3 ADD MSTORE PUSH1 0x13 PUSH1 0x24 DUP3 ADD MSTORE PUSH19 0x115C9C9BDC881DDA5D1A08185C1C1C9BDD985B PUSH1 0x6A SHL PUSH1 0x44 DUP3 ADD MSTORE PUSH1 0x64 ADD PUSH2 0x8BD JUMP JUMPDEST PUSH2 0x4E3A SLOAD PUSH1 0x1 PUSH1 0xA0 SHL SWAP1 DIV PUSH1 0xFF AND PUSH2 0x1929 JUMPI PUSH1 0x40 MLOAD PUSH3 0x461BCD PUSH1 0xE5 SHL DUP2 MSTORE PUSH1 0x4 ADD PUSH2 0x8BD SWAP1 PUSH2 0x328C JUMP JUMPDEST PUSH1 0x0 DUP2 DUP2 MSTORE PUSH2 0x4E37 PUSH1 0x20 MSTORE PUSH1 0x40 SWAP1 KECCAK256 SLOAD PUSH1 0xFF AND PUSH2 0x1984 JUMPI PUSH1 0x40 MLOAD PUSH3 0x461BCD PUSH1 0xE5 SHL DUP2 MSTORE PUSH1 0x20 PUSH1 0x4 DUP3 ADD MSTORE PUSH1 0x19 PUSH1 0x24 DUP3 ADD MSTORE PUSH25 0x54686520746F6B656E206973206E6F7420666F722073616C65 PUSH1 0x38 SHL PUSH1 0x44 DUP3 ADD MSTORE PUSH1 0x64 ADD PUSH2 0x8BD JUMP JUMPDEST PUSH1 0x0 DUP2 DUP2 MSTORE PUSH2 0x4E37 PUSH1 0x20 MSTORE PUSH1 0x40 SWAP1 KECCAK256 PUSH1 0x2 ADD SLOAD PUSH2 0x19E3 JUMPI PUSH1 0x40 MLOAD PUSH3 0x461BCD PUSH1 0xE5 SHL DUP2 MSTORE PUSH1 0x20 PUSH1 0x4 DUP3 ADD MSTORE PUSH1 0x18 PUSH1 0x24 DUP3 ADD MSTORE PUSH32 0x4572726F72207769746820746F6B656E207061796D656E740000000000000000 PUSH1 0x44 DUP3 ADD MSTORE PUSH1 0x64 ADD PUSH2 0x8BD JUMP JUMPDEST PUSH1 0x0 DUP2 DUP2 MSTORE PUSH2 0x4E37 PUSH1 0x20 SWAP1 DUP2 MSTORE PUSH1 0x40 DUP1 DUP4 KECCAK256 PUSH1 0x1 DUP2 ADD SLOAD PUSH1 0x2 SWAP1 SWAP2 ADD SLOAD DUP5 MSTORE PUSH2 0x4E38 SWAP1 SWAP3 MSTORE SWAP2 DUP3 SWAP1 KECCAK256 SLOAD SWAP2 MLOAD PUSH4 0x70A08231 PUSH1 0xE0 SHL DUP2 MSTORE CALLER PUSH1 0x4 DUP3 ADD MSTORE SWAP1 SWAP2 PUSH1 0x1 PUSH1 0x1 PUSH1 0xA0 SHL SUB AND SWAP1 PUSH4 0x70A08231 SWAP1 PUSH1 0x24 ADD PUSH1 0x20 PUSH1 0x40 MLOAD DUP1 DUP4 SUB DUP2 DUP7 DUP1 EXTCODESIZE ISZERO DUP1 ISZERO PUSH2 0x1A4C JUMPI PUSH1 0x0 DUP1 REVERT JUMPDEST POP GAS STATICCALL ISZERO DUP1 ISZERO PUSH2 0x1A60 JUMPI RETURNDATASIZE PUSH1 0x0 DUP1 RETURNDATACOPY RETURNDATASIZE PUSH1 0x0 REVERT JUMPDEST POP POP POP POP PUSH1 0x40 MLOAD RETURNDATASIZE PUSH1 0x1F NOT PUSH1 0x1F DUP3 ADD AND DUP3 ADD DUP1 PUSH1 0x40 MSTORE POP DUP2 ADD SWAP1 PUSH2 0x1A84 SWAP2 SWAP1 PUSH2 0x30A1 JUMP JUMPDEST LT ISZERO PUSH2 0x1AD2 JUMPI PUSH1 0x40 MLOAD PUSH3 0x461BCD PUSH1 0xE5 SHL DUP2 MSTORE PUSH1 0x20 PUSH1 0x4 DUP3 ADD MSTORE PUSH1 0x1A PUSH1 0x24 DUP3 ADD MSTORE PUSH32 0x596F7520646F206E6F74206F776E20656E6F75676820676F6C64000000000000 PUSH1 0x44 DUP3 ADD MSTORE PUSH1 0x64 ADD PUSH2 0x8BD JUMP JUMPDEST PUSH1 0x0 DUP2 DUP2 MSTORE PUSH2 0x4E37 PUSH1 0x20 SWAP1 DUP2 MSTORE PUSH1 0x40 DUP1 DUP4 KECCAK256 PUSH1 0x1 DUP2 ADD SLOAD PUSH1 0x2 SWAP1 SWAP2 ADD SLOAD DUP5 MSTORE PUSH2 0x4E38 SWAP1 SWAP3 MSTORE SWAP2 DUP3 SWAP1 KECCAK256 SLOAD SWAP2 MLOAD PUSH4 0x6EB1769F PUSH1 0xE1 SHL DUP2 MSTORE CALLER PUSH1 0x4 DUP3 ADD MSTORE ADDRESS PUSH1 0x24 DUP3 ADD MSTORE SWAP1 SWAP2 PUSH1 0x1 PUSH1 0x1 PUSH1 0xA0 SHL SUB AND SWAP1 PUSH4 0xDD62ED3E SWAP1 PUSH1 0x44 ADD PUSH1 0x20 PUSH1 0x40 MLOAD DUP1 DUP4 SUB DUP2 DUP7 DUP1 EXTCODESIZE ISZERO DUP1 ISZERO PUSH2 0x1B41 JUMPI PUSH1 0x0 DUP1 REVERT JUMPDEST POP GAS STATICCALL ISZERO DUP1 ISZERO PUSH2 0x1B55 JUMPI RETURNDATASIZE PUSH1 0x0 DUP1 RETURNDATACOPY RETURNDATASIZE PUSH1 0x0 REVERT JUMPDEST POP POP POP POP PUSH1 0x40 MLOAD RETURNDATASIZE PUSH1 0x1F NOT PUSH1 0x1F DUP3 ADD AND DUP3 ADD DUP1 PUSH1 0x40 MSTORE POP DUP2 ADD SWAP1 PUSH2 0x1B79 SWAP2 SWAP1 PUSH2 0x30A1 JUMP JUMPDEST LT ISZERO PUSH2 0x1BC7 JUMPI PUSH1 0x40 MLOAD PUSH3 0x461BCD PUSH1 0xE5 SHL DUP2 MSTORE PUSH1 0x20 PUSH1 0x4 DUP3 ADD MSTORE PUSH1 0x1A PUSH1 0x24 DUP3 ADD MSTORE PUSH32 0x596F7520616C6C6F77616E636520697320746F6F20736D616C6C000000000000 PUSH1 0x44 DUP3 ADD MSTORE PUSH1 0x64 ADD PUSH2 0x8BD JUMP JUMPDEST PUSH2 0x4E39 SLOAD PUSH1 0x0 PUSH2 0x1BD9 DUP3 PUSH2 0x3E8 PUSH2 0x340F JUMP JUMPDEST PUSH2 0x4E3A SLOAD PUSH1 0x0 DUP6 DUP2 MSTORE PUSH2 0x4E37 PUSH1 0x20 MSTORE PUSH1 0x40 SWAP1 KECCAK256 PUSH1 0x1 ADD SLOAD SWAP2 SWAP3 POP PUSH2 0x1C4D SWAP2 CALLER SWAP2 PUSH1 0x1 PUSH1 0x1 PUSH1 0xA0 SHL SUB AND SWAP1 PUSH2 0x1C1B SWAP1 PUSH2 0x3E8 SWAP1 PUSH2 0x1C15 SWAP1 DUP9 PUSH2 0x20B0 JUMP JUMPDEST SWAP1 PUSH2 0x2368 JUMP JUMPDEST PUSH1 0x0 DUP8 DUP2 MSTORE PUSH2 0x4E37 PUSH1 0x20 SWAP1 DUP2 MSTORE PUSH1 0x40 DUP1 DUP4 KECCAK256 PUSH1 0x2 ADD SLOAD DUP4 MSTORE PUSH2 0x4E38 SWAP1 SWAP2 MSTORE SWAP1 KECCAK256 SLOAD PUSH1 0x1 PUSH1 0x1 PUSH1 0xA0 SHL SUB AND SWAP3 SWAP2 SWAP1 PUSH2 0x20E0 JUMP JUMPDEST PUSH1 0x0 DUP4 DUP2 MSTORE PUSH2 0x4E37 PUSH1 0x20 MSTORE PUSH1 0x40 SWAP1 KECCAK256 DUP1 SLOAD PUSH1 0x1 SWAP1 SWAP2 ADD SLOAD PUSH2 0x1C8C SWAP2 CALLER SWAP2 PUSH2 0x100 SWAP1 SWAP2 DIV PUSH1 0x1 PUSH1 0x1 PUSH1 0xA0 SHL SUB AND SWAP1 PUSH2 0x1C1B SWAP1 PUSH2 0x3E8 SWAP1 PUSH2 0x1C15 SWAP1 DUP8 PUSH2 0x20B0 JUMP JUMPDEST PUSH2 0x1C96 CALLER DUP5 PUSH2 0x2274 JUMP JUMPDEST PUSH1 0x0 DUP4 DUP2 MSTORE PUSH2 0x4E37 PUSH1 0x20 SWAP1 DUP2 MSTORE PUSH1 0x40 SWAP2 DUP3 SWAP1 KECCAK256 PUSH1 0x1 DUP2 ADD SLOAD PUSH1 0x2 SWAP1 SWAP2 ADD SLOAD DUP4 MLOAD DUP8 DUP2 MSTORE SWAP3 DUP4 ADD SWAP2 SWAP1 SWAP2 MSTORE DUP2 DUP4 ADD MSTORE SWAP1 MLOAD PUSH32 0x9695D5EBF5115E7B172F9C06E511F76A01DF1DE76571B792FF9B6D506F06D3EF SWAP2 DUP2 SWAP1 SUB PUSH1 0x60 ADD SWAP1 LOG1 POP POP PUSH1 0x40 DUP1 MLOAD PUSH1 0x80 DUP2 ADD DUP3 MSTORE PUSH1 0x0 DUP1 DUP3 MSTORE PUSH1 0x20 DUP1 DUP4 ADD DUP3 DUP2 MSTORE DUP4 DUP6 ADD DUP4 DUP2 MSTORE PUSH1 0x60 DUP6 ADD DUP5 DUP2 MSTORE SWAP7 DUP5 MSTORE PUSH2 0x4E37 SWAP1 SWAP3 MSTORE SWAP4 SWAP1 SWAP2 KECCAK256 SWAP2 MLOAD DUP3 SLOAD SWAP4 MLOAD PUSH1 0x1 PUSH1 0x1 PUSH1 0xA8 SHL SUB NOT SWAP1 SWAP5 AND SWAP1 ISZERO ISZERO PUSH2 0x100 PUSH1 0x1 PUSH1 0xA8 SHL SUB NOT AND OR PUSH2 0x100 PUSH1 0x1 PUSH1 0x1 PUSH1 0xA0 SHL SUB SWAP1 SWAP5 AND SWAP4 SWAP1 SWAP4 MUL SWAP3 SWAP1 SWAP3 OR DUP2 SSTORE SWAP1 MLOAD PUSH1 0x1 DUP3 ADD SSTORE SWAP1 MLOAD PUSH1 0x2 SWAP1 SWAP2 ADD SSTORE JUMP JUMPDEST PUSH1 0x0 SLOAD PUSH1 0x1 PUSH1 0x1 PUSH1 0xA0 SHL SUB AND CALLER EQ PUSH2 0x1D97 JUMPI PUSH1 0x40 MLOAD PUSH3 0x461BCD PUSH1 0xE5 SHL DUP2 MSTORE PUSH1 0x4 ADD PUSH2 0x8BD SWAP1 PUSH2 0x32B8 JUMP JUMPDEST PUSH1 0x1 PUSH1 0x1 PUSH1 0xA0 SHL SUB DUP2 AND PUSH2 0x1DFC JUMPI PUSH1 0x40 MLOAD PUSH3 0x461BCD PUSH1 0xE5 SHL DUP2 MSTORE PUSH1 0x20 PUSH1 0x4 DUP3 ADD MSTORE PUSH1 0x26 PUSH1 0x24 DUP3 ADD MSTORE PUSH32 0x4F776E61626C653A206E6577206F776E657220697320746865207A65726F2061 PUSH1 0x44 DUP3 ADD MSTORE PUSH6 0x646472657373 PUSH1 0xD0 SHL PUSH1 0x64 DUP3 ADD MSTORE PUSH1 0x84 ADD PUSH2 0x8BD JUMP JUMPDEST PUSH2 0x1E05 DUP2 PUSH2 0x2589 JUMP JUMPDEST POP JUMP JUMPDEST PUSH2 0x1E12 DUP2 ADDRESS PUSH2 0xB25 JUMP JUMPDEST PUSH2 0x1E54 JUMPI PUSH1 0x40 MLOAD PUSH3 0x461BCD PUSH1 0xE5 SHL DUP2 MSTORE PUSH1 0x20 PUSH1 0x4 DUP3 ADD MSTORE PUSH1 0x13 PUSH1 0x24 DUP3 ADD MSTORE PUSH19 0x115C9C9BDC881DDA5D1A08185C1C1C9BDD985B PUSH1 0x6A SHL PUSH1 0x44 DUP3 ADD MSTORE PUSH1 0x64 ADD PUSH2 0x8BD JUMP JUMPDEST PUSH2 0x4E3A SLOAD PUSH1 0x1 PUSH1 0xA0 SHL SWAP1 DIV PUSH1 0xFF AND PUSH2 0x1E7E JUMPI PUSH1 0x40 MLOAD PUSH3 0x461BCD PUSH1 0xE5 SHL DUP2 MSTORE PUSH1 0x4 ADD PUSH2 0x8BD SWAP1 PUSH2 0x328C JUMP JUMPDEST PUSH1 0x0 DUP2 DUP2 MSTORE PUSH2 0x4E37 PUSH1 0x20 MSTORE PUSH1 0x40 SWAP1 KECCAK256 SLOAD PUSH1 0xFF AND PUSH2 0x1ED9 JUMPI PUSH1 0x40 MLOAD PUSH3 0x461BCD PUSH1 0xE5 SHL DUP2 MSTORE PUSH1 0x20 PUSH1 0x4 DUP3 ADD MSTORE PUSH1 0x19 PUSH1 0x24 DUP3 ADD MSTORE PUSH25 0x54686520746F6B656E206973206E6F7420666F722073616C65 PUSH1 0x38 SHL PUSH1 0x44 DUP3 ADD MSTORE PUSH1 0x64 ADD PUSH2 0x8BD JUMP JUMPDEST PUSH1 0x0 DUP2 DUP2 MSTORE PUSH2 0x4E37 PUSH1 0x20 MSTORE PUSH1 0x40 SWAP1 KECCAK256 PUSH1 0x2 ADD SLOAD ISZERO PUSH2 0x1F2F JUMPI PUSH1 0x40 MLOAD PUSH3 0x461BCD PUSH1 0xE5 SHL DUP2 MSTORE PUSH1 0x20 PUSH1 0x4 DUP3 ADD MSTORE PUSH1 0x13 PUSH1 0x24 DUP3 ADD MSTORE PUSH19 0x4E6F74206C697374656420696E204D61746963 PUSH1 0x68 SHL PUSH1 0x44 DUP3 ADD MSTORE PUSH1 0x64 ADD PUSH2 0x8BD JUMP JUMPDEST PUSH1 0x0 DUP2 DUP2 MSTORE PUSH2 0x4E37 PUSH1 0x20 MSTORE PUSH1 0x40 SWAP1 KECCAK256 PUSH1 0x1 ADD SLOAD CALLVALUE EQ PUSH2 0x1F90 JUMPI PUSH1 0x40 MLOAD PUSH3 0x461BCD PUSH1 0xE5 SHL DUP2 MSTORE PUSH1 0x20 PUSH1 0x4 DUP3 ADD MSTORE PUSH1 0x1A PUSH1 0x24 DUP3 ADD MSTORE PUSH32 0x57726F6E6720616D6F756E74206F66204D617469632073656E74000000000000 PUSH1 0x44 DUP3 ADD MSTORE PUSH1 0x64 ADD PUSH2 0x8BD JUMP JUMPDEST PUSH2 0x4E39 SLOAD PUSH1 0x0 PUSH2 0x1FA2 DUP3 PUSH2 0x3E8 PUSH2 0x340F JUMP JUMPDEST PUSH2 0x4E3A SLOAD PUSH1 0x0 DUP6 DUP2 MSTORE PUSH2 0x4E37 PUSH1 0x20 MSTORE PUSH1 0x40 SWAP1 KECCAK256 PUSH1 0x1 ADD SLOAD SWAP2 SWAP3 POP PUSH1 0x1 PUSH1 0x1 PUSH1 0xA0 SHL SUB AND SWAP1 PUSH2 0x8FC SWAP1 PUSH2 0x1FDC SWAP1 PUSH2 0x3E8 SWAP1 PUSH2 0x1C15 SWAP1 DUP8 PUSH2 0x20B0 JUMP JUMPDEST PUSH1 0x40 MLOAD DUP2 ISZERO SWAP1 SWAP3 MUL SWAP2 PUSH1 0x0 DUP2 DUP2 DUP2 DUP6 DUP9 DUP9 CALL SWAP4 POP POP POP POP ISZERO DUP1 ISZERO PUSH2 0x2004 JUMPI RETURNDATASIZE PUSH1 0x0 DUP1 RETURNDATACOPY RETURNDATASIZE PUSH1 0x0 REVERT JUMPDEST POP PUSH1 0x0 DUP4 DUP2 MSTORE PUSH2 0x4E37 PUSH1 0x20 MSTORE PUSH1 0x40 SWAP1 KECCAK256 DUP1 SLOAD PUSH1 0x1 SWAP1 SWAP2 ADD SLOAD PUSH2 0x100 SWAP1 SWAP2 DIV PUSH1 0x1 PUSH1 0x1 PUSH1 0xA0 SHL SUB AND SWAP1 PUSH2 0x8FC SWAP1 PUSH2 0x2042 SWAP1 PUSH2 0x3E8 SWAP1 PUSH2 0x1C15 SWAP1 DUP7 PUSH2 0x20B0 JUMP JUMPDEST PUSH1 0x40 MLOAD DUP2 ISZERO SWAP1 SWAP3 MUL SWAP2 PUSH1 0x0 DUP2 DUP2 DUP2 DUP6 DUP9 DUP9 CALL SWAP4 POP POP POP POP ISZERO DUP1 ISZERO PUSH2 0x206A JUMPI RETURNDATASIZE PUSH1 0x0 DUP1 RETURNDATACOPY RETURNDATASIZE PUSH1 0x0 REVERT JUMPDEST POP PUSH2 0x1C96 CALLER DUP5 PUSH2 0x2274 JUMP JUMPDEST PUSH1 0x0 PUSH2 0x2081 DUP3 DUP5 PUSH2 0x33C4 JUMP JUMPDEST SWAP1 POP DUP3 DUP2 LT ISZERO PUSH2 0xBAD JUMPI PUSH1 0x0 DUP1 REVERT JUMPDEST PUSH1 0x0 DUP3 DUP3 GT ISZERO PUSH2 0x209F JUMPI PUSH1 0x0 DUP1 REVERT JUMPDEST PUSH2 0x20A9 DUP3 DUP5 PUSH2 0x340F JUMP JUMPDEST SWAP4 SWAP3 POP POP POP JUMP JUMPDEST PUSH1 0x0 DUP3 PUSH2 0x20BF JUMPI POP PUSH1 0x0 PUSH2 0xBAD JUMP JUMPDEST PUSH2 0x20C9 DUP3 DUP5 PUSH2 0x33F0 JUMP JUMPDEST SWAP1 POP DUP2 PUSH2 0x20D6 DUP5 DUP4 PUSH2 0x33DC JUMP JUMPDEST EQ PUSH2 0xBAD JUMPI PUSH1 0x0 DUP1 REVERT JUMPDEST PUSH1 0x40 DUP1 MLOAD PUSH1 0x1 PUSH1 0x1 PUSH1 0xA0 SHL SUB DUP6 DUP2 AND PUSH1 0x24 DUP4 ADD MSTORE DUP5 AND PUSH1 0x44 DUP3 ADD MSTORE PUSH1 0x64 DUP1 DUP3 ADD DUP5 SWAP1 MSTORE DUP3 MLOAD DUP1 DUP4 SUB SWAP1 SWAP2 ADD DUP2 MSTORE PUSH1 0x84 SWAP1 SWAP2 ADD SWAP1 SWAP2 MSTORE PUSH1 0x20 DUP2 ADD DUP1 MLOAD PUSH1 0x1 PUSH1 0x1 PUSH1 0xE0 SHL SUB AND PUSH4 0x23B872DD PUSH1 0xE0 SHL OR SWAP1 MSTORE PUSH2 0x213A SWAP1 DUP6 SWAP1 PUSH2 0x26F0 JUMP JUMPDEST POP POP POP POP JUMP JUMPDEST PUSH1 0x0 PUSH1 0x1 PUSH1 0x1 PUSH1 0xA0 SHL SUB DUP3 AND PUSH2 0x218E JUMPI PUSH1 0x40 MLOAD PUSH3 0x461BCD PUSH1 0xE5 SHL DUP2 MSTORE PUSH1 0x20 PUSH1 0x4 DUP3 ADD MSTORE PUSH1 0x13 PUSH1 0x24 DUP3 ADD MSTORE PUSH19 0x21B0B73737BA1036B4B73A103A3790183C1817 PUSH1 0x69 SHL PUSH1 0x44 DUP3 ADD MSTORE PUSH1 0x64 ADD PUSH2 0x8BD JUMP JUMPDEST PUSH2 0x4E20 PUSH1 0x9 SLOAD LT PUSH2 0x21D8 JUMPI PUSH1 0x40 MLOAD PUSH3 0x461BCD PUSH1 0xE5 SHL DUP2 MSTORE PUSH1 0x20 PUSH1 0x4 DUP3 ADD MSTORE PUSH1 0x14 PUSH1 0x24 DUP3 ADD MSTORE PUSH20 0x2A37B5B2B7103634B6B4BA103932B0B1B432B217 PUSH1 0x61 SHL PUSH1 0x44 DUP3 ADD MSTORE PUSH1 0x64 ADD PUSH2 0x8BD JUMP JUMPDEST PUSH1 0x0 PUSH2 0x21E2 PUSH2 0x27C2 JUMP JUMPDEST SWAP1 POP PUSH1 0x9 SLOAD PUSH1 0x1 PUSH2 0x21F3 SWAP2 SWAP1 PUSH2 0x33C4 JUMP JUMPDEST PUSH1 0x9 SSTORE PUSH2 0x2200 DUP4 DUP3 PUSH2 0x291E JUMP JUMPDEST PUSH1 0x40 MLOAD PUSH1 0x1 PUSH1 0x1 PUSH1 0xA0 SHL SUB DUP5 AND SWAP1 DUP3 SWAP1 PUSH32 0xF3CEA5493D790AF0133817606F7350A91D7F154EA52EAA79D179D4D231E50102 SWAP1 PUSH1 0x0 SWAP1 LOG3 PUSH1 0x40 MLOAD DUP2 SWAP1 PUSH1 0x1 PUSH1 0x1 PUSH1 0xA0 SHL SUB DUP6 AND SWAP1 PUSH1 0x0 SWAP1 PUSH32 0xDDF252AD1BE2C89B69C2B068FC378DAA952BA7F163C4A11628F55A4DF523B3EF SWAP1 DUP3 SWAP1 LOG4 SWAP3 SWAP2 POP POP JUMP JUMPDEST PUSH1 0x0 DUP2 DUP2 MSTORE PUSH1 0x2 PUSH1 0x20 MSTORE PUSH1 0x40 SWAP1 KECCAK256 SLOAD PUSH1 0x1 PUSH1 0x1 PUSH1 0xA0 SHL SUB AND PUSH2 0x2295 DUP3 PUSH2 0x29ED JUMP JUMPDEST PUSH1 0x40 DUP1 MLOAD PUSH1 0x80 DUP2 ADD DUP3 MSTORE PUSH1 0x0 DUP1 DUP3 MSTORE PUSH1 0x20 DUP1 DUP4 ADD DUP3 DUP2 MSTORE DUP4 DUP6 ADD DUP4 DUP2 MSTORE PUSH1 0x60 DUP6 ADD DUP5 DUP2 MSTORE DUP9 DUP6 MSTORE PUSH2 0x4E37 SWAP1 SWAP4 MSTORE SWAP5 SWAP1 SWAP3 KECCAK256 SWAP3 MLOAD DUP4 SLOAD SWAP3 MLOAD PUSH1 0x1 PUSH1 0x1 PUSH1 0xA8 SHL SUB NOT SWAP1 SWAP4 AND SWAP1 ISZERO ISZERO PUSH2 0x100 PUSH1 0x1 PUSH1 0xA8 SHL SUB NOT AND OR PUSH2 0x100 PUSH1 0x1 PUSH1 0x1 PUSH1 0xA0 SHL SUB SWAP1 SWAP4 AND SWAP3 SWAP1 SWAP3 MUL SWAP2 SWAP1 SWAP2 OR DUP3 SSTORE SWAP2 MLOAD PUSH1 0x1 DUP3 ADD SSTORE SWAP1 MLOAD PUSH1 0x2 SWAP1 SWAP2 ADD SSTORE PUSH2 0x2318 DUP2 DUP4 PUSH2 0x2A28 JUMP JUMPDEST PUSH2 0x2322 DUP4 DUP4 PUSH2 0x291E JUMP JUMPDEST DUP2 DUP4 PUSH1 0x1 PUSH1 0x1 PUSH1 0xA0 SHL SUB AND DUP3 PUSH1 0x1 PUSH1 0x1 PUSH1 0xA0 SHL SUB AND PUSH32 0xDDF252AD1BE2C89B69C2B068FC378DAA952BA7F163C4A11628F55A4DF523B3EF PUSH1 0x40 MLOAD PUSH1 0x40 MLOAD DUP1 SWAP2 SUB SWAP1 LOG4 POP POP POP JUMP JUMPDEST PUSH1 0x0 PUSH2 0x20A9 DUP3 DUP5 PUSH2 0x33DC JUMP JUMPDEST PUSH1 0x0 DUP3 DUP2 MSTORE PUSH1 0x2 PUSH1 0x20 MSTORE PUSH1 0x40 SWAP1 KECCAK256 SLOAD DUP3 SWAP1 PUSH1 0x1 PUSH1 0x1 PUSH1 0xA0 SHL SUB AND CALLER DUP2 EQ DUP1 PUSH2 0x23B2 JUMPI POP PUSH1 0x0 DUP3 DUP2 MSTORE PUSH1 0x3 PUSH1 0x20 MSTORE PUSH1 0x40 SWAP1 KECCAK256 SLOAD PUSH1 0x1 PUSH1 0x1 PUSH1 0xA0 SHL SUB AND CALLER EQ JUMPDEST DUP1 PUSH2 0x23E0 JUMPI POP PUSH1 0x1 PUSH1 0x1 PUSH1 0xA0 SHL SUB DUP2 AND PUSH1 0x0 SWAP1 DUP2 MSTORE PUSH1 0x4 PUSH1 0x20 SWAP1 DUP2 MSTORE PUSH1 0x40 DUP1 DUP4 KECCAK256 CALLER DUP5 MSTORE SWAP1 SWAP2 MSTORE SWAP1 KECCAK256 SLOAD PUSH1 0xFF AND JUMPDEST PUSH2 0x241F JUMPI PUSH1 0x40 MLOAD PUSH3 0x461BCD PUSH1 0xE5 SHL DUP2 MSTORE PUSH1 0x20 PUSH1 0x4 DUP3 ADD MSTORE PUSH1 0x10 PUSH1 0x24 DUP3 ADD MSTORE PUSH16 0x21B0B73737BA103A3930B739B332B917 PUSH1 0x81 SHL PUSH1 0x44 DUP3 ADD MSTORE PUSH1 0x64 ADD PUSH2 0x8BD JUMP JUMPDEST PUSH1 0x0 DUP5 DUP2 MSTORE PUSH1 0x2 PUSH1 0x20 MSTORE PUSH1 0x40 SWAP1 KECCAK256 SLOAD DUP5 SWAP1 PUSH1 0x1 PUSH1 0x1 PUSH1 0xA0 SHL SUB AND PUSH2 0x2455 JUMPI PUSH1 0x40 MLOAD PUSH3 0x461BCD PUSH1 0xE5 SHL DUP2 MSTORE PUSH1 0x4 ADD PUSH2 0x8BD SWAP1 PUSH2 0x3264 JUMP JUMPDEST PUSH1 0x0 DUP6 DUP2 MSTORE PUSH1 0x2 PUSH1 0x20 MSTORE PUSH1 0x40 SWAP1 KECCAK256 SLOAD PUSH1 0x1 PUSH1 0x1 PUSH1 0xA0 SHL SUB SWAP1 DUP2 AND SWAP1 DUP9 AND DUP2 EQ PUSH2 0x24B3 JUMPI PUSH1 0x40 MLOAD PUSH3 0x461BCD PUSH1 0xE5 SHL DUP2 MSTORE PUSH1 0x20 PUSH1 0x4 DUP3 ADD MSTORE PUSH1 0x10 PUSH1 0x24 DUP3 ADD MSTORE PUSH16 0x24B731B7B93932B1BA1037BBB732B917 PUSH1 0x81 SHL PUSH1 0x44 DUP3 ADD MSTORE PUSH1 0x64 ADD PUSH2 0x8BD JUMP JUMPDEST PUSH1 0x1 PUSH1 0x1 PUSH1 0xA0 SHL SUB DUP8 AND PUSH2 0x24C6 JUMPI PUSH1 0x0 DUP1 REVERT JUMPDEST PUSH2 0x24D0 DUP8 DUP8 PUSH2 0x2274 JUMP JUMPDEST DUP7 EXTCODESIZE ISZERO PUSH2 0x257F JUMPI PUSH1 0x40 MLOAD PUSH4 0xA85BD01 PUSH1 0xE1 SHL DUP2 MSTORE PUSH1 0x0 SWAP1 PUSH1 0x1 PUSH1 0x1 PUSH1 0xA0 SHL SUB DUP10 AND SWAP1 PUSH4 0x150B7A02 SWAP1 PUSH2 0x250C SWAP1 CALLER SWAP1 DUP14 SWAP1 DUP13 SWAP1 DUP13 SWAP1 PUSH1 0x4 ADD PUSH2 0x3214 JUMP JUMPDEST PUSH1 0x20 PUSH1 0x40 MLOAD DUP1 DUP4 SUB DUP2 PUSH1 0x0 DUP8 DUP1 EXTCODESIZE ISZERO DUP1 ISZERO PUSH2 0x2526 JUMPI PUSH1 0x0 DUP1 REVERT JUMPDEST POP GAS CALL ISZERO DUP1 ISZERO PUSH2 0x253A JUMPI RETURNDATASIZE PUSH1 0x0 DUP1 RETURNDATACOPY RETURNDATASIZE PUSH1 0x0 REVERT JUMPDEST POP POP POP POP PUSH1 0x40 MLOAD RETURNDATASIZE PUSH1 0x1F NOT PUSH1 0x1F DUP3 ADD AND DUP3 ADD DUP1 PUSH1 0x40 MSTORE POP DUP2 ADD SWAP1 PUSH2 0x255E SWAP2 SWAP1 PUSH2 0x2FBA JUMP JUMPDEST SWAP1 POP PUSH1 0x1 PUSH1 0x1 PUSH1 0xE0 SHL SUB NOT DUP2 AND PUSH4 0xA85BD01 PUSH1 0xE1 SHL EQ PUSH2 0x257D JUMPI PUSH1 0x0 DUP1 REVERT JUMPDEST POP JUMPDEST POP POP POP POP POP POP POP POP JUMP JUMPDEST PUSH1 0x0 DUP1 SLOAD PUSH1 0x1 PUSH1 0x1 PUSH1 0xA0 SHL SUB DUP4 DUP2 AND PUSH1 0x1 PUSH1 0x1 PUSH1 0xA0 SHL SUB NOT DUP4 AND DUP2 OR DUP5 SSTORE PUSH1 0x40 MLOAD SWAP2 SWAP1 SWAP3 AND SWAP3 DUP4 SWAP2 PUSH32 0x8BE0079C531659141344CD1FD0A4F28419497F9722A3DAAFE3B4186F6B6457E0 SWAP2 SWAP1 LOG3 POP POP JUMP JUMPDEST PUSH1 0x60 DUP2 PUSH2 0x25FD JUMPI POP POP PUSH1 0x40 DUP1 MLOAD DUP1 DUP3 ADD SWAP1 SWAP2 MSTORE PUSH1 0x1 DUP2 MSTORE PUSH1 0x3 PUSH1 0xFC SHL PUSH1 0x20 DUP3 ADD MSTORE SWAP1 JUMP JUMPDEST DUP2 PUSH1 0x0 JUMPDEST DUP2 ISZERO PUSH2 0x2627 JUMPI DUP1 PUSH2 0x2611 DUP2 PUSH2 0x349E JUMP JUMPDEST SWAP2 POP PUSH2 0x2620 SWAP1 POP PUSH1 0xA DUP4 PUSH2 0x33DC JUMP JUMPDEST SWAP2 POP PUSH2 0x2601 JUMP JUMPDEST PUSH1 0x0 DUP2 PUSH8 0xFFFFFFFFFFFFFFFF DUP2 GT ISZERO PUSH2 0x2642 JUMPI PUSH2 0x2642 PUSH2 0x3525 JUMP JUMPDEST PUSH1 0x40 MLOAD SWAP1 DUP1 DUP3 MSTORE DUP1 PUSH1 0x1F ADD PUSH1 0x1F NOT AND PUSH1 0x20 ADD DUP3 ADD PUSH1 0x40 MSTORE DUP1 ISZERO PUSH2 0x266C JUMPI PUSH1 0x20 DUP3 ADD DUP2 DUP1 CALLDATASIZE DUP4 CALLDATACOPY ADD SWAP1 POP JUMPDEST POP SWAP1 POP PUSH1 0x0 PUSH2 0x267C PUSH1 0x1 DUP5 PUSH2 0x340F JUMP JUMPDEST SWAP1 POP DUP6 SWAP4 POP JUMPDEST DUP4 ISZERO PUSH2 0x26E7 JUMPI PUSH2 0x2693 PUSH1 0xA DUP6 PUSH2 0x34B9 JUMP JUMPDEST PUSH2 0x269E SWAP1 PUSH1 0x30 PUSH2 0x33C4 JUMP JUMPDEST PUSH1 0xF8 SHL DUP3 DUP3 PUSH2 0x26AC DUP2 PUSH2 0x3452 JUMP JUMPDEST SWAP4 POP DUP2 MLOAD DUP2 LT PUSH2 0x26BE JUMPI PUSH2 0x26BE PUSH2 0x350F JUMP JUMPDEST PUSH1 0x20 ADD ADD SWAP1 PUSH1 0x1 PUSH1 0x1 PUSH1 0xF8 SHL SUB NOT AND SWAP1 DUP2 PUSH1 0x0 BYTE SWAP1 MSTORE8 POP PUSH2 0x26E0 PUSH1 0xA DUP6 PUSH2 0x33DC JUMP JUMPDEST SWAP4 POP PUSH2 0x2682 JUMP JUMPDEST POP SWAP5 SWAP4 POP POP POP POP JUMP JUMPDEST PUSH1 0x0 PUSH2 0x2745 DUP3 PUSH1 0x40 MLOAD DUP1 PUSH1 0x40 ADD PUSH1 0x40 MSTORE DUP1 PUSH1 0x20 DUP2 MSTORE PUSH1 0x20 ADD PUSH32 0x5361666545524332303A206C6F772D6C6576656C2063616C6C206661696C6564 DUP2 MSTORE POP DUP6 PUSH1 0x1 PUSH1 0x1 PUSH1 0xA0 SHL SUB AND PUSH2 0x2BA7 SWAP1 SWAP3 SWAP2 SWAP1 PUSH4 0xFFFFFFFF AND JUMP JUMPDEST DUP1 MLOAD SWAP1 SWAP2 POP ISZERO PUSH2 0x127B JUMPI DUP1 DUP1 PUSH1 0x20 ADD SWAP1 MLOAD DUP2 ADD SWAP1 PUSH2 0x2763 SWAP2 SWAP1 PUSH2 0x2F80 JUMP JUMPDEST PUSH2 0x127B JUMPI PUSH1 0x40 MLOAD PUSH3 0x461BCD PUSH1 0xE5 SHL DUP2 MSTORE PUSH1 0x20 PUSH1 0x4 DUP3 ADD MSTORE PUSH1 0x2A PUSH1 0x24 DUP3 ADD MSTORE PUSH32 0x5361666545524332303A204552433230206F7065726174696F6E20646964206E PUSH1 0x44 DUP3 ADD MSTORE PUSH10 0x1BDD081CDD58D8D95959 PUSH1 0xB2 SHL PUSH1 0x64 DUP3 ADD MSTORE PUSH1 0x84 ADD PUSH2 0x8BD JUMP JUMPDEST PUSH1 0x0 DUP1 PUSH1 0x9 SLOAD PUSH2 0x4E20 PUSH2 0x27D5 SWAP2 SWAP1 PUSH2 0x340F JUMP JUMPDEST PUSH1 0x15 SLOAD PUSH1 0x40 DUP1 MLOAD PUSH1 0x20 DUP2 ADD SWAP3 SWAP1 SWAP3 MSTORE PUSH12 0xFFFFFFFFFFFFFFFFFFFFFFFF NOT CALLER PUSH1 0x60 SHL AND SWAP1 DUP3 ADD MSTORE DIFFICULTY PUSH1 0x54 DUP3 ADD MSTORE TIMESTAMP PUSH1 0x74 DUP3 ADD MSTORE SWAP1 SWAP2 POP PUSH1 0x0 SWAP1 DUP3 SWAP1 PUSH1 0x94 ADD PUSH1 0x40 MLOAD PUSH1 0x20 DUP2 DUP4 SUB SUB DUP2 MSTORE SWAP1 PUSH1 0x40 MSTORE DUP1 MLOAD SWAP1 PUSH1 0x20 ADD KECCAK256 PUSH1 0x0 SHR PUSH2 0x2835 SWAP2 SWAP1 PUSH2 0x34B9 JUMP JUMPDEST SWAP1 POP PUSH1 0x0 PUSH1 0x16 DUP3 PUSH2 0x4E20 DUP2 LT PUSH2 0x284D JUMPI PUSH2 0x284D PUSH2 0x350F JUMP JUMPDEST ADD SLOAD ISZERO PUSH2 0x2871 JUMPI PUSH1 0x16 DUP3 PUSH2 0x4E20 DUP2 LT PUSH2 0x2868 JUMPI PUSH2 0x2868 PUSH2 0x350F JUMP JUMPDEST ADD SLOAD SWAP1 POP PUSH2 0x2874 JUMP JUMPDEST POP DUP1 JUMPDEST PUSH1 0x16 PUSH2 0x2881 PUSH1 0x1 DUP6 PUSH2 0x340F JUMP JUMPDEST PUSH2 0x4E20 DUP2 LT PUSH2 0x2892 JUMPI PUSH2 0x2892 PUSH2 0x350F JUMP JUMPDEST ADD SLOAD PUSH2 0x28BE JUMPI PUSH2 0x28A3 PUSH1 0x1 DUP5 PUSH2 0x340F JUMP JUMPDEST PUSH1 0x16 DUP4 PUSH2 0x4E20 DUP2 LT PUSH2 0x28B7 JUMPI PUSH2 0x28B7 PUSH2 0x350F JUMP JUMPDEST ADD SSTORE PUSH2 0x28F5 JUMP JUMPDEST PUSH1 0x16 PUSH2 0x28CB PUSH1 0x1 DUP6 PUSH2 0x340F JUMP JUMPDEST PUSH2 0x4E20 DUP2 LT PUSH2 0x28DC JUMPI PUSH2 0x28DC PUSH2 0x350F JUMP JUMPDEST ADD SLOAD PUSH1 0x16 DUP4 PUSH2 0x4E20 DUP2 LT PUSH2 0x28F2 JUMPI PUSH2 0x28F2 PUSH2 0x350F JUMP JUMPDEST ADD SSTORE JUMPDEST PUSH1 0x15 DUP1 SLOAD SWAP1 PUSH1 0x0 PUSH2 0x2905 DUP4 PUSH2 0x349E JUMP JUMPDEST SWAP1 SWAP2 SSTORE POP PUSH2 0x2916 SWAP1 POP DUP2 PUSH1 0x1 PUSH2 0x2075 JUMP JUMPDEST SWAP4 POP POP POP POP SWAP1 JUMP JUMPDEST PUSH1 0x0 DUP2 DUP2 MSTORE PUSH1 0x2 PUSH1 0x20 MSTORE PUSH1 0x40 SWAP1 KECCAK256 SLOAD PUSH1 0x1 PUSH1 0x1 PUSH1 0xA0 SHL SUB AND ISZERO PUSH2 0x2983 JUMPI PUSH1 0x40 MLOAD PUSH3 0x461BCD PUSH1 0xE5 SHL DUP2 MSTORE PUSH1 0x20 PUSH1 0x4 DUP3 ADD MSTORE PUSH1 0x1A PUSH1 0x24 DUP3 ADD MSTORE PUSH32 0x43616E6E6F74206164642C20616C7265616479206F776E65642E000000000000 PUSH1 0x44 DUP3 ADD MSTORE PUSH1 0x64 ADD PUSH2 0x8BD JUMP JUMPDEST PUSH1 0x0 DUP2 DUP2 MSTORE PUSH1 0x2 PUSH1 0x20 SWAP1 DUP2 MSTORE PUSH1 0x40 DUP1 DUP4 KECCAK256 DUP1 SLOAD PUSH1 0x1 PUSH1 0x1 PUSH1 0xA0 SHL SUB NOT AND PUSH1 0x1 PUSH1 0x1 PUSH1 0xA0 SHL SUB DUP8 AND SWAP1 DUP2 OR SWAP1 SWAP2 SSTORE DUP1 DUP5 MSTORE PUSH1 0x5 DUP4 MSTORE SWAP1 DUP4 KECCAK256 DUP1 SLOAD PUSH1 0x1 DUP2 DUP2 ADD DUP4 SSTORE DUP3 DUP7 MSTORE SWAP4 DUP6 KECCAK256 ADD DUP6 SWAP1 SSTORE SWAP3 MSTORE SWAP1 SLOAD PUSH2 0x29DA SWAP2 PUSH2 0x2090 JUMP JUMPDEST PUSH1 0x0 SWAP2 DUP3 MSTORE PUSH1 0x6 PUSH1 0x20 MSTORE PUSH1 0x40 SWAP1 SWAP2 KECCAK256 SSTORE POP JUMP JUMPDEST PUSH1 0x0 DUP2 DUP2 MSTORE PUSH1 0x3 PUSH1 0x20 MSTORE PUSH1 0x40 SWAP1 KECCAK256 SLOAD PUSH1 0x1 PUSH1 0x1 PUSH1 0xA0 SHL SUB AND ISZERO PUSH2 0x1E05 JUMPI PUSH1 0x0 SWAP1 DUP2 MSTORE PUSH1 0x3 PUSH1 0x20 MSTORE PUSH1 0x40 SWAP1 KECCAK256 DUP1 SLOAD PUSH1 0x1 PUSH1 0x1 PUSH1 0xA0 SHL SUB NOT AND SWAP1 SSTORE JUMP JUMPDEST PUSH1 0x0 DUP2 DUP2 MSTORE PUSH1 0x2 PUSH1 0x20 MSTORE PUSH1 0x40 SWAP1 KECCAK256 SLOAD PUSH1 0x1 PUSH1 0x1 PUSH1 0xA0 SHL SUB DUP4 DUP2 AND SWAP2 AND EQ PUSH2 0x2A84 JUMPI PUSH1 0x40 MLOAD PUSH3 0x461BCD PUSH1 0xE5 SHL DUP2 MSTORE PUSH1 0x20 PUSH1 0x4 DUP3 ADD MSTORE PUSH1 0x10 PUSH1 0x24 DUP3 ADD MSTORE PUSH16 0x24B731B7B93932B1BA1037BBB732B917 PUSH1 0x81 SHL PUSH1 0x44 DUP3 ADD MSTORE PUSH1 0x64 ADD PUSH2 0x8BD JUMP JUMPDEST PUSH1 0x0 DUP2 DUP2 MSTORE PUSH1 0x2 PUSH1 0x20 SWAP1 DUP2 MSTORE PUSH1 0x40 DUP1 DUP4 KECCAK256 DUP1 SLOAD PUSH1 0x1 PUSH1 0x1 PUSH1 0xA0 SHL SUB NOT AND SWAP1 SSTORE PUSH1 0x6 DUP3 MSTORE DUP1 DUP4 KECCAK256 SLOAD PUSH1 0x1 PUSH1 0x1 PUSH1 0xA0 SHL SUB DUP7 AND DUP5 MSTORE PUSH1 0x5 SWAP1 SWAP3 MSTORE DUP3 KECCAK256 SLOAD SWAP1 SWAP2 SWAP1 PUSH2 0x2ACD SWAP1 PUSH1 0x1 PUSH2 0x2090 JUMP JUMPDEST SWAP1 POP DUP2 DUP2 EQ PUSH2 0x2B64 JUMPI PUSH1 0x1 PUSH1 0x1 PUSH1 0xA0 SHL SUB DUP5 AND PUSH1 0x0 SWAP1 DUP2 MSTORE PUSH1 0x5 PUSH1 0x20 MSTORE PUSH1 0x40 DUP2 KECCAK256 DUP1 SLOAD DUP4 SWAP1 DUP2 LT PUSH2 0x2B00 JUMPI PUSH2 0x2B00 PUSH2 0x350F JUMP JUMPDEST SWAP1 PUSH1 0x0 MSTORE PUSH1 0x20 PUSH1 0x0 KECCAK256 ADD SLOAD SWAP1 POP DUP1 PUSH1 0x5 PUSH1 0x0 DUP8 PUSH1 0x1 PUSH1 0x1 PUSH1 0xA0 SHL SUB AND PUSH1 0x1 PUSH1 0x1 PUSH1 0xA0 SHL SUB AND DUP2 MSTORE PUSH1 0x20 ADD SWAP1 DUP2 MSTORE PUSH1 0x20 ADD PUSH1 0x0 KECCAK256 DUP5 DUP2 SLOAD DUP2 LT PUSH2 0x2B44 JUMPI PUSH2 0x2B44 PUSH2 0x350F JUMP JUMPDEST PUSH1 0x0 SWAP2 DUP3 MSTORE PUSH1 0x20 DUP1 DUP4 KECCAK256 SWAP1 SWAP2 ADD SWAP3 SWAP1 SWAP3 SSTORE SWAP2 DUP3 MSTORE PUSH1 0x6 SWAP1 MSTORE PUSH1 0x40 SWAP1 KECCAK256 DUP3 SWAP1 SSTORE JUMPDEST PUSH1 0x1 PUSH1 0x1 PUSH1 0xA0 SHL SUB DUP5 AND PUSH1 0x0 SWAP1 DUP2 MSTORE PUSH1 0x5 PUSH1 0x20 MSTORE PUSH1 0x40 SWAP1 KECCAK256 DUP1 SLOAD DUP1 PUSH2 0x2B8B JUMPI PUSH2 0x2B8B PUSH2 0x34F9 JUMP JUMPDEST PUSH1 0x1 SWAP1 SUB DUP2 DUP2 SWAP1 PUSH1 0x0 MSTORE PUSH1 0x20 PUSH1 0x0 KECCAK256 ADD PUSH1 0x0 SWAP1 SSTORE SWAP1 SSTORE POP POP POP POP JUMP JUMPDEST PUSH1 0x60 PUSH2 0x2BB6 DUP5 DUP5 PUSH1 0x0 DUP6 PUSH2 0x2BBE JUMP JUMPDEST SWAP5 SWAP4 POP POP POP POP JUMP JUMPDEST PUSH1 0x60 DUP3 SELFBALANCE LT ISZERO PUSH2 0x2C1F JUMPI PUSH1 0x40 MLOAD PUSH3 0x461BCD PUSH1 0xE5 SHL DUP2 MSTORE PUSH1 0x20 PUSH1 0x4 DUP3 ADD MSTORE PUSH1 0x26 PUSH1 0x24 DUP3 ADD MSTORE PUSH32 0x416464726573733A20696E73756666696369656E742062616C616E636520666F PUSH1 0x44 DUP3 ADD MSTORE PUSH6 0x1C8818D85B1B PUSH1 0xD2 SHL PUSH1 0x64 DUP3 ADD MSTORE PUSH1 0x84 ADD PUSH2 0x8BD JUMP JUMPDEST PUSH1 0x1 PUSH1 0x1 PUSH1 0xA0 SHL SUB DUP6 AND EXTCODESIZE PUSH2 0x2C76 JUMPI PUSH1 0x40 MLOAD PUSH3 0x461BCD PUSH1 0xE5 SHL DUP2 MSTORE PUSH1 0x20 PUSH1 0x4 DUP3 ADD MSTORE PUSH1 0x1D PUSH1 0x24 DUP3 ADD MSTORE PUSH32 0x416464726573733A2063616C6C20746F206E6F6E2D636F6E7472616374000000 PUSH1 0x44 DUP3 ADD MSTORE PUSH1 0x64 ADD PUSH2 0x8BD JUMP JUMPDEST PUSH1 0x0 DUP1 DUP7 PUSH1 0x1 PUSH1 0x1 PUSH1 0xA0 SHL SUB AND DUP6 DUP8 PUSH1 0x40 MLOAD PUSH2 0x2C92 SWAP2 SWAP1 PUSH2 0x3151 JUMP JUMPDEST PUSH1 0x0 PUSH1 0x40 MLOAD DUP1 DUP4 SUB DUP2 DUP6 DUP8 GAS CALL SWAP3 POP POP POP RETURNDATASIZE DUP1 PUSH1 0x0 DUP2 EQ PUSH2 0x2CCF JUMPI PUSH1 0x40 MLOAD SWAP2 POP PUSH1 0x1F NOT PUSH1 0x3F RETURNDATASIZE ADD AND DUP3 ADD PUSH1 0x40 MSTORE RETURNDATASIZE DUP3 MSTORE RETURNDATASIZE PUSH1 0x0 PUSH1 0x20 DUP5 ADD RETURNDATACOPY PUSH2 0x2CD4 JUMP JUMPDEST PUSH1 0x60 SWAP2 POP JUMPDEST POP SWAP2 POP SWAP2 POP PUSH2 0x2CE4 DUP3 DUP3 DUP7 PUSH2 0x2CEF JUMP JUMPDEST SWAP8 SWAP7 POP POP POP POP POP POP POP JUMP JUMPDEST PUSH1 0x60 DUP4 ISZERO PUSH2 0x2CFE JUMPI POP DUP2 PUSH2 0x20A9 JUMP JUMPDEST DUP3 MLOAD ISZERO PUSH2 0x2D0E JUMPI DUP3 MLOAD DUP1 DUP5 PUSH1 0x20 ADD REVERT JUMPDEST DUP2 PUSH1 0x40 MLOAD PUSH3 0x461BCD PUSH1 0xE5 SHL DUP2 MSTORE PUSH1 0x4 ADD PUSH2 0x8BD SWAP2 SWAP1 PUSH2 0x3251 JUMP JUMPDEST DUP3 DUP1 SLOAD PUSH2 0x2D34 SWAP1 PUSH2 0x3469 JUMP JUMPDEST SWAP1 PUSH1 0x0 MSTORE PUSH1 0x20 PUSH1 0x0 KECCAK256 SWAP1 PUSH1 0x1F ADD PUSH1 0x20 SWAP1 DIV DUP2 ADD SWAP3 DUP3 PUSH2 0x2D56 JUMPI PUSH1 0x0 DUP6 SSTORE PUSH2 0x2D9C JUMP JUMPDEST DUP3 PUSH1 0x1F LT PUSH2 0x2D6F JUMPI DUP1 MLOAD PUSH1 0xFF NOT AND DUP4 DUP1 ADD OR DUP6 SSTORE PUSH2 0x2D9C JUMP JUMPDEST DUP3 DUP1 ADD PUSH1 0x1 ADD DUP6 SSTORE DUP3 ISZERO PUSH2 0x2D9C JUMPI SWAP2 DUP3 ADD JUMPDEST DUP3 DUP2 GT ISZERO PUSH2 0x2D9C JUMPI DUP3 MLOAD DUP3 SSTORE SWAP2 PUSH1 0x20 ADD SWAP2 SWAP1 PUSH1 0x1 ADD SWAP1 PUSH2 0x2D81 JUMP JUMPDEST POP PUSH2 0x2DA8 SWAP3 SWAP2 POP PUSH2 0x2DAC JUMP JUMPDEST POP SWAP1 JUMP JUMPDEST JUMPDEST DUP1 DUP3 GT ISZERO PUSH2 0x2DA8 JUMPI PUSH1 0x0 DUP2 SSTORE PUSH1 0x1 ADD PUSH2 0x2DAD JUMP JUMPDEST DUP1 CALLDATALOAD PUSH1 0x1 PUSH1 0x1 PUSH1 0xA0 SHL SUB DUP2 AND DUP2 EQ PUSH2 0x2DD8 JUMPI PUSH1 0x0 DUP1 REVERT JUMPDEST SWAP2 SWAP1 POP JUMP JUMPDEST PUSH1 0x0 PUSH1 0x20 DUP3 DUP5 SUB SLT ISZERO PUSH2 0x2DEF JUMPI PUSH1 0x0 DUP1 REVERT JUMPDEST PUSH2 0x20A9 DUP3 PUSH2 0x2DC1 JUMP JUMPDEST PUSH1 0x0 DUP1 PUSH1 0x40 DUP4 DUP6 SUB SLT ISZERO PUSH2 0x2E0B JUMPI PUSH1 0x0 DUP1 REVERT JUMPDEST PUSH2 0x2E14 DUP4 PUSH2 0x2DC1 JUMP JUMPDEST SWAP2 POP PUSH2 0x2E22 PUSH1 0x20 DUP5 ADD PUSH2 0x2DC1 JUMP JUMPDEST SWAP1 POP SWAP3 POP SWAP3 SWAP1 POP JUMP JUMPDEST PUSH1 0x0 DUP1 PUSH1 0x0 PUSH1 0x60 DUP5 DUP7 SUB SLT ISZERO PUSH2 0x2E40 JUMPI PUSH1 0x0 DUP1 REVERT JUMPDEST PUSH2 0x2E49 DUP5 PUSH2 0x2DC1 JUMP JUMPDEST SWAP3 POP PUSH2 0x2E57 PUSH1 0x20 DUP6 ADD PUSH2 0x2DC1 JUMP JUMPDEST SWAP2 POP PUSH1 0x40 DUP5 ADD CALLDATALOAD SWAP1 POP SWAP3 POP SWAP3 POP SWAP3 JUMP JUMPDEST PUSH1 0x0 DUP1 PUSH1 0x0 DUP1 PUSH1 0x0 PUSH1 0x80 DUP7 DUP9 SUB SLT ISZERO PUSH2 0x2E7F JUMPI PUSH1 0x0 DUP1 REVERT JUMPDEST PUSH2 0x2E88 DUP7 PUSH2 0x2DC1 JUMP JUMPDEST SWAP5 POP PUSH2 0x2E96 PUSH1 0x20 DUP8 ADD PUSH2 0x2DC1 JUMP JUMPDEST SWAP4 POP PUSH1 0x40 DUP7 ADD CALLDATALOAD SWAP3 POP PUSH1 0x60 DUP7 ADD CALLDATALOAD PUSH8 0xFFFFFFFFFFFFFFFF DUP1 DUP3 GT ISZERO PUSH2 0x2EBA JUMPI PUSH1 0x0 DUP1 REVERT JUMPDEST DUP2 DUP9 ADD SWAP2 POP DUP9 PUSH1 0x1F DUP4 ADD SLT PUSH2 0x2ECE JUMPI PUSH1 0x0 DUP1 REVERT JUMPDEST DUP2 CALLDATALOAD DUP2 DUP2 GT ISZERO PUSH2 0x2EDD JUMPI PUSH1 0x0 DUP1 REVERT JUMPDEST DUP10 PUSH1 0x20 DUP3 DUP6 ADD ADD GT ISZERO PUSH2 0x2EEF JUMPI PUSH1 0x0 DUP1 REVERT JUMPDEST SWAP7 SWAP10 SWAP6 SWAP9 POP SWAP4 SWAP7 POP PUSH1 0x20 ADD SWAP5 SWAP4 SWAP3 POP POP POP JUMP JUMPDEST PUSH1 0x0 DUP1 PUSH1 0x40 DUP4 DUP6 SUB SLT ISZERO PUSH2 0x2F15 JUMPI PUSH1 0x0 DUP1 REVERT JUMPDEST PUSH2 0x2F1E DUP4 PUSH2 0x2DC1 JUMP JUMPDEST SWAP2 POP PUSH1 0x20 DUP4 ADD CALLDATALOAD PUSH2 0x2F2E DUP2 PUSH2 0x353B JUMP JUMPDEST DUP1 SWAP2 POP POP SWAP3 POP SWAP3 SWAP1 POP JUMP JUMPDEST PUSH1 0x0 DUP1 PUSH1 0x40 DUP4 DUP6 SUB SLT ISZERO PUSH2 0x2F4C JUMPI PUSH1 0x0 DUP1 REVERT JUMPDEST PUSH2 0x2F55 DUP4 PUSH2 0x2DC1 JUMP JUMPDEST SWAP5 PUSH1 0x20 SWAP4 SWAP1 SWAP4 ADD CALLDATALOAD SWAP4 POP POP POP JUMP JUMPDEST PUSH1 0x0 PUSH1 0x20 DUP3 DUP5 SUB SLT ISZERO PUSH2 0x2F75 JUMPI PUSH1 0x0 DUP1 REVERT JUMPDEST DUP2 CALLDATALOAD PUSH2 0x20A9 DUP2 PUSH2 0x353B JUMP JUMPDEST PUSH1 0x0 PUSH1 0x20 DUP3 DUP5 SUB SLT ISZERO PUSH2 0x2F92 JUMPI PUSH1 0x0 DUP1 REVERT JUMPDEST DUP2 MLOAD PUSH2 0x20A9 DUP2 PUSH2 0x353B JUMP JUMPDEST PUSH1 0x0 PUSH1 0x20 DUP3 DUP5 SUB SLT ISZERO PUSH2 0x2FAF JUMPI PUSH1 0x0 DUP1 REVERT JUMPDEST DUP2 CALLDATALOAD PUSH2 0x20A9 DUP2 PUSH2 0x3549 JUMP JUMPDEST PUSH1 0x0 PUSH1 0x20 DUP3 DUP5 SUB SLT ISZERO PUSH2 0x2FCC JUMPI PUSH1 0x0 DUP1 REVERT JUMPDEST DUP2 MLOAD PUSH2 0x20A9 DUP2 PUSH2 0x3549 JUMP JUMPDEST PUSH1 0x0 PUSH1 0x20 DUP3 DUP5 SUB SLT ISZERO PUSH2 0x2FE9 JUMPI PUSH1 0x0 DUP1 REVERT JUMPDEST DUP2 CALLDATALOAD PUSH8 0xFFFFFFFFFFFFFFFF DUP1 DUP3 GT ISZERO PUSH2 0x3001 JUMPI PUSH1 0x0 DUP1 REVERT JUMPDEST DUP2 DUP5 ADD SWAP2 POP DUP5 PUSH1 0x1F DUP4 ADD SLT PUSH2 0x3015 JUMPI PUSH1 0x0 DUP1 REVERT JUMPDEST DUP2 CALLDATALOAD DUP2 DUP2 GT ISZERO PUSH2 0x3027 JUMPI PUSH2 0x3027 PUSH2 0x3525 JUMP JUMPDEST PUSH1 0x40 MLOAD PUSH1 0x1F DUP3 ADD PUSH1 0x1F NOT SWAP1 DUP2 AND PUSH1 0x3F ADD AND DUP2 ADD SWAP1 DUP4 DUP3 GT DUP2 DUP4 LT OR ISZERO PUSH2 0x304F JUMPI PUSH2 0x304F PUSH2 0x3525 JUMP JUMPDEST DUP2 PUSH1 0x40 MSTORE DUP3 DUP2 MSTORE DUP8 PUSH1 0x20 DUP5 DUP8 ADD ADD GT ISZERO PUSH2 0x3068 JUMPI PUSH1 0x0 DUP1 REVERT JUMPDEST DUP3 PUSH1 0x20 DUP7 ADD PUSH1 0x20 DUP4 ADD CALLDATACOPY PUSH1 0x0 SWAP3 DUP2 ADD PUSH1 0x20 ADD SWAP3 SWAP1 SWAP3 MSTORE POP SWAP6 SWAP5 POP POP POP POP POP JUMP JUMPDEST PUSH1 0x0 PUSH1 0x20 DUP3 DUP5 SUB SLT ISZERO PUSH2 0x309A JUMPI PUSH1 0x0 DUP1 REVERT JUMPDEST POP CALLDATALOAD SWAP2 SWAP1 POP JUMP JUMPDEST PUSH1 0x0 PUSH1 0x20 DUP3 DUP5 SUB SLT ISZERO PUSH2 0x30B3 JUMPI PUSH1 0x0 DUP1 REVERT JUMPDEST POP MLOAD SWAP2 SWAP1 POP JUMP JUMPDEST PUSH1 0x0 DUP1 PUSH1 0x40 DUP4 DUP6 SUB SLT ISZERO PUSH2 0x30CD JUMPI PUSH1 0x0 DUP1 REVERT JUMPDEST DUP3 CALLDATALOAD SWAP2 POP PUSH2 0x2E22 PUSH1 0x20 DUP5 ADD PUSH2 0x2DC1 JUMP JUMPDEST PUSH1 0x0 DUP1 PUSH1 0x0 PUSH1 0x60 DUP5 DUP7 SUB SLT ISZERO PUSH2 0x30F2 JUMPI PUSH1 0x0 DUP1 REVERT JUMPDEST POP POP DUP2 CALLDATALOAD SWAP4 PUSH1 0x20 DUP4 ADD CALLDATALOAD SWAP4 POP PUSH1 0x40 SWAP1 SWAP3 ADD CALLDATALOAD SWAP2 SWAP1 POP JUMP JUMPDEST PUSH1 0x0 DUP2 MLOAD DUP1 DUP5 MSTORE PUSH2 0x3121 DUP2 PUSH1 0x20 DUP7 ADD PUSH1 0x20 DUP7 ADD PUSH2 0x3426 JUMP JUMPDEST PUSH1 0x1F ADD PUSH1 0x1F NOT AND SWAP3 SWAP1 SWAP3 ADD PUSH1 0x20 ADD SWAP3 SWAP2 POP POP JUMP JUMPDEST PUSH1 0x0 DUP2 MLOAD PUSH2 0x3147 DUP2 DUP6 PUSH1 0x20 DUP7 ADD PUSH2 0x3426 JUMP JUMPDEST SWAP3 SWAP1 SWAP3 ADD SWAP3 SWAP2 POP POP JUMP JUMPDEST PUSH1 0x0 DUP3 MLOAD PUSH2 0x3163 DUP2 DUP5 PUSH1 0x20 DUP8 ADD PUSH2 0x3426 JUMP JUMPDEST SWAP2 SWAP1 SWAP2 ADD SWAP3 SWAP2 POP POP JUMP JUMPDEST PUSH1 0x0 DUP1 DUP5 SLOAD DUP2 PUSH1 0x1 DUP3 DUP2 SHR SWAP2 POP DUP1 DUP4 AND DUP1 PUSH2 0x3189 JUMPI PUSH1 0x7F DUP4 AND SWAP3 POP JUMPDEST PUSH1 0x20 DUP1 DUP5 LT DUP3 EQ ISZERO PUSH2 0x31A9 JUMPI PUSH4 0x4E487B71 PUSH1 0xE0 SHL DUP7 MSTORE PUSH1 0x22 PUSH1 0x4 MSTORE PUSH1 0x24 DUP7 REVERT JUMPDEST DUP2 DUP1 ISZERO PUSH2 0x31BD JUMPI PUSH1 0x1 DUP2 EQ PUSH2 0x31CE JUMPI PUSH2 0x31FB JUMP JUMPDEST PUSH1 0xFF NOT DUP7 AND DUP10 MSTORE DUP5 DUP10 ADD SWAP7 POP PUSH2 0x31FB JUMP JUMPDEST PUSH1 0x0 DUP12 DUP2 MSTORE PUSH1 0x20 SWAP1 KECCAK256 PUSH1 0x0 JUMPDEST DUP7 DUP2 LT ISZERO PUSH2 0x31F3 JUMPI DUP2 SLOAD DUP12 DUP3 ADD MSTORE SWAP1 DUP6 ADD SWAP1 DUP4 ADD PUSH2 0x31DA JUMP JUMPDEST POP POP DUP5 DUP10 ADD SWAP7 POP JUMPDEST POP POP POP POP POP POP PUSH2 0x320B DUP2 DUP6 PUSH2 0x3135 JUMP JUMPDEST SWAP6 SWAP5 POP POP POP POP POP JUMP JUMPDEST PUSH1 0x1 PUSH1 0x1 PUSH1 0xA0 SHL SUB DUP6 DUP2 AND DUP3 MSTORE DUP5 AND PUSH1 0x20 DUP3 ADD MSTORE PUSH1 0x40 DUP2 ADD DUP4 SWAP1 MSTORE PUSH1 0x80 PUSH1 0x60 DUP3 ADD DUP2 SWAP1 MSTORE PUSH1 0x0 SWAP1 PUSH2 0x3247 SWAP1 DUP4 ADD DUP5 PUSH2 0x3109 JUMP JUMPDEST SWAP7 SWAP6 POP POP POP POP POP POP JUMP JUMPDEST PUSH1 0x20 DUP2 MSTORE PUSH1 0x0 PUSH2 0x20A9 PUSH1 0x20 DUP4 ADD DUP5 PUSH2 0x3109 JUMP JUMPDEST PUSH1 0x20 DUP1 DUP3 MSTORE PUSH1 0xE SWAP1 DUP3 ADD MSTORE PUSH14 0x24B73B30B634B2103A37B5B2B717 PUSH1 0x91 SHL PUSH1 0x40 DUP3 ADD MSTORE PUSH1 0x60 ADD SWAP1 JUMP JUMPDEST PUSH1 0x20 DUP1 DUP3 MSTORE PUSH1 0x12 SWAP1 DUP3 ADD MSTORE PUSH18 0x13585C9AD95D081B9BDD081CDD185C9D1959 PUSH1 0x72 SHL PUSH1 0x40 DUP3 ADD MSTORE PUSH1 0x60 ADD SWAP1 JUMP JUMPDEST PUSH1 0x20 DUP1 DUP3 MSTORE DUP2 DUP2 ADD MSTORE PUSH32 0x4F776E61626C653A2063616C6C6572206973206E6F7420746865206F776E6572 PUSH1 0x40 DUP3 ADD MSTORE PUSH1 0x60 ADD SWAP1 JUMP JUMPDEST PUSH1 0x20 DUP1 DUP3 MSTORE PUSH1 0x29 SWAP1 DUP3 ADD MSTORE PUSH32 0x596F752063616E206E6F7420627579206D6F7265207468616E203230204E4654 PUSH1 0x40 DUP3 ADD MSTORE PUSH9 0x73206174206F6E6365 PUSH1 0xB8 SHL PUSH1 0x60 DUP3 ADD MSTORE PUSH1 0x80 ADD SWAP1 JUMP JUMPDEST PUSH1 0x20 DUP1 DUP3 MSTORE PUSH1 0x22 SWAP1 DUP3 ADD MSTORE PUSH32 0x596F7520617265206E6F7420746865206F776E6572206F662074686520746F6B PUSH1 0x40 DUP3 ADD MSTORE PUSH2 0x32B7 PUSH1 0xF1 SHL PUSH1 0x60 DUP3 ADD MSTORE PUSH1 0x80 ADD SWAP1 JUMP JUMPDEST PUSH1 0x20 DUP1 DUP3 MSTORE PUSH1 0x2C SWAP1 DUP3 ADD MSTORE PUSH32 0x457863656564732072656D61696E696E67207072696D6172792073616C65206F PUSH1 0x40 DUP3 ADD MSTORE PUSH12 0x66204D415449432073616C65 PUSH1 0xA0 SHL PUSH1 0x60 DUP3 ADD MSTORE PUSH1 0x80 ADD SWAP1 JUMP JUMPDEST PUSH1 0x0 DUP3 NOT DUP3 GT ISZERO PUSH2 0x33D7 JUMPI PUSH2 0x33D7 PUSH2 0x34CD JUMP JUMPDEST POP ADD SWAP1 JUMP JUMPDEST PUSH1 0x0 DUP3 PUSH2 0x33EB JUMPI PUSH2 0x33EB PUSH2 0x34E3 JUMP JUMPDEST POP DIV SWAP1 JUMP JUMPDEST PUSH1 0x0 DUP2 PUSH1 0x0 NOT DIV DUP4 GT DUP3 ISZERO ISZERO AND ISZERO PUSH2 0x340A JUMPI PUSH2 0x340A PUSH2 0x34CD JUMP JUMPDEST POP MUL SWAP1 JUMP JUMPDEST PUSH1 0x0 DUP3 DUP3 LT ISZERO PUSH2 0x3421 JUMPI PUSH2 0x3421 PUSH2 0x34CD JUMP JUMPDEST POP SUB SWAP1 JUMP JUMPDEST PUSH1 0x0 JUMPDEST DUP4 DUP2 LT ISZERO PUSH2 0x3441 JUMPI DUP2 DUP2 ADD MLOAD DUP4 DUP3 ADD MSTORE PUSH1 0x20 ADD PUSH2 0x3429 JUMP JUMPDEST DUP4 DUP2 GT ISZERO PUSH2 0x213A JUMPI POP POP PUSH1 0x0 SWAP2 ADD MSTORE JUMP JUMPDEST PUSH1 0x0 DUP2 PUSH2 0x3461 JUMPI PUSH2 0x3461 PUSH2 0x34CD JUMP JUMPDEST POP PUSH1 0x0 NOT ADD SWAP1 JUMP JUMPDEST PUSH1 0x1 DUP2 DUP2 SHR SWAP1 DUP3 AND DUP1 PUSH2 0x347D JUMPI PUSH1 0x7F DUP3 AND SWAP2 POP JUMPDEST PUSH1 0x20 DUP3 LT DUP2 EQ ISZERO PUSH2 0x9D8 JUMPI PUSH4 0x4E487B71 PUSH1 0xE0 SHL PUSH1 0x0 MSTORE PUSH1 0x22 PUSH1 0x4 MSTORE PUSH1 0x24 PUSH1 0x0 REVERT JUMPDEST PUSH1 0x0 PUSH1 0x0 NOT DUP3 EQ ISZERO PUSH2 0x34B2 JUMPI PUSH2 0x34B2 PUSH2 0x34CD JUMP JUMPDEST POP PUSH1 0x1 ADD SWAP1 JUMP JUMPDEST PUSH1 0x0 DUP3 PUSH2 0x34C8 JUMPI PUSH2 0x34C8 PUSH2 0x34E3 JUMP JUMPDEST POP MOD SWAP1 JUMP JUMPDEST PUSH4 0x4E487B71 PUSH1 0xE0 SHL PUSH1 0x0 MSTORE PUSH1 0x11 PUSH1 0x4 MSTORE PUSH1 0x24 PUSH1 0x0 REVERT JUMPDEST PUSH4 0x4E487B71 PUSH1 0xE0 SHL PUSH1 0x0 MSTORE PUSH1 0x12 PUSH1 0x4 MSTORE PUSH1 0x24 PUSH1 0x0 REVERT JUMPDEST PUSH4 0x4E487B71 PUSH1 0xE0 SHL PUSH1 0x0 MSTORE PUSH1 0x31 PUSH1 0x4 MSTORE PUSH1 0x24 PUSH1 0x0 REVERT JUMPDEST PUSH4 0x4E487B71 PUSH1 0xE0 SHL PUSH1 0x0 MSTORE PUSH1 0x32 PUSH1 0x4 MSTORE PUSH1 0x24 PUSH1 0x0 REVERT JUMPDEST PUSH4 0x4E487B71 PUSH1 0xE0 SHL PUSH1 0x0 MSTORE PUSH1 0x41 PUSH1 0x4 MSTORE PUSH1 0x24 PUSH1 0x0 REVERT JUMPDEST DUP1 ISZERO ISZERO DUP2 EQ PUSH2 0x1E05 JUMPI PUSH1 0x0 DUP1 REVERT JUMPDEST PUSH1 0x1 PUSH1 0x1 PUSH1 0xE0 SHL SUB NOT DUP2 AND DUP2 EQ PUSH2 0x1E05 JUMPI PUSH1 0x0 DUP1 REVERT INVALID LOG2 PUSH5 0x6970667358 0x22 SLT KECCAK256 EQ CREATE 0x2C 0xBF DUP2 PUSH9 0xFAA0CC72BE527AC82F 0x5C GAS SWAP13 0xC4 PUSH14 0x3721BD757F9D87F6CCA81F886473 PUSH16 0x6C634300080700330000000000000000 "
				},
				"gasEstimates": {
					"creation": {
						"codeDepositCost": "2743400",
						"executionCost": "infinite",
						"totalCost": "infinite"
					},
					"external": {
						"Goldmint(uint256)": "infinite",
						"TOKEN_LIMIT()": "264",
						"addPaymentToken(uint256,address)": "26894",
						"approve(address,uint256)": "35554",
						"balanceOf(address)": "2677",
						"baseFee()": "2341",
						"baseUri()": "infinite",
						"buyNFTMatic(uint256)": "infinite",
						"buyNFTWithToken(uint256)": "infinite",
						"canUse(uint256,address)": "7218",
						"createListing(uint256,uint256,uint256)": "84185",
						"feeWallet()": "2425",
						"getApproved(uint256)": "4844",
						"gold()": "2491",
						"isApprovedForAll(address,address)": "infinite",
						"list(uint256)": "6902",
						"marketStatus()": "2471",
						"mintsRemaining()": "infinite",
						"name()": "infinite",
						"owner()": "2465",
						"ownerOf(uint256)": "4825",
						"privateSale()": "2383",
						"publicMint(uint256)": "infinite",
						"publicSale()": "2450",
						"purchaseToken(uint256)": "2566",
						"remainderOfGold()": "2361",
						"remainderOfPrimary()": "2384",
						"removeListing(uint256)": "42491",
						"renounceOwnership()": "28204",
						"safeTransferFrom(address,address,uint256)": "infinite",
						"safeTransferFrom(address,address,uint256,bytes)": "infinite",
						"saleStartTime()": "2429",
						"setApprovalForAll(address,bool)": "26725",
						"setFee(uint256)": "24619",
						"setSale(bool)": "26845",
						"setUri(string)": "infinite",
						"startPrivateSale()": "51648",
						"startSale()": "51691",
						"supportsInterface(bytes4)": "2585",
						"symbol()": "infinite",
						"tokenByIndex(uint256)": "495",
						"tokenOfOwnerByIndex(address,uint256)": "7068",
						"tokenURI(uint256)": "infinite",
						"totalSupply()": "2404",
						"transferFrom(address,address,uint256)": "infinite",
						"transferOwnership(address)": "28419"
					},
					"internal": {
						"_addNFToken(address,uint256)": "infinite",
						"_clearApproval(uint256)": "26514",
						"_getOwnerNFTCount(address)": "infinite",
						"_mint(address)": "infinite",
						"_removeListing(uint256)": "infinite",
						"_removeNFToken(address,uint256)": "infinite",
						"_safeTransfer(address,address,uint256,bytes memory)": "infinite",
						"_safeTransferFrom(address,address,uint256,bytes memory)": "infinite",
						"_transfer(address,uint256)": "infinite",
						"isContract(address)": "infinite",
						"randomIndex()": "infinite",
						"toString(uint256)": "infinite"
					}
				},
				"methodIdentifiers": {
					"Goldmint(uint256)": "10a15cc8",
					"TOKEN_LIMIT()": "031bd4c4",
					"addPaymentToken(uint256,address)": "0612c478",
					"approve(address,uint256)": "095ea7b3",
					"balanceOf(address)": "70a08231",
					"baseFee()": "6ef25c3a",
					"baseUri()": "9abc8320",
					"buyNFTMatic(uint256)": "f9ae7aaf",
					"buyNFTWithToken(uint256)": "d4c66861",
					"canUse(uint256,address)": "0cef3df1",
					"createListing(uint256,uint256,uint256)": "b03053b6",
					"feeWallet()": "f25f4b56",
					"getApproved(uint256)": "081812fc",
					"gold()": "fbec6f21",
					"isApprovedForAll(address,address)": "e985e9c5",
					"list(uint256)": "80c9419e",
					"marketStatus()": "e0e081d7",
					"mintsRemaining()": "44c66be7",
					"name()": "06fdde03",
					"owner()": "8da5cb5b",
					"ownerOf(uint256)": "6352211e",
					"privateSale()": "ba1f879f",
					"publicMint(uint256)": "2db11544",
					"publicSale()": "33bc1c5c",
					"purchaseToken(uint256)": "c2db2c42",
					"remainderOfGold()": "ed38b79c",
					"remainderOfPrimary()": "4c211c28",
					"removeListing(uint256)": "479ad4c3",
					"renounceOwnership()": "715018a6",
					"safeTransferFrom(address,address,uint256)": "42842e0e",
					"safeTransferFrom(address,address,uint256,bytes)": "b88d4fde",
					"saleStartTime()": "1cbaee2d",
					"setApprovalForAll(address,bool)": "a22cb465",
					"setFee(uint256)": "69fe0e2d",
					"setSale(bool)": "1d2e5a3a",
					"setUri(string)": "9b642de1",
					"startPrivateSale()": "338dbf59",
					"startSale()": "b66a0e5d",
					"supportsInterface(bytes4)": "01ffc9a7",
					"symbol()": "95d89b41",
					"tokenByIndex(uint256)": "4f6ccce7",
					"tokenOfOwnerByIndex(address,uint256)": "2f745c59",
					"tokenURI(uint256)": "c87b56dd",
					"totalSupply()": "18160ddd",
					"transferFrom(address,address,uint256)": "23b872dd",
					"transferOwnership(address)": "f2fde38b"
				}
			},
			"userdoc": {
				"kind": "user",
				"methods": {},
				"version": 1
			}
		}
	}
}