{
	"contracts/NFTMain.sol": {
		"NFTmain": {
			"abi": [
				{
					"inputs": [
						{
							"internalType": "address payable",
							"name": "_marketer",
							"type": "address"
						},
						{
							"internalType": "address payable",
							"name": "_developer",
							"type": "address"
						},
						{
							"internalType": "address",
							"name": "gold_",
							"type": "address"
						},
						{
							"internalType": "uint256",
							"name": "_fee",
							"type": "uint256"
						},
						{
							"internalType": "address",
							"name": "_feeAddress",
							"type": "address"
						}
					],
					"stateMutability": "nonpayable",
					"type": "constructor"
				},
				{
					"anonymous": false,
					"inputs": [
						{
							"indexed": true,
							"internalType": "address",
							"name": "owner",
							"type": "address"
						},
						{
							"indexed": true,
							"internalType": "address",
							"name": "approved",
							"type": "address"
						},
						{
							"indexed": true,
							"internalType": "uint256",
							"name": "tokenId",
							"type": "uint256"
						}
					],
					"name": "Approval",
					"type": "event"
				},
				{
					"anonymous": false,
					"inputs": [
						{
							"indexed": true,
							"internalType": "address",
							"name": "owner",
							"type": "address"
						},
						{
							"indexed": true,
							"internalType": "address",
							"name": "operator",
							"type": "address"
						},
						{
							"indexed": false,
							"internalType": "bool",
							"name": "approved",
							"type": "bool"
						}
					],
					"name": "ApprovalForAll",
					"type": "event"
				},
				{
					"anonymous": false,
					"inputs": [
						{
							"indexed": true,
							"internalType": "uint256",
							"name": "index",
							"type": "uint256"
						},
						{
							"indexed": true,
							"internalType": "address",
							"name": "minter",
							"type": "address"
						}
					],
					"name": "Mint",
					"type": "event"
				},
				{
					"anonymous": false,
					"inputs": [
						{
							"indexed": false,
							"internalType": "uint256",
							"name": "_tokenId",
							"type": "uint256"
						},
						{
							"indexed": false,
							"internalType": "uint256",
							"name": "price",
							"type": "uint256"
						},
						{
							"indexed": false,
							"internalType": "uint256",
							"name": "purchaseTokenId",
							"type": "uint256"
						}
					],
					"name": "NFTbought",
					"type": "event"
				},
				{
					"anonymous": false,
					"inputs": [
						{
							"indexed": true,
							"internalType": "address",
							"name": "previousOwner",
							"type": "address"
						},
						{
							"indexed": true,
							"internalType": "address",
							"name": "newOwner",
							"type": "address"
						}
					],
					"name": "OwnershipTransferred",
					"type": "event"
				},
				{
					"anonymous": false,
					"inputs": [
						{
							"indexed": true,
							"internalType": "address",
							"name": "from",
							"type": "address"
						},
						{
							"indexed": true,
							"internalType": "address",
							"name": "to",
							"type": "address"
						},
						{
							"indexed": true,
							"internalType": "uint256",
							"name": "tokenId",
							"type": "uint256"
						}
					],
					"name": "Transfer",
					"type": "event"
				},
				{
					"anonymous": false,
					"inputs": [
						{
							"indexed": false,
							"internalType": "uint256",
							"name": "_tokenId",
							"type": "uint256"
						},
						{
							"indexed": false,
							"internalType": "uint256",
							"name": "_price",
							"type": "uint256"
						},
						{
							"indexed": false,
							"internalType": "uint256",
							"name": "purchaseTokenId",
							"type": "uint256"
						}
					],
					"name": "listingCreated",
					"type": "event"
				},
				{
					"anonymous": false,
					"inputs": [
						{
							"indexed": false,
							"internalType": "uint256",
							"name": "_tokenId",
							"type": "uint256"
						}
					],
					"name": "listingRemoved",
					"type": "event"
				},
				{
					"inputs": [
						{
							"internalType": "uint256",
							"name": "numberOfNfts",
							"type": "uint256"
						}
					],
					"name": "Goldmint",
					"outputs": [],
					"stateMutability": "payable",
					"type": "function"
				},
				{
					"inputs": [],
					"name": "TOKEN_LIMIT",
					"outputs": [
						{
							"internalType": "uint256",
							"name": "",
							"type": "uint256"
						}
					],
					"stateMutability": "view",
					"type": "function"
				},
				{
					"inputs": [
						{
							"internalType": "uint256",
							"name": "_paymentTokenId",
							"type": "uint256"
						},
						{
							"internalType": "address",
							"name": "_tokenAddress",
							"type": "address"
						}
					],
					"name": "addPaymentToken",
					"outputs": [],
					"stateMutability": "nonpayable",
					"type": "function"
				},
				{
					"inputs": [
						{
							"internalType": "address",
							"name": "_approved",
							"type": "address"
						},
						{
							"internalType": "uint256",
							"name": "_tokenId",
							"type": "uint256"
						}
					],
					"name": "approve",
					"outputs": [],
					"stateMutability": "nonpayable",
					"type": "function"
				},
				{
					"inputs": [
						{
							"internalType": "address",
							"name": "_owner",
							"type": "address"
						}
					],
					"name": "balanceOf",
					"outputs": [
						{
							"internalType": "uint256",
							"name": "",
							"type": "uint256"
						}
					],
					"stateMutability": "view",
					"type": "function"
				},
				{
					"inputs": [],
					"name": "baseFee",
					"outputs": [
						{
							"internalType": "uint256",
							"name": "",
							"type": "uint256"
						}
					],
					"stateMutability": "view",
					"type": "function"
				},
				{
					"inputs": [],
					"name": "baseUri",
					"outputs": [
						{
							"internalType": "string",
							"name": "",
							"type": "string"
						}
					],
					"stateMutability": "view",
					"type": "function"
				},
				{
					"inputs": [
						{
							"internalType": "uint256",
							"name": "_tokenId",
							"type": "uint256"
						}
					],
					"name": "buyNFTMatic",
					"outputs": [],
					"stateMutability": "payable",
					"type": "function"
				},
				{
					"inputs": [
						{
							"internalType": "uint256",
							"name": "_tokenId",
							"type": "uint256"
						}
					],
					"name": "buyNFTWithToken",
					"outputs": [],
					"stateMutability": "nonpayable",
					"type": "function"
				},
				{
					"inputs": [
						{
							"internalType": "uint256",
							"name": "_tokenId",
							"type": "uint256"
						},
						{
							"internalType": "address",
							"name": "_check",
							"type": "address"
						}
					],
					"name": "canUse",
					"outputs": [
						{
							"internalType": "bool",
							"name": "",
							"type": "bool"
						}
					],
					"stateMutability": "view",
					"type": "function"
				},
				{
					"inputs": [
						{
							"internalType": "uint256",
							"name": "_price",
							"type": "uint256"
						},
						{
							"internalType": "uint256",
							"name": "_tokenId",
							"type": "uint256"
						},
						{
							"internalType": "uint256",
							"name": "_purchaseTokenId",
							"type": "uint256"
						}
					],
					"name": "createListing",
					"outputs": [],
					"stateMutability": "nonpayable",
					"type": "function"
				},
				{
					"inputs": [],
					"name": "dungeonContract",
					"outputs": [
						{
							"internalType": "address",
							"name": "",
							"type": "address"
						}
					],
					"stateMutability": "view",
					"type": "function"
				},
				{
					"inputs": [],
					"name": "feeWallet",
					"outputs": [
						{
							"internalType": "address",
							"name": "",
							"type": "address"
						}
					],
					"stateMutability": "view",
					"type": "function"
				},
				{
					"inputs": [
						{
							"internalType": "uint256",
							"name": "_tokenId",
							"type": "uint256"
						}
					],
					"name": "getApproved",
					"outputs": [
						{
							"internalType": "address",
							"name": "",
							"type": "address"
						}
					],
					"stateMutability": "view",
					"type": "function"
				},
				{
					"inputs": [],
					"name": "getNftAddress",
					"outputs": [
						{
							"internalType": "uint256[]",
							"name": "",
							"type": "uint256[]"
						}
					],
					"stateMutability": "view",
					"type": "function"
				},
				{
					"inputs": [],
					"name": "gold",
					"outputs": [
						{
							"internalType": "contract IERC20",
							"name": "",
							"type": "address"
						}
					],
					"stateMutability": "view",
					"type": "function"
				},
				{
					"inputs": [
						{
							"internalType": "address",
							"name": "_owner",
							"type": "address"
						},
						{
							"internalType": "address",
							"name": "_operator",
							"type": "address"
						}
					],
					"name": "isApprovedForAll",
					"outputs": [
						{
							"internalType": "bool",
							"name": "",
							"type": "bool"
						}
					],
					"stateMutability": "view",
					"type": "function"
				},
				{
					"inputs": [
						{
							"internalType": "uint256",
							"name": "",
							"type": "uint256"
						}
					],
					"name": "list",
					"outputs": [
						{
							"internalType": "bool",
							"name": "isForSale",
							"type": "bool"
						},
						{
							"internalType": "address",
							"name": "owner",
							"type": "address"
						},
						{
							"internalType": "uint256",
							"name": "price",
							"type": "uint256"
						},
						{
							"internalType": "uint256",
							"name": "purchaseTokenId",
							"type": "uint256"
						}
					],
					"stateMutability": "view",
					"type": "function"
				},
				{
					"inputs": [],
					"name": "marketStatus",
					"outputs": [
						{
							"internalType": "bool",
							"name": "",
							"type": "bool"
						}
					],
					"stateMutability": "view",
					"type": "function"
				},
				{
					"inputs": [],
					"name": "mintsRemaining",
					"outputs": [
						{
							"internalType": "uint256",
							"name": "",
							"type": "uint256"
						}
					],
					"stateMutability": "view",
					"type": "function"
				},
				{
					"inputs": [],
					"name": "name",
					"outputs": [
						{
							"internalType": "string",
							"name": "_name",
							"type": "string"
						}
					],
					"stateMutability": "view",
					"type": "function"
				},
				{
					"inputs": [
						{
							"internalType": "uint256",
							"name": "",
							"type": "uint256"
						}
					],
					"name": "nftList",
					"outputs": [
						{
							"internalType": "uint256",
							"name": "",
							"type": "uint256"
						}
					],
					"stateMutability": "view",
					"type": "function"
				},
				{
					"inputs": [],
					"name": "owner",
					"outputs": [
						{
							"internalType": "address",
							"name": "",
							"type": "address"
						}
					],
					"stateMutability": "view",
					"type": "function"
				},
				{
					"inputs": [
						{
							"internalType": "uint256",
							"name": "_tokenId",
							"type": "uint256"
						}
					],
					"name": "ownerOf",
					"outputs": [
						{
							"internalType": "address",
							"name": "_owner",
							"type": "address"
						}
					],
					"stateMutability": "view",
					"type": "function"
				},
				{
					"inputs": [
						{
							"internalType": "uint256",
							"name": "numberOfNfts",
							"type": "uint256"
						}
					],
					"name": "publicMint",
					"outputs": [],
					"stateMutability": "payable",
					"type": "function"
				},
				{
					"inputs": [],
					"name": "publicSale",
					"outputs": [
						{
							"internalType": "bool",
							"name": "",
							"type": "bool"
						}
					],
					"stateMutability": "view",
					"type": "function"
				},
				{
					"inputs": [
						{
							"internalType": "uint256",
							"name": "",
							"type": "uint256"
						}
					],
					"name": "purchaseToken",
					"outputs": [
						{
							"internalType": "contract IERC20",
							"name": "",
							"type": "address"
						}
					],
					"stateMutability": "view",
					"type": "function"
				},
				{
					"inputs": [],
					"name": "remainderOfGold",
					"outputs": [
						{
							"internalType": "uint256",
							"name": "",
							"type": "uint256"
						}
					],
					"stateMutability": "view",
					"type": "function"
				},
				{
					"inputs": [],
					"name": "remainderOfPrimary",
					"outputs": [
						{
							"internalType": "uint256",
							"name": "",
							"type": "uint256"
						}
					],
					"stateMutability": "view",
					"type": "function"
				},
				{
					"inputs": [
						{
							"internalType": "uint256",
							"name": "_tokenId",
							"type": "uint256"
						}
					],
					"name": "removeListing",
					"outputs": [],
					"stateMutability": "nonpayable",
					"type": "function"
				},
				{
					"inputs": [],
					"name": "renounceOwnership",
					"outputs": [],
					"stateMutability": "nonpayable",
					"type": "function"
				},
				{
					"inputs": [
						{
							"internalType": "address",
							"name": "_from",
							"type": "address"
						},
						{
							"internalType": "address",
							"name": "_to",
							"type": "address"
						},
						{
							"internalType": "uint256",
							"name": "_tokenId",
							"type": "uint256"
						}
					],
					"name": "safeTransferFrom",
					"outputs": [],
					"stateMutability": "nonpayable",
					"type": "function"
				},
				{
					"inputs": [
						{
							"internalType": "address",
							"name": "_from",
							"type": "address"
						},
						{
							"internalType": "address",
							"name": "_to",
							"type": "address"
						},
						{
							"internalType": "uint256",
							"name": "_tokenId",
							"type": "uint256"
						},
						{
							"internalType": "bytes",
							"name": "_data",
							"type": "bytes"
						}
					],
					"name": "safeTransferFrom",
					"outputs": [],
					"stateMutability": "nonpayable",
					"type": "function"
				},
				{
					"inputs": [],
					"name": "saleStartTime",
					"outputs": [
						{
							"internalType": "uint256",
							"name": "",
							"type": "uint256"
						}
					],
					"stateMutability": "view",
					"type": "function"
				},
				{
					"inputs": [
						{
							"internalType": "address",
							"name": "_operator",
							"type": "address"
						},
						{
							"internalType": "bool",
							"name": "_approved",
							"type": "bool"
						}
					],
					"name": "setApprovalForAll",
					"outputs": [],
					"stateMutability": "nonpayable",
					"type": "function"
				},
				{
					"inputs": [
						{
							"internalType": "address",
							"name": "_dungeonContract",
							"type": "address"
						}
					],
					"name": "setDungeonContract",
					"outputs": [],
					"stateMutability": "nonpayable",
					"type": "function"
				},
				{
					"inputs": [
						{
							"internalType": "uint256",
							"name": "_newBaseFee",
							"type": "uint256"
						}
					],
					"name": "setFee",
					"outputs": [],
					"stateMutability": "nonpayable",
					"type": "function"
				},
				{
					"inputs": [
						{
							"internalType": "bool",
							"name": "_marketStatus",
							"type": "bool"
						}
					],
					"name": "setSale",
					"outputs": [],
					"stateMutability": "nonpayable",
					"type": "function"
				},
				{
					"inputs": [
						{
							"internalType": "string",
							"name": "newUri",
							"type": "string"
						}
					],
					"name": "setUri",
					"outputs": [],
					"stateMutability": "nonpayable",
					"type": "function"
				},
				{
					"inputs": [],
					"name": "startSale",
					"outputs": [],
					"stateMutability": "nonpayable",
					"type": "function"
				},
				{
					"inputs": [
						{
							"internalType": "bytes4",
							"name": "_interfaceID",
							"type": "bytes4"
						}
					],
					"name": "supportsInterface",
					"outputs": [
						{
							"internalType": "bool",
							"name": "",
							"type": "bool"
						}
					],
					"stateMutability": "view",
					"type": "function"
				},
				{
					"inputs": [],
					"name": "symbol",
					"outputs": [
						{
							"internalType": "string",
							"name": "_symbol",
							"type": "string"
						}
					],
					"stateMutability": "view",
					"type": "function"
				},
				{
					"inputs": [
						{
							"internalType": "uint256",
							"name": "index",
							"type": "uint256"
						}
					],
					"name": "tokenByIndex",
					"outputs": [
						{
							"internalType": "uint256",
							"name": "",
							"type": "uint256"
						}
					],
					"stateMutability": "pure",
					"type": "function"
				},
				{
					"inputs": [
						{
							"internalType": "address",
							"name": "_owner",
							"type": "address"
						},
						{
							"internalType": "uint256",
							"name": "_index",
							"type": "uint256"
						}
					],
					"name": "tokenOfOwnerByIndex",
					"outputs": [
						{
							"internalType": "uint256",
							"name": "",
							"type": "uint256"
						}
					],
					"stateMutability": "view",
					"type": "function"
				},
				{
					"inputs": [
						{
							"internalType": "uint256",
							"name": "_tokenId",
							"type": "uint256"
						}
					],
					"name": "tokenURI",
					"outputs": [
						{
							"internalType": "string",
							"name": "",
							"type": "string"
						}
					],
					"stateMutability": "view",
					"type": "function"
				},
				{
					"inputs": [],
					"name": "totalSupply",
					"outputs": [
						{
							"internalType": "uint256",
							"name": "",
							"type": "uint256"
						}
					],
					"stateMutability": "view",
					"type": "function"
				},
				{
					"inputs": [
						{
							"internalType": "address",
							"name": "_from",
							"type": "address"
						},
						{
							"internalType": "address",
							"name": "_to",
							"type": "address"
						},
						{
							"internalType": "uint256",
							"name": "_tokenId",
							"type": "uint256"
						}
					],
					"name": "transferFrom",
					"outputs": [],
					"stateMutability": "nonpayable",
					"type": "function"
				},
				{
					"inputs": [
						{
							"internalType": "address",
							"name": "newOwner",
							"type": "address"
						}
					],
					"name": "transferOwnership",
					"outputs": [],
					"stateMutability": "nonpayable",
					"type": "function"
				},
				{
					"inputs": [
						{
							"internalType": "address",
							"name": "_from",
							"type": "address"
						},
						{
							"internalType": "address",
							"name": "_to",
							"type": "address"
						},
						{
							"internalType": "uint256",
							"name": "_tokenId",
							"type": "uint256"
						}
					],
					"name": "transferToDungeon",
					"outputs": [],
					"stateMutability": "nonpayable",
					"type": "function"
				}
			],
			"devdoc": {
				"kind": "dev",
				"methods": {
					"owner()": {
						"details": "Returns the address of the current owner."
					},
					"renounceOwnership()": {
						"details": "Leaves the contract without owner. It will not be possible to call `onlyOwner` functions anymore. Can only be called by the current owner. NOTE: Renouncing ownership will leave the contract without an owner, thereby removing any functionality that is only available to the owner."
					},
					"transferOwnership(address)": {
						"details": "Transfers ownership of the contract to a new account (`newOwner`). Can only be called by the current owner."
					}
				},
				"version": 1
			},
			"evm": {
				"assembly": "    /* \"contracts/NFTMain.sol\":2818:2856  string internal nftName = \"PolyHeroes\" */\n  0xc0\n    /* \"contracts/NFTMain.sol\":2146:20010  contract NFTmain is Ownable, IERC721 {\r... */\n  0x40\n    /* \"contracts/NFTMain.sol\":2818:2856  string internal nftName = \"PolyHeroes\" */\n  mstore\n  0x0a\n    /* \"contracts/NFTMain.sol\":2146:20010  contract NFTmain is Ownable, IERC721 {\r... */\n  0x80\n    /* \"contracts/NFTMain.sol\":2818:2856  string internal nftName = \"PolyHeroes\" */\n  dup2\n  swap1\n  mstore\n  shl(0xb0, 0x506f6c794865726f6573)\n  0xa0\n  swap1\n  dup2\n  mstore\n  tag_1\n  swap2\n  0x07\n  swap2\n  swap1\n  tag_2\n  jump\t// in\ntag_1:\n  pop\n    /* \"contracts/NFTMain.sol\":2863:2903  string internal nftSymbol = \"PolyHeroes\" */\n  0x40\n  dup1\n  mload\n  dup1\n  dup3\n  add\n  swap1\n  swap2\n  mstore\n  0x0a\n  dup1\n  dup3\n  mstore\n  shl(0xb0, 0x506f6c794865726f6573)\n  0x20\n  swap1\n  swap3\n  add\n  swap2\n  dup3\n  mstore\n  tag_3\n  swap2\n  0x08\n  swap2\n  tag_2\n  jump\t// in\ntag_3:\n  pop\n    /* \"contracts/NFTMain.sol\":2940:2941  0 */\n  0x00\n    /* \"contracts/NFTMain.sol\":2914:2941  uint internal numTokens = 0 */\n  0x09\n  dup2\n  swap1\n  sstore\n    /* \"contracts/NFTMain.sol\":2948:2974  uint internal numSales = 0 */\n  0x0a\n  dup2\n  swap1\n  sstore\n    /* \"contracts/NFTMain.sol\":3015:3020  10000 */\n  0x2710\n    /* \"contracts/NFTMain.sol\":2981:3020  uint public  remainderOfPrimary = 10000 */\n  0x0b\n  dup2\n  swap1\n  sstore\n    /* \"contracts/NFTMain.sol\":3027:3063  uint public  remainderOfGold = 10000 */\n  0x0c\n  sstore\n    /* \"contracts/NFTMain.sol\":3193:3223  bool public publicSale = false */\n  0x0f\n  dup1\n  sload\n  not(shl(0xa0, 0xff))\n  swap1\n  dup2\n  and\n  swap1\n  swap2\n  sstore\n    /* \"contracts/NFTMain.sol\":3255:3265  0.02 ether */\n  0x470de4df820000\n    /* \"contracts/NFTMain.sol\":3230:3265  uint private mintPrice = 0.02 ether */\n  0x10\n  sstore\n    /* \"contracts/NFTMain.sol\":3301:3310  100 ether */\n  0x056bc75e2d63100000\n    /* \"contracts/NFTMain.sol\":3272:3310  uint private goldMintPrice = 100 ether */\n  0x11\n  sstore\n    /* \"contracts/NFTMain.sol\":3404:3427  uint internal nonce = 0 */\n  0x15\n  swap2\n  swap1\n  swap2\n  sstore\n    /* \"contracts/NFTMain.sol\":3477:3512  bool private reentrancyLock = false */\n  0x4e36\n  dup1\n  sload\n  not(0xff)\n  and\n  swap1\n  sstore\n    /* \"contracts/NFTMain.sol\":15793:15825  bool public marketStatus = false */\n  0x4e3a\n  dup1\n  sload\n  swap1\n  swap2\n  and\n  swap1\n  sstore\n    /* \"contracts/NFTMain.sol\":4383:4918  constructor(address payable _marketer, address payable _developer, address gold_, uint256 _fee, address _feeAddress) {\r... */\n  callvalue\n  dup1\n  iszero\n  tag_4\n  jumpi\n  0x00\n  dup1\n  revert\ntag_4:\n  pop\n  mload(0x40)\n  sub(codesize, bytecodeSize)\n  dup1\n  bytecodeSize\n  dup4\n  codecopy\n  dup2\n  add\n  0x40\n  dup2\n  swap1\n  mstore\n  tag_5\n  swap2\n  tag_6\n  jump\t// in\ntag_5:\n    /* \"@openzeppelin/contracts/access/Ownable.sol\":921:953  _transferOwnership(_msgSender()) */\n  tag_10\n    /* \"@openzeppelin/contracts/utils/Context.sol\":719:729  msg.sender */\n  caller\n    /* \"@openzeppelin/contracts/access/Ownable.sol\":921:939  _transferOwnership */\n  tag_13\n    /* \"@openzeppelin/contracts/access/Ownable.sol\":921:953  _transferOwnership(_msgSender()) */\n  jump\t// in\ntag_10:\n    /* \"contracts/NFTMain.sol\":4545:4549  true */\n  0x01\n    /* \"contracts/NFTMain.sol\":4511:4542  supportedInterfaces[0x01ffc9a7] */\n  0x20\n  dup2\n  swap1\n  mstore\n  0xb45820386466a8e01597d6e1efaf8f11ba4467972de5ca6c1f8aa3544ac2888e\n    /* \"contracts/NFTMain.sol\":4511:4549  supportedInterfaces[0x01ffc9a7] = true */\n  dup1\n  sload\n  not(0xff)\n  swap1\n  dup2\n  and\n  dup4\n  or\n  swap1\n  swap2\n  sstore\n    /* \"contracts/NFTMain.sol\":4570:4601  supportedInterfaces[0x80ac58cd] */\n  0xb8349d7b7b0b2b924bf96f90971cda8c7ac1ea4cde292a182bd2a203eef6c5d0\n    /* \"contracts/NFTMain.sol\":4570:4608  supportedInterfaces[0x80ac58cd] = true */\n  dup1\n  sload\n  dup3\n  and\n  dup4\n  or\n  swap1\n  sstore\n    /* \"contracts/NFTMain.sol\":4629:4660  supportedInterfaces[0x780e9d63] */\n  0x0e20bd7b4297895bdd985faac9360f413d46658b4c96e853899576249f1474ab\n    /* \"contracts/NFTMain.sol\":4629:4667  supportedInterfaces[0x780e9d63] = true */\n  dup1\n  sload\n  dup3\n  and\n  dup4\n  or\n  swap1\n  sstore\n  shl(0xe0, 0x5b5e139f)\n  0x00\n    /* \"contracts/NFTMain.sol\":4699:4730  supportedInterfaces[0x5b5e139f] */\n  mstore\n  0xce9309d5fe1c6050fdfde39d28ca0616e34393306d1cba1a247c40f9ef5c5d09\n    /* \"contracts/NFTMain.sol\":4699:4737  supportedInterfaces[0x5b5e139f] = true */\n  dup1\n  sload\n  swap1\n  swap2\n  and\n  swap1\n  swap2\n  or\n  swap1\n  sstore\n    /* \"contracts/NFTMain.sol\":4767:4774  baseFee */\n  0x4e39\n    /* \"contracts/NFTMain.sol\":4767:4781  baseFee = _fee */\n  swap2\n  swap1\n  swap2\n  sstore\n    /* \"contracts/NFTMain.sol\":4792:4801  feeWallet */\n  0x4e3a\n    /* \"contracts/NFTMain.sol\":4792:4815  feeWallet = _feeAddress */\n  dup1\n  sload\n  not(sub(shl(0xa0, 0x01), 0x01))\n  swap1\n  dup2\n  and\n  sub(shl(0xa0, 0x01), 0x01)\n  swap4\n  dup5\n  and\n  or\n  swap1\n  swap2\n  sstore\n    /* \"contracts/NFTMain.sol\":4826:4834  marketer */\n  0x0e\n    /* \"contracts/NFTMain.sol\":4826:4846  marketer = _marketer */\n  dup1\n  sload\n  dup3\n  and\n  swap6\n  dup4\n  and\n  swap6\n  swap1\n  swap6\n  or\n  swap1\n  swap5\n  sstore\n    /* \"contracts/NFTMain.sol\":4857:4866  developer */\n  0x0f\n    /* \"contracts/NFTMain.sol\":4857:4879  developer = _developer */\n  dup1\n  sload\n  dup6\n  and\n  swap4\n  dup3\n  and\n  swap4\n  swap1\n  swap4\n  or\n  swap1\n  swap3\n  sstore\n    /* \"contracts/NFTMain.sol\":4890:4894  gold */\n  0x13\n    /* \"contracts/NFTMain.sol\":4890:4910  gold = IERC20(gold_) */\n  dup1\n  sload\n  swap1\n  swap4\n  and\n  swap2\n  and\n  or\n  swap1\n  sstore\n    /* \"contracts/NFTMain.sol\":2146:20010  contract NFTmain is Ownable, IERC721 {\r... */\n  jump(tag_29)\n    /* \"@openzeppelin/contracts/access/Ownable.sol\":2270:2457  function _transferOwnership(address newOwner) internal virtual {... */\ntag_13:\n    /* \"@openzeppelin/contracts/access/Ownable.sol\":2343:2359  address oldOwner */\n  0x00\n    /* \"@openzeppelin/contracts/access/Ownable.sol\":2362:2368  _owner */\n  dup1\n  sload\n  sub(shl(0xa0, 0x01), 0x01)\n    /* \"@openzeppelin/contracts/access/Ownable.sol\":2378:2395  _owner = newOwner */\n  dup4\n  dup2\n  and\n  not(sub(shl(0xa0, 0x01), 0x01))\n  dup4\n  and\n  dup2\n  or\n  dup5\n  sstore\n    /* \"@openzeppelin/contracts/access/Ownable.sol\":2410:2450  OwnershipTransferred(oldOwner, newOwner) */\n  mload(0x40)\n    /* \"@openzeppelin/contracts/access/Ownable.sol\":2362:2368  _owner */\n  swap2\n  swap1\n  swap3\n  and\n  swap3\n  dup4\n  swap2\n    /* \"@openzeppelin/contracts/access/Ownable.sol\":2410:2450  OwnershipTransferred(oldOwner, newOwner) */\n  0x8be0079c531659141344cd1fd0a4f28419497f9722a3daafe3b4186f6b6457e0\n  swap2\n    /* \"@openzeppelin/contracts/access/Ownable.sol\":2343:2359  address oldOwner */\n  swap1\n    /* \"@openzeppelin/contracts/access/Ownable.sol\":2410:2450  OwnershipTransferred(oldOwner, newOwner) */\n  log3\n    /* \"@openzeppelin/contracts/access/Ownable.sol\":2333:2457  {... */\n  pop\n    /* \"@openzeppelin/contracts/access/Ownable.sol\":2270:2457  function _transferOwnership(address newOwner) internal virtual {... */\n  pop\n  jump\t// out\n    /* \"contracts/NFTMain.sol\":2146:20010  contract NFTmain is Ownable, IERC721 {\r... */\ntag_2:\n  dup3\n  dup1\n  sload\n  tag_18\n  swap1\n  tag_19\n  jump\t// in\ntag_18:\n  swap1\n  0x00\n  mstore\n  keccak256(0x00, 0x20)\n  swap1\n  0x1f\n  add\n  0x20\n  swap1\n  div\n  dup2\n  add\n  swap3\n  dup3\n  tag_21\n  jumpi\n  0x00\n  dup6\n  sstore\n  jump(tag_24)\ntag_21:\n  dup3\n  0x1f\n  lt\n  tag_22\n  jumpi\n  dup1\n  mload\n  not(0xff)\n  and\n  dup4\n  dup1\n  add\n  or\n  dup6\n  sstore\n  jump(tag_24)\ntag_22:\n  dup3\n  dup1\n  add\n  0x01\n  add\n  dup6\n  sstore\n  dup3\n  iszero\n  tag_24\n  jumpi\n  swap2\n  dup3\n  add\ntag_23:\n  dup3\n  dup2\n  gt\n  iszero\n  tag_24\n  jumpi\n  dup3\n  mload\n  dup3\n  sstore\n  swap2\n  0x20\n  add\n  swap2\n  swap1\n  0x01\n  add\n  swap1\n  jump(tag_23)\ntag_24:\n  pop\n  tag_25\n  swap3\n  swap2\n  pop\n  tag_26\n  jump\t// in\ntag_25:\n  pop\n  swap1\n  jump\t// out\ntag_26:\ntag_27:\n  dup1\n  dup3\n  gt\n  iszero\n  tag_25\n  jumpi\n  0x00\n  dup2\n  sstore\n  0x01\n  add\n  jump(tag_27)\n    /* \"#utility.yul\":14:746   */\ntag_6:\n    /* \"#utility.yul\":136:142   */\n  0x00\n    /* \"#utility.yul\":144:150   */\n  dup1\n    /* \"#utility.yul\":152:158   */\n  0x00\n    /* \"#utility.yul\":160:166   */\n  dup1\n    /* \"#utility.yul\":168:174   */\n  0x00\n    /* \"#utility.yul\":221:224   */\n  0xa0\n    /* \"#utility.yul\":209:218   */\n  dup7\n    /* \"#utility.yul\":200:207   */\n  dup9\n    /* \"#utility.yul\":196:219   */\n  sub\n    /* \"#utility.yul\":192:225   */\n  slt\n    /* \"#utility.yul\":189:242   */\n  iszero\n  tag_31\n  jumpi\n    /* \"#utility.yul\":238:239   */\n  0x00\n    /* \"#utility.yul\":235:236   */\n  dup1\n    /* \"#utility.yul\":228:240   */\n  revert\n    /* \"#utility.yul\":189:242   */\ntag_31:\n    /* \"#utility.yul\":270:279   */\n  dup6\n    /* \"#utility.yul\":264:280   */\n  mload\n    /* \"#utility.yul\":289:320   */\n  tag_32\n    /* \"#utility.yul\":314:319   */\n  dup2\n    /* \"#utility.yul\":289:320   */\n  tag_33\n  jump\t// in\ntag_32:\n    /* \"#utility.yul\":389:391   */\n  0x20\n    /* \"#utility.yul\":374:392   */\n  dup8\n  add\n    /* \"#utility.yul\":368:393   */\n  mload\n    /* \"#utility.yul\":339:344   */\n  swap1\n  swap6\n  pop\n    /* \"#utility.yul\":402:435   */\n  tag_34\n    /* \"#utility.yul\":368:393   */\n  dup2\n    /* \"#utility.yul\":402:435   */\n  tag_33\n  jump\t// in\ntag_34:\n    /* \"#utility.yul\":506:508   */\n  0x40\n    /* \"#utility.yul\":491:509   */\n  dup8\n  add\n    /* \"#utility.yul\":485:510   */\n  mload\n    /* \"#utility.yul\":454:461   */\n  swap1\n  swap5\n  pop\n    /* \"#utility.yul\":519:552   */\n  tag_35\n    /* \"#utility.yul\":485:510   */\n  dup2\n    /* \"#utility.yul\":519:552   */\n  tag_33\n  jump\t// in\ntag_35:\n    /* \"#utility.yul\":618:620   */\n  0x60\n    /* \"#utility.yul\":603:621   */\n  dup8\n  add\n    /* \"#utility.yul\":597:622   */\n  mload\n    /* \"#utility.yul\":667:670   */\n  0x80\n    /* \"#utility.yul\":652:671   */\n  dup9\n  add\n    /* \"#utility.yul\":646:672   */\n  mload\n    /* \"#utility.yul\":571:578   */\n  swap2\n  swap5\n  pop\n    /* \"#utility.yul\":597:622   */\n  swap3\n  pop\n    /* \"#utility.yul\":681:714   */\n  tag_36\n    /* \"#utility.yul\":646:672   */\n  dup2\n    /* \"#utility.yul\":681:714   */\n  tag_33\n  jump\t// in\ntag_36:\n    /* \"#utility.yul\":733:740   */\n  dup1\n    /* \"#utility.yul\":723:740   */\n  swap2\n  pop\n  pop\n    /* \"#utility.yul\":14:746   */\n  swap3\n  swap6\n  pop\n  swap3\n  swap6\n  swap1\n  swap4\n  pop\n  jump\t// out\n    /* \"#utility.yul\":751:1131   */\ntag_19:\n    /* \"#utility.yul\":830:831   */\n  0x01\n    /* \"#utility.yul\":826:838   */\n  dup2\n  dup2\n  shr\n  swap1\n    /* \"#utility.yul\":873:885   */\n  dup3\n  and\n  dup1\n    /* \"#utility.yul\":894:955   */\n  tag_38\n  jumpi\n    /* \"#utility.yul\":948:952   */\n  0x7f\n    /* \"#utility.yul\":940:946   */\n  dup3\n    /* \"#utility.yul\":936:953   */\n  and\n    /* \"#utility.yul\":926:953   */\n  swap2\n  pop\n    /* \"#utility.yul\":894:955   */\ntag_38:\n    /* \"#utility.yul\":1001:1003   */\n  0x20\n    /* \"#utility.yul\":993:999   */\n  dup3\n    /* \"#utility.yul\":990:1004   */\n  lt\n    /* \"#utility.yul\":970:988   */\n  dup2\n    /* \"#utility.yul\":967:1005   */\n  eq\n    /* \"#utility.yul\":964:1125   */\n  iszero\n  tag_39\n  jumpi\n    /* \"#utility.yul\":1047:1057   */\n  0x4e487b71\n    /* \"#utility.yul\":1042:1045   */\n  0xe0\n    /* \"#utility.yul\":1038:1058   */\n  shl\n    /* \"#utility.yul\":1035:1036   */\n  0x00\n    /* \"#utility.yul\":1028:1059   */\n  mstore\n    /* \"#utility.yul\":1082:1086   */\n  0x22\n    /* \"#utility.yul\":1079:1080   */\n  0x04\n    /* \"#utility.yul\":1072:1087   */\n  mstore\n    /* \"#utility.yul\":1110:1114   */\n  0x24\n    /* \"#utility.yul\":1107:1108   */\n  0x00\n    /* \"#utility.yul\":1100:1115   */\n  revert\n    /* \"#utility.yul\":964:1125   */\ntag_39:\n  pop\n    /* \"#utility.yul\":751:1131   */\n  swap2\n  swap1\n  pop\n  jump\t// out\n    /* \"#utility.yul\":1136:1267   */\ntag_33:\n  sub(shl(0xa0, 0x01), 0x01)\n    /* \"#utility.yul\":1211:1242   */\n  dup2\n  and\n    /* \"#utility.yul\":1201:1243   */\n  dup2\n  eq\n    /* \"#utility.yul\":1191:1261   */\n  tag_41\n  jumpi\n    /* \"#utility.yul\":1257:1258   */\n  0x00\n    /* \"#utility.yul\":1254:1255   */\n  dup1\n    /* \"#utility.yul\":1247:1259   */\n  revert\n    /* \"#utility.yul\":1191:1261   */\ntag_41:\n    /* \"#utility.yul\":1136:1267   */\n  pop\n  jump\t// out\ntag_29:\n    /* \"contracts/NFTMain.sol\":2146:20010  contract NFTmain is Ownable, IERC721 {\r... */\n  dataSize(sub_0)\n  dup1\n  dataOffset(sub_0)\n  0x00\n  codecopy\n  0x00\n  return\nstop\n\nsub_0: assembly {\n        /* \"contracts/NFTMain.sol\":2146:20010  contract NFTmain is Ownable, IERC721 {\r... */\n      mstore(0x40, 0x80)\n      jumpi(tag_1, lt(calldatasize, 0x04))\n      shr(0xe0, calldataload(0x00))\n      dup1\n      0x6ef25c3a\n      gt\n      tag_51\n      jumpi\n      dup1\n      0xb88d4fde\n      gt\n      tag_52\n      jumpi\n      dup1\n      0xe985e9c5\n      gt\n      tag_53\n      jumpi\n      dup1\n      0xf2fde38b\n      gt\n      tag_54\n      jumpi\n      dup1\n      0xf2fde38b\n      eq\n      tag_47\n      jumpi\n      dup1\n      0xf79e4164\n      eq\n      tag_48\n      jumpi\n      dup1\n      0xf9ae7aaf\n      eq\n      tag_49\n      jumpi\n      dup1\n      0xfbec6f21\n      eq\n      tag_50\n      jumpi\n      0x00\n      dup1\n      revert\n    tag_54:\n      dup1\n      0xe985e9c5\n      eq\n      tag_44\n      jumpi\n      dup1\n      0xed38b79c\n      eq\n      tag_45\n      jumpi\n      dup1\n      0xf25f4b56\n      eq\n      tag_46\n      jumpi\n      0x00\n      dup1\n      revert\n    tag_53:\n      dup1\n      0xb88d4fde\n      eq\n      tag_38\n      jumpi\n      dup1\n      0xbe9a71bd\n      eq\n      tag_39\n      jumpi\n      dup1\n      0xc2db2c42\n      eq\n      tag_40\n      jumpi\n      dup1\n      0xc87b56dd\n      eq\n      tag_41\n      jumpi\n      dup1\n      0xd4c66861\n      eq\n      tag_42\n      jumpi\n      dup1\n      0xe0e081d7\n      eq\n      tag_43\n      jumpi\n      0x00\n      dup1\n      revert\n    tag_52:\n      dup1\n      0x95d89b41\n      gt\n      tag_55\n      jumpi\n      dup1\n      0x95d89b41\n      eq\n      tag_32\n      jumpi\n      dup1\n      0x9abc8320\n      eq\n      tag_33\n      jumpi\n      dup1\n      0x9b642de1\n      eq\n      tag_34\n      jumpi\n      dup1\n      0xa22cb465\n      eq\n      tag_35\n      jumpi\n      dup1\n      0xb03053b6\n      eq\n      tag_36\n      jumpi\n      dup1\n      0xb66a0e5d\n      eq\n      tag_37\n      jumpi\n      0x00\n      dup1\n      revert\n    tag_55:\n      dup1\n      0x6ef25c3a\n      eq\n      tag_26\n      jumpi\n      dup1\n      0x70a08231\n      eq\n      tag_27\n      jumpi\n      dup1\n      0x715018a6\n      eq\n      tag_28\n      jumpi\n      dup1\n      0x75bea166\n      eq\n      tag_29\n      jumpi\n      dup1\n      0x80c9419e\n      eq\n      tag_30\n      jumpi\n      dup1\n      0x8da5cb5b\n      eq\n      tag_31\n      jumpi\n      0x00\n      dup1\n      revert\n    tag_51:\n      dup1\n      0x20d1fc62\n      gt\n      tag_56\n      jumpi\n      dup1\n      0x44c66be7\n      gt\n      tag_57\n      jumpi\n      dup1\n      0x44c66be7\n      eq\n      tag_20\n      jumpi\n      dup1\n      0x479ad4c3\n      eq\n      tag_21\n      jumpi\n      dup1\n      0x4c211c28\n      eq\n      tag_22\n      jumpi\n      dup1\n      0x4f6ccce7\n      eq\n      tag_23\n      jumpi\n      dup1\n      0x6352211e\n      eq\n      tag_24\n      jumpi\n      dup1\n      0x69fe0e2d\n      eq\n      tag_25\n      jumpi\n      0x00\n      dup1\n      revert\n    tag_57:\n      dup1\n      0x20d1fc62\n      eq\n      tag_14\n      jumpi\n      dup1\n      0x23b872dd\n      eq\n      tag_15\n      jumpi\n      dup1\n      0x2db11544\n      eq\n      tag_16\n      jumpi\n      dup1\n      0x2f745c59\n      eq\n      tag_17\n      jumpi\n      dup1\n      0x33bc1c5c\n      eq\n      tag_18\n      jumpi\n      dup1\n      0x42842e0e\n      eq\n      tag_19\n      jumpi\n      0x00\n      dup1\n      revert\n    tag_56:\n      dup1\n      0x0cef3df1\n      gt\n      tag_58\n      jumpi\n      dup1\n      0x0cef3df1\n      eq\n      tag_8\n      jumpi\n      dup1\n      0x10a15cc8\n      eq\n      tag_9\n      jumpi\n      dup1\n      0x18160ddd\n      eq\n      tag_10\n      jumpi\n      dup1\n      0x1bcd39aa\n      eq\n      tag_11\n      jumpi\n      dup1\n      0x1cbaee2d\n      eq\n      tag_12\n      jumpi\n      dup1\n      0x1d2e5a3a\n      eq\n      tag_13\n      jumpi\n      0x00\n      dup1\n      revert\n    tag_58:\n      dup1\n      0x01ffc9a7\n      eq\n      tag_2\n      jumpi\n      dup1\n      0x031bd4c4\n      eq\n      tag_3\n      jumpi\n      dup1\n      0x0612c478\n      eq\n      tag_4\n      jumpi\n      dup1\n      0x06fdde03\n      eq\n      tag_5\n      jumpi\n      dup1\n      0x081812fc\n      eq\n      tag_6\n      jumpi\n      dup1\n      0x095ea7b3\n      eq\n      tag_7\n      jumpi\n    tag_1:\n      0x00\n      dup1\n      revert\n        /* \"contracts/NFTMain.sol\":5306:5451  function supportsInterface(bytes4 _interfaceID) external view override returns (bool) {\r... */\n    tag_2:\n      callvalue\n      dup1\n      iszero\n      tag_59\n      jumpi\n      0x00\n      dup1\n      revert\n    tag_59:\n      pop\n      tag_60\n      tag_61\n      calldatasize\n      0x04\n      tag_62\n      jump\t// in\n    tag_61:\n      not(sub(shl(0xe0, 0x01), 0x01))\n        /* \"contracts/NFTMain.sol\":5410:5443  supportedInterfaces[_interfaceID] */\n      and\n        /* \"contracts/NFTMain.sol\":5386:5390  bool */\n      0x00\n        /* \"contracts/NFTMain.sol\":5410:5443  supportedInterfaces[_interfaceID] */\n      swap1\n      dup2\n      mstore\n        /* \"contracts/NFTMain.sol\":5410:5429  supportedInterfaces */\n      0x01\n        /* \"contracts/NFTMain.sol\":5410:5443  supportedInterfaces[_interfaceID] */\n      0x20\n      mstore\n      0x40\n      swap1\n      keccak256\n      sload\n      0xff\n      and\n      swap1\n        /* \"contracts/NFTMain.sol\":5306:5451  function supportsInterface(bytes4 _interfaceID) external view override returns (bool) {\r... */\n      jump\n    tag_60:\n      mload(0x40)\n        /* \"#utility.yul\":9806:9820   */\n      swap1\n      iszero\n        /* \"#utility.yul\":9799:9821   */\n      iszero\n        /* \"#utility.yul\":9781:9822   */\n      dup2\n      mstore\n        /* \"#utility.yul\":9769:9771   */\n      0x20\n        /* \"#utility.yul\":9754:9772   */\n      add\n        /* \"contracts/NFTMain.sol\":5306:5451  function supportsInterface(bytes4 _interfaceID) external view override returns (bool) {\r... */\n    tag_64:\n      mload(0x40)\n      dup1\n      swap2\n      sub\n      swap1\n      return\n        /* \"contracts/NFTMain.sol\":2394:2434  uint public constant TOKEN_LIMIT = 20000 */\n    tag_3:\n      callvalue\n      dup1\n      iszero\n      tag_66\n      jumpi\n      0x00\n      dup1\n      revert\n    tag_66:\n      pop\n      tag_67\n        /* \"contracts/NFTMain.sol\":2429:2434  20000 */\n      0x4e20\n        /* \"contracts/NFTMain.sol\":2394:2434  uint public constant TOKEN_LIMIT = 20000 */\n      dup2\n      jump\n    tag_67:\n      mload(0x40)\n        /* \"#utility.yul\":20684:20709   */\n      swap1\n      dup2\n      mstore\n        /* \"#utility.yul\":20672:20674   */\n      0x20\n        /* \"#utility.yul\":20657:20675   */\n      add\n        /* \"contracts/NFTMain.sol\":2394:2434  uint public constant TOKEN_LIMIT = 20000 */\n      tag_64\n        /* \"#utility.yul\":20538:20715   */\n      jump\n        /* \"contracts/NFTMain.sol\":19841:20005  function addPaymentToken (uint256 _paymentTokenId, address _tokenAddress) public onlyOwner {\r... */\n    tag_4:\n      callvalue\n      dup1\n      iszero\n      tag_71\n      jumpi\n      0x00\n      dup1\n      revert\n    tag_71:\n      pop\n      tag_72\n      tag_73\n      calldatasize\n      0x04\n      tag_74\n      jump\t// in\n    tag_73:\n      tag_75\n      jump\t// in\n    tag_72:\n      stop\n        /* \"contracts/NFTMain.sol\":14880:14974  function name() external view returns (string memory _name) {\r... */\n    tag_5:\n      callvalue\n      dup1\n      iszero\n      tag_76\n      jumpi\n      0x00\n      dup1\n      revert\n    tag_76:\n      pop\n      tag_77\n      tag_78\n      jump\t// in\n    tag_77:\n      mload(0x40)\n      tag_64\n      swap2\n      swap1\n      tag_80\n      jump\t// in\n        /* \"contracts/NFTMain.sol\":7644:7795  function getApproved(uint256 _tokenId) external view override validNFToken(_tokenId) returns (address) {\r... */\n    tag_6:\n      callvalue\n      dup1\n      iszero\n      tag_81\n      jumpi\n      0x00\n      dup1\n      revert\n    tag_81:\n      pop\n      tag_82\n      tag_83\n      calldatasize\n      0x04\n      tag_84\n      jump\t// in\n    tag_83:\n      tag_85\n      jump\t// in\n    tag_82:\n      mload(0x40)\n      sub(shl(0xa0, 0x01), 0x01)\n        /* \"#utility.yul\":7767:7799   */\n      swap1\n      swap2\n      and\n        /* \"#utility.yul\":7749:7800   */\n      dup2\n      mstore\n        /* \"#utility.yul\":7737:7739   */\n      0x20\n        /* \"#utility.yul\":7722:7740   */\n      add\n        /* \"contracts/NFTMain.sol\":7644:7795  function getApproved(uint256 _tokenId) external view override validNFToken(_tokenId) returns (address) {\r... */\n      tag_64\n        /* \"#utility.yul\":7603:7806   */\n      jump\n        /* \"contracts/NFTMain.sol\":6730:7050  function approve(address _approved, uint256 _tokenId) external override canOperate(_tokenId) validNFToken(_tokenId) {\r... */\n    tag_7:\n      callvalue\n      dup1\n      iszero\n      tag_88\n      jumpi\n      0x00\n      dup1\n      revert\n    tag_88:\n      pop\n      tag_72\n      tag_90\n      calldatasize\n      0x04\n      tag_91\n      jump\t// in\n    tag_90:\n      tag_92\n      jump\t// in\n        /* \"contracts/NFTMain.sol\":7971:8307  function canUse (uint256 _tokenId, address _check) public view returns (bool)  {\r... */\n    tag_8:\n      callvalue\n      dup1\n      iszero\n      tag_93\n      jumpi\n      0x00\n      dup1\n      revert\n    tag_93:\n      pop\n      tag_60\n      tag_95\n      calldatasize\n      0x04\n      tag_74\n      jump\t// in\n    tag_95:\n      tag_96\n      jump\t// in\n        /* \"contracts/NFTMain.sol\":10419:11122  function Goldmint(uint256 numberOfNfts) external payable reentrancyGuard {\r... */\n    tag_9:\n      tag_72\n      tag_99\n      calldatasize\n      0x04\n      tag_84\n      jump\t// in\n    tag_99:\n      tag_100\n      jump\t// in\n        /* \"contracts/NFTMain.sol\":13851:13939  function totalSupply() public view returns (uint256) {\r... */\n    tag_10:\n      callvalue\n      dup1\n      iszero\n      tag_101\n      jumpi\n      0x00\n      dup1\n      revert\n    tag_101:\n      pop\n        /* \"contracts/NFTMain.sol\":13922:13931  numTokens */\n      sload(0x09)\n        /* \"contracts/NFTMain.sol\":13851:13939  function totalSupply() public view returns (uint256) {\r... */\n      jump(tag_67)\n        /* \"contracts/NFTMain.sol\":6198:6323  function setDungeonContract (address _dungeonContract) public onlyOwner {\r... */\n    tag_11:\n      callvalue\n      dup1\n      iszero\n      tag_105\n      jumpi\n      0x00\n      dup1\n      revert\n    tag_105:\n      pop\n      tag_72\n      tag_107\n      calldatasize\n      0x04\n      tag_108\n      jump\t// in\n    tag_107:\n      tag_109\n      jump\t// in\n        /* \"contracts/NFTMain.sol\":3370:3395  uint public saleStartTime */\n    tag_12:\n      callvalue\n      dup1\n      iszero\n      tag_110\n      jumpi\n      0x00\n      dup1\n      revert\n    tag_110:\n      pop\n      tag_67\n      sload(0x14)\n      dup2\n      jump\n        /* \"contracts/NFTMain.sol\":19628:19730  function setSale (bool _marketStatus) public onlyOwner {\r... */\n    tag_13:\n      callvalue\n      dup1\n      iszero\n      tag_114\n      jumpi\n      0x00\n      dup1\n      revert\n    tag_114:\n      pop\n      tag_72\n      tag_116\n      calldatasize\n      0x04\n      tag_117\n      jump\t// in\n    tag_116:\n      tag_118\n      jump\t// in\n        /* \"contracts/NFTMain.sol\":6335:6722  function transferToDungeon(address _from, address _to, uint256 _tokenId) external validNFToken(_tokenId) {\r... */\n    tag_14:\n      callvalue\n      dup1\n      iszero\n      tag_119\n      jumpi\n      0x00\n      dup1\n      revert\n    tag_119:\n      pop\n      tag_72\n      tag_121\n      calldatasize\n      0x04\n      tag_122\n      jump\t// in\n    tag_121:\n      tag_123\n      jump\t// in\n        /* \"contracts/NFTMain.sol\":5804:6151  function transferFrom(address _from, address _to, uint256 _tokenId) external override canTransfer(_tokenId) validNFToken(_tokenId) {\r... */\n    tag_15:\n      callvalue\n      dup1\n      iszero\n      tag_124\n      jumpi\n      0x00\n      dup1\n      revert\n    tag_124:\n      pop\n      tag_72\n      tag_126\n      calldatasize\n      0x04\n      tag_122\n      jump\t// in\n    tag_126:\n      tag_127\n      jump\t// in\n        /* \"contracts/NFTMain.sol\":9592:10405  function publicMint (uint256 numberOfNfts) external payable reentrancyGuard {\r... */\n    tag_16:\n      tag_72\n      tag_129\n      calldatasize\n      0x04\n      tag_84\n      jump\t// in\n    tag_129:\n      tag_130\n      jump\t// in\n        /* \"contracts/NFTMain.sol\":14110:14309  function tokenOfOwnerByIndex(address _owner, uint256 _index) external view returns (uint256) {\r... */\n    tag_17:\n      callvalue\n      dup1\n      iszero\n      tag_131\n      jumpi\n      0x00\n      dup1\n      revert\n    tag_131:\n      pop\n      tag_67\n      tag_133\n      calldatasize\n      0x04\n      tag_91\n      jump\t// in\n    tag_133:\n      tag_134\n      jump\t// in\n        /* \"contracts/NFTMain.sol\":3193:3223  bool public publicSale = false */\n    tag_18:\n      callvalue\n      dup1\n      iszero\n      tag_136\n      jumpi\n      0x00\n      dup1\n      revert\n    tag_136:\n      pop\n      sload(0x0f)\n      tag_60\n      swap1\n      shl(0xa0, 0x01)\n      swap1\n      div\n      0xff\n      and\n      dup2\n      jump\n        /* \"contracts/NFTMain.sol\":5644:5796  function safeTransferFrom(address _from, address _to, uint256 _tokenId) external override {\r... */\n    tag_19:\n      callvalue\n      dup1\n      iszero\n      tag_140\n      jumpi\n      0x00\n      dup1\n      revert\n    tag_140:\n      pop\n      tag_72\n      tag_142\n      calldatasize\n      0x04\n      tag_122\n      jump\t// in\n    tag_142:\n      tag_143\n      jump\t// in\n        /* \"contracts/NFTMain.sol\":9472:9578  function mintsRemaining() external view returns (uint) {\r... */\n    tag_20:\n      callvalue\n      dup1\n      iszero\n      tag_144\n      jumpi\n      0x00\n      dup1\n      revert\n    tag_144:\n      pop\n      tag_67\n      tag_146\n      jump\t// in\n        /* \"contracts/NFTMain.sol\":16653:17131  function removeListing (uint256 _tokenId) public {\r... */\n    tag_21:\n      callvalue\n      dup1\n      iszero\n      tag_148\n      jumpi\n      0x00\n      dup1\n      revert\n    tag_148:\n      pop\n      tag_72\n      tag_150\n      calldatasize\n      0x04\n      tag_84\n      jump\t// in\n    tag_150:\n      tag_151\n      jump\t// in\n        /* \"contracts/NFTMain.sol\":2981:3020  uint public  remainderOfPrimary = 10000 */\n    tag_22:\n      callvalue\n      dup1\n      iszero\n      tag_152\n      jumpi\n      0x00\n      dup1\n      revert\n    tag_152:\n      pop\n      tag_67\n      sload(0x0b)\n      dup2\n      jump\n        /* \"contracts/NFTMain.sol\":13947:14102  function tokenByIndex(uint256 index) public pure returns (uint256) {\r... */\n    tag_23:\n      callvalue\n      dup1\n      iszero\n      tag_156\n      jumpi\n      0x00\n      dup1\n      revert\n    tag_156:\n      pop\n      tag_67\n      tag_158\n      calldatasize\n      0x04\n      tag_84\n      jump\t// in\n    tag_158:\n      tag_159\n      jump\t// in\n        /* \"contracts/NFTMain.sol\":7455:7636  function ownerOf(uint256 _tokenId) public view override returns (address _owner) {\r... */\n    tag_24:\n      callvalue\n      dup1\n      iszero\n      tag_161\n      jumpi\n      0x00\n      dup1\n      revert\n    tag_161:\n      pop\n      tag_82\n      tag_163\n      calldatasize\n      0x04\n      tag_84\n      jump\t// in\n    tag_163:\n      tag_164\n      jump\t// in\n        /* \"contracts/NFTMain.sol\":19738:19833  function setFee (uint256 _newBaseFee) public onlyOwner {\r... */\n    tag_25:\n      callvalue\n      dup1\n      iszero\n      tag_166\n      jumpi\n      0x00\n      dup1\n      revert\n    tag_166:\n      pop\n      tag_72\n      tag_168\n      calldatasize\n      0x04\n      tag_84\n      jump\t// in\n    tag_168:\n      tag_169\n      jump\t// in\n        /* \"contracts/NFTMain.sol\":15733:15755  uint256 public baseFee */\n    tag_26:\n      callvalue\n      dup1\n      iszero\n      tag_170\n      jumpi\n      0x00\n      dup1\n      revert\n    tag_170:\n      pop\n      tag_67\n      sload(0x4e39)\n      dup2\n      jump\n        /* \"contracts/NFTMain.sol\":7280:7447  function balanceOf(address _owner) external view override returns (uint256) {\r... */\n    tag_27:\n      callvalue\n      dup1\n      iszero\n      tag_174\n      jumpi\n      0x00\n      dup1\n      revert\n    tag_174:\n      pop\n      tag_67\n      tag_176\n      calldatasize\n      0x04\n      tag_108\n      jump\t// in\n    tag_176:\n      tag_177\n      jump\t// in\n        /* \"@openzeppelin/contracts/access/Ownable.sol\":1668:1769  function renounceOwnership() public virtual onlyOwner {... */\n    tag_28:\n      callvalue\n      dup1\n      iszero\n      tag_179\n      jumpi\n      0x00\n      dup1\n      revert\n    tag_179:\n      pop\n      tag_72\n      tag_181\n      jump\t// in\n        /* \"contracts/NFTMain.sol\":16092:16117  uint256 [] public nftList */\n    tag_29:\n      callvalue\n      dup1\n      iszero\n      tag_182\n      jumpi\n      0x00\n      dup1\n      revert\n    tag_182:\n      pop\n      tag_67\n      tag_184\n      calldatasize\n      0x04\n      tag_84\n      jump\t// in\n    tag_184:\n      tag_185\n      jump\t// in\n        /* \"contracts/NFTMain.sol\":15609:15649  mapping (uint256 => listing) public list */\n    tag_30:\n      callvalue\n      dup1\n      iszero\n      tag_187\n      jumpi\n      0x00\n      dup1\n      revert\n    tag_187:\n      pop\n      tag_188\n      tag_189\n      calldatasize\n      0x04\n      tag_84\n      jump\t// in\n    tag_189:\n      mstore(0x20, 0x4e37)\n      0x00\n      swap1\n      dup2\n      mstore\n      0x40\n      swap1\n      keccak256\n      dup1\n      sload\n      0x01\n      dup3\n      add\n      sload\n      0x02\n      swap1\n      swap3\n      add\n      sload\n      0xff\n      dup3\n      and\n      swap3\n      0x0100\n      swap1\n      swap3\n      div\n      sub(shl(0xa0, 0x01), 0x01)\n      and\n      swap2\n      swap1\n      dup5\n      jump\n    tag_188:\n      0x40\n      dup1\n      mload\n        /* \"#utility.yul\":10083:10097   */\n      swap5\n      iszero\n        /* \"#utility.yul\":10076:10098   */\n      iszero\n        /* \"#utility.yul\":10058:10099   */\n      dup6\n      mstore\n      sub(shl(0xa0, 0x01), 0x01)\n        /* \"#utility.yul\":10135:10167   */\n      swap1\n      swap4\n      and\n        /* \"#utility.yul\":10130:10132   */\n      0x20\n        /* \"#utility.yul\":10115:10133   */\n      dup6\n      add\n        /* \"#utility.yul\":10108:10168   */\n      mstore\n        /* \"#utility.yul\":10184:10202   */\n      swap2\n      dup4\n      add\n        /* \"#utility.yul\":10177:10211   */\n      mstore\n        /* \"#utility.yul\":10242:10244   */\n      0x60\n        /* \"#utility.yul\":10227:10245   */\n      dup3\n      add\n        /* \"#utility.yul\":10220:10254   */\n      mstore\n        /* \"#utility.yul\":10045:10048   */\n      0x80\n        /* \"#utility.yul\":10030:10049   */\n      add\n        /* \"contracts/NFTMain.sol\":15609:15649  mapping (uint256 => listing) public list */\n      tag_64\n        /* \"#utility.yul\":9833:10260   */\n      jump\n        /* \"@openzeppelin/contracts/access/Ownable.sol\":1036:1121  function owner() public view virtual returns (address) {... */\n    tag_31:\n      callvalue\n      dup1\n      iszero\n      tag_193\n      jumpi\n      0x00\n      dup1\n      revert\n    tag_193:\n      pop\n        /* \"@openzeppelin/contracts/access/Ownable.sol\":1082:1089  address */\n      0x00\n        /* \"@openzeppelin/contracts/access/Ownable.sol\":1108:1114  _owner */\n      sload\n      sub(shl(0xa0, 0x01), 0x01)\n      and\n        /* \"@openzeppelin/contracts/access/Ownable.sol\":1036:1121  function owner() public view virtual returns (address) {... */\n      jump(tag_82)\n        /* \"contracts/NFTMain.sol\":14982:15084  function symbol() external view returns (string memory _symbol) {\r... */\n    tag_32:\n      callvalue\n      dup1\n      iszero\n      tag_197\n      jumpi\n      0x00\n      dup1\n      revert\n    tag_197:\n      pop\n      tag_77\n      tag_199\n      jump\t// in\n        /* \"contracts/NFTMain.sol\":3317:3338  string public baseUri */\n    tag_33:\n      callvalue\n      dup1\n      iszero\n      tag_201\n      jumpi\n      0x00\n      dup1\n      revert\n    tag_201:\n      pop\n      tag_77\n      tag_203\n      jump\t// in\n        /* \"contracts/NFTMain.sol\":15278:15369  function setUri (string memory newUri) public onlyOwner {\r... */\n    tag_34:\n      callvalue\n      dup1\n      iszero\n      tag_205\n      jumpi\n      0x00\n      dup1\n      revert\n    tag_205:\n      pop\n      tag_72\n      tag_207\n      calldatasize\n      0x04\n      tag_208\n      jump\t// in\n    tag_207:\n      tag_209\n      jump\t// in\n        /* \"contracts/NFTMain.sol\":7058:7272  function setApprovalForAll(address _operator, bool _approved) external override {\r... */\n    tag_35:\n      callvalue\n      dup1\n      iszero\n      tag_210\n      jumpi\n      0x00\n      dup1\n      revert\n    tag_210:\n      pop\n      tag_72\n      tag_212\n      calldatasize\n      0x04\n      tag_213\n      jump\t// in\n    tag_212:\n      tag_214\n      jump\t// in\n        /* \"contracts/NFTMain.sol\":16223:16645  function createListing (uint256 _price, uint256 _tokenId, uint256 _purchaseTokenId) public {\r... */\n    tag_36:\n      callvalue\n      dup1\n      iszero\n      tag_215\n      jumpi\n      0x00\n      dup1\n      revert\n    tag_215:\n      pop\n      tag_72\n      tag_217\n      calldatasize\n      0x04\n      tag_218\n      jump\t// in\n    tag_217:\n      tag_219\n      jump\t// in\n        /* \"contracts/NFTMain.sol\":4926:5075  function startSale() external onlyOwner {\r... */\n    tag_37:\n      callvalue\n      dup1\n      iszero\n      tag_220\n      jumpi\n      0x00\n      dup1\n      revert\n    tag_220:\n      pop\n      tag_72\n      tag_222\n      jump\t// in\n        /* \"contracts/NFTMain.sol\":5459:5636  function safeTransferFrom(address _from, address _to, uint256 _tokenId, bytes calldata _data) external override {\r... */\n    tag_38:\n      callvalue\n      dup1\n      iszero\n      tag_223\n      jumpi\n      0x00\n      dup1\n      revert\n    tag_223:\n      pop\n      tag_72\n      tag_225\n      calldatasize\n      0x04\n      tag_226\n      jump\t// in\n    tag_225:\n      tag_227\n      jump\t// in\n        /* \"contracts/NFTMain.sol\":16126:16215  function getNftAddress()public view returns( uint256  [] memory){\r... */\n    tag_39:\n      callvalue\n      dup1\n      iszero\n      tag_228\n      jumpi\n      0x00\n      dup1\n      revert\n    tag_228:\n      pop\n      tag_229\n      tag_230\n      jump\t// in\n    tag_229:\n      mload(0x40)\n      tag_64\n      swap2\n      swap1\n      tag_232\n      jump\t// in\n        /* \"contracts/NFTMain.sol\":15658:15706  mapping (uint256 => IERC20) public purchaseToken */\n    tag_40:\n      callvalue\n      dup1\n      iszero\n      tag_233\n      jumpi\n      0x00\n      dup1\n      revert\n    tag_233:\n      pop\n      tag_82\n      tag_235\n      calldatasize\n      0x04\n      tag_84\n      jump\t// in\n    tag_235:\n      mstore(0x20, 0x4e38)\n      0x00\n      swap1\n      dup2\n      mstore\n      0x40\n      swap1\n      keccak256\n      sload\n      sub(shl(0xa0, 0x01), 0x01)\n      and\n      dup2\n      jump\n        /* \"contracts/NFTMain.sol\":15094:15270  function tokenURI(uint256 _tokenId) external view validNFToken(_tokenId) returns (string memory) {\r... */\n    tag_41:\n      callvalue\n      dup1\n      iszero\n      tag_239\n      jumpi\n      0x00\n      dup1\n      revert\n    tag_239:\n      pop\n      tag_77\n      tag_241\n      calldatasize\n      0x04\n      tag_84\n      jump\t// in\n    tag_241:\n      tag_242\n      jump\t// in\n        /* \"contracts/NFTMain.sol\":17139:18455  function buyNFTWithToken (uint256 _tokenId) public {\r... */\n    tag_42:\n      callvalue\n      dup1\n      iszero\n      tag_244\n      jumpi\n      0x00\n      dup1\n      revert\n    tag_244:\n      pop\n      tag_72\n      tag_246\n      calldatasize\n      0x04\n      tag_84\n      jump\t// in\n    tag_246:\n      tag_247\n      jump\t// in\n        /* \"contracts/NFTMain.sol\":15793:15825  bool public marketStatus = false */\n    tag_43:\n      callvalue\n      dup1\n      iszero\n      tag_248\n      jumpi\n      0x00\n      dup1\n      revert\n    tag_248:\n      pop\n      sload(0x4e3a)\n      tag_60\n      swap1\n      shl(0xa0, 0x01)\n      swap1\n      div\n      0xff\n      and\n      dup2\n      jump\n        /* \"contracts/NFTMain.sol\":7803:7963  function isApprovedForAll(address _owner, address _operator) external override view returns (bool) {\r... */\n    tag_44:\n      callvalue\n      dup1\n      iszero\n      tag_252\n      jumpi\n      0x00\n      dup1\n      revert\n    tag_252:\n      pop\n      tag_60\n      tag_254\n      calldatasize\n      0x04\n      tag_255\n      jump\t// in\n    tag_254:\n      sub(shl(0xa0, 0x01), 0x01)\n        /* \"contracts/NFTMain.sol\":7920:7944  ownerToOperators[_owner] */\n      swap2\n      dup3\n      and\n        /* \"contracts/NFTMain.sol\":7896:7900  bool */\n      0x00\n        /* \"contracts/NFTMain.sol\":7920:7944  ownerToOperators[_owner] */\n      swap1\n      dup2\n      mstore\n        /* \"contracts/NFTMain.sol\":7920:7936  ownerToOperators */\n      0x04\n        /* \"contracts/NFTMain.sol\":7920:7944  ownerToOperators[_owner] */\n      0x20\n      swap1\n      dup2\n      mstore\n      0x40\n      dup1\n      dup4\n      keccak256\n        /* \"contracts/NFTMain.sol\":7920:7955  ownerToOperators[_owner][_operator] */\n      swap4\n      swap1\n      swap5\n      and\n      dup3\n      mstore\n      swap2\n      swap1\n      swap2\n      mstore\n      keccak256\n      sload\n      0xff\n      and\n      swap1\n        /* \"contracts/NFTMain.sol\":7803:7963  function isApprovedForAll(address _owner, address _operator) external override view returns (bool) {\r... */\n      jump\n        /* \"contracts/NFTMain.sol\":3027:3063  uint public  remainderOfGold = 10000 */\n    tag_45:\n      callvalue\n      dup1\n      iszero\n      tag_258\n      jumpi\n      0x00\n      dup1\n      revert\n    tag_258:\n      pop\n      tag_67\n      sload(0x0c)\n      dup2\n      jump\n        /* \"contracts/NFTMain.sol\":15762:15786  address public feeWallet */\n    tag_46:\n      callvalue\n      dup1\n      iszero\n      tag_262\n      jumpi\n      0x00\n      dup1\n      revert\n    tag_262:\n      pop\n      sload(0x4e3a)\n      tag_82\n      swap1\n      sub(shl(0xa0, 0x01), 0x01)\n      and\n      dup2\n      jump\n        /* \"@openzeppelin/contracts/access/Ownable.sol\":1918:2116  function transferOwnership(address newOwner) public virtual onlyOwner {... */\n    tag_47:\n      callvalue\n      dup1\n      iszero\n      tag_266\n      jumpi\n      0x00\n      dup1\n      revert\n    tag_266:\n      pop\n      tag_72\n      tag_268\n      calldatasize\n      0x04\n      tag_108\n      jump\t// in\n    tag_268:\n      tag_269\n      jump\t// in\n        /* \"contracts/NFTMain.sol\":6159:6189  address public dungeonContract */\n    tag_48:\n      callvalue\n      dup1\n      iszero\n      tag_270\n      jumpi\n      0x00\n      dup1\n      revert\n    tag_270:\n      pop\n      sload(0x4e36)\n      tag_82\n      swap1\n      0x0100\n      swap1\n      div\n      sub(shl(0xa0, 0x01), 0x01)\n      and\n      dup2\n      jump\n        /* \"contracts/NFTMain.sol\":18463:19440  function buyNFTMatic (uint256 _tokenId) public payable {\r... */\n    tag_49:\n      tag_72\n      tag_275\n      calldatasize\n      0x04\n      tag_84\n      jump\t// in\n    tag_275:\n      tag_276\n      jump\t// in\n        /* \"contracts/NFTMain.sol\":3345:3363  IERC20 public gold */\n    tag_50:\n      callvalue\n      dup1\n      iszero\n      tag_277\n      jumpi\n      0x00\n      dup1\n      revert\n    tag_277:\n      pop\n      sload(0x13)\n      tag_82\n      swap1\n      sub(shl(0xa0, 0x01), 0x01)\n      and\n      dup2\n      jump\n        /* \"contracts/NFTMain.sol\":19841:20005  function addPaymentToken (uint256 _paymentTokenId, address _tokenAddress) public onlyOwner {\r... */\n    tag_75:\n        /* \"@openzeppelin/contracts/access/Ownable.sol\":1082:1089  address */\n      0x00\n        /* \"@openzeppelin/contracts/access/Ownable.sol\":1108:1114  _owner */\n      sload\n      sub(shl(0xa0, 0x01), 0x01)\n      and\n        /* \"@openzeppelin/contracts/utils/Context.sol\":719:729  msg.sender */\n      caller\n        /* \"@openzeppelin/contracts/access/Ownable.sol\":1248:1271  owner() == _msgSender() */\n      eq\n        /* \"@openzeppelin/contracts/access/Ownable.sol\":1240:1308  require(owner() == _msgSender(), \"Ownable: caller is not the owner\") */\n      tag_286\n      jumpi\n      mload(0x40)\n      shl(0xe5, 0x461bcd)\n      dup2\n      mstore\n      0x04\n      add\n      tag_287\n      swap1\n      tag_288\n      jump\t// in\n    tag_287:\n      mload(0x40)\n      dup1\n      swap2\n      sub\n      swap1\n      revert\n    tag_286:\n        /* \"contracts/NFTMain.sol\":19943:19973  purchaseToken[_paymentTokenId] */\n      0x00\n      swap2\n      dup3\n      mstore\n        /* \"contracts/NFTMain.sol\":19943:19956  purchaseToken */\n      0x4e38\n        /* \"contracts/NFTMain.sol\":19943:19973  purchaseToken[_paymentTokenId] */\n      0x20\n      mstore\n      0x40\n      swap1\n      swap2\n      keccak256\n        /* \"contracts/NFTMain.sol\":19943:19997  purchaseToken[_paymentTokenId] = IERC20(_tokenAddress) */\n      dup1\n      sload\n      not(sub(shl(0xa0, 0x01), 0x01))\n      and\n      sub(shl(0xa0, 0x01), 0x01)\n      swap1\n      swap3\n      and\n      swap2\n      swap1\n      swap2\n      or\n      swap1\n      sstore\n        /* \"contracts/NFTMain.sol\":19841:20005  function addPaymentToken (uint256 _paymentTokenId, address _tokenAddress) public onlyOwner {\r... */\n      jump\t// out\n        /* \"contracts/NFTMain.sol\":14880:14974  function name() external view returns (string memory _name) {\r... */\n    tag_78:\n        /* \"contracts/NFTMain.sol\":14919:14938  string memory _name */\n      0x60\n        /* \"contracts/NFTMain.sol\":14959:14966  nftName */\n      0x07\n        /* \"contracts/NFTMain.sol\":14951:14966  _name = nftName */\n      dup1\n      sload\n      tag_291\n      swap1\n      tag_292\n      jump\t// in\n    tag_291:\n      dup1\n      0x1f\n      add\n      0x20\n      dup1\n      swap2\n      div\n      mul\n      0x20\n      add\n      mload(0x40)\n      swap1\n      dup2\n      add\n      0x40\n      mstore\n      dup1\n      swap3\n      swap2\n      swap1\n      dup2\n      dup2\n      mstore\n      0x20\n      add\n      dup3\n      dup1\n      sload\n      tag_293\n      swap1\n      tag_292\n      jump\t// in\n    tag_293:\n      dup1\n      iszero\n      tag_294\n      jumpi\n      dup1\n      0x1f\n      lt\n      tag_295\n      jumpi\n      0x0100\n      dup1\n      dup4\n      sload\n      div\n      mul\n      dup4\n      mstore\n      swap2\n      0x20\n      add\n      swap2\n      jump(tag_294)\n    tag_295:\n      dup3\n      add\n      swap2\n      swap1\n      0x00\n      mstore\n      keccak256(0x00, 0x20)\n      swap1\n    tag_296:\n      dup2\n      sload\n      dup2\n      mstore\n      swap1\n      0x01\n      add\n      swap1\n      0x20\n      add\n      dup1\n      dup4\n      gt\n      tag_296\n      jumpi\n      dup3\n      swap1\n      sub\n      0x1f\n      and\n      dup3\n      add\n      swap2\n    tag_294:\n      pop\n      pop\n      pop\n      pop\n      pop\n      swap1\n      pop\n        /* \"contracts/NFTMain.sol\":14880:14974  function name() external view returns (string memory _name) {\r... */\n      swap1\n      jump\t// out\n        /* \"contracts/NFTMain.sol\":7644:7795  function getApproved(uint256 _tokenId) external view override validNFToken(_tokenId) returns (address) {\r... */\n    tag_85:\n        /* \"contracts/NFTMain.sol\":7738:7745  address */\n      0x00\n        /* \"contracts/NFTMain.sol\":4303:4322  idToOwner[_tokenId] */\n      dup2\n      dup2\n      mstore\n        /* \"contracts/NFTMain.sol\":4303:4312  idToOwner */\n      0x02\n        /* \"contracts/NFTMain.sol\":4303:4322  idToOwner[_tokenId] */\n      0x20\n      mstore\n      0x40\n      dup2\n      keccak256\n      sload\n        /* \"contracts/NFTMain.sol\":7719:7727  _tokenId */\n      dup3\n      swap1\n      sub(shl(0xa0, 0x01), 0x01)\n        /* \"contracts/NFTMain.sol\":4303:4322  idToOwner[_tokenId] */\n      and\n        /* \"contracts/NFTMain.sol\":4295:4355  require(idToOwner[_tokenId] != address(0), \"Invalid token.\") */\n      tag_298\n      jumpi\n      mload(0x40)\n      shl(0xe5, 0x461bcd)\n      dup2\n      mstore\n      0x04\n      add\n      tag_287\n      swap1\n      tag_300\n      jump\t// in\n    tag_298:\n        /* \"contracts/NFTMain.sol\":7765:7787  idToApproval[_tokenId] */\n      0x00\n      dup4\n      dup2\n      mstore\n        /* \"contracts/NFTMain.sol\":7765:7777  idToApproval */\n      0x03\n        /* \"contracts/NFTMain.sol\":7765:7787  idToApproval[_tokenId] */\n      0x20\n      mstore\n      0x40\n      swap1\n      keccak256\n      sload\n      sub(shl(0xa0, 0x01), 0x01)\n      and\n      swap2\n      pop\n        /* \"contracts/NFTMain.sol\":4366:4367  _ */\n    tag_301:\n        /* \"contracts/NFTMain.sol\":7644:7795  function getApproved(uint256 _tokenId) external view override validNFToken(_tokenId) returns (address) {\r... */\n      pop\n      swap2\n      swap1\n      pop\n      jump\t// out\n        /* \"contracts/NFTMain.sol\":6730:7050  function approve(address _approved, uint256 _tokenId) external override canOperate(_tokenId) validNFToken(_tokenId) {\r... */\n    tag_92:\n        /* \"contracts/NFTMain.sol\":3753:3771  address tokenOwner */\n      0x00\n        /* \"contracts/NFTMain.sol\":3774:3793  idToOwner[_tokenId] */\n      dup2\n      dup2\n      mstore\n        /* \"contracts/NFTMain.sol\":3774:3783  idToOwner */\n      0x02\n        /* \"contracts/NFTMain.sol\":3774:3793  idToOwner[_tokenId] */\n      0x20\n      mstore\n      0x40\n      swap1\n      keccak256\n      sload\n        /* \"contracts/NFTMain.sol\":6813:6821  _tokenId */\n      dup2\n      swap1\n      sub(shl(0xa0, 0x01), 0x01)\n        /* \"contracts/NFTMain.sol\":3774:3793  idToOwner[_tokenId] */\n      and\n        /* \"contracts/NFTMain.sol\":3826:3836  msg.sender */\n      caller\n        /* \"contracts/NFTMain.sol\":3812:3836  tokenOwner == msg.sender */\n      dup2\n      eq\n      dup1\n        /* \"contracts/NFTMain.sol\":3812:3880  tokenOwner == msg.sender || ownerToOperators[tokenOwner][msg.sender] */\n      tag_303\n      jumpi\n      pop\n      sub(shl(0xa0, 0x01), 0x01)\n        /* \"contracts/NFTMain.sol\":3840:3868  ownerToOperators[tokenOwner] */\n      dup2\n      and\n      0x00\n      swap1\n      dup2\n      mstore\n        /* \"contracts/NFTMain.sol\":3840:3856  ownerToOperators */\n      0x04\n        /* \"contracts/NFTMain.sol\":3840:3868  ownerToOperators[tokenOwner] */\n      0x20\n      swap1\n      dup2\n      mstore\n      0x40\n      dup1\n      dup4\n      keccak256\n        /* \"contracts/NFTMain.sol\":3869:3879  msg.sender */\n      caller\n        /* \"contracts/NFTMain.sol\":3840:3880  ownerToOperators[tokenOwner][msg.sender] */\n      dup5\n      mstore\n      swap1\n      swap2\n      mstore\n      swap1\n      keccak256\n      sload\n      0xff\n      and\n        /* \"contracts/NFTMain.sol\":3812:3880  tokenOwner == msg.sender || ownerToOperators[tokenOwner][msg.sender] */\n    tag_303:\n        /* \"contracts/NFTMain.sol\":3804:3900  require(tokenOwner == msg.sender || ownerToOperators[tokenOwner][msg.sender], \"Cannot operate.\") */\n      tag_304\n      jumpi\n      mload(0x40)\n      shl(0xe5, 0x461bcd)\n      dup2\n      mstore\n        /* \"#utility.yul\":14890:14892   */\n      0x20\n        /* \"contracts/NFTMain.sol\":3804:3900  require(tokenOwner == msg.sender || ownerToOperators[tokenOwner][msg.sender], \"Cannot operate.\") */\n      0x04\n      dup3\n      add\n        /* \"#utility.yul\":14872:14893   */\n      mstore\n        /* \"#utility.yul\":14929:14931   */\n      0x0f\n        /* \"#utility.yul\":14909:14927   */\n      0x24\n      dup3\n      add\n        /* \"#utility.yul\":14902:14932   */\n      mstore\n      shl(0x89, 0x21b0b73737ba1037b832b930ba3297)\n        /* \"#utility.yul\":14948:14966   */\n      0x44\n      dup3\n      add\n        /* \"#utility.yul\":14941:14986   */\n      mstore\n        /* \"#utility.yul\":15003:15021   */\n      0x64\n      add\n        /* \"contracts/NFTMain.sol\":3804:3900  require(tokenOwner == msg.sender || ownerToOperators[tokenOwner][msg.sender], \"Cannot operate.\") */\n      tag_287\n        /* \"#utility.yul\":14688:15027   */\n      jump\n        /* \"contracts/NFTMain.sol\":3804:3900  require(tokenOwner == msg.sender || ownerToOperators[tokenOwner][msg.sender], \"Cannot operate.\") */\n    tag_304:\n        /* \"contracts/NFTMain.sol\":4334:4335  0 */\n      0x00\n        /* \"contracts/NFTMain.sol\":4303:4322  idToOwner[_tokenId] */\n      dup4\n      dup2\n      mstore\n        /* \"contracts/NFTMain.sol\":4303:4312  idToOwner */\n      0x02\n        /* \"contracts/NFTMain.sol\":4303:4322  idToOwner[_tokenId] */\n      0x20\n      mstore\n      0x40\n      swap1\n      keccak256\n      sload\n        /* \"contracts/NFTMain.sol\":6836:6844  _tokenId */\n      dup4\n      swap1\n      sub(shl(0xa0, 0x01), 0x01)\n        /* \"contracts/NFTMain.sol\":4303:4322  idToOwner[_tokenId] */\n      and\n        /* \"contracts/NFTMain.sol\":4295:4355  require(idToOwner[_tokenId] != address(0), \"Invalid token.\") */\n      tag_308\n      jumpi\n      mload(0x40)\n      shl(0xe5, 0x461bcd)\n      dup2\n      mstore\n      0x04\n      add\n      tag_287\n      swap1\n      tag_300\n      jump\t// in\n    tag_308:\n        /* \"contracts/NFTMain.sol\":6857:6875  address tokenOwner */\n      0x00\n        /* \"contracts/NFTMain.sol\":6878:6897  idToOwner[_tokenId] */\n      dup5\n      dup2\n      mstore\n        /* \"contracts/NFTMain.sol\":6878:6887  idToOwner */\n      0x02\n        /* \"contracts/NFTMain.sol\":6878:6897  idToOwner[_tokenId] */\n      0x20\n      mstore\n      0x40\n      swap1\n      keccak256\n      sload\n      sub(shl(0xa0, 0x01), 0x01)\n      swap1\n      dup2\n      and\n      swap1\n        /* \"contracts/NFTMain.sol\":6916:6939  _approved != tokenOwner */\n      dup7\n      and\n      dup2\n      eq\n      iszero\n        /* \"contracts/NFTMain.sol\":6908:6940  require(_approved != tokenOwner) */\n      tag_311\n      jumpi\n      0x00\n      dup1\n      revert\n    tag_311:\n        /* \"contracts/NFTMain.sol\":6951:6973  idToApproval[_tokenId] */\n      0x00\n      dup6\n      dup2\n      mstore\n        /* \"contracts/NFTMain.sol\":6951:6963  idToApproval */\n      0x03\n        /* \"contracts/NFTMain.sol\":6951:6973  idToApproval[_tokenId] */\n      0x20\n      mstore\n      0x40\n      dup1\n      dup3\n      keccak256\n        /* \"contracts/NFTMain.sol\":6951:6985  idToApproval[_tokenId] = _approved */\n      dup1\n      sload\n      not(sub(shl(0xa0, 0x01), 0x01))\n      and\n      sub(shl(0xa0, 0x01), 0x01)\n      dup11\n      dup2\n      and\n      swap2\n      dup3\n      or\n      swap1\n      swap3\n      sstore\n        /* \"contracts/NFTMain.sol\":7001:7042  Approval(tokenOwner, _approved, _tokenId) */\n      swap2\n      mload\n        /* \"contracts/NFTMain.sol\":6951:6973  idToApproval[_tokenId] */\n      dup9\n      swap4\n        /* \"contracts/NFTMain.sol\":7001:7042  Approval(tokenOwner, _approved, _tokenId) */\n      swap2\n      dup6\n      and\n      swap2\n      0x8c5be1e5ebec7d5bd14f71427d1e84f3dd0314c0f7b2291e5b200ac8c7c3b925\n      swap2\n      log4\n        /* \"contracts/NFTMain.sol\":6846:7050  {\r... */\n      pop\n        /* \"contracts/NFTMain.sol\":3911:3912  _ */\n      pop\n        /* \"contracts/NFTMain.sol\":3742:3920  {\r... */\n      pop\n        /* \"contracts/NFTMain.sol\":6730:7050  function approve(address _approved, uint256 _tokenId) external override canOperate(_tokenId) validNFToken(_tokenId) {\r... */\n      pop\n      pop\n      pop\n      jump\t// out\n        /* \"contracts/NFTMain.sol\":7971:8307  function canUse (uint256 _tokenId, address _check) public view returns (bool)  {\r... */\n    tag_96:\n        /* \"contracts/NFTMain.sol\":8043:8047  bool */\n      0x00\n        /* \"contracts/NFTMain.sol\":8082:8101  idToOwner[_tokenId] */\n      dup3\n      dup2\n      mstore\n        /* \"contracts/NFTMain.sol\":8082:8091  idToOwner */\n      0x02\n        /* \"contracts/NFTMain.sol\":8082:8101  idToOwner[_tokenId] */\n      0x20\n      mstore\n      0x40\n      dup2\n      keccak256\n      sload\n      sub(shl(0xa0, 0x01), 0x01)\n      swap1\n      dup2\n      and\n      swap1\n        /* \"contracts/NFTMain.sol\":8129:8149  tokenOwner == _check */\n      dup4\n      and\n      dup2\n      eq\n      dup1\n        /* \"contracts/NFTMain.sol\":8129:8198  tokenOwner == _check\r... */\n      tag_313\n      jumpi\n      pop\n        /* \"contracts/NFTMain.sol\":8166:8188  idToApproval[_tokenId] */\n      0x00\n      dup5\n      dup2\n      mstore\n        /* \"contracts/NFTMain.sol\":8166:8178  idToApproval */\n      0x03\n        /* \"contracts/NFTMain.sol\":8166:8188  idToApproval[_tokenId] */\n      0x20\n      mstore\n      0x40\n      swap1\n      keccak256\n      sload\n      sub(shl(0xa0, 0x01), 0x01)\n        /* \"contracts/NFTMain.sol\":8166:8198  idToApproval[_tokenId] == _check */\n      dup5\n      dup2\n      and\n        /* \"contracts/NFTMain.sol\":8166:8188  idToApproval[_tokenId] */\n      swap2\n      and\n        /* \"contracts/NFTMain.sol\":8166:8198  idToApproval[_tokenId] == _check */\n      eq\n        /* \"contracts/NFTMain.sol\":8129:8198  tokenOwner == _check\r... */\n    tag_313:\n        /* \"contracts/NFTMain.sol\":8129:8251  tokenOwner == _check\r... */\n      dup1\n      tag_314\n      jumpi\n      pop\n      sub(shl(0xa0, 0x01), 0x01)\n        /* \"contracts/NFTMain.sol\":8215:8243  ownerToOperators[tokenOwner] */\n      dup1\n      dup3\n      and\n      0x00\n      swap1\n      dup2\n      mstore\n        /* \"contracts/NFTMain.sol\":8215:8231  ownerToOperators */\n      0x04\n        /* \"contracts/NFTMain.sol\":8215:8243  ownerToOperators[tokenOwner] */\n      0x20\n      swap1\n      dup2\n      mstore\n      0x40\n      dup1\n      dup4\n      keccak256\n        /* \"contracts/NFTMain.sol\":8215:8251  ownerToOperators[tokenOwner][_check] */\n      swap4\n      dup8\n      and\n      dup4\n      mstore\n      swap3\n      swap1\n      mstore\n      keccak256\n      sload\n      0xff\n      and\n        /* \"contracts/NFTMain.sol\":8129:8251  tokenOwner == _check\r... */\n    tag_314:\n        /* \"contracts/NFTMain.sol\":8112:8298  if(\r... */\n      iszero\n      tag_315\n      jumpi\n        /* \"contracts/NFTMain.sol\":8271:8275  true */\n      0x01\n        /* \"contracts/NFTMain.sol\":8264:8275  return true */\n      swap2\n      pop\n      pop\n      jump(tag_312)\n        /* \"contracts/NFTMain.sol\":8112:8298  if(\r... */\n    tag_315:\n        /* \"contracts/NFTMain.sol\":8291:8296  false */\n      0x00\n        /* \"contracts/NFTMain.sol\":8284:8296  return false */\n      swap2\n      pop\n      pop\n        /* \"contracts/NFTMain.sol\":7971:8307  function canUse (uint256 _tokenId, address _check) public view returns (bool)  {\r... */\n    tag_312:\n      swap3\n      swap2\n      pop\n      pop\n      jump\t// out\n        /* \"contracts/NFTMain.sol\":10419:11122  function Goldmint(uint256 numberOfNfts) external payable reentrancyGuard {\r... */\n    tag_100:\n        /* \"contracts/NFTMain.sol\":3561:3575  reentrancyLock */\n      and(0xff, sload(0x4e36))\n        /* \"contracts/NFTMain.sol\":3557:3612  if (reentrancyLock) {\r... */\n      iszero\n      tag_318\n      jumpi\n        /* \"contracts/NFTMain.sol\":3592:3600  revert() */\n      0x00\n      dup1\n      revert\n        /* \"contracts/NFTMain.sol\":3557:3612  if (reentrancyLock) {\r... */\n    tag_318:\n        /* \"contracts/NFTMain.sol\":3622:3636  reentrancyLock */\n      0x4e36\n        /* \"contracts/NFTMain.sol\":3622:3643  reentrancyLock = true */\n      dup1\n      sload\n      not(0xff)\n      and\n        /* \"contracts/NFTMain.sol\":3639:3643  true */\n      0x01\n        /* \"contracts/NFTMain.sol\":3622:3643  reentrancyLock = true */\n      or\n      swap1\n      sstore\n        /* \"contracts/NFTMain.sol\":10511:10521  publicSale */\n      sload(0x0f)\n      shl(0xa0, 0x01)\n      swap1\n      div\n        /* \"contracts/NFTMain.sol\":3622:3643  reentrancyLock = true */\n      0xff\n        /* \"contracts/NFTMain.sol\":10511:10521  publicSale */\n      and\n        /* \"contracts/NFTMain.sol\":10503:10543  require(publicSale, \"Sale not started.\") */\n      tag_320\n      jumpi\n      mload(0x40)\n      shl(0xe5, 0x461bcd)\n      dup2\n      mstore\n        /* \"#utility.yul\":12388:12390   */\n      0x20\n        /* \"contracts/NFTMain.sol\":10503:10543  require(publicSale, \"Sale not started.\") */\n      0x04\n      dup3\n      add\n        /* \"#utility.yul\":12370:12391   */\n      mstore\n        /* \"#utility.yul\":12427:12429   */\n      0x11\n        /* \"#utility.yul\":12407:12425   */\n      0x24\n      dup3\n      add\n        /* \"#utility.yul\":12400:12430   */\n      mstore\n      shl(0x79, 0x29b0b632903737ba1039ba30b93a32b217)\n        /* \"#utility.yul\":12446:12464   */\n      0x44\n      dup3\n      add\n        /* \"#utility.yul\":12439:12486   */\n      mstore\n        /* \"#utility.yul\":12503:12521   */\n      0x64\n      add\n        /* \"contracts/NFTMain.sol\":10503:10543  require(publicSale, \"Sale not started.\") */\n      tag_287\n        /* \"#utility.yul\":12186:12527   */\n      jump\n        /* \"contracts/NFTMain.sol\":10503:10543  require(publicSale, \"Sale not started.\") */\n    tag_320:\n        /* \"contracts/NFTMain.sol\":10578:10580  20 */\n      0x14\n        /* \"contracts/NFTMain.sol\":10562:10574  numberOfNfts */\n      dup2\n        /* \"contracts/NFTMain.sol\":10562:10580  numberOfNfts <= 20 */\n      gt\n      iszero\n        /* \"contracts/NFTMain.sol\":10554:10626  require(numberOfNfts <= 20, \"You can not buy more than 20 NFTs at once\") */\n      tag_323\n      jumpi\n      mload(0x40)\n      shl(0xe5, 0x461bcd)\n      dup2\n      mstore\n      0x04\n      add\n      tag_287\n      swap1\n      tag_325\n      jump\t// in\n    tag_323:\n        /* \"contracts/NFTMain.sol\":2429:2434  20000 */\n      0x4e20\n        /* \"contracts/NFTMain.sol\":10645:10676  totalSupply().add(numberOfNfts) */\n      tag_326\n        /* \"contracts/NFTMain.sol\":10663:10675  numberOfNfts */\n      dup3\n        /* \"contracts/NFTMain.sol\":10645:10658  totalSupply() */\n      tag_327\n        /* \"contracts/NFTMain.sol\":13922:13931  numTokens */\n      sload(0x09)\n      swap1\n        /* \"contracts/NFTMain.sol\":13851:13939  function totalSupply() public view returns (uint256) {\r... */\n      jump\n        /* \"contracts/NFTMain.sol\":10645:10658  totalSupply() */\n    tag_327:\n        /* \"contracts/NFTMain.sol\":10645:10662  totalSupply().add */\n      swap1\n      tag_328\n        /* \"contracts/NFTMain.sol\":10645:10676  totalSupply().add(numberOfNfts) */\n      jump\t// in\n    tag_326:\n        /* \"contracts/NFTMain.sol\":10645:10691  totalSupply().add(numberOfNfts) <= TOKEN_LIMIT */\n      gt\n      iszero\n        /* \"contracts/NFTMain.sol\":10637:10715  require(totalSupply().add(numberOfNfts) <= TOKEN_LIMIT, \"Exceeds TOKEN_LIMIT\") */\n      tag_329\n      jumpi\n      mload(0x40)\n      shl(0xe5, 0x461bcd)\n      dup2\n      mstore\n        /* \"#utility.yul\":12734:12736   */\n      0x20\n        /* \"contracts/NFTMain.sol\":10637:10715  require(totalSupply().add(numberOfNfts) <= TOKEN_LIMIT, \"Exceeds TOKEN_LIMIT\") */\n      0x04\n      dup3\n      add\n        /* \"#utility.yul\":12716:12737   */\n      mstore\n        /* \"#utility.yul\":12773:12775   */\n      0x13\n        /* \"#utility.yul\":12753:12771   */\n      0x24\n      dup3\n      add\n        /* \"#utility.yul\":12746:12776   */\n      mstore\n      shl(0x6a, 0x115e18d959591cc81513d2d15397d312535255)\n        /* \"#utility.yul\":12792:12810   */\n      0x44\n      dup3\n      add\n        /* \"#utility.yul\":12785:12834   */\n      mstore\n        /* \"#utility.yul\":12851:12869   */\n      0x64\n      add\n        /* \"contracts/NFTMain.sol\":10637:10715  require(totalSupply().add(numberOfNfts) <= TOKEN_LIMIT, \"Exceeds TOKEN_LIMIT\") */\n      tag_287\n        /* \"#utility.yul\":12532:12875   */\n      jump\n        /* \"contracts/NFTMain.sol\":10637:10715  require(totalSupply().add(numberOfNfts) <= TOKEN_LIMIT, \"Exceeds TOKEN_LIMIT\") */\n    tag_329:\n        /* \"contracts/NFTMain.sol\":10734:10749  remainderOfGold */\n      sload(0x0c)\n        /* \"contracts/NFTMain.sol\":10771:10772  0 */\n      0x00\n      swap1\n        /* \"contracts/NFTMain.sol\":10734:10767  remainderOfGold.sub(numberOfNfts) */\n      tag_332\n      swap1\n        /* \"contracts/NFTMain.sol\":10754:10766  numberOfNfts */\n      dup4\n        /* \"contracts/NFTMain.sol\":10734:10753  remainderOfGold.sub */\n      tag_333\n        /* \"contracts/NFTMain.sol\":10734:10767  remainderOfGold.sub(numberOfNfts) */\n      jump\t// in\n    tag_332:\n        /* \"contracts/NFTMain.sol\":10734:10772  remainderOfGold.sub(numberOfNfts) >= 0 */\n      lt\n      iszero\n        /* \"contracts/NFTMain.sol\":10726:10821  require(remainderOfGold.sub(numberOfNfts) >= 0, \"Exceeds remaining primary sale of MATIC sale\") */\n      tag_334\n      jumpi\n      mload(0x40)\n      shl(0xe5, 0x461bcd)\n      dup2\n      mstore\n      0x04\n      add\n      tag_287\n      swap1\n      tag_336\n      jump\t// in\n    tag_334:\n        /* \"contracts/NFTMain.sol\":10842:10923  gold.safeTransferFrom(msg.sender, address(this), goldMintPrice.mul(numberOfNfts)) */\n      tag_337\n        /* \"contracts/NFTMain.sol\":10864:10874  msg.sender */\n      caller\n        /* \"contracts/NFTMain.sol\":10884:10888  this */\n      address\n        /* \"contracts/NFTMain.sol\":10891:10922  goldMintPrice.mul(numberOfNfts) */\n      tag_338\n        /* \"contracts/NFTMain.sol\":10909:10921  numberOfNfts */\n      dup5\n        /* \"contracts/NFTMain.sol\":10891:10904  goldMintPrice */\n      sload(0x11)\n        /* \"contracts/NFTMain.sol\":10891:10908  goldMintPrice.mul */\n      tag_339\n      swap1\n        /* \"contracts/NFTMain.sol\":10891:10922  goldMintPrice.mul(numberOfNfts) */\n      swap2\n      swap1\n      0xffffffff\n      and\n      jump\t// in\n    tag_338:\n        /* \"contracts/NFTMain.sol\":10842:10846  gold */\n      and(sub(shl(0xa0, 0x01), 0x01), sload(0x13))\n      swap3\n        /* \"contracts/NFTMain.sol\":10842:10923  gold.safeTransferFrom(msg.sender, address(this), goldMintPrice.mul(numberOfNfts)) */\n      swap2\n      swap1\n        /* \"contracts/NFTMain.sol\":10842:10863  gold.safeTransferFrom */\n      tag_340\n        /* \"contracts/NFTMain.sol\":10842:10923  gold.safeTransferFrom(msg.sender, address(this), goldMintPrice.mul(numberOfNfts)) */\n      jump\t// in\n    tag_337:\n        /* \"contracts/NFTMain.sol\":10949:10955  uint i */\n      0x00\n        /* \"contracts/NFTMain.sol\":10944:11105  for (uint i = 0; i < numberOfNfts; i++) {\r... */\n    tag_341:\n        /* \"contracts/NFTMain.sol\":10965:10977  numberOfNfts */\n      dup2\n        /* \"contracts/NFTMain.sol\":10961:10962  i */\n      dup2\n        /* \"contracts/NFTMain.sol\":10961:10977  i < numberOfNfts */\n      lt\n        /* \"contracts/NFTMain.sol\":10944:11105  for (uint i = 0; i < numberOfNfts; i++) {\r... */\n      iszero\n      tag_342\n      jumpi\n        /* \"contracts/NFTMain.sol\":10999:11007  numSales */\n      0x0a\n        /* \"contracts/NFTMain.sol\":10999:11009  numSales++ */\n      dup1\n      sload\n      swap1\n        /* \"contracts/NFTMain.sol\":10999:11007  numSales */\n      0x00\n        /* \"contracts/NFTMain.sol\":10999:11009  numSales++ */\n      tag_344\n      dup4\n      tag_345\n      jump\t// in\n    tag_344:\n      swap2\n      swap1\n      pop\n      sstore\n      pop\n        /* \"contracts/NFTMain.sol\":11060:11061  1 */\n      0x01\n        /* \"contracts/NFTMain.sol\":11042:11057  remainderOfGold */\n      sload(0x0c)\n        /* \"contracts/NFTMain.sol\":11042:11061  remainderOfGold - 1 */\n      tag_346\n      swap2\n      swap1\n      tag_347\n      jump\t// in\n    tag_346:\n        /* \"contracts/NFTMain.sol\":11024:11039  remainderOfGold */\n      0x0c\n        /* \"contracts/NFTMain.sol\":11024:11061  remainderOfGold = remainderOfGold - 1 */\n      sstore\n        /* \"contracts/NFTMain.sol\":11076:11093  _mint(msg.sender) */\n      tag_348\n        /* \"contracts/NFTMain.sol\":11082:11092  msg.sender */\n      caller\n        /* \"contracts/NFTMain.sol\":11076:11081  _mint */\n      tag_349\n        /* \"contracts/NFTMain.sol\":11076:11093  _mint(msg.sender) */\n      jump\t// in\n    tag_348:\n      pop\n        /* \"contracts/NFTMain.sol\":10979:10982  i++ */\n      dup1\n      tag_350\n      dup2\n      tag_345\n      jump\t// in\n    tag_350:\n      swap2\n      pop\n      pop\n        /* \"contracts/NFTMain.sol\":10944:11105  for (uint i = 0; i < numberOfNfts; i++) {\r... */\n      jump(tag_341)\n    tag_342:\n      pop\n      pop\n        /* \"contracts/NFTMain.sol\":3666:3680  reentrancyLock */\n      0x4e36\n        /* \"contracts/NFTMain.sol\":3666:3688  reentrancyLock = false */\n      dup1\n      sload\n      not(0xff)\n      and\n      swap1\n      sstore\n        /* \"contracts/NFTMain.sol\":10419:11122  function Goldmint(uint256 numberOfNfts) external payable reentrancyGuard {\r... */\n      jump\t// out\n        /* \"contracts/NFTMain.sol\":6198:6323  function setDungeonContract (address _dungeonContract) public onlyOwner {\r... */\n    tag_109:\n        /* \"@openzeppelin/contracts/access/Ownable.sol\":1082:1089  address */\n      0x00\n        /* \"@openzeppelin/contracts/access/Ownable.sol\":1108:1114  _owner */\n      sload\n      sub(shl(0xa0, 0x01), 0x01)\n      and\n        /* \"@openzeppelin/contracts/utils/Context.sol\":719:729  msg.sender */\n      caller\n        /* \"@openzeppelin/contracts/access/Ownable.sol\":1248:1271  owner() == _msgSender() */\n      eq\n        /* \"@openzeppelin/contracts/access/Ownable.sol\":1240:1308  require(owner() == _msgSender(), \"Ownable: caller is not the owner\") */\n      tag_355\n      jumpi\n      mload(0x40)\n      shl(0xe5, 0x461bcd)\n      dup2\n      mstore\n      0x04\n      add\n      tag_287\n      swap1\n      tag_288\n      jump\t// in\n    tag_355:\n        /* \"contracts/NFTMain.sol\":6281:6296  dungeonContract */\n      0x4e36\n        /* \"contracts/NFTMain.sol\":6281:6315  dungeonContract = _dungeonContract */\n      dup1\n      sload\n      sub(shl(0xa0, 0x01), 0x01)\n      swap1\n      swap3\n      and\n      0x0100\n      mul\n      not(sub(shl(0xa8, 0x01), 0x0100))\n      swap1\n      swap3\n      and\n      swap2\n      swap1\n      swap2\n      or\n      swap1\n      sstore\n        /* \"contracts/NFTMain.sol\":6198:6323  function setDungeonContract (address _dungeonContract) public onlyOwner {\r... */\n      jump\t// out\n        /* \"contracts/NFTMain.sol\":19628:19730  function setSale (bool _marketStatus) public onlyOwner {\r... */\n    tag_118:\n        /* \"@openzeppelin/contracts/access/Ownable.sol\":1082:1089  address */\n      0x00\n        /* \"@openzeppelin/contracts/access/Ownable.sol\":1108:1114  _owner */\n      sload\n      sub(shl(0xa0, 0x01), 0x01)\n      and\n        /* \"@openzeppelin/contracts/utils/Context.sol\":719:729  msg.sender */\n      caller\n        /* \"@openzeppelin/contracts/access/Ownable.sol\":1248:1271  owner() == _msgSender() */\n      eq\n        /* \"@openzeppelin/contracts/access/Ownable.sol\":1240:1308  require(owner() == _msgSender(), \"Ownable: caller is not the owner\") */\n      tag_361\n      jumpi\n      mload(0x40)\n      shl(0xe5, 0x461bcd)\n      dup2\n      mstore\n      0x04\n      add\n      tag_287\n      swap1\n      tag_288\n      jump\t// in\n    tag_361:\n        /* \"contracts/NFTMain.sol\":19694:19706  marketStatus */\n      0x4e3a\n        /* \"contracts/NFTMain.sol\":19694:19722  marketStatus = _marketStatus */\n      dup1\n      sload\n      swap2\n      iszero\n      iszero\n      shl(0xa0, 0x01)\n      mul\n      not(shl(0xa0, 0xff))\n      swap1\n      swap3\n      and\n      swap2\n      swap1\n      swap2\n      or\n      swap1\n      sstore\n        /* \"contracts/NFTMain.sol\":19628:19730  function setSale (bool _marketStatus) public onlyOwner {\r... */\n      jump\t// out\n        /* \"contracts/NFTMain.sol\":6335:6722  function transferToDungeon(address _from, address _to, uint256 _tokenId) external validNFToken(_tokenId) {\r... */\n    tag_123:\n        /* \"contracts/NFTMain.sol\":4334:4335  0 */\n      0x00\n        /* \"contracts/NFTMain.sol\":4303:4322  idToOwner[_tokenId] */\n      dup2\n      dup2\n      mstore\n        /* \"contracts/NFTMain.sol\":4303:4312  idToOwner */\n      0x02\n        /* \"contracts/NFTMain.sol\":4303:4322  idToOwner[_tokenId] */\n      0x20\n      mstore\n      0x40\n      swap1\n      keccak256\n      sload\n        /* \"contracts/NFTMain.sol\":6430:6438  _tokenId */\n      dup2\n      swap1\n      sub(shl(0xa0, 0x01), 0x01)\n        /* \"contracts/NFTMain.sol\":4303:4322  idToOwner[_tokenId] */\n      and\n        /* \"contracts/NFTMain.sol\":4295:4355  require(idToOwner[_tokenId] != address(0), \"Invalid token.\") */\n      tag_365\n      jumpi\n      mload(0x40)\n      shl(0xe5, 0x461bcd)\n      dup2\n      mstore\n      0x04\n      add\n      tag_287\n      swap1\n      tag_300\n      jump\t// in\n    tag_365:\n      sub(shl(0xa0, 0x01), 0x01)\n        /* \"contracts/NFTMain.sol\":6459:6479  _to == address(this) */\n      dup4\n      and\n        /* \"contracts/NFTMain.sol\":6474:6478  this */\n      address\n        /* \"contracts/NFTMain.sol\":6459:6479  _to == address(this) */\n      eq\n      dup1\n        /* \"contracts/NFTMain.sol\":6459:6505  _to == address(this) || _to == dungeonContract */\n      tag_368\n      jumpi\n      pop\n        /* \"contracts/NFTMain.sol\":6490:6505  dungeonContract */\n      sload(0x4e36)\n      sub(shl(0xa0, 0x01), 0x01)\n        /* \"contracts/NFTMain.sol\":6483:6505  _to == dungeonContract */\n      dup5\n      dup2\n      and\n        /* \"contracts/NFTMain.sol\":6490:6505  dungeonContract */\n      0x0100\n      swap1\n      swap3\n      div\n      and\n        /* \"contracts/NFTMain.sol\":6483:6505  _to == dungeonContract */\n      eq\n        /* \"contracts/NFTMain.sol\":6459:6505  _to == address(this) || _to == dungeonContract */\n    tag_368:\n        /* \"contracts/NFTMain.sol\":6451:6506  require(_to == address(this) || _to == dungeonContract) */\n      tag_369\n      jumpi\n      0x00\n      dup1\n      revert\n    tag_369:\n        /* \"contracts/NFTMain.sol\":6517:6535  address tokenOwner */\n      0x00\n        /* \"contracts/NFTMain.sol\":6538:6557  idToOwner[_tokenId] */\n      dup3\n      dup2\n      mstore\n        /* \"contracts/NFTMain.sol\":6538:6547  idToOwner */\n      0x02\n        /* \"contracts/NFTMain.sol\":6538:6557  idToOwner[_tokenId] */\n      0x20\n      mstore\n      0x40\n      swap1\n      keccak256\n      sload\n      sub(shl(0xa0, 0x01), 0x01)\n      swap1\n      dup2\n      and\n      swap1\n        /* \"contracts/NFTMain.sol\":6576:6595  tokenOwner == _from */\n      dup6\n      and\n      dup2\n      eq\n        /* \"contracts/NFTMain.sol\":6568:6619  require(tokenOwner == _from, \"Wrong from address.\") */\n      tag_370\n      jumpi\n      mload(0x40)\n      shl(0xe5, 0x461bcd)\n      dup2\n      mstore\n        /* \"#utility.yul\":16642:16644   */\n      0x20\n        /* \"contracts/NFTMain.sol\":6568:6619  require(tokenOwner == _from, \"Wrong from address.\") */\n      0x04\n      dup3\n      add\n        /* \"#utility.yul\":16624:16645   */\n      mstore\n        /* \"#utility.yul\":16681:16683   */\n      0x13\n        /* \"#utility.yul\":16661:16679   */\n      0x24\n      dup3\n      add\n        /* \"#utility.yul\":16654:16684   */\n      mstore\n      shl(0x69, 0x2bb937b73390333937b69030b2323932b9b997)\n        /* \"#utility.yul\":16700:16718   */\n      0x44\n      dup3\n      add\n        /* \"#utility.yul\":16693:16742   */\n      mstore\n        /* \"#utility.yul\":16759:16777   */\n      0x64\n      add\n        /* \"contracts/NFTMain.sol\":6568:6619  require(tokenOwner == _from, \"Wrong from address.\") */\n      tag_287\n        /* \"#utility.yul\":16440:16783   */\n      jump\n        /* \"contracts/NFTMain.sol\":6568:6619  require(tokenOwner == _from, \"Wrong from address.\") */\n    tag_370:\n      sub(shl(0xa0, 0x01), 0x01)\n        /* \"contracts/NFTMain.sol\":6638:6655  _to != address(0) */\n      dup5\n      and\n        /* \"contracts/NFTMain.sol\":6630:6679  require(_to != address(0), \"Cannot send to 0x0.\") */\n      tag_373\n      jumpi\n      mload(0x40)\n      shl(0xe5, 0x461bcd)\n      dup2\n      mstore\n        /* \"#utility.yul\":19633:19635   */\n      0x20\n        /* \"contracts/NFTMain.sol\":6630:6679  require(_to != address(0), \"Cannot send to 0x0.\") */\n      0x04\n      dup3\n      add\n        /* \"#utility.yul\":19615:19636   */\n      mstore\n        /* \"#utility.yul\":19672:19674   */\n      0x13\n        /* \"#utility.yul\":19652:19670   */\n      0x24\n      dup3\n      add\n        /* \"#utility.yul\":19645:19675   */\n      mstore\n      shl(0x69, 0x21b0b73737ba1039b2b732103a3790183c1817)\n        /* \"#utility.yul\":19691:19709   */\n      0x44\n      dup3\n      add\n        /* \"#utility.yul\":19684:19733   */\n      mstore\n        /* \"#utility.yul\":19750:19768   */\n      0x64\n      add\n        /* \"contracts/NFTMain.sol\":6630:6679  require(_to != address(0), \"Cannot send to 0x0.\") */\n      tag_287\n        /* \"#utility.yul\":19431:19774   */\n      jump\n        /* \"contracts/NFTMain.sol\":6630:6679  require(_to != address(0), \"Cannot send to 0x0.\") */\n    tag_373:\n        /* \"contracts/NFTMain.sol\":6690:6714  _transfer(_to, _tokenId) */\n      tag_376\n        /* \"contracts/NFTMain.sol\":6700:6703  _to */\n      dup5\n        /* \"contracts/NFTMain.sol\":6705:6713  _tokenId */\n      dup5\n        /* \"contracts/NFTMain.sol\":6690:6699  _transfer */\n      tag_377\n        /* \"contracts/NFTMain.sol\":6690:6714  _transfer(_to, _tokenId) */\n      jump\t// in\n    tag_376:\n        /* \"contracts/NFTMain.sol\":6440:6722  {\r... */\n      pop\n        /* \"contracts/NFTMain.sol\":6335:6722  function transferToDungeon(address _from, address _to, uint256 _tokenId) external validNFToken(_tokenId) {\r... */\n      pop\n      pop\n      pop\n      pop\n      jump\t// out\n        /* \"contracts/NFTMain.sol\":5804:6151  function transferFrom(address _from, address _to, uint256 _tokenId) external override canTransfer(_tokenId) validNFToken(_tokenId) {\r... */\n    tag_127:\n        /* \"contracts/NFTMain.sol\":3978:3996  address tokenOwner */\n      0x00\n        /* \"contracts/NFTMain.sol\":3999:4018  idToOwner[_tokenId] */\n      dup2\n      dup2\n      mstore\n        /* \"contracts/NFTMain.sol\":3999:4008  idToOwner */\n      0x02\n        /* \"contracts/NFTMain.sol\":3999:4018  idToOwner[_tokenId] */\n      0x20\n      mstore\n      0x40\n      swap1\n      keccak256\n      sload\n        /* \"contracts/NFTMain.sol\":5902:5910  _tokenId */\n      dup2\n      swap1\n      sub(shl(0xa0, 0x01), 0x01)\n        /* \"contracts/NFTMain.sol\":3999:4018  idToOwner[_tokenId] */\n      and\n        /* \"contracts/NFTMain.sol\":4065:4075  msg.sender */\n      caller\n        /* \"contracts/NFTMain.sol\":4051:4075  tokenOwner == msg.sender */\n      dup2\n      eq\n      dup1\n        /* \"contracts/NFTMain.sol\":4051:4128  tokenOwner == msg.sender\r... */\n      tag_379\n      jumpi\n      pop\n        /* \"contracts/NFTMain.sol\":4092:4114  idToApproval[_tokenId] */\n      0x00\n      dup3\n      dup2\n      mstore\n        /* \"contracts/NFTMain.sol\":4092:4104  idToApproval */\n      0x03\n        /* \"contracts/NFTMain.sol\":4092:4114  idToApproval[_tokenId] */\n      0x20\n      mstore\n      0x40\n      swap1\n      keccak256\n      sload\n      sub(shl(0xa0, 0x01), 0x01)\n      and\n        /* \"contracts/NFTMain.sol\":4118:4128  msg.sender */\n      caller\n        /* \"contracts/NFTMain.sol\":4092:4128  idToApproval[_tokenId] == msg.sender */\n      eq\n        /* \"contracts/NFTMain.sol\":4051:4128  tokenOwner == msg.sender\r... */\n    tag_379:\n        /* \"contracts/NFTMain.sol\":4051:4185  tokenOwner == msg.sender\r... */\n      dup1\n      tag_380\n      jumpi\n      pop\n      sub(shl(0xa0, 0x01), 0x01)\n        /* \"contracts/NFTMain.sol\":4145:4173  ownerToOperators[tokenOwner] */\n      dup2\n      and\n      0x00\n      swap1\n      dup2\n      mstore\n        /* \"contracts/NFTMain.sol\":4145:4161  ownerToOperators */\n      0x04\n        /* \"contracts/NFTMain.sol\":4145:4173  ownerToOperators[tokenOwner] */\n      0x20\n      swap1\n      dup2\n      mstore\n      0x40\n      dup1\n      dup4\n      keccak256\n        /* \"contracts/NFTMain.sol\":4174:4184  msg.sender */\n      caller\n        /* \"contracts/NFTMain.sol\":4145:4185  ownerToOperators[tokenOwner][msg.sender] */\n      dup5\n      mstore\n      swap1\n      swap2\n      mstore\n      swap1\n      keccak256\n      sload\n      0xff\n      and\n        /* \"contracts/NFTMain.sol\":4051:4185  tokenOwner == msg.sender\r... */\n    tag_380:\n        /* \"contracts/NFTMain.sol\":4029:4216  require(\r... */\n      tag_381\n      jumpi\n      mload(0x40)\n      shl(0xe5, 0x461bcd)\n      dup2\n      mstore\n        /* \"#utility.yul\":15234:15236   */\n      0x20\n        /* \"contracts/NFTMain.sol\":4029:4216  require(\r... */\n      0x04\n      dup3\n      add\n        /* \"#utility.yul\":15216:15237   */\n      mstore\n        /* \"#utility.yul\":15273:15275   */\n      0x10\n        /* \"#utility.yul\":15253:15271   */\n      0x24\n      dup3\n      add\n        /* \"#utility.yul\":15246:15276   */\n      mstore\n      shl(0x81, 0x21b0b73737ba103a3930b739b332b917)\n        /* \"#utility.yul\":15292:15310   */\n      0x44\n      dup3\n      add\n        /* \"#utility.yul\":15285:15331   */\n      mstore\n        /* \"#utility.yul\":15348:15366   */\n      0x64\n      add\n        /* \"contracts/NFTMain.sol\":4029:4216  require(\r... */\n      tag_287\n        /* \"#utility.yul\":15032:15372   */\n      jump\n        /* \"contracts/NFTMain.sol\":4029:4216  require(\r... */\n    tag_381:\n        /* \"contracts/NFTMain.sol\":4334:4335  0 */\n      0x00\n        /* \"contracts/NFTMain.sol\":4303:4322  idToOwner[_tokenId] */\n      dup4\n      dup2\n      mstore\n        /* \"contracts/NFTMain.sol\":4303:4312  idToOwner */\n      0x02\n        /* \"contracts/NFTMain.sol\":4303:4322  idToOwner[_tokenId] */\n      0x20\n      mstore\n      0x40\n      swap1\n      keccak256\n      sload\n        /* \"contracts/NFTMain.sol\":5925:5933  _tokenId */\n      dup4\n      swap1\n      sub(shl(0xa0, 0x01), 0x01)\n        /* \"contracts/NFTMain.sol\":4303:4322  idToOwner[_tokenId] */\n      and\n        /* \"contracts/NFTMain.sol\":4295:4355  require(idToOwner[_tokenId] != address(0), \"Invalid token.\") */\n      tag_385\n      jumpi\n      mload(0x40)\n      shl(0xe5, 0x461bcd)\n      dup2\n      mstore\n      0x04\n      add\n      tag_287\n      swap1\n      tag_300\n      jump\t// in\n    tag_385:\n        /* \"contracts/NFTMain.sol\":5946:5964  address tokenOwner */\n      0x00\n        /* \"contracts/NFTMain.sol\":5967:5986  idToOwner[_tokenId] */\n      dup5\n      dup2\n      mstore\n        /* \"contracts/NFTMain.sol\":5967:5976  idToOwner */\n      0x02\n        /* \"contracts/NFTMain.sol\":5967:5986  idToOwner[_tokenId] */\n      0x20\n      mstore\n      0x40\n      swap1\n      keccak256\n      sload\n      sub(shl(0xa0, 0x01), 0x01)\n      swap1\n      dup2\n      and\n      swap1\n        /* \"contracts/NFTMain.sol\":6005:6024  tokenOwner == _from */\n      dup8\n      and\n      dup2\n      eq\n        /* \"contracts/NFTMain.sol\":5997:6048  require(tokenOwner == _from, \"Wrong from address.\") */\n      tag_388\n      jumpi\n      mload(0x40)\n      shl(0xe5, 0x461bcd)\n      dup2\n      mstore\n        /* \"#utility.yul\":16642:16644   */\n      0x20\n        /* \"contracts/NFTMain.sol\":5997:6048  require(tokenOwner == _from, \"Wrong from address.\") */\n      0x04\n      dup3\n      add\n        /* \"#utility.yul\":16624:16645   */\n      mstore\n        /* \"#utility.yul\":16681:16683   */\n      0x13\n        /* \"#utility.yul\":16661:16679   */\n      0x24\n      dup3\n      add\n        /* \"#utility.yul\":16654:16684   */\n      mstore\n      shl(0x69, 0x2bb937b73390333937b69030b2323932b9b997)\n        /* \"#utility.yul\":16700:16718   */\n      0x44\n      dup3\n      add\n        /* \"#utility.yul\":16693:16742   */\n      mstore\n        /* \"#utility.yul\":16759:16777   */\n      0x64\n      add\n        /* \"contracts/NFTMain.sol\":5997:6048  require(tokenOwner == _from, \"Wrong from address.\") */\n      tag_287\n        /* \"#utility.yul\":16440:16783   */\n      jump\n        /* \"contracts/NFTMain.sol\":5997:6048  require(tokenOwner == _from, \"Wrong from address.\") */\n    tag_388:\n      sub(shl(0xa0, 0x01), 0x01)\n        /* \"contracts/NFTMain.sol\":6067:6084  _to != address(0) */\n      dup7\n      and\n        /* \"contracts/NFTMain.sol\":6059:6108  require(_to != address(0), \"Cannot send to 0x0.\") */\n      tag_390\n      jumpi\n      mload(0x40)\n      shl(0xe5, 0x461bcd)\n      dup2\n      mstore\n        /* \"#utility.yul\":19633:19635   */\n      0x20\n        /* \"contracts/NFTMain.sol\":6059:6108  require(_to != address(0), \"Cannot send to 0x0.\") */\n      0x04\n      dup3\n      add\n        /* \"#utility.yul\":19615:19636   */\n      mstore\n        /* \"#utility.yul\":19672:19674   */\n      0x13\n        /* \"#utility.yul\":19652:19670   */\n      0x24\n      dup3\n      add\n        /* \"#utility.yul\":19645:19675   */\n      mstore\n      shl(0x69, 0x21b0b73737ba1039b2b732103a3790183c1817)\n        /* \"#utility.yul\":19691:19709   */\n      0x44\n      dup3\n      add\n        /* \"#utility.yul\":19684:19733   */\n      mstore\n        /* \"#utility.yul\":19750:19768   */\n      0x64\n      add\n        /* \"contracts/NFTMain.sol\":6059:6108  require(_to != address(0), \"Cannot send to 0x0.\") */\n      tag_287\n        /* \"#utility.yul\":19431:19774   */\n      jump\n        /* \"contracts/NFTMain.sol\":6059:6108  require(_to != address(0), \"Cannot send to 0x0.\") */\n    tag_390:\n        /* \"contracts/NFTMain.sol\":6119:6143  _transfer(_to, _tokenId) */\n      tag_392\n        /* \"contracts/NFTMain.sol\":6129:6132  _to */\n      dup7\n        /* \"contracts/NFTMain.sol\":6134:6142  _tokenId */\n      dup7\n        /* \"contracts/NFTMain.sol\":6119:6128  _transfer */\n      tag_377\n        /* \"contracts/NFTMain.sol\":6119:6143  _transfer(_to, _tokenId) */\n      jump\t// in\n    tag_392:\n        /* \"contracts/NFTMain.sol\":5935:6151  {\r... */\n      pop\n        /* \"contracts/NFTMain.sol\":4227:4228  _ */\n      pop\n        /* \"contracts/NFTMain.sol\":3967:4236  {\r... */\n      pop\n        /* \"contracts/NFTMain.sol\":5804:6151  function transferFrom(address _from, address _to, uint256 _tokenId) external override canTransfer(_tokenId) validNFToken(_tokenId) {\r... */\n      pop\n      pop\n      pop\n      pop\n      jump\t// out\n        /* \"contracts/NFTMain.sol\":9592:10405  function publicMint (uint256 numberOfNfts) external payable reentrancyGuard {\r... */\n    tag_130:\n        /* \"contracts/NFTMain.sol\":3561:3575  reentrancyLock */\n      and(0xff, sload(0x4e36))\n        /* \"contracts/NFTMain.sol\":3557:3612  if (reentrancyLock) {\r... */\n      iszero\n      tag_394\n      jumpi\n        /* \"contracts/NFTMain.sol\":3592:3600  revert() */\n      0x00\n      dup1\n      revert\n        /* \"contracts/NFTMain.sol\":3557:3612  if (reentrancyLock) {\r... */\n    tag_394:\n        /* \"contracts/NFTMain.sol\":3622:3636  reentrancyLock */\n      0x4e36\n        /* \"contracts/NFTMain.sol\":3622:3643  reentrancyLock = true */\n      dup1\n      sload\n      not(0xff)\n      and\n        /* \"contracts/NFTMain.sol\":3639:3643  true */\n      0x01\n        /* \"contracts/NFTMain.sol\":3622:3643  reentrancyLock = true */\n      or\n      swap1\n      sstore\n        /* \"contracts/NFTMain.sol\":9687:9697  publicSale */\n      sload(0x0f)\n      shl(0xa0, 0x01)\n      swap1\n      div\n        /* \"contracts/NFTMain.sol\":3622:3643  reentrancyLock = true */\n      0xff\n        /* \"contracts/NFTMain.sol\":9687:9697  publicSale */\n      and\n        /* \"contracts/NFTMain.sol\":9679:9719  require(publicSale, \"Sale not started.\") */\n      tag_396\n      jumpi\n      mload(0x40)\n      shl(0xe5, 0x461bcd)\n      dup2\n      mstore\n        /* \"#utility.yul\":12388:12390   */\n      0x20\n        /* \"contracts/NFTMain.sol\":9679:9719  require(publicSale, \"Sale not started.\") */\n      0x04\n      dup3\n      add\n        /* \"#utility.yul\":12370:12391   */\n      mstore\n        /* \"#utility.yul\":12427:12429   */\n      0x11\n        /* \"#utility.yul\":12407:12425   */\n      0x24\n      dup3\n      add\n        /* \"#utility.yul\":12400:12430   */\n      mstore\n      shl(0x79, 0x29b0b632903737ba1039ba30b93a32b217)\n        /* \"#utility.yul\":12446:12464   */\n      0x44\n      dup3\n      add\n        /* \"#utility.yul\":12439:12486   */\n      mstore\n        /* \"#utility.yul\":12503:12521   */\n      0x64\n      add\n        /* \"contracts/NFTMain.sol\":9679:9719  require(publicSale, \"Sale not started.\") */\n      tag_287\n        /* \"#utility.yul\":12186:12527   */\n      jump\n        /* \"contracts/NFTMain.sol\":9679:9719  require(publicSale, \"Sale not started.\") */\n    tag_396:\n        /* \"contracts/NFTMain.sol\":9754:9756  20 */\n      0x14\n        /* \"contracts/NFTMain.sol\":9738:9750  numberOfNfts */\n      dup2\n        /* \"contracts/NFTMain.sol\":9738:9756  numberOfNfts <= 20 */\n      gt\n      iszero\n        /* \"contracts/NFTMain.sol\":9730:9802  require(numberOfNfts <= 20, \"You can not buy more than 20 NFTs at once\") */\n      tag_398\n      jumpi\n      mload(0x40)\n      shl(0xe5, 0x461bcd)\n      dup2\n      mstore\n      0x04\n      add\n      tag_287\n      swap1\n      tag_325\n      jump\t// in\n    tag_398:\n        /* \"contracts/NFTMain.sol\":2429:2434  20000 */\n      0x4e20\n        /* \"contracts/NFTMain.sol\":9821:9852  totalSupply().add(numberOfNfts) */\n      tag_400\n        /* \"contracts/NFTMain.sol\":9839:9851  numberOfNfts */\n      dup3\n        /* \"contracts/NFTMain.sol\":9821:9834  totalSupply() */\n      tag_327\n        /* \"contracts/NFTMain.sol\":13922:13931  numTokens */\n      sload(0x09)\n      swap1\n        /* \"contracts/NFTMain.sol\":13851:13939  function totalSupply() public view returns (uint256) {\r... */\n      jump\n        /* \"contracts/NFTMain.sol\":9821:9852  totalSupply().add(numberOfNfts) */\n    tag_400:\n        /* \"contracts/NFTMain.sol\":9821:9867  totalSupply().add(numberOfNfts) <= TOKEN_LIMIT */\n      gt\n      iszero\n        /* \"contracts/NFTMain.sol\":9813:9891  require(totalSupply().add(numberOfNfts) <= TOKEN_LIMIT, \"Exceeds TOKEN_LIMIT\") */\n      tag_402\n      jumpi\n      mload(0x40)\n      shl(0xe5, 0x461bcd)\n      dup2\n      mstore\n        /* \"#utility.yul\":12734:12736   */\n      0x20\n        /* \"contracts/NFTMain.sol\":9813:9891  require(totalSupply().add(numberOfNfts) <= TOKEN_LIMIT, \"Exceeds TOKEN_LIMIT\") */\n      0x04\n      dup3\n      add\n        /* \"#utility.yul\":12716:12737   */\n      mstore\n        /* \"#utility.yul\":12773:12775   */\n      0x13\n        /* \"#utility.yul\":12753:12771   */\n      0x24\n      dup3\n      add\n        /* \"#utility.yul\":12746:12776   */\n      mstore\n      shl(0x6a, 0x115e18d959591cc81513d2d15397d312535255)\n        /* \"#utility.yul\":12792:12810   */\n      0x44\n      dup3\n      add\n        /* \"#utility.yul\":12785:12834   */\n      mstore\n        /* \"#utility.yul\":12851:12869   */\n      0x64\n      add\n        /* \"contracts/NFTMain.sol\":9813:9891  require(totalSupply().add(numberOfNfts) <= TOKEN_LIMIT, \"Exceeds TOKEN_LIMIT\") */\n      tag_287\n        /* \"#utility.yul\":12532:12875   */\n      jump\n        /* \"contracts/NFTMain.sol\":9813:9891  require(totalSupply().add(numberOfNfts) <= TOKEN_LIMIT, \"Exceeds TOKEN_LIMIT\") */\n    tag_402:\n        /* \"contracts/NFTMain.sol\":9910:9928  remainderOfPrimary */\n      sload(0x0b)\n        /* \"contracts/NFTMain.sol\":9950:9951  0 */\n      0x00\n      swap1\n        /* \"contracts/NFTMain.sol\":9910:9946  remainderOfPrimary.sub(numberOfNfts) */\n      tag_404\n      swap1\n        /* \"contracts/NFTMain.sol\":9933:9945  numberOfNfts */\n      dup4\n        /* \"contracts/NFTMain.sol\":9910:9932  remainderOfPrimary.sub */\n      tag_333\n        /* \"contracts/NFTMain.sol\":9910:9946  remainderOfPrimary.sub(numberOfNfts) */\n      jump\t// in\n    tag_404:\n        /* \"contracts/NFTMain.sol\":9910:9951  remainderOfPrimary.sub(numberOfNfts) >= 0 */\n      lt\n      iszero\n        /* \"contracts/NFTMain.sol\":9902:10000  require(remainderOfPrimary.sub(numberOfNfts) >= 0, \"Exceeds remaining primary sale of MATIC sale\") */\n      tag_405\n      jumpi\n      mload(0x40)\n      shl(0xe5, 0x461bcd)\n      dup2\n      mstore\n      0x04\n      add\n      tag_287\n      swap1\n      tag_336\n      jump\t// in\n    tag_405:\n        /* \"contracts/NFTMain.sol\":10019:10028  mintPrice */\n      sload(0x10)\n        /* \"contracts/NFTMain.sol\":10050:10059  msg.value */\n      callvalue\n      swap1\n        /* \"contracts/NFTMain.sol\":10019:10046  mintPrice.mul(numberOfNfts) */\n      tag_407\n      swap1\n        /* \"contracts/NFTMain.sol\":10033:10045  numberOfNfts */\n      dup4\n        /* \"contracts/NFTMain.sol\":10019:10032  mintPrice.mul */\n      tag_339\n        /* \"contracts/NFTMain.sol\":10019:10046  mintPrice.mul(numberOfNfts) */\n      jump\t// in\n    tag_407:\n        /* \"contracts/NFTMain.sol\":10019:10059  mintPrice.mul(numberOfNfts) == msg.value */\n      eq\n        /* \"contracts/NFTMain.sol\":10011:10095  require(mintPrice.mul(numberOfNfts) == msg.value, \"MATIC value sent is not correct\") */\n      tag_408\n      jumpi\n      mload(0x40)\n      shl(0xe5, 0x461bcd)\n      dup2\n      mstore\n        /* \"#utility.yul\":16990:16992   */\n      0x20\n        /* \"contracts/NFTMain.sol\":10011:10095  require(mintPrice.mul(numberOfNfts) == msg.value, \"MATIC value sent is not correct\") */\n      0x04\n      dup3\n      add\n        /* \"#utility.yul\":16972:16993   */\n      mstore\n        /* \"#utility.yul\":17029:17031   */\n      0x1f\n        /* \"#utility.yul\":17009:17027   */\n      0x24\n      dup3\n      add\n        /* \"#utility.yul\":17002:17032   */\n      mstore\n        /* \"#utility.yul\":17068:17101   */\n      0x4d415449432076616c75652073656e74206973206e6f7420636f727265637400\n        /* \"#utility.yul\":17048:17066   */\n      0x44\n      dup3\n      add\n        /* \"#utility.yul\":17041:17102   */\n      mstore\n        /* \"#utility.yul\":17119:17137   */\n      0x64\n      add\n        /* \"contracts/NFTMain.sol\":10011:10095  require(mintPrice.mul(numberOfNfts) == msg.value, \"MATIC value sent is not correct\") */\n      tag_287\n        /* \"#utility.yul\":16788:17143   */\n      jump\n        /* \"contracts/NFTMain.sol\":10011:10095  require(mintPrice.mul(numberOfNfts) == msg.value, \"MATIC value sent is not correct\") */\n    tag_408:\n        /* \"contracts/NFTMain.sol\":10118:10126  marketer */\n      and(sub(shl(0xa0, 0x01), 0x01), sload(0x0e))\n        /* \"contracts/NFTMain.sol\":10118:10153  marketer.transfer(msg.value.div(2)) */\n      0x08fc\n        /* \"contracts/NFTMain.sol\":10136:10152  msg.value.div(2) */\n      tag_411\n        /* \"contracts/NFTMain.sol\":10136:10145  msg.value */\n      callvalue\n        /* \"contracts/NFTMain.sol\":10150:10151  2 */\n      0x02\n        /* \"contracts/NFTMain.sol\":10136:10149  msg.value.div */\n      tag_412\n        /* \"contracts/NFTMain.sol\":10136:10152  msg.value.div(2) */\n      jump\t// in\n    tag_411:\n        /* \"contracts/NFTMain.sol\":10118:10153  marketer.transfer(msg.value.div(2)) */\n      mload(0x40)\n      dup2\n      iszero\n      swap1\n      swap3\n      mul\n      swap2\n      0x00\n      dup2\n      dup2\n      dup2\n      dup6\n      dup9\n      dup9\n      call\n      swap4\n      pop\n      pop\n      pop\n      pop\n      iszero\n      dup1\n      iszero\n      tag_414\n      jumpi\n      returndatasize\n      0x00\n      dup1\n      returndatacopy\n      revert(0x00, returndatasize)\n    tag_414:\n      pop\n        /* \"contracts/NFTMain.sol\":10164:10173  developer */\n      and(sub(shl(0xa0, 0x01), 0x01), sload(0x0f))\n        /* \"contracts/NFTMain.sol\":10164:10200  developer.transfer(msg.value.div(2)) */\n      0x08fc\n        /* \"contracts/NFTMain.sol\":10183:10199  msg.value.div(2) */\n      tag_415\n        /* \"contracts/NFTMain.sol\":10183:10192  msg.value */\n      callvalue\n        /* \"contracts/NFTMain.sol\":10197:10198  2 */\n      0x02\n        /* \"contracts/NFTMain.sol\":10183:10196  msg.value.div */\n      tag_412\n        /* \"contracts/NFTMain.sol\":10183:10199  msg.value.div(2) */\n      jump\t// in\n    tag_415:\n        /* \"contracts/NFTMain.sol\":10164:10200  developer.transfer(msg.value.div(2)) */\n      mload(0x40)\n      dup2\n      iszero\n      swap1\n      swap3\n      mul\n      swap2\n      0x00\n      dup2\n      dup2\n      dup2\n      dup6\n      dup9\n      dup9\n      call\n      swap4\n      pop\n      pop\n      pop\n      pop\n      iszero\n      dup1\n      iszero\n      tag_417\n      jumpi\n      returndatasize\n      0x00\n      dup1\n      returndatacopy\n      revert(0x00, returndatasize)\n    tag_417:\n      pop\n        /* \"contracts/NFTMain.sol\":10226:10232  uint i */\n      0x00\n        /* \"contracts/NFTMain.sol\":10221:10388  for (uint i = 0; i < numberOfNfts; i++) {\r... */\n    tag_418:\n        /* \"contracts/NFTMain.sol\":10242:10254  numberOfNfts */\n      dup2\n        /* \"contracts/NFTMain.sol\":10238:10239  i */\n      dup2\n        /* \"contracts/NFTMain.sol\":10238:10254  i < numberOfNfts */\n      lt\n        /* \"contracts/NFTMain.sol\":10221:10388  for (uint i = 0; i < numberOfNfts; i++) {\r... */\n      iszero\n      tag_342\n      jumpi\n        /* \"contracts/NFTMain.sol\":10276:10284  numSales */\n      0x0a\n        /* \"contracts/NFTMain.sol\":10276:10286  numSales++ */\n      dup1\n      sload\n      swap1\n        /* \"contracts/NFTMain.sol\":10276:10284  numSales */\n      0x00\n        /* \"contracts/NFTMain.sol\":10276:10286  numSales++ */\n      tag_421\n      dup4\n      tag_345\n      jump\t// in\n    tag_421:\n      swap2\n      swap1\n      pop\n      sstore\n      pop\n        /* \"contracts/NFTMain.sol\":10343:10344  1 */\n      0x01\n        /* \"contracts/NFTMain.sol\":10322:10340  remainderOfPrimary */\n      sload(0x0b)\n        /* \"contracts/NFTMain.sol\":10322:10344  remainderOfPrimary - 1 */\n      tag_422\n      swap2\n      swap1\n      tag_347\n      jump\t// in\n    tag_422:\n        /* \"contracts/NFTMain.sol\":10301:10319  remainderOfPrimary */\n      0x0b\n        /* \"contracts/NFTMain.sol\":10301:10344  remainderOfPrimary = remainderOfPrimary - 1 */\n      sstore\n        /* \"contracts/NFTMain.sol\":10359:10376  _mint(msg.sender) */\n      tag_423\n        /* \"contracts/NFTMain.sol\":10365:10375  msg.sender */\n      caller\n        /* \"contracts/NFTMain.sol\":10359:10364  _mint */\n      tag_349\n        /* \"contracts/NFTMain.sol\":10359:10376  _mint(msg.sender) */\n      jump\t// in\n    tag_423:\n      pop\n        /* \"contracts/NFTMain.sol\":10256:10259  i++ */\n      dup1\n      tag_424\n      dup2\n      tag_345\n      jump\t// in\n    tag_424:\n      swap2\n      pop\n      pop\n        /* \"contracts/NFTMain.sol\":10221:10388  for (uint i = 0; i < numberOfNfts; i++) {\r... */\n      jump(tag_418)\n        /* \"contracts/NFTMain.sol\":14110:14309  function tokenOfOwnerByIndex(address _owner, uint256 _index) external view returns (uint256) {\r... */\n    tag_134:\n      sub(shl(0xa0, 0x01), 0x01)\n        /* \"contracts/NFTMain.sol\":14231:14249  ownerToIds[_owner] */\n      dup3\n      and\n        /* \"contracts/NFTMain.sol\":14194:14201  uint256 */\n      0x00\n        /* \"contracts/NFTMain.sol\":14231:14249  ownerToIds[_owner] */\n      swap1\n      dup2\n      mstore\n        /* \"contracts/NFTMain.sol\":14231:14241  ownerToIds */\n      0x05\n        /* \"contracts/NFTMain.sol\":14231:14249  ownerToIds[_owner] */\n      0x20\n      mstore\n      0x40\n      dup2\n      keccak256\n        /* \"contracts/NFTMain.sol\":14231:14256  ownerToIds[_owner].length */\n      sload\n        /* \"contracts/NFTMain.sol\":14222:14256  _index < ownerToIds[_owner].length */\n      dup3\n      lt\n        /* \"contracts/NFTMain.sol\":14214:14257  require(_index < ownerToIds[_owner].length) */\n      tag_426\n      jumpi\n      0x00\n      dup1\n      revert\n    tag_426:\n      sub(shl(0xa0, 0x01), 0x01)\n        /* \"contracts/NFTMain.sol\":14275:14293  ownerToIds[_owner] */\n      dup4\n      and\n      0x00\n      swap1\n      dup2\n      mstore\n        /* \"contracts/NFTMain.sol\":14275:14285  ownerToIds */\n      0x05\n        /* \"contracts/NFTMain.sol\":14275:14293  ownerToIds[_owner] */\n      0x20\n      mstore\n      0x40\n      swap1\n      keccak256\n        /* \"contracts/NFTMain.sol\":14275:14301  ownerToIds[_owner][_index] */\n      dup1\n      sload\n        /* \"contracts/NFTMain.sol\":14294:14300  _index */\n      dup4\n      swap1\n        /* \"contracts/NFTMain.sol\":14275:14301  ownerToIds[_owner][_index] */\n      dup2\n      lt\n      tag_428\n      jumpi\n      tag_428\n      tag_429\n      jump\t// in\n    tag_428:\n      swap1\n      0x00\n      mstore\n      keccak256(0x00, 0x20)\n      add\n      sload\n        /* \"contracts/NFTMain.sol\":14268:14301  return ownerToIds[_owner][_index] */\n      swap1\n      pop\n        /* \"contracts/NFTMain.sol\":14110:14309  function tokenOfOwnerByIndex(address _owner, uint256 _index) external view returns (uint256) {\r... */\n      swap3\n      swap2\n      pop\n      pop\n      jump\t// out\n        /* \"contracts/NFTMain.sol\":5644:5796  function safeTransferFrom(address _from, address _to, uint256 _tokenId) external override {\r... */\n    tag_143:\n        /* \"contracts/NFTMain.sol\":5745:5788  _safeTransferFrom(_from, _to, _tokenId, \"\") */\n      tag_432\n        /* \"contracts/NFTMain.sol\":5763:5768  _from */\n      dup4\n        /* \"contracts/NFTMain.sol\":5770:5773  _to */\n      dup4\n        /* \"contracts/NFTMain.sol\":5775:5783  _tokenId */\n      dup4\n        /* \"contracts/NFTMain.sol\":5745:5788  _safeTransferFrom(_from, _to, _tokenId, \"\") */\n      mload(0x40)\n      dup1\n      0x20\n      add\n      0x40\n      mstore\n      dup1\n      0x00\n      dup2\n      mstore\n      pop\n        /* \"contracts/NFTMain.sol\":5745:5762  _safeTransferFrom */\n      tag_433\n        /* \"contracts/NFTMain.sol\":5745:5788  _safeTransferFrom(_from, _to, _tokenId, \"\") */\n      jump\t// in\n    tag_432:\n        /* \"contracts/NFTMain.sol\":5644:5796  function safeTransferFrom(address _from, address _to, uint256 _tokenId) external override {\r... */\n      pop\n      pop\n      pop\n      jump\t// out\n        /* \"contracts/NFTMain.sol\":9472:9578  function mintsRemaining() external view returns (uint) {\r... */\n    tag_146:\n        /* \"contracts/NFTMain.sol\":9521:9525  uint */\n      0x00\n        /* \"contracts/NFTMain.sol\":9545:9570  TOKEN_LIMIT.sub(numSales) */\n      tag_435\n        /* \"contracts/NFTMain.sol\":9561:9569  numSales */\n      sload(0x0a)\n        /* \"contracts/NFTMain.sol\":2429:2434  20000 */\n      0x4e20\n        /* \"contracts/NFTMain.sol\":9545:9560  TOKEN_LIMIT.sub */\n      tag_333\n      swap1\n        /* \"contracts/NFTMain.sol\":9545:9570  TOKEN_LIMIT.sub(numSales) */\n      swap2\n      swap1\n      0xffffffff\n      and\n      jump\t// in\n    tag_435:\n        /* \"contracts/NFTMain.sol\":9538:9570  return TOKEN_LIMIT.sub(numSales) */\n      swap1\n      pop\n        /* \"contracts/NFTMain.sol\":9472:9578  function mintsRemaining() external view returns (uint) {\r... */\n      swap1\n      jump\t// out\n        /* \"contracts/NFTMain.sol\":16653:17131  function removeListing (uint256 _tokenId) public {\r... */\n    tag_151:\n        /* \"contracts/NFTMain.sol\":16721:16733  marketStatus */\n      sload(0x4e3a)\n      shl(0xa0, 0x01)\n      swap1\n      div\n      0xff\n      and\n        /* \"contracts/NFTMain.sol\":16713:16756  require(marketStatus, \"Market not started\") */\n      tag_437\n      jumpi\n      mload(0x40)\n      shl(0xe5, 0x461bcd)\n      dup2\n      mstore\n      0x04\n      add\n      tag_287\n      swap1\n      tag_439\n      jump\t// in\n    tag_437:\n        /* \"@openzeppelin/contracts/utils/Context.sol\":719:729  msg.sender */\n      caller\n        /* \"contracts/NFTMain.sol\":16775:16792  ownerOf(_tokenId) */\n      tag_441\n        /* \"contracts/NFTMain.sol\":16783:16791  _tokenId */\n      dup3\n        /* \"contracts/NFTMain.sol\":16775:16782  ownerOf */\n      tag_164\n        /* \"contracts/NFTMain.sol\":16775:16792  ownerOf(_tokenId) */\n      jump\t// in\n    tag_441:\n      sub(shl(0xa0, 0x01), 0x01)\n        /* \"contracts/NFTMain.sol\":16775:16808  ownerOf(_tokenId) == _msgSender() */\n      and\n      eq\n        /* \"contracts/NFTMain.sol\":16767:16847  require(ownerOf(_tokenId) == _msgSender(), \"You are not the owner of the token\") */\n      tag_442\n      jumpi\n      mload(0x40)\n      shl(0xe5, 0x461bcd)\n      dup2\n      mstore\n      0x04\n      add\n      tag_287\n      swap1\n      tag_444\n      jump\t// in\n    tag_442:\n        /* \"contracts/NFTMain.sol\":16875:16907  listing(false, address(0), 0, 0) */\n      0x40\n      dup1\n      mload\n      0x80\n      dup2\n      add\n      dup3\n      mstore\n      0x00\n      dup1\n      dup3\n      mstore\n      0x20\n      dup1\n      dup4\n      add\n      dup3\n      dup2\n      mstore\n      dup4\n      dup6\n      add\n      dup4\n      dup2\n      mstore\n      0x60\n      dup6\n      add\n      dup5\n      dup2\n      mstore\n        /* \"contracts/NFTMain.sol\":16858:16872  list[_tokenId] */\n      dup8\n      dup6\n      mstore\n        /* \"contracts/NFTMain.sol\":16858:16862  list */\n      0x4e37\n        /* \"contracts/NFTMain.sol\":16858:16872  list[_tokenId] */\n      swap1\n      swap4\n      mstore\n      swap3\n      dup6\n      swap1\n      keccak256\n        /* \"contracts/NFTMain.sol\":16858:16907  list[_tokenId] = listing(false, address(0), 0, 0) */\n      swap4\n      mload\n      dup5\n      sload\n      swap2\n      mload\n      sub(shl(0xa0, 0x01), 0x01)\n      and\n      0x0100\n      mul\n      not(sub(shl(0xa8, 0x01), 0x0100))\n      swap2\n      iszero\n      iszero\n      swap2\n      swap1\n      swap2\n      and\n      not(sub(shl(0xa8, 0x01), 0x01))\n      swap1\n      swap3\n      and\n      swap2\n      swap1\n      swap2\n      or\n      or\n      dup4\n      sstore\n      swap1\n      mload\n        /* \"contracts/NFTMain.sol\":16875:16907  listing(false, address(0), 0, 0) */\n      0x01\n        /* \"contracts/NFTMain.sol\":16858:16907  list[_tokenId] = listing(false, address(0), 0, 0) */\n      dup4\n      add\n      sstore\n      mload\n      0x02\n      swap1\n      swap2\n      add\n      sstore\n        /* \"contracts/NFTMain.sol\":16923:16947  listingRemoved(_tokenId) */\n      mload\n      0x76915038033fd095a1c41c63de78ca96195fdeb0013ce2bfe4fbc0afe4b0b187\n      swap1\n      tag_445\n      swap1\n        /* \"contracts/NFTMain.sol\":16863:16871  _tokenId */\n      dup4\n        /* \"#utility.yul\":20684:20709   */\n      dup2\n      mstore\n        /* \"#utility.yul\":20672:20674   */\n      0x20\n        /* \"#utility.yul\":20657:20675   */\n      add\n      swap1\n        /* \"#utility.yul\":20538:20715   */\n      jump\n        /* \"contracts/NFTMain.sol\":16923:16947  listingRemoved(_tokenId) */\n    tag_445:\n      mload(0x40)\n      dup1\n      swap2\n      sub\n      swap1\n      log1\n        /* \"contracts/NFTMain.sol\":16963:16972  uint256 i */\n      0x00\n        /* \"contracts/NFTMain.sol\":16958:17124  for( uint256 i = 0; i < nftList.length; i++){                              \r... */\n    tag_446:\n        /* \"contracts/NFTMain.sol\":16982:16989  nftList */\n      0x4e3b\n        /* \"contracts/NFTMain.sol\":16982:16996  nftList.length */\n      sload\n        /* \"contracts/NFTMain.sol\":16978:16996  i < nftList.length */\n      dup2\n      lt\n        /* \"contracts/NFTMain.sol\":16958:17124  for( uint256 i = 0; i < nftList.length; i++){                              \r... */\n      iszero\n      tag_447\n      jumpi\n        /* \"contracts/NFTMain.sol\":17062:17070  _tokenId */\n      dup2\n        /* \"contracts/NFTMain.sol\":17048:17055  nftList */\n      0x4e3b\n        /* \"contracts/NFTMain.sol\":17056:17057  i */\n      dup3\n        /* \"contracts/NFTMain.sol\":17048:17058  nftList[i] */\n      dup2\n      sload\n      dup2\n      lt\n      tag_450\n      jumpi\n      tag_450\n      tag_429\n      jump\t// in\n    tag_450:\n      swap1\n      0x00\n      mstore\n      keccak256(0x00, 0x20)\n      add\n      sload\n        /* \"contracts/NFTMain.sol\":17048:17070  nftList[i] == _tokenId */\n      eq\n        /* \"contracts/NFTMain.sol\":17043:17117  if ( nftList[i] == _tokenId) { \r... */\n      iszero\n      tag_452\n      jumpi\n        /* \"contracts/NFTMain.sol\":17095:17102  nftList */\n      0x4e3b\n        /* \"contracts/NFTMain.sol\":17103:17104  i */\n      dup2\n        /* \"contracts/NFTMain.sol\":17095:17105  nftList[i] */\n      dup2\n      sload\n      dup2\n      lt\n      tag_454\n      jumpi\n      tag_454\n      tag_429\n      jump\t// in\n    tag_454:\n      0x00\n      swap2\n      dup3\n      mstore\n      0x20\n      dup3\n      keccak256\n      add\n        /* \"contracts/NFTMain.sol\":17088:17105  delete nftList[i] */\n      sstore\n        /* \"contracts/NFTMain.sol\":17043:17117  if ( nftList[i] == _tokenId) { \r... */\n    tag_452:\n        /* \"contracts/NFTMain.sol\":16998:17001  i++ */\n      dup1\n      tag_456\n      dup2\n      tag_345\n      jump\t// in\n    tag_456:\n      swap2\n      pop\n      pop\n        /* \"contracts/NFTMain.sol\":16958:17124  for( uint256 i = 0; i < nftList.length; i++){                              \r... */\n      jump(tag_446)\n    tag_447:\n      pop\n        /* \"contracts/NFTMain.sol\":16653:17131  function removeListing (uint256 _tokenId) public {\r... */\n      pop\n      jump\t// out\n        /* \"contracts/NFTMain.sol\":13947:14102  function tokenByIndex(uint256 index) public pure returns (uint256) {\r... */\n    tag_159:\n        /* \"contracts/NFTMain.sol\":14005:14012  uint256 */\n      0x00\n        /* \"contracts/NFTMain.sol\":2429:2434  20000 */\n      0x4e20\n        /* \"contracts/NFTMain.sol\":14047:14052  index */\n      dup3\n        /* \"contracts/NFTMain.sol\":14047:14066  index < TOKEN_LIMIT */\n      lt\n        /* \"contracts/NFTMain.sol\":14025:14067  require(index >= 0 && index < TOKEN_LIMIT) */\n      tag_459\n      jumpi\n      0x00\n      dup1\n      revert\n    tag_459:\n        /* \"contracts/NFTMain.sol\":14085:14094  index + 1 */\n      tag_312\n        /* \"contracts/NFTMain.sol\":14085:14090  index */\n      dup3\n        /* \"contracts/NFTMain.sol\":14093:14094  1 */\n      0x01\n        /* \"contracts/NFTMain.sol\":14085:14094  index + 1 */\n      tag_461\n      jump\t// in\n        /* \"contracts/NFTMain.sol\":7455:7636  function ownerOf(uint256 _tokenId) public view override returns (address _owner) {\r... */\n    tag_164:\n        /* \"contracts/NFTMain.sol\":7520:7534  address _owner */\n      0x00\n        /* \"contracts/NFTMain.sol\":7555:7574  idToOwner[_tokenId] */\n      dup2\n      dup2\n      mstore\n        /* \"contracts/NFTMain.sol\":7555:7564  idToOwner */\n      0x02\n        /* \"contracts/NFTMain.sol\":7555:7574  idToOwner[_tokenId] */\n      0x20\n      mstore\n      0x40\n      dup2\n      keccak256\n      sload\n      sub(shl(0xa0, 0x01), 0x01)\n      and\n        /* \"contracts/NFTMain.sol\":7547:7589  require(idToOwner[_tokenId] != address(0)) */\n      tag_463\n      jumpi\n      0x00\n      dup1\n      revert\n    tag_463:\n      pop\n        /* \"contracts/NFTMain.sol\":7609:7628  idToOwner[_tokenId] */\n      0x00\n      swap1\n      dup2\n      mstore\n        /* \"contracts/NFTMain.sol\":7609:7618  idToOwner */\n      0x02\n        /* \"contracts/NFTMain.sol\":7609:7628  idToOwner[_tokenId] */\n      0x20\n      mstore\n      0x40\n      swap1\n      keccak256\n      sload\n      sub(shl(0xa0, 0x01), 0x01)\n      and\n      swap1\n        /* \"contracts/NFTMain.sol\":7455:7636  function ownerOf(uint256 _tokenId) public view override returns (address _owner) {\r... */\n      jump\t// out\n        /* \"contracts/NFTMain.sol\":19738:19833  function setFee (uint256 _newBaseFee) public onlyOwner {\r... */\n    tag_169:\n        /* \"@openzeppelin/contracts/access/Ownable.sol\":1082:1089  address */\n      0x00\n        /* \"@openzeppelin/contracts/access/Ownable.sol\":1108:1114  _owner */\n      sload\n      sub(shl(0xa0, 0x01), 0x01)\n      and\n        /* \"@openzeppelin/contracts/utils/Context.sol\":719:729  msg.sender */\n      caller\n        /* \"@openzeppelin/contracts/access/Ownable.sol\":1248:1271  owner() == _msgSender() */\n      eq\n        /* \"@openzeppelin/contracts/access/Ownable.sol\":1240:1308  require(owner() == _msgSender(), \"Ownable: caller is not the owner\") */\n      tag_467\n      jumpi\n      mload(0x40)\n      shl(0xe5, 0x461bcd)\n      dup2\n      mstore\n      0x04\n      add\n      tag_287\n      swap1\n      tag_288\n      jump\t// in\n    tag_467:\n        /* \"contracts/NFTMain.sol\":19804:19811  baseFee */\n      0x4e39\n        /* \"contracts/NFTMain.sol\":19804:19825  baseFee = _newBaseFee */\n      sstore\n        /* \"contracts/NFTMain.sol\":19738:19833  function setFee (uint256 _newBaseFee) public onlyOwner {\r... */\n      jump\t// out\n        /* \"contracts/NFTMain.sol\":7280:7447  function balanceOf(address _owner) external view override returns (uint256) {\r... */\n    tag_177:\n        /* \"contracts/NFTMain.sol\":7347:7354  uint256 */\n      0x00\n      sub(shl(0xa0, 0x01), 0x01)\n        /* \"contracts/NFTMain.sol\":7375:7395  _owner != address(0) */\n      dup3\n      and\n        /* \"contracts/NFTMain.sol\":7367:7396  require(_owner != address(0)) */\n      tag_471\n      jumpi\n      0x00\n      dup1\n      revert\n    tag_471:\n      sub(shl(0xa0, 0x01), 0x01)\n        /* \"contracts/NFTMain.sol\":12538:12556  ownerToIds[_owner] */\n      dup3\n      and\n        /* \"contracts/NFTMain.sol\":12511:12518  uint256 */\n      0x00\n        /* \"contracts/NFTMain.sol\":12538:12556  ownerToIds[_owner] */\n      swap1\n      dup2\n      mstore\n        /* \"contracts/NFTMain.sol\":12538:12548  ownerToIds */\n      0x05\n        /* \"contracts/NFTMain.sol\":12538:12556  ownerToIds[_owner] */\n      0x20\n      mstore\n      0x40\n      swap1\n      keccak256\n        /* \"contracts/NFTMain.sol\":12538:12563  ownerToIds[_owner].length */\n      sload\n        /* \"contracts/NFTMain.sol\":7414:7439  _getOwnerNFTCount(_owner) */\n      tag_312\n        /* \"contracts/NFTMain.sol\":12445:12571  function _getOwnerNFTCount(address _owner) internal view returns (uint256) {\r... */\n      jump\n        /* \"@openzeppelin/contracts/access/Ownable.sol\":1668:1769  function renounceOwnership() public virtual onlyOwner {... */\n    tag_181:\n        /* \"@openzeppelin/contracts/access/Ownable.sol\":1082:1089  address */\n      0x00\n        /* \"@openzeppelin/contracts/access/Ownable.sol\":1108:1114  _owner */\n      sload\n      sub(shl(0xa0, 0x01), 0x01)\n      and\n        /* \"@openzeppelin/contracts/utils/Context.sol\":719:729  msg.sender */\n      caller\n        /* \"@openzeppelin/contracts/access/Ownable.sol\":1248:1271  owner() == _msgSender() */\n      eq\n        /* \"@openzeppelin/contracts/access/Ownable.sol\":1240:1308  require(owner() == _msgSender(), \"Ownable: caller is not the owner\") */\n      tag_477\n      jumpi\n      mload(0x40)\n      shl(0xe5, 0x461bcd)\n      dup2\n      mstore\n      0x04\n      add\n      tag_287\n      swap1\n      tag_288\n      jump\t// in\n    tag_477:\n        /* \"@openzeppelin/contracts/access/Ownable.sol\":1732:1762  _transferOwnership(address(0)) */\n      tag_480\n        /* \"@openzeppelin/contracts/access/Ownable.sol\":1759:1760  0 */\n      0x00\n        /* \"@openzeppelin/contracts/access/Ownable.sol\":1732:1750  _transferOwnership */\n      tag_481\n        /* \"@openzeppelin/contracts/access/Ownable.sol\":1732:1762  _transferOwnership(address(0)) */\n      jump\t// in\n    tag_480:\n        /* \"@openzeppelin/contracts/access/Ownable.sol\":1668:1769  function renounceOwnership() public virtual onlyOwner {... */\n      jump\t// out\n        /* \"contracts/NFTMain.sol\":16092:16117  uint256 [] public nftList */\n    tag_185:\n      0x4e3b\n      dup2\n      dup2\n      sload\n      dup2\n      lt\n      tag_482\n      jumpi\n      0x00\n      dup1\n      revert\n    tag_482:\n      0x00\n      swap2\n      dup3\n      mstore\n      0x20\n      swap1\n      swap2\n      keccak256\n      add\n      sload\n      swap1\n      pop\n      dup2\n      jump\t// out\n        /* \"contracts/NFTMain.sol\":14982:15084  function symbol() external view returns (string memory _symbol) {\r... */\n    tag_199:\n        /* \"contracts/NFTMain.sol\":15023:15044  string memory _symbol */\n      0x60\n        /* \"contracts/NFTMain.sol\":15067:15076  nftSymbol */\n      0x08\n        /* \"contracts/NFTMain.sol\":15057:15076  _symbol = nftSymbol */\n      dup1\n      sload\n      tag_291\n      swap1\n      tag_292\n      jump\t// in\n        /* \"contracts/NFTMain.sol\":3317:3338  string public baseUri */\n    tag_203:\n      0x12\n      dup1\n      sload\n      tag_491\n      swap1\n      tag_292\n      jump\t// in\n    tag_491:\n      dup1\n      0x1f\n      add\n      0x20\n      dup1\n      swap2\n      div\n      mul\n      0x20\n      add\n      mload(0x40)\n      swap1\n      dup2\n      add\n      0x40\n      mstore\n      dup1\n      swap3\n      swap2\n      swap1\n      dup2\n      dup2\n      mstore\n      0x20\n      add\n      dup3\n      dup1\n      sload\n      tag_492\n      swap1\n      tag_292\n      jump\t// in\n    tag_492:\n      dup1\n      iszero\n      tag_493\n      jumpi\n      dup1\n      0x1f\n      lt\n      tag_494\n      jumpi\n      0x0100\n      dup1\n      dup4\n      sload\n      div\n      mul\n      dup4\n      mstore\n      swap2\n      0x20\n      add\n      swap2\n      jump(tag_493)\n    tag_494:\n      dup3\n      add\n      swap2\n      swap1\n      0x00\n      mstore\n      keccak256(0x00, 0x20)\n      swap1\n    tag_495:\n      dup2\n      sload\n      dup2\n      mstore\n      swap1\n      0x01\n      add\n      swap1\n      0x20\n      add\n      dup1\n      dup4\n      gt\n      tag_495\n      jumpi\n      dup3\n      swap1\n      sub\n      0x1f\n      and\n      dup3\n      add\n      swap2\n    tag_493:\n      pop\n      pop\n      pop\n      pop\n      pop\n      dup2\n      jump\t// out\n        /* \"contracts/NFTMain.sol\":15278:15369  function setUri (string memory newUri) public onlyOwner {\r... */\n    tag_209:\n        /* \"@openzeppelin/contracts/access/Ownable.sol\":1082:1089  address */\n      0x00\n        /* \"@openzeppelin/contracts/access/Ownable.sol\":1108:1114  _owner */\n      sload\n      sub(shl(0xa0, 0x01), 0x01)\n      and\n        /* \"@openzeppelin/contracts/utils/Context.sol\":719:729  msg.sender */\n      caller\n        /* \"@openzeppelin/contracts/access/Ownable.sol\":1248:1271  owner() == _msgSender() */\n      eq\n        /* \"@openzeppelin/contracts/access/Ownable.sol\":1240:1308  require(owner() == _msgSender(), \"Ownable: caller is not the owner\") */\n      tag_499\n      jumpi\n      mload(0x40)\n      shl(0xe5, 0x461bcd)\n      dup2\n      mstore\n      0x04\n      add\n      tag_287\n      swap1\n      tag_288\n      jump\t// in\n    tag_499:\n        /* \"contracts/NFTMain.sol\":15345:15361  baseUri = newUri */\n      dup1\n      mload\n      tag_447\n      swap1\n        /* \"contracts/NFTMain.sol\":15345:15352  baseUri */\n      0x12\n      swap1\n        /* \"contracts/NFTMain.sol\":15345:15361  baseUri = newUri */\n      0x20\n      dup5\n      add\n      swap1\n      tag_503\n      jump\t// in\n        /* \"contracts/NFTMain.sol\":7058:7272  function setApprovalForAll(address _operator, bool _approved) external override {\r... */\n    tag_214:\n        /* \"contracts/NFTMain.sol\":7166:7176  msg.sender */\n      caller\n        /* \"contracts/NFTMain.sol\":7149:7177  ownerToOperators[msg.sender] */\n      0x00\n      dup2\n      dup2\n      mstore\n        /* \"contracts/NFTMain.sol\":7149:7165  ownerToOperators */\n      0x04\n        /* \"contracts/NFTMain.sol\":7149:7177  ownerToOperators[msg.sender] */\n      0x20\n      swap1\n      dup2\n      mstore\n      0x40\n      dup1\n      dup4\n      keccak256\n      sub(shl(0xa0, 0x01), 0x01)\n        /* \"contracts/NFTMain.sol\":7149:7188  ownerToOperators[msg.sender][_operator] */\n      dup8\n      and\n      dup1\n      dup6\n      mstore\n      swap1\n      dup4\n      mstore\n      swap3\n      dup2\n      swap1\n      keccak256\n        /* \"contracts/NFTMain.sol\":7149:7200  ownerToOperators[msg.sender][_operator] = _approved */\n      dup1\n      sload\n      not(0xff)\n      and\n      dup7\n      iszero\n      iszero\n      swap1\n      dup2\n      or\n      swap1\n      swap2\n      sstore\n        /* \"contracts/NFTMain.sol\":7216:7264  ApprovalForAll(msg.sender, _operator, _approved) */\n      swap1\n      mload\n        /* \"#utility.yul\":9781:9822   */\n      swap1\n      dup2\n      mstore\n        /* \"contracts/NFTMain.sol\":7149:7188  ownerToOperators[msg.sender][_operator] */\n      swap2\n      swap3\n        /* \"contracts/NFTMain.sol\":7166:7176  msg.sender */\n      swap2\n        /* \"contracts/NFTMain.sol\":7216:7264  ApprovalForAll(msg.sender, _operator, _approved) */\n      0x17307eab39ab6107e8899845ad3d59bd9653f200f220920489ca2b5937696c31\n      swap2\n        /* \"#utility.yul\":9754:9772   */\n      add\n        /* \"contracts/NFTMain.sol\":7216:7264  ApprovalForAll(msg.sender, _operator, _approved) */\n      mload(0x40)\n      dup1\n      swap2\n      sub\n      swap1\n      log3\n        /* \"contracts/NFTMain.sol\":7058:7272  function setApprovalForAll(address _operator, bool _approved) external override {\r... */\n      pop\n      pop\n      jump\t// out\n        /* \"contracts/NFTMain.sol\":16223:16645  function createListing (uint256 _price, uint256 _tokenId, uint256 _purchaseTokenId) public {\r... */\n    tag_219:\n        /* \"contracts/NFTMain.sol\":16333:16345  marketStatus */\n      sload(0x4e3a)\n      shl(0xa0, 0x01)\n      swap1\n      div\n      0xff\n      and\n        /* \"contracts/NFTMain.sol\":16325:16368  require(marketStatus, \"Market not started\") */\n      tag_507\n      jumpi\n      mload(0x40)\n      shl(0xe5, 0x461bcd)\n      dup2\n      mstore\n      0x04\n      add\n      tag_287\n      swap1\n      tag_439\n      jump\t// in\n    tag_507:\n        /* \"@openzeppelin/contracts/utils/Context.sol\":719:729  msg.sender */\n      caller\n        /* \"contracts/NFTMain.sol\":16387:16404  ownerOf(_tokenId) */\n      tag_510\n        /* \"contracts/NFTMain.sol\":16395:16403  _tokenId */\n      dup4\n        /* \"contracts/NFTMain.sol\":16387:16394  ownerOf */\n      tag_164\n        /* \"contracts/NFTMain.sol\":16387:16404  ownerOf(_tokenId) */\n      jump\t// in\n    tag_510:\n      sub(shl(0xa0, 0x01), 0x01)\n        /* \"contracts/NFTMain.sol\":16387:16420  ownerOf(_tokenId) == _msgSender() */\n      and\n      eq\n        /* \"contracts/NFTMain.sol\":16379:16459  require(ownerOf(_tokenId) == _msgSender(), \"You are not the owner of the token\") */\n      tag_511\n      jumpi\n      mload(0x40)\n      shl(0xe5, 0x461bcd)\n      dup2\n      mstore\n      0x04\n      add\n      tag_287\n      swap1\n      tag_444\n      jump\t// in\n    tag_511:\n        /* \"contracts/NFTMain.sol\":16487:16538  listing(true, msg.sender, _price, _purchaseTokenId) */\n      0x40\n      dup1\n      mload\n      0x80\n      dup2\n      add\n      dup3\n      mstore\n        /* \"contracts/NFTMain.sol\":16495:16499  true */\n      0x01\n        /* \"contracts/NFTMain.sol\":16487:16538  listing(true, msg.sender, _price, _purchaseTokenId) */\n      dup1\n      dup3\n      mstore\n        /* \"contracts/NFTMain.sol\":16501:16511  msg.sender */\n      caller\n        /* \"contracts/NFTMain.sol\":16487:16538  listing(true, msg.sender, _price, _purchaseTokenId) */\n      0x20\n      dup1\n      dup5\n      add\n      swap2\n      dup3\n      mstore\n      dup4\n      dup6\n      add\n      dup9\n      dup2\n      mstore\n      0x60\n      dup1\n      dup7\n      add\n      dup9\n      dup2\n      mstore\n      0x00\n        /* \"contracts/NFTMain.sol\":16470:16484  list[_tokenId] */\n      dup11\n      dup2\n      mstore\n        /* \"contracts/NFTMain.sol\":16470:16474  list */\n      0x4e37\n        /* \"contracts/NFTMain.sol\":16470:16484  list[_tokenId] */\n      dup6\n      mstore\n      dup9\n      swap1\n      keccak256\n        /* \"contracts/NFTMain.sol\":16470:16538  list[_tokenId] = listing(true, msg.sender, _price, _purchaseTokenId) */\n      swap7\n      mload\n      dup8\n      sload\n      swap6\n      mload\n      not(sub(shl(0xa8, 0x01), 0x01))\n      swap1\n      swap7\n      and\n      swap1\n      iszero\n      iszero\n      not(sub(shl(0xa8, 0x01), 0x0100))\n      and\n      or\n      0x0100\n      sub(shl(0xa0, 0x01), 0x01)\n      swap1\n      swap7\n      and\n      swap6\n      swap1\n      swap6\n      mul\n      swap5\n      swap1\n      swap5\n      or\n      dup7\n      sstore\n      swap1\n      mload\n      swap4\n      dup6\n      add\n      swap4\n      swap1\n      swap4\n      sstore\n      swap1\n      mload\n      0x02\n      swap1\n      swap4\n      add\n      swap3\n      swap1\n      swap3\n      sstore\n        /* \"contracts/NFTMain.sol\":16554:16604  listingCreated(_tokenId, _price, _purchaseTokenId) */\n      dup3\n      mload\n        /* \"#utility.yul\":20922:20947   */\n      dup6\n      dup2\n      mstore\n        /* \"#utility.yul\":20963:20981   */\n      swap2\n      dup3\n      add\n        /* \"#utility.yul\":20956:20990   */\n      dup7\n      swap1\n      mstore\n        /* \"#utility.yul\":21006:21024   */\n      swap2\n      dup2\n      add\n        /* \"#utility.yul\":20999:21033   */\n      dup4\n      swap1\n      mstore\n        /* \"contracts/NFTMain.sol\":16554:16604  listingCreated(_tokenId, _price, _purchaseTokenId) */\n      0xe04275091c8ec0cacfa344ba26fef01e27e1aa9fa1c5211500f11e92ff862e05\n      swap2\n        /* \"#utility.yul\":20895:20913   */\n      add\n        /* \"contracts/NFTMain.sol\":16554:16604  listingCreated(_tokenId, _price, _purchaseTokenId) */\n      mload(0x40)\n      dup1\n      swap2\n      sub\n      swap1\n      log1\n      pop\n        /* \"contracts/NFTMain.sol\":16615:16622  nftList */\n      0x4e3b\n        /* \"contracts/NFTMain.sol\":16615:16637  nftList.push(_tokenId) */\n      dup1\n      sload\n      0x01\n      dup2\n      add\n      dup3\n      sstore\n      0x00\n      swap2\n      swap1\n      swap2\n      mstore\n      0x9c134bf00a5ad545fbf5c27e8f9e91d26ff70c9ea5b8ffb7be9aa840d0537ccf\n      add\n      sstore\n      pop\n        /* \"contracts/NFTMain.sol\":16223:16645  function createListing (uint256 _price, uint256 _tokenId, uint256 _purchaseTokenId) public {\r... */\n      jump\t// out\n        /* \"contracts/NFTMain.sol\":4926:5075  function startSale() external onlyOwner {\r... */\n    tag_222:\n        /* \"@openzeppelin/contracts/access/Ownable.sol\":1082:1089  address */\n      0x00\n        /* \"@openzeppelin/contracts/access/Ownable.sol\":1108:1114  _owner */\n      sload\n      sub(shl(0xa0, 0x01), 0x01)\n      and\n        /* \"@openzeppelin/contracts/utils/Context.sol\":719:729  msg.sender */\n      caller\n        /* \"@openzeppelin/contracts/access/Ownable.sol\":1248:1271  owner() == _msgSender() */\n      eq\n        /* \"@openzeppelin/contracts/access/Ownable.sol\":1240:1308  require(owner() == _msgSender(), \"Ownable: caller is not the owner\") */\n      tag_519\n      jumpi\n      mload(0x40)\n      shl(0xe5, 0x461bcd)\n      dup2\n      mstore\n      0x04\n      add\n      tag_287\n      swap1\n      tag_288\n      jump\t// in\n    tag_519:\n        /* \"contracts/NFTMain.sol\":4986:4996  publicSale */\n      sload(0x0f)\n      shl(0xa0, 0x01)\n      swap1\n      div\n      0xff\n      and\n        /* \"contracts/NFTMain.sol\":4985:4996  !publicSale */\n      iszero\n        /* \"contracts/NFTMain.sol\":4977:4997  require(!publicSale) */\n      tag_522\n      jumpi\n      0x00\n      dup1\n      revert\n    tag_522:\n        /* \"contracts/NFTMain.sol\":5024:5039  block.timestamp */\n      timestamp\n        /* \"contracts/NFTMain.sol\":5008:5021  saleStartTime */\n      0x14\n        /* \"contracts/NFTMain.sol\":5008:5039  saleStartTime = block.timestamp */\n      sstore\n        /* \"contracts/NFTMain.sol\":5050:5060  publicSale */\n      0x0f\n        /* \"contracts/NFTMain.sol\":5050:5067  publicSale = true */\n      dup1\n      sload\n      not(shl(0xa0, 0xff))\n      and\n      shl(0xa0, 0x01)\n      or\n      swap1\n      sstore\n        /* \"contracts/NFTMain.sol\":4926:5075  function startSale() external onlyOwner {\r... */\n      jump\t// out\n        /* \"contracts/NFTMain.sol\":5459:5636  function safeTransferFrom(address _from, address _to, uint256 _tokenId, bytes calldata _data) external override {\r... */\n    tag_227:\n        /* \"contracts/NFTMain.sol\":5582:5628  _safeTransferFrom(_from, _to, _tokenId, _data) */\n      tag_376\n        /* \"contracts/NFTMain.sol\":5600:5605  _from */\n      dup6\n        /* \"contracts/NFTMain.sol\":5607:5610  _to */\n      dup6\n        /* \"contracts/NFTMain.sol\":5612:5620  _tokenId */\n      dup6\n        /* \"contracts/NFTMain.sol\":5622:5627  _data */\n      dup6\n      dup6\n        /* \"contracts/NFTMain.sol\":5582:5628  _safeTransferFrom(_from, _to, _tokenId, _data) */\n      dup1\n      dup1\n      0x1f\n      add\n      0x20\n      dup1\n      swap2\n      div\n      mul\n      0x20\n      add\n      mload(0x40)\n      swap1\n      dup2\n      add\n      0x40\n      mstore\n      dup1\n      swap4\n      swap3\n      swap2\n      swap1\n      dup2\n      dup2\n      mstore\n      0x20\n      add\n      dup4\n      dup4\n      dup1\n      dup3\n      dup5\n      calldatacopy\n      0x00\n      swap3\n      add\n      swap2\n      swap1\n      swap2\n      mstore\n      pop\n        /* \"contracts/NFTMain.sol\":5582:5599  _safeTransferFrom */\n      tag_433\n      swap3\n      pop\n      pop\n      pop\n        /* \"contracts/NFTMain.sol\":5582:5628  _safeTransferFrom(_from, _to, _tokenId, _data) */\n      jump\t// in\n        /* \"contracts/NFTMain.sol\":16126:16215  function getNftAddress()public view returns( uint256  [] memory){\r... */\n    tag_230:\n        /* \"contracts/NFTMain.sol\":16171:16189  uint256  [] memory */\n      0x60\n        /* \"contracts/NFTMain.sol\":16204:16211  nftList */\n      0x4e3b\n        /* \"contracts/NFTMain.sol\":16197:16211  return nftList */\n      dup1\n      sload\n      dup1\n      0x20\n      mul\n      0x20\n      add\n      mload(0x40)\n      swap1\n      dup2\n      add\n      0x40\n      mstore\n      dup1\n      swap3\n      swap2\n      swap1\n      dup2\n      dup2\n      mstore\n      0x20\n      add\n      dup3\n      dup1\n      sload\n      dup1\n      iszero\n      tag_294\n      jumpi\n      0x20\n      mul\n      dup3\n      add\n      swap2\n      swap1\n      0x00\n      mstore\n      keccak256(0x00, 0x20)\n      swap1\n    tag_527:\n      dup2\n      sload\n      dup2\n      mstore\n      0x20\n      add\n      swap1\n      0x01\n      add\n      swap1\n      dup1\n      dup4\n      gt\n      tag_527\n      jumpi\n      pop\n      pop\n      pop\n      pop\n      pop\n      swap1\n      pop\n        /* \"contracts/NFTMain.sol\":16126:16215  function getNftAddress()public view returns( uint256  [] memory){\r... */\n      swap1\n      jump\t// out\n        /* \"contracts/NFTMain.sol\":15094:15270  function tokenURI(uint256 _tokenId) external view validNFToken(_tokenId) returns (string memory) {\r... */\n    tag_242:\n        /* \"contracts/NFTMain.sol\":4334:4335  0 */\n      0x00\n        /* \"contracts/NFTMain.sol\":4303:4322  idToOwner[_tokenId] */\n      dup2\n      dup2\n      mstore\n        /* \"contracts/NFTMain.sol\":4303:4312  idToOwner */\n      0x02\n        /* \"contracts/NFTMain.sol\":4303:4322  idToOwner[_tokenId] */\n      0x20\n      mstore\n      0x40\n      swap1\n      keccak256\n      sload\n        /* \"contracts/NFTMain.sol\":15176:15189  string memory */\n      0x60\n      swap1\n        /* \"contracts/NFTMain.sol\":15157:15165  _tokenId */\n      dup3\n      swap1\n      sub(shl(0xa0, 0x01), 0x01)\n        /* \"contracts/NFTMain.sol\":4303:4322  idToOwner[_tokenId] */\n      and\n        /* \"contracts/NFTMain.sol\":4295:4355  require(idToOwner[_tokenId] != address(0), \"Invalid token.\") */\n      tag_529\n      jumpi\n      mload(0x40)\n      shl(0xe5, 0x461bcd)\n      dup2\n      mstore\n      0x04\n      add\n      tag_287\n      swap1\n      tag_300\n      jump\t// in\n    tag_529:\n        /* \"contracts/NFTMain.sol\":15233:15240  baseUri */\n      0x12\n        /* \"contracts/NFTMain.sol\":15242:15260  toString(_tokenId) */\n      tag_532\n        /* \"contracts/NFTMain.sol\":15251:15259  _tokenId */\n      dup5\n        /* \"contracts/NFTMain.sol\":15242:15250  toString */\n      tag_533\n        /* \"contracts/NFTMain.sol\":15242:15260  toString(_tokenId) */\n      jump\t// in\n    tag_532:\n        /* \"contracts/NFTMain.sol\":15216:15261  abi.encodePacked(baseUri, toString(_tokenId)) */\n      add(0x20, mload(0x40))\n      tag_534\n      swap3\n      swap2\n      swap1\n      tag_535\n      jump\t// in\n    tag_534:\n      mload(0x40)\n      0x20\n      dup2\n      dup4\n      sub\n      sub\n      dup2\n      mstore\n      swap1\n      0x40\n      mstore\n        /* \"contracts/NFTMain.sol\":15202:15262  return string(abi.encodePacked(baseUri, toString(_tokenId))) */\n      swap2\n      pop\n        /* \"contracts/NFTMain.sol\":15094:15270  function tokenURI(uint256 _tokenId) external view validNFToken(_tokenId) returns (string memory) {\r... */\n      pop\n      swap2\n      swap1\n      pop\n      jump\t// out\n        /* \"contracts/NFTMain.sol\":17139:18455  function buyNFTWithToken (uint256 _tokenId) public {\r... */\n    tag_247:\n        /* \"contracts/NFTMain.sol\":17209:17221  marketStatus */\n      sload(0x4e3a)\n      shl(0xa0, 0x01)\n      swap1\n      div\n      0xff\n      and\n        /* \"contracts/NFTMain.sol\":17201:17244  require(marketStatus, \"Market not started\") */\n      tag_537\n      jumpi\n      mload(0x40)\n      shl(0xe5, 0x461bcd)\n      dup2\n      mstore\n      0x04\n      add\n      tag_287\n      swap1\n      tag_439\n      jump\t// in\n    tag_537:\n        /* \"contracts/NFTMain.sol\":17263:17277  list[_tokenId] */\n      0x00\n      dup2\n      dup2\n      mstore\n        /* \"contracts/NFTMain.sol\":17263:17267  list */\n      0x4e37\n        /* \"contracts/NFTMain.sol\":17263:17277  list[_tokenId] */\n      0x20\n      mstore\n      0x40\n      swap1\n      keccak256\n        /* \"contracts/NFTMain.sol\":17263:17287  list[_tokenId].isForSale */\n      sload\n      0xff\n      and\n        /* \"contracts/NFTMain.sol\":17255:17317  require(list[_tokenId].isForSale, \"The token is not for sale\") */\n      tag_539\n      jumpi\n      mload(0x40)\n      shl(0xe5, 0x461bcd)\n      dup2\n      mstore\n        /* \"#utility.yul\":17760:17762   */\n      0x20\n        /* \"contracts/NFTMain.sol\":17255:17317  require(list[_tokenId].isForSale, \"The token is not for sale\") */\n      0x04\n      dup3\n      add\n        /* \"#utility.yul\":17742:17763   */\n      mstore\n        /* \"#utility.yul\":17799:17801   */\n      0x19\n        /* \"#utility.yul\":17779:17797   */\n      0x24\n      dup3\n      add\n        /* \"#utility.yul\":17772:17802   */\n      mstore\n      shl(0x38, 0x54686520746f6b656e206973206e6f7420666f722073616c65)\n        /* \"#utility.yul\":17818:17836   */\n      0x44\n      dup3\n      add\n        /* \"#utility.yul\":17811:17866   */\n      mstore\n        /* \"#utility.yul\":17883:17901   */\n      0x64\n      add\n        /* \"contracts/NFTMain.sol\":17255:17317  require(list[_tokenId].isForSale, \"The token is not for sale\") */\n      tag_287\n        /* \"#utility.yul\":17558:17907   */\n      jump\n        /* \"contracts/NFTMain.sol\":17255:17317  require(list[_tokenId].isForSale, \"The token is not for sale\") */\n    tag_539:\n        /* \"contracts/NFTMain.sol\":17336:17350  list[_tokenId] */\n      0x00\n      dup2\n      dup2\n      mstore\n        /* \"contracts/NFTMain.sol\":17336:17340  list */\n      0x4e37\n        /* \"contracts/NFTMain.sol\":17336:17350  list[_tokenId] */\n      0x20\n      mstore\n      0x40\n      swap1\n      keccak256\n        /* \"contracts/NFTMain.sol\":17336:17366  list[_tokenId].purchaseTokenId */\n      0x02\n      add\n      sload\n        /* \"contracts/NFTMain.sol\":17328:17400  require(list[_tokenId].purchaseTokenId != 0, \"Error with token payment\") */\n      tag_542\n      jumpi\n      mload(0x40)\n      shl(0xe5, 0x461bcd)\n      dup2\n      mstore\n        /* \"#utility.yul\":11628:11630   */\n      0x20\n        /* \"contracts/NFTMain.sol\":17328:17400  require(list[_tokenId].purchaseTokenId != 0, \"Error with token payment\") */\n      0x04\n      dup3\n      add\n        /* \"#utility.yul\":11610:11631   */\n      mstore\n        /* \"#utility.yul\":11667:11669   */\n      0x18\n        /* \"#utility.yul\":11647:11665   */\n      0x24\n      dup3\n      add\n        /* \"#utility.yul\":11640:11670   */\n      mstore\n        /* \"#utility.yul\":11706:11732   */\n      0x4572726f72207769746820746f6b656e207061796d656e740000000000000000\n        /* \"#utility.yul\":11686:11704   */\n      0x44\n      dup3\n      add\n        /* \"#utility.yul\":11679:11733   */\n      mstore\n        /* \"#utility.yul\":11750:11768   */\n      0x64\n      add\n        /* \"contracts/NFTMain.sol\":17328:17400  require(list[_tokenId].purchaseTokenId != 0, \"Error with token payment\") */\n      tag_287\n        /* \"#utility.yul\":11426:11774   */\n      jump\n        /* \"contracts/NFTMain.sol\":17328:17400  require(list[_tokenId].purchaseTokenId != 0, \"Error with token payment\") */\n    tag_542:\n        /* \"contracts/NFTMain.sol\":17490:17504  list[_tokenId] */\n      0x00\n      dup2\n      dup2\n      mstore\n        /* \"contracts/NFTMain.sol\":17490:17494  list */\n      0x4e37\n        /* \"contracts/NFTMain.sol\":17490:17504  list[_tokenId] */\n      0x20\n      swap1\n      dup2\n      mstore\n      0x40\n      dup1\n      dup4\n      keccak256\n        /* \"contracts/NFTMain.sol\":17490:17510  list[_tokenId].price */\n      0x01\n      dup2\n      add\n      sload\n        /* \"contracts/NFTMain.sol\":17433:17463  list[_tokenId].purchaseTokenId */\n      0x02\n      swap1\n      swap2\n      add\n      sload\n        /* \"contracts/NFTMain.sol\":17419:17464  purchaseToken[list[_tokenId].purchaseTokenId] */\n      dup5\n      mstore\n        /* \"contracts/NFTMain.sol\":17419:17432  purchaseToken */\n      0x4e38\n        /* \"contracts/NFTMain.sol\":17419:17464  purchaseToken[list[_tokenId].purchaseTokenId] */\n      swap1\n      swap3\n      mstore\n      swap2\n      dup3\n      swap1\n      keccak256\n      sload\n        /* \"contracts/NFTMain.sol\":17419:17486  purchaseToken[list[_tokenId].purchaseTokenId].balanceOf(msg.sender) */\n      swap2\n      mload\n      shl(0xe0, 0x70a08231)\n      dup2\n      mstore\n        /* \"contracts/NFTMain.sol\":17475:17485  msg.sender */\n      caller\n        /* \"contracts/NFTMain.sol\":17419:17486  purchaseToken[list[_tokenId].purchaseTokenId].balanceOf(msg.sender) */\n      0x04\n      dup3\n      add\n        /* \"#utility.yul\":7749:7800   */\n      mstore\n        /* \"contracts/NFTMain.sol\":17490:17510  list[_tokenId].price */\n      swap1\n      swap2\n      sub(shl(0xa0, 0x01), 0x01)\n        /* \"contracts/NFTMain.sol\":17419:17464  purchaseToken[list[_tokenId].purchaseTokenId] */\n      and\n      swap1\n        /* \"contracts/NFTMain.sol\":17419:17474  purchaseToken[list[_tokenId].purchaseTokenId].balanceOf */\n      0x70a08231\n      swap1\n        /* \"#utility.yul\":7722:7740   */\n      0x24\n      add\n        /* \"contracts/NFTMain.sol\":17419:17486  purchaseToken[list[_tokenId].purchaseTokenId].balanceOf(msg.sender) */\n      0x20\n      mload(0x40)\n      dup1\n      dup4\n      sub\n      dup2\n      dup7\n      dup1\n      extcodesize\n      iszero\n      dup1\n      iszero\n      tag_546\n      jumpi\n      0x00\n      dup1\n      revert\n    tag_546:\n      pop\n      gas\n      staticcall\n      iszero\n      dup1\n      iszero\n      tag_548\n      jumpi\n      returndatasize\n      0x00\n      dup1\n      returndatacopy\n      revert(0x00, returndatasize)\n    tag_548:\n      pop\n      pop\n      pop\n      pop\n      mload(0x40)\n      returndatasize\n      not(0x1f)\n      0x1f\n      dup3\n      add\n      and\n      dup3\n      add\n      dup1\n      0x40\n      mstore\n      pop\n      dup2\n      add\n      swap1\n      tag_549\n      swap2\n      swap1\n      tag_550\n      jump\t// in\n    tag_549:\n        /* \"contracts/NFTMain.sol\":17419:17510  purchaseToken[list[_tokenId].purchaseTokenId].balanceOf(msg.sender) >= list[_tokenId].price */\n      lt\n      iszero\n        /* \"contracts/NFTMain.sol\":17411:17542  require(purchaseToken[list[_tokenId].purchaseTokenId].balanceOf(msg.sender) >= list[_tokenId].price, \"You do not own enough gold\" ) */\n      tag_551\n      jumpi\n      mload(0x40)\n      shl(0xe5, 0x461bcd)\n      dup2\n      mstore\n        /* \"#utility.yul\":13082:13084   */\n      0x20\n        /* \"contracts/NFTMain.sol\":17411:17542  require(purchaseToken[list[_tokenId].purchaseTokenId].balanceOf(msg.sender) >= list[_tokenId].price, \"You do not own enough gold\" ) */\n      0x04\n      dup3\n      add\n        /* \"#utility.yul\":13064:13085   */\n      mstore\n        /* \"#utility.yul\":13121:13123   */\n      0x1a\n        /* \"#utility.yul\":13101:13119   */\n      0x24\n      dup3\n      add\n        /* \"#utility.yul\":13094:13124   */\n      mstore\n        /* \"#utility.yul\":13160:13188   */\n      0x596f7520646f206e6f74206f776e20656e6f75676820676f6c64000000000000\n        /* \"#utility.yul\":13140:13158   */\n      0x44\n      dup3\n      add\n        /* \"#utility.yul\":13133:13189   */\n      mstore\n        /* \"#utility.yul\":13206:13224   */\n      0x64\n      add\n        /* \"contracts/NFTMain.sol\":17411:17542  require(purchaseToken[list[_tokenId].purchaseTokenId].balanceOf(msg.sender) >= list[_tokenId].price, \"You do not own enough gold\" ) */\n      tag_287\n        /* \"#utility.yul\":12880:13230   */\n      jump\n        /* \"contracts/NFTMain.sol\":17411:17542  require(purchaseToken[list[_tokenId].purchaseTokenId].balanceOf(msg.sender) >= list[_tokenId].price, \"You do not own enough gold\" ) */\n    tag_551:\n        /* \"contracts/NFTMain.sol\":17647:17661  list[_tokenId] */\n      0x00\n      dup2\n      dup2\n      mstore\n        /* \"contracts/NFTMain.sol\":17647:17651  list */\n      0x4e37\n        /* \"contracts/NFTMain.sol\":17647:17661  list[_tokenId] */\n      0x20\n      swap1\n      dup2\n      mstore\n      0x40\n      dup1\n      dup4\n      keccak256\n        /* \"contracts/NFTMain.sol\":17647:17667  list[_tokenId].price */\n      0x01\n      dup2\n      add\n      sload\n        /* \"contracts/NFTMain.sol\":17575:17605  list[_tokenId].purchaseTokenId */\n      0x02\n      swap1\n      swap2\n      add\n      sload\n        /* \"contracts/NFTMain.sol\":17561:17606  purchaseToken[list[_tokenId].purchaseTokenId] */\n      dup5\n      mstore\n        /* \"contracts/NFTMain.sol\":17561:17574  purchaseToken */\n      0x4e38\n        /* \"contracts/NFTMain.sol\":17561:17606  purchaseToken[list[_tokenId].purchaseTokenId] */\n      swap1\n      swap3\n      mstore\n      swap2\n      dup3\n      swap1\n      keccak256\n      sload\n        /* \"contracts/NFTMain.sol\":17561:17643  purchaseToken[list[_tokenId].purchaseTokenId].allowance(msg.sender, address(this)) */\n      swap2\n      mload\n      shl(0xe1, 0x6eb1769f)\n      dup2\n      mstore\n        /* \"contracts/NFTMain.sol\":17617:17627  msg.sender */\n      caller\n        /* \"contracts/NFTMain.sol\":17561:17643  purchaseToken[list[_tokenId].purchaseTokenId].allowance(msg.sender, address(this)) */\n      0x04\n      dup3\n      add\n        /* \"#utility.yul\":8023:8057   */\n      mstore\n        /* \"contracts/NFTMain.sol\":17637:17641  this */\n      address\n        /* \"#utility.yul\":8073:8091   */\n      0x24\n      dup3\n      add\n        /* \"#utility.yul\":8066:8109   */\n      mstore\n        /* \"contracts/NFTMain.sol\":17647:17667  list[_tokenId].price */\n      swap1\n      swap2\n      sub(shl(0xa0, 0x01), 0x01)\n        /* \"contracts/NFTMain.sol\":17561:17606  purchaseToken[list[_tokenId].purchaseTokenId] */\n      and\n      swap1\n        /* \"contracts/NFTMain.sol\":17561:17616  purchaseToken[list[_tokenId].purchaseTokenId].allowance */\n      0xdd62ed3e\n      swap1\n        /* \"#utility.yul\":7958:7976   */\n      0x44\n      add\n        /* \"contracts/NFTMain.sol\":17561:17643  purchaseToken[list[_tokenId].purchaseTokenId].allowance(msg.sender, address(this)) */\n      0x20\n      mload(0x40)\n      dup1\n      dup4\n      sub\n      dup2\n      dup7\n      dup1\n      extcodesize\n      iszero\n      dup1\n      iszero\n      tag_556\n      jumpi\n      0x00\n      dup1\n      revert\n    tag_556:\n      pop\n      gas\n      staticcall\n      iszero\n      dup1\n      iszero\n      tag_558\n      jumpi\n      returndatasize\n      0x00\n      dup1\n      returndatacopy\n      revert(0x00, returndatasize)\n    tag_558:\n      pop\n      pop\n      pop\n      pop\n      mload(0x40)\n      returndatasize\n      not(0x1f)\n      0x1f\n      dup3\n      add\n      and\n      dup3\n      add\n      dup1\n      0x40\n      mstore\n      pop\n      dup2\n      add\n      swap1\n      tag_559\n      swap2\n      swap1\n      tag_550\n      jump\t// in\n    tag_559:\n        /* \"contracts/NFTMain.sol\":17561:17667  purchaseToken[list[_tokenId].purchaseTokenId].allowance(msg.sender, address(this)) >= list[_tokenId].price */\n      lt\n      iszero\n        /* \"contracts/NFTMain.sol\":17553:17698  require(purchaseToken[list[_tokenId].purchaseTokenId].allowance(msg.sender, address(this)) >= list[_tokenId].price, \"You allowance is too small\") */\n      tag_560\n      jumpi\n      mload(0x40)\n      shl(0xe5, 0x461bcd)\n      dup2\n      mstore\n        /* \"#utility.yul\":15926:15928   */\n      0x20\n        /* \"contracts/NFTMain.sol\":17553:17698  require(purchaseToken[list[_tokenId].purchaseTokenId].allowance(msg.sender, address(this)) >= list[_tokenId].price, \"You allowance is too small\") */\n      0x04\n      dup3\n      add\n        /* \"#utility.yul\":15908:15929   */\n      mstore\n        /* \"#utility.yul\":15965:15967   */\n      0x1a\n        /* \"#utility.yul\":15945:15963   */\n      0x24\n      dup3\n      add\n        /* \"#utility.yul\":15938:15968   */\n      mstore\n        /* \"#utility.yul\":16004:16032   */\n      0x596f7520616c6c6f77616e636520697320746f6f20736d616c6c000000000000\n        /* \"#utility.yul\":15984:16002   */\n      0x44\n      dup3\n      add\n        /* \"#utility.yul\":15977:16033   */\n      mstore\n        /* \"#utility.yul\":16050:16068   */\n      0x64\n      add\n        /* \"contracts/NFTMain.sol\":17553:17698  require(purchaseToken[list[_tokenId].purchaseTokenId].allowance(msg.sender, address(this)) >= list[_tokenId].price, \"You allowance is too small\") */\n      tag_287\n        /* \"#utility.yul\":15724:16074   */\n      jump\n        /* \"contracts/NFTMain.sol\":17553:17698  require(purchaseToken[list[_tokenId].purchaseTokenId].allowance(msg.sender, address(this)) >= list[_tokenId].price, \"You allowance is too small\") */\n    tag_560:\n        /* \"contracts/NFTMain.sol\":17723:17730  baseFee */\n      sload(0x4e39)\n        /* \"contracts/NFTMain.sol\":17709:17720  uint256 fee */\n      0x00\n        /* \"contracts/NFTMain.sol\":17766:17776  1000 - fee */\n      tag_563\n        /* \"contracts/NFTMain.sol\":17723:17730  baseFee */\n      dup3\n        /* \"contracts/NFTMain.sol\":17766:17770  1000 */\n      0x03e8\n        /* \"contracts/NFTMain.sol\":17766:17776  1000 - fee */\n      tag_347\n      jump\t// in\n    tag_563:\n        /* \"contracts/NFTMain.sol\":17862:17871  feeWallet */\n      sload(0x4e3a)\n      0x00\n        /* \"contracts/NFTMain.sol\":17873:17887  list[_tokenId] */\n      dup6\n      dup2\n      mstore\n        /* \"contracts/NFTMain.sol\":17873:17877  list */\n      0x4e37\n        /* \"contracts/NFTMain.sol\":17873:17887  list[_tokenId] */\n      0x20\n      mstore\n      0x40\n      swap1\n      keccak256\n        /* \"contracts/NFTMain.sol\":17862:17871  feeWallet */\n      0x01\n        /* \"contracts/NFTMain.sol\":17873:17893  list[_tokenId].price */\n      add\n      sload\n        /* \"contracts/NFTMain.sol\":17741:17776  uint256 amountAfterFee = 1000 - fee */\n      swap2\n      swap3\n      pop\n        /* \"contracts/NFTMain.sol\":17787:17913  purchaseToken[list[_tokenId].purchaseTokenId].safeTransferFrom(msg.sender, feeWallet, list[_tokenId].price.mul(fee).div(1000)) */\n      tag_564\n      swap2\n        /* \"contracts/NFTMain.sol\":17850:17860  msg.sender */\n      caller\n      swap2\n      sub(shl(0xa0, 0x01), 0x01)\n        /* \"contracts/NFTMain.sol\":17862:17871  feeWallet */\n      and\n      swap1\n        /* \"contracts/NFTMain.sol\":17873:17912  list[_tokenId].price.mul(fee).div(1000) */\n      tag_565\n      swap1\n        /* \"contracts/NFTMain.sol\":17907:17911  1000 */\n      0x03e8\n      swap1\n        /* \"contracts/NFTMain.sol\":17873:17902  list[_tokenId].price.mul(fee) */\n      tag_566\n      swap1\n        /* \"contracts/NFTMain.sol\":17898:17901  fee */\n      dup9\n        /* \"contracts/NFTMain.sol\":17873:17897  list[_tokenId].price.mul */\n      tag_339\n        /* \"contracts/NFTMain.sol\":17873:17902  list[_tokenId].price.mul(fee) */\n      jump\t// in\n    tag_566:\n        /* \"contracts/NFTMain.sol\":17873:17906  list[_tokenId].price.mul(fee).div */\n      swap1\n      tag_412\n        /* \"contracts/NFTMain.sol\":17873:17912  list[_tokenId].price.mul(fee).div(1000) */\n      jump\t// in\n    tag_565:\n        /* \"contracts/NFTMain.sol\":17787:17832  purchaseToken[list[_tokenId].purchaseTokenId] */\n      0x00\n        /* \"contracts/NFTMain.sol\":17801:17815  list[_tokenId] */\n      dup8\n      dup2\n      mstore\n        /* \"contracts/NFTMain.sol\":17801:17805  list */\n      0x4e37\n        /* \"contracts/NFTMain.sol\":17801:17815  list[_tokenId] */\n      0x20\n      swap1\n      dup2\n      mstore\n      0x40\n      dup1\n      dup4\n      keccak256\n        /* \"contracts/NFTMain.sol\":17801:17831  list[_tokenId].purchaseTokenId */\n      0x02\n      add\n      sload\n        /* \"contracts/NFTMain.sol\":17787:17832  purchaseToken[list[_tokenId].purchaseTokenId] */\n      dup4\n      mstore\n        /* \"contracts/NFTMain.sol\":17787:17800  purchaseToken */\n      0x4e38\n        /* \"contracts/NFTMain.sol\":17787:17832  purchaseToken[list[_tokenId].purchaseTokenId] */\n      swap1\n      swap2\n      mstore\n      swap1\n      keccak256\n      sload\n      sub(shl(0xa0, 0x01), 0x01)\n      and\n      swap3\n        /* \"contracts/NFTMain.sol\":17787:17913  purchaseToken[list[_tokenId].purchaseTokenId].safeTransferFrom(msg.sender, feeWallet, list[_tokenId].price.mul(fee).div(1000)) */\n      swap2\n      swap1\n        /* \"contracts/NFTMain.sol\":17787:17849  purchaseToken[list[_tokenId].purchaseTokenId].safeTransferFrom */\n      tag_340\n        /* \"contracts/NFTMain.sol\":17787:17913  purchaseToken[list[_tokenId].purchaseTokenId].safeTransferFrom(msg.sender, feeWallet, list[_tokenId].price.mul(fee).div(1000)) */\n      jump\t// in\n    tag_564:\n        /* \"contracts/NFTMain.sol\":17999:18013  list[_tokenId] */\n      0x00\n      dup4\n      dup2\n      mstore\n        /* \"contracts/NFTMain.sol\":17999:18003  list */\n      0x4e37\n        /* \"contracts/NFTMain.sol\":17999:18013  list[_tokenId] */\n      0x20\n      mstore\n      0x40\n      swap1\n      keccak256\n        /* \"contracts/NFTMain.sol\":17999:18019  list[_tokenId].owner */\n      dup1\n      sload\n      0x01\n        /* \"contracts/NFTMain.sol\":18021:18041  list[_tokenId].price */\n      swap1\n      swap2\n      add\n      sload\n        /* \"contracts/NFTMain.sol\":17924:18072  purchaseToken[list[_tokenId].purchaseTokenId].safeTransferFrom(msg.sender, list[_tokenId].owner, list[_tokenId].price.mul(amountAfterFee).div(1000)) */\n      tag_567\n      swap2\n        /* \"contracts/NFTMain.sol\":17987:17997  msg.sender */\n      caller\n      swap2\n        /* \"contracts/NFTMain.sol\":17999:18019  list[_tokenId].owner */\n      0x0100\n      swap1\n      swap2\n      div\n      sub(shl(0xa0, 0x01), 0x01)\n      and\n      swap1\n        /* \"contracts/NFTMain.sol\":18021:18071  list[_tokenId].price.mul(amountAfterFee).div(1000) */\n      tag_565\n      swap1\n        /* \"contracts/NFTMain.sol\":18066:18070  1000 */\n      0x03e8\n      swap1\n        /* \"contracts/NFTMain.sol\":18021:18061  list[_tokenId].price.mul(amountAfterFee) */\n      tag_566\n      swap1\n        /* \"contracts/NFTMain.sol\":18046:18060  amountAfterFee */\n      dup8\n        /* \"contracts/NFTMain.sol\":18021:18045  list[_tokenId].price.mul */\n      tag_339\n        /* \"contracts/NFTMain.sol\":18021:18061  list[_tokenId].price.mul(amountAfterFee) */\n      jump\t// in\n        /* \"contracts/NFTMain.sol\":17924:18072  purchaseToken[list[_tokenId].purchaseTokenId].safeTransferFrom(msg.sender, list[_tokenId].owner, list[_tokenId].price.mul(amountAfterFee).div(1000)) */\n    tag_567:\n        /* \"contracts/NFTMain.sol\":18083:18114  _transfer(msg.sender, _tokenId) */\n      tag_570\n        /* \"contracts/NFTMain.sol\":18093:18103  msg.sender */\n      caller\n        /* \"contracts/NFTMain.sol\":18105:18113  _tokenId */\n      dup5\n        /* \"contracts/NFTMain.sol\":18083:18092  _transfer */\n      tag_377\n        /* \"contracts/NFTMain.sol\":18083:18114  _transfer(msg.sender, _tokenId) */\n      jump\t// in\n    tag_570:\n        /* \"contracts/NFTMain.sol\":18150:18164  list[_tokenId] */\n      0x00\n      dup4\n      dup2\n      mstore\n        /* \"contracts/NFTMain.sol\":18150:18154  list */\n      0x4e37\n        /* \"contracts/NFTMain.sol\":18150:18164  list[_tokenId] */\n      0x20\n      swap1\n      dup2\n      mstore\n      0x40\n      swap2\n      dup3\n      swap1\n      keccak256\n        /* \"contracts/NFTMain.sol\":18150:18170  list[_tokenId].price */\n      0x01\n      dup2\n      add\n      sload\n        /* \"contracts/NFTMain.sol\":18172:18202  list[_tokenId].purchaseTokenId */\n      0x02\n      swap1\n      swap2\n      add\n      sload\n        /* \"contracts/NFTMain.sol\":18130:18203  NFTbought(_tokenId, list[_tokenId].price, list[_tokenId].purchaseTokenId) */\n      dup4\n      mload\n        /* \"#utility.yul\":20922:20947   */\n      dup8\n      dup2\n      mstore\n        /* \"#utility.yul\":20963:20981   */\n      swap3\n      dup4\n      add\n        /* \"#utility.yul\":20956:20990   */\n      swap2\n      swap1\n      swap2\n      mstore\n        /* \"#utility.yul\":21006:21024   */\n      dup2\n      dup4\n      add\n        /* \"#utility.yul\":20999:21033   */\n      mstore\n        /* \"contracts/NFTMain.sol\":18130:18203  NFTbought(_tokenId, list[_tokenId].price, list[_tokenId].purchaseTokenId) */\n      swap1\n      mload\n      0x9695d5ebf5115e7b172f9c06e511f76a01df1de76571b792ff9b6d506f06d3ef\n      swap2\n      dup2\n      swap1\n      sub\n        /* \"#utility.yul\":20910:20912   */\n      0x60\n        /* \"contracts/NFTMain.sol\":18130:18203  NFTbought(_tokenId, list[_tokenId].price, list[_tokenId].purchaseTokenId) */\n      add\n      swap1\n      log1\n        /* \"contracts/NFTMain.sol\":18231:18263  listing(false, address(0), 0, 0) */\n      0x40\n      dup1\n      mload\n      0x80\n      dup2\n      add\n      dup3\n      mstore\n      0x00\n      dup1\n      dup3\n      mstore\n      0x20\n      dup1\n      dup4\n      add\n      dup3\n      dup2\n      mstore\n      dup4\n      dup6\n      add\n      dup4\n      dup2\n      mstore\n      0x60\n      dup6\n      add\n      dup5\n      dup2\n      mstore\n        /* \"contracts/NFTMain.sol\":18214:18228  list[_tokenId] */\n      dup10\n      dup6\n      mstore\n        /* \"contracts/NFTMain.sol\":18214:18218  list */\n      0x4e37\n        /* \"contracts/NFTMain.sol\":18214:18228  list[_tokenId] */\n      swap1\n      swap4\n      mstore\n      swap5\n      dup4\n      keccak256\n        /* \"contracts/NFTMain.sol\":18214:18263  list[_tokenId] = listing(false, address(0), 0, 0) */\n      swap4\n      mload\n      dup5\n      sload\n      swap2\n      mload\n      not(sub(shl(0xa8, 0x01), 0x01))\n      swap1\n      swap3\n      and\n      swap1\n      iszero\n      iszero\n      not(sub(shl(0xa8, 0x01), 0x0100))\n      and\n      or\n      0x0100\n      sub(shl(0xa0, 0x01), 0x01)\n      swap1\n      swap3\n      and\n      swap2\n      swap1\n      swap2\n      mul\n      or\n      dup4\n      sstore\n      swap3\n      mload\n      0x01\n      dup4\n      add\n      sstore\n      swap2\n      mload\n      0x02\n      swap1\n      swap2\n      add\n      sstore\n        /* \"contracts/NFTMain.sol\":18282:18448  for( uint256 i = 0; i < nftList.length; i++){                              \r... */\n    tag_572:\n        /* \"contracts/NFTMain.sol\":18306:18313  nftList */\n      0x4e3b\n        /* \"contracts/NFTMain.sol\":18306:18320  nftList.length */\n      sload\n        /* \"contracts/NFTMain.sol\":18302:18320  i < nftList.length */\n      dup2\n      lt\n        /* \"contracts/NFTMain.sol\":18282:18448  for( uint256 i = 0; i < nftList.length; i++){                              \r... */\n      iszero\n      tag_573\n      jumpi\n        /* \"contracts/NFTMain.sol\":18386:18394  _tokenId */\n      dup4\n        /* \"contracts/NFTMain.sol\":18372:18379  nftList */\n      0x4e3b\n        /* \"contracts/NFTMain.sol\":18380:18381  i */\n      dup3\n        /* \"contracts/NFTMain.sol\":18372:18382  nftList[i] */\n      dup2\n      sload\n      dup2\n      lt\n      tag_576\n      jumpi\n      tag_576\n      tag_429\n      jump\t// in\n    tag_576:\n      swap1\n      0x00\n      mstore\n      keccak256(0x00, 0x20)\n      add\n      sload\n        /* \"contracts/NFTMain.sol\":18372:18394  nftList[i] == _tokenId */\n      eq\n        /* \"contracts/NFTMain.sol\":18367:18441  if ( nftList[i] == _tokenId) { \r... */\n      iszero\n      tag_578\n      jumpi\n        /* \"contracts/NFTMain.sol\":18419:18426  nftList */\n      0x4e3b\n        /* \"contracts/NFTMain.sol\":18427:18428  i */\n      dup2\n        /* \"contracts/NFTMain.sol\":18419:18429  nftList[i] */\n      dup2\n      sload\n      dup2\n      lt\n      tag_580\n      jumpi\n      tag_580\n      tag_429\n      jump\t// in\n    tag_580:\n      0x00\n      swap2\n      dup3\n      mstore\n      0x20\n      dup3\n      keccak256\n      add\n        /* \"contracts/NFTMain.sol\":18412:18429  delete nftList[i] */\n      sstore\n        /* \"contracts/NFTMain.sol\":18367:18441  if ( nftList[i] == _tokenId) { \r... */\n    tag_578:\n        /* \"contracts/NFTMain.sol\":18322:18325  i++ */\n      dup1\n      tag_582\n      dup2\n      tag_345\n      jump\t// in\n    tag_582:\n      swap2\n      pop\n      pop\n        /* \"contracts/NFTMain.sol\":18282:18448  for( uint256 i = 0; i < nftList.length; i++){                              \r... */\n      jump(tag_572)\n    tag_573:\n      pop\n        /* \"contracts/NFTMain.sol\":17190:18455  {\r... */\n      pop\n      pop\n        /* \"contracts/NFTMain.sol\":17139:18455  function buyNFTWithToken (uint256 _tokenId) public {\r... */\n      pop\n      jump\t// out\n        /* \"@openzeppelin/contracts/access/Ownable.sol\":1918:2116  function transferOwnership(address newOwner) public virtual onlyOwner {... */\n    tag_269:\n        /* \"@openzeppelin/contracts/access/Ownable.sol\":1082:1089  address */\n      0x00\n        /* \"@openzeppelin/contracts/access/Ownable.sol\":1108:1114  _owner */\n      sload\n      sub(shl(0xa0, 0x01), 0x01)\n      and\n        /* \"@openzeppelin/contracts/utils/Context.sol\":719:729  msg.sender */\n      caller\n        /* \"@openzeppelin/contracts/access/Ownable.sol\":1248:1271  owner() == _msgSender() */\n      eq\n        /* \"@openzeppelin/contracts/access/Ownable.sol\":1240:1308  require(owner() == _msgSender(), \"Ownable: caller is not the owner\") */\n      tag_587\n      jumpi\n      mload(0x40)\n      shl(0xe5, 0x461bcd)\n      dup2\n      mstore\n      0x04\n      add\n      tag_287\n      swap1\n      tag_288\n      jump\t// in\n    tag_587:\n      sub(shl(0xa0, 0x01), 0x01)\n        /* \"@openzeppelin/contracts/access/Ownable.sol\":2006:2028  newOwner != address(0) */\n      dup2\n      and\n        /* \"@openzeppelin/contracts/access/Ownable.sol\":1998:2071  require(newOwner != address(0), \"Ownable: new owner is the zero address\") */\n      tag_590\n      jumpi\n      mload(0x40)\n      shl(0xe5, 0x461bcd)\n      dup2\n      mstore\n        /* \"#utility.yul\":11981:11983   */\n      0x20\n        /* \"@openzeppelin/contracts/access/Ownable.sol\":1998:2071  require(newOwner != address(0), \"Ownable: new owner is the zero address\") */\n      0x04\n      dup3\n      add\n        /* \"#utility.yul\":11963:11984   */\n      mstore\n        /* \"#utility.yul\":12020:12022   */\n      0x26\n        /* \"#utility.yul\":12000:12018   */\n      0x24\n      dup3\n      add\n        /* \"#utility.yul\":11993:12023   */\n      mstore\n        /* \"#utility.yul\":12059:12093   */\n      0x4f776e61626c653a206e6577206f776e657220697320746865207a65726f2061\n        /* \"#utility.yul\":12039:12057   */\n      0x44\n      dup3\n      add\n        /* \"#utility.yul\":12032:12094   */\n      mstore\n      shl(0xd0, 0x646472657373)\n        /* \"#utility.yul\":12110:12128   */\n      0x64\n      dup3\n      add\n        /* \"#utility.yul\":12103:12139   */\n      mstore\n        /* \"#utility.yul\":12156:12175   */\n      0x84\n      add\n        /* \"@openzeppelin/contracts/access/Ownable.sol\":1998:2071  require(newOwner != address(0), \"Ownable: new owner is the zero address\") */\n      tag_287\n        /* \"#utility.yul\":11779:12181   */\n      jump\n        /* \"@openzeppelin/contracts/access/Ownable.sol\":1998:2071  require(newOwner != address(0), \"Ownable: new owner is the zero address\") */\n    tag_590:\n        /* \"@openzeppelin/contracts/access/Ownable.sol\":2081:2109  _transferOwnership(newOwner) */\n      tag_593\n        /* \"@openzeppelin/contracts/access/Ownable.sol\":2100:2108  newOwner */\n      dup2\n        /* \"@openzeppelin/contracts/access/Ownable.sol\":2081:2099  _transferOwnership */\n      tag_481\n        /* \"@openzeppelin/contracts/access/Ownable.sol\":2081:2109  _transferOwnership(newOwner) */\n      jump\t// in\n    tag_593:\n        /* \"@openzeppelin/contracts/access/Ownable.sol\":1918:2116  function transferOwnership(address newOwner) public virtual onlyOwner {... */\n      pop\n      jump\t// out\n        /* \"contracts/NFTMain.sol\":18463:19440  function buyNFTMatic (uint256 _tokenId) public payable {\r... */\n    tag_276:\n        /* \"contracts/NFTMain.sol\":18537:18549  marketStatus */\n      sload(0x4e3a)\n      shl(0xa0, 0x01)\n      swap1\n      div\n      0xff\n      and\n        /* \"contracts/NFTMain.sol\":18529:18572  require(marketStatus, \"Market not started\") */\n      tag_595\n      jumpi\n      mload(0x40)\n      shl(0xe5, 0x461bcd)\n      dup2\n      mstore\n      0x04\n      add\n      tag_287\n      swap1\n      tag_439\n      jump\t// in\n    tag_595:\n        /* \"contracts/NFTMain.sol\":18591:18605  list[_tokenId] */\n      0x00\n      dup2\n      dup2\n      mstore\n        /* \"contracts/NFTMain.sol\":18591:18595  list */\n      0x4e37\n        /* \"contracts/NFTMain.sol\":18591:18605  list[_tokenId] */\n      0x20\n      mstore\n      0x40\n      swap1\n      keccak256\n        /* \"contracts/NFTMain.sol\":18591:18615  list[_tokenId].isForSale */\n      sload\n      0xff\n      and\n        /* \"contracts/NFTMain.sol\":18583:18645  require(list[_tokenId].isForSale, \"The token is not for sale\") */\n      tag_597\n      jumpi\n      mload(0x40)\n      shl(0xe5, 0x461bcd)\n      dup2\n      mstore\n        /* \"#utility.yul\":17760:17762   */\n      0x20\n        /* \"contracts/NFTMain.sol\":18583:18645  require(list[_tokenId].isForSale, \"The token is not for sale\") */\n      0x04\n      dup3\n      add\n        /* \"#utility.yul\":17742:17763   */\n      mstore\n        /* \"#utility.yul\":17799:17801   */\n      0x19\n        /* \"#utility.yul\":17779:17797   */\n      0x24\n      dup3\n      add\n        /* \"#utility.yul\":17772:17802   */\n      mstore\n      shl(0x38, 0x54686520746f6b656e206973206e6f7420666f722073616c65)\n        /* \"#utility.yul\":17818:17836   */\n      0x44\n      dup3\n      add\n        /* \"#utility.yul\":17811:17866   */\n      mstore\n        /* \"#utility.yul\":17883:17901   */\n      0x64\n      add\n        /* \"contracts/NFTMain.sol\":18583:18645  require(list[_tokenId].isForSale, \"The token is not for sale\") */\n      tag_287\n        /* \"#utility.yul\":17558:17907   */\n      jump\n        /* \"contracts/NFTMain.sol\":18583:18645  require(list[_tokenId].isForSale, \"The token is not for sale\") */\n    tag_597:\n        /* \"contracts/NFTMain.sol\":18664:18678  list[_tokenId] */\n      0x00\n      dup2\n      dup2\n      mstore\n        /* \"contracts/NFTMain.sol\":18664:18668  list */\n      0x4e37\n        /* \"contracts/NFTMain.sol\":18664:18678  list[_tokenId] */\n      0x20\n      mstore\n      0x40\n      swap1\n      keccak256\n        /* \"contracts/NFTMain.sol\":18664:18694  list[_tokenId].purchaseTokenId */\n      0x02\n      add\n      sload\n        /* \"contracts/NFTMain.sol\":18664:18699  list[_tokenId].purchaseTokenId == 0 */\n      iszero\n        /* \"contracts/NFTMain.sol\":18656:18723  require(list[_tokenId].purchaseTokenId == 0, \"Not listed in Matic\") */\n      tag_599\n      jumpi\n      mload(0x40)\n      shl(0xe5, 0x461bcd)\n      dup2\n      mstore\n        /* \"#utility.yul\":13437:13439   */\n      0x20\n        /* \"contracts/NFTMain.sol\":18656:18723  require(list[_tokenId].purchaseTokenId == 0, \"Not listed in Matic\") */\n      0x04\n      dup3\n      add\n        /* \"#utility.yul\":13419:13440   */\n      mstore\n        /* \"#utility.yul\":13476:13478   */\n      0x13\n        /* \"#utility.yul\":13456:13474   */\n      0x24\n      dup3\n      add\n        /* \"#utility.yul\":13449:13479   */\n      mstore\n      shl(0x68, 0x4e6f74206c697374656420696e204d61746963)\n        /* \"#utility.yul\":13495:13513   */\n      0x44\n      dup3\n      add\n        /* \"#utility.yul\":13488:13537   */\n      mstore\n        /* \"#utility.yul\":13554:13572   */\n      0x64\n      add\n        /* \"contracts/NFTMain.sol\":18656:18723  require(list[_tokenId].purchaseTokenId == 0, \"Not listed in Matic\") */\n      tag_287\n        /* \"#utility.yul\":13235:13578   */\n      jump\n        /* \"contracts/NFTMain.sol\":18656:18723  require(list[_tokenId].purchaseTokenId == 0, \"Not listed in Matic\") */\n    tag_599:\n        /* \"contracts/NFTMain.sol\":18755:18769  list[_tokenId] */\n      0x00\n      dup2\n      dup2\n      mstore\n        /* \"contracts/NFTMain.sol\":18755:18759  list */\n      0x4e37\n        /* \"contracts/NFTMain.sol\":18755:18769  list[_tokenId] */\n      0x20\n      mstore\n      0x40\n      swap1\n      keccak256\n        /* \"contracts/NFTMain.sol\":18755:18775  list[_tokenId].price */\n      0x01\n      add\n      sload\n        /* \"contracts/NFTMain.sol\":18742:18751  msg.value */\n      callvalue\n        /* \"contracts/NFTMain.sol\":18742:18775  msg.value == list[_tokenId].price */\n      eq\n        /* \"contracts/NFTMain.sol\":18734:18806  require(msg.value == list[_tokenId].price, \"Wrong amount of Matic sent\") */\n      tag_602\n      jumpi\n      mload(0x40)\n      shl(0xe5, 0x461bcd)\n      dup2\n      mstore\n        /* \"#utility.yul\":10924:10926   */\n      0x20\n        /* \"contracts/NFTMain.sol\":18734:18806  require(msg.value == list[_tokenId].price, \"Wrong amount of Matic sent\") */\n      0x04\n      dup3\n      add\n        /* \"#utility.yul\":10906:10927   */\n      mstore\n        /* \"#utility.yul\":10963:10965   */\n      0x1a\n        /* \"#utility.yul\":10943:10961   */\n      0x24\n      dup3\n      add\n        /* \"#utility.yul\":10936:10966   */\n      mstore\n        /* \"#utility.yul\":11002:11030   */\n      0x57726f6e6720616d6f756e74206f66204d617469632073656e74000000000000\n        /* \"#utility.yul\":10982:11000   */\n      0x44\n      dup3\n      add\n        /* \"#utility.yul\":10975:11031   */\n      mstore\n        /* \"#utility.yul\":11048:11066   */\n      0x64\n      add\n        /* \"contracts/NFTMain.sol\":18734:18806  require(msg.value == list[_tokenId].price, \"Wrong amount of Matic sent\") */\n      tag_287\n        /* \"#utility.yul\":10722:11072   */\n      jump\n        /* \"contracts/NFTMain.sol\":18734:18806  require(msg.value == list[_tokenId].price, \"Wrong amount of Matic sent\") */\n    tag_602:\n        /* \"contracts/NFTMain.sol\":18831:18838  baseFee */\n      sload(0x4e39)\n        /* \"contracts/NFTMain.sol\":18817:18828  uint256 fee */\n      0x00\n        /* \"contracts/NFTMain.sol\":18874:18884  1000 - fee */\n      tag_605\n        /* \"contracts/NFTMain.sol\":18831:18838  baseFee */\n      dup3\n        /* \"contracts/NFTMain.sol\":18874:18878  1000 */\n      0x03e8\n        /* \"contracts/NFTMain.sol\":18874:18884  1000 - fee */\n      tag_347\n      jump\t// in\n    tag_605:\n        /* \"contracts/NFTMain.sol\":18903:18912  feeWallet */\n      sload(0x4e3a)\n      0x00\n        /* \"contracts/NFTMain.sol\":18923:18937  list[_tokenId] */\n      dup6\n      dup2\n      mstore\n        /* \"contracts/NFTMain.sol\":18923:18927  list */\n      0x4e37\n        /* \"contracts/NFTMain.sol\":18923:18937  list[_tokenId] */\n      0x20\n      mstore\n      0x40\n      swap1\n      keccak256\n        /* \"contracts/NFTMain.sol\":18903:18912  feeWallet */\n      0x01\n        /* \"contracts/NFTMain.sol\":18923:18943  list[_tokenId].price */\n      add\n      sload\n        /* \"contracts/NFTMain.sol\":18849:18884  uint256 amountAfterFee = 1000 - fee */\n      swap2\n      swap3\n      pop\n      sub(shl(0xa0, 0x01), 0x01)\n        /* \"contracts/NFTMain.sol\":18903:18912  feeWallet */\n      and\n      swap1\n        /* \"contracts/NFTMain.sol\":18895:18963  payable(feeWallet).transfer(list[_tokenId].price.mul(fee).div(1000)) */\n      0x08fc\n      swap1\n        /* \"contracts/NFTMain.sol\":18923:18962  list[_tokenId].price.mul(fee).div(1000) */\n      tag_606\n      swap1\n        /* \"contracts/NFTMain.sol\":18957:18961  1000 */\n      0x03e8\n      swap1\n        /* \"contracts/NFTMain.sol\":18923:18952  list[_tokenId].price.mul(fee) */\n      tag_566\n      swap1\n        /* \"contracts/NFTMain.sol\":18948:18951  fee */\n      dup8\n        /* \"contracts/NFTMain.sol\":18923:18947  list[_tokenId].price.mul */\n      tag_339\n        /* \"contracts/NFTMain.sol\":18923:18952  list[_tokenId].price.mul(fee) */\n      jump\t// in\n        /* \"contracts/NFTMain.sol\":18923:18962  list[_tokenId].price.mul(fee).div(1000) */\n    tag_606:\n        /* \"contracts/NFTMain.sol\":18895:18963  payable(feeWallet).transfer(list[_tokenId].price.mul(fee).div(1000)) */\n      mload(0x40)\n      dup2\n      iszero\n      swap1\n      swap3\n      mul\n      swap2\n      0x00\n      dup2\n      dup2\n      dup2\n      dup6\n      dup9\n      dup9\n      call\n      swap4\n      pop\n      pop\n      pop\n      pop\n      iszero\n      dup1\n      iszero\n      tag_609\n      jumpi\n      returndatasize\n      0x00\n      dup1\n      returndatacopy\n      revert(0x00, returndatasize)\n    tag_609:\n      pop\n        /* \"contracts/NFTMain.sol\":18982:18996  list[_tokenId] */\n      0x00\n      dup4\n      dup2\n      mstore\n        /* \"contracts/NFTMain.sol\":18982:18986  list */\n      0x4e37\n        /* \"contracts/NFTMain.sol\":18982:18996  list[_tokenId] */\n      0x20\n      mstore\n      0x40\n      swap1\n      keccak256\n        /* \"contracts/NFTMain.sol\":18982:19002  list[_tokenId].owner */\n      dup1\n      sload\n      0x01\n        /* \"contracts/NFTMain.sol\":19013:19033  list[_tokenId].price */\n      swap1\n      swap2\n      add\n      sload\n        /* \"contracts/NFTMain.sol\":18982:19002  list[_tokenId].owner */\n      0x0100\n      swap1\n      swap2\n      div\n      sub(shl(0xa0, 0x01), 0x01)\n      and\n      swap1\n        /* \"contracts/NFTMain.sol\":18974:19064  payable(list[_tokenId].owner).transfer(list[_tokenId].price.mul(amountAfterFee).div(1000)) */\n      0x08fc\n      swap1\n        /* \"contracts/NFTMain.sol\":19013:19063  list[_tokenId].price.mul(amountAfterFee).div(1000) */\n      tag_610\n      swap1\n        /* \"contracts/NFTMain.sol\":19058:19062  1000 */\n      0x03e8\n      swap1\n        /* \"contracts/NFTMain.sol\":19013:19053  list[_tokenId].price.mul(amountAfterFee) */\n      tag_566\n      swap1\n        /* \"contracts/NFTMain.sol\":19038:19052  amountAfterFee */\n      dup7\n        /* \"contracts/NFTMain.sol\":19013:19037  list[_tokenId].price.mul */\n      tag_339\n        /* \"contracts/NFTMain.sol\":19013:19053  list[_tokenId].price.mul(amountAfterFee) */\n      jump\t// in\n        /* \"contracts/NFTMain.sol\":19013:19063  list[_tokenId].price.mul(amountAfterFee).div(1000) */\n    tag_610:\n        /* \"contracts/NFTMain.sol\":18974:19064  payable(list[_tokenId].owner).transfer(list[_tokenId].price.mul(amountAfterFee).div(1000)) */\n      mload(0x40)\n      dup2\n      iszero\n      swap1\n      swap3\n      mul\n      swap2\n      0x00\n      dup2\n      dup2\n      dup2\n      dup6\n      dup9\n      dup9\n      call\n      swap4\n      pop\n      pop\n      pop\n      pop\n      iszero\n      dup1\n      iszero\n      tag_613\n      jumpi\n      returndatasize\n      0x00\n      dup1\n      returndatacopy\n      revert(0x00, returndatasize)\n    tag_613:\n      pop\n        /* \"contracts/NFTMain.sol\":19075:19107  _transfer( msg.sender, _tokenId) */\n      tag_614\n        /* \"contracts/NFTMain.sol\":19086:19096  msg.sender */\n      caller\n        /* \"contracts/NFTMain.sol\":19098:19106  _tokenId */\n      dup5\n        /* \"contracts/NFTMain.sol\":19075:19084  _transfer */\n      tag_377\n        /* \"contracts/NFTMain.sol\":19075:19107  _transfer( msg.sender, _tokenId) */\n      jump\t// in\n    tag_614:\n        /* \"contracts/NFTMain.sol\":19143:19157  list[_tokenId] */\n      0x00\n      dup4\n      dup2\n      mstore\n        /* \"contracts/NFTMain.sol\":19143:19147  list */\n      0x4e37\n        /* \"contracts/NFTMain.sol\":19143:19157  list[_tokenId] */\n      0x20\n      swap1\n      dup2\n      mstore\n      0x40\n      swap2\n      dup3\n      swap1\n      keccak256\n        /* \"contracts/NFTMain.sol\":19143:19163  list[_tokenId].price */\n      0x01\n      dup2\n      add\n      sload\n        /* \"contracts/NFTMain.sol\":19165:19195  list[_tokenId].purchaseTokenId */\n      0x02\n      swap1\n      swap2\n      add\n      sload\n        /* \"contracts/NFTMain.sol\":19123:19196  NFTbought(_tokenId, list[_tokenId].price, list[_tokenId].purchaseTokenId) */\n      dup4\n      mload\n        /* \"#utility.yul\":20922:20947   */\n      dup8\n      dup2\n      mstore\n        /* \"#utility.yul\":20963:20981   */\n      swap3\n      dup4\n      add\n        /* \"#utility.yul\":20956:20990   */\n      swap2\n      swap1\n      swap2\n      mstore\n        /* \"#utility.yul\":21006:21024   */\n      dup2\n      dup4\n      add\n        /* \"#utility.yul\":20999:21033   */\n      mstore\n        /* \"contracts/NFTMain.sol\":19123:19196  NFTbought(_tokenId, list[_tokenId].price, list[_tokenId].purchaseTokenId) */\n      swap1\n      mload\n      0x9695d5ebf5115e7b172f9c06e511f76a01df1de76571b792ff9b6d506f06d3ef\n      swap2\n      dup2\n      swap1\n      sub\n        /* \"#utility.yul\":20910:20912   */\n      0x60\n        /* \"contracts/NFTMain.sol\":19123:19196  NFTbought(_tokenId, list[_tokenId].price, list[_tokenId].purchaseTokenId) */\n      add\n      swap1\n      log1\n        /* \"contracts/NFTMain.sol\":19224:19256  listing(false, address(0), 0, 0) */\n      0x40\n      dup1\n      mload\n      0x80\n      dup2\n      add\n      dup3\n      mstore\n      0x00\n      dup1\n      dup3\n      mstore\n      0x20\n      dup1\n      dup4\n      add\n      dup3\n      dup2\n      mstore\n      dup4\n      dup6\n      add\n      dup4\n      dup2\n      mstore\n      0x60\n      dup6\n      add\n      dup5\n      dup2\n      mstore\n        /* \"contracts/NFTMain.sol\":19207:19221  list[_tokenId] */\n      dup10\n      dup6\n      mstore\n        /* \"contracts/NFTMain.sol\":19207:19211  list */\n      0x4e37\n        /* \"contracts/NFTMain.sol\":19207:19221  list[_tokenId] */\n      swap1\n      swap4\n      mstore\n      swap5\n      dup4\n      keccak256\n        /* \"contracts/NFTMain.sol\":19207:19256  list[_tokenId] = listing(false, address(0), 0, 0) */\n      swap4\n      mload\n      dup5\n      sload\n      swap2\n      mload\n      not(sub(shl(0xa8, 0x01), 0x01))\n      swap1\n      swap3\n      and\n      swap1\n      iszero\n      iszero\n      not(sub(shl(0xa8, 0x01), 0x0100))\n      and\n      or\n      0x0100\n      sub(shl(0xa0, 0x01), 0x01)\n      swap1\n      swap3\n      and\n      swap2\n      swap1\n      swap2\n      mul\n      or\n      dup4\n      sstore\n      swap3\n      mload\n      0x01\n      dup4\n      add\n      sstore\n      swap2\n      mload\n      0x02\n      swap1\n      swap2\n      add\n      sstore\n        /* \"contracts/NFTMain.sol\":19267:19433  for( uint256 i = 0; i < nftList.length; i++){                              \r... */\n    tag_616:\n        /* \"contracts/NFTMain.sol\":19291:19298  nftList */\n      0x4e3b\n        /* \"contracts/NFTMain.sol\":19291:19305  nftList.length */\n      sload\n        /* \"contracts/NFTMain.sol\":19287:19305  i < nftList.length */\n      dup2\n      lt\n        /* \"contracts/NFTMain.sol\":19267:19433  for( uint256 i = 0; i < nftList.length; i++){                              \r... */\n      iszero\n      tag_573\n      jumpi\n        /* \"contracts/NFTMain.sol\":19371:19379  _tokenId */\n      dup4\n        /* \"contracts/NFTMain.sol\":19357:19364  nftList */\n      0x4e3b\n        /* \"contracts/NFTMain.sol\":19365:19366  i */\n      dup3\n        /* \"contracts/NFTMain.sol\":19357:19367  nftList[i] */\n      dup2\n      sload\n      dup2\n      lt\n      tag_620\n      jumpi\n      tag_620\n      tag_429\n      jump\t// in\n    tag_620:\n      swap1\n      0x00\n      mstore\n      keccak256(0x00, 0x20)\n      add\n      sload\n        /* \"contracts/NFTMain.sol\":19357:19379  nftList[i] == _tokenId */\n      eq\n        /* \"contracts/NFTMain.sol\":19352:19426  if ( nftList[i] == _tokenId) { \r... */\n      iszero\n      tag_622\n      jumpi\n        /* \"contracts/NFTMain.sol\":19404:19411  nftList */\n      0x4e3b\n        /* \"contracts/NFTMain.sol\":19412:19413  i */\n      dup2\n        /* \"contracts/NFTMain.sol\":19404:19414  nftList[i] */\n      dup2\n      sload\n      dup2\n      lt\n      tag_624\n      jumpi\n      tag_624\n      tag_429\n      jump\t// in\n    tag_624:\n      0x00\n      swap2\n      dup3\n      mstore\n      0x20\n      dup3\n      keccak256\n      add\n        /* \"contracts/NFTMain.sol\":19397:19414  delete nftList[i] */\n      sstore\n        /* \"contracts/NFTMain.sol\":19352:19426  if ( nftList[i] == _tokenId) { \r... */\n    tag_622:\n        /* \"contracts/NFTMain.sol\":19307:19310  i++ */\n      dup1\n      tag_626\n      dup2\n      tag_345\n      jump\t// in\n    tag_626:\n      swap2\n      pop\n      pop\n        /* \"contracts/NFTMain.sol\":19267:19433  for( uint256 i = 0; i < nftList.length; i++){                              \r... */\n      jump(tag_616)\n        /* \"contracts/NFTMain.sol\":1997:2139  function add(uint256 a, uint256 b) internal pure returns (uint256 c) {\r... */\n    tag_328:\n        /* \"contracts/NFTMain.sol\":2055:2064  uint256 c */\n      0x00\n        /* \"contracts/NFTMain.sol\":2081:2086  a + b */\n      tag_629\n        /* \"contracts/NFTMain.sol\":2085:2086  b */\n      dup3\n        /* \"contracts/NFTMain.sol\":2081:2082  a */\n      dup5\n        /* \"contracts/NFTMain.sol\":2081:2086  a + b */\n      tag_461\n      jump\t// in\n    tag_629:\n        /* \"contracts/NFTMain.sol\":2077:2086  c = a + b */\n      swap1\n      pop\n        /* \"contracts/NFTMain.sol\":2110:2111  a */\n      dup3\n        /* \"contracts/NFTMain.sol\":2105:2106  c */\n      dup2\n        /* \"contracts/NFTMain.sol\":2105:2111  c >= a */\n      lt\n      iszero\n        /* \"contracts/NFTMain.sol\":2097:2112  require(c >= a) */\n      tag_312\n      jumpi\n      0x00\n      dup1\n      revert\n        /* \"contracts/NFTMain.sol\":1863:1987  function sub(uint256 a, uint256 b) internal pure returns (uint256) {\r... */\n    tag_333:\n        /* \"contracts/NFTMain.sol\":1921:1928  uint256 */\n      0x00\n        /* \"contracts/NFTMain.sol\":1954:1955  a */\n      dup3\n        /* \"contracts/NFTMain.sol\":1949:1950  b */\n      dup3\n        /* \"contracts/NFTMain.sol\":1949:1955  b <= a */\n      gt\n      iszero\n        /* \"contracts/NFTMain.sol\":1941:1956  require(b <= a) */\n      tag_632\n      jumpi\n      0x00\n      dup1\n      revert\n    tag_632:\n        /* \"contracts/NFTMain.sol\":1974:1979  a - b */\n      tag_633\n        /* \"contracts/NFTMain.sol\":1978:1979  b */\n      dup3\n        /* \"contracts/NFTMain.sol\":1974:1975  a */\n      dup5\n        /* \"contracts/NFTMain.sol\":1974:1979  a - b */\n      tag_347\n      jump\t// in\n    tag_633:\n        /* \"contracts/NFTMain.sol\":1967:1979  return a - b */\n      swap4\n        /* \"contracts/NFTMain.sol\":1863:1987  function sub(uint256 a, uint256 b) internal pure returns (uint256) {\r... */\n      swap3\n      pop\n      pop\n      pop\n      jump\t// out\n        /* \"contracts/NFTMain.sol\":1546:1749  function mul(uint256 a, uint256 b) internal pure returns (uint256 c) {\r... */\n    tag_339:\n        /* \"contracts/NFTMain.sol\":1604:1613  uint256 c */\n      0x00\n        /* \"contracts/NFTMain.sol\":1630:1636  a == 0 */\n      dup3\n        /* \"contracts/NFTMain.sol\":1626:1673  if (a == 0) {\r... */\n      tag_635\n      jumpi\n      pop\n        /* \"contracts/NFTMain.sol\":1660:1661  0 */\n      0x00\n        /* \"contracts/NFTMain.sol\":1653:1661  return 0 */\n      jump(tag_312)\n        /* \"contracts/NFTMain.sol\":1626:1673  if (a == 0) {\r... */\n    tag_635:\n        /* \"contracts/NFTMain.sol\":1687:1692  a * b */\n      tag_636\n        /* \"contracts/NFTMain.sol\":1691:1692  b */\n      dup3\n        /* \"contracts/NFTMain.sol\":1687:1688  a */\n      dup5\n        /* \"contracts/NFTMain.sol\":1687:1692  a * b */\n      tag_637\n      jump\t// in\n    tag_636:\n        /* \"contracts/NFTMain.sol\":1683:1692  c = a * b */\n      swap1\n      pop\n        /* \"contracts/NFTMain.sol\":1720:1721  b */\n      dup2\n        /* \"contracts/NFTMain.sol\":1711:1716  c / a */\n      tag_638\n        /* \"contracts/NFTMain.sol\":1715:1716  a */\n      dup5\n        /* \"contracts/NFTMain.sol\":1683:1692  c = a * b */\n      dup4\n        /* \"contracts/NFTMain.sol\":1711:1716  c / a */\n      tag_639\n      jump\t// in\n    tag_638:\n        /* \"contracts/NFTMain.sol\":1711:1721  c / a == b */\n      eq\n        /* \"contracts/NFTMain.sol\":1703:1722  require(c / a == b) */\n      tag_312\n      jumpi\n      0x00\n      dup1\n      revert\n        /* \"@openzeppelin/contracts/token/ERC20/utils/SafeERC20.sol\":912:1153  function safeTransferFrom(... */\n    tag_340:\n        /* \"@openzeppelin/contracts/token/ERC20/utils/SafeERC20.sol\":1077:1145  abi.encodeWithSelector(token.transferFrom.selector, from, to, value) */\n      0x40\n      dup1\n      mload\n      sub(shl(0xa0, 0x01), 0x01)\n        /* \"#utility.yul\":8378:8393   */\n      dup6\n      dup2\n      and\n        /* \"@openzeppelin/contracts/token/ERC20/utils/SafeERC20.sol\":1077:1145  abi.encodeWithSelector(token.transferFrom.selector, from, to, value) */\n      0x24\n      dup4\n      add\n        /* \"#utility.yul\":8360:8394   */\n      mstore\n        /* \"#utility.yul\":8430:8445   */\n      dup5\n      and\n        /* \"#utility.yul\":8410:8428   */\n      0x44\n      dup3\n      add\n        /* \"#utility.yul\":8403:8446   */\n      mstore\n        /* \"#utility.yul\":8462:8480   */\n      0x64\n      dup1\n      dup3\n      add\n        /* \"#utility.yul\":8455:8489   */\n      dup5\n      swap1\n      mstore\n        /* \"@openzeppelin/contracts/token/ERC20/utils/SafeERC20.sol\":1077:1145  abi.encodeWithSelector(token.transferFrom.selector, from, to, value) */\n      dup3\n      mload\n      dup1\n      dup4\n      sub\n      swap1\n      swap2\n      add\n      dup2\n      mstore\n        /* \"#utility.yul\":8295:8313   */\n      0x84\n      swap1\n      swap2\n      add\n        /* \"@openzeppelin/contracts/token/ERC20/utils/SafeERC20.sol\":1077:1145  abi.encodeWithSelector(token.transferFrom.selector, from, to, value) */\n      swap1\n      swap2\n      mstore\n      0x20\n      dup2\n      add\n      dup1\n      mload\n      sub(shl(0xe0, 0x01), 0x01)\n      and\n      shl(0xe0, 0x23b872dd)\n      or\n      swap1\n      mstore\n        /* \"@openzeppelin/contracts/token/ERC20/utils/SafeERC20.sol\":1050:1146  _callOptionalReturn(token, abi.encodeWithSelector(token.transferFrom.selector, from, to, value)) */\n      tag_573\n      swap1\n        /* \"@openzeppelin/contracts/token/ERC20/utils/SafeERC20.sol\":1070:1075  token */\n      dup6\n      swap1\n        /* \"@openzeppelin/contracts/token/ERC20/utils/SafeERC20.sol\":1050:1069  _callOptionalReturn */\n      tag_645\n        /* \"@openzeppelin/contracts/token/ERC20/utils/SafeERC20.sol\":1050:1146  _callOptionalReturn(token, abi.encodeWithSelector(token.transferFrom.selector, from, to, value)) */\n      jump\t// in\n        /* \"contracts/NFTMain.sol\":11130:11516  function _mint(address _to) internal returns (uint) {\r... */\n    tag_349:\n        /* \"contracts/NFTMain.sol\":11176:11180  uint */\n      0x00\n      sub(shl(0xa0, 0x01), 0x01)\n        /* \"contracts/NFTMain.sol\":11201:11218  _to != address(0) */\n      dup3\n      and\n        /* \"contracts/NFTMain.sol\":11193:11242  require(_to != address(0), \"Cannot mint to 0x0.\") */\n      tag_647\n      jumpi\n      mload(0x40)\n      shl(0xe5, 0x461bcd)\n      dup2\n      mstore\n        /* \"#utility.yul\":19981:19983   */\n      0x20\n        /* \"contracts/NFTMain.sol\":11193:11242  require(_to != address(0), \"Cannot mint to 0x0.\") */\n      0x04\n      dup3\n      add\n        /* \"#utility.yul\":19963:19984   */\n      mstore\n        /* \"#utility.yul\":20020:20022   */\n      0x13\n        /* \"#utility.yul\":20000:20018   */\n      0x24\n      dup3\n      add\n        /* \"#utility.yul\":19993:20023   */\n      mstore\n      shl(0x69, 0x21b0b73737ba1036b4b73a103a3790183c1817)\n        /* \"#utility.yul\":20039:20057   */\n      0x44\n      dup3\n      add\n        /* \"#utility.yul\":20032:20081   */\n      mstore\n        /* \"#utility.yul\":20098:20116   */\n      0x64\n      add\n        /* \"contracts/NFTMain.sol\":11193:11242  require(_to != address(0), \"Cannot mint to 0x0.\") */\n      tag_287\n        /* \"#utility.yul\":19779:20122   */\n      jump\n        /* \"contracts/NFTMain.sol\":11193:11242  require(_to != address(0), \"Cannot mint to 0x0.\") */\n    tag_647:\n        /* \"contracts/NFTMain.sol\":2429:2434  20000 */\n      0x4e20\n        /* \"contracts/NFTMain.sol\":11261:11270  numTokens */\n      sload(0x09)\n        /* \"contracts/NFTMain.sol\":11261:11284  numTokens < TOKEN_LIMIT */\n      lt\n        /* \"contracts/NFTMain.sol\":11253:11309  require(numTokens < TOKEN_LIMIT, \"Token limit reached.\") */\n      tag_650\n      jumpi\n      mload(0x40)\n      shl(0xe5, 0x461bcd)\n      dup2\n      mstore\n        /* \"#utility.yul\":11279:11281   */\n      0x20\n        /* \"contracts/NFTMain.sol\":11253:11309  require(numTokens < TOKEN_LIMIT, \"Token limit reached.\") */\n      0x04\n      dup3\n      add\n        /* \"#utility.yul\":11261:11282   */\n      mstore\n        /* \"#utility.yul\":11318:11320   */\n      0x14\n        /* \"#utility.yul\":11298:11316   */\n      0x24\n      dup3\n      add\n        /* \"#utility.yul\":11291:11321   */\n      mstore\n      shl(0x61, 0x2a37b5b2b7103634b6b4ba103932b0b1b432b217)\n        /* \"#utility.yul\":11337:11355   */\n      0x44\n      dup3\n      add\n        /* \"#utility.yul\":11330:11380   */\n      mstore\n        /* \"#utility.yul\":11397:11415   */\n      0x64\n      add\n        /* \"contracts/NFTMain.sol\":11253:11309  require(numTokens < TOKEN_LIMIT, \"Token limit reached.\") */\n      tag_287\n        /* \"#utility.yul\":11077:11421   */\n      jump\n        /* \"contracts/NFTMain.sol\":11253:11309  require(numTokens < TOKEN_LIMIT, \"Token limit reached.\") */\n    tag_650:\n        /* \"contracts/NFTMain.sol\":11320:11327  uint id */\n      0x00\n        /* \"contracts/NFTMain.sol\":11330:11343  randomIndex() */\n      tag_653\n        /* \"contracts/NFTMain.sol\":11330:11341  randomIndex */\n      tag_654\n        /* \"contracts/NFTMain.sol\":11330:11343  randomIndex() */\n      jump\t// in\n    tag_653:\n        /* \"contracts/NFTMain.sol\":11320:11343  uint id = randomIndex() */\n      swap1\n      pop\n        /* \"contracts/NFTMain.sol\":11368:11377  numTokens */\n      sload(0x09)\n        /* \"contracts/NFTMain.sol\":11380:11381  1 */\n      0x01\n        /* \"contracts/NFTMain.sol\":11368:11381  numTokens + 1 */\n      tag_655\n      swap2\n      swap1\n      tag_461\n      jump\t// in\n    tag_655:\n        /* \"contracts/NFTMain.sol\":11356:11365  numTokens */\n      0x09\n        /* \"contracts/NFTMain.sol\":11356:11381  numTokens = numTokens + 1 */\n      sstore\n        /* \"contracts/NFTMain.sol\":11392:11412  _addNFToken(_to, id) */\n      tag_656\n        /* \"contracts/NFTMain.sol\":11404:11407  _to */\n      dup4\n        /* \"contracts/NFTMain.sol\":11409:11411  id */\n      dup3\n        /* \"contracts/NFTMain.sol\":11392:11403  _addNFToken */\n      tag_657\n        /* \"contracts/NFTMain.sol\":11392:11412  _addNFToken(_to, id) */\n      jump\t// in\n    tag_656:\n        /* \"contracts/NFTMain.sol\":11430:11443  Mint(id, _to) */\n      mload(0x40)\n      sub(shl(0xa0, 0x01), 0x01)\n      dup5\n      and\n      swap1\n        /* \"contracts/NFTMain.sol\":11435:11437  id */\n      dup3\n      swap1\n        /* \"contracts/NFTMain.sol\":11430:11443  Mint(id, _to) */\n      0xf3cea5493d790af0133817606f7350a91d7f154ea52eaa79d179d4d231e50102\n      swap1\n      0x00\n      swap1\n      log3\n        /* \"contracts/NFTMain.sol\":11459:11488  Transfer(address(0), _to, id) */\n      mload(0x40)\n        /* \"contracts/NFTMain.sol\":11485:11487  id */\n      dup2\n      swap1\n      sub(shl(0xa0, 0x01), 0x01)\n        /* \"contracts/NFTMain.sol\":11459:11488  Transfer(address(0), _to, id) */\n      dup6\n      and\n      swap1\n        /* \"contracts/NFTMain.sol\":11476:11477  0 */\n      0x00\n      swap1\n        /* \"contracts/NFTMain.sol\":11459:11488  Transfer(address(0), _to, id) */\n      0xddf252ad1be2c89b69c2b068fc378daa952ba7f163c4a11628f55a4df523b3ef\n      swap1\n        /* \"contracts/NFTMain.sol\":11476:11477  0 */\n      dup3\n      swap1\n        /* \"contracts/NFTMain.sol\":11459:11488  Transfer(address(0), _to, id) */\n      log4\n        /* \"contracts/NFTMain.sol\":11506:11508  id */\n      swap3\n        /* \"contracts/NFTMain.sol\":11130:11516  function _mint(address _to) internal returns (uint) {\r... */\n      swap2\n      pop\n      pop\n      jump\t// out\n        /* \"contracts/NFTMain.sol\":8315:8622  function _transfer(address _to, uint256 _tokenId) internal {\r... */\n    tag_377:\n        /* \"contracts/NFTMain.sol\":8385:8397  address from */\n      0x00\n        /* \"contracts/NFTMain.sol\":8400:8419  idToOwner[_tokenId] */\n      dup2\n      dup2\n      mstore\n        /* \"contracts/NFTMain.sol\":8400:8409  idToOwner */\n      0x02\n        /* \"contracts/NFTMain.sol\":8400:8419  idToOwner[_tokenId] */\n      0x20\n      mstore\n      0x40\n      swap1\n      keccak256\n      sload\n      sub(shl(0xa0, 0x01), 0x01)\n      and\n        /* \"contracts/NFTMain.sol\":8430:8454  _clearApproval(_tokenId) */\n      tag_659\n        /* \"contracts/NFTMain.sol\":8410:8418  _tokenId */\n      dup3\n        /* \"contracts/NFTMain.sol\":8430:8444  _clearApproval */\n      tag_660\n        /* \"contracts/NFTMain.sol\":8430:8454  _clearApproval(_tokenId) */\n      jump\t// in\n    tag_659:\n        /* \"contracts/NFTMain.sol\":19555:19587  listing(false, address(0), 0, 0) */\n      0x40\n      dup1\n      mload\n      0x80\n      dup2\n      add\n      dup3\n      mstore\n      0x00\n      dup1\n      dup3\n      mstore\n      0x20\n      dup1\n      dup4\n      add\n      dup3\n      dup2\n      mstore\n      dup4\n      dup6\n      add\n      dup4\n      dup2\n      mstore\n      0x60\n      dup6\n      add\n      dup5\n      dup2\n      mstore\n        /* \"contracts/NFTMain.sol\":19538:19552  list[_tokenId] */\n      dup9\n      dup6\n      mstore\n        /* \"contracts/NFTMain.sol\":19538:19542  list */\n      0x4e37\n        /* \"contracts/NFTMain.sol\":19538:19552  list[_tokenId] */\n      swap1\n      swap4\n      mstore\n      swap5\n      swap1\n      swap3\n      keccak256\n        /* \"contracts/NFTMain.sol\":19538:19587  list[_tokenId] = listing(false, address(0), 0, 0) */\n      swap3\n      mload\n      dup4\n      sload\n      swap3\n      mload\n      not(sub(shl(0xa8, 0x01), 0x01))\n      swap1\n      swap4\n      and\n      swap1\n      iszero\n      iszero\n      not(sub(shl(0xa8, 0x01), 0x0100))\n      and\n      or\n      0x0100\n      sub(shl(0xa0, 0x01), 0x01)\n      swap1\n      swap4\n      and\n      swap3\n      swap1\n      swap3\n      mul\n      swap2\n      swap1\n      swap2\n      or\n      dup3\n      sstore\n      swap2\n      mload\n      0x01\n      dup3\n      add\n      sstore\n      swap1\n      mload\n      0x02\n      swap1\n      swap2\n      add\n      sstore\n        /* \"contracts/NFTMain.sol\":8500:8530  _removeNFToken(from, _tokenId) */\n      tag_663\n        /* \"contracts/NFTMain.sol\":8515:8519  from */\n      dup2\n        /* \"contracts/NFTMain.sol\":8521:8529  _tokenId */\n      dup4\n        /* \"contracts/NFTMain.sol\":8500:8514  _removeNFToken */\n      tag_664\n        /* \"contracts/NFTMain.sol\":8500:8530  _removeNFToken(from, _tokenId) */\n      jump\t// in\n    tag_663:\n        /* \"contracts/NFTMain.sol\":8541:8567  _addNFToken(_to, _tokenId) */\n      tag_665\n        /* \"contracts/NFTMain.sol\":8553:8556  _to */\n      dup4\n        /* \"contracts/NFTMain.sol\":8558:8566  _tokenId */\n      dup4\n        /* \"contracts/NFTMain.sol\":8541:8552  _addNFToken */\n      tag_657\n        /* \"contracts/NFTMain.sol\":8541:8567  _addNFToken(_to, _tokenId) */\n      jump\t// in\n    tag_665:\n        /* \"contracts/NFTMain.sol\":8605:8613  _tokenId */\n      dup2\n        /* \"contracts/NFTMain.sol\":8600:8603  _to */\n      dup4\n      sub(shl(0xa0, 0x01), 0x01)\n        /* \"contracts/NFTMain.sol\":8585:8614  Transfer(from, _to, _tokenId) */\n      and\n        /* \"contracts/NFTMain.sol\":8594:8598  from */\n      dup3\n      sub(shl(0xa0, 0x01), 0x01)\n        /* \"contracts/NFTMain.sol\":8585:8614  Transfer(from, _to, _tokenId) */\n      and\n      0xddf252ad1be2c89b69c2b068fc378daa952ba7f163c4a11628f55a4df523b3ef\n      mload(0x40)\n      mload(0x40)\n      dup1\n      swap2\n      sub\n      swap1\n      log4\n        /* \"contracts/NFTMain.sol\":8374:8622  {\r... */\n      pop\n        /* \"contracts/NFTMain.sol\":8315:8622  function _transfer(address _to, uint256 _tokenId) internal {\r... */\n      pop\n      pop\n      jump\t// out\n        /* \"contracts/NFTMain.sol\":1757:1855  function div(uint256 a, uint256 b) internal pure returns (uint256) {\r... */\n    tag_412:\n        /* \"contracts/NFTMain.sol\":1815:1822  uint256 */\n      0x00\n        /* \"contracts/NFTMain.sol\":1842:1847  a / b */\n      tag_633\n        /* \"contracts/NFTMain.sol\":1846:1847  b */\n      dup3\n        /* \"contracts/NFTMain.sol\":1842:1843  a */\n      dup5\n        /* \"contracts/NFTMain.sol\":1842:1847  a / b */\n      tag_639\n      jump\t// in\n        /* \"contracts/NFTMain.sol\":12579:13131  function _safeTransferFrom(address _from,  address _to,  uint256 _tokenId,  bytes memory _data) private canTransfer(_tokenId) validNFToken(_tokenId) {\r... */\n    tag_433:\n        /* \"contracts/NFTMain.sol\":3978:3996  address tokenOwner */\n      0x00\n        /* \"contracts/NFTMain.sol\":3999:4018  idToOwner[_tokenId] */\n      dup3\n      dup2\n      mstore\n        /* \"contracts/NFTMain.sol\":3999:4008  idToOwner */\n      0x02\n        /* \"contracts/NFTMain.sol\":3999:4018  idToOwner[_tokenId] */\n      0x20\n      mstore\n      0x40\n      swap1\n      keccak256\n      sload\n        /* \"contracts/NFTMain.sol\":12695:12703  _tokenId */\n      dup3\n      swap1\n      sub(shl(0xa0, 0x01), 0x01)\n        /* \"contracts/NFTMain.sol\":3999:4018  idToOwner[_tokenId] */\n      and\n        /* \"contracts/NFTMain.sol\":4065:4075  msg.sender */\n      caller\n        /* \"contracts/NFTMain.sol\":4051:4075  tokenOwner == msg.sender */\n      dup2\n      eq\n      dup1\n        /* \"contracts/NFTMain.sol\":4051:4128  tokenOwner == msg.sender\r... */\n      tag_669\n      jumpi\n      pop\n        /* \"contracts/NFTMain.sol\":4092:4114  idToApproval[_tokenId] */\n      0x00\n      dup3\n      dup2\n      mstore\n        /* \"contracts/NFTMain.sol\":4092:4104  idToApproval */\n      0x03\n        /* \"contracts/NFTMain.sol\":4092:4114  idToApproval[_tokenId] */\n      0x20\n      mstore\n      0x40\n      swap1\n      keccak256\n      sload\n      sub(shl(0xa0, 0x01), 0x01)\n      and\n        /* \"contracts/NFTMain.sol\":4118:4128  msg.sender */\n      caller\n        /* \"contracts/NFTMain.sol\":4092:4128  idToApproval[_tokenId] == msg.sender */\n      eq\n        /* \"contracts/NFTMain.sol\":4051:4128  tokenOwner == msg.sender\r... */\n    tag_669:\n        /* \"contracts/NFTMain.sol\":4051:4185  tokenOwner == msg.sender\r... */\n      dup1\n      tag_670\n      jumpi\n      pop\n      sub(shl(0xa0, 0x01), 0x01)\n        /* \"contracts/NFTMain.sol\":4145:4173  ownerToOperators[tokenOwner] */\n      dup2\n      and\n      0x00\n      swap1\n      dup2\n      mstore\n        /* \"contracts/NFTMain.sol\":4145:4161  ownerToOperators */\n      0x04\n        /* \"contracts/NFTMain.sol\":4145:4173  ownerToOperators[tokenOwner] */\n      0x20\n      swap1\n      dup2\n      mstore\n      0x40\n      dup1\n      dup4\n      keccak256\n        /* \"contracts/NFTMain.sol\":4174:4184  msg.sender */\n      caller\n        /* \"contracts/NFTMain.sol\":4145:4185  ownerToOperators[tokenOwner][msg.sender] */\n      dup5\n      mstore\n      swap1\n      swap2\n      mstore\n      swap1\n      keccak256\n      sload\n      0xff\n      and\n        /* \"contracts/NFTMain.sol\":4051:4185  tokenOwner == msg.sender\r... */\n    tag_670:\n        /* \"contracts/NFTMain.sol\":4029:4216  require(\r... */\n      tag_671\n      jumpi\n      mload(0x40)\n      shl(0xe5, 0x461bcd)\n      dup2\n      mstore\n        /* \"#utility.yul\":15234:15236   */\n      0x20\n        /* \"contracts/NFTMain.sol\":4029:4216  require(\r... */\n      0x04\n      dup3\n      add\n        /* \"#utility.yul\":15216:15237   */\n      mstore\n        /* \"#utility.yul\":15273:15275   */\n      0x10\n        /* \"#utility.yul\":15253:15271   */\n      0x24\n      dup3\n      add\n        /* \"#utility.yul\":15246:15276   */\n      mstore\n      shl(0x81, 0x21b0b73737ba103a3930b739b332b917)\n        /* \"#utility.yul\":15292:15310   */\n      0x44\n      dup3\n      add\n        /* \"#utility.yul\":15285:15331   */\n      mstore\n        /* \"#utility.yul\":15348:15366   */\n      0x64\n      add\n        /* \"contracts/NFTMain.sol\":4029:4216  require(\r... */\n      tag_287\n        /* \"#utility.yul\":15032:15372   */\n      jump\n        /* \"contracts/NFTMain.sol\":4029:4216  require(\r... */\n    tag_671:\n        /* \"contracts/NFTMain.sol\":4334:4335  0 */\n      0x00\n        /* \"contracts/NFTMain.sol\":4303:4322  idToOwner[_tokenId] */\n      dup5\n      dup2\n      mstore\n        /* \"contracts/NFTMain.sol\":4303:4312  idToOwner */\n      0x02\n        /* \"contracts/NFTMain.sol\":4303:4322  idToOwner[_tokenId] */\n      0x20\n      mstore\n      0x40\n      swap1\n      keccak256\n      sload\n        /* \"contracts/NFTMain.sol\":12718:12726  _tokenId */\n      dup5\n      swap1\n      sub(shl(0xa0, 0x01), 0x01)\n        /* \"contracts/NFTMain.sol\":4303:4322  idToOwner[_tokenId] */\n      and\n        /* \"contracts/NFTMain.sol\":4295:4355  require(idToOwner[_tokenId] != address(0), \"Invalid token.\") */\n      tag_674\n      jumpi\n      mload(0x40)\n      shl(0xe5, 0x461bcd)\n      dup2\n      mstore\n      0x04\n      add\n      tag_287\n      swap1\n      tag_300\n      jump\t// in\n    tag_674:\n        /* \"contracts/NFTMain.sol\":12739:12757  address tokenOwner */\n      0x00\n        /* \"contracts/NFTMain.sol\":12760:12779  idToOwner[_tokenId] */\n      dup6\n      dup2\n      mstore\n        /* \"contracts/NFTMain.sol\":12760:12769  idToOwner */\n      0x02\n        /* \"contracts/NFTMain.sol\":12760:12779  idToOwner[_tokenId] */\n      0x20\n      mstore\n      0x40\n      swap1\n      keccak256\n      sload\n      sub(shl(0xa0, 0x01), 0x01)\n      swap1\n      dup2\n      and\n      swap1\n        /* \"contracts/NFTMain.sol\":12798:12817  tokenOwner == _from */\n      dup9\n      and\n      dup2\n      eq\n        /* \"contracts/NFTMain.sol\":12790:12838  require(tokenOwner == _from, \"Incorrect owner.\") */\n      tag_677\n      jumpi\n      mload(0x40)\n      shl(0xe5, 0x461bcd)\n      dup2\n      mstore\n        /* \"#utility.yul\":18114:18116   */\n      0x20\n        /* \"contracts/NFTMain.sol\":12790:12838  require(tokenOwner == _from, \"Incorrect owner.\") */\n      0x04\n      dup3\n      add\n        /* \"#utility.yul\":18096:18117   */\n      mstore\n        /* \"#utility.yul\":18153:18155   */\n      0x10\n        /* \"#utility.yul\":18133:18151   */\n      0x24\n      dup3\n      add\n        /* \"#utility.yul\":18126:18156   */\n      mstore\n      shl(0x81, 0x24b731b7b93932b1ba1037bbb732b917)\n        /* \"#utility.yul\":18172:18190   */\n      0x44\n      dup3\n      add\n        /* \"#utility.yul\":18165:18211   */\n      mstore\n        /* \"#utility.yul\":18228:18246   */\n      0x64\n      add\n        /* \"contracts/NFTMain.sol\":12790:12838  require(tokenOwner == _from, \"Incorrect owner.\") */\n      tag_287\n        /* \"#utility.yul\":17912:18252   */\n      jump\n        /* \"contracts/NFTMain.sol\":12790:12838  require(tokenOwner == _from, \"Incorrect owner.\") */\n    tag_677:\n      sub(shl(0xa0, 0x01), 0x01)\n        /* \"contracts/NFTMain.sol\":12857:12874  _to != address(0) */\n      dup8\n      and\n        /* \"contracts/NFTMain.sol\":12849:12875  require(_to != address(0)) */\n      tag_680\n      jumpi\n      0x00\n      dup1\n      revert\n    tag_680:\n        /* \"contracts/NFTMain.sol\":12888:12912  _transfer(_to, _tokenId) */\n      tag_681\n        /* \"contracts/NFTMain.sol\":12898:12901  _to */\n      dup8\n        /* \"contracts/NFTMain.sol\":12903:12911  _tokenId */\n      dup8\n        /* \"contracts/NFTMain.sol\":12888:12897  _transfer */\n      tag_377\n        /* \"contracts/NFTMain.sol\":12888:12912  _transfer(_to, _tokenId) */\n      jump\t// in\n    tag_681:\n        /* \"contracts/NFTMain.sol\":5213:5231  extcodesize(_addr) */\n      dup7\n      extcodesize\n        /* \"contracts/NFTMain.sol\":5282:5290  size > 0 */\n      iszero\n        /* \"contracts/NFTMain.sol\":12925:13124  if (isContract(_to)) {\r... */\n      tag_684\n      jumpi\n        /* \"contracts/NFTMain.sol\":12977:13054  ERC721TokenReceiver(_to).onERC721Received(msg.sender, _from, _tokenId, _data) */\n      mload(0x40)\n      shl(0xe1, 0x0a85bd01)\n      dup2\n      mstore\n        /* \"contracts/NFTMain.sol\":12961:12974  bytes4 retval */\n      0x00\n      swap1\n      sub(shl(0xa0, 0x01), 0x01)\n        /* \"contracts/NFTMain.sol\":12977:13018  ERC721TokenReceiver(_to).onERC721Received */\n      dup10\n      and\n      swap1\n      0x150b7a02\n      swap1\n        /* \"contracts/NFTMain.sol\":12977:13054  ERC721TokenReceiver(_to).onERC721Received(msg.sender, _from, _tokenId, _data) */\n      tag_685\n      swap1\n        /* \"contracts/NFTMain.sol\":13019:13029  msg.sender */\n      caller\n      swap1\n        /* \"contracts/NFTMain.sol\":13031:13036  _from */\n      dup14\n      swap1\n        /* \"contracts/NFTMain.sol\":13038:13046  _tokenId */\n      dup13\n      swap1\n        /* \"contracts/NFTMain.sol\":13048:13053  _data */\n      dup13\n      swap1\n        /* \"contracts/NFTMain.sol\":12977:13054  ERC721TokenReceiver(_to).onERC721Received(msg.sender, _from, _tokenId, _data) */\n      0x04\n      add\n      tag_686\n      jump\t// in\n    tag_685:\n      0x20\n      mload(0x40)\n      dup1\n      dup4\n      sub\n      dup2\n      0x00\n      dup8\n      dup1\n      extcodesize\n      iszero\n      dup1\n      iszero\n      tag_687\n      jumpi\n      0x00\n      dup1\n      revert\n    tag_687:\n      pop\n      gas\n      call\n      iszero\n      dup1\n      iszero\n      tag_689\n      jumpi\n      returndatasize\n      0x00\n      dup1\n      returndatacopy\n      revert(0x00, returndatasize)\n    tag_689:\n      pop\n      pop\n      pop\n      pop\n      mload(0x40)\n      returndatasize\n      not(0x1f)\n      0x1f\n      dup3\n      add\n      and\n      dup3\n      add\n      dup1\n      0x40\n      mstore\n      pop\n      dup2\n      add\n      swap1\n      tag_690\n      swap2\n      swap1\n      tag_691\n      jump\t// in\n    tag_690:\n        /* \"contracts/NFTMain.sol\":12961:13054  bytes4 retval = ERC721TokenReceiver(_to).onERC721Received(msg.sender, _from, _tokenId, _data) */\n      swap1\n      pop\n      not(sub(shl(0xe0, 0x01), 0x01))\n        /* \"contracts/NFTMain.sol\":13077:13111  retval == MAGIC_ON_ERC721_RECEIVED */\n      dup2\n      and\n      shl(0xe1, 0x0a85bd01)\n      eq\n        /* \"contracts/NFTMain.sol\":13069:13112  require(retval == MAGIC_ON_ERC721_RECEIVED) */\n      tag_692\n      jumpi\n      0x00\n      dup1\n      revert\n    tag_692:\n        /* \"contracts/NFTMain.sol\":12946:13124  {\r... */\n      pop\n        /* \"contracts/NFTMain.sol\":12925:13124  if (isContract(_to)) {\r... */\n    tag_684:\n        /* \"contracts/NFTMain.sol\":12728:13131  {\r... */\n      pop\n        /* \"contracts/NFTMain.sol\":4227:4228  _ */\n      pop\n        /* \"contracts/NFTMain.sol\":3967:4236  {\r... */\n      pop\n        /* \"contracts/NFTMain.sol\":12579:13131  function _safeTransferFrom(address _from,  address _to,  uint256 _tokenId,  bytes memory _data) private canTransfer(_tokenId) validNFToken(_tokenId) {\r... */\n      pop\n      pop\n      pop\n      pop\n      pop\n      jump\t// out\n        /* \"@openzeppelin/contracts/access/Ownable.sol\":2270:2457  function _transferOwnership(address newOwner) internal virtual {... */\n    tag_481:\n        /* \"@openzeppelin/contracts/access/Ownable.sol\":2343:2359  address oldOwner */\n      0x00\n        /* \"@openzeppelin/contracts/access/Ownable.sol\":2362:2368  _owner */\n      dup1\n      sload\n      sub(shl(0xa0, 0x01), 0x01)\n        /* \"@openzeppelin/contracts/access/Ownable.sol\":2378:2395  _owner = newOwner */\n      dup4\n      dup2\n      and\n      not(sub(shl(0xa0, 0x01), 0x01))\n      dup4\n      and\n      dup2\n      or\n      dup5\n      sstore\n        /* \"@openzeppelin/contracts/access/Ownable.sol\":2410:2450  OwnershipTransferred(oldOwner, newOwner) */\n      mload(0x40)\n        /* \"@openzeppelin/contracts/access/Ownable.sol\":2362:2368  _owner */\n      swap2\n      swap1\n      swap3\n      and\n      swap3\n      dup4\n      swap2\n        /* \"@openzeppelin/contracts/access/Ownable.sol\":2410:2450  OwnershipTransferred(oldOwner, newOwner) */\n      0x8be0079c531659141344cd1fd0a4f28419497f9722a3daafe3b4186f6b6457e0\n      swap2\n        /* \"@openzeppelin/contracts/access/Ownable.sol\":2343:2359  address oldOwner */\n      swap1\n        /* \"@openzeppelin/contracts/access/Ownable.sol\":2410:2450  OwnershipTransferred(oldOwner, newOwner) */\n      log3\n        /* \"@openzeppelin/contracts/access/Ownable.sol\":2333:2457  {... */\n      pop\n        /* \"@openzeppelin/contracts/access/Ownable.sol\":2270:2457  function _transferOwnership(address newOwner) internal virtual {... */\n      pop\n      jump\t// out\n        /* \"contracts/NFTMain.sol\":14317:14872  function toString(uint256 value) internal pure returns (string memory) {\r... */\n    tag_533:\n        /* \"contracts/NFTMain.sol\":14373:14386  string memory */\n      0x60\n        /* \"contracts/NFTMain.sol\":14403:14413  value == 0 */\n      dup2\n        /* \"contracts/NFTMain.sol\":14399:14452  if (value == 0) {\r... */\n      tag_696\n      jumpi\n      pop\n      pop\n        /* \"contracts/NFTMain.sol\":14430:14440  return \"0\" */\n      0x40\n      dup1\n      mload\n      dup1\n      dup3\n      add\n      swap1\n      swap2\n      mstore\n      0x01\n      dup2\n      mstore\n      shl(0xfc, 0x03)\n      0x20\n      dup3\n      add\n      mstore\n      swap1\n        /* \"contracts/NFTMain.sol\":14317:14872  function toString(uint256 value) internal pure returns (string memory) {\r... */\n      jump\t// out\n        /* \"contracts/NFTMain.sol\":14399:14452  if (value == 0) {\r... */\n    tag_696:\n        /* \"contracts/NFTMain.sol\":14477:14482  value */\n      dup2\n        /* \"contracts/NFTMain.sol\":14462:14474  uint256 temp */\n      0x00\n        /* \"contracts/NFTMain.sol\":14518:14596  while (temp != 0) {\r... */\n    tag_697:\n        /* \"contracts/NFTMain.sol\":14525:14534  temp != 0 */\n      dup2\n      iszero\n        /* \"contracts/NFTMain.sol\":14518:14596  while (temp != 0) {\r... */\n      tag_698\n      jumpi\n        /* \"contracts/NFTMain.sol\":14551:14559  digits++ */\n      dup1\n      tag_699\n      dup2\n      tag_345\n      jump\t// in\n    tag_699:\n      swap2\n      pop\n        /* \"contracts/NFTMain.sol\":14574:14584  temp /= 10 */\n      tag_700\n      swap1\n      pop\n        /* \"contracts/NFTMain.sol\":14582:14584  10 */\n      0x0a\n        /* \"contracts/NFTMain.sol\":14574:14584  temp /= 10 */\n      dup4\n      tag_639\n      jump\t// in\n    tag_700:\n      swap2\n      pop\n        /* \"contracts/NFTMain.sol\":14518:14596  while (temp != 0) {\r... */\n      jump(tag_697)\n    tag_698:\n        /* \"contracts/NFTMain.sol\":14606:14625  bytes memory buffer */\n      0x00\n        /* \"contracts/NFTMain.sol\":14638:14644  digits */\n      dup2\n        /* \"contracts/NFTMain.sol\":14628:14645  new bytes(digits) */\n      0xffffffffffffffff\n      dup2\n      gt\n      iszero\n      tag_702\n      jumpi\n      tag_702\n      tag_703\n      jump\t// in\n    tag_702:\n      mload(0x40)\n      swap1\n      dup1\n      dup3\n      mstore\n      dup1\n      0x1f\n      add\n      not(0x1f)\n      and\n      0x20\n      add\n      dup3\n      add\n      0x40\n      mstore\n      dup1\n      iszero\n      tag_704\n      jumpi\n      0x20\n      dup3\n      add\n      dup2\n      dup1\n      calldatasize\n      dup4\n      calldatacopy\n      add\n      swap1\n      pop\n    tag_704:\n      pop\n        /* \"contracts/NFTMain.sol\":14606:14645  bytes memory buffer = new bytes(digits) */\n      swap1\n      pop\n        /* \"contracts/NFTMain.sol\":14656:14669  uint256 index */\n      0x00\n        /* \"contracts/NFTMain.sol\":14672:14682  digits - 1 */\n      tag_705\n        /* \"contracts/NFTMain.sol\":14681:14682  1 */\n      0x01\n        /* \"contracts/NFTMain.sol\":14672:14678  digits */\n      dup5\n        /* \"contracts/NFTMain.sol\":14672:14682  digits - 1 */\n      tag_347\n      jump\t// in\n    tag_705:\n        /* \"contracts/NFTMain.sol\":14656:14682  uint256 index = digits - 1 */\n      swap1\n      pop\n        /* \"contracts/NFTMain.sol\":14700:14705  value */\n      dup6\n        /* \"contracts/NFTMain.sol\":14693:14705  temp = value */\n      swap4\n      pop\n        /* \"contracts/NFTMain.sol\":14716:14833  while (temp != 0) {\r... */\n    tag_706:\n        /* \"contracts/NFTMain.sol\":14723:14732  temp != 0 */\n      dup4\n      iszero\n        /* \"contracts/NFTMain.sol\":14716:14833  while (temp != 0) {\r... */\n      tag_707\n      jumpi\n        /* \"contracts/NFTMain.sol\":14785:14794  temp % 10 */\n      tag_708\n        /* \"contracts/NFTMain.sol\":14792:14794  10 */\n      0x0a\n        /* \"contracts/NFTMain.sol\":14785:14789  temp */\n      dup6\n        /* \"contracts/NFTMain.sol\":14785:14794  temp % 10 */\n      tag_709\n      jump\t// in\n    tag_708:\n        /* \"contracts/NFTMain.sol\":14780:14794  48 + temp % 10 */\n      tag_710\n      swap1\n        /* \"contracts/NFTMain.sol\":14780:14782  48 */\n      0x30\n        /* \"contracts/NFTMain.sol\":14780:14794  48 + temp % 10 */\n      tag_461\n      jump\t// in\n    tag_710:\n        /* \"contracts/NFTMain.sol\":14767:14796  bytes1(uint8(48 + temp % 10)) */\n      0xf8\n      shl\n        /* \"contracts/NFTMain.sol\":14749:14755  buffer */\n      dup3\n        /* \"contracts/NFTMain.sol\":14756:14763  index-- */\n      dup3\n      tag_711\n      dup2\n      tag_712\n      jump\t// in\n    tag_711:\n      swap4\n      pop\n        /* \"contracts/NFTMain.sol\":14749:14764  buffer[index--] */\n      dup2\n      mload\n      dup2\n      lt\n      tag_714\n      jumpi\n      tag_714\n      tag_429\n      jump\t// in\n    tag_714:\n      0x20\n      add\n      add\n        /* \"contracts/NFTMain.sol\":14749:14796  buffer[index--] = bytes1(uint8(48 + temp % 10)) */\n      swap1\n      not(sub(shl(0xf8, 0x01), 0x01))\n      and\n      swap1\n      dup2\n      0x00\n      byte\n      swap1\n      mstore8\n      pop\n        /* \"contracts/NFTMain.sol\":14811:14821  temp /= 10 */\n      tag_715\n        /* \"contracts/NFTMain.sol\":14819:14821  10 */\n      0x0a\n        /* \"contracts/NFTMain.sol\":14811:14821  temp /= 10 */\n      dup6\n      tag_639\n      jump\t// in\n    tag_715:\n      swap4\n      pop\n        /* \"contracts/NFTMain.sol\":14716:14833  while (temp != 0) {\r... */\n      jump(tag_706)\n    tag_707:\n      pop\n        /* \"contracts/NFTMain.sol\":14857:14863  buffer */\n      swap5\n        /* \"contracts/NFTMain.sol\":14317:14872  function toString(uint256 value) internal pure returns (string memory) {\r... */\n      swap4\n      pop\n      pop\n      pop\n      pop\n      jump\t// out\n        /* \"@openzeppelin/contracts/token/ERC20/utils/SafeERC20.sol\":3207:3913  function _callOptionalReturn(IERC20 token, bytes memory data) private {... */\n    tag_645:\n        /* \"@openzeppelin/contracts/token/ERC20/utils/SafeERC20.sol\":3626:3649  bytes memory returndata */\n      0x00\n        /* \"@openzeppelin/contracts/token/ERC20/utils/SafeERC20.sol\":3652:3721  address(token).functionCall(data, \"SafeERC20: low-level call failed\") */\n      tag_717\n        /* \"@openzeppelin/contracts/token/ERC20/utils/SafeERC20.sol\":3680:3684  data */\n      dup3\n        /* \"@openzeppelin/contracts/token/ERC20/utils/SafeERC20.sol\":3652:3721  address(token).functionCall(data, \"SafeERC20: low-level call failed\") */\n      mload(0x40)\n      dup1\n      0x40\n      add\n      0x40\n      mstore\n      dup1\n      0x20\n      dup2\n      mstore\n      0x20\n      add\n      0x5361666545524332303a206c6f772d6c6576656c2063616c6c206661696c6564\n      dup2\n      mstore\n      pop\n        /* \"@openzeppelin/contracts/token/ERC20/utils/SafeERC20.sol\":3660:3665  token */\n      dup6\n      sub(shl(0xa0, 0x01), 0x01)\n        /* \"@openzeppelin/contracts/token/ERC20/utils/SafeERC20.sol\":3652:3679  address(token).functionCall */\n      and\n      tag_718\n      swap1\n        /* \"@openzeppelin/contracts/token/ERC20/utils/SafeERC20.sol\":3652:3721  address(token).functionCall(data, \"SafeERC20: low-level call failed\") */\n      swap3\n      swap2\n      swap1\n      0xffffffff\n      and\n      jump\t// in\n    tag_717:\n        /* \"@openzeppelin/contracts/token/ERC20/utils/SafeERC20.sol\":3735:3752  returndata.length */\n      dup1\n      mload\n        /* \"@openzeppelin/contracts/token/ERC20/utils/SafeERC20.sol\":3626:3721  bytes memory returndata = address(token).functionCall(data, \"SafeERC20: low-level call failed\") */\n      swap1\n      swap2\n      pop\n        /* \"@openzeppelin/contracts/token/ERC20/utils/SafeERC20.sol\":3735:3756  returndata.length > 0 */\n      iszero\n        /* \"@openzeppelin/contracts/token/ERC20/utils/SafeERC20.sol\":3731:3907  if (returndata.length > 0) {... */\n      tag_432\n      jumpi\n        /* \"@openzeppelin/contracts/token/ERC20/utils/SafeERC20.sol\":3830:3840  returndata */\n      dup1\n        /* \"@openzeppelin/contracts/token/ERC20/utils/SafeERC20.sol\":3819:3849  abi.decode(returndata, (bool)) */\n      dup1\n      0x20\n      add\n      swap1\n      mload\n      dup2\n      add\n      swap1\n      tag_720\n      swap2\n      swap1\n      tag_721\n      jump\t// in\n    tag_720:\n        /* \"@openzeppelin/contracts/token/ERC20/utils/SafeERC20.sol\":3811:3896  require(abi.decode(returndata, (bool)), \"SafeERC20: ERC20 operation did not succeed\") */\n      tag_432\n      jumpi\n      mload(0x40)\n      shl(0xe5, 0x461bcd)\n      dup2\n      mstore\n        /* \"#utility.yul\":20329:20331   */\n      0x20\n        /* \"@openzeppelin/contracts/token/ERC20/utils/SafeERC20.sol\":3811:3896  require(abi.decode(returndata, (bool)), \"SafeERC20: ERC20 operation did not succeed\") */\n      0x04\n      dup3\n      add\n        /* \"#utility.yul\":20311:20332   */\n      mstore\n        /* \"#utility.yul\":20368:20370   */\n      0x2a\n        /* \"#utility.yul\":20348:20366   */\n      0x24\n      dup3\n      add\n        /* \"#utility.yul\":20341:20371   */\n      mstore\n        /* \"#utility.yul\":20407:20441   */\n      0x5361666545524332303a204552433230206f7065726174696f6e20646964206e\n        /* \"#utility.yul\":20387:20405   */\n      0x44\n      dup3\n      add\n        /* \"#utility.yul\":20380:20442   */\n      mstore\n      shl(0xb2, 0x1bdd081cdd58d8d95959)\n        /* \"#utility.yul\":20458:20476   */\n      0x64\n      dup3\n      add\n        /* \"#utility.yul\":20451:20491   */\n      mstore\n        /* \"#utility.yul\":20508:20527   */\n      0x84\n      add\n        /* \"@openzeppelin/contracts/token/ERC20/utils/SafeERC20.sol\":3811:3896  require(abi.decode(returndata, (bool)), \"SafeERC20: ERC20 operation did not succeed\") */\n      tag_287\n        /* \"#utility.yul\":20127:20533   */\n      jump\n        /* \"contracts/NFTMain.sol\":8630:9464  function randomIndex() internal returns (uint) {\r... */\n    tag_654:\n        /* \"contracts/NFTMain.sol\":8671:8675  uint */\n      0x00\n        /* \"contracts/NFTMain.sol\":8688:8702  uint totalSize */\n      dup1\n        /* \"contracts/NFTMain.sol\":8719:8728  numTokens */\n      sload(0x09)\n        /* \"contracts/NFTMain.sol\":2429:2434  20000 */\n      0x4e20\n        /* \"contracts/NFTMain.sol\":8705:8728  TOKEN_LIMIT - numTokens */\n      tag_726\n      swap2\n      swap1\n      tag_347\n      jump\t// in\n    tag_726:\n        /* \"contracts/NFTMain.sol\":8784:8789  nonce */\n      sload(0x15)\n        /* \"contracts/NFTMain.sol\":8767:8837  abi.encodePacked(nonce, msg.sender, block.difficulty, block.timestamp) */\n      0x40\n      dup1\n      mload\n      0x20\n      dup2\n      add\n        /* \"#utility.yul\":7386:7405   */\n      swap3\n      swap1\n      swap3\n      mstore\n      not(0xffffffffffffffffffffffff)\n        /* \"contracts/NFTMain.sol\":8791:8801  msg.sender */\n      caller\n        /* \"#utility.yul\":7443:7445   */\n      0x60\n        /* \"#utility.yul\":7439:7454   */\n      shl\n        /* \"#utility.yul\":7435:7488   */\n      and\n        /* \"#utility.yul\":7421:7433   */\n      swap1\n      dup3\n      add\n        /* \"#utility.yul\":7414:7489   */\n      mstore\n        /* \"contracts/NFTMain.sol\":8803:8819  block.difficulty */\n      difficulty\n        /* \"#utility.yul\":7505:7517   */\n      0x54\n      dup3\n      add\n        /* \"#utility.yul\":7498:7526   */\n      mstore\n        /* \"contracts/NFTMain.sol\":8821:8836  block.timestamp */\n      timestamp\n        /* \"#utility.yul\":7542:7554   */\n      0x74\n      dup3\n      add\n        /* \"#utility.yul\":7535:7563   */\n      mstore\n        /* \"contracts/NFTMain.sol\":8688:8728  uint totalSize = TOKEN_LIMIT - numTokens */\n      swap1\n      swap2\n      pop\n        /* \"contracts/NFTMain.sol\":8739:8749  uint index */\n      0x00\n      swap1\n        /* \"contracts/NFTMain.sol\":8688:8728  uint totalSize = TOKEN_LIMIT - numTokens */\n      dup3\n      swap1\n        /* \"#utility.yul\":7579:7592   */\n      0x94\n      add\n        /* \"contracts/NFTMain.sol\":8767:8837  abi.encodePacked(nonce, msg.sender, block.difficulty, block.timestamp) */\n      mload(0x40)\n      0x20\n      dup2\n      dup4\n      sub\n      sub\n      dup2\n      mstore\n      swap1\n      0x40\n      mstore\n        /* \"contracts/NFTMain.sol\":8757:8838  keccak256(abi.encodePacked(nonce, msg.sender, block.difficulty, block.timestamp)) */\n      dup1\n      mload\n      swap1\n      0x20\n      add\n      keccak256\n        /* \"contracts/NFTMain.sol\":8752:8839  uint(keccak256(abi.encodePacked(nonce, msg.sender, block.difficulty, block.timestamp))) */\n      0x00\n      shr\n        /* \"contracts/NFTMain.sol\":8752:8851  uint(keccak256(abi.encodePacked(nonce, msg.sender, block.difficulty, block.timestamp))) % totalSize */\n      tag_729\n      swap2\n      swap1\n      tag_709\n      jump\t// in\n    tag_729:\n        /* \"contracts/NFTMain.sol\":8739:8851  uint index = uint(keccak256(abi.encodePacked(nonce, msg.sender, block.difficulty, block.timestamp))) % totalSize */\n      swap1\n      pop\n        /* \"contracts/NFTMain.sol\":8862:8872  uint value */\n      0x00\n        /* \"contracts/NFTMain.sol\":8891:8898  indices */\n      0x16\n        /* \"contracts/NFTMain.sol\":8899:8904  index */\n      dup3\n        /* \"contracts/NFTMain.sol\":8891:8905  indices[index] */\n      0x4e20\n      dup2\n      lt\n      tag_731\n      jumpi\n      tag_731\n      tag_429\n      jump\t// in\n    tag_731:\n      add\n      sload\n        /* \"contracts/NFTMain.sol\":8891:8910  indices[index] != 0 */\n      iszero\n        /* \"contracts/NFTMain.sol\":8887:9007  if (indices[index] != 0) {\r... */\n      tag_733\n      jumpi\n        /* \"contracts/NFTMain.sol\":8935:8942  indices */\n      0x16\n        /* \"contracts/NFTMain.sol\":8943:8948  index */\n      dup3\n        /* \"contracts/NFTMain.sol\":8935:8949  indices[index] */\n      0x4e20\n      dup2\n      lt\n      tag_735\n      jumpi\n      tag_735\n      tag_429\n      jump\t// in\n    tag_735:\n      add\n      sload\n        /* \"contracts/NFTMain.sol\":8927:8949  value = indices[index] */\n      swap1\n      pop\n        /* \"contracts/NFTMain.sol\":8887:9007  if (indices[index] != 0) {\r... */\n      jump(tag_737)\n    tag_733:\n      pop\n        /* \"contracts/NFTMain.sol\":8990:8995  index */\n      dup1\n        /* \"contracts/NFTMain.sol\":8887:9007  if (indices[index] != 0) {\r... */\n    tag_737:\n        /* \"contracts/NFTMain.sol\":9072:9079  indices */\n      0x16\n        /* \"contracts/NFTMain.sol\":9080:9093  totalSize - 1 */\n      tag_738\n        /* \"contracts/NFTMain.sol\":9092:9093  1 */\n      0x01\n        /* \"contracts/NFTMain.sol\":9080:9089  totalSize */\n      dup6\n        /* \"contracts/NFTMain.sol\":9080:9093  totalSize - 1 */\n      tag_347\n      jump\t// in\n    tag_738:\n        /* \"contracts/NFTMain.sol\":9072:9094  indices[totalSize - 1] */\n      0x4e20\n      dup2\n      lt\n      tag_740\n      jumpi\n      tag_740\n      tag_429\n      jump\t// in\n    tag_740:\n      add\n      sload\n        /* \"contracts/NFTMain.sol\":9068:9351  if (indices[totalSize - 1] == 0) {\r... */\n      tag_742\n      jumpi\n        /* \"contracts/NFTMain.sol\":9197:9210  totalSize - 1 */\n      tag_743\n        /* \"contracts/NFTMain.sol\":9209:9210  1 */\n      0x01\n        /* \"contracts/NFTMain.sol\":9197:9206  totalSize */\n      dup5\n        /* \"contracts/NFTMain.sol\":9197:9210  totalSize - 1 */\n      tag_347\n      jump\t// in\n    tag_743:\n        /* \"contracts/NFTMain.sol\":9180:9187  indices */\n      0x16\n        /* \"contracts/NFTMain.sol\":9188:9193  index */\n      dup4\n        /* \"contracts/NFTMain.sol\":9180:9194  indices[index] */\n      0x4e20\n      dup2\n      lt\n      tag_745\n      jumpi\n      tag_745\n      tag_429\n      jump\t// in\n    tag_745:\n      add\n        /* \"contracts/NFTMain.sol\":9180:9210  indices[index] = totalSize - 1 */\n      sstore\n        /* \"contracts/NFTMain.sol\":9068:9351  if (indices[totalSize - 1] == 0) {\r... */\n      jump(tag_747)\n    tag_742:\n        /* \"contracts/NFTMain.sol\":9317:9324  indices */\n      0x16\n        /* \"contracts/NFTMain.sol\":9325:9338  totalSize - 1 */\n      tag_748\n        /* \"contracts/NFTMain.sol\":9337:9338  1 */\n      0x01\n        /* \"contracts/NFTMain.sol\":9325:9334  totalSize */\n      dup6\n        /* \"contracts/NFTMain.sol\":9325:9338  totalSize - 1 */\n      tag_347\n      jump\t// in\n    tag_748:\n        /* \"contracts/NFTMain.sol\":9317:9339  indices[totalSize - 1] */\n      0x4e20\n      dup2\n      lt\n      tag_750\n      jumpi\n      tag_750\n      tag_429\n      jump\t// in\n    tag_750:\n      add\n      sload\n        /* \"contracts/NFTMain.sol\":9300:9307  indices */\n      0x16\n        /* \"contracts/NFTMain.sol\":9308:9313  index */\n      dup4\n        /* \"contracts/NFTMain.sol\":9300:9314  indices[index] */\n      0x4e20\n      dup2\n      lt\n      tag_753\n      jumpi\n      tag_753\n      tag_429\n      jump\t// in\n    tag_753:\n      add\n        /* \"contracts/NFTMain.sol\":9300:9339  indices[index] = indices[totalSize - 1] */\n      sstore\n        /* \"contracts/NFTMain.sol\":9068:9351  if (indices[totalSize - 1] == 0) {\r... */\n    tag_747:\n        /* \"contracts/NFTMain.sol\":9361:9366  nonce */\n      0x15\n        /* \"contracts/NFTMain.sol\":9361:9368  nonce++ */\n      dup1\n      sload\n      swap1\n        /* \"contracts/NFTMain.sol\":9361:9366  nonce */\n      0x00\n        /* \"contracts/NFTMain.sol\":9361:9368  nonce++ */\n      tag_755\n      dup4\n      tag_345\n      jump\t// in\n    tag_755:\n      swap1\n      swap2\n      sstore\n      pop\n        /* \"contracts/NFTMain.sol\":9444:9456  value.add(1) */\n      tag_756\n      swap1\n      pop\n        /* \"contracts/NFTMain.sol\":9444:9449  value */\n      dup2\n        /* \"contracts/NFTMain.sol\":9454:9455  1 */\n      0x01\n        /* \"contracts/NFTMain.sol\":9444:9453  value.add */\n      tag_328\n        /* \"contracts/NFTMain.sol\":9444:9456  value.add(1) */\n      jump\t// in\n    tag_756:\n        /* \"contracts/NFTMain.sol\":9437:9456  return value.add(1) */\n      swap4\n      pop\n      pop\n      pop\n      pop\n        /* \"contracts/NFTMain.sol\":8630:9464  function randomIndex() internal returns (uint) {\r... */\n      swap1\n      jump\t// out\n        /* \"contracts/NFTMain.sol\":11524:11822  function _addNFToken(address _to, uint256 _tokenId) internal {\r... */\n    tag_657:\n        /* \"contracts/NFTMain.sol\":11635:11636  0 */\n      0x00\n        /* \"contracts/NFTMain.sol\":11604:11623  idToOwner[_tokenId] */\n      dup2\n      dup2\n      mstore\n        /* \"contracts/NFTMain.sol\":11604:11613  idToOwner */\n      0x02\n        /* \"contracts/NFTMain.sol\":11604:11623  idToOwner[_tokenId] */\n      0x20\n      mstore\n      0x40\n      swap1\n      keccak256\n      sload\n      sub(shl(0xa0, 0x01), 0x01)\n      and\n        /* \"contracts/NFTMain.sol\":11604:11637  idToOwner[_tokenId] == address(0) */\n      iszero\n        /* \"contracts/NFTMain.sol\":11596:11668  require(idToOwner[_tokenId] == address(0), \"Cannot add, already owned.\") */\n      tag_758\n      jumpi\n      mload(0x40)\n      shl(0xe5, 0x461bcd)\n      dup2\n      mstore\n        /* \"#utility.yul\":14128:14130   */\n      0x20\n        /* \"contracts/NFTMain.sol\":11596:11668  require(idToOwner[_tokenId] == address(0), \"Cannot add, already owned.\") */\n      0x04\n      dup3\n      add\n        /* \"#utility.yul\":14110:14131   */\n      mstore\n        /* \"#utility.yul\":14167:14169   */\n      0x1a\n        /* \"#utility.yul\":14147:14165   */\n      0x24\n      dup3\n      add\n        /* \"#utility.yul\":14140:14170   */\n      mstore\n        /* \"#utility.yul\":14206:14234   */\n      0x43616e6e6f74206164642c20616c7265616479206f776e65642e000000000000\n        /* \"#utility.yul\":14186:14204   */\n      0x44\n      dup3\n      add\n        /* \"#utility.yul\":14179:14235   */\n      mstore\n        /* \"#utility.yul\":14252:14270   */\n      0x64\n      add\n        /* \"contracts/NFTMain.sol\":11596:11668  require(idToOwner[_tokenId] == address(0), \"Cannot add, already owned.\") */\n      tag_287\n        /* \"#utility.yul\":13926:14276   */\n      jump\n        /* \"contracts/NFTMain.sol\":11596:11668  require(idToOwner[_tokenId] == address(0), \"Cannot add, already owned.\") */\n    tag_758:\n        /* \"contracts/NFTMain.sol\":11679:11698  idToOwner[_tokenId] */\n      0x00\n      dup2\n      dup2\n      mstore\n        /* \"contracts/NFTMain.sol\":11679:11688  idToOwner */\n      0x02\n        /* \"contracts/NFTMain.sol\":11679:11698  idToOwner[_tokenId] */\n      0x20\n      swap1\n      dup2\n      mstore\n      0x40\n      dup1\n      dup4\n      keccak256\n        /* \"contracts/NFTMain.sol\":11679:11704  idToOwner[_tokenId] = _to */\n      dup1\n      sload\n      not(sub(shl(0xa0, 0x01), 0x01))\n      and\n      sub(shl(0xa0, 0x01), 0x01)\n      dup8\n      and\n      swap1\n      dup2\n      or\n      swap1\n      swap2\n      sstore\n        /* \"contracts/NFTMain.sol\":11717:11732  ownerToIds[_to] */\n      dup1\n      dup5\n      mstore\n        /* \"contracts/NFTMain.sol\":11717:11727  ownerToIds */\n      0x05\n        /* \"contracts/NFTMain.sol\":11717:11732  ownerToIds[_to] */\n      dup4\n      mstore\n      swap1\n      dup4\n      keccak256\n        /* \"contracts/NFTMain.sol\":11717:11747  ownerToIds[_to].push(_tokenId) */\n      dup1\n      sload\n      0x01\n      dup2\n      dup2\n      add\n      dup4\n      sstore\n      dup3\n      dup7\n      mstore\n      swap4\n      dup6\n      keccak256\n      add\n      dup6\n      swap1\n      sstore\n        /* \"contracts/NFTMain.sol\":11785:11800  ownerToIds[_to] */\n      swap3\n      mstore\n        /* \"contracts/NFTMain.sol\":11785:11807  ownerToIds[_to].length */\n      swap1\n      sload\n        /* \"contracts/NFTMain.sol\":11785:11814  ownerToIds[_to].length.sub(1) */\n      tag_762\n      swap2\n        /* \"contracts/NFTMain.sol\":11785:11811  ownerToIds[_to].length.sub */\n      tag_333\n        /* \"contracts/NFTMain.sol\":11785:11814  ownerToIds[_to].length.sub(1) */\n      jump\t// in\n    tag_762:\n        /* \"contracts/NFTMain.sol\":11758:11782  idToOwnerIndex[_tokenId] */\n      0x00\n      swap2\n      dup3\n      mstore\n        /* \"contracts/NFTMain.sol\":11758:11772  idToOwnerIndex */\n      0x06\n        /* \"contracts/NFTMain.sol\":11758:11782  idToOwnerIndex[_tokenId] */\n      0x20\n      mstore\n      0x40\n      swap1\n      swap2\n      keccak256\n        /* \"contracts/NFTMain.sol\":11758:11814  idToOwnerIndex[_tokenId] = ownerToIds[_to].length.sub(1) */\n      sstore\n      pop\n        /* \"contracts/NFTMain.sol\":11524:11822  function _addNFToken(address _to, uint256 _tokenId) internal {\r... */\n      jump\t// out\n        /* \"contracts/NFTMain.sol\":13677:13843  function _clearApproval(uint256 _tokenId) private {\r... */\n    tag_660:\n        /* \"contracts/NFTMain.sol\":13776:13777  0 */\n      0x00\n        /* \"contracts/NFTMain.sol\":13742:13764  idToApproval[_tokenId] */\n      dup2\n      dup2\n      mstore\n        /* \"contracts/NFTMain.sol\":13742:13754  idToApproval */\n      0x03\n        /* \"contracts/NFTMain.sol\":13742:13764  idToApproval[_tokenId] */\n      0x20\n      mstore\n      0x40\n      swap1\n      keccak256\n      sload\n      sub(shl(0xa0, 0x01), 0x01)\n      and\n        /* \"contracts/NFTMain.sol\":13742:13778  idToApproval[_tokenId] != address(0) */\n      iszero\n        /* \"contracts/NFTMain.sol\":13738:13836  if (idToApproval[_tokenId] != address(0)) {\r... */\n      tag_593\n      jumpi\n        /* \"contracts/NFTMain.sol\":13802:13824  idToApproval[_tokenId] */\n      0x00\n      swap1\n      dup2\n      mstore\n        /* \"contracts/NFTMain.sol\":13802:13814  idToApproval */\n      0x03\n        /* \"contracts/NFTMain.sol\":13802:13824  idToApproval[_tokenId] */\n      0x20\n      mstore\n      0x40\n      swap1\n      keccak256\n        /* \"contracts/NFTMain.sol\":13795:13824  delete idToApproval[_tokenId] */\n      dup1\n      sload\n      not(sub(shl(0xa0, 0x01), 0x01))\n      and\n      swap1\n      sstore\n        /* \"contracts/NFTMain.sol\":13677:13843  function _clearApproval(uint256 _tokenId) private {\r... */\n      jump\t// out\n        /* \"contracts/NFTMain.sol\":11830:12437  function _removeNFToken(address _from, uint256 _tokenId) internal {\r... */\n    tag_664:\n        /* \"contracts/NFTMain.sol\":11915:11934  idToOwner[_tokenId] */\n      0x00\n      dup2\n      dup2\n      mstore\n        /* \"contracts/NFTMain.sol\":11915:11924  idToOwner */\n      0x02\n        /* \"contracts/NFTMain.sol\":11915:11934  idToOwner[_tokenId] */\n      0x20\n      mstore\n      0x40\n      swap1\n      keccak256\n      sload\n      sub(shl(0xa0, 0x01), 0x01)\n        /* \"contracts/NFTMain.sol\":11915:11943  idToOwner[_tokenId] == _from */\n      dup4\n      dup2\n      and\n        /* \"contracts/NFTMain.sol\":11915:11934  idToOwner[_tokenId] */\n      swap2\n      and\n        /* \"contracts/NFTMain.sol\":11915:11943  idToOwner[_tokenId] == _from */\n      eq\n        /* \"contracts/NFTMain.sol\":11907:11964  require(idToOwner[_tokenId] == _from, \"Incorrect owner.\") */\n      tag_767\n      jumpi\n      mload(0x40)\n      shl(0xe5, 0x461bcd)\n      dup2\n      mstore\n        /* \"#utility.yul\":18114:18116   */\n      0x20\n        /* \"contracts/NFTMain.sol\":11907:11964  require(idToOwner[_tokenId] == _from, \"Incorrect owner.\") */\n      0x04\n      dup3\n      add\n        /* \"#utility.yul\":18096:18117   */\n      mstore\n        /* \"#utility.yul\":18153:18155   */\n      0x10\n        /* \"#utility.yul\":18133:18151   */\n      0x24\n      dup3\n      add\n        /* \"#utility.yul\":18126:18156   */\n      mstore\n      shl(0x81, 0x24b731b7b93932b1ba1037bbb732b917)\n        /* \"#utility.yul\":18172:18190   */\n      0x44\n      dup3\n      add\n        /* \"#utility.yul\":18165:18211   */\n      mstore\n        /* \"#utility.yul\":18228:18246   */\n      0x64\n      add\n        /* \"contracts/NFTMain.sol\":11907:11964  require(idToOwner[_tokenId] == _from, \"Incorrect owner.\") */\n      tag_287\n        /* \"#utility.yul\":17912:18252   */\n      jump\n        /* \"contracts/NFTMain.sol\":11907:11964  require(idToOwner[_tokenId] == _from, \"Incorrect owner.\") */\n    tag_767:\n        /* \"contracts/NFTMain.sol\":11982:12001  idToOwner[_tokenId] */\n      0x00\n      dup2\n      dup2\n      mstore\n        /* \"contracts/NFTMain.sol\":11982:11991  idToOwner */\n      0x02\n        /* \"contracts/NFTMain.sol\":11982:12001  idToOwner[_tokenId] */\n      0x20\n      swap1\n      dup2\n      mstore\n      0x40\n      dup1\n      dup4\n      keccak256\n        /* \"contracts/NFTMain.sol\":11975:12001  delete idToOwner[_tokenId] */\n      dup1\n      sload\n      not(sub(shl(0xa0, 0x01), 0x01))\n      and\n      swap1\n      sstore\n        /* \"contracts/NFTMain.sol\":12043:12057  idToOwnerIndex */\n      0x06\n        /* \"contracts/NFTMain.sol\":12043:12067  idToOwnerIndex[_tokenId] */\n      dup3\n      mstore\n      dup1\n      dup4\n      keccak256\n      sload\n      sub(shl(0xa0, 0x01), 0x01)\n        /* \"contracts/NFTMain.sol\":12103:12120  ownerToIds[_from] */\n      dup7\n      and\n      dup5\n      mstore\n        /* \"contracts/NFTMain.sol\":12103:12113  ownerToIds */\n      0x05\n        /* \"contracts/NFTMain.sol\":12103:12120  ownerToIds[_from] */\n      swap1\n      swap3\n      mstore\n      dup3\n      keccak256\n        /* \"contracts/NFTMain.sol\":12103:12127  ownerToIds[_from].length */\n      sload\n        /* \"contracts/NFTMain.sol\":12043:12067  idToOwnerIndex[_tokenId] */\n      swap1\n      swap2\n        /* \"contracts/NFTMain.sol\":11982:12001  idToOwner[_tokenId] */\n      swap1\n        /* \"contracts/NFTMain.sol\":12103:12134  ownerToIds[_from].length.sub(1) */\n      tag_769\n      swap1\n        /* \"contracts/NFTMain.sol\":11975:12001  delete idToOwner[_tokenId] */\n      0x01\n        /* \"contracts/NFTMain.sol\":12103:12131  ownerToIds[_from].length.sub */\n      tag_333\n        /* \"contracts/NFTMain.sol\":12103:12134  ownerToIds[_from].length.sub(1) */\n      jump\t// in\n    tag_769:\n        /* \"contracts/NFTMain.sol\":12078:12134  uint256 lastTokenIndex = ownerToIds[_from].length.sub(1) */\n      swap1\n      pop\n        /* \"contracts/NFTMain.sol\":12169:12187  tokenToRemoveIndex */\n      dup2\n        /* \"contracts/NFTMain.sol\":12151:12165  lastTokenIndex */\n      dup2\n        /* \"contracts/NFTMain.sol\":12151:12187  lastTokenIndex != tokenToRemoveIndex */\n      eq\n        /* \"contracts/NFTMain.sol\":12147:12394  if (lastTokenIndex != tokenToRemoveIndex) {\r... */\n      tag_770\n      jumpi\n      sub(shl(0xa0, 0x01), 0x01)\n        /* \"contracts/NFTMain.sol\":12224:12241  ownerToIds[_from] */\n      dup5\n      and\n        /* \"contracts/NFTMain.sol\":12204:12221  uint256 lastToken */\n      0x00\n        /* \"contracts/NFTMain.sol\":12224:12241  ownerToIds[_from] */\n      swap1\n      dup2\n      mstore\n        /* \"contracts/NFTMain.sol\":12224:12234  ownerToIds */\n      0x05\n        /* \"contracts/NFTMain.sol\":12224:12241  ownerToIds[_from] */\n      0x20\n      mstore\n      0x40\n      dup2\n      keccak256\n        /* \"contracts/NFTMain.sol\":12224:12257  ownerToIds[_from][lastTokenIndex] */\n      dup1\n      sload\n        /* \"contracts/NFTMain.sol\":12242:12256  lastTokenIndex */\n      dup4\n      swap1\n        /* \"contracts/NFTMain.sol\":12224:12257  ownerToIds[_from][lastTokenIndex] */\n      dup2\n      lt\n      tag_772\n      jumpi\n      tag_772\n      tag_429\n      jump\t// in\n    tag_772:\n      swap1\n      0x00\n      mstore\n      keccak256(0x00, 0x20)\n      add\n      sload\n        /* \"contracts/NFTMain.sol\":12204:12257  uint256 lastToken = ownerToIds[_from][lastTokenIndex] */\n      swap1\n      pop\n        /* \"contracts/NFTMain.sol\":12312:12321  lastToken */\n      dup1\n        /* \"contracts/NFTMain.sol\":12272:12282  ownerToIds */\n      0x05\n        /* \"contracts/NFTMain.sol\":12272:12289  ownerToIds[_from] */\n      0x00\n        /* \"contracts/NFTMain.sol\":12283:12288  _from */\n      dup8\n      sub(shl(0xa0, 0x01), 0x01)\n        /* \"contracts/NFTMain.sol\":12272:12289  ownerToIds[_from] */\n      and\n      sub(shl(0xa0, 0x01), 0x01)\n      and\n      dup2\n      mstore\n      0x20\n      add\n      swap1\n      dup2\n      mstore\n      0x20\n      add\n      0x00\n      keccak256\n        /* \"contracts/NFTMain.sol\":12290:12308  tokenToRemoveIndex */\n      dup5\n        /* \"contracts/NFTMain.sol\":12272:12309  ownerToIds[_from][tokenToRemoveIndex] */\n      dup2\n      sload\n      dup2\n      lt\n      tag_775\n      jumpi\n      tag_775\n      tag_429\n      jump\t// in\n    tag_775:\n      0x00\n      swap2\n      dup3\n      mstore\n      0x20\n      dup1\n      dup4\n      keccak256\n      swap1\n      swap2\n      add\n        /* \"contracts/NFTMain.sol\":12272:12321  ownerToIds[_from][tokenToRemoveIndex] = lastToken */\n      swap3\n      swap1\n      swap3\n      sstore\n        /* \"contracts/NFTMain.sol\":12336:12361  idToOwnerIndex[lastToken] */\n      swap2\n      dup3\n      mstore\n        /* \"contracts/NFTMain.sol\":12336:12350  idToOwnerIndex */\n      0x06\n        /* \"contracts/NFTMain.sol\":12336:12361  idToOwnerIndex[lastToken] */\n      swap1\n      mstore\n      0x40\n      swap1\n      keccak256\n        /* \"contracts/NFTMain.sol\":12336:12382  idToOwnerIndex[lastToken] = tokenToRemoveIndex */\n      dup3\n      swap1\n      sstore\n        /* \"contracts/NFTMain.sol\":12147:12394  if (lastTokenIndex != tokenToRemoveIndex) {\r... */\n    tag_770:\n      sub(shl(0xa0, 0x01), 0x01)\n        /* \"contracts/NFTMain.sol\":12406:12423  ownerToIds[_from] */\n      dup5\n      and\n      0x00\n      swap1\n      dup2\n      mstore\n        /* \"contracts/NFTMain.sol\":12406:12416  ownerToIds */\n      0x05\n        /* \"contracts/NFTMain.sol\":12406:12423  ownerToIds[_from] */\n      0x20\n      mstore\n      0x40\n      swap1\n      keccak256\n        /* \"contracts/NFTMain.sol\":12406:12429  ownerToIds[_from].pop() */\n      dup1\n      sload\n      dup1\n      tag_778\n      jumpi\n      tag_778\n      tag_779\n      jump\t// in\n    tag_778:\n      0x01\n      swap1\n      sub\n      dup2\n      dup2\n      swap1\n      0x00\n      mstore\n      keccak256(0x00, 0x20)\n      add\n      0x00\n      swap1\n      sstore\n      swap1\n      sstore\n        /* \"contracts/NFTMain.sol\":11896:12437  {\r... */\n      pop\n      pop\n        /* \"contracts/NFTMain.sol\":11830:12437  function _removeNFToken(address _from, uint256 _tokenId) internal {\r... */\n      pop\n      pop\n      jump\t// out\n        /* \"@openzeppelin/contracts/utils/Address.sol\":3861:4084  function functionCall(... */\n    tag_718:\n        /* \"@openzeppelin/contracts/utils/Address.sol\":3994:4006  bytes memory */\n      0x60\n        /* \"@openzeppelin/contracts/utils/Address.sol\":4025:4077  functionCallWithValue(target, data, 0, errorMessage) */\n      tag_783\n        /* \"@openzeppelin/contracts/utils/Address.sol\":4047:4053  target */\n      dup5\n        /* \"@openzeppelin/contracts/utils/Address.sol\":4055:4059  data */\n      dup5\n        /* \"@openzeppelin/contracts/utils/Address.sol\":4061:4062  0 */\n      0x00\n        /* \"@openzeppelin/contracts/utils/Address.sol\":4064:4076  errorMessage */\n      dup6\n        /* \"@openzeppelin/contracts/utils/Address.sol\":4025:4046  functionCallWithValue */\n      tag_784\n        /* \"@openzeppelin/contracts/utils/Address.sol\":4025:4077  functionCallWithValue(target, data, 0, errorMessage) */\n      jump\t// in\n    tag_783:\n        /* \"@openzeppelin/contracts/utils/Address.sol\":4018:4077  return functionCallWithValue(target, data, 0, errorMessage) */\n      swap5\n        /* \"@openzeppelin/contracts/utils/Address.sol\":3861:4084  function functionCall(... */\n      swap4\n      pop\n      pop\n      pop\n      pop\n      jump\t// out\n        /* \"@openzeppelin/contracts/utils/Address.sol\":4948:5447  function functionCallWithValue(... */\n    tag_784:\n        /* \"@openzeppelin/contracts/utils/Address.sol\":5113:5125  bytes memory */\n      0x60\n        /* \"@openzeppelin/contracts/utils/Address.sol\":5170:5175  value */\n      dup3\n        /* \"@openzeppelin/contracts/utils/Address.sol\":5145:5166  address(this).balance */\n      selfbalance\n        /* \"@openzeppelin/contracts/utils/Address.sol\":5145:5175  address(this).balance >= value */\n      lt\n      iszero\n        /* \"@openzeppelin/contracts/utils/Address.sol\":5137:5218  require(address(this).balance >= value, \"Address: insufficient balance for call\") */\n      tag_786\n      jumpi\n      mload(0x40)\n      shl(0xe5, 0x461bcd)\n      dup2\n      mstore\n        /* \"#utility.yul\":14483:14485   */\n      0x20\n        /* \"@openzeppelin/contracts/utils/Address.sol\":5137:5218  require(address(this).balance >= value, \"Address: insufficient balance for call\") */\n      0x04\n      dup3\n      add\n        /* \"#utility.yul\":14465:14486   */\n      mstore\n        /* \"#utility.yul\":14522:14524   */\n      0x26\n        /* \"#utility.yul\":14502:14520   */\n      0x24\n      dup3\n      add\n        /* \"#utility.yul\":14495:14525   */\n      mstore\n        /* \"#utility.yul\":14561:14595   */\n      0x416464726573733a20696e73756666696369656e742062616c616e636520666f\n        /* \"#utility.yul\":14541:14559   */\n      0x44\n      dup3\n      add\n        /* \"#utility.yul\":14534:14596   */\n      mstore\n      shl(0xd2, 0x1c8818d85b1b)\n        /* \"#utility.yul\":14612:14630   */\n      0x64\n      dup3\n      add\n        /* \"#utility.yul\":14605:14641   */\n      mstore\n        /* \"#utility.yul\":14658:14677   */\n      0x84\n      add\n        /* \"@openzeppelin/contracts/utils/Address.sol\":5137:5218  require(address(this).balance >= value, \"Address: insufficient balance for call\") */\n      tag_287\n        /* \"#utility.yul\":14281:14683   */\n      jump\n        /* \"@openzeppelin/contracts/utils/Address.sol\":5137:5218  require(address(this).balance >= value, \"Address: insufficient balance for call\") */\n    tag_786:\n      sub(shl(0xa0, 0x01), 0x01)\n        /* \"@openzeppelin/contracts/utils/Address.sol\":1465:1484  account.code.length */\n      dup6\n      and\n      extcodesize\n        /* \"@openzeppelin/contracts/utils/Address.sol\":5228:5288  require(isContract(target), \"Address: call to non-contract\") */\n      tag_791\n      jumpi\n      mload(0x40)\n      shl(0xe5, 0x461bcd)\n      dup2\n      mstore\n        /* \"#utility.yul\":19275:19277   */\n      0x20\n        /* \"@openzeppelin/contracts/utils/Address.sol\":5228:5288  require(isContract(target), \"Address: call to non-contract\") */\n      0x04\n      dup3\n      add\n        /* \"#utility.yul\":19257:19278   */\n      mstore\n        /* \"#utility.yul\":19314:19316   */\n      0x1d\n        /* \"#utility.yul\":19294:19312   */\n      0x24\n      dup3\n      add\n        /* \"#utility.yul\":19287:19317   */\n      mstore\n        /* \"#utility.yul\":19353:19384   */\n      0x416464726573733a2063616c6c20746f206e6f6e2d636f6e7472616374000000\n        /* \"#utility.yul\":19333:19351   */\n      0x44\n      dup3\n      add\n        /* \"#utility.yul\":19326:19385   */\n      mstore\n        /* \"#utility.yul\":19402:19420   */\n      0x64\n      add\n        /* \"@openzeppelin/contracts/utils/Address.sol\":5228:5288  require(isContract(target), \"Address: call to non-contract\") */\n      tag_287\n        /* \"#utility.yul\":19073:19426   */\n      jump\n        /* \"@openzeppelin/contracts/utils/Address.sol\":5228:5288  require(isContract(target), \"Address: call to non-contract\") */\n    tag_791:\n        /* \"@openzeppelin/contracts/utils/Address.sol\":5300:5312  bool success */\n      0x00\n        /* \"@openzeppelin/contracts/utils/Address.sol\":5314:5337  bytes memory returndata */\n      dup1\n        /* \"@openzeppelin/contracts/utils/Address.sol\":5341:5347  target */\n      dup7\n      sub(shl(0xa0, 0x01), 0x01)\n        /* \"@openzeppelin/contracts/utils/Address.sol\":5341:5352  target.call */\n      and\n        /* \"@openzeppelin/contracts/utils/Address.sol\":5360:5365  value */\n      dup6\n        /* \"@openzeppelin/contracts/utils/Address.sol\":5367:5371  data */\n      dup8\n        /* \"@openzeppelin/contracts/utils/Address.sol\":5341:5372  target.call{value: value}(data) */\n      mload(0x40)\n      tag_794\n      swap2\n      swap1\n      tag_795\n      jump\t// in\n    tag_794:\n      0x00\n      mload(0x40)\n      dup1\n      dup4\n      sub\n      dup2\n      dup6\n      dup8\n      gas\n      call\n      swap3\n      pop\n      pop\n      pop\n      returndatasize\n      dup1\n      0x00\n      dup2\n      eq\n      tag_798\n      jumpi\n      mload(0x40)\n      swap2\n      pop\n      and(add(returndatasize, 0x3f), not(0x1f))\n      dup3\n      add\n      0x40\n      mstore\n      returndatasize\n      dup3\n      mstore\n      returndatasize\n      0x00\n      0x20\n      dup5\n      add\n      returndatacopy\n      jump(tag_797)\n    tag_798:\n      0x60\n      swap2\n      pop\n    tag_797:\n      pop\n        /* \"@openzeppelin/contracts/utils/Address.sol\":5299:5372  (bool success, bytes memory returndata) = target.call{value: value}(data) */\n      swap2\n      pop\n      swap2\n      pop\n        /* \"@openzeppelin/contracts/utils/Address.sol\":5389:5440  verifyCallResult(success, returndata, errorMessage) */\n      tag_799\n        /* \"@openzeppelin/contracts/utils/Address.sol\":5406:5413  success */\n      dup3\n        /* \"@openzeppelin/contracts/utils/Address.sol\":5415:5425  returndata */\n      dup3\n        /* \"@openzeppelin/contracts/utils/Address.sol\":5427:5439  errorMessage */\n      dup7\n        /* \"@openzeppelin/contracts/utils/Address.sol\":5389:5405  verifyCallResult */\n      tag_800\n        /* \"@openzeppelin/contracts/utils/Address.sol\":5389:5440  verifyCallResult(success, returndata, errorMessage) */\n      jump\t// in\n    tag_799:\n        /* \"@openzeppelin/contracts/utils/Address.sol\":5382:5440  return verifyCallResult(success, returndata, errorMessage) */\n      swap8\n        /* \"@openzeppelin/contracts/utils/Address.sol\":4948:5447  function functionCallWithValue(... */\n      swap7\n      pop\n      pop\n      pop\n      pop\n      pop\n      pop\n      pop\n      jump\t// out\n        /* \"@openzeppelin/contracts/utils/Address.sol\":7561:8253  function verifyCallResult(... */\n    tag_800:\n        /* \"@openzeppelin/contracts/utils/Address.sol\":7707:7719  bytes memory */\n      0x60\n        /* \"@openzeppelin/contracts/utils/Address.sol\":7735:7742  success */\n      dup4\n        /* \"@openzeppelin/contracts/utils/Address.sol\":7731:8247  if (success) {... */\n      iszero\n      tag_803\n      jumpi\n      pop\n        /* \"@openzeppelin/contracts/utils/Address.sol\":7765:7775  returndata */\n      dup2\n        /* \"@openzeppelin/contracts/utils/Address.sol\":7758:7775  return returndata */\n      jump(tag_633)\n        /* \"@openzeppelin/contracts/utils/Address.sol\":7731:8247  if (success) {... */\n    tag_803:\n        /* \"@openzeppelin/contracts/utils/Address.sol\":7876:7893  returndata.length */\n      dup3\n      mload\n        /* \"@openzeppelin/contracts/utils/Address.sol\":7876:7897  returndata.length > 0 */\n      iszero\n        /* \"@openzeppelin/contracts/utils/Address.sol\":7872:8237  if (returndata.length > 0) {... */\n      tag_805\n      jumpi\n        /* \"@openzeppelin/contracts/utils/Address.sol\":8070:8080  returndata */\n      dup3\n        /* \"@openzeppelin/contracts/utils/Address.sol\":8064:8081  mload(returndata) */\n      mload\n        /* \"@openzeppelin/contracts/utils/Address.sol\":8130:8145  returndata_size */\n      dup1\n        /* \"@openzeppelin/contracts/utils/Address.sol\":8117:8127  returndata */\n      dup5\n        /* \"@openzeppelin/contracts/utils/Address.sol\":8113:8115  32 */\n      0x20\n        /* \"@openzeppelin/contracts/utils/Address.sol\":8109:8128  add(32, returndata) */\n      add\n        /* \"@openzeppelin/contracts/utils/Address.sol\":8102:8146  revert(add(32, returndata), returndata_size) */\n      revert\n        /* \"@openzeppelin/contracts/utils/Address.sol\":7872:8237  if (returndata.length > 0) {... */\n    tag_805:\n        /* \"@openzeppelin/contracts/utils/Address.sol\":8209:8221  errorMessage */\n      dup2\n        /* \"@openzeppelin/contracts/utils/Address.sol\":8202:8222  revert(errorMessage) */\n      mload(0x40)\n      shl(0xe5, 0x461bcd)\n      dup2\n      mstore\n      0x04\n      add\n      tag_287\n      swap2\n      swap1\n      tag_80\n      jump\t// in\n    tag_503:\n      dup3\n      dup1\n      sload\n      tag_808\n      swap1\n      tag_292\n      jump\t// in\n    tag_808:\n      swap1\n      0x00\n      mstore\n      keccak256(0x00, 0x20)\n      swap1\n      0x1f\n      add\n      0x20\n      swap1\n      div\n      dup2\n      add\n      swap3\n      dup3\n      tag_810\n      jumpi\n      0x00\n      dup6\n      sstore\n      jump(tag_813)\n    tag_810:\n      dup3\n      0x1f\n      lt\n      tag_811\n      jumpi\n      dup1\n      mload\n      not(0xff)\n      and\n      dup4\n      dup1\n      add\n      or\n      dup6\n      sstore\n      jump(tag_813)\n    tag_811:\n      dup3\n      dup1\n      add\n      0x01\n      add\n      dup6\n      sstore\n      dup3\n      iszero\n      tag_813\n      jumpi\n      swap2\n      dup3\n      add\n    tag_812:\n      dup3\n      dup2\n      gt\n      iszero\n      tag_813\n      jumpi\n      dup3\n      mload\n      dup3\n      sstore\n      swap2\n      0x20\n      add\n      swap2\n      swap1\n      0x01\n      add\n      swap1\n      jump(tag_812)\n    tag_813:\n      pop\n      tag_814\n      swap3\n      swap2\n      pop\n      tag_815\n      jump\t// in\n    tag_814:\n      pop\n      swap1\n      jump\t// out\n    tag_815:\n    tag_816:\n      dup1\n      dup3\n      gt\n      iszero\n      tag_814\n      jumpi\n      0x00\n      dup2\n      sstore\n      0x01\n      add\n      jump(tag_816)\n        /* \"#utility.yul\":14:187   */\n    tag_819:\n        /* \"#utility.yul\":82:102   */\n      dup1\n      calldataload\n      sub(shl(0xa0, 0x01), 0x01)\n        /* \"#utility.yul\":131:162   */\n      dup2\n      and\n        /* \"#utility.yul\":121:163   */\n      dup2\n      eq\n        /* \"#utility.yul\":111:181   */\n      tag_821\n      jumpi\n        /* \"#utility.yul\":177:178   */\n      0x00\n        /* \"#utility.yul\":174:175   */\n      dup1\n        /* \"#utility.yul\":167:179   */\n      revert\n        /* \"#utility.yul\":111:181   */\n    tag_821:\n        /* \"#utility.yul\":14:187   */\n      swap2\n      swap1\n      pop\n      jump\t// out\n        /* \"#utility.yul\":192:378   */\n    tag_108:\n        /* \"#utility.yul\":251:257   */\n      0x00\n        /* \"#utility.yul\":304:306   */\n      0x20\n        /* \"#utility.yul\":292:301   */\n      dup3\n        /* \"#utility.yul\":283:290   */\n      dup5\n        /* \"#utility.yul\":279:302   */\n      sub\n        /* \"#utility.yul\":275:307   */\n      slt\n        /* \"#utility.yul\":272:324   */\n      iszero\n      tag_823\n      jumpi\n        /* \"#utility.yul\":320:321   */\n      0x00\n        /* \"#utility.yul\":317:318   */\n      dup1\n        /* \"#utility.yul\":310:322   */\n      revert\n        /* \"#utility.yul\":272:324   */\n    tag_823:\n        /* \"#utility.yul\":343:372   */\n      tag_633\n        /* \"#utility.yul\":362:371   */\n      dup3\n        /* \"#utility.yul\":343:372   */\n      tag_819\n      jump\t// in\n        /* \"#utility.yul\":383:643   */\n    tag_255:\n        /* \"#utility.yul\":451:457   */\n      0x00\n        /* \"#utility.yul\":459:465   */\n      dup1\n        /* \"#utility.yul\":512:514   */\n      0x40\n        /* \"#utility.yul\":500:509   */\n      dup4\n        /* \"#utility.yul\":491:498   */\n      dup6\n        /* \"#utility.yul\":487:510   */\n      sub\n        /* \"#utility.yul\":483:515   */\n      slt\n        /* \"#utility.yul\":480:532   */\n      iszero\n      tag_826\n      jumpi\n        /* \"#utility.yul\":528:529   */\n      0x00\n        /* \"#utility.yul\":525:526   */\n      dup1\n        /* \"#utility.yul\":518:530   */\n      revert\n        /* \"#utility.yul\":480:532   */\n    tag_826:\n        /* \"#utility.yul\":551:580   */\n      tag_827\n        /* \"#utility.yul\":570:579   */\n      dup4\n        /* \"#utility.yul\":551:580   */\n      tag_819\n      jump\t// in\n    tag_827:\n        /* \"#utility.yul\":541:580   */\n      swap2\n      pop\n        /* \"#utility.yul\":599:637   */\n      tag_828\n        /* \"#utility.yul\":633:635   */\n      0x20\n        /* \"#utility.yul\":622:631   */\n      dup5\n        /* \"#utility.yul\":618:636   */\n      add\n        /* \"#utility.yul\":599:637   */\n      tag_819\n      jump\t// in\n    tag_828:\n        /* \"#utility.yul\":589:637   */\n      swap1\n      pop\n        /* \"#utility.yul\":383:643   */\n      swap3\n      pop\n      swap3\n      swap1\n      pop\n      jump\t// out\n        /* \"#utility.yul\":648:976   */\n    tag_122:\n        /* \"#utility.yul\":725:731   */\n      0x00\n        /* \"#utility.yul\":733:739   */\n      dup1\n        /* \"#utility.yul\":741:747   */\n      0x00\n        /* \"#utility.yul\":794:796   */\n      0x60\n        /* \"#utility.yul\":782:791   */\n      dup5\n        /* \"#utility.yul\":773:780   */\n      dup7\n        /* \"#utility.yul\":769:792   */\n      sub\n        /* \"#utility.yul\":765:797   */\n      slt\n        /* \"#utility.yul\":762:814   */\n      iszero\n      tag_830\n      jumpi\n        /* \"#utility.yul\":810:811   */\n      0x00\n        /* \"#utility.yul\":807:808   */\n      dup1\n        /* \"#utility.yul\":800:812   */\n      revert\n        /* \"#utility.yul\":762:814   */\n    tag_830:\n        /* \"#utility.yul\":833:862   */\n      tag_831\n        /* \"#utility.yul\":852:861   */\n      dup5\n        /* \"#utility.yul\":833:862   */\n      tag_819\n      jump\t// in\n    tag_831:\n        /* \"#utility.yul\":823:862   */\n      swap3\n      pop\n        /* \"#utility.yul\":881:919   */\n      tag_832\n        /* \"#utility.yul\":915:917   */\n      0x20\n        /* \"#utility.yul\":904:913   */\n      dup6\n        /* \"#utility.yul\":900:918   */\n      add\n        /* \"#utility.yul\":881:919   */\n      tag_819\n      jump\t// in\n    tag_832:\n        /* \"#utility.yul\":871:919   */\n      swap2\n      pop\n        /* \"#utility.yul\":966:968   */\n      0x40\n        /* \"#utility.yul\":955:964   */\n      dup5\n        /* \"#utility.yul\":951:969   */\n      add\n        /* \"#utility.yul\":938:970   */\n      calldataload\n        /* \"#utility.yul\":928:970   */\n      swap1\n      pop\n        /* \"#utility.yul\":648:976   */\n      swap3\n      pop\n      swap3\n      pop\n      swap3\n      jump\t// out\n        /* \"#utility.yul\":981:1789   */\n    tag_226:\n        /* \"#utility.yul\":1078:1084   */\n      0x00\n        /* \"#utility.yul\":1086:1092   */\n      dup1\n        /* \"#utility.yul\":1094:1100   */\n      0x00\n        /* \"#utility.yul\":1102:1108   */\n      dup1\n        /* \"#utility.yul\":1110:1116   */\n      0x00\n        /* \"#utility.yul\":1163:1166   */\n      0x80\n        /* \"#utility.yul\":1151:1160   */\n      dup7\n        /* \"#utility.yul\":1142:1149   */\n      dup9\n        /* \"#utility.yul\":1138:1161   */\n      sub\n        /* \"#utility.yul\":1134:1167   */\n      slt\n        /* \"#utility.yul\":1131:1184   */\n      iszero\n      tag_834\n      jumpi\n        /* \"#utility.yul\":1180:1181   */\n      0x00\n        /* \"#utility.yul\":1177:1178   */\n      dup1\n        /* \"#utility.yul\":1170:1182   */\n      revert\n        /* \"#utility.yul\":1131:1184   */\n    tag_834:\n        /* \"#utility.yul\":1203:1232   */\n      tag_835\n        /* \"#utility.yul\":1222:1231   */\n      dup7\n        /* \"#utility.yul\":1203:1232   */\n      tag_819\n      jump\t// in\n    tag_835:\n        /* \"#utility.yul\":1193:1232   */\n      swap5\n      pop\n        /* \"#utility.yul\":1251:1289   */\n      tag_836\n        /* \"#utility.yul\":1285:1287   */\n      0x20\n        /* \"#utility.yul\":1274:1283   */\n      dup8\n        /* \"#utility.yul\":1270:1288   */\n      add\n        /* \"#utility.yul\":1251:1289   */\n      tag_819\n      jump\t// in\n    tag_836:\n        /* \"#utility.yul\":1241:1289   */\n      swap4\n      pop\n        /* \"#utility.yul\":1336:1338   */\n      0x40\n        /* \"#utility.yul\":1325:1334   */\n      dup7\n        /* \"#utility.yul\":1321:1339   */\n      add\n        /* \"#utility.yul\":1308:1340   */\n      calldataload\n        /* \"#utility.yul\":1298:1340   */\n      swap3\n      pop\n        /* \"#utility.yul\":1391:1393   */\n      0x60\n        /* \"#utility.yul\":1380:1389   */\n      dup7\n        /* \"#utility.yul\":1376:1394   */\n      add\n        /* \"#utility.yul\":1363:1395   */\n      calldataload\n        /* \"#utility.yul\":1414:1432   */\n      0xffffffffffffffff\n        /* \"#utility.yul\":1455:1457   */\n      dup1\n        /* \"#utility.yul\":1447:1453   */\n      dup3\n        /* \"#utility.yul\":1444:1458   */\n      gt\n        /* \"#utility.yul\":1441:1475   */\n      iszero\n      tag_837\n      jumpi\n        /* \"#utility.yul\":1471:1472   */\n      0x00\n        /* \"#utility.yul\":1468:1469   */\n      dup1\n        /* \"#utility.yul\":1461:1473   */\n      revert\n        /* \"#utility.yul\":1441:1475   */\n    tag_837:\n        /* \"#utility.yul\":1509:1515   */\n      dup2\n        /* \"#utility.yul\":1498:1507   */\n      dup9\n        /* \"#utility.yul\":1494:1516   */\n      add\n        /* \"#utility.yul\":1484:1516   */\n      swap2\n      pop\n        /* \"#utility.yul\":1554:1561   */\n      dup9\n        /* \"#utility.yul\":1547:1551   */\n      0x1f\n        /* \"#utility.yul\":1543:1545   */\n      dup4\n        /* \"#utility.yul\":1539:1552   */\n      add\n        /* \"#utility.yul\":1535:1562   */\n      slt\n        /* \"#utility.yul\":1525:1580   */\n      tag_838\n      jumpi\n        /* \"#utility.yul\":1576:1577   */\n      0x00\n        /* \"#utility.yul\":1573:1574   */\n      dup1\n        /* \"#utility.yul\":1566:1578   */\n      revert\n        /* \"#utility.yul\":1525:1580   */\n    tag_838:\n        /* \"#utility.yul\":1616:1618   */\n      dup2\n        /* \"#utility.yul\":1603:1619   */\n      calldataload\n        /* \"#utility.yul\":1642:1644   */\n      dup2\n        /* \"#utility.yul\":1634:1640   */\n      dup2\n        /* \"#utility.yul\":1631:1645   */\n      gt\n        /* \"#utility.yul\":1628:1662   */\n      iszero\n      tag_839\n      jumpi\n        /* \"#utility.yul\":1658:1659   */\n      0x00\n        /* \"#utility.yul\":1655:1656   */\n      dup1\n        /* \"#utility.yul\":1648:1660   */\n      revert\n        /* \"#utility.yul\":1628:1662   */\n    tag_839:\n        /* \"#utility.yul\":1703:1710   */\n      dup10\n        /* \"#utility.yul\":1698:1700   */\n      0x20\n        /* \"#utility.yul\":1689:1695   */\n      dup3\n        /* \"#utility.yul\":1685:1687   */\n      dup6\n        /* \"#utility.yul\":1681:1696   */\n      add\n        /* \"#utility.yul\":1677:1701   */\n      add\n        /* \"#utility.yul\":1674:1711   */\n      gt\n        /* \"#utility.yul\":1671:1728   */\n      iszero\n      tag_840\n      jumpi\n        /* \"#utility.yul\":1724:1725   */\n      0x00\n        /* \"#utility.yul\":1721:1722   */\n      dup1\n        /* \"#utility.yul\":1714:1726   */\n      revert\n        /* \"#utility.yul\":1671:1728   */\n    tag_840:\n        /* \"#utility.yul\":981:1789   */\n      swap7\n      swap10\n      swap6\n      swap9\n      pop\n      swap4\n      swap7\n      pop\n        /* \"#utility.yul\":1755:1757   */\n      0x20\n        /* \"#utility.yul\":1747:1758   */\n      add\n      swap5\n        /* \"#utility.yul\":1777:1783   */\n      swap4\n        /* \"#utility.yul\":981:1789   */\n      swap3\n      pop\n      pop\n      pop\n      jump\t// out\n        /* \"#utility.yul\":1794:2109   */\n    tag_213:\n        /* \"#utility.yul\":1859:1865   */\n      0x00\n        /* \"#utility.yul\":1867:1873   */\n      dup1\n        /* \"#utility.yul\":1920:1922   */\n      0x40\n        /* \"#utility.yul\":1908:1917   */\n      dup4\n        /* \"#utility.yul\":1899:1906   */\n      dup6\n        /* \"#utility.yul\":1895:1918   */\n      sub\n        /* \"#utility.yul\":1891:1923   */\n      slt\n        /* \"#utility.yul\":1888:1940   */\n      iszero\n      tag_842\n      jumpi\n        /* \"#utility.yul\":1936:1937   */\n      0x00\n        /* \"#utility.yul\":1933:1934   */\n      dup1\n        /* \"#utility.yul\":1926:1938   */\n      revert\n        /* \"#utility.yul\":1888:1940   */\n    tag_842:\n        /* \"#utility.yul\":1959:1988   */\n      tag_843\n        /* \"#utility.yul\":1978:1987   */\n      dup4\n        /* \"#utility.yul\":1959:1988   */\n      tag_819\n      jump\t// in\n    tag_843:\n        /* \"#utility.yul\":1949:1988   */\n      swap2\n      pop\n        /* \"#utility.yul\":2038:2040   */\n      0x20\n        /* \"#utility.yul\":2027:2036   */\n      dup4\n        /* \"#utility.yul\":2023:2041   */\n      add\n        /* \"#utility.yul\":2010:2042   */\n      calldataload\n        /* \"#utility.yul\":2051:2079   */\n      tag_844\n        /* \"#utility.yul\":2073:2078   */\n      dup2\n        /* \"#utility.yul\":2051:2079   */\n      tag_845\n      jump\t// in\n    tag_844:\n        /* \"#utility.yul\":2098:2103   */\n      dup1\n        /* \"#utility.yul\":2088:2103   */\n      swap2\n      pop\n      pop\n        /* \"#utility.yul\":1794:2109   */\n      swap3\n      pop\n      swap3\n      swap1\n      pop\n      jump\t// out\n        /* \"#utility.yul\":2114:2368   */\n    tag_91:\n        /* \"#utility.yul\":2182:2188   */\n      0x00\n        /* \"#utility.yul\":2190:2196   */\n      dup1\n        /* \"#utility.yul\":2243:2245   */\n      0x40\n        /* \"#utility.yul\":2231:2240   */\n      dup4\n        /* \"#utility.yul\":2222:2229   */\n      dup6\n        /* \"#utility.yul\":2218:2241   */\n      sub\n        /* \"#utility.yul\":2214:2246   */\n      slt\n        /* \"#utility.yul\":2211:2263   */\n      iszero\n      tag_847\n      jumpi\n        /* \"#utility.yul\":2259:2260   */\n      0x00\n        /* \"#utility.yul\":2256:2257   */\n      dup1\n        /* \"#utility.yul\":2249:2261   */\n      revert\n        /* \"#utility.yul\":2211:2263   */\n    tag_847:\n        /* \"#utility.yul\":2282:2311   */\n      tag_848\n        /* \"#utility.yul\":2301:2310   */\n      dup4\n        /* \"#utility.yul\":2282:2311   */\n      tag_819\n      jump\t// in\n    tag_848:\n        /* \"#utility.yul\":2272:2311   */\n      swap5\n        /* \"#utility.yul\":2358:2360   */\n      0x20\n        /* \"#utility.yul\":2343:2361   */\n      swap4\n      swap1\n      swap4\n      add\n        /* \"#utility.yul\":2330:2362   */\n      calldataload\n      swap4\n      pop\n      pop\n      pop\n        /* \"#utility.yul\":2114:2368   */\n      jump\t// out\n        /* \"#utility.yul\":2373:2614   */\n    tag_117:\n        /* \"#utility.yul\":2429:2435   */\n      0x00\n        /* \"#utility.yul\":2482:2484   */\n      0x20\n        /* \"#utility.yul\":2470:2479   */\n      dup3\n        /* \"#utility.yul\":2461:2468   */\n      dup5\n        /* \"#utility.yul\":2457:2480   */\n      sub\n        /* \"#utility.yul\":2453:2485   */\n      slt\n        /* \"#utility.yul\":2450:2502   */\n      iszero\n      tag_850\n      jumpi\n        /* \"#utility.yul\":2498:2499   */\n      0x00\n        /* \"#utility.yul\":2495:2496   */\n      dup1\n        /* \"#utility.yul\":2488:2500   */\n      revert\n        /* \"#utility.yul\":2450:2502   */\n    tag_850:\n        /* \"#utility.yul\":2537:2546   */\n      dup2\n        /* \"#utility.yul\":2524:2547   */\n      calldataload\n        /* \"#utility.yul\":2556:2584   */\n      tag_633\n        /* \"#utility.yul\":2578:2583   */\n      dup2\n        /* \"#utility.yul\":2556:2584   */\n      tag_845\n      jump\t// in\n        /* \"#utility.yul\":2619:2864   */\n    tag_721:\n        /* \"#utility.yul\":2686:2692   */\n      0x00\n        /* \"#utility.yul\":2739:2741   */\n      0x20\n        /* \"#utility.yul\":2727:2736   */\n      dup3\n        /* \"#utility.yul\":2718:2725   */\n      dup5\n        /* \"#utility.yul\":2714:2737   */\n      sub\n        /* \"#utility.yul\":2710:2742   */\n      slt\n        /* \"#utility.yul\":2707:2759   */\n      iszero\n      tag_853\n      jumpi\n        /* \"#utility.yul\":2755:2756   */\n      0x00\n        /* \"#utility.yul\":2752:2753   */\n      dup1\n        /* \"#utility.yul\":2745:2757   */\n      revert\n        /* \"#utility.yul\":2707:2759   */\n    tag_853:\n        /* \"#utility.yul\":2787:2796   */\n      dup2\n        /* \"#utility.yul\":2781:2797   */\n      mload\n        /* \"#utility.yul\":2806:2834   */\n      tag_633\n        /* \"#utility.yul\":2828:2833   */\n      dup2\n        /* \"#utility.yul\":2806:2834   */\n      tag_845\n      jump\t// in\n        /* \"#utility.yul\":2869:3114   */\n    tag_62:\n        /* \"#utility.yul\":2927:2933   */\n      0x00\n        /* \"#utility.yul\":2980:2982   */\n      0x20\n        /* \"#utility.yul\":2968:2977   */\n      dup3\n        /* \"#utility.yul\":2959:2966   */\n      dup5\n        /* \"#utility.yul\":2955:2978   */\n      sub\n        /* \"#utility.yul\":2951:2983   */\n      slt\n        /* \"#utility.yul\":2948:3000   */\n      iszero\n      tag_856\n      jumpi\n        /* \"#utility.yul\":2996:2997   */\n      0x00\n        /* \"#utility.yul\":2993:2994   */\n      dup1\n        /* \"#utility.yul\":2986:2998   */\n      revert\n        /* \"#utility.yul\":2948:3000   */\n    tag_856:\n        /* \"#utility.yul\":3035:3044   */\n      dup2\n        /* \"#utility.yul\":3022:3045   */\n      calldataload\n        /* \"#utility.yul\":3054:3084   */\n      tag_633\n        /* \"#utility.yul\":3078:3083   */\n      dup2\n        /* \"#utility.yul\":3054:3084   */\n      tag_858\n      jump\t// in\n        /* \"#utility.yul\":3119:3368   */\n    tag_691:\n        /* \"#utility.yul\":3188:3194   */\n      0x00\n        /* \"#utility.yul\":3241:3243   */\n      0x20\n        /* \"#utility.yul\":3229:3238   */\n      dup3\n        /* \"#utility.yul\":3220:3227   */\n      dup5\n        /* \"#utility.yul\":3216:3239   */\n      sub\n        /* \"#utility.yul\":3212:3244   */\n      slt\n        /* \"#utility.yul\":3209:3261   */\n      iszero\n      tag_860\n      jumpi\n        /* \"#utility.yul\":3257:3258   */\n      0x00\n        /* \"#utility.yul\":3254:3255   */\n      dup1\n        /* \"#utility.yul\":3247:3259   */\n      revert\n        /* \"#utility.yul\":3209:3261   */\n    tag_860:\n        /* \"#utility.yul\":3289:3298   */\n      dup2\n        /* \"#utility.yul\":3283:3299   */\n      mload\n        /* \"#utility.yul\":3308:3338   */\n      tag_633\n        /* \"#utility.yul\":3332:3337   */\n      dup2\n        /* \"#utility.yul\":3308:3338   */\n      tag_858\n      jump\t// in\n        /* \"#utility.yul\":3373:4295   */\n    tag_208:\n        /* \"#utility.yul\":3442:3448   */\n      0x00\n        /* \"#utility.yul\":3495:3497   */\n      0x20\n        /* \"#utility.yul\":3483:3492   */\n      dup3\n        /* \"#utility.yul\":3474:3481   */\n      dup5\n        /* \"#utility.yul\":3470:3493   */\n      sub\n        /* \"#utility.yul\":3466:3498   */\n      slt\n        /* \"#utility.yul\":3463:3515   */\n      iszero\n      tag_863\n      jumpi\n        /* \"#utility.yul\":3511:3512   */\n      0x00\n        /* \"#utility.yul\":3508:3509   */\n      dup1\n        /* \"#utility.yul\":3501:3513   */\n      revert\n        /* \"#utility.yul\":3463:3515   */\n    tag_863:\n        /* \"#utility.yul\":3551:3560   */\n      dup2\n        /* \"#utility.yul\":3538:3561   */\n      calldataload\n        /* \"#utility.yul\":3580:3598   */\n      0xffffffffffffffff\n        /* \"#utility.yul\":3621:3623   */\n      dup1\n        /* \"#utility.yul\":3613:3619   */\n      dup3\n        /* \"#utility.yul\":3610:3624   */\n      gt\n        /* \"#utility.yul\":3607:3641   */\n      iszero\n      tag_864\n      jumpi\n        /* \"#utility.yul\":3637:3638   */\n      0x00\n        /* \"#utility.yul\":3634:3635   */\n      dup1\n        /* \"#utility.yul\":3627:3639   */\n      revert\n        /* \"#utility.yul\":3607:3641   */\n    tag_864:\n        /* \"#utility.yul\":3675:3681   */\n      dup2\n        /* \"#utility.yul\":3664:3673   */\n      dup5\n        /* \"#utility.yul\":3660:3682   */\n      add\n        /* \"#utility.yul\":3650:3682   */\n      swap2\n      pop\n        /* \"#utility.yul\":3720:3727   */\n      dup5\n        /* \"#utility.yul\":3713:3717   */\n      0x1f\n        /* \"#utility.yul\":3709:3711   */\n      dup4\n        /* \"#utility.yul\":3705:3718   */\n      add\n        /* \"#utility.yul\":3701:3728   */\n      slt\n        /* \"#utility.yul\":3691:3746   */\n      tag_865\n      jumpi\n        /* \"#utility.yul\":3742:3743   */\n      0x00\n        /* \"#utility.yul\":3739:3740   */\n      dup1\n        /* \"#utility.yul\":3732:3744   */\n      revert\n        /* \"#utility.yul\":3691:3746   */\n    tag_865:\n        /* \"#utility.yul\":3778:3780   */\n      dup2\n        /* \"#utility.yul\":3765:3781   */\n      calldataload\n        /* \"#utility.yul\":3800:3802   */\n      dup2\n        /* \"#utility.yul\":3796:3798   */\n      dup2\n        /* \"#utility.yul\":3793:3803   */\n      gt\n        /* \"#utility.yul\":3790:3826   */\n      iszero\n      tag_867\n      jumpi\n        /* \"#utility.yul\":3806:3824   */\n      tag_867\n      tag_703\n      jump\t// in\n    tag_867:\n        /* \"#utility.yul\":3881:3883   */\n      0x40\n        /* \"#utility.yul\":3875:3884   */\n      mload\n        /* \"#utility.yul\":3849:3851   */\n      0x1f\n        /* \"#utility.yul\":3935:3948   */\n      dup3\n      add\n      not(0x1f)\n        /* \"#utility.yul\":3931:3953   */\n      swap1\n      dup2\n      and\n        /* \"#utility.yul\":3955:3957   */\n      0x3f\n        /* \"#utility.yul\":3927:3958   */\n      add\n        /* \"#utility.yul\":3923:3963   */\n      and\n        /* \"#utility.yul\":3911:3964   */\n      dup2\n      add\n      swap1\n        /* \"#utility.yul\":3979:3997   */\n      dup4\n      dup3\n      gt\n        /* \"#utility.yul\":3999:4021   */\n      dup2\n      dup4\n      lt\n        /* \"#utility.yul\":3976:4022   */\n      or\n        /* \"#utility.yul\":3973:4045   */\n      iszero\n      tag_869\n      jumpi\n        /* \"#utility.yul\":4025:4043   */\n      tag_869\n      tag_703\n      jump\t// in\n    tag_869:\n        /* \"#utility.yul\":4065:4075   */\n      dup2\n        /* \"#utility.yul\":4061:4063   */\n      0x40\n        /* \"#utility.yul\":4054:4076   */\n      mstore\n        /* \"#utility.yul\":4100:4102   */\n      dup3\n        /* \"#utility.yul\":4092:4098   */\n      dup2\n        /* \"#utility.yul\":4085:4103   */\n      mstore\n        /* \"#utility.yul\":4140:4147   */\n      dup8\n        /* \"#utility.yul\":4135:4137   */\n      0x20\n        /* \"#utility.yul\":4130:4132   */\n      dup5\n        /* \"#utility.yul\":4126:4128   */\n      dup8\n        /* \"#utility.yul\":4122:4133   */\n      add\n        /* \"#utility.yul\":4118:4138   */\n      add\n        /* \"#utility.yul\":4115:4148   */\n      gt\n        /* \"#utility.yul\":4112:4165   */\n      iszero\n      tag_870\n      jumpi\n        /* \"#utility.yul\":4161:4162   */\n      0x00\n        /* \"#utility.yul\":4158:4159   */\n      dup1\n        /* \"#utility.yul\":4151:4163   */\n      revert\n        /* \"#utility.yul\":4112:4165   */\n    tag_870:\n        /* \"#utility.yul\":4217:4219   */\n      dup3\n        /* \"#utility.yul\":4212:4214   */\n      0x20\n        /* \"#utility.yul\":4208:4210   */\n      dup7\n        /* \"#utility.yul\":4204:4215   */\n      add\n        /* \"#utility.yul\":4199:4201   */\n      0x20\n        /* \"#utility.yul\":4191:4197   */\n      dup4\n        /* \"#utility.yul\":4187:4202   */\n      add\n        /* \"#utility.yul\":4174:4220   */\n      calldatacopy\n        /* \"#utility.yul\":4262:4263   */\n      0x00\n        /* \"#utility.yul\":4240:4255   */\n      swap3\n      dup2\n      add\n        /* \"#utility.yul\":4257:4259   */\n      0x20\n        /* \"#utility.yul\":4236:4260   */\n      add\n        /* \"#utility.yul\":4229:4264   */\n      swap3\n      swap1\n      swap3\n      mstore\n      pop\n        /* \"#utility.yul\":4244:4250   */\n      swap6\n        /* \"#utility.yul\":3373:4295   */\n      swap5\n      pop\n      pop\n      pop\n      pop\n      pop\n      jump\t// out\n        /* \"#utility.yul\":4300:4480   */\n    tag_84:\n        /* \"#utility.yul\":4359:4365   */\n      0x00\n        /* \"#utility.yul\":4412:4414   */\n      0x20\n        /* \"#utility.yul\":4400:4409   */\n      dup3\n        /* \"#utility.yul\":4391:4398   */\n      dup5\n        /* \"#utility.yul\":4387:4410   */\n      sub\n        /* \"#utility.yul\":4383:4415   */\n      slt\n        /* \"#utility.yul\":4380:4432   */\n      iszero\n      tag_872\n      jumpi\n        /* \"#utility.yul\":4428:4429   */\n      0x00\n        /* \"#utility.yul\":4425:4426   */\n      dup1\n        /* \"#utility.yul\":4418:4430   */\n      revert\n        /* \"#utility.yul\":4380:4432   */\n    tag_872:\n      pop\n        /* \"#utility.yul\":4451:4474   */\n      calldataload\n      swap2\n        /* \"#utility.yul\":4300:4480   */\n      swap1\n      pop\n      jump\t// out\n        /* \"#utility.yul\":4485:4669   */\n    tag_550:\n        /* \"#utility.yul\":4555:4561   */\n      0x00\n        /* \"#utility.yul\":4608:4610   */\n      0x20\n        /* \"#utility.yul\":4596:4605   */\n      dup3\n        /* \"#utility.yul\":4587:4594   */\n      dup5\n        /* \"#utility.yul\":4583:4606   */\n      sub\n        /* \"#utility.yul\":4579:4611   */\n      slt\n        /* \"#utility.yul\":4576:4628   */\n      iszero\n      tag_874\n      jumpi\n        /* \"#utility.yul\":4624:4625   */\n      0x00\n        /* \"#utility.yul\":4621:4622   */\n      dup1\n        /* \"#utility.yul\":4614:4626   */\n      revert\n        /* \"#utility.yul\":4576:4628   */\n    tag_874:\n      pop\n        /* \"#utility.yul\":4647:4663   */\n      mload\n      swap2\n        /* \"#utility.yul\":4485:4669   */\n      swap1\n      pop\n      jump\t// out\n        /* \"#utility.yul\":4674:4928   */\n    tag_74:\n        /* \"#utility.yul\":4742:4748   */\n      0x00\n        /* \"#utility.yul\":4750:4756   */\n      dup1\n        /* \"#utility.yul\":4803:4805   */\n      0x40\n        /* \"#utility.yul\":4791:4800   */\n      dup4\n        /* \"#utility.yul\":4782:4789   */\n      dup6\n        /* \"#utility.yul\":4778:4801   */\n      sub\n        /* \"#utility.yul\":4774:4806   */\n      slt\n        /* \"#utility.yul\":4771:4823   */\n      iszero\n      tag_876\n      jumpi\n        /* \"#utility.yul\":4819:4820   */\n      0x00\n        /* \"#utility.yul\":4816:4817   */\n      dup1\n        /* \"#utility.yul\":4809:4821   */\n      revert\n        /* \"#utility.yul\":4771:4823   */\n    tag_876:\n        /* \"#utility.yul\":4855:4864   */\n      dup3\n        /* \"#utility.yul\":4842:4865   */\n      calldataload\n        /* \"#utility.yul\":4832:4865   */\n      swap2\n      pop\n        /* \"#utility.yul\":4884:4922   */\n      tag_828\n        /* \"#utility.yul\":4918:4920   */\n      0x20\n        /* \"#utility.yul\":4907:4916   */\n      dup5\n        /* \"#utility.yul\":4903:4921   */\n      add\n        /* \"#utility.yul\":4884:4922   */\n      tag_819\n      jump\t// in\n        /* \"#utility.yul\":4933:5249   */\n    tag_218:\n        /* \"#utility.yul\":5010:5016   */\n      0x00\n        /* \"#utility.yul\":5018:5024   */\n      dup1\n        /* \"#utility.yul\":5026:5032   */\n      0x00\n        /* \"#utility.yul\":5079:5081   */\n      0x60\n        /* \"#utility.yul\":5067:5076   */\n      dup5\n        /* \"#utility.yul\":5058:5065   */\n      dup7\n        /* \"#utility.yul\":5054:5077   */\n      sub\n        /* \"#utility.yul\":5050:5082   */\n      slt\n        /* \"#utility.yul\":5047:5099   */\n      iszero\n      tag_879\n      jumpi\n        /* \"#utility.yul\":5095:5096   */\n      0x00\n        /* \"#utility.yul\":5092:5093   */\n      dup1\n        /* \"#utility.yul\":5085:5097   */\n      revert\n        /* \"#utility.yul\":5047:5099   */\n    tag_879:\n      pop\n      pop\n        /* \"#utility.yul\":5118:5141   */\n      dup2\n      calldataload\n      swap4\n        /* \"#utility.yul\":5188:5190   */\n      0x20\n        /* \"#utility.yul\":5173:5191   */\n      dup4\n      add\n        /* \"#utility.yul\":5160:5192   */\n      calldataload\n      swap4\n      pop\n        /* \"#utility.yul\":5239:5241   */\n      0x40\n        /* \"#utility.yul\":5224:5242   */\n      swap1\n      swap3\n      add\n        /* \"#utility.yul\":5211:5243   */\n      calldataload\n      swap2\n        /* \"#utility.yul\":4933:5249   */\n      swap1\n      pop\n      jump\t// out\n        /* \"#utility.yul\":5254:5522   */\n    tag_880:\n        /* \"#utility.yul\":5306:5309   */\n      0x00\n        /* \"#utility.yul\":5344:5349   */\n      dup2\n        /* \"#utility.yul\":5338:5350   */\n      mload\n        /* \"#utility.yul\":5371:5377   */\n      dup1\n        /* \"#utility.yul\":5366:5369   */\n      dup5\n        /* \"#utility.yul\":5359:5378   */\n      mstore\n        /* \"#utility.yul\":5387:5450   */\n      tag_882\n        /* \"#utility.yul\":5443:5449   */\n      dup2\n        /* \"#utility.yul\":5436:5440   */\n      0x20\n        /* \"#utility.yul\":5431:5434   */\n      dup7\n        /* \"#utility.yul\":5427:5441   */\n      add\n        /* \"#utility.yul\":5420:5424   */\n      0x20\n        /* \"#utility.yul\":5413:5418   */\n      dup7\n        /* \"#utility.yul\":5409:5425   */\n      add\n        /* \"#utility.yul\":5387:5450   */\n      tag_883\n      jump\t// in\n    tag_882:\n        /* \"#utility.yul\":5504:5506   */\n      0x1f\n        /* \"#utility.yul\":5483:5498   */\n      add\n      not(0x1f)\n        /* \"#utility.yul\":5479:5508   */\n      and\n        /* \"#utility.yul\":5470:5509   */\n      swap3\n      swap1\n      swap3\n      add\n        /* \"#utility.yul\":5511:5515   */\n      0x20\n        /* \"#utility.yul\":5466:5516   */\n      add\n      swap3\n        /* \"#utility.yul\":5254:5522   */\n      swap2\n      pop\n      pop\n      jump\t// out\n        /* \"#utility.yul\":5527:5711   */\n    tag_884:\n        /* \"#utility.yul\":5568:5571   */\n      0x00\n        /* \"#utility.yul\":5606:5611   */\n      dup2\n        /* \"#utility.yul\":5600:5612   */\n      mload\n        /* \"#utility.yul\":5621:5673   */\n      tag_886\n        /* \"#utility.yul\":5666:5672   */\n      dup2\n        /* \"#utility.yul\":5661:5664   */\n      dup6\n        /* \"#utility.yul\":5654:5658   */\n      0x20\n        /* \"#utility.yul\":5647:5652   */\n      dup7\n        /* \"#utility.yul\":5643:5659   */\n      add\n        /* \"#utility.yul\":5621:5673   */\n      tag_883\n      jump\t// in\n    tag_886:\n        /* \"#utility.yul\":5689:5705   */\n      swap3\n      swap1\n      swap3\n      add\n      swap3\n        /* \"#utility.yul\":5527:5711   */\n      swap2\n      pop\n      pop\n      jump\t// out\n        /* \"#utility.yul\":5716:5990   */\n    tag_795:\n        /* \"#utility.yul\":5845:5848   */\n      0x00\n        /* \"#utility.yul\":5883:5889   */\n      dup3\n        /* \"#utility.yul\":5877:5890   */\n      mload\n        /* \"#utility.yul\":5899:5952   */\n      tag_888\n        /* \"#utility.yul\":5945:5951   */\n      dup2\n        /* \"#utility.yul\":5940:5943   */\n      dup5\n        /* \"#utility.yul\":5933:5937   */\n      0x20\n        /* \"#utility.yul\":5925:5931   */\n      dup8\n        /* \"#utility.yul\":5921:5938   */\n      add\n        /* \"#utility.yul\":5899:5952   */\n      tag_883\n      jump\t// in\n    tag_888:\n        /* \"#utility.yul\":5968:5984   */\n      swap2\n      swap1\n      swap2\n      add\n      swap3\n        /* \"#utility.yul\":5716:5990   */\n      swap2\n      pop\n      pop\n      jump\t// out\n        /* \"#utility.yul\":5995:7168   */\n    tag_535:\n        /* \"#utility.yul\":6171:6174   */\n      0x00\n        /* \"#utility.yul\":6200:6201   */\n      dup1\n        /* \"#utility.yul\":6233:6239   */\n      dup5\n        /* \"#utility.yul\":6227:6240   */\n      sload\n        /* \"#utility.yul\":6263:6266   */\n      dup2\n        /* \"#utility.yul\":6285:6286   */\n      0x01\n        /* \"#utility.yul\":6313:6322   */\n      dup3\n        /* \"#utility.yul\":6309:6311   */\n      dup2\n        /* \"#utility.yul\":6305:6323   */\n      shr\n        /* \"#utility.yul\":6295:6323   */\n      swap2\n      pop\n        /* \"#utility.yul\":6373:6375   */\n      dup1\n        /* \"#utility.yul\":6362:6371   */\n      dup4\n        /* \"#utility.yul\":6358:6376   */\n      and\n        /* \"#utility.yul\":6395:6413   */\n      dup1\n        /* \"#utility.yul\":6385:6446   */\n      tag_890\n      jumpi\n        /* \"#utility.yul\":6439:6443   */\n      0x7f\n        /* \"#utility.yul\":6431:6437   */\n      dup4\n        /* \"#utility.yul\":6427:6444   */\n      and\n        /* \"#utility.yul\":6417:6444   */\n      swap3\n      pop\n        /* \"#utility.yul\":6385:6446   */\n    tag_890:\n        /* \"#utility.yul\":6465:6467   */\n      0x20\n        /* \"#utility.yul\":6513:6515   */\n      dup1\n        /* \"#utility.yul\":6505:6511   */\n      dup5\n        /* \"#utility.yul\":6502:6516   */\n      lt\n        /* \"#utility.yul\":6482:6500   */\n      dup3\n        /* \"#utility.yul\":6479:6517   */\n      eq\n        /* \"#utility.yul\":6476:6641   */\n      iszero\n      tag_891\n      jumpi\n      shl(0xe0, 0x4e487b71)\n        /* \"#utility.yul\":6540:6573   */\n      dup7\n      mstore\n        /* \"#utility.yul\":6596:6600   */\n      0x22\n        /* \"#utility.yul\":6593:6594   */\n      0x04\n        /* \"#utility.yul\":6586:6601   */\n      mstore\n        /* \"#utility.yul\":6626:6630   */\n      0x24\n        /* \"#utility.yul\":6547:6550   */\n      dup7\n        /* \"#utility.yul\":6614:6631   */\n      revert\n        /* \"#utility.yul\":6476:6641   */\n    tag_891:\n        /* \"#utility.yul\":6657:6675   */\n      dup2\n        /* \"#utility.yul\":6684:6788   */\n      dup1\n      iszero\n      tag_893\n      jumpi\n        /* \"#utility.yul\":6802:6803   */\n      0x01\n        /* \"#utility.yul\":6797:7117   */\n      dup2\n      eq\n      tag_894\n      jumpi\n        /* \"#utility.yul\":6650:7117   */\n      jump(tag_892)\n        /* \"#utility.yul\":6684:6788   */\n    tag_893:\n      not(0xff)\n        /* \"#utility.yul\":6717:6741   */\n      dup7\n      and\n        /* \"#utility.yul\":6705:6742   */\n      dup10\n      mstore\n        /* \"#utility.yul\":6762:6778   */\n      dup5\n      dup10\n      add\n      swap7\n      pop\n        /* \"#utility.yul\":6684:6788   */\n      jump(tag_892)\n        /* \"#utility.yul\":6797:7117   */\n    tag_894:\n        /* \"#utility.yul\":21117:21118   */\n      0x00\n        /* \"#utility.yul\":21110:21124   */\n      dup12\n      dup2\n      mstore\n        /* \"#utility.yul\":21154:21158   */\n      0x20\n        /* \"#utility.yul\":21141:21159   */\n      swap1\n      keccak256\n        /* \"#utility.yul\":6892:6893   */\n      0x00\n        /* \"#utility.yul\":6906:7071   */\n    tag_897:\n        /* \"#utility.yul\":6920:6926   */\n      dup7\n        /* \"#utility.yul\":6917:6918   */\n      dup2\n        /* \"#utility.yul\":6914:6927   */\n      lt\n        /* \"#utility.yul\":6906:7071   */\n      iszero\n      tag_899\n      jumpi\n        /* \"#utility.yul\":6998:7012   */\n      dup2\n      sload\n        /* \"#utility.yul\":6985:6996   */\n      dup12\n      dup3\n      add\n        /* \"#utility.yul\":6978:7013   */\n      mstore\n        /* \"#utility.yul\":7041:7057   */\n      swap1\n      dup6\n      add\n      swap1\n        /* \"#utility.yul\":6935:6945   */\n      dup4\n      add\n        /* \"#utility.yul\":6906:7071   */\n      jump(tag_897)\n    tag_899:\n        /* \"#utility.yul\":6910:6913   */\n      pop\n      pop\n        /* \"#utility.yul\":7100:7106   */\n      dup5\n        /* \"#utility.yul\":7095:7098   */\n      dup10\n        /* \"#utility.yul\":7091:7107   */\n      add\n        /* \"#utility.yul\":7084:7107   */\n      swap7\n      pop\n        /* \"#utility.yul\":6650:7117   */\n    tag_892:\n      pop\n      pop\n      pop\n      pop\n      pop\n      pop\n        /* \"#utility.yul\":7133:7162   */\n      tag_900\n        /* \"#utility.yul\":7158:7161   */\n      dup2\n        /* \"#utility.yul\":7150:7156   */\n      dup6\n        /* \"#utility.yul\":7133:7162   */\n      tag_884\n      jump\t// in\n    tag_900:\n        /* \"#utility.yul\":7126:7162   */\n      swap6\n        /* \"#utility.yul\":5995:7168   */\n      swap5\n      pop\n      pop\n      pop\n      pop\n      pop\n      jump\t// out\n        /* \"#utility.yul\":8500:8999   */\n    tag_686:\n      sub(shl(0xa0, 0x01), 0x01)\n        /* \"#utility.yul\":8769:8784   */\n      dup6\n      dup2\n      and\n        /* \"#utility.yul\":8751:8785   */\n      dup3\n      mstore\n        /* \"#utility.yul\":8821:8836   */\n      dup5\n      and\n        /* \"#utility.yul\":8816:8818   */\n      0x20\n        /* \"#utility.yul\":8801:8819   */\n      dup3\n      add\n        /* \"#utility.yul\":8794:8837   */\n      mstore\n        /* \"#utility.yul\":8868:8870   */\n      0x40\n        /* \"#utility.yul\":8853:8871   */\n      dup2\n      add\n        /* \"#utility.yul\":8846:8880   */\n      dup4\n      swap1\n      mstore\n        /* \"#utility.yul\":8916:8919   */\n      0x80\n        /* \"#utility.yul\":8911:8913   */\n      0x60\n        /* \"#utility.yul\":8896:8914   */\n      dup3\n      add\n        /* \"#utility.yul\":8889:8920   */\n      dup2\n      swap1\n      mstore\n        /* \"#utility.yul\":8694:8698   */\n      0x00\n      swap1\n        /* \"#utility.yul\":8937:8993   */\n      tag_906\n      swap1\n        /* \"#utility.yul\":8973:8992   */\n      dup4\n      add\n        /* \"#utility.yul\":8965:8971   */\n      dup5\n        /* \"#utility.yul\":8937:8993   */\n      tag_880\n      jump\t// in\n    tag_906:\n        /* \"#utility.yul\":8929:8993   */\n      swap7\n        /* \"#utility.yul\":8500:8999   */\n      swap6\n      pop\n      pop\n      pop\n      pop\n      pop\n      pop\n      jump\t// out\n        /* \"#utility.yul\":9004:9636   */\n    tag_232:\n        /* \"#utility.yul\":9175:9177   */\n      0x20\n        /* \"#utility.yul\":9227:9248   */\n      dup1\n      dup3\n      mstore\n        /* \"#utility.yul\":9297:9310   */\n      dup3\n      mload\n        /* \"#utility.yul\":9200:9218   */\n      dup3\n      dup3\n      add\n        /* \"#utility.yul\":9319:9341   */\n      dup2\n      swap1\n      mstore\n        /* \"#utility.yul\":9146:9150   */\n      0x00\n      swap2\n        /* \"#utility.yul\":9175:9177   */\n      swap1\n        /* \"#utility.yul\":9398:9413   */\n      dup5\n      dup3\n      add\n      swap1\n        /* \"#utility.yul\":9372:9374   */\n      0x40\n        /* \"#utility.yul\":9357:9375   */\n      dup6\n      add\n      swap1\n        /* \"#utility.yul\":9146:9150   */\n      dup5\n        /* \"#utility.yul\":9441:9610   */\n    tag_908:\n        /* \"#utility.yul\":9455:9461   */\n      dup2\n        /* \"#utility.yul\":9452:9453   */\n      dup2\n        /* \"#utility.yul\":9449:9462   */\n      lt\n        /* \"#utility.yul\":9441:9610   */\n      iszero\n      tag_910\n      jumpi\n        /* \"#utility.yul\":9516:9529   */\n      dup4\n      mload\n        /* \"#utility.yul\":9504:9530   */\n      dup4\n      mstore\n        /* \"#utility.yul\":9585:9600   */\n      swap3\n      dup5\n      add\n      swap3\n        /* \"#utility.yul\":9550:9562   */\n      swap2\n      dup5\n      add\n      swap2\n        /* \"#utility.yul\":9477:9478   */\n      0x01\n        /* \"#utility.yul\":9470:9479   */\n      add\n        /* \"#utility.yul\":9441:9610   */\n      jump(tag_908)\n    tag_910:\n      pop\n        /* \"#utility.yul\":9627:9630   */\n      swap1\n      swap7\n        /* \"#utility.yul\":9004:9636   */\n      swap6\n      pop\n      pop\n      pop\n      pop\n      pop\n      pop\n      jump\t// out\n        /* \"#utility.yul\":10487:10717   */\n    tag_80:\n        /* \"#utility.yul\":10636:10638   */\n      0x20\n        /* \"#utility.yul\":10625:10634   */\n      dup2\n        /* \"#utility.yul\":10618:10639   */\n      mstore\n        /* \"#utility.yul\":10599:10603   */\n      0x00\n        /* \"#utility.yul\":10656:10711   */\n      tag_633\n        /* \"#utility.yul\":10707:10709   */\n      0x20\n        /* \"#utility.yul\":10696:10705   */\n      dup4\n        /* \"#utility.yul\":10692:10710   */\n      add\n        /* \"#utility.yul\":10684:10690   */\n      dup5\n        /* \"#utility.yul\":10656:10711   */\n      tag_880\n      jump\t// in\n        /* \"#utility.yul\":13583:13921   */\n    tag_300:\n        /* \"#utility.yul\":13785:13787   */\n      0x20\n        /* \"#utility.yul\":13767:13788   */\n      dup1\n      dup3\n      mstore\n        /* \"#utility.yul\":13824:13826   */\n      0x0e\n        /* \"#utility.yul\":13804:13822   */\n      swap1\n      dup3\n      add\n        /* \"#utility.yul\":13797:13827   */\n      mstore\n      shl(0x91, 0x24b73b30b634b2103a37b5b2b717)\n        /* \"#utility.yul\":13858:13860   */\n      0x40\n        /* \"#utility.yul\":13843:13861   */\n      dup3\n      add\n        /* \"#utility.yul\":13836:13880   */\n      mstore\n        /* \"#utility.yul\":13912:13914   */\n      0x60\n        /* \"#utility.yul\":13897:13915   */\n      add\n      swap1\n        /* \"#utility.yul\":13583:13921   */\n      jump\t// out\n        /* \"#utility.yul\":15377:15719   */\n    tag_439:\n        /* \"#utility.yul\":15579:15581   */\n      0x20\n        /* \"#utility.yul\":15561:15582   */\n      dup1\n      dup3\n      mstore\n        /* \"#utility.yul\":15618:15620   */\n      0x12\n        /* \"#utility.yul\":15598:15616   */\n      swap1\n      dup3\n      add\n        /* \"#utility.yul\":15591:15621   */\n      mstore\n      shl(0x72, 0x13585c9ad95d081b9bdd081cdd185c9d1959)\n        /* \"#utility.yul\":15652:15654   */\n      0x40\n        /* \"#utility.yul\":15637:15655   */\n      dup3\n      add\n        /* \"#utility.yul\":15630:15678   */\n      mstore\n        /* \"#utility.yul\":15710:15712   */\n      0x60\n        /* \"#utility.yul\":15695:15713   */\n      add\n      swap1\n        /* \"#utility.yul\":15377:15719   */\n      jump\t// out\n        /* \"#utility.yul\":16079:16435   */\n    tag_288:\n        /* \"#utility.yul\":16281:16283   */\n      0x20\n        /* \"#utility.yul\":16263:16284   */\n      dup1\n      dup3\n      mstore\n        /* \"#utility.yul\":16300:16318   */\n      dup2\n      dup2\n      add\n        /* \"#utility.yul\":16293:16323   */\n      mstore\n        /* \"#utility.yul\":16359:16393   */\n      0x4f776e61626c653a2063616c6c6572206973206e6f7420746865206f776e6572\n        /* \"#utility.yul\":16354:16356   */\n      0x40\n        /* \"#utility.yul\":16339:16357   */\n      dup3\n      add\n        /* \"#utility.yul\":16332:16394   */\n      mstore\n        /* \"#utility.yul\":16426:16428   */\n      0x60\n        /* \"#utility.yul\":16411:16429   */\n      add\n      swap1\n        /* \"#utility.yul\":16079:16435   */\n      jump\t// out\n        /* \"#utility.yul\":17148:17553   */\n    tag_325:\n        /* \"#utility.yul\":17350:17352   */\n      0x20\n        /* \"#utility.yul\":17332:17353   */\n      dup1\n      dup3\n      mstore\n        /* \"#utility.yul\":17389:17391   */\n      0x29\n        /* \"#utility.yul\":17369:17387   */\n      swap1\n      dup3\n      add\n        /* \"#utility.yul\":17362:17392   */\n      mstore\n        /* \"#utility.yul\":17428:17462   */\n      0x596f752063616e206e6f7420627579206d6f7265207468616e203230204e4654\n        /* \"#utility.yul\":17423:17425   */\n      0x40\n        /* \"#utility.yul\":17408:17426   */\n      dup3\n      add\n        /* \"#utility.yul\":17401:17463   */\n      mstore\n      shl(0xb8, 0x73206174206f6e6365)\n        /* \"#utility.yul\":17494:17496   */\n      0x60\n        /* \"#utility.yul\":17479:17497   */\n      dup3\n      add\n        /* \"#utility.yul\":17472:17511   */\n      mstore\n        /* \"#utility.yul\":17543:17546   */\n      0x80\n        /* \"#utility.yul\":17528:17547   */\n      add\n      swap1\n        /* \"#utility.yul\":17148:17553   */\n      jump\t// out\n        /* \"#utility.yul\":18257:18655   */\n    tag_444:\n        /* \"#utility.yul\":18459:18461   */\n      0x20\n        /* \"#utility.yul\":18441:18462   */\n      dup1\n      dup3\n      mstore\n        /* \"#utility.yul\":18498:18500   */\n      0x22\n        /* \"#utility.yul\":18478:18496   */\n      swap1\n      dup3\n      add\n        /* \"#utility.yul\":18471:18501   */\n      mstore\n        /* \"#utility.yul\":18537:18571   */\n      0x596f7520617265206e6f7420746865206f776e6572206f662074686520746f6b\n        /* \"#utility.yul\":18532:18534   */\n      0x40\n        /* \"#utility.yul\":18517:18535   */\n      dup3\n      add\n        /* \"#utility.yul\":18510:18572   */\n      mstore\n      shl(0xf1, 0x32b7)\n        /* \"#utility.yul\":18603:18605   */\n      0x60\n        /* \"#utility.yul\":18588:18606   */\n      dup3\n      add\n        /* \"#utility.yul\":18581:18613   */\n      mstore\n        /* \"#utility.yul\":18645:18648   */\n      0x80\n        /* \"#utility.yul\":18630:18649   */\n      add\n      swap1\n        /* \"#utility.yul\":18257:18655   */\n      jump\t// out\n        /* \"#utility.yul\":18660:19068   */\n    tag_336:\n        /* \"#utility.yul\":18862:18864   */\n      0x20\n        /* \"#utility.yul\":18844:18865   */\n      dup1\n      dup3\n      mstore\n        /* \"#utility.yul\":18901:18903   */\n      0x2c\n        /* \"#utility.yul\":18881:18899   */\n      swap1\n      dup3\n      add\n        /* \"#utility.yul\":18874:18904   */\n      mstore\n        /* \"#utility.yul\":18940:18974   */\n      0x457863656564732072656d61696e696e67207072696d6172792073616c65206f\n        /* \"#utility.yul\":18935:18937   */\n      0x40\n        /* \"#utility.yul\":18920:18938   */\n      dup3\n      add\n        /* \"#utility.yul\":18913:18975   */\n      mstore\n      shl(0xa0, 0x66204d415449432073616c65)\n        /* \"#utility.yul\":19006:19008   */\n      0x60\n        /* \"#utility.yul\":18991:19009   */\n      dup3\n      add\n        /* \"#utility.yul\":18984:19026   */\n      mstore\n        /* \"#utility.yul\":19058:19061   */\n      0x80\n        /* \"#utility.yul\":19043:19062   */\n      add\n      swap1\n        /* \"#utility.yul\":18660:19068   */\n      jump\t// out\n        /* \"#utility.yul\":21170:21298   */\n    tag_461:\n        /* \"#utility.yul\":21210:21213   */\n      0x00\n        /* \"#utility.yul\":21241:21242   */\n      dup3\n        /* \"#utility.yul\":21237:21243   */\n      not\n        /* \"#utility.yul\":21234:21235   */\n      dup3\n        /* \"#utility.yul\":21231:21244   */\n      gt\n        /* \"#utility.yul\":21228:21267   */\n      iszero\n      tag_948\n      jumpi\n        /* \"#utility.yul\":21247:21265   */\n      tag_948\n      tag_949\n      jump\t// in\n    tag_948:\n      pop\n        /* \"#utility.yul\":21283:21292   */\n      add\n      swap1\n        /* \"#utility.yul\":21170:21298   */\n      jump\t// out\n        /* \"#utility.yul\":21303:21423   */\n    tag_639:\n        /* \"#utility.yul\":21343:21344   */\n      0x00\n        /* \"#utility.yul\":21369:21370   */\n      dup3\n        /* \"#utility.yul\":21359:21394   */\n      tag_952\n      jumpi\n        /* \"#utility.yul\":21374:21392   */\n      tag_952\n      tag_953\n      jump\t// in\n    tag_952:\n      pop\n        /* \"#utility.yul\":21408:21417   */\n      div\n      swap1\n        /* \"#utility.yul\":21303:21423   */\n      jump\t// out\n        /* \"#utility.yul\":21428:21596   */\n    tag_637:\n        /* \"#utility.yul\":21468:21475   */\n      0x00\n        /* \"#utility.yul\":21534:21535   */\n      dup2\n        /* \"#utility.yul\":21530:21531   */\n      0x00\n        /* \"#utility.yul\":21526:21532   */\n      not\n        /* \"#utility.yul\":21522:21536   */\n      div\n        /* \"#utility.yul\":21519:21520   */\n      dup4\n        /* \"#utility.yul\":21516:21537   */\n      gt\n        /* \"#utility.yul\":21511:21512   */\n      dup3\n        /* \"#utility.yul\":21504:21513   */\n      iszero\n        /* \"#utility.yul\":21497:21514   */\n      iszero\n        /* \"#utility.yul\":21493:21538   */\n      and\n        /* \"#utility.yul\":21490:21561   */\n      iszero\n      tag_956\n      jumpi\n        /* \"#utility.yul\":21541:21559   */\n      tag_956\n      tag_949\n      jump\t// in\n    tag_956:\n      pop\n        /* \"#utility.yul\":21581:21590   */\n      mul\n      swap1\n        /* \"#utility.yul\":21428:21596   */\n      jump\t// out\n        /* \"#utility.yul\":21601:21726   */\n    tag_347:\n        /* \"#utility.yul\":21641:21645   */\n      0x00\n        /* \"#utility.yul\":21669:21670   */\n      dup3\n        /* \"#utility.yul\":21666:21667   */\n      dup3\n        /* \"#utility.yul\":21663:21671   */\n      lt\n        /* \"#utility.yul\":21660:21694   */\n      iszero\n      tag_959\n      jumpi\n        /* \"#utility.yul\":21674:21692   */\n      tag_959\n      tag_949\n      jump\t// in\n    tag_959:\n      pop\n        /* \"#utility.yul\":21711:21720   */\n      sub\n      swap1\n        /* \"#utility.yul\":21601:21726   */\n      jump\t// out\n        /* \"#utility.yul\":21731:21989   */\n    tag_883:\n        /* \"#utility.yul\":21803:21804   */\n      0x00\n        /* \"#utility.yul\":21813:21926   */\n    tag_961:\n        /* \"#utility.yul\":21827:21833   */\n      dup4\n        /* \"#utility.yul\":21824:21825   */\n      dup2\n        /* \"#utility.yul\":21821:21834   */\n      lt\n        /* \"#utility.yul\":21813:21926   */\n      iszero\n      tag_963\n      jumpi\n        /* \"#utility.yul\":21903:21914   */\n      dup2\n      dup2\n      add\n        /* \"#utility.yul\":21897:21915   */\n      mload\n        /* \"#utility.yul\":21884:21895   */\n      dup4\n      dup3\n      add\n        /* \"#utility.yul\":21877:21916   */\n      mstore\n        /* \"#utility.yul\":21849:21851   */\n      0x20\n        /* \"#utility.yul\":21842:21852   */\n      add\n        /* \"#utility.yul\":21813:21926   */\n      jump(tag_961)\n    tag_963:\n        /* \"#utility.yul\":21944:21950   */\n      dup4\n        /* \"#utility.yul\":21941:21942   */\n      dup2\n        /* \"#utility.yul\":21938:21951   */\n      gt\n        /* \"#utility.yul\":21935:21983   */\n      iszero\n      tag_573\n      jumpi\n      pop\n      pop\n        /* \"#utility.yul\":21979:21980   */\n      0x00\n        /* \"#utility.yul\":21961:21977   */\n      swap2\n      add\n        /* \"#utility.yul\":21954:21981   */\n      mstore\n        /* \"#utility.yul\":21731:21989   */\n      jump\t// out\n        /* \"#utility.yul\":21994:22130   */\n    tag_712:\n        /* \"#utility.yul\":22033:22036   */\n      0x00\n        /* \"#utility.yul\":22061:22066   */\n      dup2\n        /* \"#utility.yul\":22051:22090   */\n      tag_967\n      jumpi\n        /* \"#utility.yul\":22070:22088   */\n      tag_967\n      tag_949\n      jump\t// in\n    tag_967:\n      pop\n      not(0x00)\n        /* \"#utility.yul\":22106:22124   */\n      add\n      swap1\n        /* \"#utility.yul\":21994:22130   */\n      jump\t// out\n        /* \"#utility.yul\":22135:22515   */\n    tag_292:\n        /* \"#utility.yul\":22214:22215   */\n      0x01\n        /* \"#utility.yul\":22210:22222   */\n      dup2\n      dup2\n      shr\n      swap1\n        /* \"#utility.yul\":22257:22269   */\n      dup3\n      and\n      dup1\n        /* \"#utility.yul\":22278:22339   */\n      tag_969\n      jumpi\n        /* \"#utility.yul\":22332:22336   */\n      0x7f\n        /* \"#utility.yul\":22324:22330   */\n      dup3\n        /* \"#utility.yul\":22320:22337   */\n      and\n        /* \"#utility.yul\":22310:22337   */\n      swap2\n      pop\n        /* \"#utility.yul\":22278:22339   */\n    tag_969:\n        /* \"#utility.yul\":22385:22387   */\n      0x20\n        /* \"#utility.yul\":22377:22383   */\n      dup3\n        /* \"#utility.yul\":22374:22388   */\n      lt\n        /* \"#utility.yul\":22354:22372   */\n      dup2\n        /* \"#utility.yul\":22351:22389   */\n      eq\n        /* \"#utility.yul\":22348:22509   */\n      iszero\n      tag_301\n      jumpi\n        /* \"#utility.yul\":22431:22441   */\n      0x4e487b71\n        /* \"#utility.yul\":22426:22429   */\n      0xe0\n        /* \"#utility.yul\":22422:22442   */\n      shl\n        /* \"#utility.yul\":22419:22420   */\n      0x00\n        /* \"#utility.yul\":22412:22443   */\n      mstore\n        /* \"#utility.yul\":22466:22470   */\n      0x22\n        /* \"#utility.yul\":22463:22464   */\n      0x04\n        /* \"#utility.yul\":22456:22471   */\n      mstore\n        /* \"#utility.yul\":22494:22498   */\n      0x24\n        /* \"#utility.yul\":22491:22492   */\n      0x00\n        /* \"#utility.yul\":22484:22499   */\n      revert\n        /* \"#utility.yul\":22520:22655   */\n    tag_345:\n        /* \"#utility.yul\":22559:22562   */\n      0x00\n      not(0x00)\n        /* \"#utility.yul\":22580:22597   */\n      dup3\n      eq\n        /* \"#utility.yul\":22577:22620   */\n      iszero\n      tag_973\n      jumpi\n        /* \"#utility.yul\":22600:22618   */\n      tag_973\n      tag_949\n      jump\t// in\n    tag_973:\n      pop\n        /* \"#utility.yul\":22647:22648   */\n      0x01\n        /* \"#utility.yul\":22636:22649   */\n      add\n      swap1\n        /* \"#utility.yul\":22520:22655   */\n      jump\t// out\n        /* \"#utility.yul\":22660:22772   */\n    tag_709:\n        /* \"#utility.yul\":22692:22693   */\n      0x00\n        /* \"#utility.yul\":22718:22719   */\n      dup3\n        /* \"#utility.yul\":22708:22743   */\n      tag_976\n      jumpi\n        /* \"#utility.yul\":22723:22741   */\n      tag_976\n      tag_953\n      jump\t// in\n    tag_976:\n      pop\n        /* \"#utility.yul\":22757:22766   */\n      mod\n      swap1\n        /* \"#utility.yul\":22660:22772   */\n      jump\t// out\n        /* \"#utility.yul\":22777:22904   */\n    tag_949:\n        /* \"#utility.yul\":22838:22848   */\n      0x4e487b71\n        /* \"#utility.yul\":22833:22836   */\n      0xe0\n        /* \"#utility.yul\":22829:22849   */\n      shl\n        /* \"#utility.yul\":22826:22827   */\n      0x00\n        /* \"#utility.yul\":22819:22850   */\n      mstore\n        /* \"#utility.yul\":22869:22873   */\n      0x11\n        /* \"#utility.yul\":22866:22867   */\n      0x04\n        /* \"#utility.yul\":22859:22874   */\n      mstore\n        /* \"#utility.yul\":22893:22897   */\n      0x24\n        /* \"#utility.yul\":22890:22891   */\n      0x00\n        /* \"#utility.yul\":22883:22898   */\n      revert\n        /* \"#utility.yul\":22909:23036   */\n    tag_953:\n        /* \"#utility.yul\":22970:22980   */\n      0x4e487b71\n        /* \"#utility.yul\":22965:22968   */\n      0xe0\n        /* \"#utility.yul\":22961:22981   */\n      shl\n        /* \"#utility.yul\":22958:22959   */\n      0x00\n        /* \"#utility.yul\":22951:22982   */\n      mstore\n        /* \"#utility.yul\":23001:23005   */\n      0x12\n        /* \"#utility.yul\":22998:22999   */\n      0x04\n        /* \"#utility.yul\":22991:23006   */\n      mstore\n        /* \"#utility.yul\":23025:23029   */\n      0x24\n        /* \"#utility.yul\":23022:23023   */\n      0x00\n        /* \"#utility.yul\":23015:23030   */\n      revert\n        /* \"#utility.yul\":23041:23168   */\n    tag_779:\n        /* \"#utility.yul\":23102:23112   */\n      0x4e487b71\n        /* \"#utility.yul\":23097:23100   */\n      0xe0\n        /* \"#utility.yul\":23093:23113   */\n      shl\n        /* \"#utility.yul\":23090:23091   */\n      0x00\n        /* \"#utility.yul\":23083:23114   */\n      mstore\n        /* \"#utility.yul\":23133:23137   */\n      0x31\n        /* \"#utility.yul\":23130:23131   */\n      0x04\n        /* \"#utility.yul\":23123:23138   */\n      mstore\n        /* \"#utility.yul\":23157:23161   */\n      0x24\n        /* \"#utility.yul\":23154:23155   */\n      0x00\n        /* \"#utility.yul\":23147:23162   */\n      revert\n        /* \"#utility.yul\":23173:23300   */\n    tag_429:\n        /* \"#utility.yul\":23234:23244   */\n      0x4e487b71\n        /* \"#utility.yul\":23229:23232   */\n      0xe0\n        /* \"#utility.yul\":23225:23245   */\n      shl\n        /* \"#utility.yul\":23222:23223   */\n      0x00\n        /* \"#utility.yul\":23215:23246   */\n      mstore\n        /* \"#utility.yul\":23265:23269   */\n      0x32\n        /* \"#utility.yul\":23262:23263   */\n      0x04\n        /* \"#utility.yul\":23255:23270   */\n      mstore\n        /* \"#utility.yul\":23289:23293   */\n      0x24\n        /* \"#utility.yul\":23286:23287   */\n      0x00\n        /* \"#utility.yul\":23279:23294   */\n      revert\n        /* \"#utility.yul\":23305:23432   */\n    tag_703:\n        /* \"#utility.yul\":23366:23376   */\n      0x4e487b71\n        /* \"#utility.yul\":23361:23364   */\n      0xe0\n        /* \"#utility.yul\":23357:23377   */\n      shl\n        /* \"#utility.yul\":23354:23355   */\n      0x00\n        /* \"#utility.yul\":23347:23378   */\n      mstore\n        /* \"#utility.yul\":23397:23401   */\n      0x41\n        /* \"#utility.yul\":23394:23395   */\n      0x04\n        /* \"#utility.yul\":23387:23402   */\n      mstore\n        /* \"#utility.yul\":23421:23425   */\n      0x24\n        /* \"#utility.yul\":23418:23419   */\n      0x00\n        /* \"#utility.yul\":23411:23426   */\n      revert\n        /* \"#utility.yul\":23437:23555   */\n    tag_845:\n        /* \"#utility.yul\":23523:23528   */\n      dup1\n        /* \"#utility.yul\":23516:23529   */\n      iszero\n        /* \"#utility.yul\":23509:23530   */\n      iszero\n        /* \"#utility.yul\":23502:23507   */\n      dup2\n        /* \"#utility.yul\":23499:23531   */\n      eq\n        /* \"#utility.yul\":23489:23549   */\n      tag_593\n      jumpi\n        /* \"#utility.yul\":23545:23546   */\n      0x00\n        /* \"#utility.yul\":23542:23543   */\n      dup1\n        /* \"#utility.yul\":23535:23547   */\n      revert\n        /* \"#utility.yul\":23560:23691   */\n    tag_858:\n      not(sub(shl(0xe0, 0x01), 0x01))\n        /* \"#utility.yul\":23634:23666   */\n      dup2\n      and\n        /* \"#utility.yul\":23624:23667   */\n      dup2\n      eq\n        /* \"#utility.yul\":23614:23685   */\n      tag_593\n      jumpi\n        /* \"#utility.yul\":23681:23682   */\n      0x00\n        /* \"#utility.yul\":23678:23679   */\n      dup1\n        /* \"#utility.yul\":23671:23683   */\n      revert\n\n    auxdata: 0xa2646970667358221220d19e81adca653e60171d9310f9e60fa9dab925e2fc80c278a2a3d05007d2f00964736f6c63430008070033\n}\n",
				"bytecode": {
					"linkReferences": {},
					"object": "60c0604052600a608081905269506f6c794865726f657360b01b60a09081526200002d91600791906200025d565b5060408051808201909152600a80825269506f6c794865726f657360b01b602090920191825262000061916008916200025d565b5060006009819055600a819055612710600b819055600c55600f805460ff60a01b1990811690915566470de4df82000060105568056bc75e2d63100000601155601591909155614e36805460ff19169055614e3a80549091169055348015620000c957600080fd5b5060405162003cab38038062003cab833981016040819052620000ec9162000303565b620000f7336200020d565b600160208190527fb45820386466a8e01597d6e1efaf8f11ba4467972de5ca6c1f8aa3544ac2888e805460ff1990811683179091557fb8349d7b7b0b2b924bf96f90971cda8c7ac1ea4cde292a182bd2a203eef6c5d080548216831790557f0e20bd7b4297895bdd985faac9360f413d46658b4c96e853899576249f1474ab8054821683179055635b5e139f60e01b6000527fce9309d5fe1c6050fdfde39d28ca0616e34393306d1cba1a247c40f9ef5c5d0980549091169091179055614e3991909155614e3a80546001600160a01b03199081166001600160a01b0393841617909155600e8054821695831695909517909455600f8054851693821693909317909255601380549093169116179055620003cd565b600080546001600160a01b038381166001600160a01b0319831681178455604051919092169283917f8be0079c531659141344cd1fd0a4f28419497f9722a3daafe3b4186f6b6457e09190a35050565b8280546200026b9062000377565b90600052602060002090601f0160209004810192826200028f5760008555620002da565b82601f10620002aa57805160ff1916838001178555620002da565b82800160010185558215620002da579182015b82811115620002da578251825591602001919060010190620002bd565b50620002e8929150620002ec565b5090565b5b80821115620002e85760008155600101620002ed565b600080600080600060a086880312156200031c57600080fd5b85516200032981620003b4565b60208701519095506200033c81620003b4565b60408701519094506200034f81620003b4565b6060870151608088015191945092506200036981620003b4565b809150509295509295909350565b600181811c908216806200038c57607f821691505b60208210811415620003ae57634e487b7160e01b600052602260045260246000fd5b50919050565b6001600160a01b0381168114620003ca57600080fd5b50565b6138ce80620003dd6000396000f3fe6080604052600436106102ae5760003560e01c80636ef25c3a11610175578063b88d4fde116100dc578063e985e9c511610095578063f2fde38b1161006f578063f2fde38b146108bd578063f79e4164146108dd578063f9ae7aaf14610903578063fbec6f211461091657600080fd5b8063e985e9c51461083d578063ed38b79c14610886578063f25f4b561461089c57600080fd5b8063b88d4fde14610762578063be9a71bd14610782578063c2db2c42146107a4578063c87b56dd146107db578063d4c66861146107fb578063e0e081d71461081b57600080fd5b806395d89b411161012e57806395d89b41146106c35780639abc8320146106d85780639b642de1146106ed578063a22cb4651461070d578063b03053b61461072d578063b66a0e5d1461074d57600080fd5b80636ef25c3a146105bf57806370a08231146105d6578063715018a6146105f657806375bea1661461060b57806380c9419e1461062b5780638da5cb5b146106a557600080fd5b806320d1fc621161021957806344c66be7116101d257806344c66be714610514578063479ad4c3146105295780634c211c28146105495780634f6ccce71461055f5780636352211e1461057f57806369fe0e2d1461059f57600080fd5b806320d1fc621461046057806323b872dd146104805780632db11544146104a05780632f745c59146104b357806333bc1c5c146104d357806342842e0e146104f457600080fd5b80630cef3df11161026b5780630cef3df1146103c257806310a15cc8146103e257806318160ddd146103f55780631bcd39aa1461040a5780631cbaee2d1461042a5780631d2e5a3a1461044057600080fd5b806301ffc9a7146102b3578063031bd4c4146103025780630612c4781461032657806306fdde0314610348578063081812fc1461036a578063095ea7b3146103a2575b600080fd5b3480156102bf57600080fd5b506102ed6102ce366004613292565b6001600160e01b03191660009081526001602052604090205460ff1690565b60405190151581526020015b60405180910390f35b34801561030e57600080fd5b50610318614e2081565b6040519081526020016102f9565b34801561033257600080fd5b506103466103413660046133af565b610936565b005b34801561035457600080fd5b5061035d610998565b6040516102f9919061358a565b34801561037657600080fd5b5061038a61038536600461337d565b610a2a565b6040516001600160a01b0390911681526020016102f9565b3480156103ae57600080fd5b506103466103bd36600461322e565b610a81565b3480156103ce57600080fd5b506102ed6103dd3660046133af565b610bc8565b6103466103f036600461337d565b610c56565b34801561040157600080fd5b50600954610318565b34801561041657600080fd5b506103466104253660046130d2565b610df6565b34801561043657600080fd5b5061031860145481565b34801561044c57600080fd5b5061034661045b366004613258565b610e49565b34801561046c57600080fd5b5061034661047b366004613120565b610e92565b34801561048c57600080fd5b5061034661049b366004613120565b610fb9565b6103466104ae36600461337d565b61115a565b3480156104bf57600080fd5b506103186104ce36600461322e565b611399565b3480156104df57600080fd5b50600f546102ed90600160a01b900460ff1681565b34801561050057600080fd5b5061034661050f366004613120565b6113fa565b34801561052057600080fd5b5061031861141a565b34801561053557600080fd5b5061034661054436600461337d565b611438565b34801561055557600080fd5b50610318600b5481565b34801561056b57600080fd5b5061031861057a36600461337d565b6115aa565b34801561058b57600080fd5b5061038a61059a36600461337d565b6115c5565b3480156105ab57600080fd5b506103466105ba36600461337d565b611602565b3480156105cb57600080fd5b50610318614e395481565b3480156105e257600080fd5b506103186105f13660046130d2565b611632565b34801561060257600080fd5b50610346611665565b34801561061757600080fd5b5061031861062636600461337d565b61169b565b34801561063757600080fd5b5061067b61064636600461337d565b614e376020526000908152604090208054600182015460029092015460ff8216926101009092046001600160a01b0316919084565b6040805194151585526001600160a01b0390931660208501529183015260608201526080016102f9565b3480156106b157600080fd5b506000546001600160a01b031661038a565b3480156106cf57600080fd5b5061035d6116bd565b3480156106e457600080fd5b5061035d6116cc565b3480156106f957600080fd5b506103466107083660046132cc565b61175a565b34801561071957600080fd5b506103466107283660046131f7565b611797565b34801561073957600080fd5b506103466107483660046133d2565b611803565b34801561075957600080fd5b50610346611951565b34801561076e57600080fd5b5061034661077d36600461315c565b6119ab565b34801561078e57600080fd5b506107976119ed565b6040516102f99190613546565b3480156107b057600080fd5b5061038a6107bf36600461337d565b614e38602052600090815260409020546001600160a01b031681565b3480156107e757600080fd5b5061035d6107f636600461337d565b611a45565b34801561080757600080fd5b5061034661081636600461337d565b611ab1565b34801561082757600080fd5b50614e3a546102ed90600160a01b900460ff1681565b34801561084957600080fd5b506102ed6108583660046130ed565b6001600160a01b03918216600090815260046020908152604080832093909416825291909152205460ff1690565b34801561089257600080fd5b50610318600c5481565b3480156108a857600080fd5b50614e3a5461038a906001600160a01b031681565b3480156108c957600080fd5b506103466108d83660046130d2565b611f81565b3480156108e957600080fd5b50614e365461038a9061010090046001600160a01b031681565b61034661091136600461337d565b61201c565b34801561092257600080fd5b5060135461038a906001600160a01b031681565b6000546001600160a01b031633146109695760405162461bcd60e51b8152600401610960906135f1565b60405180910390fd5b6000918252614e38602052604090912080546001600160a01b0319166001600160a01b03909216919091179055565b6060600780546109a7906137a2565b80601f01602080910402602001604051908101604052809291908181526020018280546109d3906137a2565b8015610a205780601f106109f557610100808354040283529160200191610a20565b820191906000526020600020905b815481529060010190602001808311610a0357829003601f168201915b5050505050905090565b60008181526002602052604081205482906001600160a01b0316610a605760405162461bcd60e51b81526004016109609061359d565b6000838152600360205260409020546001600160a01b031691505b50919050565b60008181526002602052604090205481906001600160a01b031633811480610acc57506001600160a01b038116600090815260046020908152604080832033845290915290205460ff165b610b0a5760405162461bcd60e51b815260206004820152600f60248201526e21b0b73737ba1037b832b930ba329760891b6044820152606401610960565b60008381526002602052604090205483906001600160a01b0316610b405760405162461bcd60e51b81526004016109609061359d565b6000848152600260205260409020546001600160a01b03908116908616811415610b6957600080fd5b60008581526003602052604080822080546001600160a01b0319166001600160a01b038a811691821790925591518893918516917f8c5be1e5ebec7d5bd14f71427d1e84f3dd0314c0f7b2291e5b200ac8c7c3b92591a4505050505050565b6000828152600260205260408120546001600160a01b03908116908316811480610c0b57506000848152600360205260409020546001600160a01b038481169116145b80610c3b57506001600160a01b0380821660009081526004602090815260408083209387168352929052205460ff165b15610c4a576001915050610c50565b60009150505b92915050565b614e365460ff1615610c6757600080fd5b614e36805460ff19166001179055600f54600160a01b900460ff16610cc25760405162461bcd60e51b815260206004820152601160248201527029b0b632903737ba1039ba30b93a32b21760791b6044820152606401610960565b6014811115610ce35760405162461bcd60e51b815260040161096090613626565b614e20610cf982610cf360095490565b90612370565b1115610d3d5760405162461bcd60e51b8152602060048201526013602482015272115e18d959591cc81513d2d15397d312535255606a1b6044820152606401610960565b600c54600090610d4d908361238b565b1015610d6b5760405162461bcd60e51b8152600401610960906136b1565b610d993330610d85846011546123ab90919063ffffffff16565b6013546001600160a01b03169291906123db565b60005b81811015610de757600a8054906000610db4836137d7565b91905055506001600c54610dc89190613748565b600c55610dd433612435565b5080610ddf816137d7565b915050610d9c565b5050614e36805460ff19169055565b6000546001600160a01b03163314610e205760405162461bcd60e51b8152600401610960906135f1565b614e3680546001600160a01b0390921661010002610100600160a81b0319909216919091179055565b6000546001600160a01b03163314610e735760405162461bcd60e51b8152600401610960906135f1565b614e3a8054911515600160a01b0260ff60a01b19909216919091179055565b60008181526002602052604090205481906001600160a01b0316610ec85760405162461bcd60e51b81526004016109609061359d565b6001600160a01b038316301480610ef25750614e36546001600160a01b0384811661010090920416145b610efb57600080fd5b6000828152600260205260409020546001600160a01b039081169085168114610f5c5760405162461bcd60e51b81526020600482015260136024820152722bb937b73390333937b69030b2323932b9b99760691b6044820152606401610960565b6001600160a01b038416610fa85760405162461bcd60e51b815260206004820152601360248201527221b0b73737ba1039b2b732103a3790183c181760691b6044820152606401610960565b610fb28484612569565b5050505050565b60008181526002602052604090205481906001600160a01b031633811480610ff757506000828152600360205260409020546001600160a01b031633145b8061102557506001600160a01b038116600090815260046020908152604080832033845290915290205460ff165b6110645760405162461bcd60e51b815260206004820152601060248201526f21b0b73737ba103a3930b739b332b91760811b6044820152606401610960565b60008381526002602052604090205483906001600160a01b031661109a5760405162461bcd60e51b81526004016109609061359d565b6000848152600260205260409020546001600160a01b0390811690871681146110fb5760405162461bcd60e51b81526020600482015260136024820152722bb937b73390333937b69030b2323932b9b99760691b6044820152606401610960565b6001600160a01b0386166111475760405162461bcd60e51b815260206004820152601360248201527221b0b73737ba1039b2b732103a3790183c181760691b6044820152606401610960565b6111518686612569565b50505050505050565b614e365460ff161561116b57600080fd5b614e36805460ff19166001179055600f54600160a01b900460ff166111c65760405162461bcd60e51b815260206004820152601160248201527029b0b632903737ba1039ba30b93a32b21760791b6044820152606401610960565b60148111156111e75760405162461bcd60e51b815260040161096090613626565b614e206111f782610cf360095490565b111561123b5760405162461bcd60e51b8152602060048201526013602482015272115e18d959591cc81513d2d15397d312535255606a1b6044820152606401610960565b600b5460009061124b908361238b565b10156112695760405162461bcd60e51b8152600401610960906136b1565b601054349061127890836123ab565b146112c55760405162461bcd60e51b815260206004820152601f60248201527f4d415449432076616c75652073656e74206973206e6f7420636f7272656374006044820152606401610960565b600e546001600160a01b03166108fc6112df34600261265d565b6040518115909202916000818181858888f19350505050158015611307573d6000803e3d6000fd5b50600f546001600160a01b03166108fc61132234600261265d565b6040518115909202916000818181858888f1935050505015801561134a573d6000803e3d6000fd5b5060005b81811015610de757600a8054906000611366836137d7565b91905055506001600b5461137a9190613748565b600b5561138633612435565b5080611391816137d7565b91505061134e565b6001600160a01b03821660009081526005602052604081205482106113bd57600080fd5b6001600160a01b03831660009081526005602052604090208054839081106113e7576113e7613848565b9060005260206000200154905092915050565b61141583838360405180602001604052806000815250612669565b505050565b6000611433600a54614e2061238b90919063ffffffff16565b905090565b614e3a54600160a01b900460ff166114625760405162461bcd60e51b8152600401610960906135c5565b3361146c826115c5565b6001600160a01b0316146114925760405162461bcd60e51b81526004016109609061366f565b604080516080810182526000808252602080830182815283850183815260608501848152878552614e37909352928590209351845491516001600160a01b031661010002610100600160a81b0319911515919091166001600160a81b0319909216919091171783559051600183015551600290910155517f76915038033fd095a1c41c63de78ca96195fdeb0013ce2bfe4fbc0afe4b0b187906115389083815260200190565b60405180910390a160005b614e3b548110156115a65781614e3b828154811061156357611563613848565b9060005260206000200154141561159457614e3b818154811061158857611588613848565b60009182526020822001555b8061159e816137d7565b915050611543565b5050565b6000614e2082106115ba57600080fd5b610c508260016136fd565b6000818152600260205260408120546001600160a01b03166115e657600080fd5b506000908152600260205260409020546001600160a01b031690565b6000546001600160a01b0316331461162c5760405162461bcd60e51b8152600401610960906135f1565b614e3955565b60006001600160a01b03821661164757600080fd5b6001600160a01b038216600090815260056020526040902054610c50565b6000546001600160a01b0316331461168f5760405162461bcd60e51b8152600401610960906135f1565b611699600061287e565b565b614e3b81815481106116ac57600080fd5b600091825260209091200154905081565b6060600880546109a7906137a2565b601280546116d9906137a2565b80601f0160208091040260200160405190810160405280929190818152602001828054611705906137a2565b80156117525780601f1061172757610100808354040283529160200191611752565b820191906000526020600020905b81548152906001019060200180831161173557829003601f168201915b505050505081565b6000546001600160a01b031633146117845760405162461bcd60e51b8152600401610960906135f1565b80516115a690601290602084019061301d565b3360008181526004602090815260408083206001600160a01b03871680855290835292819020805460ff191686151590811790915590519081529192917f17307eab39ab6107e8899845ad3d59bd9653f200f220920489ca2b5937696c31910160405180910390a35050565b614e3a54600160a01b900460ff1661182d5760405162461bcd60e51b8152600401610960906135c5565b33611837836115c5565b6001600160a01b03161461185d5760405162461bcd60e51b81526004016109609061366f565b604080516080810182526001808252336020808401918252838501888152606080860188815260008a8152614e3785528890209651875495516001600160a81b0319909616901515610100600160a81b031916176101006001600160a01b0390961695909502949094178655905193850193909355905160029093019290925582518581529182018690529181018390527fe04275091c8ec0cacfa344ba26fef01e27e1aa9fa1c5211500f11e92ff862e05910160405180910390a150614e3b80546001810182556000919091527f9c134bf00a5ad545fbf5c27e8f9e91d26ff70c9ea5b8ffb7be9aa840d0537ccf015550565b6000546001600160a01b0316331461197b5760405162461bcd60e51b8152600401610960906135f1565b600f54600160a01b900460ff161561199257600080fd5b42601455600f805460ff60a01b1916600160a01b179055565b610fb285858585858080601f01602080910402602001604051908101604052809392919081815260200183838082843760009201919091525061266992505050565b6060614e3b805480602002602001604051908101604052809291908181526020018280548015610a2057602002820191906000526020600020905b815481526020019060010190808311611a28575050505050905090565b60008181526002602052604090205460609082906001600160a01b0316611a7e5760405162461bcd60e51b81526004016109609061359d565b6012611a89846128ce565b604051602001611a9a929190613462565b604051602081830303815290604052915050919050565b614e3a54600160a01b900460ff16611adb5760405162461bcd60e51b8152600401610960906135c5565b6000818152614e37602052604090205460ff16611b365760405162461bcd60e51b815260206004820152601960248201527854686520746f6b656e206973206e6f7420666f722073616c6560381b6044820152606401610960565b6000818152614e376020526040902060020154611b955760405162461bcd60e51b815260206004820152601860248201527f4572726f72207769746820746f6b656e207061796d656e7400000000000000006044820152606401610960565b6000818152614e376020908152604080832060018101546002909101548452614e38909252918290205491516370a0823160e01b815233600482015290916001600160a01b0316906370a082319060240160206040518083038186803b158015611bfe57600080fd5b505afa158015611c12573d6000803e3d6000fd5b505050506040513d601f19601f82011682018060405250810190611c369190613396565b1015611c845760405162461bcd60e51b815260206004820152601a60248201527f596f7520646f206e6f74206f776e20656e6f75676820676f6c640000000000006044820152606401610960565b6000818152614e376020908152604080832060018101546002909101548452614e3890925291829020549151636eb1769f60e11b815233600482015230602482015290916001600160a01b03169063dd62ed3e9060440160206040518083038186803b158015611cf357600080fd5b505afa158015611d07573d6000803e3d6000fd5b505050506040513d601f19601f82011682018060405250810190611d2b9190613396565b1015611d795760405162461bcd60e51b815260206004820152601a60248201527f596f7520616c6c6f77616e636520697320746f6f20736d616c6c0000000000006044820152606401610960565b614e39546000611d8b826103e8613748565b614e3a546000858152614e376020526040902060010154919250611dff9133916001600160a01b031690611dcd906103e890611dc790886123ab565b9061265d565b6000878152614e3760209081526040808320600201548352614e389091529020546001600160a01b03169291906123db565b6000838152614e37602052604090208054600190910154611e3e9133916101009091046001600160a01b031690611dcd906103e890611dc790876123ab565b611e483384612569565b6000838152614e37602090815260409182902060018101546002909101548351878152928301919091528183015290517f9695d5ebf5115e7b172f9c06e511f76a01df1de76571b792ff9b6d506f06d3ef9181900360600190a1604080516080810182526000808252602080830182815283850183815260608501848152898552614e379093529483209351845491516001600160a81b0319909216901515610100600160a81b031916176101006001600160a01b03909216919091021783559251600183015591516002909101555b614e3b54811015611f7b5783614e3b8281548110611f3857611f38613848565b90600052602060002001541415611f6957614e3b8181548110611f5d57611f5d613848565b60009182526020822001555b80611f73816137d7565b915050611f18565b50505050565b6000546001600160a01b03163314611fab5760405162461bcd60e51b8152600401610960906135f1565b6001600160a01b0381166120105760405162461bcd60e51b815260206004820152602660248201527f4f776e61626c653a206e6577206f776e657220697320746865207a65726f206160448201526564647265737360d01b6064820152608401610960565b6120198161287e565b50565b614e3a54600160a01b900460ff166120465760405162461bcd60e51b8152600401610960906135c5565b6000818152614e37602052604090205460ff166120a15760405162461bcd60e51b815260206004820152601960248201527854686520746f6b656e206973206e6f7420666f722073616c6560381b6044820152606401610960565b6000818152614e376020526040902060020154156120f75760405162461bcd60e51b81526020600482015260136024820152724e6f74206c697374656420696e204d6174696360681b6044820152606401610960565b6000818152614e37602052604090206001015434146121585760405162461bcd60e51b815260206004820152601a60248201527f57726f6e6720616d6f756e74206f66204d617469632073656e740000000000006044820152606401610960565b614e3954600061216a826103e8613748565b614e3a546000858152614e3760205260409020600101549192506001600160a01b0316906108fc906121a4906103e890611dc790876123ab565b6040518115909202916000818181858888f193505050501580156121cc573d6000803e3d6000fd5b506000838152614e376020526040902080546001909101546101009091046001600160a01b0316906108fc9061220a906103e890611dc790866123ab565b6040518115909202916000818181858888f19350505050158015612232573d6000803e3d6000fd5b5061223d3384612569565b6000838152614e37602090815260409182902060018101546002909101548351878152928301919091528183015290517f9695d5ebf5115e7b172f9c06e511f76a01df1de76571b792ff9b6d506f06d3ef9181900360600190a1604080516080810182526000808252602080830182815283850183815260608501848152898552614e379093529483209351845491516001600160a81b0319909216901515610100600160a81b031916176101006001600160a01b03909216919091021783559251600183015591516002909101555b614e3b54811015611f7b5783614e3b828154811061232d5761232d613848565b9060005260206000200154141561235e57614e3b818154811061235257612352613848565b60009182526020822001555b80612368816137d7565b91505061230d565b600061237c82846136fd565b905082811015610c5057600080fd5b60008282111561239a57600080fd5b6123a48284613748565b9392505050565b6000826123ba57506000610c50565b6123c48284613729565b9050816123d18483613715565b14610c5057600080fd5b604080516001600160a01b0385811660248301528416604482015260648082018490528251808303909101815260849091019091526020810180516001600160e01b03166323b872dd60e01b179052611f7b9085906129e5565b60006001600160a01b0382166124835760405162461bcd60e51b815260206004820152601360248201527221b0b73737ba1036b4b73a103a3790183c181760691b6044820152606401610960565b614e20600954106124cd5760405162461bcd60e51b81526020600482015260146024820152732a37b5b2b7103634b6b4ba103932b0b1b432b21760611b6044820152606401610960565b60006124d7612ab7565b905060095460016124e891906136fd565b6009556124f58382612c13565b6040516001600160a01b0384169082907ff3cea5493d790af0133817606f7350a91d7f154ea52eaa79d179d4d231e5010290600090a360405181906001600160a01b038516906000907fddf252ad1be2c89b69c2b068fc378daa952ba7f163c4a11628f55a4df523b3ef908290a492915050565b6000818152600260205260409020546001600160a01b031661258a82612ce2565b604080516080810182526000808252602080830182815283850183815260608501848152888552614e37909352949092209251835492516001600160a81b0319909316901515610100600160a81b031916176101006001600160a01b039093169290920291909117825591516001820155905160029091015561260d8183612d1d565b6126178383612c13565b81836001600160a01b0316826001600160a01b03167fddf252ad1be2c89b69c2b068fc378daa952ba7f163c4a11628f55a4df523b3ef60405160405180910390a4505050565b60006123a48284613715565b60008281526002602052604090205482906001600160a01b0316338114806126a757506000828152600360205260409020546001600160a01b031633145b806126d557506001600160a01b038116600090815260046020908152604080832033845290915290205460ff165b6127145760405162461bcd60e51b815260206004820152601060248201526f21b0b73737ba103a3930b739b332b91760811b6044820152606401610960565b60008481526002602052604090205484906001600160a01b031661274a5760405162461bcd60e51b81526004016109609061359d565b6000858152600260205260409020546001600160a01b0390811690881681146127a85760405162461bcd60e51b815260206004820152601060248201526f24b731b7b93932b1ba1037bbb732b91760811b6044820152606401610960565b6001600160a01b0387166127bb57600080fd5b6127c58787612569565b863b1561287457604051630a85bd0160e11b81526000906001600160a01b0389169063150b7a02906128019033908d908c908c90600401613509565b602060405180830381600087803b15801561281b57600080fd5b505af115801561282f573d6000803e3d6000fd5b505050506040513d601f19601f8201168201806040525081019061285391906132af565b90506001600160e01b03198116630a85bd0160e11b1461287257600080fd5b505b5050505050505050565b600080546001600160a01b038381166001600160a01b0319831681178455604051919092169283917f8be0079c531659141344cd1fd0a4f28419497f9722a3daafe3b4186f6b6457e09190a35050565b6060816128f25750506040805180820190915260018152600360fc1b602082015290565b8160005b811561291c5780612906816137d7565b91506129159050600a83613715565b91506128f6565b60008167ffffffffffffffff8111156129375761293761385e565b6040519080825280601f01601f191660200182016040528015612961576020820181803683370190505b5090506000612971600184613748565b90508593505b83156129dc57612988600a856137f2565b6129939060306136fd565b60f81b82826129a18161378b565b9350815181106129b3576129b3613848565b60200101906001600160f81b031916908160001a9053506129d5600a85613715565b9350612977565b50949350505050565b6000612a3a826040518060400160405280602081526020017f5361666545524332303a206c6f772d6c6576656c2063616c6c206661696c6564815250856001600160a01b0316612e9c9092919063ffffffff16565b8051909150156114155780806020019051810190612a589190613275565b6114155760405162461bcd60e51b815260206004820152602a60248201527f5361666545524332303a204552433230206f7065726174696f6e20646964206e6044820152691bdd081cdd58d8d9595960b21b6064820152608401610960565b600080600954614e20612aca9190613748565b6015546040805160208101929092526bffffffffffffffffffffffff193360601b169082015244605482015242607482015290915060009082906094016040516020818303038152906040528051906020012060001c612b2a91906137f2565b90506000601682614e208110612b4257612b42613848565b015415612b6657601682614e208110612b5d57612b5d613848565b01549050612b69565b50805b6016612b76600185613748565b614e208110612b8757612b87613848565b0154612bb357612b98600184613748565b601683614e208110612bac57612bac613848565b0155612bea565b6016612bc0600185613748565b614e208110612bd157612bd1613848565b0154601683614e208110612be757612be7613848565b01555b60158054906000612bfa836137d7565b90915550612c0b9050816001612370565b935050505090565b6000818152600260205260409020546001600160a01b031615612c785760405162461bcd60e51b815260206004820152601a60248201527f43616e6e6f74206164642c20616c7265616479206f776e65642e0000000000006044820152606401610960565b600081815260026020908152604080832080546001600160a01b0319166001600160a01b038716908117909155808452600583529083208054600181810183558286529385200185905592529054612ccf9161238b565b6000918252600660205260409091205550565b6000818152600360205260409020546001600160a01b03161561201957600090815260036020526040902080546001600160a01b0319169055565b6000818152600260205260409020546001600160a01b03838116911614612d795760405162461bcd60e51b815260206004820152601060248201526f24b731b7b93932b1ba1037bbb732b91760811b6044820152606401610960565b600081815260026020908152604080832080546001600160a01b031916905560068252808320546001600160a01b03861684526005909252822054909190612dc290600161238b565b9050818114612e59576001600160a01b0384166000908152600560205260408120805483908110612df557612df5613848565b906000526020600020015490508060056000876001600160a01b03166001600160a01b031681526020019081526020016000208481548110612e3957612e39613848565b600091825260208083209091019290925591825260069052604090208290555b6001600160a01b0384166000908152600560205260409020805480612e8057612e80613832565b6001900381819060005260206000200160009055905550505050565b6060612eab8484600085612eb3565b949350505050565b606082471015612f145760405162461bcd60e51b815260206004820152602660248201527f416464726573733a20696e73756666696369656e742062616c616e636520666f6044820152651c8818d85b1b60d21b6064820152608401610960565b6001600160a01b0385163b612f6b5760405162461bcd60e51b815260206004820152601d60248201527f416464726573733a2063616c6c20746f206e6f6e2d636f6e74726163740000006044820152606401610960565b600080866001600160a01b03168587604051612f879190613446565b60006040518083038185875af1925050503d8060008114612fc4576040519150601f19603f3d011682016040523d82523d6000602084013e612fc9565b606091505b5091509150612fd9828286612fe4565b979650505050505050565b60608315612ff35750816123a4565b8251156130035782518084602001fd5b8160405162461bcd60e51b8152600401610960919061358a565b828054613029906137a2565b90600052602060002090601f01602090048101928261304b5760008555613091565b82601f1061306457805160ff1916838001178555613091565b82800160010185558215613091579182015b82811115613091578251825591602001919060010190613076565b5061309d9291506130a1565b5090565b5b8082111561309d57600081556001016130a2565b80356001600160a01b03811681146130cd57600080fd5b919050565b6000602082840312156130e457600080fd5b6123a4826130b6565b6000806040838503121561310057600080fd5b613109836130b6565b9150613117602084016130b6565b90509250929050565b60008060006060848603121561313557600080fd5b61313e846130b6565b925061314c602085016130b6565b9150604084013590509250925092565b60008060008060006080868803121561317457600080fd5b61317d866130b6565b945061318b602087016130b6565b935060408601359250606086013567ffffffffffffffff808211156131af57600080fd5b818801915088601f8301126131c357600080fd5b8135818111156131d257600080fd5b8960208285010111156131e457600080fd5b9699959850939650602001949392505050565b6000806040838503121561320a57600080fd5b613213836130b6565b9150602083013561322381613874565b809150509250929050565b6000806040838503121561324157600080fd5b61324a836130b6565b946020939093013593505050565b60006020828403121561326a57600080fd5b81356123a481613874565b60006020828403121561328757600080fd5b81516123a481613874565b6000602082840312156132a457600080fd5b81356123a481613882565b6000602082840312156132c157600080fd5b81516123a481613882565b6000602082840312156132de57600080fd5b813567ffffffffffffffff808211156132f657600080fd5b818401915084601f83011261330a57600080fd5b81358181111561331c5761331c61385e565b604051601f8201601f19908116603f011681019083821181831017156133445761334461385e565b8160405282815287602084870101111561335d57600080fd5b826020860160208301376000928101602001929092525095945050505050565b60006020828403121561338f57600080fd5b5035919050565b6000602082840312156133a857600080fd5b5051919050565b600080604083850312156133c257600080fd5b82359150613117602084016130b6565b6000806000606084860312156133e757600080fd5b505081359360208301359350604090920135919050565b6000815180845261341681602086016020860161375f565b601f01601f19169290920160200192915050565b6000815161343c81856020860161375f565b9290920192915050565b6000825161345881846020870161375f565b9190910192915050565b600080845481600182811c91508083168061347e57607f831692505b602080841082141561349e57634e487b7160e01b86526022600452602486fd5b8180156134b257600181146134c3576134f0565b60ff198616895284890196506134f0565b60008b81526020902060005b868110156134e85781548b8201529085019083016134cf565b505084890196505b505050505050613500818561342a565b95945050505050565b6001600160a01b038581168252841660208201526040810183905260806060820181905260009061353c908301846133fe565b9695505050505050565b6020808252825182820181905260009190848201906040850190845b8181101561357e57835183529284019291840191600101613562565b50909695505050505050565b6020815260006123a460208301846133fe565b6020808252600e908201526d24b73b30b634b2103a37b5b2b71760911b604082015260600190565b60208082526012908201527113585c9ad95d081b9bdd081cdd185c9d195960721b604082015260600190565b6020808252818101527f4f776e61626c653a2063616c6c6572206973206e6f7420746865206f776e6572604082015260600190565b60208082526029908201527f596f752063616e206e6f7420627579206d6f7265207468616e203230204e465460408201526873206174206f6e636560b81b606082015260800190565b60208082526022908201527f596f7520617265206e6f7420746865206f776e6572206f662074686520746f6b60408201526132b760f11b606082015260800190565b6020808252602c908201527f457863656564732072656d61696e696e67207072696d6172792073616c65206f60408201526b66204d415449432073616c6560a01b606082015260800190565b6000821982111561371057613710613806565b500190565b6000826137245761372461381c565b500490565b600081600019048311821515161561374357613743613806565b500290565b60008282101561375a5761375a613806565b500390565b60005b8381101561377a578181015183820152602001613762565b83811115611f7b5750506000910152565b60008161379a5761379a613806565b506000190190565b600181811c908216806137b657607f821691505b60208210811415610a7b57634e487b7160e01b600052602260045260246000fd5b60006000198214156137eb576137eb613806565b5060010190565b6000826138015761380161381c565b500690565b634e487b7160e01b600052601160045260246000fd5b634e487b7160e01b600052601260045260246000fd5b634e487b7160e01b600052603160045260246000fd5b634e487b7160e01b600052603260045260246000fd5b634e487b7160e01b600052604160045260246000fd5b801515811461201957600080fd5b6001600160e01b03198116811461201957600080fdfea2646970667358221220d19e81adca653e60171d9310f9e60fa9dab925e2fc80c278a2a3d05007d2f00964736f6c63430008070033",
					"opcodes": "PUSH1 0xC0 PUSH1 0x40 MSTORE PUSH1 0xA PUSH1 0x80 DUP2 SWAP1 MSTORE PUSH10 0x506F6C794865726F6573 PUSH1 0xB0 SHL PUSH1 0xA0 SWAP1 DUP2 MSTORE PUSH3 0x2D SWAP2 PUSH1 0x7 SWAP2 SWAP1 PUSH3 0x25D JUMP JUMPDEST POP PUSH1 0x40 DUP1 MLOAD DUP1 DUP3 ADD SWAP1 SWAP2 MSTORE PUSH1 0xA DUP1 DUP3 MSTORE PUSH10 0x506F6C794865726F6573 PUSH1 0xB0 SHL PUSH1 0x20 SWAP1 SWAP3 ADD SWAP2 DUP3 MSTORE PUSH3 0x61 SWAP2 PUSH1 0x8 SWAP2 PUSH3 0x25D JUMP JUMPDEST POP PUSH1 0x0 PUSH1 0x9 DUP2 SWAP1 SSTORE PUSH1 0xA DUP2 SWAP1 SSTORE PUSH2 0x2710 PUSH1 0xB DUP2 SWAP1 SSTORE PUSH1 0xC SSTORE PUSH1 0xF DUP1 SLOAD PUSH1 0xFF PUSH1 0xA0 SHL NOT SWAP1 DUP2 AND SWAP1 SWAP2 SSTORE PUSH7 0x470DE4DF820000 PUSH1 0x10 SSTORE PUSH9 0x56BC75E2D63100000 PUSH1 0x11 SSTORE PUSH1 0x15 SWAP2 SWAP1 SWAP2 SSTORE PUSH2 0x4E36 DUP1 SLOAD PUSH1 0xFF NOT AND SWAP1 SSTORE PUSH2 0x4E3A DUP1 SLOAD SWAP1 SWAP2 AND SWAP1 SSTORE CALLVALUE DUP1 ISZERO PUSH3 0xC9 JUMPI PUSH1 0x0 DUP1 REVERT JUMPDEST POP PUSH1 0x40 MLOAD PUSH3 0x3CAB CODESIZE SUB DUP1 PUSH3 0x3CAB DUP4 CODECOPY DUP2 ADD PUSH1 0x40 DUP2 SWAP1 MSTORE PUSH3 0xEC SWAP2 PUSH3 0x303 JUMP JUMPDEST PUSH3 0xF7 CALLER PUSH3 0x20D JUMP JUMPDEST PUSH1 0x1 PUSH1 0x20 DUP2 SWAP1 MSTORE PUSH32 0xB45820386466A8E01597D6E1EFAF8F11BA4467972DE5CA6C1F8AA3544AC2888E DUP1 SLOAD PUSH1 0xFF NOT SWAP1 DUP2 AND DUP4 OR SWAP1 SWAP2 SSTORE PUSH32 0xB8349D7B7B0B2B924BF96F90971CDA8C7AC1EA4CDE292A182BD2A203EEF6C5D0 DUP1 SLOAD DUP3 AND DUP4 OR SWAP1 SSTORE PUSH32 0xE20BD7B4297895BDD985FAAC9360F413D46658B4C96E853899576249F1474AB DUP1 SLOAD DUP3 AND DUP4 OR SWAP1 SSTORE PUSH4 0x5B5E139F PUSH1 0xE0 SHL PUSH1 0x0 MSTORE PUSH32 0xCE9309D5FE1C6050FDFDE39D28CA0616E34393306D1CBA1A247C40F9EF5C5D09 DUP1 SLOAD SWAP1 SWAP2 AND SWAP1 SWAP2 OR SWAP1 SSTORE PUSH2 0x4E39 SWAP2 SWAP1 SWAP2 SSTORE PUSH2 0x4E3A DUP1 SLOAD PUSH1 0x1 PUSH1 0x1 PUSH1 0xA0 SHL SUB NOT SWAP1 DUP2 AND PUSH1 0x1 PUSH1 0x1 PUSH1 0xA0 SHL SUB SWAP4 DUP5 AND OR SWAP1 SWAP2 SSTORE PUSH1 0xE DUP1 SLOAD DUP3 AND SWAP6 DUP4 AND SWAP6 SWAP1 SWAP6 OR SWAP1 SWAP5 SSTORE PUSH1 0xF DUP1 SLOAD DUP6 AND SWAP4 DUP3 AND SWAP4 SWAP1 SWAP4 OR SWAP1 SWAP3 SSTORE PUSH1 0x13 DUP1 SLOAD SWAP1 SWAP4 AND SWAP2 AND OR SWAP1 SSTORE PUSH3 0x3CD JUMP JUMPDEST PUSH1 0x0 DUP1 SLOAD PUSH1 0x1 PUSH1 0x1 PUSH1 0xA0 SHL SUB DUP4 DUP2 AND PUSH1 0x1 PUSH1 0x1 PUSH1 0xA0 SHL SUB NOT DUP4 AND DUP2 OR DUP5 SSTORE PUSH1 0x40 MLOAD SWAP2 SWAP1 SWAP3 AND SWAP3 DUP4 SWAP2 PUSH32 0x8BE0079C531659141344CD1FD0A4F28419497F9722A3DAAFE3B4186F6B6457E0 SWAP2 SWAP1 LOG3 POP POP JUMP JUMPDEST DUP3 DUP1 SLOAD PUSH3 0x26B SWAP1 PUSH3 0x377 JUMP JUMPDEST SWAP1 PUSH1 0x0 MSTORE PUSH1 0x20 PUSH1 0x0 KECCAK256 SWAP1 PUSH1 0x1F ADD PUSH1 0x20 SWAP1 DIV DUP2 ADD SWAP3 DUP3 PUSH3 0x28F JUMPI PUSH1 0x0 DUP6 SSTORE PUSH3 0x2DA JUMP JUMPDEST DUP3 PUSH1 0x1F LT PUSH3 0x2AA JUMPI DUP1 MLOAD PUSH1 0xFF NOT AND DUP4 DUP1 ADD OR DUP6 SSTORE PUSH3 0x2DA JUMP JUMPDEST DUP3 DUP1 ADD PUSH1 0x1 ADD DUP6 SSTORE DUP3 ISZERO PUSH3 0x2DA JUMPI SWAP2 DUP3 ADD JUMPDEST DUP3 DUP2 GT ISZERO PUSH3 0x2DA JUMPI DUP3 MLOAD DUP3 SSTORE SWAP2 PUSH1 0x20 ADD SWAP2 SWAP1 PUSH1 0x1 ADD SWAP1 PUSH3 0x2BD JUMP JUMPDEST POP PUSH3 0x2E8 SWAP3 SWAP2 POP PUSH3 0x2EC JUMP JUMPDEST POP SWAP1 JUMP JUMPDEST JUMPDEST DUP1 DUP3 GT ISZERO PUSH3 0x2E8 JUMPI PUSH1 0x0 DUP2 SSTORE PUSH1 0x1 ADD PUSH3 0x2ED JUMP JUMPDEST PUSH1 0x0 DUP1 PUSH1 0x0 DUP1 PUSH1 0x0 PUSH1 0xA0 DUP7 DUP9 SUB SLT ISZERO PUSH3 0x31C JUMPI PUSH1 0x0 DUP1 REVERT JUMPDEST DUP6 MLOAD PUSH3 0x329 DUP2 PUSH3 0x3B4 JUMP JUMPDEST PUSH1 0x20 DUP8 ADD MLOAD SWAP1 SWAP6 POP PUSH3 0x33C DUP2 PUSH3 0x3B4 JUMP JUMPDEST PUSH1 0x40 DUP8 ADD MLOAD SWAP1 SWAP5 POP PUSH3 0x34F DUP2 PUSH3 0x3B4 JUMP JUMPDEST PUSH1 0x60 DUP8 ADD MLOAD PUSH1 0x80 DUP9 ADD MLOAD SWAP2 SWAP5 POP SWAP3 POP PUSH3 0x369 DUP2 PUSH3 0x3B4 JUMP JUMPDEST DUP1 SWAP2 POP POP SWAP3 SWAP6 POP SWAP3 SWAP6 SWAP1 SWAP4 POP JUMP JUMPDEST PUSH1 0x1 DUP2 DUP2 SHR SWAP1 DUP3 AND DUP1 PUSH3 0x38C JUMPI PUSH1 0x7F DUP3 AND SWAP2 POP JUMPDEST PUSH1 0x20 DUP3 LT DUP2 EQ ISZERO PUSH3 0x3AE JUMPI PUSH4 0x4E487B71 PUSH1 0xE0 SHL PUSH1 0x0 MSTORE PUSH1 0x22 PUSH1 0x4 MSTORE PUSH1 0x24 PUSH1 0x0 REVERT JUMPDEST POP SWAP2 SWAP1 POP JUMP JUMPDEST PUSH1 0x1 PUSH1 0x1 PUSH1 0xA0 SHL SUB DUP2 AND DUP2 EQ PUSH3 0x3CA JUMPI PUSH1 0x0 DUP1 REVERT JUMPDEST POP JUMP JUMPDEST PUSH2 0x38CE DUP1 PUSH3 0x3DD PUSH1 0x0 CODECOPY PUSH1 0x0 RETURN INVALID PUSH1 0x80 PUSH1 0x40 MSTORE PUSH1 0x4 CALLDATASIZE LT PUSH2 0x2AE JUMPI PUSH1 0x0 CALLDATALOAD PUSH1 0xE0 SHR DUP1 PUSH4 0x6EF25C3A GT PUSH2 0x175 JUMPI DUP1 PUSH4 0xB88D4FDE GT PUSH2 0xDC JUMPI DUP1 PUSH4 0xE985E9C5 GT PUSH2 0x95 JUMPI DUP1 PUSH4 0xF2FDE38B GT PUSH2 0x6F JUMPI DUP1 PUSH4 0xF2FDE38B EQ PUSH2 0x8BD JUMPI DUP1 PUSH4 0xF79E4164 EQ PUSH2 0x8DD JUMPI DUP1 PUSH4 0xF9AE7AAF EQ PUSH2 0x903 JUMPI DUP1 PUSH4 0xFBEC6F21 EQ PUSH2 0x916 JUMPI PUSH1 0x0 DUP1 REVERT JUMPDEST DUP1 PUSH4 0xE985E9C5 EQ PUSH2 0x83D JUMPI DUP1 PUSH4 0xED38B79C EQ PUSH2 0x886 JUMPI DUP1 PUSH4 0xF25F4B56 EQ PUSH2 0x89C JUMPI PUSH1 0x0 DUP1 REVERT JUMPDEST DUP1 PUSH4 0xB88D4FDE EQ PUSH2 0x762 JUMPI DUP1 PUSH4 0xBE9A71BD EQ PUSH2 0x782 JUMPI DUP1 PUSH4 0xC2DB2C42 EQ PUSH2 0x7A4 JUMPI DUP1 PUSH4 0xC87B56DD EQ PUSH2 0x7DB JUMPI DUP1 PUSH4 0xD4C66861 EQ PUSH2 0x7FB JUMPI DUP1 PUSH4 0xE0E081D7 EQ PUSH2 0x81B JUMPI PUSH1 0x0 DUP1 REVERT JUMPDEST DUP1 PUSH4 0x95D89B41 GT PUSH2 0x12E JUMPI DUP1 PUSH4 0x95D89B41 EQ PUSH2 0x6C3 JUMPI DUP1 PUSH4 0x9ABC8320 EQ PUSH2 0x6D8 JUMPI DUP1 PUSH4 0x9B642DE1 EQ PUSH2 0x6ED JUMPI DUP1 PUSH4 0xA22CB465 EQ PUSH2 0x70D JUMPI DUP1 PUSH4 0xB03053B6 EQ PUSH2 0x72D JUMPI DUP1 PUSH4 0xB66A0E5D EQ PUSH2 0x74D JUMPI PUSH1 0x0 DUP1 REVERT JUMPDEST DUP1 PUSH4 0x6EF25C3A EQ PUSH2 0x5BF JUMPI DUP1 PUSH4 0x70A08231 EQ PUSH2 0x5D6 JUMPI DUP1 PUSH4 0x715018A6 EQ PUSH2 0x5F6 JUMPI DUP1 PUSH4 0x75BEA166 EQ PUSH2 0x60B JUMPI DUP1 PUSH4 0x80C9419E EQ PUSH2 0x62B JUMPI DUP1 PUSH4 0x8DA5CB5B EQ PUSH2 0x6A5 JUMPI PUSH1 0x0 DUP1 REVERT JUMPDEST DUP1 PUSH4 0x20D1FC62 GT PUSH2 0x219 JUMPI DUP1 PUSH4 0x44C66BE7 GT PUSH2 0x1D2 JUMPI DUP1 PUSH4 0x44C66BE7 EQ PUSH2 0x514 JUMPI DUP1 PUSH4 0x479AD4C3 EQ PUSH2 0x529 JUMPI DUP1 PUSH4 0x4C211C28 EQ PUSH2 0x549 JUMPI DUP1 PUSH4 0x4F6CCCE7 EQ PUSH2 0x55F JUMPI DUP1 PUSH4 0x6352211E EQ PUSH2 0x57F JUMPI DUP1 PUSH4 0x69FE0E2D EQ PUSH2 0x59F JUMPI PUSH1 0x0 DUP1 REVERT JUMPDEST DUP1 PUSH4 0x20D1FC62 EQ PUSH2 0x460 JUMPI DUP1 PUSH4 0x23B872DD EQ PUSH2 0x480 JUMPI DUP1 PUSH4 0x2DB11544 EQ PUSH2 0x4A0 JUMPI DUP1 PUSH4 0x2F745C59 EQ PUSH2 0x4B3 JUMPI DUP1 PUSH4 0x33BC1C5C EQ PUSH2 0x4D3 JUMPI DUP1 PUSH4 0x42842E0E EQ PUSH2 0x4F4 JUMPI PUSH1 0x0 DUP1 REVERT JUMPDEST DUP1 PUSH4 0xCEF3DF1 GT PUSH2 0x26B JUMPI DUP1 PUSH4 0xCEF3DF1 EQ PUSH2 0x3C2 JUMPI DUP1 PUSH4 0x10A15CC8 EQ PUSH2 0x3E2 JUMPI DUP1 PUSH4 0x18160DDD EQ PUSH2 0x3F5 JUMPI DUP1 PUSH4 0x1BCD39AA EQ PUSH2 0x40A JUMPI DUP1 PUSH4 0x1CBAEE2D EQ PUSH2 0x42A JUMPI DUP1 PUSH4 0x1D2E5A3A EQ PUSH2 0x440 JUMPI PUSH1 0x0 DUP1 REVERT JUMPDEST DUP1 PUSH4 0x1FFC9A7 EQ PUSH2 0x2B3 JUMPI DUP1 PUSH4 0x31BD4C4 EQ PUSH2 0x302 JUMPI DUP1 PUSH4 0x612C478 EQ PUSH2 0x326 JUMPI DUP1 PUSH4 0x6FDDE03 EQ PUSH2 0x348 JUMPI DUP1 PUSH4 0x81812FC EQ PUSH2 0x36A JUMPI DUP1 PUSH4 0x95EA7B3 EQ PUSH2 0x3A2 JUMPI JUMPDEST PUSH1 0x0 DUP1 REVERT JUMPDEST CALLVALUE DUP1 ISZERO PUSH2 0x2BF JUMPI PUSH1 0x0 DUP1 REVERT JUMPDEST POP PUSH2 0x2ED PUSH2 0x2CE CALLDATASIZE PUSH1 0x4 PUSH2 0x3292 JUMP JUMPDEST PUSH1 0x1 PUSH1 0x1 PUSH1 0xE0 SHL SUB NOT AND PUSH1 0x0 SWAP1 DUP2 MSTORE PUSH1 0x1 PUSH1 0x20 MSTORE PUSH1 0x40 SWAP1 KECCAK256 SLOAD PUSH1 0xFF AND SWAP1 JUMP JUMPDEST PUSH1 0x40 MLOAD SWAP1 ISZERO ISZERO DUP2 MSTORE PUSH1 0x20 ADD JUMPDEST PUSH1 0x40 MLOAD DUP1 SWAP2 SUB SWAP1 RETURN JUMPDEST CALLVALUE DUP1 ISZERO PUSH2 0x30E JUMPI PUSH1 0x0 DUP1 REVERT JUMPDEST POP PUSH2 0x318 PUSH2 0x4E20 DUP2 JUMP JUMPDEST PUSH1 0x40 MLOAD SWAP1 DUP2 MSTORE PUSH1 0x20 ADD PUSH2 0x2F9 JUMP JUMPDEST CALLVALUE DUP1 ISZERO PUSH2 0x332 JUMPI PUSH1 0x0 DUP1 REVERT JUMPDEST POP PUSH2 0x346 PUSH2 0x341 CALLDATASIZE PUSH1 0x4 PUSH2 0x33AF JUMP JUMPDEST PUSH2 0x936 JUMP JUMPDEST STOP JUMPDEST CALLVALUE DUP1 ISZERO PUSH2 0x354 JUMPI PUSH1 0x0 DUP1 REVERT JUMPDEST POP PUSH2 0x35D PUSH2 0x998 JUMP JUMPDEST PUSH1 0x40 MLOAD PUSH2 0x2F9 SWAP2 SWAP1 PUSH2 0x358A JUMP JUMPDEST CALLVALUE DUP1 ISZERO PUSH2 0x376 JUMPI PUSH1 0x0 DUP1 REVERT JUMPDEST POP PUSH2 0x38A PUSH2 0x385 CALLDATASIZE PUSH1 0x4 PUSH2 0x337D JUMP JUMPDEST PUSH2 0xA2A JUMP JUMPDEST PUSH1 0x40 MLOAD PUSH1 0x1 PUSH1 0x1 PUSH1 0xA0 SHL SUB SWAP1 SWAP2 AND DUP2 MSTORE PUSH1 0x20 ADD PUSH2 0x2F9 JUMP JUMPDEST CALLVALUE DUP1 ISZERO PUSH2 0x3AE JUMPI PUSH1 0x0 DUP1 REVERT JUMPDEST POP PUSH2 0x346 PUSH2 0x3BD CALLDATASIZE PUSH1 0x4 PUSH2 0x322E JUMP JUMPDEST PUSH2 0xA81 JUMP JUMPDEST CALLVALUE DUP1 ISZERO PUSH2 0x3CE JUMPI PUSH1 0x0 DUP1 REVERT JUMPDEST POP PUSH2 0x2ED PUSH2 0x3DD CALLDATASIZE PUSH1 0x4 PUSH2 0x33AF JUMP JUMPDEST PUSH2 0xBC8 JUMP JUMPDEST PUSH2 0x346 PUSH2 0x3F0 CALLDATASIZE PUSH1 0x4 PUSH2 0x337D JUMP JUMPDEST PUSH2 0xC56 JUMP JUMPDEST CALLVALUE DUP1 ISZERO PUSH2 0x401 JUMPI PUSH1 0x0 DUP1 REVERT JUMPDEST POP PUSH1 0x9 SLOAD PUSH2 0x318 JUMP JUMPDEST CALLVALUE DUP1 ISZERO PUSH2 0x416 JUMPI PUSH1 0x0 DUP1 REVERT JUMPDEST POP PUSH2 0x346 PUSH2 0x425 CALLDATASIZE PUSH1 0x4 PUSH2 0x30D2 JUMP JUMPDEST PUSH2 0xDF6 JUMP JUMPDEST CALLVALUE DUP1 ISZERO PUSH2 0x436 JUMPI PUSH1 0x0 DUP1 REVERT JUMPDEST POP PUSH2 0x318 PUSH1 0x14 SLOAD DUP2 JUMP JUMPDEST CALLVALUE DUP1 ISZERO PUSH2 0x44C JUMPI PUSH1 0x0 DUP1 REVERT JUMPDEST POP PUSH2 0x346 PUSH2 0x45B CALLDATASIZE PUSH1 0x4 PUSH2 0x3258 JUMP JUMPDEST PUSH2 0xE49 JUMP JUMPDEST CALLVALUE DUP1 ISZERO PUSH2 0x46C JUMPI PUSH1 0x0 DUP1 REVERT JUMPDEST POP PUSH2 0x346 PUSH2 0x47B CALLDATASIZE PUSH1 0x4 PUSH2 0x3120 JUMP JUMPDEST PUSH2 0xE92 JUMP JUMPDEST CALLVALUE DUP1 ISZERO PUSH2 0x48C JUMPI PUSH1 0x0 DUP1 REVERT JUMPDEST POP PUSH2 0x346 PUSH2 0x49B CALLDATASIZE PUSH1 0x4 PUSH2 0x3120 JUMP JUMPDEST PUSH2 0xFB9 JUMP JUMPDEST PUSH2 0x346 PUSH2 0x4AE CALLDATASIZE PUSH1 0x4 PUSH2 0x337D JUMP JUMPDEST PUSH2 0x115A JUMP JUMPDEST CALLVALUE DUP1 ISZERO PUSH2 0x4BF JUMPI PUSH1 0x0 DUP1 REVERT JUMPDEST POP PUSH2 0x318 PUSH2 0x4CE CALLDATASIZE PUSH1 0x4 PUSH2 0x322E JUMP JUMPDEST PUSH2 0x1399 JUMP JUMPDEST CALLVALUE DUP1 ISZERO PUSH2 0x4DF JUMPI PUSH1 0x0 DUP1 REVERT JUMPDEST POP PUSH1 0xF SLOAD PUSH2 0x2ED SWAP1 PUSH1 0x1 PUSH1 0xA0 SHL SWAP1 DIV PUSH1 0xFF AND DUP2 JUMP JUMPDEST CALLVALUE DUP1 ISZERO PUSH2 0x500 JUMPI PUSH1 0x0 DUP1 REVERT JUMPDEST POP PUSH2 0x346 PUSH2 0x50F CALLDATASIZE PUSH1 0x4 PUSH2 0x3120 JUMP JUMPDEST PUSH2 0x13FA JUMP JUMPDEST CALLVALUE DUP1 ISZERO PUSH2 0x520 JUMPI PUSH1 0x0 DUP1 REVERT JUMPDEST POP PUSH2 0x318 PUSH2 0x141A JUMP JUMPDEST CALLVALUE DUP1 ISZERO PUSH2 0x535 JUMPI PUSH1 0x0 DUP1 REVERT JUMPDEST POP PUSH2 0x346 PUSH2 0x544 CALLDATASIZE PUSH1 0x4 PUSH2 0x337D JUMP JUMPDEST PUSH2 0x1438 JUMP JUMPDEST CALLVALUE DUP1 ISZERO PUSH2 0x555 JUMPI PUSH1 0x0 DUP1 REVERT JUMPDEST POP PUSH2 0x318 PUSH1 0xB SLOAD DUP2 JUMP JUMPDEST CALLVALUE DUP1 ISZERO PUSH2 0x56B JUMPI PUSH1 0x0 DUP1 REVERT JUMPDEST POP PUSH2 0x318 PUSH2 0x57A CALLDATASIZE PUSH1 0x4 PUSH2 0x337D JUMP JUMPDEST PUSH2 0x15AA JUMP JUMPDEST CALLVALUE DUP1 ISZERO PUSH2 0x58B JUMPI PUSH1 0x0 DUP1 REVERT JUMPDEST POP PUSH2 0x38A PUSH2 0x59A CALLDATASIZE PUSH1 0x4 PUSH2 0x337D JUMP JUMPDEST PUSH2 0x15C5 JUMP JUMPDEST CALLVALUE DUP1 ISZERO PUSH2 0x5AB JUMPI PUSH1 0x0 DUP1 REVERT JUMPDEST POP PUSH2 0x346 PUSH2 0x5BA CALLDATASIZE PUSH1 0x4 PUSH2 0x337D JUMP JUMPDEST PUSH2 0x1602 JUMP JUMPDEST CALLVALUE DUP1 ISZERO PUSH2 0x5CB JUMPI PUSH1 0x0 DUP1 REVERT JUMPDEST POP PUSH2 0x318 PUSH2 0x4E39 SLOAD DUP2 JUMP JUMPDEST CALLVALUE DUP1 ISZERO PUSH2 0x5E2 JUMPI PUSH1 0x0 DUP1 REVERT JUMPDEST POP PUSH2 0x318 PUSH2 0x5F1 CALLDATASIZE PUSH1 0x4 PUSH2 0x30D2 JUMP JUMPDEST PUSH2 0x1632 JUMP JUMPDEST CALLVALUE DUP1 ISZERO PUSH2 0x602 JUMPI PUSH1 0x0 DUP1 REVERT JUMPDEST POP PUSH2 0x346 PUSH2 0x1665 JUMP JUMPDEST CALLVALUE DUP1 ISZERO PUSH2 0x617 JUMPI PUSH1 0x0 DUP1 REVERT JUMPDEST POP PUSH2 0x318 PUSH2 0x626 CALLDATASIZE PUSH1 0x4 PUSH2 0x337D JUMP JUMPDEST PUSH2 0x169B JUMP JUMPDEST CALLVALUE DUP1 ISZERO PUSH2 0x637 JUMPI PUSH1 0x0 DUP1 REVERT JUMPDEST POP PUSH2 0x67B PUSH2 0x646 CALLDATASIZE PUSH1 0x4 PUSH2 0x337D JUMP JUMPDEST PUSH2 0x4E37 PUSH1 0x20 MSTORE PUSH1 0x0 SWAP1 DUP2 MSTORE PUSH1 0x40 SWAP1 KECCAK256 DUP1 SLOAD PUSH1 0x1 DUP3 ADD SLOAD PUSH1 0x2 SWAP1 SWAP3 ADD SLOAD PUSH1 0xFF DUP3 AND SWAP3 PUSH2 0x100 SWAP1 SWAP3 DIV PUSH1 0x1 PUSH1 0x1 PUSH1 0xA0 SHL SUB AND SWAP2 SWAP1 DUP5 JUMP JUMPDEST PUSH1 0x40 DUP1 MLOAD SWAP5 ISZERO ISZERO DUP6 MSTORE PUSH1 0x1 PUSH1 0x1 PUSH1 0xA0 SHL SUB SWAP1 SWAP4 AND PUSH1 0x20 DUP6 ADD MSTORE SWAP2 DUP4 ADD MSTORE PUSH1 0x60 DUP3 ADD MSTORE PUSH1 0x80 ADD PUSH2 0x2F9 JUMP JUMPDEST CALLVALUE DUP1 ISZERO PUSH2 0x6B1 JUMPI PUSH1 0x0 DUP1 REVERT JUMPDEST POP PUSH1 0x0 SLOAD PUSH1 0x1 PUSH1 0x1 PUSH1 0xA0 SHL SUB AND PUSH2 0x38A JUMP JUMPDEST CALLVALUE DUP1 ISZERO PUSH2 0x6CF JUMPI PUSH1 0x0 DUP1 REVERT JUMPDEST POP PUSH2 0x35D PUSH2 0x16BD JUMP JUMPDEST CALLVALUE DUP1 ISZERO PUSH2 0x6E4 JUMPI PUSH1 0x0 DUP1 REVERT JUMPDEST POP PUSH2 0x35D PUSH2 0x16CC JUMP JUMPDEST CALLVALUE DUP1 ISZERO PUSH2 0x6F9 JUMPI PUSH1 0x0 DUP1 REVERT JUMPDEST POP PUSH2 0x346 PUSH2 0x708 CALLDATASIZE PUSH1 0x4 PUSH2 0x32CC JUMP JUMPDEST PUSH2 0x175A JUMP JUMPDEST CALLVALUE DUP1 ISZERO PUSH2 0x719 JUMPI PUSH1 0x0 DUP1 REVERT JUMPDEST POP PUSH2 0x346 PUSH2 0x728 CALLDATASIZE PUSH1 0x4 PUSH2 0x31F7 JUMP JUMPDEST PUSH2 0x1797 JUMP JUMPDEST CALLVALUE DUP1 ISZERO PUSH2 0x739 JUMPI PUSH1 0x0 DUP1 REVERT JUMPDEST POP PUSH2 0x346 PUSH2 0x748 CALLDATASIZE PUSH1 0x4 PUSH2 0x33D2 JUMP JUMPDEST PUSH2 0x1803 JUMP JUMPDEST CALLVALUE DUP1 ISZERO PUSH2 0x759 JUMPI PUSH1 0x0 DUP1 REVERT JUMPDEST POP PUSH2 0x346 PUSH2 0x1951 JUMP JUMPDEST CALLVALUE DUP1 ISZERO PUSH2 0x76E JUMPI PUSH1 0x0 DUP1 REVERT JUMPDEST POP PUSH2 0x346 PUSH2 0x77D CALLDATASIZE PUSH1 0x4 PUSH2 0x315C JUMP JUMPDEST PUSH2 0x19AB JUMP JUMPDEST CALLVALUE DUP1 ISZERO PUSH2 0x78E JUMPI PUSH1 0x0 DUP1 REVERT JUMPDEST POP PUSH2 0x797 PUSH2 0x19ED JUMP JUMPDEST PUSH1 0x40 MLOAD PUSH2 0x2F9 SWAP2 SWAP1 PUSH2 0x3546 JUMP JUMPDEST CALLVALUE DUP1 ISZERO PUSH2 0x7B0 JUMPI PUSH1 0x0 DUP1 REVERT JUMPDEST POP PUSH2 0x38A PUSH2 0x7BF CALLDATASIZE PUSH1 0x4 PUSH2 0x337D JUMP JUMPDEST PUSH2 0x4E38 PUSH1 0x20 MSTORE PUSH1 0x0 SWAP1 DUP2 MSTORE PUSH1 0x40 SWAP1 KECCAK256 SLOAD PUSH1 0x1 PUSH1 0x1 PUSH1 0xA0 SHL SUB AND DUP2 JUMP JUMPDEST CALLVALUE DUP1 ISZERO PUSH2 0x7E7 JUMPI PUSH1 0x0 DUP1 REVERT JUMPDEST POP PUSH2 0x35D PUSH2 0x7F6 CALLDATASIZE PUSH1 0x4 PUSH2 0x337D JUMP JUMPDEST PUSH2 0x1A45 JUMP JUMPDEST CALLVALUE DUP1 ISZERO PUSH2 0x807 JUMPI PUSH1 0x0 DUP1 REVERT JUMPDEST POP PUSH2 0x346 PUSH2 0x816 CALLDATASIZE PUSH1 0x4 PUSH2 0x337D JUMP JUMPDEST PUSH2 0x1AB1 JUMP JUMPDEST CALLVALUE DUP1 ISZERO PUSH2 0x827 JUMPI PUSH1 0x0 DUP1 REVERT JUMPDEST POP PUSH2 0x4E3A SLOAD PUSH2 0x2ED SWAP1 PUSH1 0x1 PUSH1 0xA0 SHL SWAP1 DIV PUSH1 0xFF AND DUP2 JUMP JUMPDEST CALLVALUE DUP1 ISZERO PUSH2 0x849 JUMPI PUSH1 0x0 DUP1 REVERT JUMPDEST POP PUSH2 0x2ED PUSH2 0x858 CALLDATASIZE PUSH1 0x4 PUSH2 0x30ED JUMP JUMPDEST PUSH1 0x1 PUSH1 0x1 PUSH1 0xA0 SHL SUB SWAP2 DUP3 AND PUSH1 0x0 SWAP1 DUP2 MSTORE PUSH1 0x4 PUSH1 0x20 SWAP1 DUP2 MSTORE PUSH1 0x40 DUP1 DUP4 KECCAK256 SWAP4 SWAP1 SWAP5 AND DUP3 MSTORE SWAP2 SWAP1 SWAP2 MSTORE KECCAK256 SLOAD PUSH1 0xFF AND SWAP1 JUMP JUMPDEST CALLVALUE DUP1 ISZERO PUSH2 0x892 JUMPI PUSH1 0x0 DUP1 REVERT JUMPDEST POP PUSH2 0x318 PUSH1 0xC SLOAD DUP2 JUMP JUMPDEST CALLVALUE DUP1 ISZERO PUSH2 0x8A8 JUMPI PUSH1 0x0 DUP1 REVERT JUMPDEST POP PUSH2 0x4E3A SLOAD PUSH2 0x38A SWAP1 PUSH1 0x1 PUSH1 0x1 PUSH1 0xA0 SHL SUB AND DUP2 JUMP JUMPDEST CALLVALUE DUP1 ISZERO PUSH2 0x8C9 JUMPI PUSH1 0x0 DUP1 REVERT JUMPDEST POP PUSH2 0x346 PUSH2 0x8D8 CALLDATASIZE PUSH1 0x4 PUSH2 0x30D2 JUMP JUMPDEST PUSH2 0x1F81 JUMP JUMPDEST CALLVALUE DUP1 ISZERO PUSH2 0x8E9 JUMPI PUSH1 0x0 DUP1 REVERT JUMPDEST POP PUSH2 0x4E36 SLOAD PUSH2 0x38A SWAP1 PUSH2 0x100 SWAP1 DIV PUSH1 0x1 PUSH1 0x1 PUSH1 0xA0 SHL SUB AND DUP2 JUMP JUMPDEST PUSH2 0x346 PUSH2 0x911 CALLDATASIZE PUSH1 0x4 PUSH2 0x337D JUMP JUMPDEST PUSH2 0x201C JUMP JUMPDEST CALLVALUE DUP1 ISZERO PUSH2 0x922 JUMPI PUSH1 0x0 DUP1 REVERT JUMPDEST POP PUSH1 0x13 SLOAD PUSH2 0x38A SWAP1 PUSH1 0x1 PUSH1 0x1 PUSH1 0xA0 SHL SUB AND DUP2 JUMP JUMPDEST PUSH1 0x0 SLOAD PUSH1 0x1 PUSH1 0x1 PUSH1 0xA0 SHL SUB AND CALLER EQ PUSH2 0x969 JUMPI PUSH1 0x40 MLOAD PUSH3 0x461BCD PUSH1 0xE5 SHL DUP2 MSTORE PUSH1 0x4 ADD PUSH2 0x960 SWAP1 PUSH2 0x35F1 JUMP JUMPDEST PUSH1 0x40 MLOAD DUP1 SWAP2 SUB SWAP1 REVERT JUMPDEST PUSH1 0x0 SWAP2 DUP3 MSTORE PUSH2 0x4E38 PUSH1 0x20 MSTORE PUSH1 0x40 SWAP1 SWAP2 KECCAK256 DUP1 SLOAD PUSH1 0x1 PUSH1 0x1 PUSH1 0xA0 SHL SUB NOT AND PUSH1 0x1 PUSH1 0x1 PUSH1 0xA0 SHL SUB SWAP1 SWAP3 AND SWAP2 SWAP1 SWAP2 OR SWAP1 SSTORE JUMP JUMPDEST PUSH1 0x60 PUSH1 0x7 DUP1 SLOAD PUSH2 0x9A7 SWAP1 PUSH2 0x37A2 JUMP JUMPDEST DUP1 PUSH1 0x1F ADD PUSH1 0x20 DUP1 SWAP2 DIV MUL PUSH1 0x20 ADD PUSH1 0x40 MLOAD SWAP1 DUP2 ADD PUSH1 0x40 MSTORE DUP1 SWAP3 SWAP2 SWAP1 DUP2 DUP2 MSTORE PUSH1 0x20 ADD DUP3 DUP1 SLOAD PUSH2 0x9D3 SWAP1 PUSH2 0x37A2 JUMP JUMPDEST DUP1 ISZERO PUSH2 0xA20 JUMPI DUP1 PUSH1 0x1F LT PUSH2 0x9F5 JUMPI PUSH2 0x100 DUP1 DUP4 SLOAD DIV MUL DUP4 MSTORE SWAP2 PUSH1 0x20 ADD SWAP2 PUSH2 0xA20 JUMP JUMPDEST DUP3 ADD SWAP2 SWAP1 PUSH1 0x0 MSTORE PUSH1 0x20 PUSH1 0x0 KECCAK256 SWAP1 JUMPDEST DUP2 SLOAD DUP2 MSTORE SWAP1 PUSH1 0x1 ADD SWAP1 PUSH1 0x20 ADD DUP1 DUP4 GT PUSH2 0xA03 JUMPI DUP3 SWAP1 SUB PUSH1 0x1F AND DUP3 ADD SWAP2 JUMPDEST POP POP POP POP POP SWAP1 POP SWAP1 JUMP JUMPDEST PUSH1 0x0 DUP2 DUP2 MSTORE PUSH1 0x2 PUSH1 0x20 MSTORE PUSH1 0x40 DUP2 KECCAK256 SLOAD DUP3 SWAP1 PUSH1 0x1 PUSH1 0x1 PUSH1 0xA0 SHL SUB AND PUSH2 0xA60 JUMPI PUSH1 0x40 MLOAD PUSH3 0x461BCD PUSH1 0xE5 SHL DUP2 MSTORE PUSH1 0x4 ADD PUSH2 0x960 SWAP1 PUSH2 0x359D JUMP JUMPDEST PUSH1 0x0 DUP4 DUP2 MSTORE PUSH1 0x3 PUSH1 0x20 MSTORE PUSH1 0x40 SWAP1 KECCAK256 SLOAD PUSH1 0x1 PUSH1 0x1 PUSH1 0xA0 SHL SUB AND SWAP2 POP JUMPDEST POP SWAP2 SWAP1 POP JUMP JUMPDEST PUSH1 0x0 DUP2 DUP2 MSTORE PUSH1 0x2 PUSH1 0x20 MSTORE PUSH1 0x40 SWAP1 KECCAK256 SLOAD DUP2 SWAP1 PUSH1 0x1 PUSH1 0x1 PUSH1 0xA0 SHL SUB AND CALLER DUP2 EQ DUP1 PUSH2 0xACC JUMPI POP PUSH1 0x1 PUSH1 0x1 PUSH1 0xA0 SHL SUB DUP2 AND PUSH1 0x0 SWAP1 DUP2 MSTORE PUSH1 0x4 PUSH1 0x20 SWAP1 DUP2 MSTORE PUSH1 0x40 DUP1 DUP4 KECCAK256 CALLER DUP5 MSTORE SWAP1 SWAP2 MSTORE SWAP1 KECCAK256 SLOAD PUSH1 0xFF AND JUMPDEST PUSH2 0xB0A JUMPI PUSH1 0x40 MLOAD PUSH3 0x461BCD PUSH1 0xE5 SHL DUP2 MSTORE PUSH1 0x20 PUSH1 0x4 DUP3 ADD MSTORE PUSH1 0xF PUSH1 0x24 DUP3 ADD MSTORE PUSH15 0x21B0B73737BA1037B832B930BA3297 PUSH1 0x89 SHL PUSH1 0x44 DUP3 ADD MSTORE PUSH1 0x64 ADD PUSH2 0x960 JUMP JUMPDEST PUSH1 0x0 DUP4 DUP2 MSTORE PUSH1 0x2 PUSH1 0x20 MSTORE PUSH1 0x40 SWAP1 KECCAK256 SLOAD DUP4 SWAP1 PUSH1 0x1 PUSH1 0x1 PUSH1 0xA0 SHL SUB AND PUSH2 0xB40 JUMPI PUSH1 0x40 MLOAD PUSH3 0x461BCD PUSH1 0xE5 SHL DUP2 MSTORE PUSH1 0x4 ADD PUSH2 0x960 SWAP1 PUSH2 0x359D JUMP JUMPDEST PUSH1 0x0 DUP5 DUP2 MSTORE PUSH1 0x2 PUSH1 0x20 MSTORE PUSH1 0x40 SWAP1 KECCAK256 SLOAD PUSH1 0x1 PUSH1 0x1 PUSH1 0xA0 SHL SUB SWAP1 DUP2 AND SWAP1 DUP7 AND DUP2 EQ ISZERO PUSH2 0xB69 JUMPI PUSH1 0x0 DUP1 REVERT JUMPDEST PUSH1 0x0 DUP6 DUP2 MSTORE PUSH1 0x3 PUSH1 0x20 MSTORE PUSH1 0x40 DUP1 DUP3 KECCAK256 DUP1 SLOAD PUSH1 0x1 PUSH1 0x1 PUSH1 0xA0 SHL SUB NOT AND PUSH1 0x1 PUSH1 0x1 PUSH1 0xA0 SHL SUB DUP11 DUP2 AND SWAP2 DUP3 OR SWAP1 SWAP3 SSTORE SWAP2 MLOAD DUP9 SWAP4 SWAP2 DUP6 AND SWAP2 PUSH32 0x8C5BE1E5EBEC7D5BD14F71427D1E84F3DD0314C0F7B2291E5B200AC8C7C3B925 SWAP2 LOG4 POP POP POP POP POP POP JUMP JUMPDEST PUSH1 0x0 DUP3 DUP2 MSTORE PUSH1 0x2 PUSH1 0x20 MSTORE PUSH1 0x40 DUP2 KECCAK256 SLOAD PUSH1 0x1 PUSH1 0x1 PUSH1 0xA0 SHL SUB SWAP1 DUP2 AND SWAP1 DUP4 AND DUP2 EQ DUP1 PUSH2 0xC0B JUMPI POP PUSH1 0x0 DUP5 DUP2 MSTORE PUSH1 0x3 PUSH1 0x20 MSTORE PUSH1 0x40 SWAP1 KECCAK256 SLOAD PUSH1 0x1 PUSH1 0x1 PUSH1 0xA0 SHL SUB DUP5 DUP2 AND SWAP2 AND EQ JUMPDEST DUP1 PUSH2 0xC3B JUMPI POP PUSH1 0x1 PUSH1 0x1 PUSH1 0xA0 SHL SUB DUP1 DUP3 AND PUSH1 0x0 SWAP1 DUP2 MSTORE PUSH1 0x4 PUSH1 0x20 SWAP1 DUP2 MSTORE PUSH1 0x40 DUP1 DUP4 KECCAK256 SWAP4 DUP8 AND DUP4 MSTORE SWAP3 SWAP1 MSTORE KECCAK256 SLOAD PUSH1 0xFF AND JUMPDEST ISZERO PUSH2 0xC4A JUMPI PUSH1 0x1 SWAP2 POP POP PUSH2 0xC50 JUMP JUMPDEST PUSH1 0x0 SWAP2 POP POP JUMPDEST SWAP3 SWAP2 POP POP JUMP JUMPDEST PUSH2 0x4E36 SLOAD PUSH1 0xFF AND ISZERO PUSH2 0xC67 JUMPI PUSH1 0x0 DUP1 REVERT JUMPDEST PUSH2 0x4E36 DUP1 SLOAD PUSH1 0xFF NOT AND PUSH1 0x1 OR SWAP1 SSTORE PUSH1 0xF SLOAD PUSH1 0x1 PUSH1 0xA0 SHL SWAP1 DIV PUSH1 0xFF AND PUSH2 0xCC2 JUMPI PUSH1 0x40 MLOAD PUSH3 0x461BCD PUSH1 0xE5 SHL DUP2 MSTORE PUSH1 0x20 PUSH1 0x4 DUP3 ADD MSTORE PUSH1 0x11 PUSH1 0x24 DUP3 ADD MSTORE PUSH17 0x29B0B632903737BA1039BA30B93A32B217 PUSH1 0x79 SHL PUSH1 0x44 DUP3 ADD MSTORE PUSH1 0x64 ADD PUSH2 0x960 JUMP JUMPDEST PUSH1 0x14 DUP2 GT ISZERO PUSH2 0xCE3 JUMPI PUSH1 0x40 MLOAD PUSH3 0x461BCD PUSH1 0xE5 SHL DUP2 MSTORE PUSH1 0x4 ADD PUSH2 0x960 SWAP1 PUSH2 0x3626 JUMP JUMPDEST PUSH2 0x4E20 PUSH2 0xCF9 DUP3 PUSH2 0xCF3 PUSH1 0x9 SLOAD SWAP1 JUMP JUMPDEST SWAP1 PUSH2 0x2370 JUMP JUMPDEST GT ISZERO PUSH2 0xD3D JUMPI PUSH1 0x40 MLOAD PUSH3 0x461BCD PUSH1 0xE5 SHL DUP2 MSTORE PUSH1 0x20 PUSH1 0x4 DUP3 ADD MSTORE PUSH1 0x13 PUSH1 0x24 DUP3 ADD MSTORE PUSH19 0x115E18D959591CC81513D2D15397D312535255 PUSH1 0x6A SHL PUSH1 0x44 DUP3 ADD MSTORE PUSH1 0x64 ADD PUSH2 0x960 JUMP JUMPDEST PUSH1 0xC SLOAD PUSH1 0x0 SWAP1 PUSH2 0xD4D SWAP1 DUP4 PUSH2 0x238B JUMP JUMPDEST LT ISZERO PUSH2 0xD6B JUMPI PUSH1 0x40 MLOAD PUSH3 0x461BCD PUSH1 0xE5 SHL DUP2 MSTORE PUSH1 0x4 ADD PUSH2 0x960 SWAP1 PUSH2 0x36B1 JUMP JUMPDEST PUSH2 0xD99 CALLER ADDRESS PUSH2 0xD85 DUP5 PUSH1 0x11 SLOAD PUSH2 0x23AB SWAP1 SWAP2 SWAP1 PUSH4 0xFFFFFFFF AND JUMP JUMPDEST PUSH1 0x13 SLOAD PUSH1 0x1 PUSH1 0x1 PUSH1 0xA0 SHL SUB AND SWAP3 SWAP2 SWAP1 PUSH2 0x23DB JUMP JUMPDEST PUSH1 0x0 JUMPDEST DUP2 DUP2 LT ISZERO PUSH2 0xDE7 JUMPI PUSH1 0xA DUP1 SLOAD SWAP1 PUSH1 0x0 PUSH2 0xDB4 DUP4 PUSH2 0x37D7 JUMP JUMPDEST SWAP2 SWAP1 POP SSTORE POP PUSH1 0x1 PUSH1 0xC SLOAD PUSH2 0xDC8 SWAP2 SWAP1 PUSH2 0x3748 JUMP JUMPDEST PUSH1 0xC SSTORE PUSH2 0xDD4 CALLER PUSH2 0x2435 JUMP JUMPDEST POP DUP1 PUSH2 0xDDF DUP2 PUSH2 0x37D7 JUMP JUMPDEST SWAP2 POP POP PUSH2 0xD9C JUMP JUMPDEST POP POP PUSH2 0x4E36 DUP1 SLOAD PUSH1 0xFF NOT AND SWAP1 SSTORE JUMP JUMPDEST PUSH1 0x0 SLOAD PUSH1 0x1 PUSH1 0x1 PUSH1 0xA0 SHL SUB AND CALLER EQ PUSH2 0xE20 JUMPI PUSH1 0x40 MLOAD PUSH3 0x461BCD PUSH1 0xE5 SHL DUP2 MSTORE PUSH1 0x4 ADD PUSH2 0x960 SWAP1 PUSH2 0x35F1 JUMP JUMPDEST PUSH2 0x4E36 DUP1 SLOAD PUSH1 0x1 PUSH1 0x1 PUSH1 0xA0 SHL SUB SWAP1 SWAP3 AND PUSH2 0x100 MUL PUSH2 0x100 PUSH1 0x1 PUSH1 0xA8 SHL SUB NOT SWAP1 SWAP3 AND SWAP2 SWAP1 SWAP2 OR SWAP1 SSTORE JUMP JUMPDEST PUSH1 0x0 SLOAD PUSH1 0x1 PUSH1 0x1 PUSH1 0xA0 SHL SUB AND CALLER EQ PUSH2 0xE73 JUMPI PUSH1 0x40 MLOAD PUSH3 0x461BCD PUSH1 0xE5 SHL DUP2 MSTORE PUSH1 0x4 ADD PUSH2 0x960 SWAP1 PUSH2 0x35F1 JUMP JUMPDEST PUSH2 0x4E3A DUP1 SLOAD SWAP2 ISZERO ISZERO PUSH1 0x1 PUSH1 0xA0 SHL MUL PUSH1 0xFF PUSH1 0xA0 SHL NOT SWAP1 SWAP3 AND SWAP2 SWAP1 SWAP2 OR SWAP1 SSTORE JUMP JUMPDEST PUSH1 0x0 DUP2 DUP2 MSTORE PUSH1 0x2 PUSH1 0x20 MSTORE PUSH1 0x40 SWAP1 KECCAK256 SLOAD DUP2 SWAP1 PUSH1 0x1 PUSH1 0x1 PUSH1 0xA0 SHL SUB AND PUSH2 0xEC8 JUMPI PUSH1 0x40 MLOAD PUSH3 0x461BCD PUSH1 0xE5 SHL DUP2 MSTORE PUSH1 0x4 ADD PUSH2 0x960 SWAP1 PUSH2 0x359D JUMP JUMPDEST PUSH1 0x1 PUSH1 0x1 PUSH1 0xA0 SHL SUB DUP4 AND ADDRESS EQ DUP1 PUSH2 0xEF2 JUMPI POP PUSH2 0x4E36 SLOAD PUSH1 0x1 PUSH1 0x1 PUSH1 0xA0 SHL SUB DUP5 DUP2 AND PUSH2 0x100 SWAP1 SWAP3 DIV AND EQ JUMPDEST PUSH2 0xEFB JUMPI PUSH1 0x0 DUP1 REVERT JUMPDEST PUSH1 0x0 DUP3 DUP2 MSTORE PUSH1 0x2 PUSH1 0x20 MSTORE PUSH1 0x40 SWAP1 KECCAK256 SLOAD PUSH1 0x1 PUSH1 0x1 PUSH1 0xA0 SHL SUB SWAP1 DUP2 AND SWAP1 DUP6 AND DUP2 EQ PUSH2 0xF5C JUMPI PUSH1 0x40 MLOAD PUSH3 0x461BCD PUSH1 0xE5 SHL DUP2 MSTORE PUSH1 0x20 PUSH1 0x4 DUP3 ADD MSTORE PUSH1 0x13 PUSH1 0x24 DUP3 ADD MSTORE PUSH19 0x2BB937B73390333937B69030B2323932B9B997 PUSH1 0x69 SHL PUSH1 0x44 DUP3 ADD MSTORE PUSH1 0x64 ADD PUSH2 0x960 JUMP JUMPDEST PUSH1 0x1 PUSH1 0x1 PUSH1 0xA0 SHL SUB DUP5 AND PUSH2 0xFA8 JUMPI PUSH1 0x40 MLOAD PUSH3 0x461BCD PUSH1 0xE5 SHL DUP2 MSTORE PUSH1 0x20 PUSH1 0x4 DUP3 ADD MSTORE PUSH1 0x13 PUSH1 0x24 DUP3 ADD MSTORE PUSH19 0x21B0B73737BA1039B2B732103A3790183C1817 PUSH1 0x69 SHL PUSH1 0x44 DUP3 ADD MSTORE PUSH1 0x64 ADD PUSH2 0x960 JUMP JUMPDEST PUSH2 0xFB2 DUP5 DUP5 PUSH2 0x2569 JUMP JUMPDEST POP POP POP POP POP JUMP JUMPDEST PUSH1 0x0 DUP2 DUP2 MSTORE PUSH1 0x2 PUSH1 0x20 MSTORE PUSH1 0x40 SWAP1 KECCAK256 SLOAD DUP2 SWAP1 PUSH1 0x1 PUSH1 0x1 PUSH1 0xA0 SHL SUB AND CALLER DUP2 EQ DUP1 PUSH2 0xFF7 JUMPI POP PUSH1 0x0 DUP3 DUP2 MSTORE PUSH1 0x3 PUSH1 0x20 MSTORE PUSH1 0x40 SWAP1 KECCAK256 SLOAD PUSH1 0x1 PUSH1 0x1 PUSH1 0xA0 SHL SUB AND CALLER EQ JUMPDEST DUP1 PUSH2 0x1025 JUMPI POP PUSH1 0x1 PUSH1 0x1 PUSH1 0xA0 SHL SUB DUP2 AND PUSH1 0x0 SWAP1 DUP2 MSTORE PUSH1 0x4 PUSH1 0x20 SWAP1 DUP2 MSTORE PUSH1 0x40 DUP1 DUP4 KECCAK256 CALLER DUP5 MSTORE SWAP1 SWAP2 MSTORE SWAP1 KECCAK256 SLOAD PUSH1 0xFF AND JUMPDEST PUSH2 0x1064 JUMPI PUSH1 0x40 MLOAD PUSH3 0x461BCD PUSH1 0xE5 SHL DUP2 MSTORE PUSH1 0x20 PUSH1 0x4 DUP3 ADD MSTORE PUSH1 0x10 PUSH1 0x24 DUP3 ADD MSTORE PUSH16 0x21B0B73737BA103A3930B739B332B917 PUSH1 0x81 SHL PUSH1 0x44 DUP3 ADD MSTORE PUSH1 0x64 ADD PUSH2 0x960 JUMP JUMPDEST PUSH1 0x0 DUP4 DUP2 MSTORE PUSH1 0x2 PUSH1 0x20 MSTORE PUSH1 0x40 SWAP1 KECCAK256 SLOAD DUP4 SWAP1 PUSH1 0x1 PUSH1 0x1 PUSH1 0xA0 SHL SUB AND PUSH2 0x109A JUMPI PUSH1 0x40 MLOAD PUSH3 0x461BCD PUSH1 0xE5 SHL DUP2 MSTORE PUSH1 0x4 ADD PUSH2 0x960 SWAP1 PUSH2 0x359D JUMP JUMPDEST PUSH1 0x0 DUP5 DUP2 MSTORE PUSH1 0x2 PUSH1 0x20 MSTORE PUSH1 0x40 SWAP1 KECCAK256 SLOAD PUSH1 0x1 PUSH1 0x1 PUSH1 0xA0 SHL SUB SWAP1 DUP2 AND SWAP1 DUP8 AND DUP2 EQ PUSH2 0x10FB JUMPI PUSH1 0x40 MLOAD PUSH3 0x461BCD PUSH1 0xE5 SHL DUP2 MSTORE PUSH1 0x20 PUSH1 0x4 DUP3 ADD MSTORE PUSH1 0x13 PUSH1 0x24 DUP3 ADD MSTORE PUSH19 0x2BB937B73390333937B69030B2323932B9B997 PUSH1 0x69 SHL PUSH1 0x44 DUP3 ADD MSTORE PUSH1 0x64 ADD PUSH2 0x960 JUMP JUMPDEST PUSH1 0x1 PUSH1 0x1 PUSH1 0xA0 SHL SUB DUP7 AND PUSH2 0x1147 JUMPI PUSH1 0x40 MLOAD PUSH3 0x461BCD PUSH1 0xE5 SHL DUP2 MSTORE PUSH1 0x20 PUSH1 0x4 DUP3 ADD MSTORE PUSH1 0x13 PUSH1 0x24 DUP3 ADD MSTORE PUSH19 0x21B0B73737BA1039B2B732103A3790183C1817 PUSH1 0x69 SHL PUSH1 0x44 DUP3 ADD MSTORE PUSH1 0x64 ADD PUSH2 0x960 JUMP JUMPDEST PUSH2 0x1151 DUP7 DUP7 PUSH2 0x2569 JUMP JUMPDEST POP POP POP POP POP POP POP JUMP JUMPDEST PUSH2 0x4E36 SLOAD PUSH1 0xFF AND ISZERO PUSH2 0x116B JUMPI PUSH1 0x0 DUP1 REVERT JUMPDEST PUSH2 0x4E36 DUP1 SLOAD PUSH1 0xFF NOT AND PUSH1 0x1 OR SWAP1 SSTORE PUSH1 0xF SLOAD PUSH1 0x1 PUSH1 0xA0 SHL SWAP1 DIV PUSH1 0xFF AND PUSH2 0x11C6 JUMPI PUSH1 0x40 MLOAD PUSH3 0x461BCD PUSH1 0xE5 SHL DUP2 MSTORE PUSH1 0x20 PUSH1 0x4 DUP3 ADD MSTORE PUSH1 0x11 PUSH1 0x24 DUP3 ADD MSTORE PUSH17 0x29B0B632903737BA1039BA30B93A32B217 PUSH1 0x79 SHL PUSH1 0x44 DUP3 ADD MSTORE PUSH1 0x64 ADD PUSH2 0x960 JUMP JUMPDEST PUSH1 0x14 DUP2 GT ISZERO PUSH2 0x11E7 JUMPI PUSH1 0x40 MLOAD PUSH3 0x461BCD PUSH1 0xE5 SHL DUP2 MSTORE PUSH1 0x4 ADD PUSH2 0x960 SWAP1 PUSH2 0x3626 JUMP JUMPDEST PUSH2 0x4E20 PUSH2 0x11F7 DUP3 PUSH2 0xCF3 PUSH1 0x9 SLOAD SWAP1 JUMP JUMPDEST GT ISZERO PUSH2 0x123B JUMPI PUSH1 0x40 MLOAD PUSH3 0x461BCD PUSH1 0xE5 SHL DUP2 MSTORE PUSH1 0x20 PUSH1 0x4 DUP3 ADD MSTORE PUSH1 0x13 PUSH1 0x24 DUP3 ADD MSTORE PUSH19 0x115E18D959591CC81513D2D15397D312535255 PUSH1 0x6A SHL PUSH1 0x44 DUP3 ADD MSTORE PUSH1 0x64 ADD PUSH2 0x960 JUMP JUMPDEST PUSH1 0xB SLOAD PUSH1 0x0 SWAP1 PUSH2 0x124B SWAP1 DUP4 PUSH2 0x238B JUMP JUMPDEST LT ISZERO PUSH2 0x1269 JUMPI PUSH1 0x40 MLOAD PUSH3 0x461BCD PUSH1 0xE5 SHL DUP2 MSTORE PUSH1 0x4 ADD PUSH2 0x960 SWAP1 PUSH2 0x36B1 JUMP JUMPDEST PUSH1 0x10 SLOAD CALLVALUE SWAP1 PUSH2 0x1278 SWAP1 DUP4 PUSH2 0x23AB JUMP JUMPDEST EQ PUSH2 0x12C5 JUMPI PUSH1 0x40 MLOAD PUSH3 0x461BCD PUSH1 0xE5 SHL DUP2 MSTORE PUSH1 0x20 PUSH1 0x4 DUP3 ADD MSTORE PUSH1 0x1F PUSH1 0x24 DUP3 ADD MSTORE PUSH32 0x4D415449432076616C75652073656E74206973206E6F7420636F727265637400 PUSH1 0x44 DUP3 ADD MSTORE PUSH1 0x64 ADD PUSH2 0x960 JUMP JUMPDEST PUSH1 0xE SLOAD PUSH1 0x1 PUSH1 0x1 PUSH1 0xA0 SHL SUB AND PUSH2 0x8FC PUSH2 0x12DF CALLVALUE PUSH1 0x2 PUSH2 0x265D JUMP JUMPDEST PUSH1 0x40 MLOAD DUP2 ISZERO SWAP1 SWAP3 MUL SWAP2 PUSH1 0x0 DUP2 DUP2 DUP2 DUP6 DUP9 DUP9 CALL SWAP4 POP POP POP POP ISZERO DUP1 ISZERO PUSH2 0x1307 JUMPI RETURNDATASIZE PUSH1 0x0 DUP1 RETURNDATACOPY RETURNDATASIZE PUSH1 0x0 REVERT JUMPDEST POP PUSH1 0xF SLOAD PUSH1 0x1 PUSH1 0x1 PUSH1 0xA0 SHL SUB AND PUSH2 0x8FC PUSH2 0x1322 CALLVALUE PUSH1 0x2 PUSH2 0x265D JUMP JUMPDEST PUSH1 0x40 MLOAD DUP2 ISZERO SWAP1 SWAP3 MUL SWAP2 PUSH1 0x0 DUP2 DUP2 DUP2 DUP6 DUP9 DUP9 CALL SWAP4 POP POP POP POP ISZERO DUP1 ISZERO PUSH2 0x134A JUMPI RETURNDATASIZE PUSH1 0x0 DUP1 RETURNDATACOPY RETURNDATASIZE PUSH1 0x0 REVERT JUMPDEST POP PUSH1 0x0 JUMPDEST DUP2 DUP2 LT ISZERO PUSH2 0xDE7 JUMPI PUSH1 0xA DUP1 SLOAD SWAP1 PUSH1 0x0 PUSH2 0x1366 DUP4 PUSH2 0x37D7 JUMP JUMPDEST SWAP2 SWAP1 POP SSTORE POP PUSH1 0x1 PUSH1 0xB SLOAD PUSH2 0x137A SWAP2 SWAP1 PUSH2 0x3748 JUMP JUMPDEST PUSH1 0xB SSTORE PUSH2 0x1386 CALLER PUSH2 0x2435 JUMP JUMPDEST POP DUP1 PUSH2 0x1391 DUP2 PUSH2 0x37D7 JUMP JUMPDEST SWAP2 POP POP PUSH2 0x134E JUMP JUMPDEST PUSH1 0x1 PUSH1 0x1 PUSH1 0xA0 SHL SUB DUP3 AND PUSH1 0x0 SWAP1 DUP2 MSTORE PUSH1 0x5 PUSH1 0x20 MSTORE PUSH1 0x40 DUP2 KECCAK256 SLOAD DUP3 LT PUSH2 0x13BD JUMPI PUSH1 0x0 DUP1 REVERT JUMPDEST PUSH1 0x1 PUSH1 0x1 PUSH1 0xA0 SHL SUB DUP4 AND PUSH1 0x0 SWAP1 DUP2 MSTORE PUSH1 0x5 PUSH1 0x20 MSTORE PUSH1 0x40 SWAP1 KECCAK256 DUP1 SLOAD DUP4 SWAP1 DUP2 LT PUSH2 0x13E7 JUMPI PUSH2 0x13E7 PUSH2 0x3848 JUMP JUMPDEST SWAP1 PUSH1 0x0 MSTORE PUSH1 0x20 PUSH1 0x0 KECCAK256 ADD SLOAD SWAP1 POP SWAP3 SWAP2 POP POP JUMP JUMPDEST PUSH2 0x1415 DUP4 DUP4 DUP4 PUSH1 0x40 MLOAD DUP1 PUSH1 0x20 ADD PUSH1 0x40 MSTORE DUP1 PUSH1 0x0 DUP2 MSTORE POP PUSH2 0x2669 JUMP JUMPDEST POP POP POP JUMP JUMPDEST PUSH1 0x0 PUSH2 0x1433 PUSH1 0xA SLOAD PUSH2 0x4E20 PUSH2 0x238B SWAP1 SWAP2 SWAP1 PUSH4 0xFFFFFFFF AND JUMP JUMPDEST SWAP1 POP SWAP1 JUMP JUMPDEST PUSH2 0x4E3A SLOAD PUSH1 0x1 PUSH1 0xA0 SHL SWAP1 DIV PUSH1 0xFF AND PUSH2 0x1462 JUMPI PUSH1 0x40 MLOAD PUSH3 0x461BCD PUSH1 0xE5 SHL DUP2 MSTORE PUSH1 0x4 ADD PUSH2 0x960 SWAP1 PUSH2 0x35C5 JUMP JUMPDEST CALLER PUSH2 0x146C DUP3 PUSH2 0x15C5 JUMP JUMPDEST PUSH1 0x1 PUSH1 0x1 PUSH1 0xA0 SHL SUB AND EQ PUSH2 0x1492 JUMPI PUSH1 0x40 MLOAD PUSH3 0x461BCD PUSH1 0xE5 SHL DUP2 MSTORE PUSH1 0x4 ADD PUSH2 0x960 SWAP1 PUSH2 0x366F JUMP JUMPDEST PUSH1 0x40 DUP1 MLOAD PUSH1 0x80 DUP2 ADD DUP3 MSTORE PUSH1 0x0 DUP1 DUP3 MSTORE PUSH1 0x20 DUP1 DUP4 ADD DUP3 DUP2 MSTORE DUP4 DUP6 ADD DUP4 DUP2 MSTORE PUSH1 0x60 DUP6 ADD DUP5 DUP2 MSTORE DUP8 DUP6 MSTORE PUSH2 0x4E37 SWAP1 SWAP4 MSTORE SWAP3 DUP6 SWAP1 KECCAK256 SWAP4 MLOAD DUP5 SLOAD SWAP2 MLOAD PUSH1 0x1 PUSH1 0x1 PUSH1 0xA0 SHL SUB AND PUSH2 0x100 MUL PUSH2 0x100 PUSH1 0x1 PUSH1 0xA8 SHL SUB NOT SWAP2 ISZERO ISZERO SWAP2 SWAP1 SWAP2 AND PUSH1 0x1 PUSH1 0x1 PUSH1 0xA8 SHL SUB NOT SWAP1 SWAP3 AND SWAP2 SWAP1 SWAP2 OR OR DUP4 SSTORE SWAP1 MLOAD PUSH1 0x1 DUP4 ADD SSTORE MLOAD PUSH1 0x2 SWAP1 SWAP2 ADD SSTORE MLOAD PUSH32 0x76915038033FD095A1C41C63DE78CA96195FDEB0013CE2BFE4FBC0AFE4B0B187 SWAP1 PUSH2 0x1538 SWAP1 DUP4 DUP2 MSTORE PUSH1 0x20 ADD SWAP1 JUMP JUMPDEST PUSH1 0x40 MLOAD DUP1 SWAP2 SUB SWAP1 LOG1 PUSH1 0x0 JUMPDEST PUSH2 0x4E3B SLOAD DUP2 LT ISZERO PUSH2 0x15A6 JUMPI DUP2 PUSH2 0x4E3B DUP3 DUP2 SLOAD DUP2 LT PUSH2 0x1563 JUMPI PUSH2 0x1563 PUSH2 0x3848 JUMP JUMPDEST SWAP1 PUSH1 0x0 MSTORE PUSH1 0x20 PUSH1 0x0 KECCAK256 ADD SLOAD EQ ISZERO PUSH2 0x1594 JUMPI PUSH2 0x4E3B DUP2 DUP2 SLOAD DUP2 LT PUSH2 0x1588 JUMPI PUSH2 0x1588 PUSH2 0x3848 JUMP JUMPDEST PUSH1 0x0 SWAP2 DUP3 MSTORE PUSH1 0x20 DUP3 KECCAK256 ADD SSTORE JUMPDEST DUP1 PUSH2 0x159E DUP2 PUSH2 0x37D7 JUMP JUMPDEST SWAP2 POP POP PUSH2 0x1543 JUMP JUMPDEST POP POP JUMP JUMPDEST PUSH1 0x0 PUSH2 0x4E20 DUP3 LT PUSH2 0x15BA JUMPI PUSH1 0x0 DUP1 REVERT JUMPDEST PUSH2 0xC50 DUP3 PUSH1 0x1 PUSH2 0x36FD JUMP JUMPDEST PUSH1 0x0 DUP2 DUP2 MSTORE PUSH1 0x2 PUSH1 0x20 MSTORE PUSH1 0x40 DUP2 KECCAK256 SLOAD PUSH1 0x1 PUSH1 0x1 PUSH1 0xA0 SHL SUB AND PUSH2 0x15E6 JUMPI PUSH1 0x0 DUP1 REVERT JUMPDEST POP PUSH1 0x0 SWAP1 DUP2 MSTORE PUSH1 0x2 PUSH1 0x20 MSTORE PUSH1 0x40 SWAP1 KECCAK256 SLOAD PUSH1 0x1 PUSH1 0x1 PUSH1 0xA0 SHL SUB AND SWAP1 JUMP JUMPDEST PUSH1 0x0 SLOAD PUSH1 0x1 PUSH1 0x1 PUSH1 0xA0 SHL SUB AND CALLER EQ PUSH2 0x162C JUMPI PUSH1 0x40 MLOAD PUSH3 0x461BCD PUSH1 0xE5 SHL DUP2 MSTORE PUSH1 0x4 ADD PUSH2 0x960 SWAP1 PUSH2 0x35F1 JUMP JUMPDEST PUSH2 0x4E39 SSTORE JUMP JUMPDEST PUSH1 0x0 PUSH1 0x1 PUSH1 0x1 PUSH1 0xA0 SHL SUB DUP3 AND PUSH2 0x1647 JUMPI PUSH1 0x0 DUP1 REVERT JUMPDEST PUSH1 0x1 PUSH1 0x1 PUSH1 0xA0 SHL SUB DUP3 AND PUSH1 0x0 SWAP1 DUP2 MSTORE PUSH1 0x5 PUSH1 0x20 MSTORE PUSH1 0x40 SWAP1 KECCAK256 SLOAD PUSH2 0xC50 JUMP JUMPDEST PUSH1 0x0 SLOAD PUSH1 0x1 PUSH1 0x1 PUSH1 0xA0 SHL SUB AND CALLER EQ PUSH2 0x168F JUMPI PUSH1 0x40 MLOAD PUSH3 0x461BCD PUSH1 0xE5 SHL DUP2 MSTORE PUSH1 0x4 ADD PUSH2 0x960 SWAP1 PUSH2 0x35F1 JUMP JUMPDEST PUSH2 0x1699 PUSH1 0x0 PUSH2 0x287E JUMP JUMPDEST JUMP JUMPDEST PUSH2 0x4E3B DUP2 DUP2 SLOAD DUP2 LT PUSH2 0x16AC JUMPI PUSH1 0x0 DUP1 REVERT JUMPDEST PUSH1 0x0 SWAP2 DUP3 MSTORE PUSH1 0x20 SWAP1 SWAP2 KECCAK256 ADD SLOAD SWAP1 POP DUP2 JUMP JUMPDEST PUSH1 0x60 PUSH1 0x8 DUP1 SLOAD PUSH2 0x9A7 SWAP1 PUSH2 0x37A2 JUMP JUMPDEST PUSH1 0x12 DUP1 SLOAD PUSH2 0x16D9 SWAP1 PUSH2 0x37A2 JUMP JUMPDEST DUP1 PUSH1 0x1F ADD PUSH1 0x20 DUP1 SWAP2 DIV MUL PUSH1 0x20 ADD PUSH1 0x40 MLOAD SWAP1 DUP2 ADD PUSH1 0x40 MSTORE DUP1 SWAP3 SWAP2 SWAP1 DUP2 DUP2 MSTORE PUSH1 0x20 ADD DUP3 DUP1 SLOAD PUSH2 0x1705 SWAP1 PUSH2 0x37A2 JUMP JUMPDEST DUP1 ISZERO PUSH2 0x1752 JUMPI DUP1 PUSH1 0x1F LT PUSH2 0x1727 JUMPI PUSH2 0x100 DUP1 DUP4 SLOAD DIV MUL DUP4 MSTORE SWAP2 PUSH1 0x20 ADD SWAP2 PUSH2 0x1752 JUMP JUMPDEST DUP3 ADD SWAP2 SWAP1 PUSH1 0x0 MSTORE PUSH1 0x20 PUSH1 0x0 KECCAK256 SWAP1 JUMPDEST DUP2 SLOAD DUP2 MSTORE SWAP1 PUSH1 0x1 ADD SWAP1 PUSH1 0x20 ADD DUP1 DUP4 GT PUSH2 0x1735 JUMPI DUP3 SWAP1 SUB PUSH1 0x1F AND DUP3 ADD SWAP2 JUMPDEST POP POP POP POP POP DUP2 JUMP JUMPDEST PUSH1 0x0 SLOAD PUSH1 0x1 PUSH1 0x1 PUSH1 0xA0 SHL SUB AND CALLER EQ PUSH2 0x1784 JUMPI PUSH1 0x40 MLOAD PUSH3 0x461BCD PUSH1 0xE5 SHL DUP2 MSTORE PUSH1 0x4 ADD PUSH2 0x960 SWAP1 PUSH2 0x35F1 JUMP JUMPDEST DUP1 MLOAD PUSH2 0x15A6 SWAP1 PUSH1 0x12 SWAP1 PUSH1 0x20 DUP5 ADD SWAP1 PUSH2 0x301D JUMP JUMPDEST CALLER PUSH1 0x0 DUP2 DUP2 MSTORE PUSH1 0x4 PUSH1 0x20 SWAP1 DUP2 MSTORE PUSH1 0x40 DUP1 DUP4 KECCAK256 PUSH1 0x1 PUSH1 0x1 PUSH1 0xA0 SHL SUB DUP8 AND DUP1 DUP6 MSTORE SWAP1 DUP4 MSTORE SWAP3 DUP2 SWAP1 KECCAK256 DUP1 SLOAD PUSH1 0xFF NOT AND DUP7 ISZERO ISZERO SWAP1 DUP2 OR SWAP1 SWAP2 SSTORE SWAP1 MLOAD SWAP1 DUP2 MSTORE SWAP2 SWAP3 SWAP2 PUSH32 0x17307EAB39AB6107E8899845AD3D59BD9653F200F220920489CA2B5937696C31 SWAP2 ADD PUSH1 0x40 MLOAD DUP1 SWAP2 SUB SWAP1 LOG3 POP POP JUMP JUMPDEST PUSH2 0x4E3A SLOAD PUSH1 0x1 PUSH1 0xA0 SHL SWAP1 DIV PUSH1 0xFF AND PUSH2 0x182D JUMPI PUSH1 0x40 MLOAD PUSH3 0x461BCD PUSH1 0xE5 SHL DUP2 MSTORE PUSH1 0x4 ADD PUSH2 0x960 SWAP1 PUSH2 0x35C5 JUMP JUMPDEST CALLER PUSH2 0x1837 DUP4 PUSH2 0x15C5 JUMP JUMPDEST PUSH1 0x1 PUSH1 0x1 PUSH1 0xA0 SHL SUB AND EQ PUSH2 0x185D JUMPI PUSH1 0x40 MLOAD PUSH3 0x461BCD PUSH1 0xE5 SHL DUP2 MSTORE PUSH1 0x4 ADD PUSH2 0x960 SWAP1 PUSH2 0x366F JUMP JUMPDEST PUSH1 0x40 DUP1 MLOAD PUSH1 0x80 DUP2 ADD DUP3 MSTORE PUSH1 0x1 DUP1 DUP3 MSTORE CALLER PUSH1 0x20 DUP1 DUP5 ADD SWAP2 DUP3 MSTORE DUP4 DUP6 ADD DUP9 DUP2 MSTORE PUSH1 0x60 DUP1 DUP7 ADD DUP9 DUP2 MSTORE PUSH1 0x0 DUP11 DUP2 MSTORE PUSH2 0x4E37 DUP6 MSTORE DUP9 SWAP1 KECCAK256 SWAP7 MLOAD DUP8 SLOAD SWAP6 MLOAD PUSH1 0x1 PUSH1 0x1 PUSH1 0xA8 SHL SUB NOT SWAP1 SWAP7 AND SWAP1 ISZERO ISZERO PUSH2 0x100 PUSH1 0x1 PUSH1 0xA8 SHL SUB NOT AND OR PUSH2 0x100 PUSH1 0x1 PUSH1 0x1 PUSH1 0xA0 SHL SUB SWAP1 SWAP7 AND SWAP6 SWAP1 SWAP6 MUL SWAP5 SWAP1 SWAP5 OR DUP7 SSTORE SWAP1 MLOAD SWAP4 DUP6 ADD SWAP4 SWAP1 SWAP4 SSTORE SWAP1 MLOAD PUSH1 0x2 SWAP1 SWAP4 ADD SWAP3 SWAP1 SWAP3 SSTORE DUP3 MLOAD DUP6 DUP2 MSTORE SWAP2 DUP3 ADD DUP7 SWAP1 MSTORE SWAP2 DUP2 ADD DUP4 SWAP1 MSTORE PUSH32 0xE04275091C8EC0CACFA344BA26FEF01E27E1AA9FA1C5211500F11E92FF862E05 SWAP2 ADD PUSH1 0x40 MLOAD DUP1 SWAP2 SUB SWAP1 LOG1 POP PUSH2 0x4E3B DUP1 SLOAD PUSH1 0x1 DUP2 ADD DUP3 SSTORE PUSH1 0x0 SWAP2 SWAP1 SWAP2 MSTORE PUSH32 0x9C134BF00A5AD545FBF5C27E8F9E91D26FF70C9EA5B8FFB7BE9AA840D0537CCF ADD SSTORE POP JUMP JUMPDEST PUSH1 0x0 SLOAD PUSH1 0x1 PUSH1 0x1 PUSH1 0xA0 SHL SUB AND CALLER EQ PUSH2 0x197B JUMPI PUSH1 0x40 MLOAD PUSH3 0x461BCD PUSH1 0xE5 SHL DUP2 MSTORE PUSH1 0x4 ADD PUSH2 0x960 SWAP1 PUSH2 0x35F1 JUMP JUMPDEST PUSH1 0xF SLOAD PUSH1 0x1 PUSH1 0xA0 SHL SWAP1 DIV PUSH1 0xFF AND ISZERO PUSH2 0x1992 JUMPI PUSH1 0x0 DUP1 REVERT JUMPDEST TIMESTAMP PUSH1 0x14 SSTORE PUSH1 0xF DUP1 SLOAD PUSH1 0xFF PUSH1 0xA0 SHL NOT AND PUSH1 0x1 PUSH1 0xA0 SHL OR SWAP1 SSTORE JUMP JUMPDEST PUSH2 0xFB2 DUP6 DUP6 DUP6 DUP6 DUP6 DUP1 DUP1 PUSH1 0x1F ADD PUSH1 0x20 DUP1 SWAP2 DIV MUL PUSH1 0x20 ADD PUSH1 0x40 MLOAD SWAP1 DUP2 ADD PUSH1 0x40 MSTORE DUP1 SWAP4 SWAP3 SWAP2 SWAP1 DUP2 DUP2 MSTORE PUSH1 0x20 ADD DUP4 DUP4 DUP1 DUP3 DUP5 CALLDATACOPY PUSH1 0x0 SWAP3 ADD SWAP2 SWAP1 SWAP2 MSTORE POP PUSH2 0x2669 SWAP3 POP POP POP JUMP JUMPDEST PUSH1 0x60 PUSH2 0x4E3B DUP1 SLOAD DUP1 PUSH1 0x20 MUL PUSH1 0x20 ADD PUSH1 0x40 MLOAD SWAP1 DUP2 ADD PUSH1 0x40 MSTORE DUP1 SWAP3 SWAP2 SWAP1 DUP2 DUP2 MSTORE PUSH1 0x20 ADD DUP3 DUP1 SLOAD DUP1 ISZERO PUSH2 0xA20 JUMPI PUSH1 0x20 MUL DUP3 ADD SWAP2 SWAP1 PUSH1 0x0 MSTORE PUSH1 0x20 PUSH1 0x0 KECCAK256 SWAP1 JUMPDEST DUP2 SLOAD DUP2 MSTORE PUSH1 0x20 ADD SWAP1 PUSH1 0x1 ADD SWAP1 DUP1 DUP4 GT PUSH2 0x1A28 JUMPI POP POP POP POP POP SWAP1 POP SWAP1 JUMP JUMPDEST PUSH1 0x0 DUP2 DUP2 MSTORE PUSH1 0x2 PUSH1 0x20 MSTORE PUSH1 0x40 SWAP1 KECCAK256 SLOAD PUSH1 0x60 SWAP1 DUP3 SWAP1 PUSH1 0x1 PUSH1 0x1 PUSH1 0xA0 SHL SUB AND PUSH2 0x1A7E JUMPI PUSH1 0x40 MLOAD PUSH3 0x461BCD PUSH1 0xE5 SHL DUP2 MSTORE PUSH1 0x4 ADD PUSH2 0x960 SWAP1 PUSH2 0x359D JUMP JUMPDEST PUSH1 0x12 PUSH2 0x1A89 DUP5 PUSH2 0x28CE JUMP JUMPDEST PUSH1 0x40 MLOAD PUSH1 0x20 ADD PUSH2 0x1A9A SWAP3 SWAP2 SWAP1 PUSH2 0x3462 JUMP JUMPDEST PUSH1 0x40 MLOAD PUSH1 0x20 DUP2 DUP4 SUB SUB DUP2 MSTORE SWAP1 PUSH1 0x40 MSTORE SWAP2 POP POP SWAP2 SWAP1 POP JUMP JUMPDEST PUSH2 0x4E3A SLOAD PUSH1 0x1 PUSH1 0xA0 SHL SWAP1 DIV PUSH1 0xFF AND PUSH2 0x1ADB JUMPI PUSH1 0x40 MLOAD PUSH3 0x461BCD PUSH1 0xE5 SHL DUP2 MSTORE PUSH1 0x4 ADD PUSH2 0x960 SWAP1 PUSH2 0x35C5 JUMP JUMPDEST PUSH1 0x0 DUP2 DUP2 MSTORE PUSH2 0x4E37 PUSH1 0x20 MSTORE PUSH1 0x40 SWAP1 KECCAK256 SLOAD PUSH1 0xFF AND PUSH2 0x1B36 JUMPI PUSH1 0x40 MLOAD PUSH3 0x461BCD PUSH1 0xE5 SHL DUP2 MSTORE PUSH1 0x20 PUSH1 0x4 DUP3 ADD MSTORE PUSH1 0x19 PUSH1 0x24 DUP3 ADD MSTORE PUSH25 0x54686520746F6B656E206973206E6F7420666F722073616C65 PUSH1 0x38 SHL PUSH1 0x44 DUP3 ADD MSTORE PUSH1 0x64 ADD PUSH2 0x960 JUMP JUMPDEST PUSH1 0x0 DUP2 DUP2 MSTORE PUSH2 0x4E37 PUSH1 0x20 MSTORE PUSH1 0x40 SWAP1 KECCAK256 PUSH1 0x2 ADD SLOAD PUSH2 0x1B95 JUMPI PUSH1 0x40 MLOAD PUSH3 0x461BCD PUSH1 0xE5 SHL DUP2 MSTORE PUSH1 0x20 PUSH1 0x4 DUP3 ADD MSTORE PUSH1 0x18 PUSH1 0x24 DUP3 ADD MSTORE PUSH32 0x4572726F72207769746820746F6B656E207061796D656E740000000000000000 PUSH1 0x44 DUP3 ADD MSTORE PUSH1 0x64 ADD PUSH2 0x960 JUMP JUMPDEST PUSH1 0x0 DUP2 DUP2 MSTORE PUSH2 0x4E37 PUSH1 0x20 SWAP1 DUP2 MSTORE PUSH1 0x40 DUP1 DUP4 KECCAK256 PUSH1 0x1 DUP2 ADD SLOAD PUSH1 0x2 SWAP1 SWAP2 ADD SLOAD DUP5 MSTORE PUSH2 0x4E38 SWAP1 SWAP3 MSTORE SWAP2 DUP3 SWAP1 KECCAK256 SLOAD SWAP2 MLOAD PUSH4 0x70A08231 PUSH1 0xE0 SHL DUP2 MSTORE CALLER PUSH1 0x4 DUP3 ADD MSTORE SWAP1 SWAP2 PUSH1 0x1 PUSH1 0x1 PUSH1 0xA0 SHL SUB AND SWAP1 PUSH4 0x70A08231 SWAP1 PUSH1 0x24 ADD PUSH1 0x20 PUSH1 0x40 MLOAD DUP1 DUP4 SUB DUP2 DUP7 DUP1 EXTCODESIZE ISZERO DUP1 ISZERO PUSH2 0x1BFE JUMPI PUSH1 0x0 DUP1 REVERT JUMPDEST POP GAS STATICCALL ISZERO DUP1 ISZERO PUSH2 0x1C12 JUMPI RETURNDATASIZE PUSH1 0x0 DUP1 RETURNDATACOPY RETURNDATASIZE PUSH1 0x0 REVERT JUMPDEST POP POP POP POP PUSH1 0x40 MLOAD RETURNDATASIZE PUSH1 0x1F NOT PUSH1 0x1F DUP3 ADD AND DUP3 ADD DUP1 PUSH1 0x40 MSTORE POP DUP2 ADD SWAP1 PUSH2 0x1C36 SWAP2 SWAP1 PUSH2 0x3396 JUMP JUMPDEST LT ISZERO PUSH2 0x1C84 JUMPI PUSH1 0x40 MLOAD PUSH3 0x461BCD PUSH1 0xE5 SHL DUP2 MSTORE PUSH1 0x20 PUSH1 0x4 DUP3 ADD MSTORE PUSH1 0x1A PUSH1 0x24 DUP3 ADD MSTORE PUSH32 0x596F7520646F206E6F74206F776E20656E6F75676820676F6C64000000000000 PUSH1 0x44 DUP3 ADD MSTORE PUSH1 0x64 ADD PUSH2 0x960 JUMP JUMPDEST PUSH1 0x0 DUP2 DUP2 MSTORE PUSH2 0x4E37 PUSH1 0x20 SWAP1 DUP2 MSTORE PUSH1 0x40 DUP1 DUP4 KECCAK256 PUSH1 0x1 DUP2 ADD SLOAD PUSH1 0x2 SWAP1 SWAP2 ADD SLOAD DUP5 MSTORE PUSH2 0x4E38 SWAP1 SWAP3 MSTORE SWAP2 DUP3 SWAP1 KECCAK256 SLOAD SWAP2 MLOAD PUSH4 0x6EB1769F PUSH1 0xE1 SHL DUP2 MSTORE CALLER PUSH1 0x4 DUP3 ADD MSTORE ADDRESS PUSH1 0x24 DUP3 ADD MSTORE SWAP1 SWAP2 PUSH1 0x1 PUSH1 0x1 PUSH1 0xA0 SHL SUB AND SWAP1 PUSH4 0xDD62ED3E SWAP1 PUSH1 0x44 ADD PUSH1 0x20 PUSH1 0x40 MLOAD DUP1 DUP4 SUB DUP2 DUP7 DUP1 EXTCODESIZE ISZERO DUP1 ISZERO PUSH2 0x1CF3 JUMPI PUSH1 0x0 DUP1 REVERT JUMPDEST POP GAS STATICCALL ISZERO DUP1 ISZERO PUSH2 0x1D07 JUMPI RETURNDATASIZE PUSH1 0x0 DUP1 RETURNDATACOPY RETURNDATASIZE PUSH1 0x0 REVERT JUMPDEST POP POP POP POP PUSH1 0x40 MLOAD RETURNDATASIZE PUSH1 0x1F NOT PUSH1 0x1F DUP3 ADD AND DUP3 ADD DUP1 PUSH1 0x40 MSTORE POP DUP2 ADD SWAP1 PUSH2 0x1D2B SWAP2 SWAP1 PUSH2 0x3396 JUMP JUMPDEST LT ISZERO PUSH2 0x1D79 JUMPI PUSH1 0x40 MLOAD PUSH3 0x461BCD PUSH1 0xE5 SHL DUP2 MSTORE PUSH1 0x20 PUSH1 0x4 DUP3 ADD MSTORE PUSH1 0x1A PUSH1 0x24 DUP3 ADD MSTORE PUSH32 0x596F7520616C6C6F77616E636520697320746F6F20736D616C6C000000000000 PUSH1 0x44 DUP3 ADD MSTORE PUSH1 0x64 ADD PUSH2 0x960 JUMP JUMPDEST PUSH2 0x4E39 SLOAD PUSH1 0x0 PUSH2 0x1D8B DUP3 PUSH2 0x3E8 PUSH2 0x3748 JUMP JUMPDEST PUSH2 0x4E3A SLOAD PUSH1 0x0 DUP6 DUP2 MSTORE PUSH2 0x4E37 PUSH1 0x20 MSTORE PUSH1 0x40 SWAP1 KECCAK256 PUSH1 0x1 ADD SLOAD SWAP2 SWAP3 POP PUSH2 0x1DFF SWAP2 CALLER SWAP2 PUSH1 0x1 PUSH1 0x1 PUSH1 0xA0 SHL SUB AND SWAP1 PUSH2 0x1DCD SWAP1 PUSH2 0x3E8 SWAP1 PUSH2 0x1DC7 SWAP1 DUP9 PUSH2 0x23AB JUMP JUMPDEST SWAP1 PUSH2 0x265D JUMP JUMPDEST PUSH1 0x0 DUP8 DUP2 MSTORE PUSH2 0x4E37 PUSH1 0x20 SWAP1 DUP2 MSTORE PUSH1 0x40 DUP1 DUP4 KECCAK256 PUSH1 0x2 ADD SLOAD DUP4 MSTORE PUSH2 0x4E38 SWAP1 SWAP2 MSTORE SWAP1 KECCAK256 SLOAD PUSH1 0x1 PUSH1 0x1 PUSH1 0xA0 SHL SUB AND SWAP3 SWAP2 SWAP1 PUSH2 0x23DB JUMP JUMPDEST PUSH1 0x0 DUP4 DUP2 MSTORE PUSH2 0x4E37 PUSH1 0x20 MSTORE PUSH1 0x40 SWAP1 KECCAK256 DUP1 SLOAD PUSH1 0x1 SWAP1 SWAP2 ADD SLOAD PUSH2 0x1E3E SWAP2 CALLER SWAP2 PUSH2 0x100 SWAP1 SWAP2 DIV PUSH1 0x1 PUSH1 0x1 PUSH1 0xA0 SHL SUB AND SWAP1 PUSH2 0x1DCD SWAP1 PUSH2 0x3E8 SWAP1 PUSH2 0x1DC7 SWAP1 DUP8 PUSH2 0x23AB JUMP JUMPDEST PUSH2 0x1E48 CALLER DUP5 PUSH2 0x2569 JUMP JUMPDEST PUSH1 0x0 DUP4 DUP2 MSTORE PUSH2 0x4E37 PUSH1 0x20 SWAP1 DUP2 MSTORE PUSH1 0x40 SWAP2 DUP3 SWAP1 KECCAK256 PUSH1 0x1 DUP2 ADD SLOAD PUSH1 0x2 SWAP1 SWAP2 ADD SLOAD DUP4 MLOAD DUP8 DUP2 MSTORE SWAP3 DUP4 ADD SWAP2 SWAP1 SWAP2 MSTORE DUP2 DUP4 ADD MSTORE SWAP1 MLOAD PUSH32 0x9695D5EBF5115E7B172F9C06E511F76A01DF1DE76571B792FF9B6D506F06D3EF SWAP2 DUP2 SWAP1 SUB PUSH1 0x60 ADD SWAP1 LOG1 PUSH1 0x40 DUP1 MLOAD PUSH1 0x80 DUP2 ADD DUP3 MSTORE PUSH1 0x0 DUP1 DUP3 MSTORE PUSH1 0x20 DUP1 DUP4 ADD DUP3 DUP2 MSTORE DUP4 DUP6 ADD DUP4 DUP2 MSTORE PUSH1 0x60 DUP6 ADD DUP5 DUP2 MSTORE DUP10 DUP6 MSTORE PUSH2 0x4E37 SWAP1 SWAP4 MSTORE SWAP5 DUP4 KECCAK256 SWAP4 MLOAD DUP5 SLOAD SWAP2 MLOAD PUSH1 0x1 PUSH1 0x1 PUSH1 0xA8 SHL SUB NOT SWAP1 SWAP3 AND SWAP1 ISZERO ISZERO PUSH2 0x100 PUSH1 0x1 PUSH1 0xA8 SHL SUB NOT AND OR PUSH2 0x100 PUSH1 0x1 PUSH1 0x1 PUSH1 0xA0 SHL SUB SWAP1 SWAP3 AND SWAP2 SWAP1 SWAP2 MUL OR DUP4 SSTORE SWAP3 MLOAD PUSH1 0x1 DUP4 ADD SSTORE SWAP2 MLOAD PUSH1 0x2 SWAP1 SWAP2 ADD SSTORE JUMPDEST PUSH2 0x4E3B SLOAD DUP2 LT ISZERO PUSH2 0x1F7B JUMPI DUP4 PUSH2 0x4E3B DUP3 DUP2 SLOAD DUP2 LT PUSH2 0x1F38 JUMPI PUSH2 0x1F38 PUSH2 0x3848 JUMP JUMPDEST SWAP1 PUSH1 0x0 MSTORE PUSH1 0x20 PUSH1 0x0 KECCAK256 ADD SLOAD EQ ISZERO PUSH2 0x1F69 JUMPI PUSH2 0x4E3B DUP2 DUP2 SLOAD DUP2 LT PUSH2 0x1F5D JUMPI PUSH2 0x1F5D PUSH2 0x3848 JUMP JUMPDEST PUSH1 0x0 SWAP2 DUP3 MSTORE PUSH1 0x20 DUP3 KECCAK256 ADD SSTORE JUMPDEST DUP1 PUSH2 0x1F73 DUP2 PUSH2 0x37D7 JUMP JUMPDEST SWAP2 POP POP PUSH2 0x1F18 JUMP JUMPDEST POP POP POP POP JUMP JUMPDEST PUSH1 0x0 SLOAD PUSH1 0x1 PUSH1 0x1 PUSH1 0xA0 SHL SUB AND CALLER EQ PUSH2 0x1FAB JUMPI PUSH1 0x40 MLOAD PUSH3 0x461BCD PUSH1 0xE5 SHL DUP2 MSTORE PUSH1 0x4 ADD PUSH2 0x960 SWAP1 PUSH2 0x35F1 JUMP JUMPDEST PUSH1 0x1 PUSH1 0x1 PUSH1 0xA0 SHL SUB DUP2 AND PUSH2 0x2010 JUMPI PUSH1 0x40 MLOAD PUSH3 0x461BCD PUSH1 0xE5 SHL DUP2 MSTORE PUSH1 0x20 PUSH1 0x4 DUP3 ADD MSTORE PUSH1 0x26 PUSH1 0x24 DUP3 ADD MSTORE PUSH32 0x4F776E61626C653A206E6577206F776E657220697320746865207A65726F2061 PUSH1 0x44 DUP3 ADD MSTORE PUSH6 0x646472657373 PUSH1 0xD0 SHL PUSH1 0x64 DUP3 ADD MSTORE PUSH1 0x84 ADD PUSH2 0x960 JUMP JUMPDEST PUSH2 0x2019 DUP2 PUSH2 0x287E JUMP JUMPDEST POP JUMP JUMPDEST PUSH2 0x4E3A SLOAD PUSH1 0x1 PUSH1 0xA0 SHL SWAP1 DIV PUSH1 0xFF AND PUSH2 0x2046 JUMPI PUSH1 0x40 MLOAD PUSH3 0x461BCD PUSH1 0xE5 SHL DUP2 MSTORE PUSH1 0x4 ADD PUSH2 0x960 SWAP1 PUSH2 0x35C5 JUMP JUMPDEST PUSH1 0x0 DUP2 DUP2 MSTORE PUSH2 0x4E37 PUSH1 0x20 MSTORE PUSH1 0x40 SWAP1 KECCAK256 SLOAD PUSH1 0xFF AND PUSH2 0x20A1 JUMPI PUSH1 0x40 MLOAD PUSH3 0x461BCD PUSH1 0xE5 SHL DUP2 MSTORE PUSH1 0x20 PUSH1 0x4 DUP3 ADD MSTORE PUSH1 0x19 PUSH1 0x24 DUP3 ADD MSTORE PUSH25 0x54686520746F6B656E206973206E6F7420666F722073616C65 PUSH1 0x38 SHL PUSH1 0x44 DUP3 ADD MSTORE PUSH1 0x64 ADD PUSH2 0x960 JUMP JUMPDEST PUSH1 0x0 DUP2 DUP2 MSTORE PUSH2 0x4E37 PUSH1 0x20 MSTORE PUSH1 0x40 SWAP1 KECCAK256 PUSH1 0x2 ADD SLOAD ISZERO PUSH2 0x20F7 JUMPI PUSH1 0x40 MLOAD PUSH3 0x461BCD PUSH1 0xE5 SHL DUP2 MSTORE PUSH1 0x20 PUSH1 0x4 DUP3 ADD MSTORE PUSH1 0x13 PUSH1 0x24 DUP3 ADD MSTORE PUSH19 0x4E6F74206C697374656420696E204D61746963 PUSH1 0x68 SHL PUSH1 0x44 DUP3 ADD MSTORE PUSH1 0x64 ADD PUSH2 0x960 JUMP JUMPDEST PUSH1 0x0 DUP2 DUP2 MSTORE PUSH2 0x4E37 PUSH1 0x20 MSTORE PUSH1 0x40 SWAP1 KECCAK256 PUSH1 0x1 ADD SLOAD CALLVALUE EQ PUSH2 0x2158 JUMPI PUSH1 0x40 MLOAD PUSH3 0x461BCD PUSH1 0xE5 SHL DUP2 MSTORE PUSH1 0x20 PUSH1 0x4 DUP3 ADD MSTORE PUSH1 0x1A PUSH1 0x24 DUP3 ADD MSTORE PUSH32 0x57726F6E6720616D6F756E74206F66204D617469632073656E74000000000000 PUSH1 0x44 DUP3 ADD MSTORE PUSH1 0x64 ADD PUSH2 0x960 JUMP JUMPDEST PUSH2 0x4E39 SLOAD PUSH1 0x0 PUSH2 0x216A DUP3 PUSH2 0x3E8 PUSH2 0x3748 JUMP JUMPDEST PUSH2 0x4E3A SLOAD PUSH1 0x0 DUP6 DUP2 MSTORE PUSH2 0x4E37 PUSH1 0x20 MSTORE PUSH1 0x40 SWAP1 KECCAK256 PUSH1 0x1 ADD SLOAD SWAP2 SWAP3 POP PUSH1 0x1 PUSH1 0x1 PUSH1 0xA0 SHL SUB AND SWAP1 PUSH2 0x8FC SWAP1 PUSH2 0x21A4 SWAP1 PUSH2 0x3E8 SWAP1 PUSH2 0x1DC7 SWAP1 DUP8 PUSH2 0x23AB JUMP JUMPDEST PUSH1 0x40 MLOAD DUP2 ISZERO SWAP1 SWAP3 MUL SWAP2 PUSH1 0x0 DUP2 DUP2 DUP2 DUP6 DUP9 DUP9 CALL SWAP4 POP POP POP POP ISZERO DUP1 ISZERO PUSH2 0x21CC JUMPI RETURNDATASIZE PUSH1 0x0 DUP1 RETURNDATACOPY RETURNDATASIZE PUSH1 0x0 REVERT JUMPDEST POP PUSH1 0x0 DUP4 DUP2 MSTORE PUSH2 0x4E37 PUSH1 0x20 MSTORE PUSH1 0x40 SWAP1 KECCAK256 DUP1 SLOAD PUSH1 0x1 SWAP1 SWAP2 ADD SLOAD PUSH2 0x100 SWAP1 SWAP2 DIV PUSH1 0x1 PUSH1 0x1 PUSH1 0xA0 SHL SUB AND SWAP1 PUSH2 0x8FC SWAP1 PUSH2 0x220A SWAP1 PUSH2 0x3E8 SWAP1 PUSH2 0x1DC7 SWAP1 DUP7 PUSH2 0x23AB JUMP JUMPDEST PUSH1 0x40 MLOAD DUP2 ISZERO SWAP1 SWAP3 MUL SWAP2 PUSH1 0x0 DUP2 DUP2 DUP2 DUP6 DUP9 DUP9 CALL SWAP4 POP POP POP POP ISZERO DUP1 ISZERO PUSH2 0x2232 JUMPI RETURNDATASIZE PUSH1 0x0 DUP1 RETURNDATACOPY RETURNDATASIZE PUSH1 0x0 REVERT JUMPDEST POP PUSH2 0x223D CALLER DUP5 PUSH2 0x2569 JUMP JUMPDEST PUSH1 0x0 DUP4 DUP2 MSTORE PUSH2 0x4E37 PUSH1 0x20 SWAP1 DUP2 MSTORE PUSH1 0x40 SWAP2 DUP3 SWAP1 KECCAK256 PUSH1 0x1 DUP2 ADD SLOAD PUSH1 0x2 SWAP1 SWAP2 ADD SLOAD DUP4 MLOAD DUP8 DUP2 MSTORE SWAP3 DUP4 ADD SWAP2 SWAP1 SWAP2 MSTORE DUP2 DUP4 ADD MSTORE SWAP1 MLOAD PUSH32 0x9695D5EBF5115E7B172F9C06E511F76A01DF1DE76571B792FF9B6D506F06D3EF SWAP2 DUP2 SWAP1 SUB PUSH1 0x60 ADD SWAP1 LOG1 PUSH1 0x40 DUP1 MLOAD PUSH1 0x80 DUP2 ADD DUP3 MSTORE PUSH1 0x0 DUP1 DUP3 MSTORE PUSH1 0x20 DUP1 DUP4 ADD DUP3 DUP2 MSTORE DUP4 DUP6 ADD DUP4 DUP2 MSTORE PUSH1 0x60 DUP6 ADD DUP5 DUP2 MSTORE DUP10 DUP6 MSTORE PUSH2 0x4E37 SWAP1 SWAP4 MSTORE SWAP5 DUP4 KECCAK256 SWAP4 MLOAD DUP5 SLOAD SWAP2 MLOAD PUSH1 0x1 PUSH1 0x1 PUSH1 0xA8 SHL SUB NOT SWAP1 SWAP3 AND SWAP1 ISZERO ISZERO PUSH2 0x100 PUSH1 0x1 PUSH1 0xA8 SHL SUB NOT AND OR PUSH2 0x100 PUSH1 0x1 PUSH1 0x1 PUSH1 0xA0 SHL SUB SWAP1 SWAP3 AND SWAP2 SWAP1 SWAP2 MUL OR DUP4 SSTORE SWAP3 MLOAD PUSH1 0x1 DUP4 ADD SSTORE SWAP2 MLOAD PUSH1 0x2 SWAP1 SWAP2 ADD SSTORE JUMPDEST PUSH2 0x4E3B SLOAD DUP2 LT ISZERO PUSH2 0x1F7B JUMPI DUP4 PUSH2 0x4E3B DUP3 DUP2 SLOAD DUP2 LT PUSH2 0x232D JUMPI PUSH2 0x232D PUSH2 0x3848 JUMP JUMPDEST SWAP1 PUSH1 0x0 MSTORE PUSH1 0x20 PUSH1 0x0 KECCAK256 ADD SLOAD EQ ISZERO PUSH2 0x235E JUMPI PUSH2 0x4E3B DUP2 DUP2 SLOAD DUP2 LT PUSH2 0x2352 JUMPI PUSH2 0x2352 PUSH2 0x3848 JUMP JUMPDEST PUSH1 0x0 SWAP2 DUP3 MSTORE PUSH1 0x20 DUP3 KECCAK256 ADD SSTORE JUMPDEST DUP1 PUSH2 0x2368 DUP2 PUSH2 0x37D7 JUMP JUMPDEST SWAP2 POP POP PUSH2 0x230D JUMP JUMPDEST PUSH1 0x0 PUSH2 0x237C DUP3 DUP5 PUSH2 0x36FD JUMP JUMPDEST SWAP1 POP DUP3 DUP2 LT ISZERO PUSH2 0xC50 JUMPI PUSH1 0x0 DUP1 REVERT JUMPDEST PUSH1 0x0 DUP3 DUP3 GT ISZERO PUSH2 0x239A JUMPI PUSH1 0x0 DUP1 REVERT JUMPDEST PUSH2 0x23A4 DUP3 DUP5 PUSH2 0x3748 JUMP JUMPDEST SWAP4 SWAP3 POP POP POP JUMP JUMPDEST PUSH1 0x0 DUP3 PUSH2 0x23BA JUMPI POP PUSH1 0x0 PUSH2 0xC50 JUMP JUMPDEST PUSH2 0x23C4 DUP3 DUP5 PUSH2 0x3729 JUMP JUMPDEST SWAP1 POP DUP2 PUSH2 0x23D1 DUP5 DUP4 PUSH2 0x3715 JUMP JUMPDEST EQ PUSH2 0xC50 JUMPI PUSH1 0x0 DUP1 REVERT JUMPDEST PUSH1 0x40 DUP1 MLOAD PUSH1 0x1 PUSH1 0x1 PUSH1 0xA0 SHL SUB DUP6 DUP2 AND PUSH1 0x24 DUP4 ADD MSTORE DUP5 AND PUSH1 0x44 DUP3 ADD MSTORE PUSH1 0x64 DUP1 DUP3 ADD DUP5 SWAP1 MSTORE DUP3 MLOAD DUP1 DUP4 SUB SWAP1 SWAP2 ADD DUP2 MSTORE PUSH1 0x84 SWAP1 SWAP2 ADD SWAP1 SWAP2 MSTORE PUSH1 0x20 DUP2 ADD DUP1 MLOAD PUSH1 0x1 PUSH1 0x1 PUSH1 0xE0 SHL SUB AND PUSH4 0x23B872DD PUSH1 0xE0 SHL OR SWAP1 MSTORE PUSH2 0x1F7B SWAP1 DUP6 SWAP1 PUSH2 0x29E5 JUMP JUMPDEST PUSH1 0x0 PUSH1 0x1 PUSH1 0x1 PUSH1 0xA0 SHL SUB DUP3 AND PUSH2 0x2483 JUMPI PUSH1 0x40 MLOAD PUSH3 0x461BCD PUSH1 0xE5 SHL DUP2 MSTORE PUSH1 0x20 PUSH1 0x4 DUP3 ADD MSTORE PUSH1 0x13 PUSH1 0x24 DUP3 ADD MSTORE PUSH19 0x21B0B73737BA1036B4B73A103A3790183C1817 PUSH1 0x69 SHL PUSH1 0x44 DUP3 ADD MSTORE PUSH1 0x64 ADD PUSH2 0x960 JUMP JUMPDEST PUSH2 0x4E20 PUSH1 0x9 SLOAD LT PUSH2 0x24CD JUMPI PUSH1 0x40 MLOAD PUSH3 0x461BCD PUSH1 0xE5 SHL DUP2 MSTORE PUSH1 0x20 PUSH1 0x4 DUP3 ADD MSTORE PUSH1 0x14 PUSH1 0x24 DUP3 ADD MSTORE PUSH20 0x2A37B5B2B7103634B6B4BA103932B0B1B432B217 PUSH1 0x61 SHL PUSH1 0x44 DUP3 ADD MSTORE PUSH1 0x64 ADD PUSH2 0x960 JUMP JUMPDEST PUSH1 0x0 PUSH2 0x24D7 PUSH2 0x2AB7 JUMP JUMPDEST SWAP1 POP PUSH1 0x9 SLOAD PUSH1 0x1 PUSH2 0x24E8 SWAP2 SWAP1 PUSH2 0x36FD JUMP JUMPDEST PUSH1 0x9 SSTORE PUSH2 0x24F5 DUP4 DUP3 PUSH2 0x2C13 JUMP JUMPDEST PUSH1 0x40 MLOAD PUSH1 0x1 PUSH1 0x1 PUSH1 0xA0 SHL SUB DUP5 AND SWAP1 DUP3 SWAP1 PUSH32 0xF3CEA5493D790AF0133817606F7350A91D7F154EA52EAA79D179D4D231E50102 SWAP1 PUSH1 0x0 SWAP1 LOG3 PUSH1 0x40 MLOAD DUP2 SWAP1 PUSH1 0x1 PUSH1 0x1 PUSH1 0xA0 SHL SUB DUP6 AND SWAP1 PUSH1 0x0 SWAP1 PUSH32 0xDDF252AD1BE2C89B69C2B068FC378DAA952BA7F163C4A11628F55A4DF523B3EF SWAP1 DUP3 SWAP1 LOG4 SWAP3 SWAP2 POP POP JUMP JUMPDEST PUSH1 0x0 DUP2 DUP2 MSTORE PUSH1 0x2 PUSH1 0x20 MSTORE PUSH1 0x40 SWAP1 KECCAK256 SLOAD PUSH1 0x1 PUSH1 0x1 PUSH1 0xA0 SHL SUB AND PUSH2 0x258A DUP3 PUSH2 0x2CE2 JUMP JUMPDEST PUSH1 0x40 DUP1 MLOAD PUSH1 0x80 DUP2 ADD DUP3 MSTORE PUSH1 0x0 DUP1 DUP3 MSTORE PUSH1 0x20 DUP1 DUP4 ADD DUP3 DUP2 MSTORE DUP4 DUP6 ADD DUP4 DUP2 MSTORE PUSH1 0x60 DUP6 ADD DUP5 DUP2 MSTORE DUP9 DUP6 MSTORE PUSH2 0x4E37 SWAP1 SWAP4 MSTORE SWAP5 SWAP1 SWAP3 KECCAK256 SWAP3 MLOAD DUP4 SLOAD SWAP3 MLOAD PUSH1 0x1 PUSH1 0x1 PUSH1 0xA8 SHL SUB NOT SWAP1 SWAP4 AND SWAP1 ISZERO ISZERO PUSH2 0x100 PUSH1 0x1 PUSH1 0xA8 SHL SUB NOT AND OR PUSH2 0x100 PUSH1 0x1 PUSH1 0x1 PUSH1 0xA0 SHL SUB SWAP1 SWAP4 AND SWAP3 SWAP1 SWAP3 MUL SWAP2 SWAP1 SWAP2 OR DUP3 SSTORE SWAP2 MLOAD PUSH1 0x1 DUP3 ADD SSTORE SWAP1 MLOAD PUSH1 0x2 SWAP1 SWAP2 ADD SSTORE PUSH2 0x260D DUP2 DUP4 PUSH2 0x2D1D JUMP JUMPDEST PUSH2 0x2617 DUP4 DUP4 PUSH2 0x2C13 JUMP JUMPDEST DUP2 DUP4 PUSH1 0x1 PUSH1 0x1 PUSH1 0xA0 SHL SUB AND DUP3 PUSH1 0x1 PUSH1 0x1 PUSH1 0xA0 SHL SUB AND PUSH32 0xDDF252AD1BE2C89B69C2B068FC378DAA952BA7F163C4A11628F55A4DF523B3EF PUSH1 0x40 MLOAD PUSH1 0x40 MLOAD DUP1 SWAP2 SUB SWAP1 LOG4 POP POP POP JUMP JUMPDEST PUSH1 0x0 PUSH2 0x23A4 DUP3 DUP5 PUSH2 0x3715 JUMP JUMPDEST PUSH1 0x0 DUP3 DUP2 MSTORE PUSH1 0x2 PUSH1 0x20 MSTORE PUSH1 0x40 SWAP1 KECCAK256 SLOAD DUP3 SWAP1 PUSH1 0x1 PUSH1 0x1 PUSH1 0xA0 SHL SUB AND CALLER DUP2 EQ DUP1 PUSH2 0x26A7 JUMPI POP PUSH1 0x0 DUP3 DUP2 MSTORE PUSH1 0x3 PUSH1 0x20 MSTORE PUSH1 0x40 SWAP1 KECCAK256 SLOAD PUSH1 0x1 PUSH1 0x1 PUSH1 0xA0 SHL SUB AND CALLER EQ JUMPDEST DUP1 PUSH2 0x26D5 JUMPI POP PUSH1 0x1 PUSH1 0x1 PUSH1 0xA0 SHL SUB DUP2 AND PUSH1 0x0 SWAP1 DUP2 MSTORE PUSH1 0x4 PUSH1 0x20 SWAP1 DUP2 MSTORE PUSH1 0x40 DUP1 DUP4 KECCAK256 CALLER DUP5 MSTORE SWAP1 SWAP2 MSTORE SWAP1 KECCAK256 SLOAD PUSH1 0xFF AND JUMPDEST PUSH2 0x2714 JUMPI PUSH1 0x40 MLOAD PUSH3 0x461BCD PUSH1 0xE5 SHL DUP2 MSTORE PUSH1 0x20 PUSH1 0x4 DUP3 ADD MSTORE PUSH1 0x10 PUSH1 0x24 DUP3 ADD MSTORE PUSH16 0x21B0B73737BA103A3930B739B332B917 PUSH1 0x81 SHL PUSH1 0x44 DUP3 ADD MSTORE PUSH1 0x64 ADD PUSH2 0x960 JUMP JUMPDEST PUSH1 0x0 DUP5 DUP2 MSTORE PUSH1 0x2 PUSH1 0x20 MSTORE PUSH1 0x40 SWAP1 KECCAK256 SLOAD DUP5 SWAP1 PUSH1 0x1 PUSH1 0x1 PUSH1 0xA0 SHL SUB AND PUSH2 0x274A JUMPI PUSH1 0x40 MLOAD PUSH3 0x461BCD PUSH1 0xE5 SHL DUP2 MSTORE PUSH1 0x4 ADD PUSH2 0x960 SWAP1 PUSH2 0x359D JUMP JUMPDEST PUSH1 0x0 DUP6 DUP2 MSTORE PUSH1 0x2 PUSH1 0x20 MSTORE PUSH1 0x40 SWAP1 KECCAK256 SLOAD PUSH1 0x1 PUSH1 0x1 PUSH1 0xA0 SHL SUB SWAP1 DUP2 AND SWAP1 DUP9 AND DUP2 EQ PUSH2 0x27A8 JUMPI PUSH1 0x40 MLOAD PUSH3 0x461BCD PUSH1 0xE5 SHL DUP2 MSTORE PUSH1 0x20 PUSH1 0x4 DUP3 ADD MSTORE PUSH1 0x10 PUSH1 0x24 DUP3 ADD MSTORE PUSH16 0x24B731B7B93932B1BA1037BBB732B917 PUSH1 0x81 SHL PUSH1 0x44 DUP3 ADD MSTORE PUSH1 0x64 ADD PUSH2 0x960 JUMP JUMPDEST PUSH1 0x1 PUSH1 0x1 PUSH1 0xA0 SHL SUB DUP8 AND PUSH2 0x27BB JUMPI PUSH1 0x0 DUP1 REVERT JUMPDEST PUSH2 0x27C5 DUP8 DUP8 PUSH2 0x2569 JUMP JUMPDEST DUP7 EXTCODESIZE ISZERO PUSH2 0x2874 JUMPI PUSH1 0x40 MLOAD PUSH4 0xA85BD01 PUSH1 0xE1 SHL DUP2 MSTORE PUSH1 0x0 SWAP1 PUSH1 0x1 PUSH1 0x1 PUSH1 0xA0 SHL SUB DUP10 AND SWAP1 PUSH4 0x150B7A02 SWAP1 PUSH2 0x2801 SWAP1 CALLER SWAP1 DUP14 SWAP1 DUP13 SWAP1 DUP13 SWAP1 PUSH1 0x4 ADD PUSH2 0x3509 JUMP JUMPDEST PUSH1 0x20 PUSH1 0x40 MLOAD DUP1 DUP4 SUB DUP2 PUSH1 0x0 DUP8 DUP1 EXTCODESIZE ISZERO DUP1 ISZERO PUSH2 0x281B JUMPI PUSH1 0x0 DUP1 REVERT JUMPDEST POP GAS CALL ISZERO DUP1 ISZERO PUSH2 0x282F JUMPI RETURNDATASIZE PUSH1 0x0 DUP1 RETURNDATACOPY RETURNDATASIZE PUSH1 0x0 REVERT JUMPDEST POP POP POP POP PUSH1 0x40 MLOAD RETURNDATASIZE PUSH1 0x1F NOT PUSH1 0x1F DUP3 ADD AND DUP3 ADD DUP1 PUSH1 0x40 MSTORE POP DUP2 ADD SWAP1 PUSH2 0x2853 SWAP2 SWAP1 PUSH2 0x32AF JUMP JUMPDEST SWAP1 POP PUSH1 0x1 PUSH1 0x1 PUSH1 0xE0 SHL SUB NOT DUP2 AND PUSH4 0xA85BD01 PUSH1 0xE1 SHL EQ PUSH2 0x2872 JUMPI PUSH1 0x0 DUP1 REVERT JUMPDEST POP JUMPDEST POP POP POP POP POP POP POP POP JUMP JUMPDEST PUSH1 0x0 DUP1 SLOAD PUSH1 0x1 PUSH1 0x1 PUSH1 0xA0 SHL SUB DUP4 DUP2 AND PUSH1 0x1 PUSH1 0x1 PUSH1 0xA0 SHL SUB NOT DUP4 AND DUP2 OR DUP5 SSTORE PUSH1 0x40 MLOAD SWAP2 SWAP1 SWAP3 AND SWAP3 DUP4 SWAP2 PUSH32 0x8BE0079C531659141344CD1FD0A4F28419497F9722A3DAAFE3B4186F6B6457E0 SWAP2 SWAP1 LOG3 POP POP JUMP JUMPDEST PUSH1 0x60 DUP2 PUSH2 0x28F2 JUMPI POP POP PUSH1 0x40 DUP1 MLOAD DUP1 DUP3 ADD SWAP1 SWAP2 MSTORE PUSH1 0x1 DUP2 MSTORE PUSH1 0x3 PUSH1 0xFC SHL PUSH1 0x20 DUP3 ADD MSTORE SWAP1 JUMP JUMPDEST DUP2 PUSH1 0x0 JUMPDEST DUP2 ISZERO PUSH2 0x291C JUMPI DUP1 PUSH2 0x2906 DUP2 PUSH2 0x37D7 JUMP JUMPDEST SWAP2 POP PUSH2 0x2915 SWAP1 POP PUSH1 0xA DUP4 PUSH2 0x3715 JUMP JUMPDEST SWAP2 POP PUSH2 0x28F6 JUMP JUMPDEST PUSH1 0x0 DUP2 PUSH8 0xFFFFFFFFFFFFFFFF DUP2 GT ISZERO PUSH2 0x2937 JUMPI PUSH2 0x2937 PUSH2 0x385E JUMP JUMPDEST PUSH1 0x40 MLOAD SWAP1 DUP1 DUP3 MSTORE DUP1 PUSH1 0x1F ADD PUSH1 0x1F NOT AND PUSH1 0x20 ADD DUP3 ADD PUSH1 0x40 MSTORE DUP1 ISZERO PUSH2 0x2961 JUMPI PUSH1 0x20 DUP3 ADD DUP2 DUP1 CALLDATASIZE DUP4 CALLDATACOPY ADD SWAP1 POP JUMPDEST POP SWAP1 POP PUSH1 0x0 PUSH2 0x2971 PUSH1 0x1 DUP5 PUSH2 0x3748 JUMP JUMPDEST SWAP1 POP DUP6 SWAP4 POP JUMPDEST DUP4 ISZERO PUSH2 0x29DC JUMPI PUSH2 0x2988 PUSH1 0xA DUP6 PUSH2 0x37F2 JUMP JUMPDEST PUSH2 0x2993 SWAP1 PUSH1 0x30 PUSH2 0x36FD JUMP JUMPDEST PUSH1 0xF8 SHL DUP3 DUP3 PUSH2 0x29A1 DUP2 PUSH2 0x378B JUMP JUMPDEST SWAP4 POP DUP2 MLOAD DUP2 LT PUSH2 0x29B3 JUMPI PUSH2 0x29B3 PUSH2 0x3848 JUMP JUMPDEST PUSH1 0x20 ADD ADD SWAP1 PUSH1 0x1 PUSH1 0x1 PUSH1 0xF8 SHL SUB NOT AND SWAP1 DUP2 PUSH1 0x0 BYTE SWAP1 MSTORE8 POP PUSH2 0x29D5 PUSH1 0xA DUP6 PUSH2 0x3715 JUMP JUMPDEST SWAP4 POP PUSH2 0x2977 JUMP JUMPDEST POP SWAP5 SWAP4 POP POP POP POP JUMP JUMPDEST PUSH1 0x0 PUSH2 0x2A3A DUP3 PUSH1 0x40 MLOAD DUP1 PUSH1 0x40 ADD PUSH1 0x40 MSTORE DUP1 PUSH1 0x20 DUP2 MSTORE PUSH1 0x20 ADD PUSH32 0x5361666545524332303A206C6F772D6C6576656C2063616C6C206661696C6564 DUP2 MSTORE POP DUP6 PUSH1 0x1 PUSH1 0x1 PUSH1 0xA0 SHL SUB AND PUSH2 0x2E9C SWAP1 SWAP3 SWAP2 SWAP1 PUSH4 0xFFFFFFFF AND JUMP JUMPDEST DUP1 MLOAD SWAP1 SWAP2 POP ISZERO PUSH2 0x1415 JUMPI DUP1 DUP1 PUSH1 0x20 ADD SWAP1 MLOAD DUP2 ADD SWAP1 PUSH2 0x2A58 SWAP2 SWAP1 PUSH2 0x3275 JUMP JUMPDEST PUSH2 0x1415 JUMPI PUSH1 0x40 MLOAD PUSH3 0x461BCD PUSH1 0xE5 SHL DUP2 MSTORE PUSH1 0x20 PUSH1 0x4 DUP3 ADD MSTORE PUSH1 0x2A PUSH1 0x24 DUP3 ADD MSTORE PUSH32 0x5361666545524332303A204552433230206F7065726174696F6E20646964206E PUSH1 0x44 DUP3 ADD MSTORE PUSH10 0x1BDD081CDD58D8D95959 PUSH1 0xB2 SHL PUSH1 0x64 DUP3 ADD MSTORE PUSH1 0x84 ADD PUSH2 0x960 JUMP JUMPDEST PUSH1 0x0 DUP1 PUSH1 0x9 SLOAD PUSH2 0x4E20 PUSH2 0x2ACA SWAP2 SWAP1 PUSH2 0x3748 JUMP JUMPDEST PUSH1 0x15 SLOAD PUSH1 0x40 DUP1 MLOAD PUSH1 0x20 DUP2 ADD SWAP3 SWAP1 SWAP3 MSTORE PUSH12 0xFFFFFFFFFFFFFFFFFFFFFFFF NOT CALLER PUSH1 0x60 SHL AND SWAP1 DUP3 ADD MSTORE DIFFICULTY PUSH1 0x54 DUP3 ADD MSTORE TIMESTAMP PUSH1 0x74 DUP3 ADD MSTORE SWAP1 SWAP2 POP PUSH1 0x0 SWAP1 DUP3 SWAP1 PUSH1 0x94 ADD PUSH1 0x40 MLOAD PUSH1 0x20 DUP2 DUP4 SUB SUB DUP2 MSTORE SWAP1 PUSH1 0x40 MSTORE DUP1 MLOAD SWAP1 PUSH1 0x20 ADD KECCAK256 PUSH1 0x0 SHR PUSH2 0x2B2A SWAP2 SWAP1 PUSH2 0x37F2 JUMP JUMPDEST SWAP1 POP PUSH1 0x0 PUSH1 0x16 DUP3 PUSH2 0x4E20 DUP2 LT PUSH2 0x2B42 JUMPI PUSH2 0x2B42 PUSH2 0x3848 JUMP JUMPDEST ADD SLOAD ISZERO PUSH2 0x2B66 JUMPI PUSH1 0x16 DUP3 PUSH2 0x4E20 DUP2 LT PUSH2 0x2B5D JUMPI PUSH2 0x2B5D PUSH2 0x3848 JUMP JUMPDEST ADD SLOAD SWAP1 POP PUSH2 0x2B69 JUMP JUMPDEST POP DUP1 JUMPDEST PUSH1 0x16 PUSH2 0x2B76 PUSH1 0x1 DUP6 PUSH2 0x3748 JUMP JUMPDEST PUSH2 0x4E20 DUP2 LT PUSH2 0x2B87 JUMPI PUSH2 0x2B87 PUSH2 0x3848 JUMP JUMPDEST ADD SLOAD PUSH2 0x2BB3 JUMPI PUSH2 0x2B98 PUSH1 0x1 DUP5 PUSH2 0x3748 JUMP JUMPDEST PUSH1 0x16 DUP4 PUSH2 0x4E20 DUP2 LT PUSH2 0x2BAC JUMPI PUSH2 0x2BAC PUSH2 0x3848 JUMP JUMPDEST ADD SSTORE PUSH2 0x2BEA JUMP JUMPDEST PUSH1 0x16 PUSH2 0x2BC0 PUSH1 0x1 DUP6 PUSH2 0x3748 JUMP JUMPDEST PUSH2 0x4E20 DUP2 LT PUSH2 0x2BD1 JUMPI PUSH2 0x2BD1 PUSH2 0x3848 JUMP JUMPDEST ADD SLOAD PUSH1 0x16 DUP4 PUSH2 0x4E20 DUP2 LT PUSH2 0x2BE7 JUMPI PUSH2 0x2BE7 PUSH2 0x3848 JUMP JUMPDEST ADD SSTORE JUMPDEST PUSH1 0x15 DUP1 SLOAD SWAP1 PUSH1 0x0 PUSH2 0x2BFA DUP4 PUSH2 0x37D7 JUMP JUMPDEST SWAP1 SWAP2 SSTORE POP PUSH2 0x2C0B SWAP1 POP DUP2 PUSH1 0x1 PUSH2 0x2370 JUMP JUMPDEST SWAP4 POP POP POP POP SWAP1 JUMP JUMPDEST PUSH1 0x0 DUP2 DUP2 MSTORE PUSH1 0x2 PUSH1 0x20 MSTORE PUSH1 0x40 SWAP1 KECCAK256 SLOAD PUSH1 0x1 PUSH1 0x1 PUSH1 0xA0 SHL SUB AND ISZERO PUSH2 0x2C78 JUMPI PUSH1 0x40 MLOAD PUSH3 0x461BCD PUSH1 0xE5 SHL DUP2 MSTORE PUSH1 0x20 PUSH1 0x4 DUP3 ADD MSTORE PUSH1 0x1A PUSH1 0x24 DUP3 ADD MSTORE PUSH32 0x43616E6E6F74206164642C20616C7265616479206F776E65642E000000000000 PUSH1 0x44 DUP3 ADD MSTORE PUSH1 0x64 ADD PUSH2 0x960 JUMP JUMPDEST PUSH1 0x0 DUP2 DUP2 MSTORE PUSH1 0x2 PUSH1 0x20 SWAP1 DUP2 MSTORE PUSH1 0x40 DUP1 DUP4 KECCAK256 DUP1 SLOAD PUSH1 0x1 PUSH1 0x1 PUSH1 0xA0 SHL SUB NOT AND PUSH1 0x1 PUSH1 0x1 PUSH1 0xA0 SHL SUB DUP8 AND SWAP1 DUP2 OR SWAP1 SWAP2 SSTORE DUP1 DUP5 MSTORE PUSH1 0x5 DUP4 MSTORE SWAP1 DUP4 KECCAK256 DUP1 SLOAD PUSH1 0x1 DUP2 DUP2 ADD DUP4 SSTORE DUP3 DUP7 MSTORE SWAP4 DUP6 KECCAK256 ADD DUP6 SWAP1 SSTORE SWAP3 MSTORE SWAP1 SLOAD PUSH2 0x2CCF SWAP2 PUSH2 0x238B JUMP JUMPDEST PUSH1 0x0 SWAP2 DUP3 MSTORE PUSH1 0x6 PUSH1 0x20 MSTORE PUSH1 0x40 SWAP1 SWAP2 KECCAK256 SSTORE POP JUMP JUMPDEST PUSH1 0x0 DUP2 DUP2 MSTORE PUSH1 0x3 PUSH1 0x20 MSTORE PUSH1 0x40 SWAP1 KECCAK256 SLOAD PUSH1 0x1 PUSH1 0x1 PUSH1 0xA0 SHL SUB AND ISZERO PUSH2 0x2019 JUMPI PUSH1 0x0 SWAP1 DUP2 MSTORE PUSH1 0x3 PUSH1 0x20 MSTORE PUSH1 0x40 SWAP1 KECCAK256 DUP1 SLOAD PUSH1 0x1 PUSH1 0x1 PUSH1 0xA0 SHL SUB NOT AND SWAP1 SSTORE JUMP JUMPDEST PUSH1 0x0 DUP2 DUP2 MSTORE PUSH1 0x2 PUSH1 0x20 MSTORE PUSH1 0x40 SWAP1 KECCAK256 SLOAD PUSH1 0x1 PUSH1 0x1 PUSH1 0xA0 SHL SUB DUP4 DUP2 AND SWAP2 AND EQ PUSH2 0x2D79 JUMPI PUSH1 0x40 MLOAD PUSH3 0x461BCD PUSH1 0xE5 SHL DUP2 MSTORE PUSH1 0x20 PUSH1 0x4 DUP3 ADD MSTORE PUSH1 0x10 PUSH1 0x24 DUP3 ADD MSTORE PUSH16 0x24B731B7B93932B1BA1037BBB732B917 PUSH1 0x81 SHL PUSH1 0x44 DUP3 ADD MSTORE PUSH1 0x64 ADD PUSH2 0x960 JUMP JUMPDEST PUSH1 0x0 DUP2 DUP2 MSTORE PUSH1 0x2 PUSH1 0x20 SWAP1 DUP2 MSTORE PUSH1 0x40 DUP1 DUP4 KECCAK256 DUP1 SLOAD PUSH1 0x1 PUSH1 0x1 PUSH1 0xA0 SHL SUB NOT AND SWAP1 SSTORE PUSH1 0x6 DUP3 MSTORE DUP1 DUP4 KECCAK256 SLOAD PUSH1 0x1 PUSH1 0x1 PUSH1 0xA0 SHL SUB DUP7 AND DUP5 MSTORE PUSH1 0x5 SWAP1 SWAP3 MSTORE DUP3 KECCAK256 SLOAD SWAP1 SWAP2 SWAP1 PUSH2 0x2DC2 SWAP1 PUSH1 0x1 PUSH2 0x238B JUMP JUMPDEST SWAP1 POP DUP2 DUP2 EQ PUSH2 0x2E59 JUMPI PUSH1 0x1 PUSH1 0x1 PUSH1 0xA0 SHL SUB DUP5 AND PUSH1 0x0 SWAP1 DUP2 MSTORE PUSH1 0x5 PUSH1 0x20 MSTORE PUSH1 0x40 DUP2 KECCAK256 DUP1 SLOAD DUP4 SWAP1 DUP2 LT PUSH2 0x2DF5 JUMPI PUSH2 0x2DF5 PUSH2 0x3848 JUMP JUMPDEST SWAP1 PUSH1 0x0 MSTORE PUSH1 0x20 PUSH1 0x0 KECCAK256 ADD SLOAD SWAP1 POP DUP1 PUSH1 0x5 PUSH1 0x0 DUP8 PUSH1 0x1 PUSH1 0x1 PUSH1 0xA0 SHL SUB AND PUSH1 0x1 PUSH1 0x1 PUSH1 0xA0 SHL SUB AND DUP2 MSTORE PUSH1 0x20 ADD SWAP1 DUP2 MSTORE PUSH1 0x20 ADD PUSH1 0x0 KECCAK256 DUP5 DUP2 SLOAD DUP2 LT PUSH2 0x2E39 JUMPI PUSH2 0x2E39 PUSH2 0x3848 JUMP JUMPDEST PUSH1 0x0 SWAP2 DUP3 MSTORE PUSH1 0x20 DUP1 DUP4 KECCAK256 SWAP1 SWAP2 ADD SWAP3 SWAP1 SWAP3 SSTORE SWAP2 DUP3 MSTORE PUSH1 0x6 SWAP1 MSTORE PUSH1 0x40 SWAP1 KECCAK256 DUP3 SWAP1 SSTORE JUMPDEST PUSH1 0x1 PUSH1 0x1 PUSH1 0xA0 SHL SUB DUP5 AND PUSH1 0x0 SWAP1 DUP2 MSTORE PUSH1 0x5 PUSH1 0x20 MSTORE PUSH1 0x40 SWAP1 KECCAK256 DUP1 SLOAD DUP1 PUSH2 0x2E80 JUMPI PUSH2 0x2E80 PUSH2 0x3832 JUMP JUMPDEST PUSH1 0x1 SWAP1 SUB DUP2 DUP2 SWAP1 PUSH1 0x0 MSTORE PUSH1 0x20 PUSH1 0x0 KECCAK256 ADD PUSH1 0x0 SWAP1 SSTORE SWAP1 SSTORE POP POP POP POP JUMP JUMPDEST PUSH1 0x60 PUSH2 0x2EAB DUP5 DUP5 PUSH1 0x0 DUP6 PUSH2 0x2EB3 JUMP JUMPDEST SWAP5 SWAP4 POP POP POP POP JUMP JUMPDEST PUSH1 0x60 DUP3 SELFBALANCE LT ISZERO PUSH2 0x2F14 JUMPI PUSH1 0x40 MLOAD PUSH3 0x461BCD PUSH1 0xE5 SHL DUP2 MSTORE PUSH1 0x20 PUSH1 0x4 DUP3 ADD MSTORE PUSH1 0x26 PUSH1 0x24 DUP3 ADD MSTORE PUSH32 0x416464726573733A20696E73756666696369656E742062616C616E636520666F PUSH1 0x44 DUP3 ADD MSTORE PUSH6 0x1C8818D85B1B PUSH1 0xD2 SHL PUSH1 0x64 DUP3 ADD MSTORE PUSH1 0x84 ADD PUSH2 0x960 JUMP JUMPDEST PUSH1 0x1 PUSH1 0x1 PUSH1 0xA0 SHL SUB DUP6 AND EXTCODESIZE PUSH2 0x2F6B JUMPI PUSH1 0x40 MLOAD PUSH3 0x461BCD PUSH1 0xE5 SHL DUP2 MSTORE PUSH1 0x20 PUSH1 0x4 DUP3 ADD MSTORE PUSH1 0x1D PUSH1 0x24 DUP3 ADD MSTORE PUSH32 0x416464726573733A2063616C6C20746F206E6F6E2D636F6E7472616374000000 PUSH1 0x44 DUP3 ADD MSTORE PUSH1 0x64 ADD PUSH2 0x960 JUMP JUMPDEST PUSH1 0x0 DUP1 DUP7 PUSH1 0x1 PUSH1 0x1 PUSH1 0xA0 SHL SUB AND DUP6 DUP8 PUSH1 0x40 MLOAD PUSH2 0x2F87 SWAP2 SWAP1 PUSH2 0x3446 JUMP JUMPDEST PUSH1 0x0 PUSH1 0x40 MLOAD DUP1 DUP4 SUB DUP2 DUP6 DUP8 GAS CALL SWAP3 POP POP POP RETURNDATASIZE DUP1 PUSH1 0x0 DUP2 EQ PUSH2 0x2FC4 JUMPI PUSH1 0x40 MLOAD SWAP2 POP PUSH1 0x1F NOT PUSH1 0x3F RETURNDATASIZE ADD AND DUP3 ADD PUSH1 0x40 MSTORE RETURNDATASIZE DUP3 MSTORE RETURNDATASIZE PUSH1 0x0 PUSH1 0x20 DUP5 ADD RETURNDATACOPY PUSH2 0x2FC9 JUMP JUMPDEST PUSH1 0x60 SWAP2 POP JUMPDEST POP SWAP2 POP SWAP2 POP PUSH2 0x2FD9 DUP3 DUP3 DUP7 PUSH2 0x2FE4 JUMP JUMPDEST SWAP8 SWAP7 POP POP POP POP POP POP POP JUMP JUMPDEST PUSH1 0x60 DUP4 ISZERO PUSH2 0x2FF3 JUMPI POP DUP2 PUSH2 0x23A4 JUMP JUMPDEST DUP3 MLOAD ISZERO PUSH2 0x3003 JUMPI DUP3 MLOAD DUP1 DUP5 PUSH1 0x20 ADD REVERT JUMPDEST DUP2 PUSH1 0x40 MLOAD PUSH3 0x461BCD PUSH1 0xE5 SHL DUP2 MSTORE PUSH1 0x4 ADD PUSH2 0x960 SWAP2 SWAP1 PUSH2 0x358A JUMP JUMPDEST DUP3 DUP1 SLOAD PUSH2 0x3029 SWAP1 PUSH2 0x37A2 JUMP JUMPDEST SWAP1 PUSH1 0x0 MSTORE PUSH1 0x20 PUSH1 0x0 KECCAK256 SWAP1 PUSH1 0x1F ADD PUSH1 0x20 SWAP1 DIV DUP2 ADD SWAP3 DUP3 PUSH2 0x304B JUMPI PUSH1 0x0 DUP6 SSTORE PUSH2 0x3091 JUMP JUMPDEST DUP3 PUSH1 0x1F LT PUSH2 0x3064 JUMPI DUP1 MLOAD PUSH1 0xFF NOT AND DUP4 DUP1 ADD OR DUP6 SSTORE PUSH2 0x3091 JUMP JUMPDEST DUP3 DUP1 ADD PUSH1 0x1 ADD DUP6 SSTORE DUP3 ISZERO PUSH2 0x3091 JUMPI SWAP2 DUP3 ADD JUMPDEST DUP3 DUP2 GT ISZERO PUSH2 0x3091 JUMPI DUP3 MLOAD DUP3 SSTORE SWAP2 PUSH1 0x20 ADD SWAP2 SWAP1 PUSH1 0x1 ADD SWAP1 PUSH2 0x3076 JUMP JUMPDEST POP PUSH2 0x309D SWAP3 SWAP2 POP PUSH2 0x30A1 JUMP JUMPDEST POP SWAP1 JUMP JUMPDEST JUMPDEST DUP1 DUP3 GT ISZERO PUSH2 0x309D JUMPI PUSH1 0x0 DUP2 SSTORE PUSH1 0x1 ADD PUSH2 0x30A2 JUMP JUMPDEST DUP1 CALLDATALOAD PUSH1 0x1 PUSH1 0x1 PUSH1 0xA0 SHL SUB DUP2 AND DUP2 EQ PUSH2 0x30CD JUMPI PUSH1 0x0 DUP1 REVERT JUMPDEST SWAP2 SWAP1 POP JUMP JUMPDEST PUSH1 0x0 PUSH1 0x20 DUP3 DUP5 SUB SLT ISZERO PUSH2 0x30E4 JUMPI PUSH1 0x0 DUP1 REVERT JUMPDEST PUSH2 0x23A4 DUP3 PUSH2 0x30B6 JUMP JUMPDEST PUSH1 0x0 DUP1 PUSH1 0x40 DUP4 DUP6 SUB SLT ISZERO PUSH2 0x3100 JUMPI PUSH1 0x0 DUP1 REVERT JUMPDEST PUSH2 0x3109 DUP4 PUSH2 0x30B6 JUMP JUMPDEST SWAP2 POP PUSH2 0x3117 PUSH1 0x20 DUP5 ADD PUSH2 0x30B6 JUMP JUMPDEST SWAP1 POP SWAP3 POP SWAP3 SWAP1 POP JUMP JUMPDEST PUSH1 0x0 DUP1 PUSH1 0x0 PUSH1 0x60 DUP5 DUP7 SUB SLT ISZERO PUSH2 0x3135 JUMPI PUSH1 0x0 DUP1 REVERT JUMPDEST PUSH2 0x313E DUP5 PUSH2 0x30B6 JUMP JUMPDEST SWAP3 POP PUSH2 0x314C PUSH1 0x20 DUP6 ADD PUSH2 0x30B6 JUMP JUMPDEST SWAP2 POP PUSH1 0x40 DUP5 ADD CALLDATALOAD SWAP1 POP SWAP3 POP SWAP3 POP SWAP3 JUMP JUMPDEST PUSH1 0x0 DUP1 PUSH1 0x0 DUP1 PUSH1 0x0 PUSH1 0x80 DUP7 DUP9 SUB SLT ISZERO PUSH2 0x3174 JUMPI PUSH1 0x0 DUP1 REVERT JUMPDEST PUSH2 0x317D DUP7 PUSH2 0x30B6 JUMP JUMPDEST SWAP5 POP PUSH2 0x318B PUSH1 0x20 DUP8 ADD PUSH2 0x30B6 JUMP JUMPDEST SWAP4 POP PUSH1 0x40 DUP7 ADD CALLDATALOAD SWAP3 POP PUSH1 0x60 DUP7 ADD CALLDATALOAD PUSH8 0xFFFFFFFFFFFFFFFF DUP1 DUP3 GT ISZERO PUSH2 0x31AF JUMPI PUSH1 0x0 DUP1 REVERT JUMPDEST DUP2 DUP9 ADD SWAP2 POP DUP9 PUSH1 0x1F DUP4 ADD SLT PUSH2 0x31C3 JUMPI PUSH1 0x0 DUP1 REVERT JUMPDEST DUP2 CALLDATALOAD DUP2 DUP2 GT ISZERO PUSH2 0x31D2 JUMPI PUSH1 0x0 DUP1 REVERT JUMPDEST DUP10 PUSH1 0x20 DUP3 DUP6 ADD ADD GT ISZERO PUSH2 0x31E4 JUMPI PUSH1 0x0 DUP1 REVERT JUMPDEST SWAP7 SWAP10 SWAP6 SWAP9 POP SWAP4 SWAP7 POP PUSH1 0x20 ADD SWAP5 SWAP4 SWAP3 POP POP POP JUMP JUMPDEST PUSH1 0x0 DUP1 PUSH1 0x40 DUP4 DUP6 SUB SLT ISZERO PUSH2 0x320A JUMPI PUSH1 0x0 DUP1 REVERT JUMPDEST PUSH2 0x3213 DUP4 PUSH2 0x30B6 JUMP JUMPDEST SWAP2 POP PUSH1 0x20 DUP4 ADD CALLDATALOAD PUSH2 0x3223 DUP2 PUSH2 0x3874 JUMP JUMPDEST DUP1 SWAP2 POP POP SWAP3 POP SWAP3 SWAP1 POP JUMP JUMPDEST PUSH1 0x0 DUP1 PUSH1 0x40 DUP4 DUP6 SUB SLT ISZERO PUSH2 0x3241 JUMPI PUSH1 0x0 DUP1 REVERT JUMPDEST PUSH2 0x324A DUP4 PUSH2 0x30B6 JUMP JUMPDEST SWAP5 PUSH1 0x20 SWAP4 SWAP1 SWAP4 ADD CALLDATALOAD SWAP4 POP POP POP JUMP JUMPDEST PUSH1 0x0 PUSH1 0x20 DUP3 DUP5 SUB SLT ISZERO PUSH2 0x326A JUMPI PUSH1 0x0 DUP1 REVERT JUMPDEST DUP2 CALLDATALOAD PUSH2 0x23A4 DUP2 PUSH2 0x3874 JUMP JUMPDEST PUSH1 0x0 PUSH1 0x20 DUP3 DUP5 SUB SLT ISZERO PUSH2 0x3287 JUMPI PUSH1 0x0 DUP1 REVERT JUMPDEST DUP2 MLOAD PUSH2 0x23A4 DUP2 PUSH2 0x3874 JUMP JUMPDEST PUSH1 0x0 PUSH1 0x20 DUP3 DUP5 SUB SLT ISZERO PUSH2 0x32A4 JUMPI PUSH1 0x0 DUP1 REVERT JUMPDEST DUP2 CALLDATALOAD PUSH2 0x23A4 DUP2 PUSH2 0x3882 JUMP JUMPDEST PUSH1 0x0 PUSH1 0x20 DUP3 DUP5 SUB SLT ISZERO PUSH2 0x32C1 JUMPI PUSH1 0x0 DUP1 REVERT JUMPDEST DUP2 MLOAD PUSH2 0x23A4 DUP2 PUSH2 0x3882 JUMP JUMPDEST PUSH1 0x0 PUSH1 0x20 DUP3 DUP5 SUB SLT ISZERO PUSH2 0x32DE JUMPI PUSH1 0x0 DUP1 REVERT JUMPDEST DUP2 CALLDATALOAD PUSH8 0xFFFFFFFFFFFFFFFF DUP1 DUP3 GT ISZERO PUSH2 0x32F6 JUMPI PUSH1 0x0 DUP1 REVERT JUMPDEST DUP2 DUP5 ADD SWAP2 POP DUP5 PUSH1 0x1F DUP4 ADD SLT PUSH2 0x330A JUMPI PUSH1 0x0 DUP1 REVERT JUMPDEST DUP2 CALLDATALOAD DUP2 DUP2 GT ISZERO PUSH2 0x331C JUMPI PUSH2 0x331C PUSH2 0x385E JUMP JUMPDEST PUSH1 0x40 MLOAD PUSH1 0x1F DUP3 ADD PUSH1 0x1F NOT SWAP1 DUP2 AND PUSH1 0x3F ADD AND DUP2 ADD SWAP1 DUP4 DUP3 GT DUP2 DUP4 LT OR ISZERO PUSH2 0x3344 JUMPI PUSH2 0x3344 PUSH2 0x385E JUMP JUMPDEST DUP2 PUSH1 0x40 MSTORE DUP3 DUP2 MSTORE DUP8 PUSH1 0x20 DUP5 DUP8 ADD ADD GT ISZERO PUSH2 0x335D JUMPI PUSH1 0x0 DUP1 REVERT JUMPDEST DUP3 PUSH1 0x20 DUP7 ADD PUSH1 0x20 DUP4 ADD CALLDATACOPY PUSH1 0x0 SWAP3 DUP2 ADD PUSH1 0x20 ADD SWAP3 SWAP1 SWAP3 MSTORE POP SWAP6 SWAP5 POP POP POP POP POP JUMP JUMPDEST PUSH1 0x0 PUSH1 0x20 DUP3 DUP5 SUB SLT ISZERO PUSH2 0x338F JUMPI PUSH1 0x0 DUP1 REVERT JUMPDEST POP CALLDATALOAD SWAP2 SWAP1 POP JUMP JUMPDEST PUSH1 0x0 PUSH1 0x20 DUP3 DUP5 SUB SLT ISZERO PUSH2 0x33A8 JUMPI PUSH1 0x0 DUP1 REVERT JUMPDEST POP MLOAD SWAP2 SWAP1 POP JUMP JUMPDEST PUSH1 0x0 DUP1 PUSH1 0x40 DUP4 DUP6 SUB SLT ISZERO PUSH2 0x33C2 JUMPI PUSH1 0x0 DUP1 REVERT JUMPDEST DUP3 CALLDATALOAD SWAP2 POP PUSH2 0x3117 PUSH1 0x20 DUP5 ADD PUSH2 0x30B6 JUMP JUMPDEST PUSH1 0x0 DUP1 PUSH1 0x0 PUSH1 0x60 DUP5 DUP7 SUB SLT ISZERO PUSH2 0x33E7 JUMPI PUSH1 0x0 DUP1 REVERT JUMPDEST POP POP DUP2 CALLDATALOAD SWAP4 PUSH1 0x20 DUP4 ADD CALLDATALOAD SWAP4 POP PUSH1 0x40 SWAP1 SWAP3 ADD CALLDATALOAD SWAP2 SWAP1 POP JUMP JUMPDEST PUSH1 0x0 DUP2 MLOAD DUP1 DUP5 MSTORE PUSH2 0x3416 DUP2 PUSH1 0x20 DUP7 ADD PUSH1 0x20 DUP7 ADD PUSH2 0x375F JUMP JUMPDEST PUSH1 0x1F ADD PUSH1 0x1F NOT AND SWAP3 SWAP1 SWAP3 ADD PUSH1 0x20 ADD SWAP3 SWAP2 POP POP JUMP JUMPDEST PUSH1 0x0 DUP2 MLOAD PUSH2 0x343C DUP2 DUP6 PUSH1 0x20 DUP7 ADD PUSH2 0x375F JUMP JUMPDEST SWAP3 SWAP1 SWAP3 ADD SWAP3 SWAP2 POP POP JUMP JUMPDEST PUSH1 0x0 DUP3 MLOAD PUSH2 0x3458 DUP2 DUP5 PUSH1 0x20 DUP8 ADD PUSH2 0x375F JUMP JUMPDEST SWAP2 SWAP1 SWAP2 ADD SWAP3 SWAP2 POP POP JUMP JUMPDEST PUSH1 0x0 DUP1 DUP5 SLOAD DUP2 PUSH1 0x1 DUP3 DUP2 SHR SWAP2 POP DUP1 DUP4 AND DUP1 PUSH2 0x347E JUMPI PUSH1 0x7F DUP4 AND SWAP3 POP JUMPDEST PUSH1 0x20 DUP1 DUP5 LT DUP3 EQ ISZERO PUSH2 0x349E JUMPI PUSH4 0x4E487B71 PUSH1 0xE0 SHL DUP7 MSTORE PUSH1 0x22 PUSH1 0x4 MSTORE PUSH1 0x24 DUP7 REVERT JUMPDEST DUP2 DUP1 ISZERO PUSH2 0x34B2 JUMPI PUSH1 0x1 DUP2 EQ PUSH2 0x34C3 JUMPI PUSH2 0x34F0 JUMP JUMPDEST PUSH1 0xFF NOT DUP7 AND DUP10 MSTORE DUP5 DUP10 ADD SWAP7 POP PUSH2 0x34F0 JUMP JUMPDEST PUSH1 0x0 DUP12 DUP2 MSTORE PUSH1 0x20 SWAP1 KECCAK256 PUSH1 0x0 JUMPDEST DUP7 DUP2 LT ISZERO PUSH2 0x34E8 JUMPI DUP2 SLOAD DUP12 DUP3 ADD MSTORE SWAP1 DUP6 ADD SWAP1 DUP4 ADD PUSH2 0x34CF JUMP JUMPDEST POP POP DUP5 DUP10 ADD SWAP7 POP JUMPDEST POP POP POP POP POP POP PUSH2 0x3500 DUP2 DUP6 PUSH2 0x342A JUMP JUMPDEST SWAP6 SWAP5 POP POP POP POP POP JUMP JUMPDEST PUSH1 0x1 PUSH1 0x1 PUSH1 0xA0 SHL SUB DUP6 DUP2 AND DUP3 MSTORE DUP5 AND PUSH1 0x20 DUP3 ADD MSTORE PUSH1 0x40 DUP2 ADD DUP4 SWAP1 MSTORE PUSH1 0x80 PUSH1 0x60 DUP3 ADD DUP2 SWAP1 MSTORE PUSH1 0x0 SWAP1 PUSH2 0x353C SWAP1 DUP4 ADD DUP5 PUSH2 0x33FE JUMP JUMPDEST SWAP7 SWAP6 POP POP POP POP POP POP JUMP JUMPDEST PUSH1 0x20 DUP1 DUP3 MSTORE DUP3 MLOAD DUP3 DUP3 ADD DUP2 SWAP1 MSTORE PUSH1 0x0 SWAP2 SWAP1 DUP5 DUP3 ADD SWAP1 PUSH1 0x40 DUP6 ADD SWAP1 DUP5 JUMPDEST DUP2 DUP2 LT ISZERO PUSH2 0x357E JUMPI DUP4 MLOAD DUP4 MSTORE SWAP3 DUP5 ADD SWAP3 SWAP2 DUP5 ADD SWAP2 PUSH1 0x1 ADD PUSH2 0x3562 JUMP JUMPDEST POP SWAP1 SWAP7 SWAP6 POP POP POP POP POP POP JUMP JUMPDEST PUSH1 0x20 DUP2 MSTORE PUSH1 0x0 PUSH2 0x23A4 PUSH1 0x20 DUP4 ADD DUP5 PUSH2 0x33FE JUMP JUMPDEST PUSH1 0x20 DUP1 DUP3 MSTORE PUSH1 0xE SWAP1 DUP3 ADD MSTORE PUSH14 0x24B73B30B634B2103A37B5B2B717 PUSH1 0x91 SHL PUSH1 0x40 DUP3 ADD MSTORE PUSH1 0x60 ADD SWAP1 JUMP JUMPDEST PUSH1 0x20 DUP1 DUP3 MSTORE PUSH1 0x12 SWAP1 DUP3 ADD MSTORE PUSH18 0x13585C9AD95D081B9BDD081CDD185C9D1959 PUSH1 0x72 SHL PUSH1 0x40 DUP3 ADD MSTORE PUSH1 0x60 ADD SWAP1 JUMP JUMPDEST PUSH1 0x20 DUP1 DUP3 MSTORE DUP2 DUP2 ADD MSTORE PUSH32 0x4F776E61626C653A2063616C6C6572206973206E6F7420746865206F776E6572 PUSH1 0x40 DUP3 ADD MSTORE PUSH1 0x60 ADD SWAP1 JUMP JUMPDEST PUSH1 0x20 DUP1 DUP3 MSTORE PUSH1 0x29 SWAP1 DUP3 ADD MSTORE PUSH32 0x596F752063616E206E6F7420627579206D6F7265207468616E203230204E4654 PUSH1 0x40 DUP3 ADD MSTORE PUSH9 0x73206174206F6E6365 PUSH1 0xB8 SHL PUSH1 0x60 DUP3 ADD MSTORE PUSH1 0x80 ADD SWAP1 JUMP JUMPDEST PUSH1 0x20 DUP1 DUP3 MSTORE PUSH1 0x22 SWAP1 DUP3 ADD MSTORE PUSH32 0x596F7520617265206E6F7420746865206F776E6572206F662074686520746F6B PUSH1 0x40 DUP3 ADD MSTORE PUSH2 0x32B7 PUSH1 0xF1 SHL PUSH1 0x60 DUP3 ADD MSTORE PUSH1 0x80 ADD SWAP1 JUMP JUMPDEST PUSH1 0x20 DUP1 DUP3 MSTORE PUSH1 0x2C SWAP1 DUP3 ADD MSTORE PUSH32 0x457863656564732072656D61696E696E67207072696D6172792073616C65206F PUSH1 0x40 DUP3 ADD MSTORE PUSH12 0x66204D415449432073616C65 PUSH1 0xA0 SHL PUSH1 0x60 DUP3 ADD MSTORE PUSH1 0x80 ADD SWAP1 JUMP JUMPDEST PUSH1 0x0 DUP3 NOT DUP3 GT ISZERO PUSH2 0x3710 JUMPI PUSH2 0x3710 PUSH2 0x3806 JUMP JUMPDEST POP ADD SWAP1 JUMP JUMPDEST PUSH1 0x0 DUP3 PUSH2 0x3724 JUMPI PUSH2 0x3724 PUSH2 0x381C JUMP JUMPDEST POP DIV SWAP1 JUMP JUMPDEST PUSH1 0x0 DUP2 PUSH1 0x0 NOT DIV DUP4 GT DUP3 ISZERO ISZERO AND ISZERO PUSH2 0x3743 JUMPI PUSH2 0x3743 PUSH2 0x3806 JUMP JUMPDEST POP MUL SWAP1 JUMP JUMPDEST PUSH1 0x0 DUP3 DUP3 LT ISZERO PUSH2 0x375A JUMPI PUSH2 0x375A PUSH2 0x3806 JUMP JUMPDEST POP SUB SWAP1 JUMP JUMPDEST PUSH1 0x0 JUMPDEST DUP4 DUP2 LT ISZERO PUSH2 0x377A JUMPI DUP2 DUP2 ADD MLOAD DUP4 DUP3 ADD MSTORE PUSH1 0x20 ADD PUSH2 0x3762 JUMP JUMPDEST DUP4 DUP2 GT ISZERO PUSH2 0x1F7B JUMPI POP POP PUSH1 0x0 SWAP2 ADD MSTORE JUMP JUMPDEST PUSH1 0x0 DUP2 PUSH2 0x379A JUMPI PUSH2 0x379A PUSH2 0x3806 JUMP JUMPDEST POP PUSH1 0x0 NOT ADD SWAP1 JUMP JUMPDEST PUSH1 0x1 DUP2 DUP2 SHR SWAP1 DUP3 AND DUP1 PUSH2 0x37B6 JUMPI PUSH1 0x7F DUP3 AND SWAP2 POP JUMPDEST PUSH1 0x20 DUP3 LT DUP2 EQ ISZERO PUSH2 0xA7B JUMPI PUSH4 0x4E487B71 PUSH1 0xE0 SHL PUSH1 0x0 MSTORE PUSH1 0x22 PUSH1 0x4 MSTORE PUSH1 0x24 PUSH1 0x0 REVERT JUMPDEST PUSH1 0x0 PUSH1 0x0 NOT DUP3 EQ ISZERO PUSH2 0x37EB JUMPI PUSH2 0x37EB PUSH2 0x3806 JUMP JUMPDEST POP PUSH1 0x1 ADD SWAP1 JUMP JUMPDEST PUSH1 0x0 DUP3 PUSH2 0x3801 JUMPI PUSH2 0x3801 PUSH2 0x381C JUMP JUMPDEST POP MOD SWAP1 JUMP JUMPDEST PUSH4 0x4E487B71 PUSH1 0xE0 SHL PUSH1 0x0 MSTORE PUSH1 0x11 PUSH1 0x4 MSTORE PUSH1 0x24 PUSH1 0x0 REVERT JUMPDEST PUSH4 0x4E487B71 PUSH1 0xE0 SHL PUSH1 0x0 MSTORE PUSH1 0x12 PUSH1 0x4 MSTORE PUSH1 0x24 PUSH1 0x0 REVERT JUMPDEST PUSH4 0x4E487B71 PUSH1 0xE0 SHL PUSH1 0x0 MSTORE PUSH1 0x31 PUSH1 0x4 MSTORE PUSH1 0x24 PUSH1 0x0 REVERT JUMPDEST PUSH4 0x4E487B71 PUSH1 0xE0 SHL PUSH1 0x0 MSTORE PUSH1 0x32 PUSH1 0x4 MSTORE PUSH1 0x24 PUSH1 0x0 REVERT JUMPDEST PUSH4 0x4E487B71 PUSH1 0xE0 SHL PUSH1 0x0 MSTORE PUSH1 0x41 PUSH1 0x4 MSTORE PUSH1 0x24 PUSH1 0x0 REVERT JUMPDEST DUP1 ISZERO ISZERO DUP2 EQ PUSH2 0x2019 JUMPI PUSH1 0x0 DUP1 REVERT JUMPDEST PUSH1 0x1 PUSH1 0x1 PUSH1 0xE0 SHL SUB NOT DUP2 AND DUP2 EQ PUSH2 0x2019 JUMPI PUSH1 0x0 DUP1 REVERT INVALID LOG2 PUSH5 0x6970667358 0x22 SLT KECCAK256 0xD1 SWAP15 DUP2 0xAD 0xCA PUSH6 0x3E60171D9310 0xF9 0xE6 0xF 0xA9 0xDA 0xB9 0x25 0xE2 0xFC DUP1 0xC2 PUSH25 0xA2A3D05007D2F00964736F6C63430008070033000000000000 "
				},
				"gasEstimates": {
					"creation": {
						"codeDepositCost": "2908400",
						"executionCost": "infinite",
						"totalCost": "infinite"
					},
					"external": {
						"Goldmint(uint256)": "infinite",
						"TOKEN_LIMIT()": "264",
						"addPaymentToken(uint256,address)": "26894",
						"approve(address,uint256)": "35665",
						"balanceOf(address)": "2677",
						"baseFee()": "2341",
						"baseUri()": "infinite",
						"buyNFTMatic(uint256)": "infinite",
						"buyNFTWithToken(uint256)": "infinite",
						"canUse(uint256,address)": "7196",
						"createListing(uint256,uint256,uint256)": "123709",
						"dungeonContract()": "2436",
						"feeWallet()": "2448",
						"getApproved(uint256)": "4844",
						"getNftAddress()": "infinite",
						"gold()": "2469",
						"isApprovedForAll(address,address)": "infinite",
						"list(uint256)": "6924",
						"marketStatus()": "2471",
						"mintsRemaining()": "infinite",
						"name()": "infinite",
						"nftList(uint256)": "4687",
						"owner()": "2487",
						"ownerOf(uint256)": "4825",
						"publicMint(uint256)": "infinite",
						"publicSale()": "2450",
						"purchaseToken(uint256)": "2566",
						"remainderOfGold()": "2384",
						"remainderOfPrimary()": "2384",
						"removeListing(uint256)": "infinite",
						"renounceOwnership()": "28204",
						"safeTransferFrom(address,address,uint256)": "infinite",
						"safeTransferFrom(address,address,uint256,bytes)": "infinite",
						"saleStartTime()": "2429",
						"setApprovalForAll(address,bool)": "26725",
						"setDungeonContract(address)": "26834",
						"setFee(uint256)": "24619",
						"setSale(bool)": "26845",
						"setUri(string)": "infinite",
						"startSale()": "50923",
						"supportsInterface(bytes4)": "2585",
						"symbol()": "infinite",
						"tokenByIndex(uint256)": "495",
						"tokenOfOwnerByIndex(address,uint256)": "7090",
						"tokenURI(uint256)": "infinite",
						"totalSupply()": "2382",
						"transferFrom(address,address,uint256)": "infinite",
						"transferOwnership(address)": "28375",
						"transferToDungeon(address,address,uint256)": "infinite"
					},
					"internal": {
						"_addNFToken(address,uint256)": "infinite",
						"_clearApproval(uint256)": "26514",
						"_getOwnerNFTCount(address)": "infinite",
						"_mint(address)": "infinite",
						"_removeListing(uint256)": "infinite",
						"_removeNFToken(address,uint256)": "infinite",
						"_safeTransfer(address,address,uint256,bytes memory)": "infinite",
						"_safeTransferFrom(address,address,uint256,bytes memory)": "infinite",
						"_transfer(address,uint256)": "infinite",
						"isContract(address)": "infinite",
						"randomIndex()": "infinite",
						"toString(uint256)": "infinite"
					}
				},
				"methodIdentifiers": {
					"Goldmint(uint256)": "10a15cc8",
					"TOKEN_LIMIT()": "031bd4c4",
					"addPaymentToken(uint256,address)": "0612c478",
					"approve(address,uint256)": "095ea7b3",
					"balanceOf(address)": "70a08231",
					"baseFee()": "6ef25c3a",
					"baseUri()": "9abc8320",
					"buyNFTMatic(uint256)": "f9ae7aaf",
					"buyNFTWithToken(uint256)": "d4c66861",
					"canUse(uint256,address)": "0cef3df1",
					"createListing(uint256,uint256,uint256)": "b03053b6",
					"dungeonContract()": "f79e4164",
					"feeWallet()": "f25f4b56",
					"getApproved(uint256)": "081812fc",
					"getNftAddress()": "be9a71bd",
					"gold()": "fbec6f21",
					"isApprovedForAll(address,address)": "e985e9c5",
					"list(uint256)": "80c9419e",
					"marketStatus()": "e0e081d7",
					"mintsRemaining()": "44c66be7",
					"name()": "06fdde03",
					"nftList(uint256)": "75bea166",
					"owner()": "8da5cb5b",
					"ownerOf(uint256)": "6352211e",
					"publicMint(uint256)": "2db11544",
					"publicSale()": "33bc1c5c",
					"purchaseToken(uint256)": "c2db2c42",
					"remainderOfGold()": "ed38b79c",
					"remainderOfPrimary()": "4c211c28",
					"removeListing(uint256)": "479ad4c3",
					"renounceOwnership()": "715018a6",
					"safeTransferFrom(address,address,uint256)": "42842e0e",
					"safeTransferFrom(address,address,uint256,bytes)": "b88d4fde",
					"saleStartTime()": "1cbaee2d",
					"setApprovalForAll(address,bool)": "a22cb465",
					"setDungeonContract(address)": "1bcd39aa",
					"setFee(uint256)": "69fe0e2d",
					"setSale(bool)": "1d2e5a3a",
					"setUri(string)": "9b642de1",
					"startSale()": "b66a0e5d",
					"supportsInterface(bytes4)": "01ffc9a7",
					"symbol()": "95d89b41",
					"tokenByIndex(uint256)": "4f6ccce7",
					"tokenOfOwnerByIndex(address,uint256)": "2f745c59",
					"tokenURI(uint256)": "c87b56dd",
					"totalSupply()": "18160ddd",
					"transferFrom(address,address,uint256)": "23b872dd",
					"transferOwnership(address)": "f2fde38b",
					"transferToDungeon(address,address,uint256)": "20d1fc62"
				}
			},
			"userdoc": {
				"kind": "user",
				"methods": {},
				"version": 1
			}
		}
	}
}