{
	"data": {
		"bytecode": {
			"linkReferences": {},
			"object": "60c06040526802b5e3af16b188000060025568056bc75e2d63100000600355680d8d726b7177a80000600455683635c9adc5dea000006005556006805460ff19169055655af3107a4000600b553480156200005957600080fd5b50604051620023e5380380620023e58339810160408190526200007c916200017c565b7f8c7382f9d8f56b33781fe506e897a4f1e2d1725500000000000000000000000060a0527f326c977e6efc84e512bb9c30f76e30c160ed06fb000000000000000000000000608052620000cf336200012a565b600680546001600160a01b0394851661010002610100600160a81b0319909116179055600880549284166001600160a01b031993841617905560078054919093169082168117909255600980549091169091179055620001e9565b600180546001600160a01b038381166001600160a01b0319831681179093556040519116919082907f8be0079c531659141344cd1fd0a4f28419497f9722a3daafe3b4186f6b6457e090600090a35050565b6000806000606084860312156200019257600080fd5b83516200019f81620001d0565b6020850151909350620001b281620001d0565b6040850151909250620001c581620001d0565b809150509250925092565b6001600160a01b0381168114620001e657600080fd5b50565b60805160601c60a05160601c6121c26200022360003960008181610b240152611296015260008181610e60015261126701526121c26000f3fe608060405234801561001057600080fd5b50600436106101e55760003560e01c8063715018a61161010f578063c84dabcf116100a2578063f2fde38b11610071578063f2fde38b14610431578063f468a08914610444578063fbec6f2114610457578063fd026aef1461046f57600080fd5b8063c84dabcf146103ef578063ddca3f4314610402578063e3a9db1a1461040b578063e96fa3951461041e57600080fd5b806399e987d9116100de57806399e987d914610395578063ab60ffda1461039e578063b343ae14146103b1578063c3b86b13146103dc57600080fd5b8063715018a6146103425780638da5cb5b1461034a57806394985ddd1461036f578063983d95ce1461038257600080fd5b80634665096d11610187578063598b8e7111610156578063598b8e71146102f65780635eac62391461030957806369fe0e2d1461031c5780636c074e021461032f57600080fd5b80634665096d146102be57806349df728c146102c75780634e077aa2146102da578063515a20ba146102e357600080fd5b80631f2698ab116101c35780631f2698ab1461027a5780632c4e722e1461029757806334fcf437146102a05780633646a87e146102b557600080fd5b806301bd7ec6146101ea578063068c526f146102395780631852e8d914610259575b600080fd5b6102196101f8366004611ec6565b60106020526000908152604090208054600182015460029092015490919083565b604080519384526020840192909252908201526060015b60405180910390f35b61024c610247366004611cef565b610478565b6040516102309190611f70565b61026c610267366004611dc9565b6105b9565b604051908152602001610230565b6006546102879060ff1681565b6040519015158152602001610230565b61026c600e5481565b6102b36102ae366004611ec6565b6106bb565b005b61026c60045481565b61026c600f5481565b6102b36102d5366004611cb5565b6106ea565b61026c60025481565b6102b36102f1366004611ec6565b6107b4565b6102b3610304366004611df5565b6107ee565b6102b3610317366004611df5565b6108e2565b6102b361032a366004611ec6565b6109ef565b6102b361033d366004611ea4565b610a1e565b6102b3610ae3565b6001546001600160a01b03165b6040516001600160a01b039091168152602001610230565b6102b361037d366004611ea4565b610b19565b6102b3610390366004611df5565b610b9f565b61026c60055481565b600754610357906001600160a01b031681565b61026c6103bf366004611dc9565b600d60209081526000928352604080842090915290825290205481565b6102876103ea366004611ec6565b610d0e565b6102b36103fd366004611e6a565b610fa2565b61026c600b5481565b61024c610419366004611cb5565b610fdf565b600954610357906001600160a01b031681565b6102b361043f366004611cb5565b61109b565b600854610357906001600160a01b031681565b6006546103579061010090046001600160a01b031681565b61026c60035481565b6060815167ffffffffffffffff81111561049457610494612153565b6040519080825280602002602001820160405280156104bd578160200160208202803683370190505b50905060005b82518110156105b15760008382815181106104e0576104e061213d565b60200260200101519050600d6000866001600160a01b03166001600160a01b0316815260200190815260200160002060008281526020019081526020016000205461052d43600f54611133565b6105379190612089565b6001600160a01b0386166000908152600c602052604090206105599083611149565b610564576000610567565b60015b60ff16600e54610577919061206a565b610581919061206a565b8383815181106105935761059361213d565b602090810291909101015250806105a9816120cc565b9150506104c3565b505b92915050565b6001600160a01b0382166000908152600d60209081526040808320848452909152812054600f546105eb904390611133565b1161062e5760405162461bcd60e51b815260206004820152600e60248201526d496e76616c696420626c6f636b7360901b60448201526064015b60405180910390fd5b6001600160a01b0383166000908152600d60209081526040808320858452909152902054600f54610660904390611133565b61066a9190612089565b6001600160a01b0384166000908152600c6020526040902061068c9084611149565b61069757600061069a565b60015b60ff16600e546106aa919061206a565b6106b4919061206a565b9392505050565b6001546001600160a01b031633146106e55760405162461bcd60e51b815260040161062590611fc7565b600e55565b6001546001600160a01b031633146107145760405162461bcd60e51b815260040161062590611fc7565b6107b16107296001546001600160a01b031690565b6040516370a0823160e01b81523060048201526001600160a01b038416906370a082319060240160206040518083038186803b15801561076857600080fd5b505afa15801561077c573d6000803e3d6000fd5b505050506040513d601f19601f820116820180604052508101906107a09190611edf565b6001600160a01b0384169190611161565b50565b6001546001600160a01b031633146107de5760405162461bcd60e51b815260040161062590611fc7565b6107e8814361203e565b600f5550565b6107f882826108e2565b60005b818110156108dd576008546001600160a01b03166320d1fc6233308686868181106108285761082861213d565b6040516001600160e01b031960e088901b1681526001600160a01b03958616600482015294909316602485015250602090910201356044820152606401600060405180830381600087803b15801561087f57600080fd5b505af1158015610893573d6000803e3d6000fd5b505050506108ca8383838181106108ac576108ac61213d565b336000908152600c60209081526040909120939102013590506111b3565b50806108d5816120cc565b9150506107fb565b505050565b6000806108f143600f54611133565b905060005b8381101561097d57610920338686848181106109145761091461213d565b905060200201356105b9565b61092a908461203e565b336000908152600d602052604081209194508391908787858181106109515761095161213d565b905060200201358152602001908152602001600020819055508080610975906120cc565b9150506108f6565b5081156109e9576009546040516340c10f1960e01b8152336004820152602481018490526001600160a01b03909116906340c10f1990604401600060405180830381600087803b1580156109d057600080fd5b505af11580156109e4573d6000803e3d6000fd5b505050505b50505050565b6001546001600160a01b03163314610a195760405162461bcd60e51b815260040161062590611fc7565b600b55565b60008160011415610a3a57506000828152601060205260409020545b8160021415610a5757506000828152601060205260409020600101545b8160031415610a7457506000828152601060205260409020600201545b60058110610ab25760405162461bcd60e51b815260206004820152600b60248201526a1cdada5b1b081b585e195960aa1b6044820152606401610625565b600754610ad2906001600160a01b0316306801158e460913d00000611161565b80610adc816120cc565b5050505050565b6001546001600160a01b03163314610b0d5760405162461bcd60e51b815260040161062590611fc7565b610b1760006111bf565b565b336001600160a01b037f00000000000000000000000000000000000000000000000000000000000000001614610b915760405162461bcd60e51b815260206004820152601f60248201527f4f6e6c7920565246436f6f7264696e61746f722063616e2066756c66696c6c006044820152606401610625565b610b9b8282611211565b5050565b610ba982826108e2565b60005b818110156108dd57610be7838383818110610bc957610bc961213d565b336000908152600c6020908152604090912093910201359050611149565b610c335760405162461bcd60e51b815260206004820152601c60248201527f5374616b696e673a20746f6b656e206e6f74206465706f7369746564000000006044820152606401610625565b610c66838383818110610c4857610c4861213d565b336000908152600c6020908152604090912093910201359050611257565b506008546001600160a01b03166320d1fc623033868686818110610c8c57610c8c61213d565b6040516001600160e01b031960e088901b1681526001600160a01b03958616600482015294909316602485015250602090910201356044820152606401600060405180830381600087803b158015610ce357600080fd5b505af1158015610cf7573d6000803e3d6000fd5b505050508080610d06906120cc565b915050610bac565b6000336008546040516331a9108f60e11b8152600481018590526001600160a01b039283169290911690636352211e9060240160206040518083038186803b158015610d5957600080fd5b505afa158015610d6d573d6000803e3d6000fd5b505050506040513d601f19601f82011682018060405250810190610d919190611cd2565b6001600160a01b031614610db75760405162461bcd60e51b815260040161062590611ffc565b614e208210610dff5760405162461bcd60e51b815260206004820152601460248201527304d75737420626520756e6465722032302c3030360641b6044820152606401610625565b60065460ff16610e485760405162461bcd60e51b8152602060048201526014602482015273223ab733b2b7b7103737ba1039ba30b93a32b21760611b6044820152606401610625565b600b546040516370a0823160e01b81523060048201527f00000000000000000000000000000000000000000000000000000000000000006001600160a01b0316906370a082319060240160206040518083038186803b158015610eaa57600080fd5b505afa158015610ebe573d6000803e3d6000fd5b505050506040513d601f19601f82011682018060405250810190610ee29190611edf565b11610f435760405162461bcd60e51b815260206004820152602b60248201527f4e6f7420656e6f756768204c494e4b202d2066696c6c20636f6e74726163742060448201526a1dda5d1a0819985d58d95d60aa1b6064820152608401610625565b6000610f747f6e75b569a01ef56d18cab6a8e71e6600d6ce853834d4a5748b720d06f878b3a460001b600b54611263565b6000908152600a6020526040902080546001600160a01b031916331781556001908101939093555090919050565b6001546001600160a01b03163314610fcc5760405162461bcd60e51b815260040161062590611fc7565b6006805460ff1916911515919091179055565b6001600160a01b0381166000908152600c60205260408120606091611003826113ed565b67ffffffffffffffff81111561101b5761101b612153565b604051908082528060200260200182016040528015611044578160200160208202803683370190505b50905060005b611053836113ed565b8110156110935761106483826113f7565b8282815181106110765761107661213d565b60209081029190910101528061108b816120cc565b91505061104a565b509392505050565b6001546001600160a01b031633146110c55760405162461bcd60e51b815260040161062590611fc7565b6001600160a01b03811661112a5760405162461bcd60e51b815260206004820152602660248201527f4f776e61626c653a206e6577206f776e657220697320746865207a65726f206160448201526564647265737360d01b6064820152608401610625565b6107b1816111bf565b600081831061114257816106b4565b5090919050565b600081815260018301602052604081205415156106b4565b604080516001600160a01b038416602482015260448082018490528251808303909101815260649091019091526020810180516001600160e01b031663a9059cbb60e01b1790526108dd908490611403565b60006106b483836114d5565b600180546001600160a01b038381166001600160a01b0319831681179093556040519116919082907f8be0079c531659141344cd1fd0a4f28419497f9722a3daafe3b4186f6b6457e090600090a35050565b6000828152600a6020526040812080546001909101546001600160a01b039091169161123f6103e8856120e7565b61124a90600161203e565b9050610adc838383611524565b60006106b483836119f8565b60007f00000000000000000000000000000000000000000000000000000000000000006001600160a01b0316634000aea07f0000000000000000000000000000000000000000000000000000000000000000848660006040516020016112d3929190918252602082015260400190565b6040516020818303038152906040526040518463ffffffff1660e01b815260040161130093929190611f40565b602060405180830381600087803b15801561131a57600080fd5b505af115801561132e573d6000803e3d6000fd5b505050506040513d601f19601f820116820180604052508101906113529190611e87565b5060008381526020818152604080832054815180840188905280830185905230606082015260808082018390528351808303909101815260a0909101909252815191830191909120868452929091526113ac90600161203e565b60008581526020818152604091829020929092558051808301879052808201849052815180820383018152606090910190915280519101205b949350505050565b60006105b3825490565b60006106b48383611aeb565b6000611458826040518060400160405280602081526020017f5361666545524332303a206c6f772d6c6576656c2063616c6c206661696c6564815250856001600160a01b0316611b159092919063ffffffff16565b8051909150156108dd57808060200190518101906114769190611e87565b6108dd5760405162461bcd60e51b815260206004820152602a60248201527f5361666545524332303a204552433230206f7065726174696f6e20646964206e6044820152691bdd081cdd58d8d9595960b21b6064820152608401610625565b600081815260018301602052604081205461151c575081546001818101845560008481526020808220909301849055845484825282860190935260409020919091556105b3565b5060006105b3565b6008546040516331a9108f60e11b8152600481018490526001600160a01b03858116921690636352211e9060240160206040518083038186803b15801561156a57600080fd5b505afa15801561157e573d6000803e3d6000fd5b505050506040513d601f19601f820116820180604052508101906115a29190611cd2565b6001600160a01b0316146115c85760405162461bcd60e51b815260040161062590611ffc565b60008281526010602052604090206001015481906115e7906005611b24565b6115f39061025861203e565b811161166657600854604051631068fe3160e11b81526001600160a01b03868116600483015230602483015260448201869052909116906320d1fc6290606401600060405180830381600087803b15801561164d57600080fd5b505af1158015611661573d6000803e3d6000fd5b505050505b600083815260106020526040902060010154611683906005611b24565b61168f9061025961203e565b81101580156116a057506102ee8111155b15611746576006546000848152601060205260409020546101009091046001600160a01b0316906340c10f199086906116da906005611b24565b6002546116e7919061203e565b6040516001600160e01b031960e085901b1681526001600160a01b0390921660048301526024820152604401600060405180830381600087803b15801561172d57600080fd5b505af1158015611741573d6000803e3d6000fd5b505050505b6102ef811015801561175a57506103848111155b15611800576006546000848152601060205260409020546101009091046001600160a01b0316906340c10f19908690611794906005611b24565b6003546117a1919061203e565b6040516001600160e01b031960e085901b1681526001600160a01b0390921660048301526024820152604401600060405180830381600087803b1580156117e757600080fd5b505af11580156117fb573d6000803e3d6000fd5b505050505b610385811015801561183a5750600083815260106020526040902060029081015461182a91611b24565b611836906103e7612089565b8111155b156118e0576006546000848152601060205260409020546101009091046001600160a01b0316906340c10f19908690611874906005611b24565b600454611881919061203e565b6040516001600160e01b031960e085901b1681526001600160a01b0390921660048301526024820152604401600060405180830381600087803b1580156118c757600080fd5b505af11580156118db573d6000803e3d6000fd5b505050505b60008381526010602052604090206002908101546118fd91611b24565b611909906103e8612089565b81116119b0576006546000848152601060205260409020546101009091046001600160a01b0316906340c10f19908690611944906005611b24565b600554611951919061203e565b6040516001600160e01b031960e085901b1681526001600160a01b0390921660048301526024820152604401600060405180830381600087803b15801561199757600080fd5b505af11580156119ab573d6000803e3d6000fd5b505050505b604080516001600160a01b0386168152602081018390527f8160866a4524149ecfbdf4a1e88a26717f5afab5913f0730bcde49ff496f6df7910160405180910390a150505050565b60008181526001830160205260408120548015611ae1576000611a1c600183612089565b8554909150600090611a3090600190612089565b9050818114611a95576000866000018281548110611a5057611a5061213d565b9060005260206000200154905080876000018481548110611a7357611a7361213d565b6000918252602080832090910192909255918252600188019052604090208390555b8554869080611aa657611aa6612127565b6001900381819060005260206000200160009055905585600101600086815260200190815260200160002060009055600193505050506105b3565b60009150506105b3565b6000826000018281548110611b0257611b0261213d565b9060005260206000200154905092915050565b60606113e58484600085611b54565b600082611b33575060006105b3565b611b3d828461206a565b905081611b4a8483612056565b146105b357600080fd5b606082471015611bb55760405162461bcd60e51b815260206004820152602660248201527f416464726573733a20696e73756666696369656e742062616c616e636520666f6044820152651c8818d85b1b60d21b6064820152608401610625565b843b611c035760405162461bcd60e51b815260206004820152601d60248201527f416464726573733a2063616c6c20746f206e6f6e2d636f6e74726163740000006044820152606401610625565b600080866001600160a01b03168587604051611c1f9190611f24565b60006040518083038185875af1925050503d8060008114611c5c576040519150601f19603f3d011682016040523d82523d6000602084013e611c61565b606091505b5091509150611c71828286611c7c565b979650505050505050565b60608315611c8b5750816106b4565b825115611c9b5782518084602001fd5b8160405162461bcd60e51b81526004016106259190611fb4565b600060208284031215611cc757600080fd5b81356106b481612169565b600060208284031215611ce457600080fd5b81516106b481612169565b60008060408385031215611d0257600080fd5b8235611d0d81612169565b915060208381013567ffffffffffffffff80821115611d2b57600080fd5b818601915086601f830112611d3f57600080fd5b813581811115611d5157611d51612153565b8060051b604051601f19603f83011681018181108582111715611d7657611d76612153565b604052828152858101935084860182860187018b1015611d9557600080fd5b600095505b83861015611db8578035855260019590950194938601938601611d9a565b508096505050505050509250929050565b60008060408385031215611ddc57600080fd5b8235611de781612169565b946020939093013593505050565b60008060208385031215611e0857600080fd5b823567ffffffffffffffff80821115611e2057600080fd5b818501915085601f830112611e3457600080fd5b813581811115611e4357600080fd5b8660208260051b8501011115611e5857600080fd5b60209290920196919550909350505050565b600060208284031215611e7c57600080fd5b81356106b48161217e565b600060208284031215611e9957600080fd5b81516106b48161217e565b60008060408385031215611eb757600080fd5b50508035926020909101359150565b600060208284031215611ed857600080fd5b5035919050565b600060208284031215611ef157600080fd5b5051919050565b60008151808452611f108160208601602086016120a0565b601f01601f19169290920160200192915050565b60008251611f368184602087016120a0565b9190910192915050565b60018060a01b0384168152826020820152606060408201526000611f676060830184611ef8565b95945050505050565b6020808252825182820181905260009190848201906040850190845b81811015611fa857835183529284019291840191600101611f8c565b50909695505050505050565b6020815260006106b46020830184611ef8565b6020808252818101527f4f776e61626c653a2063616c6c6572206973206e6f7420746865206f776e6572604082015260600190565b60208082526022908201527f596f7520617265206e6f7420746865206f776e6572206f662074686520746f6b60408201526132b760f11b606082015260800190565b60008219821115612051576120516120fb565b500190565b60008261206557612065612111565b500490565b6000816000190483118215151615612084576120846120fb565b500290565b60008282101561209b5761209b6120fb565b500390565b60005b838110156120bb5781810151838201526020016120a3565b838111156109e95750506000910152565b60006000198214156120e0576120e06120fb565b5060010190565b6000826120f6576120f6612111565b500690565b634e487b7160e01b600052601160045260246000fd5b634e487b7160e01b600052601260045260246000fd5b634e487b7160e01b600052603160045260246000fd5b634e487b7160e01b600052603260045260246000fd5b634e487b7160e01b600052604160045260246000fd5b6001600160a01b03811681146107b157600080fd5b80151581146107b157600080fdfea26469706673582212205d5ddc6b3002b4fed726b16b12ec9bb14d3a0bb410cee56b0bde9e6d671db88d64736f6c63430008070033",
			"opcodes": "PUSH1 0xC0 PUSH1 0x40 MSTORE PUSH9 0x2B5E3AF16B1880000 PUSH1 0x2 SSTORE PUSH9 0x56BC75E2D63100000 PUSH1 0x3 SSTORE PUSH9 0xD8D726B7177A80000 PUSH1 0x4 SSTORE PUSH9 0x3635C9ADC5DEA00000 PUSH1 0x5 SSTORE PUSH1 0x6 DUP1 SLOAD PUSH1 0xFF NOT AND SWAP1 SSTORE PUSH6 0x5AF3107A4000 PUSH1 0xB SSTORE CALLVALUE DUP1 ISZERO PUSH3 0x59 JUMPI PUSH1 0x0 DUP1 REVERT JUMPDEST POP PUSH1 0x40 MLOAD PUSH3 0x23E5 CODESIZE SUB DUP1 PUSH3 0x23E5 DUP4 CODECOPY DUP2 ADD PUSH1 0x40 DUP2 SWAP1 MSTORE PUSH3 0x7C SWAP2 PUSH3 0x17C JUMP JUMPDEST PUSH32 0x8C7382F9D8F56B33781FE506E897A4F1E2D17255000000000000000000000000 PUSH1 0xA0 MSTORE PUSH32 0x326C977E6EFC84E512BB9C30F76E30C160ED06FB000000000000000000000000 PUSH1 0x80 MSTORE PUSH3 0xCF CALLER PUSH3 0x12A JUMP JUMPDEST PUSH1 0x6 DUP1 SLOAD PUSH1 0x1 PUSH1 0x1 PUSH1 0xA0 SHL SUB SWAP5 DUP6 AND PUSH2 0x100 MUL PUSH2 0x100 PUSH1 0x1 PUSH1 0xA8 SHL SUB NOT SWAP1 SWAP2 AND OR SWAP1 SSTORE PUSH1 0x8 DUP1 SLOAD SWAP3 DUP5 AND PUSH1 0x1 PUSH1 0x1 PUSH1 0xA0 SHL SUB NOT SWAP4 DUP5 AND OR SWAP1 SSTORE PUSH1 0x7 DUP1 SLOAD SWAP2 SWAP1 SWAP4 AND SWAP1 DUP3 AND DUP2 OR SWAP1 SWAP3 SSTORE PUSH1 0x9 DUP1 SLOAD SWAP1 SWAP2 AND SWAP1 SWAP2 OR SWAP1 SSTORE PUSH3 0x1E9 JUMP JUMPDEST PUSH1 0x1 DUP1 SLOAD PUSH1 0x1 PUSH1 0x1 PUSH1 0xA0 SHL SUB DUP4 DUP2 AND PUSH1 0x1 PUSH1 0x1 PUSH1 0xA0 SHL SUB NOT DUP4 AND DUP2 OR SWAP1 SWAP4 SSTORE PUSH1 0x40 MLOAD SWAP2 AND SWAP2 SWAP1 DUP3 SWAP1 PUSH32 0x8BE0079C531659141344CD1FD0A4F28419497F9722A3DAAFE3B4186F6B6457E0 SWAP1 PUSH1 0x0 SWAP1 LOG3 POP POP JUMP JUMPDEST PUSH1 0x0 DUP1 PUSH1 0x0 PUSH1 0x60 DUP5 DUP7 SUB SLT ISZERO PUSH3 0x192 JUMPI PUSH1 0x0 DUP1 REVERT JUMPDEST DUP4 MLOAD PUSH3 0x19F DUP2 PUSH3 0x1D0 JUMP JUMPDEST PUSH1 0x20 DUP6 ADD MLOAD SWAP1 SWAP4 POP PUSH3 0x1B2 DUP2 PUSH3 0x1D0 JUMP JUMPDEST PUSH1 0x40 DUP6 ADD MLOAD SWAP1 SWAP3 POP PUSH3 0x1C5 DUP2 PUSH3 0x1D0 JUMP JUMPDEST DUP1 SWAP2 POP POP SWAP3 POP SWAP3 POP SWAP3 JUMP JUMPDEST PUSH1 0x1 PUSH1 0x1 PUSH1 0xA0 SHL SUB DUP2 AND DUP2 EQ PUSH3 0x1E6 JUMPI PUSH1 0x0 DUP1 REVERT JUMPDEST POP JUMP JUMPDEST PUSH1 0x80 MLOAD PUSH1 0x60 SHR PUSH1 0xA0 MLOAD PUSH1 0x60 SHR PUSH2 0x21C2 PUSH3 0x223 PUSH1 0x0 CODECOPY PUSH1 0x0 DUP2 DUP2 PUSH2 0xB24 ADD MSTORE PUSH2 0x1296 ADD MSTORE PUSH1 0x0 DUP2 DUP2 PUSH2 0xE60 ADD MSTORE PUSH2 0x1267 ADD MSTORE PUSH2 0x21C2 PUSH1 0x0 RETURN INVALID PUSH1 0x80 PUSH1 0x40 MSTORE CALLVALUE DUP1 ISZERO PUSH2 0x10 JUMPI PUSH1 0x0 DUP1 REVERT JUMPDEST POP PUSH1 0x4 CALLDATASIZE LT PUSH2 0x1E5 JUMPI PUSH1 0x0 CALLDATALOAD PUSH1 0xE0 SHR DUP1 PUSH4 0x715018A6 GT PUSH2 0x10F JUMPI DUP1 PUSH4 0xC84DABCF GT PUSH2 0xA2 JUMPI DUP1 PUSH4 0xF2FDE38B GT PUSH2 0x71 JUMPI DUP1 PUSH4 0xF2FDE38B EQ PUSH2 0x431 JUMPI DUP1 PUSH4 0xF468A089 EQ PUSH2 0x444 JUMPI DUP1 PUSH4 0xFBEC6F21 EQ PUSH2 0x457 JUMPI DUP1 PUSH4 0xFD026AEF EQ PUSH2 0x46F JUMPI PUSH1 0x0 DUP1 REVERT JUMPDEST DUP1 PUSH4 0xC84DABCF EQ PUSH2 0x3EF JUMPI DUP1 PUSH4 0xDDCA3F43 EQ PUSH2 0x402 JUMPI DUP1 PUSH4 0xE3A9DB1A EQ PUSH2 0x40B JUMPI DUP1 PUSH4 0xE96FA395 EQ PUSH2 0x41E JUMPI PUSH1 0x0 DUP1 REVERT JUMPDEST DUP1 PUSH4 0x99E987D9 GT PUSH2 0xDE JUMPI DUP1 PUSH4 0x99E987D9 EQ PUSH2 0x395 JUMPI DUP1 PUSH4 0xAB60FFDA EQ PUSH2 0x39E JUMPI DUP1 PUSH4 0xB343AE14 EQ PUSH2 0x3B1 JUMPI DUP1 PUSH4 0xC3B86B13 EQ PUSH2 0x3DC JUMPI PUSH1 0x0 DUP1 REVERT JUMPDEST DUP1 PUSH4 0x715018A6 EQ PUSH2 0x342 JUMPI DUP1 PUSH4 0x8DA5CB5B EQ PUSH2 0x34A JUMPI DUP1 PUSH4 0x94985DDD EQ PUSH2 0x36F JUMPI DUP1 PUSH4 0x983D95CE EQ PUSH2 0x382 JUMPI PUSH1 0x0 DUP1 REVERT JUMPDEST DUP1 PUSH4 0x4665096D GT PUSH2 0x187 JUMPI DUP1 PUSH4 0x598B8E71 GT PUSH2 0x156 JUMPI DUP1 PUSH4 0x598B8E71 EQ PUSH2 0x2F6 JUMPI DUP1 PUSH4 0x5EAC6239 EQ PUSH2 0x309 JUMPI DUP1 PUSH4 0x69FE0E2D EQ PUSH2 0x31C JUMPI DUP1 PUSH4 0x6C074E02 EQ PUSH2 0x32F JUMPI PUSH1 0x0 DUP1 REVERT JUMPDEST DUP1 PUSH4 0x4665096D EQ PUSH2 0x2BE JUMPI DUP1 PUSH4 0x49DF728C EQ PUSH2 0x2C7 JUMPI DUP1 PUSH4 0x4E077AA2 EQ PUSH2 0x2DA JUMPI DUP1 PUSH4 0x515A20BA EQ PUSH2 0x2E3 JUMPI PUSH1 0x0 DUP1 REVERT JUMPDEST DUP1 PUSH4 0x1F2698AB GT PUSH2 0x1C3 JUMPI DUP1 PUSH4 0x1F2698AB EQ PUSH2 0x27A JUMPI DUP1 PUSH4 0x2C4E722E EQ PUSH2 0x297 JUMPI DUP1 PUSH4 0x34FCF437 EQ PUSH2 0x2A0 JUMPI DUP1 PUSH4 0x3646A87E EQ PUSH2 0x2B5 JUMPI PUSH1 0x0 DUP1 REVERT JUMPDEST DUP1 PUSH4 0x1BD7EC6 EQ PUSH2 0x1EA JUMPI DUP1 PUSH4 0x68C526F EQ PUSH2 0x239 JUMPI DUP1 PUSH4 0x1852E8D9 EQ PUSH2 0x259 JUMPI JUMPDEST PUSH1 0x0 DUP1 REVERT JUMPDEST PUSH2 0x219 PUSH2 0x1F8 CALLDATASIZE PUSH1 0x4 PUSH2 0x1EC6 JUMP JUMPDEST PUSH1 0x10 PUSH1 0x20 MSTORE PUSH1 0x0 SWAP1 DUP2 MSTORE PUSH1 0x40 SWAP1 KECCAK256 DUP1 SLOAD PUSH1 0x1 DUP3 ADD SLOAD PUSH1 0x2 SWAP1 SWAP3 ADD SLOAD SWAP1 SWAP2 SWAP1 DUP4 JUMP JUMPDEST PUSH1 0x40 DUP1 MLOAD SWAP4 DUP5 MSTORE PUSH1 0x20 DUP5 ADD SWAP3 SWAP1 SWAP3 MSTORE SWAP1 DUP3 ADD MSTORE PUSH1 0x60 ADD JUMPDEST PUSH1 0x40 MLOAD DUP1 SWAP2 SUB SWAP1 RETURN JUMPDEST PUSH2 0x24C PUSH2 0x247 CALLDATASIZE PUSH1 0x4 PUSH2 0x1CEF JUMP JUMPDEST PUSH2 0x478 JUMP JUMPDEST PUSH1 0x40 MLOAD PUSH2 0x230 SWAP2 SWAP1 PUSH2 0x1F70 JUMP JUMPDEST PUSH2 0x26C PUSH2 0x267 CALLDATASIZE PUSH1 0x4 PUSH2 0x1DC9 JUMP JUMPDEST PUSH2 0x5B9 JUMP JUMPDEST PUSH1 0x40 MLOAD SWAP1 DUP2 MSTORE PUSH1 0x20 ADD PUSH2 0x230 JUMP JUMPDEST PUSH1 0x6 SLOAD PUSH2 0x287 SWAP1 PUSH1 0xFF AND DUP2 JUMP JUMPDEST PUSH1 0x40 MLOAD SWAP1 ISZERO ISZERO DUP2 MSTORE PUSH1 0x20 ADD PUSH2 0x230 JUMP JUMPDEST PUSH2 0x26C PUSH1 0xE SLOAD DUP2 JUMP JUMPDEST PUSH2 0x2B3 PUSH2 0x2AE CALLDATASIZE PUSH1 0x4 PUSH2 0x1EC6 JUMP JUMPDEST PUSH2 0x6BB JUMP JUMPDEST STOP JUMPDEST PUSH2 0x26C PUSH1 0x4 SLOAD DUP2 JUMP JUMPDEST PUSH2 0x26C PUSH1 0xF SLOAD DUP2 JUMP JUMPDEST PUSH2 0x2B3 PUSH2 0x2D5 CALLDATASIZE PUSH1 0x4 PUSH2 0x1CB5 JUMP JUMPDEST PUSH2 0x6EA JUMP JUMPDEST PUSH2 0x26C PUSH1 0x2 SLOAD DUP2 JUMP JUMPDEST PUSH2 0x2B3 PUSH2 0x2F1 CALLDATASIZE PUSH1 0x4 PUSH2 0x1EC6 JUMP JUMPDEST PUSH2 0x7B4 JUMP JUMPDEST PUSH2 0x2B3 PUSH2 0x304 CALLDATASIZE PUSH1 0x4 PUSH2 0x1DF5 JUMP JUMPDEST PUSH2 0x7EE JUMP JUMPDEST PUSH2 0x2B3 PUSH2 0x317 CALLDATASIZE PUSH1 0x4 PUSH2 0x1DF5 JUMP JUMPDEST PUSH2 0x8E2 JUMP JUMPDEST PUSH2 0x2B3 PUSH2 0x32A CALLDATASIZE PUSH1 0x4 PUSH2 0x1EC6 JUMP JUMPDEST PUSH2 0x9EF JUMP JUMPDEST PUSH2 0x2B3 PUSH2 0x33D CALLDATASIZE PUSH1 0x4 PUSH2 0x1EA4 JUMP JUMPDEST PUSH2 0xA1E JUMP JUMPDEST PUSH2 0x2B3 PUSH2 0xAE3 JUMP JUMPDEST PUSH1 0x1 SLOAD PUSH1 0x1 PUSH1 0x1 PUSH1 0xA0 SHL SUB AND JUMPDEST PUSH1 0x40 MLOAD PUSH1 0x1 PUSH1 0x1 PUSH1 0xA0 SHL SUB SWAP1 SWAP2 AND DUP2 MSTORE PUSH1 0x20 ADD PUSH2 0x230 JUMP JUMPDEST PUSH2 0x2B3 PUSH2 0x37D CALLDATASIZE PUSH1 0x4 PUSH2 0x1EA4 JUMP JUMPDEST PUSH2 0xB19 JUMP JUMPDEST PUSH2 0x2B3 PUSH2 0x390 CALLDATASIZE PUSH1 0x4 PUSH2 0x1DF5 JUMP JUMPDEST PUSH2 0xB9F JUMP JUMPDEST PUSH2 0x26C PUSH1 0x5 SLOAD DUP2 JUMP JUMPDEST PUSH1 0x7 SLOAD PUSH2 0x357 SWAP1 PUSH1 0x1 PUSH1 0x1 PUSH1 0xA0 SHL SUB AND DUP2 JUMP JUMPDEST PUSH2 0x26C PUSH2 0x3BF CALLDATASIZE PUSH1 0x4 PUSH2 0x1DC9 JUMP JUMPDEST PUSH1 0xD PUSH1 0x20 SWAP1 DUP2 MSTORE PUSH1 0x0 SWAP3 DUP4 MSTORE PUSH1 0x40 DUP1 DUP5 KECCAK256 SWAP1 SWAP2 MSTORE SWAP1 DUP3 MSTORE SWAP1 KECCAK256 SLOAD DUP2 JUMP JUMPDEST PUSH2 0x287 PUSH2 0x3EA CALLDATASIZE PUSH1 0x4 PUSH2 0x1EC6 JUMP JUMPDEST PUSH2 0xD0E JUMP JUMPDEST PUSH2 0x2B3 PUSH2 0x3FD CALLDATASIZE PUSH1 0x4 PUSH2 0x1E6A JUMP JUMPDEST PUSH2 0xFA2 JUMP JUMPDEST PUSH2 0x26C PUSH1 0xB SLOAD DUP2 JUMP JUMPDEST PUSH2 0x24C PUSH2 0x419 CALLDATASIZE PUSH1 0x4 PUSH2 0x1CB5 JUMP JUMPDEST PUSH2 0xFDF JUMP JUMPDEST PUSH1 0x9 SLOAD PUSH2 0x357 SWAP1 PUSH1 0x1 PUSH1 0x1 PUSH1 0xA0 SHL SUB AND DUP2 JUMP JUMPDEST PUSH2 0x2B3 PUSH2 0x43F CALLDATASIZE PUSH1 0x4 PUSH2 0x1CB5 JUMP JUMPDEST PUSH2 0x109B JUMP JUMPDEST PUSH1 0x8 SLOAD PUSH2 0x357 SWAP1 PUSH1 0x1 PUSH1 0x1 PUSH1 0xA0 SHL SUB AND DUP2 JUMP JUMPDEST PUSH1 0x6 SLOAD PUSH2 0x357 SWAP1 PUSH2 0x100 SWAP1 DIV PUSH1 0x1 PUSH1 0x1 PUSH1 0xA0 SHL SUB AND DUP2 JUMP JUMPDEST PUSH2 0x26C PUSH1 0x3 SLOAD DUP2 JUMP JUMPDEST PUSH1 0x60 DUP2 MLOAD PUSH8 0xFFFFFFFFFFFFFFFF DUP2 GT ISZERO PUSH2 0x494 JUMPI PUSH2 0x494 PUSH2 0x2153 JUMP JUMPDEST PUSH1 0x40 MLOAD SWAP1 DUP1 DUP3 MSTORE DUP1 PUSH1 0x20 MUL PUSH1 0x20 ADD DUP3 ADD PUSH1 0x40 MSTORE DUP1 ISZERO PUSH2 0x4BD JUMPI DUP2 PUSH1 0x20 ADD PUSH1 0x20 DUP3 MUL DUP1 CALLDATASIZE DUP4 CALLDATACOPY ADD SWAP1 POP JUMPDEST POP SWAP1 POP PUSH1 0x0 JUMPDEST DUP3 MLOAD DUP2 LT ISZERO PUSH2 0x5B1 JUMPI PUSH1 0x0 DUP4 DUP3 DUP2 MLOAD DUP2 LT PUSH2 0x4E0 JUMPI PUSH2 0x4E0 PUSH2 0x213D JUMP JUMPDEST PUSH1 0x20 MUL PUSH1 0x20 ADD ADD MLOAD SWAP1 POP PUSH1 0xD PUSH1 0x0 DUP7 PUSH1 0x1 PUSH1 0x1 PUSH1 0xA0 SHL SUB AND PUSH1 0x1 PUSH1 0x1 PUSH1 0xA0 SHL SUB AND DUP2 MSTORE PUSH1 0x20 ADD SWAP1 DUP2 MSTORE PUSH1 0x20 ADD PUSH1 0x0 KECCAK256 PUSH1 0x0 DUP3 DUP2 MSTORE PUSH1 0x20 ADD SWAP1 DUP2 MSTORE PUSH1 0x20 ADD PUSH1 0x0 KECCAK256 SLOAD PUSH2 0x52D NUMBER PUSH1 0xF SLOAD PUSH2 0x1133 JUMP JUMPDEST PUSH2 0x537 SWAP2 SWAP1 PUSH2 0x2089 JUMP JUMPDEST PUSH1 0x1 PUSH1 0x1 PUSH1 0xA0 SHL SUB DUP7 AND PUSH1 0x0 SWAP1 DUP2 MSTORE PUSH1 0xC PUSH1 0x20 MSTORE PUSH1 0x40 SWAP1 KECCAK256 PUSH2 0x559 SWAP1 DUP4 PUSH2 0x1149 JUMP JUMPDEST PUSH2 0x564 JUMPI PUSH1 0x0 PUSH2 0x567 JUMP JUMPDEST PUSH1 0x1 JUMPDEST PUSH1 0xFF AND PUSH1 0xE SLOAD PUSH2 0x577 SWAP2 SWAP1 PUSH2 0x206A JUMP JUMPDEST PUSH2 0x581 SWAP2 SWAP1 PUSH2 0x206A JUMP JUMPDEST DUP4 DUP4 DUP2 MLOAD DUP2 LT PUSH2 0x593 JUMPI PUSH2 0x593 PUSH2 0x213D JUMP JUMPDEST PUSH1 0x20 SWAP1 DUP2 MUL SWAP2 SWAP1 SWAP2 ADD ADD MSTORE POP DUP1 PUSH2 0x5A9 DUP2 PUSH2 0x20CC JUMP JUMPDEST SWAP2 POP POP PUSH2 0x4C3 JUMP JUMPDEST POP JUMPDEST SWAP3 SWAP2 POP POP JUMP JUMPDEST PUSH1 0x1 PUSH1 0x1 PUSH1 0xA0 SHL SUB DUP3 AND PUSH1 0x0 SWAP1 DUP2 MSTORE PUSH1 0xD PUSH1 0x20 SWAP1 DUP2 MSTORE PUSH1 0x40 DUP1 DUP4 KECCAK256 DUP5 DUP5 MSTORE SWAP1 SWAP2 MSTORE DUP2 KECCAK256 SLOAD PUSH1 0xF SLOAD PUSH2 0x5EB SWAP1 NUMBER SWAP1 PUSH2 0x1133 JUMP JUMPDEST GT PUSH2 0x62E JUMPI PUSH1 0x40 MLOAD PUSH3 0x461BCD PUSH1 0xE5 SHL DUP2 MSTORE PUSH1 0x20 PUSH1 0x4 DUP3 ADD MSTORE PUSH1 0xE PUSH1 0x24 DUP3 ADD MSTORE PUSH14 0x496E76616C696420626C6F636B73 PUSH1 0x90 SHL PUSH1 0x44 DUP3 ADD MSTORE PUSH1 0x64 ADD JUMPDEST PUSH1 0x40 MLOAD DUP1 SWAP2 SUB SWAP1 REVERT JUMPDEST PUSH1 0x1 PUSH1 0x1 PUSH1 0xA0 SHL SUB DUP4 AND PUSH1 0x0 SWAP1 DUP2 MSTORE PUSH1 0xD PUSH1 0x20 SWAP1 DUP2 MSTORE PUSH1 0x40 DUP1 DUP4 KECCAK256 DUP6 DUP5 MSTORE SWAP1 SWAP2 MSTORE SWAP1 KECCAK256 SLOAD PUSH1 0xF SLOAD PUSH2 0x660 SWAP1 NUMBER SWAP1 PUSH2 0x1133 JUMP JUMPDEST PUSH2 0x66A SWAP2 SWAP1 PUSH2 0x2089 JUMP JUMPDEST PUSH1 0x1 PUSH1 0x1 PUSH1 0xA0 SHL SUB DUP5 AND PUSH1 0x0 SWAP1 DUP2 MSTORE PUSH1 0xC PUSH1 0x20 MSTORE PUSH1 0x40 SWAP1 KECCAK256 PUSH2 0x68C SWAP1 DUP5 PUSH2 0x1149 JUMP JUMPDEST PUSH2 0x697 JUMPI PUSH1 0x0 PUSH2 0x69A JUMP JUMPDEST PUSH1 0x1 JUMPDEST PUSH1 0xFF AND PUSH1 0xE SLOAD PUSH2 0x6AA SWAP2 SWAP1 PUSH2 0x206A JUMP JUMPDEST PUSH2 0x6B4 SWAP2 SWAP1 PUSH2 0x206A JUMP JUMPDEST SWAP4 SWAP3 POP POP POP JUMP JUMPDEST PUSH1 0x1 SLOAD PUSH1 0x1 PUSH1 0x1 PUSH1 0xA0 SHL SUB AND CALLER EQ PUSH2 0x6E5 JUMPI PUSH1 0x40 MLOAD PUSH3 0x461BCD PUSH1 0xE5 SHL DUP2 MSTORE PUSH1 0x4 ADD PUSH2 0x625 SWAP1 PUSH2 0x1FC7 JUMP JUMPDEST PUSH1 0xE SSTORE JUMP JUMPDEST PUSH1 0x1 SLOAD PUSH1 0x1 PUSH1 0x1 PUSH1 0xA0 SHL SUB AND CALLER EQ PUSH2 0x714 JUMPI PUSH1 0x40 MLOAD PUSH3 0x461BCD PUSH1 0xE5 SHL DUP2 MSTORE PUSH1 0x4 ADD PUSH2 0x625 SWAP1 PUSH2 0x1FC7 JUMP JUMPDEST PUSH2 0x7B1 PUSH2 0x729 PUSH1 0x1 SLOAD PUSH1 0x1 PUSH1 0x1 PUSH1 0xA0 SHL SUB AND SWAP1 JUMP JUMPDEST PUSH1 0x40 MLOAD PUSH4 0x70A08231 PUSH1 0xE0 SHL DUP2 MSTORE ADDRESS PUSH1 0x4 DUP3 ADD MSTORE PUSH1 0x1 PUSH1 0x1 PUSH1 0xA0 SHL SUB DUP5 AND SWAP1 PUSH4 0x70A08231 SWAP1 PUSH1 0x24 ADD PUSH1 0x20 PUSH1 0x40 MLOAD DUP1 DUP4 SUB DUP2 DUP7 DUP1 EXTCODESIZE ISZERO DUP1 ISZERO PUSH2 0x768 JUMPI PUSH1 0x0 DUP1 REVERT JUMPDEST POP GAS STATICCALL ISZERO DUP1 ISZERO PUSH2 0x77C JUMPI RETURNDATASIZE PUSH1 0x0 DUP1 RETURNDATACOPY RETURNDATASIZE PUSH1 0x0 REVERT JUMPDEST POP POP POP POP PUSH1 0x40 MLOAD RETURNDATASIZE PUSH1 0x1F NOT PUSH1 0x1F DUP3 ADD AND DUP3 ADD DUP1 PUSH1 0x40 MSTORE POP DUP2 ADD SWAP1 PUSH2 0x7A0 SWAP2 SWAP1 PUSH2 0x1EDF JUMP JUMPDEST PUSH1 0x1 PUSH1 0x1 PUSH1 0xA0 SHL SUB DUP5 AND SWAP2 SWAP1 PUSH2 0x1161 JUMP JUMPDEST POP JUMP JUMPDEST PUSH1 0x1 SLOAD PUSH1 0x1 PUSH1 0x1 PUSH1 0xA0 SHL SUB AND CALLER EQ PUSH2 0x7DE JUMPI PUSH1 0x40 MLOAD PUSH3 0x461BCD PUSH1 0xE5 SHL DUP2 MSTORE PUSH1 0x4 ADD PUSH2 0x625 SWAP1 PUSH2 0x1FC7 JUMP JUMPDEST PUSH2 0x7E8 DUP2 NUMBER PUSH2 0x203E JUMP JUMPDEST PUSH1 0xF SSTORE POP JUMP JUMPDEST PUSH2 0x7F8 DUP3 DUP3 PUSH2 0x8E2 JUMP JUMPDEST PUSH1 0x0 JUMPDEST DUP2 DUP2 LT ISZERO PUSH2 0x8DD JUMPI PUSH1 0x8 SLOAD PUSH1 0x1 PUSH1 0x1 PUSH1 0xA0 SHL SUB AND PUSH4 0x20D1FC62 CALLER ADDRESS DUP7 DUP7 DUP7 DUP2 DUP2 LT PUSH2 0x828 JUMPI PUSH2 0x828 PUSH2 0x213D JUMP JUMPDEST PUSH1 0x40 MLOAD PUSH1 0x1 PUSH1 0x1 PUSH1 0xE0 SHL SUB NOT PUSH1 0xE0 DUP9 SWAP1 SHL AND DUP2 MSTORE PUSH1 0x1 PUSH1 0x1 PUSH1 0xA0 SHL SUB SWAP6 DUP7 AND PUSH1 0x4 DUP3 ADD MSTORE SWAP5 SWAP1 SWAP4 AND PUSH1 0x24 DUP6 ADD MSTORE POP PUSH1 0x20 SWAP1 SWAP2 MUL ADD CALLDATALOAD PUSH1 0x44 DUP3 ADD MSTORE PUSH1 0x64 ADD PUSH1 0x0 PUSH1 0x40 MLOAD DUP1 DUP4 SUB DUP2 PUSH1 0x0 DUP8 DUP1 EXTCODESIZE ISZERO DUP1 ISZERO PUSH2 0x87F JUMPI PUSH1 0x0 DUP1 REVERT JUMPDEST POP GAS CALL ISZERO DUP1 ISZERO PUSH2 0x893 JUMPI RETURNDATASIZE PUSH1 0x0 DUP1 RETURNDATACOPY RETURNDATASIZE PUSH1 0x0 REVERT JUMPDEST POP POP POP POP PUSH2 0x8CA DUP4 DUP4 DUP4 DUP2 DUP2 LT PUSH2 0x8AC JUMPI PUSH2 0x8AC PUSH2 0x213D JUMP JUMPDEST CALLER PUSH1 0x0 SWAP1 DUP2 MSTORE PUSH1 0xC PUSH1 0x20 SWAP1 DUP2 MSTORE PUSH1 0x40 SWAP1 SWAP2 KECCAK256 SWAP4 SWAP2 MUL ADD CALLDATALOAD SWAP1 POP PUSH2 0x11B3 JUMP JUMPDEST POP DUP1 PUSH2 0x8D5 DUP2 PUSH2 0x20CC JUMP JUMPDEST SWAP2 POP POP PUSH2 0x7FB JUMP JUMPDEST POP POP POP JUMP JUMPDEST PUSH1 0x0 DUP1 PUSH2 0x8F1 NUMBER PUSH1 0xF SLOAD PUSH2 0x1133 JUMP JUMPDEST SWAP1 POP PUSH1 0x0 JUMPDEST DUP4 DUP2 LT ISZERO PUSH2 0x97D JUMPI PUSH2 0x920 CALLER DUP7 DUP7 DUP5 DUP2 DUP2 LT PUSH2 0x914 JUMPI PUSH2 0x914 PUSH2 0x213D JUMP JUMPDEST SWAP1 POP PUSH1 0x20 MUL ADD CALLDATALOAD PUSH2 0x5B9 JUMP JUMPDEST PUSH2 0x92A SWAP1 DUP5 PUSH2 0x203E JUMP JUMPDEST CALLER PUSH1 0x0 SWAP1 DUP2 MSTORE PUSH1 0xD PUSH1 0x20 MSTORE PUSH1 0x40 DUP2 KECCAK256 SWAP2 SWAP5 POP DUP4 SWAP2 SWAP1 DUP8 DUP8 DUP6 DUP2 DUP2 LT PUSH2 0x951 JUMPI PUSH2 0x951 PUSH2 0x213D JUMP JUMPDEST SWAP1 POP PUSH1 0x20 MUL ADD CALLDATALOAD DUP2 MSTORE PUSH1 0x20 ADD SWAP1 DUP2 MSTORE PUSH1 0x20 ADD PUSH1 0x0 KECCAK256 DUP2 SWAP1 SSTORE POP DUP1 DUP1 PUSH2 0x975 SWAP1 PUSH2 0x20CC JUMP JUMPDEST SWAP2 POP POP PUSH2 0x8F6 JUMP JUMPDEST POP DUP2 ISZERO PUSH2 0x9E9 JUMPI PUSH1 0x9 SLOAD PUSH1 0x40 MLOAD PUSH4 0x40C10F19 PUSH1 0xE0 SHL DUP2 MSTORE CALLER PUSH1 0x4 DUP3 ADD MSTORE PUSH1 0x24 DUP2 ADD DUP5 SWAP1 MSTORE PUSH1 0x1 PUSH1 0x1 PUSH1 0xA0 SHL SUB SWAP1 SWAP2 AND SWAP1 PUSH4 0x40C10F19 SWAP1 PUSH1 0x44 ADD PUSH1 0x0 PUSH1 0x40 MLOAD DUP1 DUP4 SUB DUP2 PUSH1 0x0 DUP8 DUP1 EXTCODESIZE ISZERO DUP1 ISZERO PUSH2 0x9D0 JUMPI PUSH1 0x0 DUP1 REVERT JUMPDEST POP GAS CALL ISZERO DUP1 ISZERO PUSH2 0x9E4 JUMPI RETURNDATASIZE PUSH1 0x0 DUP1 RETURNDATACOPY RETURNDATASIZE PUSH1 0x0 REVERT JUMPDEST POP POP POP POP JUMPDEST POP POP POP POP JUMP JUMPDEST PUSH1 0x1 SLOAD PUSH1 0x1 PUSH1 0x1 PUSH1 0xA0 SHL SUB AND CALLER EQ PUSH2 0xA19 JUMPI PUSH1 0x40 MLOAD PUSH3 0x461BCD PUSH1 0xE5 SHL DUP2 MSTORE PUSH1 0x4 ADD PUSH2 0x625 SWAP1 PUSH2 0x1FC7 JUMP JUMPDEST PUSH1 0xB SSTORE JUMP JUMPDEST PUSH1 0x0 DUP2 PUSH1 0x1 EQ ISZERO PUSH2 0xA3A JUMPI POP PUSH1 0x0 DUP3 DUP2 MSTORE PUSH1 0x10 PUSH1 0x20 MSTORE PUSH1 0x40 SWAP1 KECCAK256 SLOAD JUMPDEST DUP2 PUSH1 0x2 EQ ISZERO PUSH2 0xA57 JUMPI POP PUSH1 0x0 DUP3 DUP2 MSTORE PUSH1 0x10 PUSH1 0x20 MSTORE PUSH1 0x40 SWAP1 KECCAK256 PUSH1 0x1 ADD SLOAD JUMPDEST DUP2 PUSH1 0x3 EQ ISZERO PUSH2 0xA74 JUMPI POP PUSH1 0x0 DUP3 DUP2 MSTORE PUSH1 0x10 PUSH1 0x20 MSTORE PUSH1 0x40 SWAP1 KECCAK256 PUSH1 0x2 ADD SLOAD JUMPDEST PUSH1 0x5 DUP2 LT PUSH2 0xAB2 JUMPI PUSH1 0x40 MLOAD PUSH3 0x461BCD PUSH1 0xE5 SHL DUP2 MSTORE PUSH1 0x20 PUSH1 0x4 DUP3 ADD MSTORE PUSH1 0xB PUSH1 0x24 DUP3 ADD MSTORE PUSH11 0x1CDADA5B1B081B585E1959 PUSH1 0xAA SHL PUSH1 0x44 DUP3 ADD MSTORE PUSH1 0x64 ADD PUSH2 0x625 JUMP JUMPDEST PUSH1 0x7 SLOAD PUSH2 0xAD2 SWAP1 PUSH1 0x1 PUSH1 0x1 PUSH1 0xA0 SHL SUB AND ADDRESS PUSH9 0x1158E460913D00000 PUSH2 0x1161 JUMP JUMPDEST DUP1 PUSH2 0xADC DUP2 PUSH2 0x20CC JUMP JUMPDEST POP POP POP POP POP JUMP JUMPDEST PUSH1 0x1 SLOAD PUSH1 0x1 PUSH1 0x1 PUSH1 0xA0 SHL SUB AND CALLER EQ PUSH2 0xB0D JUMPI PUSH1 0x40 MLOAD PUSH3 0x461BCD PUSH1 0xE5 SHL DUP2 MSTORE PUSH1 0x4 ADD PUSH2 0x625 SWAP1 PUSH2 0x1FC7 JUMP JUMPDEST PUSH2 0xB17 PUSH1 0x0 PUSH2 0x11BF JUMP JUMPDEST JUMP JUMPDEST CALLER PUSH1 0x1 PUSH1 0x1 PUSH1 0xA0 SHL SUB PUSH32 0x0 AND EQ PUSH2 0xB91 JUMPI PUSH1 0x40 MLOAD PUSH3 0x461BCD PUSH1 0xE5 SHL DUP2 MSTORE PUSH1 0x20 PUSH1 0x4 DUP3 ADD MSTORE PUSH1 0x1F PUSH1 0x24 DUP3 ADD MSTORE PUSH32 0x4F6E6C7920565246436F6F7264696E61746F722063616E2066756C66696C6C00 PUSH1 0x44 DUP3 ADD MSTORE PUSH1 0x64 ADD PUSH2 0x625 JUMP JUMPDEST PUSH2 0xB9B DUP3 DUP3 PUSH2 0x1211 JUMP JUMPDEST POP POP JUMP JUMPDEST PUSH2 0xBA9 DUP3 DUP3 PUSH2 0x8E2 JUMP JUMPDEST PUSH1 0x0 JUMPDEST DUP2 DUP2 LT ISZERO PUSH2 0x8DD JUMPI PUSH2 0xBE7 DUP4 DUP4 DUP4 DUP2 DUP2 LT PUSH2 0xBC9 JUMPI PUSH2 0xBC9 PUSH2 0x213D JUMP JUMPDEST CALLER PUSH1 0x0 SWAP1 DUP2 MSTORE PUSH1 0xC PUSH1 0x20 SWAP1 DUP2 MSTORE PUSH1 0x40 SWAP1 SWAP2 KECCAK256 SWAP4 SWAP2 MUL ADD CALLDATALOAD SWAP1 POP PUSH2 0x1149 JUMP JUMPDEST PUSH2 0xC33 JUMPI PUSH1 0x40 MLOAD PUSH3 0x461BCD PUSH1 0xE5 SHL DUP2 MSTORE PUSH1 0x20 PUSH1 0x4 DUP3 ADD MSTORE PUSH1 0x1C PUSH1 0x24 DUP3 ADD MSTORE PUSH32 0x5374616B696E673A20746F6B656E206E6F74206465706F736974656400000000 PUSH1 0x44 DUP3 ADD MSTORE PUSH1 0x64 ADD PUSH2 0x625 JUMP JUMPDEST PUSH2 0xC66 DUP4 DUP4 DUP4 DUP2 DUP2 LT PUSH2 0xC48 JUMPI PUSH2 0xC48 PUSH2 0x213D JUMP JUMPDEST CALLER PUSH1 0x0 SWAP1 DUP2 MSTORE PUSH1 0xC PUSH1 0x20 SWAP1 DUP2 MSTORE PUSH1 0x40 SWAP1 SWAP2 KECCAK256 SWAP4 SWAP2 MUL ADD CALLDATALOAD SWAP1 POP PUSH2 0x1257 JUMP JUMPDEST POP PUSH1 0x8 SLOAD PUSH1 0x1 PUSH1 0x1 PUSH1 0xA0 SHL SUB AND PUSH4 0x20D1FC62 ADDRESS CALLER DUP7 DUP7 DUP7 DUP2 DUP2 LT PUSH2 0xC8C JUMPI PUSH2 0xC8C PUSH2 0x213D JUMP JUMPDEST PUSH1 0x40 MLOAD PUSH1 0x1 PUSH1 0x1 PUSH1 0xE0 SHL SUB NOT PUSH1 0xE0 DUP9 SWAP1 SHL AND DUP2 MSTORE PUSH1 0x1 PUSH1 0x1 PUSH1 0xA0 SHL SUB SWAP6 DUP7 AND PUSH1 0x4 DUP3 ADD MSTORE SWAP5 SWAP1 SWAP4 AND PUSH1 0x24 DUP6 ADD MSTORE POP PUSH1 0x20 SWAP1 SWAP2 MUL ADD CALLDATALOAD PUSH1 0x44 DUP3 ADD MSTORE PUSH1 0x64 ADD PUSH1 0x0 PUSH1 0x40 MLOAD DUP1 DUP4 SUB DUP2 PUSH1 0x0 DUP8 DUP1 EXTCODESIZE ISZERO DUP1 ISZERO PUSH2 0xCE3 JUMPI PUSH1 0x0 DUP1 REVERT JUMPDEST POP GAS CALL ISZERO DUP1 ISZERO PUSH2 0xCF7 JUMPI RETURNDATASIZE PUSH1 0x0 DUP1 RETURNDATACOPY RETURNDATASIZE PUSH1 0x0 REVERT JUMPDEST POP POP POP POP DUP1 DUP1 PUSH2 0xD06 SWAP1 PUSH2 0x20CC JUMP JUMPDEST SWAP2 POP POP PUSH2 0xBAC JUMP JUMPDEST PUSH1 0x0 CALLER PUSH1 0x8 SLOAD PUSH1 0x40 MLOAD PUSH4 0x31A9108F PUSH1 0xE1 SHL DUP2 MSTORE PUSH1 0x4 DUP2 ADD DUP6 SWAP1 MSTORE PUSH1 0x1 PUSH1 0x1 PUSH1 0xA0 SHL SUB SWAP3 DUP4 AND SWAP3 SWAP1 SWAP2 AND SWAP1 PUSH4 0x6352211E SWAP1 PUSH1 0x24 ADD PUSH1 0x20 PUSH1 0x40 MLOAD DUP1 DUP4 SUB DUP2 DUP7 DUP1 EXTCODESIZE ISZERO DUP1 ISZERO PUSH2 0xD59 JUMPI PUSH1 0x0 DUP1 REVERT JUMPDEST POP GAS STATICCALL ISZERO DUP1 ISZERO PUSH2 0xD6D JUMPI RETURNDATASIZE PUSH1 0x0 DUP1 RETURNDATACOPY RETURNDATASIZE PUSH1 0x0 REVERT JUMPDEST POP POP POP POP PUSH1 0x40 MLOAD RETURNDATASIZE PUSH1 0x1F NOT PUSH1 0x1F DUP3 ADD AND DUP3 ADD DUP1 PUSH1 0x40 MSTORE POP DUP2 ADD SWAP1 PUSH2 0xD91 SWAP2 SWAP1 PUSH2 0x1CD2 JUMP JUMPDEST PUSH1 0x1 PUSH1 0x1 PUSH1 0xA0 SHL SUB AND EQ PUSH2 0xDB7 JUMPI PUSH1 0x40 MLOAD PUSH3 0x461BCD PUSH1 0xE5 SHL DUP2 MSTORE PUSH1 0x4 ADD PUSH2 0x625 SWAP1 PUSH2 0x1FFC JUMP JUMPDEST PUSH2 0x4E20 DUP3 LT PUSH2 0xDFF JUMPI PUSH1 0x40 MLOAD PUSH3 0x461BCD PUSH1 0xE5 SHL DUP2 MSTORE PUSH1 0x20 PUSH1 0x4 DUP3 ADD MSTORE PUSH1 0x14 PUSH1 0x24 DUP3 ADD MSTORE PUSH20 0x4D75737420626520756E6465722032302C30303 PUSH1 0x64 SHL PUSH1 0x44 DUP3 ADD MSTORE PUSH1 0x64 ADD PUSH2 0x625 JUMP JUMPDEST PUSH1 0x6 SLOAD PUSH1 0xFF AND PUSH2 0xE48 JUMPI PUSH1 0x40 MLOAD PUSH3 0x461BCD PUSH1 0xE5 SHL DUP2 MSTORE PUSH1 0x20 PUSH1 0x4 DUP3 ADD MSTORE PUSH1 0x14 PUSH1 0x24 DUP3 ADD MSTORE PUSH20 0x223AB733B2B7B7103737BA1039BA30B93A32B217 PUSH1 0x61 SHL PUSH1 0x44 DUP3 ADD MSTORE PUSH1 0x64 ADD PUSH2 0x625 JUMP JUMPDEST PUSH1 0xB SLOAD PUSH1 0x40 MLOAD PUSH4 0x70A08231 PUSH1 0xE0 SHL DUP2 MSTORE ADDRESS PUSH1 0x4 DUP3 ADD MSTORE PUSH32 0x0 PUSH1 0x1 PUSH1 0x1 PUSH1 0xA0 SHL SUB AND SWAP1 PUSH4 0x70A08231 SWAP1 PUSH1 0x24 ADD PUSH1 0x20 PUSH1 0x40 MLOAD DUP1 DUP4 SUB DUP2 DUP7 DUP1 EXTCODESIZE ISZERO DUP1 ISZERO PUSH2 0xEAA JUMPI PUSH1 0x0 DUP1 REVERT JUMPDEST POP GAS STATICCALL ISZERO DUP1 ISZERO PUSH2 0xEBE JUMPI RETURNDATASIZE PUSH1 0x0 DUP1 RETURNDATACOPY RETURNDATASIZE PUSH1 0x0 REVERT JUMPDEST POP POP POP POP PUSH1 0x40 MLOAD RETURNDATASIZE PUSH1 0x1F NOT PUSH1 0x1F DUP3 ADD AND DUP3 ADD DUP1 PUSH1 0x40 MSTORE POP DUP2 ADD SWAP1 PUSH2 0xEE2 SWAP2 SWAP1 PUSH2 0x1EDF JUMP JUMPDEST GT PUSH2 0xF43 JUMPI PUSH1 0x40 MLOAD PUSH3 0x461BCD PUSH1 0xE5 SHL DUP2 MSTORE PUSH1 0x20 PUSH1 0x4 DUP3 ADD MSTORE PUSH1 0x2B PUSH1 0x24 DUP3 ADD MSTORE PUSH32 0x4E6F7420656E6F756768204C494E4B202D2066696C6C20636F6E747261637420 PUSH1 0x44 DUP3 ADD MSTORE PUSH11 0x1DDA5D1A0819985D58D95D PUSH1 0xAA SHL PUSH1 0x64 DUP3 ADD MSTORE PUSH1 0x84 ADD PUSH2 0x625 JUMP JUMPDEST PUSH1 0x0 PUSH2 0xF74 PUSH32 0x6E75B569A01EF56D18CAB6A8E71E6600D6CE853834D4A5748B720D06F878B3A4 PUSH1 0x0 SHL PUSH1 0xB SLOAD PUSH2 0x1263 JUMP JUMPDEST PUSH1 0x0 SWAP1 DUP2 MSTORE PUSH1 0xA PUSH1 0x20 MSTORE PUSH1 0x40 SWAP1 KECCAK256 DUP1 SLOAD PUSH1 0x1 PUSH1 0x1 PUSH1 0xA0 SHL SUB NOT AND CALLER OR DUP2 SSTORE PUSH1 0x1 SWAP1 DUP2 ADD SWAP4 SWAP1 SWAP4 SSTORE POP SWAP1 SWAP2 SWAP1 POP JUMP JUMPDEST PUSH1 0x1 SLOAD PUSH1 0x1 PUSH1 0x1 PUSH1 0xA0 SHL SUB AND CALLER EQ PUSH2 0xFCC JUMPI PUSH1 0x40 MLOAD PUSH3 0x461BCD PUSH1 0xE5 SHL DUP2 MSTORE PUSH1 0x4 ADD PUSH2 0x625 SWAP1 PUSH2 0x1FC7 JUMP JUMPDEST PUSH1 0x6 DUP1 SLOAD PUSH1 0xFF NOT AND SWAP2 ISZERO ISZERO SWAP2 SWAP1 SWAP2 OR SWAP1 SSTORE JUMP JUMPDEST PUSH1 0x1 PUSH1 0x1 PUSH1 0xA0 SHL SUB DUP2 AND PUSH1 0x0 SWAP1 DUP2 MSTORE PUSH1 0xC PUSH1 0x20 MSTORE PUSH1 0x40 DUP2 KECCAK256 PUSH1 0x60 SWAP2 PUSH2 0x1003 DUP3 PUSH2 0x13ED JUMP JUMPDEST PUSH8 0xFFFFFFFFFFFFFFFF DUP2 GT ISZERO PUSH2 0x101B JUMPI PUSH2 0x101B PUSH2 0x2153 JUMP JUMPDEST PUSH1 0x40 MLOAD SWAP1 DUP1 DUP3 MSTORE DUP1 PUSH1 0x20 MUL PUSH1 0x20 ADD DUP3 ADD PUSH1 0x40 MSTORE DUP1 ISZERO PUSH2 0x1044 JUMPI DUP2 PUSH1 0x20 ADD PUSH1 0x20 DUP3 MUL DUP1 CALLDATASIZE DUP4 CALLDATACOPY ADD SWAP1 POP JUMPDEST POP SWAP1 POP PUSH1 0x0 JUMPDEST PUSH2 0x1053 DUP4 PUSH2 0x13ED JUMP JUMPDEST DUP2 LT ISZERO PUSH2 0x1093 JUMPI PUSH2 0x1064 DUP4 DUP3 PUSH2 0x13F7 JUMP JUMPDEST DUP3 DUP3 DUP2 MLOAD DUP2 LT PUSH2 0x1076 JUMPI PUSH2 0x1076 PUSH2 0x213D JUMP JUMPDEST PUSH1 0x20 SWAP1 DUP2 MUL SWAP2 SWAP1 SWAP2 ADD ADD MSTORE DUP1 PUSH2 0x108B DUP2 PUSH2 0x20CC JUMP JUMPDEST SWAP2 POP POP PUSH2 0x104A JUMP JUMPDEST POP SWAP4 SWAP3 POP POP POP JUMP JUMPDEST PUSH1 0x1 SLOAD PUSH1 0x1 PUSH1 0x1 PUSH1 0xA0 SHL SUB AND CALLER EQ PUSH2 0x10C5 JUMPI PUSH1 0x40 MLOAD PUSH3 0x461BCD PUSH1 0xE5 SHL DUP2 MSTORE PUSH1 0x4 ADD PUSH2 0x625 SWAP1 PUSH2 0x1FC7 JUMP JUMPDEST PUSH1 0x1 PUSH1 0x1 PUSH1 0xA0 SHL SUB DUP2 AND PUSH2 0x112A JUMPI PUSH1 0x40 MLOAD PUSH3 0x461BCD PUSH1 0xE5 SHL DUP2 MSTORE PUSH1 0x20 PUSH1 0x4 DUP3 ADD MSTORE PUSH1 0x26 PUSH1 0x24 DUP3 ADD MSTORE PUSH32 0x4F776E61626C653A206E6577206F776E657220697320746865207A65726F2061 PUSH1 0x44 DUP3 ADD MSTORE PUSH6 0x646472657373 PUSH1 0xD0 SHL PUSH1 0x64 DUP3 ADD MSTORE PUSH1 0x84 ADD PUSH2 0x625 JUMP JUMPDEST PUSH2 0x7B1 DUP2 PUSH2 0x11BF JUMP JUMPDEST PUSH1 0x0 DUP2 DUP4 LT PUSH2 0x1142 JUMPI DUP2 PUSH2 0x6B4 JUMP JUMPDEST POP SWAP1 SWAP2 SWAP1 POP JUMP JUMPDEST PUSH1 0x0 DUP2 DUP2 MSTORE PUSH1 0x1 DUP4 ADD PUSH1 0x20 MSTORE PUSH1 0x40 DUP2 KECCAK256 SLOAD ISZERO ISZERO PUSH2 0x6B4 JUMP JUMPDEST PUSH1 0x40 DUP1 MLOAD PUSH1 0x1 PUSH1 0x1 PUSH1 0xA0 SHL SUB DUP5 AND PUSH1 0x24 DUP3 ADD MSTORE PUSH1 0x44 DUP1 DUP3 ADD DUP5 SWAP1 MSTORE DUP3 MLOAD DUP1 DUP4 SUB SWAP1 SWAP2 ADD DUP2 MSTORE PUSH1 0x64 SWAP1 SWAP2 ADD SWAP1 SWAP2 MSTORE PUSH1 0x20 DUP2 ADD DUP1 MLOAD PUSH1 0x1 PUSH1 0x1 PUSH1 0xE0 SHL SUB AND PUSH4 0xA9059CBB PUSH1 0xE0 SHL OR SWAP1 MSTORE PUSH2 0x8DD SWAP1 DUP5 SWAP1 PUSH2 0x1403 JUMP JUMPDEST PUSH1 0x0 PUSH2 0x6B4 DUP4 DUP4 PUSH2 0x14D5 JUMP JUMPDEST PUSH1 0x1 DUP1 SLOAD PUSH1 0x1 PUSH1 0x1 PUSH1 0xA0 SHL SUB DUP4 DUP2 AND PUSH1 0x1 PUSH1 0x1 PUSH1 0xA0 SHL SUB NOT DUP4 AND DUP2 OR SWAP1 SWAP4 SSTORE PUSH1 0x40 MLOAD SWAP2 AND SWAP2 SWAP1 DUP3 SWAP1 PUSH32 0x8BE0079C531659141344CD1FD0A4F28419497F9722A3DAAFE3B4186F6B6457E0 SWAP1 PUSH1 0x0 SWAP1 LOG3 POP POP JUMP JUMPDEST PUSH1 0x0 DUP3 DUP2 MSTORE PUSH1 0xA PUSH1 0x20 MSTORE PUSH1 0x40 DUP2 KECCAK256 DUP1 SLOAD PUSH1 0x1 SWAP1 SWAP2 ADD SLOAD PUSH1 0x1 PUSH1 0x1 PUSH1 0xA0 SHL SUB SWAP1 SWAP2 AND SWAP2 PUSH2 0x123F PUSH2 0x3E8 DUP6 PUSH2 0x20E7 JUMP JUMPDEST PUSH2 0x124A SWAP1 PUSH1 0x1 PUSH2 0x203E JUMP JUMPDEST SWAP1 POP PUSH2 0xADC DUP4 DUP4 DUP4 PUSH2 0x1524 JUMP JUMPDEST PUSH1 0x0 PUSH2 0x6B4 DUP4 DUP4 PUSH2 0x19F8 JUMP JUMPDEST PUSH1 0x0 PUSH32 0x0 PUSH1 0x1 PUSH1 0x1 PUSH1 0xA0 SHL SUB AND PUSH4 0x4000AEA0 PUSH32 0x0 DUP5 DUP7 PUSH1 0x0 PUSH1 0x40 MLOAD PUSH1 0x20 ADD PUSH2 0x12D3 SWAP3 SWAP2 SWAP1 SWAP2 DUP3 MSTORE PUSH1 0x20 DUP3 ADD MSTORE PUSH1 0x40 ADD SWAP1 JUMP JUMPDEST PUSH1 0x40 MLOAD PUSH1 0x20 DUP2 DUP4 SUB SUB DUP2 MSTORE SWAP1 PUSH1 0x40 MSTORE PUSH1 0x40 MLOAD DUP5 PUSH4 0xFFFFFFFF AND PUSH1 0xE0 SHL DUP2 MSTORE PUSH1 0x4 ADD PUSH2 0x1300 SWAP4 SWAP3 SWAP2 SWAP1 PUSH2 0x1F40 JUMP JUMPDEST PUSH1 0x20 PUSH1 0x40 MLOAD DUP1 DUP4 SUB DUP2 PUSH1 0x0 DUP8 DUP1 EXTCODESIZE ISZERO DUP1 ISZERO PUSH2 0x131A JUMPI PUSH1 0x0 DUP1 REVERT JUMPDEST POP GAS CALL ISZERO DUP1 ISZERO PUSH2 0x132E JUMPI RETURNDATASIZE PUSH1 0x0 DUP1 RETURNDATACOPY RETURNDATASIZE PUSH1 0x0 REVERT JUMPDEST POP POP POP POP PUSH1 0x40 MLOAD RETURNDATASIZE PUSH1 0x1F NOT PUSH1 0x1F DUP3 ADD AND DUP3 ADD DUP1 PUSH1 0x40 MSTORE POP DUP2 ADD SWAP1 PUSH2 0x1352 SWAP2 SWAP1 PUSH2 0x1E87 JUMP JUMPDEST POP PUSH1 0x0 DUP4 DUP2 MSTORE PUSH1 0x20 DUP2 DUP2 MSTORE PUSH1 0x40 DUP1 DUP4 KECCAK256 SLOAD DUP2 MLOAD DUP1 DUP5 ADD DUP9 SWAP1 MSTORE DUP1 DUP4 ADD DUP6 SWAP1 MSTORE ADDRESS PUSH1 0x60 DUP3 ADD MSTORE PUSH1 0x80 DUP1 DUP3 ADD DUP4 SWAP1 MSTORE DUP4 MLOAD DUP1 DUP4 SUB SWAP1 SWAP2 ADD DUP2 MSTORE PUSH1 0xA0 SWAP1 SWAP2 ADD SWAP1 SWAP3 MSTORE DUP2 MLOAD SWAP2 DUP4 ADD SWAP2 SWAP1 SWAP2 KECCAK256 DUP7 DUP5 MSTORE SWAP3 SWAP1 SWAP2 MSTORE PUSH2 0x13AC SWAP1 PUSH1 0x1 PUSH2 0x203E JUMP JUMPDEST PUSH1 0x0 DUP6 DUP2 MSTORE PUSH1 0x20 DUP2 DUP2 MSTORE PUSH1 0x40 SWAP2 DUP3 SWAP1 KECCAK256 SWAP3 SWAP1 SWAP3 SSTORE DUP1 MLOAD DUP1 DUP4 ADD DUP8 SWAP1 MSTORE DUP1 DUP3 ADD DUP5 SWAP1 MSTORE DUP2 MLOAD DUP1 DUP3 SUB DUP4 ADD DUP2 MSTORE PUSH1 0x60 SWAP1 SWAP2 ADD SWAP1 SWAP2 MSTORE DUP1 MLOAD SWAP2 ADD KECCAK256 JUMPDEST SWAP5 SWAP4 POP POP POP POP JUMP JUMPDEST PUSH1 0x0 PUSH2 0x5B3 DUP3 SLOAD SWAP1 JUMP JUMPDEST PUSH1 0x0 PUSH2 0x6B4 DUP4 DUP4 PUSH2 0x1AEB JUMP JUMPDEST PUSH1 0x0 PUSH2 0x1458 DUP3 PUSH1 0x40 MLOAD DUP1 PUSH1 0x40 ADD PUSH1 0x40 MSTORE DUP1 PUSH1 0x20 DUP2 MSTORE PUSH1 0x20 ADD PUSH32 0x5361666545524332303A206C6F772D6C6576656C2063616C6C206661696C6564 DUP2 MSTORE POP DUP6 PUSH1 0x1 PUSH1 0x1 PUSH1 0xA0 SHL SUB AND PUSH2 0x1B15 SWAP1 SWAP3 SWAP2 SWAP1 PUSH4 0xFFFFFFFF AND JUMP JUMPDEST DUP1 MLOAD SWAP1 SWAP2 POP ISZERO PUSH2 0x8DD JUMPI DUP1 DUP1 PUSH1 0x20 ADD SWAP1 MLOAD DUP2 ADD SWAP1 PUSH2 0x1476 SWAP2 SWAP1 PUSH2 0x1E87 JUMP JUMPDEST PUSH2 0x8DD JUMPI PUSH1 0x40 MLOAD PUSH3 0x461BCD PUSH1 0xE5 SHL DUP2 MSTORE PUSH1 0x20 PUSH1 0x4 DUP3 ADD MSTORE PUSH1 0x2A PUSH1 0x24 DUP3 ADD MSTORE PUSH32 0x5361666545524332303A204552433230206F7065726174696F6E20646964206E PUSH1 0x44 DUP3 ADD MSTORE PUSH10 0x1BDD081CDD58D8D95959 PUSH1 0xB2 SHL PUSH1 0x64 DUP3 ADD MSTORE PUSH1 0x84 ADD PUSH2 0x625 JUMP JUMPDEST PUSH1 0x0 DUP2 DUP2 MSTORE PUSH1 0x1 DUP4 ADD PUSH1 0x20 MSTORE PUSH1 0x40 DUP2 KECCAK256 SLOAD PUSH2 0x151C JUMPI POP DUP2 SLOAD PUSH1 0x1 DUP2 DUP2 ADD DUP5 SSTORE PUSH1 0x0 DUP5 DUP2 MSTORE PUSH1 0x20 DUP1 DUP3 KECCAK256 SWAP1 SWAP4 ADD DUP5 SWAP1 SSTORE DUP5 SLOAD DUP5 DUP3 MSTORE DUP3 DUP7 ADD SWAP1 SWAP4 MSTORE PUSH1 0x40 SWAP1 KECCAK256 SWAP2 SWAP1 SWAP2 SSTORE PUSH2 0x5B3 JUMP JUMPDEST POP PUSH1 0x0 PUSH2 0x5B3 JUMP JUMPDEST PUSH1 0x8 SLOAD PUSH1 0x40 MLOAD PUSH4 0x31A9108F PUSH1 0xE1 SHL DUP2 MSTORE PUSH1 0x4 DUP2 ADD DUP5 SWAP1 MSTORE PUSH1 0x1 PUSH1 0x1 PUSH1 0xA0 SHL SUB DUP6 DUP2 AND SWAP3 AND SWAP1 PUSH4 0x6352211E SWAP1 PUSH1 0x24 ADD PUSH1 0x20 PUSH1 0x40 MLOAD DUP1 DUP4 SUB DUP2 DUP7 DUP1 EXTCODESIZE ISZERO DUP1 ISZERO PUSH2 0x156A JUMPI PUSH1 0x0 DUP1 REVERT JUMPDEST POP GAS STATICCALL ISZERO DUP1 ISZERO PUSH2 0x157E JUMPI RETURNDATASIZE PUSH1 0x0 DUP1 RETURNDATACOPY RETURNDATASIZE PUSH1 0x0 REVERT JUMPDEST POP POP POP POP PUSH1 0x40 MLOAD RETURNDATASIZE PUSH1 0x1F NOT PUSH1 0x1F DUP3 ADD AND DUP3 ADD DUP1 PUSH1 0x40 MSTORE POP DUP2 ADD SWAP1 PUSH2 0x15A2 SWAP2 SWAP1 PUSH2 0x1CD2 JUMP JUMPDEST PUSH1 0x1 PUSH1 0x1 PUSH1 0xA0 SHL SUB AND EQ PUSH2 0x15C8 JUMPI PUSH1 0x40 MLOAD PUSH3 0x461BCD PUSH1 0xE5 SHL DUP2 MSTORE PUSH1 0x4 ADD PUSH2 0x625 SWAP1 PUSH2 0x1FFC JUMP JUMPDEST PUSH1 0x0 DUP3 DUP2 MSTORE PUSH1 0x10 PUSH1 0x20 MSTORE PUSH1 0x40 SWAP1 KECCAK256 PUSH1 0x1 ADD SLOAD DUP2 SWAP1 PUSH2 0x15E7 SWAP1 PUSH1 0x5 PUSH2 0x1B24 JUMP JUMPDEST PUSH2 0x15F3 SWAP1 PUSH2 0x258 PUSH2 0x203E JUMP JUMPDEST DUP2 GT PUSH2 0x1666 JUMPI PUSH1 0x8 SLOAD PUSH1 0x40 MLOAD PUSH4 0x1068FE31 PUSH1 0xE1 SHL DUP2 MSTORE PUSH1 0x1 PUSH1 0x1 PUSH1 0xA0 SHL SUB DUP7 DUP2 AND PUSH1 0x4 DUP4 ADD MSTORE ADDRESS PUSH1 0x24 DUP4 ADD MSTORE PUSH1 0x44 DUP3 ADD DUP7 SWAP1 MSTORE SWAP1 SWAP2 AND SWAP1 PUSH4 0x20D1FC62 SWAP1 PUSH1 0x64 ADD PUSH1 0x0 PUSH1 0x40 MLOAD DUP1 DUP4 SUB DUP2 PUSH1 0x0 DUP8 DUP1 EXTCODESIZE ISZERO DUP1 ISZERO PUSH2 0x164D JUMPI PUSH1 0x0 DUP1 REVERT JUMPDEST POP GAS CALL ISZERO DUP1 ISZERO PUSH2 0x1661 JUMPI RETURNDATASIZE PUSH1 0x0 DUP1 RETURNDATACOPY RETURNDATASIZE PUSH1 0x0 REVERT JUMPDEST POP POP POP POP JUMPDEST PUSH1 0x0 DUP4 DUP2 MSTORE PUSH1 0x10 PUSH1 0x20 MSTORE PUSH1 0x40 SWAP1 KECCAK256 PUSH1 0x1 ADD SLOAD PUSH2 0x1683 SWAP1 PUSH1 0x5 PUSH2 0x1B24 JUMP JUMPDEST PUSH2 0x168F SWAP1 PUSH2 0x259 PUSH2 0x203E JUMP JUMPDEST DUP2 LT ISZERO DUP1 ISZERO PUSH2 0x16A0 JUMPI POP PUSH2 0x2EE DUP2 GT ISZERO JUMPDEST ISZERO PUSH2 0x1746 JUMPI PUSH1 0x6 SLOAD PUSH1 0x0 DUP5 DUP2 MSTORE PUSH1 0x10 PUSH1 0x20 MSTORE PUSH1 0x40 SWAP1 KECCAK256 SLOAD PUSH2 0x100 SWAP1 SWAP2 DIV PUSH1 0x1 PUSH1 0x1 PUSH1 0xA0 SHL SUB AND SWAP1 PUSH4 0x40C10F19 SWAP1 DUP7 SWAP1 PUSH2 0x16DA SWAP1 PUSH1 0x5 PUSH2 0x1B24 JUMP JUMPDEST PUSH1 0x2 SLOAD PUSH2 0x16E7 SWAP2 SWAP1 PUSH2 0x203E JUMP JUMPDEST PUSH1 0x40 MLOAD PUSH1 0x1 PUSH1 0x1 PUSH1 0xE0 SHL SUB NOT PUSH1 0xE0 DUP6 SWAP1 SHL AND DUP2 MSTORE PUSH1 0x1 PUSH1 0x1 PUSH1 0xA0 SHL SUB SWAP1 SWAP3 AND PUSH1 0x4 DUP4 ADD MSTORE PUSH1 0x24 DUP3 ADD MSTORE PUSH1 0x44 ADD PUSH1 0x0 PUSH1 0x40 MLOAD DUP1 DUP4 SUB DUP2 PUSH1 0x0 DUP8 DUP1 EXTCODESIZE ISZERO DUP1 ISZERO PUSH2 0x172D JUMPI PUSH1 0x0 DUP1 REVERT JUMPDEST POP GAS CALL ISZERO DUP1 ISZERO PUSH2 0x1741 JUMPI RETURNDATASIZE PUSH1 0x0 DUP1 RETURNDATACOPY RETURNDATASIZE PUSH1 0x0 REVERT JUMPDEST POP POP POP POP JUMPDEST PUSH2 0x2EF DUP2 LT ISZERO DUP1 ISZERO PUSH2 0x175A JUMPI POP PUSH2 0x384 DUP2 GT ISZERO JUMPDEST ISZERO PUSH2 0x1800 JUMPI PUSH1 0x6 SLOAD PUSH1 0x0 DUP5 DUP2 MSTORE PUSH1 0x10 PUSH1 0x20 MSTORE PUSH1 0x40 SWAP1 KECCAK256 SLOAD PUSH2 0x100 SWAP1 SWAP2 DIV PUSH1 0x1 PUSH1 0x1 PUSH1 0xA0 SHL SUB AND SWAP1 PUSH4 0x40C10F19 SWAP1 DUP7 SWAP1 PUSH2 0x1794 SWAP1 PUSH1 0x5 PUSH2 0x1B24 JUMP JUMPDEST PUSH1 0x3 SLOAD PUSH2 0x17A1 SWAP2 SWAP1 PUSH2 0x203E JUMP JUMPDEST PUSH1 0x40 MLOAD PUSH1 0x1 PUSH1 0x1 PUSH1 0xE0 SHL SUB NOT PUSH1 0xE0 DUP6 SWAP1 SHL AND DUP2 MSTORE PUSH1 0x1 PUSH1 0x1 PUSH1 0xA0 SHL SUB SWAP1 SWAP3 AND PUSH1 0x4 DUP4 ADD MSTORE PUSH1 0x24 DUP3 ADD MSTORE PUSH1 0x44 ADD PUSH1 0x0 PUSH1 0x40 MLOAD DUP1 DUP4 SUB DUP2 PUSH1 0x0 DUP8 DUP1 EXTCODESIZE ISZERO DUP1 ISZERO PUSH2 0x17E7 JUMPI PUSH1 0x0 DUP1 REVERT JUMPDEST POP GAS CALL ISZERO DUP1 ISZERO PUSH2 0x17FB JUMPI RETURNDATASIZE PUSH1 0x0 DUP1 RETURNDATACOPY RETURNDATASIZE PUSH1 0x0 REVERT JUMPDEST POP POP POP POP JUMPDEST PUSH2 0x385 DUP2 LT ISZERO DUP1 ISZERO PUSH2 0x183A JUMPI POP PUSH1 0x0 DUP4 DUP2 MSTORE PUSH1 0x10 PUSH1 0x20 MSTORE PUSH1 0x40 SWAP1 KECCAK256 PUSH1 0x2 SWAP1 DUP2 ADD SLOAD PUSH2 0x182A SWAP2 PUSH2 0x1B24 JUMP JUMPDEST PUSH2 0x1836 SWAP1 PUSH2 0x3E7 PUSH2 0x2089 JUMP JUMPDEST DUP2 GT ISZERO JUMPDEST ISZERO PUSH2 0x18E0 JUMPI PUSH1 0x6 SLOAD PUSH1 0x0 DUP5 DUP2 MSTORE PUSH1 0x10 PUSH1 0x20 MSTORE PUSH1 0x40 SWAP1 KECCAK256 SLOAD PUSH2 0x100 SWAP1 SWAP2 DIV PUSH1 0x1 PUSH1 0x1 PUSH1 0xA0 SHL SUB AND SWAP1 PUSH4 0x40C10F19 SWAP1 DUP7 SWAP1 PUSH2 0x1874 SWAP1 PUSH1 0x5 PUSH2 0x1B24 JUMP JUMPDEST PUSH1 0x4 SLOAD PUSH2 0x1881 SWAP2 SWAP1 PUSH2 0x203E JUMP JUMPDEST PUSH1 0x40 MLOAD PUSH1 0x1 PUSH1 0x1 PUSH1 0xE0 SHL SUB NOT PUSH1 0xE0 DUP6 SWAP1 SHL AND DUP2 MSTORE PUSH1 0x1 PUSH1 0x1 PUSH1 0xA0 SHL SUB SWAP1 SWAP3 AND PUSH1 0x4 DUP4 ADD MSTORE PUSH1 0x24 DUP3 ADD MSTORE PUSH1 0x44 ADD PUSH1 0x0 PUSH1 0x40 MLOAD DUP1 DUP4 SUB DUP2 PUSH1 0x0 DUP8 DUP1 EXTCODESIZE ISZERO DUP1 ISZERO PUSH2 0x18C7 JUMPI PUSH1 0x0 DUP1 REVERT JUMPDEST POP GAS CALL ISZERO DUP1 ISZERO PUSH2 0x18DB JUMPI RETURNDATASIZE PUSH1 0x0 DUP1 RETURNDATACOPY RETURNDATASIZE PUSH1 0x0 REVERT JUMPDEST POP POP POP POP JUMPDEST PUSH1 0x0 DUP4 DUP2 MSTORE PUSH1 0x10 PUSH1 0x20 MSTORE PUSH1 0x40 SWAP1 KECCAK256 PUSH1 0x2 SWAP1 DUP2 ADD SLOAD PUSH2 0x18FD SWAP2 PUSH2 0x1B24 JUMP JUMPDEST PUSH2 0x1909 SWAP1 PUSH2 0x3E8 PUSH2 0x2089 JUMP JUMPDEST DUP2 GT PUSH2 0x19B0 JUMPI PUSH1 0x6 SLOAD PUSH1 0x0 DUP5 DUP2 MSTORE PUSH1 0x10 PUSH1 0x20 MSTORE PUSH1 0x40 SWAP1 KECCAK256 SLOAD PUSH2 0x100 SWAP1 SWAP2 DIV PUSH1 0x1 PUSH1 0x1 PUSH1 0xA0 SHL SUB AND SWAP1 PUSH4 0x40C10F19 SWAP1 DUP7 SWAP1 PUSH2 0x1944 SWAP1 PUSH1 0x5 PUSH2 0x1B24 JUMP JUMPDEST PUSH1 0x5 SLOAD PUSH2 0x1951 SWAP2 SWAP1 PUSH2 0x203E JUMP JUMPDEST PUSH1 0x40 MLOAD PUSH1 0x1 PUSH1 0x1 PUSH1 0xE0 SHL SUB NOT PUSH1 0xE0 DUP6 SWAP1 SHL AND DUP2 MSTORE PUSH1 0x1 PUSH1 0x1 PUSH1 0xA0 SHL SUB SWAP1 SWAP3 AND PUSH1 0x4 DUP4 ADD MSTORE PUSH1 0x24 DUP3 ADD MSTORE PUSH1 0x44 ADD PUSH1 0x0 PUSH1 0x40 MLOAD DUP1 DUP4 SUB DUP2 PUSH1 0x0 DUP8 DUP1 EXTCODESIZE ISZERO DUP1 ISZERO PUSH2 0x1997 JUMPI PUSH1 0x0 DUP1 REVERT JUMPDEST POP GAS CALL ISZERO DUP1 ISZERO PUSH2 0x19AB JUMPI RETURNDATASIZE PUSH1 0x0 DUP1 RETURNDATACOPY RETURNDATASIZE PUSH1 0x0 REVERT JUMPDEST POP POP POP POP JUMPDEST PUSH1 0x40 DUP1 MLOAD PUSH1 0x1 PUSH1 0x1 PUSH1 0xA0 SHL SUB DUP7 AND DUP2 MSTORE PUSH1 0x20 DUP2 ADD DUP4 SWAP1 MSTORE PUSH32 0x8160866A4524149ECFBDF4A1E88A26717F5AFAB5913F0730BCDE49FF496F6DF7 SWAP2 ADD PUSH1 0x40 MLOAD DUP1 SWAP2 SUB SWAP1 LOG1 POP POP POP POP JUMP JUMPDEST PUSH1 0x0 DUP2 DUP2 MSTORE PUSH1 0x1 DUP4 ADD PUSH1 0x20 MSTORE PUSH1 0x40 DUP2 KECCAK256 SLOAD DUP1 ISZERO PUSH2 0x1AE1 JUMPI PUSH1 0x0 PUSH2 0x1A1C PUSH1 0x1 DUP4 PUSH2 0x2089 JUMP JUMPDEST DUP6 SLOAD SWAP1 SWAP2 POP PUSH1 0x0 SWAP1 PUSH2 0x1A30 SWAP1 PUSH1 0x1 SWAP1 PUSH2 0x2089 JUMP JUMPDEST SWAP1 POP DUP2 DUP2 EQ PUSH2 0x1A95 JUMPI PUSH1 0x0 DUP7 PUSH1 0x0 ADD DUP3 DUP2 SLOAD DUP2 LT PUSH2 0x1A50 JUMPI PUSH2 0x1A50 PUSH2 0x213D JUMP JUMPDEST SWAP1 PUSH1 0x0 MSTORE PUSH1 0x20 PUSH1 0x0 KECCAK256 ADD SLOAD SWAP1 POP DUP1 DUP8 PUSH1 0x0 ADD DUP5 DUP2 SLOAD DUP2 LT PUSH2 0x1A73 JUMPI PUSH2 0x1A73 PUSH2 0x213D JUMP JUMPDEST PUSH1 0x0 SWAP2 DUP3 MSTORE PUSH1 0x20 DUP1 DUP4 KECCAK256 SWAP1 SWAP2 ADD SWAP3 SWAP1 SWAP3 SSTORE SWAP2 DUP3 MSTORE PUSH1 0x1 DUP9 ADD SWAP1 MSTORE PUSH1 0x40 SWAP1 KECCAK256 DUP4 SWAP1 SSTORE JUMPDEST DUP6 SLOAD DUP7 SWAP1 DUP1 PUSH2 0x1AA6 JUMPI PUSH2 0x1AA6 PUSH2 0x2127 JUMP JUMPDEST PUSH1 0x1 SWAP1 SUB DUP2 DUP2 SWAP1 PUSH1 0x0 MSTORE PUSH1 0x20 PUSH1 0x0 KECCAK256 ADD PUSH1 0x0 SWAP1 SSTORE SWAP1 SSTORE DUP6 PUSH1 0x1 ADD PUSH1 0x0 DUP7 DUP2 MSTORE PUSH1 0x20 ADD SWAP1 DUP2 MSTORE PUSH1 0x20 ADD PUSH1 0x0 KECCAK256 PUSH1 0x0 SWAP1 SSTORE PUSH1 0x1 SWAP4 POP POP POP POP PUSH2 0x5B3 JUMP JUMPDEST PUSH1 0x0 SWAP2 POP POP PUSH2 0x5B3 JUMP JUMPDEST PUSH1 0x0 DUP3 PUSH1 0x0 ADD DUP3 DUP2 SLOAD DUP2 LT PUSH2 0x1B02 JUMPI PUSH2 0x1B02 PUSH2 0x213D JUMP JUMPDEST SWAP1 PUSH1 0x0 MSTORE PUSH1 0x20 PUSH1 0x0 KECCAK256 ADD SLOAD SWAP1 POP SWAP3 SWAP2 POP POP JUMP JUMPDEST PUSH1 0x60 PUSH2 0x13E5 DUP5 DUP5 PUSH1 0x0 DUP6 PUSH2 0x1B54 JUMP JUMPDEST PUSH1 0x0 DUP3 PUSH2 0x1B33 JUMPI POP PUSH1 0x0 PUSH2 0x5B3 JUMP JUMPDEST PUSH2 0x1B3D DUP3 DUP5 PUSH2 0x206A JUMP JUMPDEST SWAP1 POP DUP2 PUSH2 0x1B4A DUP5 DUP4 PUSH2 0x2056 JUMP JUMPDEST EQ PUSH2 0x5B3 JUMPI PUSH1 0x0 DUP1 REVERT JUMPDEST PUSH1 0x60 DUP3 SELFBALANCE LT ISZERO PUSH2 0x1BB5 JUMPI PUSH1 0x40 MLOAD PUSH3 0x461BCD PUSH1 0xE5 SHL DUP2 MSTORE PUSH1 0x20 PUSH1 0x4 DUP3 ADD MSTORE PUSH1 0x26 PUSH1 0x24 DUP3 ADD MSTORE PUSH32 0x416464726573733A20696E73756666696369656E742062616C616E636520666F PUSH1 0x44 DUP3 ADD MSTORE PUSH6 0x1C8818D85B1B PUSH1 0xD2 SHL PUSH1 0x64 DUP3 ADD MSTORE PUSH1 0x84 ADD PUSH2 0x625 JUMP JUMPDEST DUP5 EXTCODESIZE PUSH2 0x1C03 JUMPI PUSH1 0x40 MLOAD PUSH3 0x461BCD PUSH1 0xE5 SHL DUP2 MSTORE PUSH1 0x20 PUSH1 0x4 DUP3 ADD MSTORE PUSH1 0x1D PUSH1 0x24 DUP3 ADD MSTORE PUSH32 0x416464726573733A2063616C6C20746F206E6F6E2D636F6E7472616374000000 PUSH1 0x44 DUP3 ADD MSTORE PUSH1 0x64 ADD PUSH2 0x625 JUMP JUMPDEST PUSH1 0x0 DUP1 DUP7 PUSH1 0x1 PUSH1 0x1 PUSH1 0xA0 SHL SUB AND DUP6 DUP8 PUSH1 0x40 MLOAD PUSH2 0x1C1F SWAP2 SWAP1 PUSH2 0x1F24 JUMP JUMPDEST PUSH1 0x0 PUSH1 0x40 MLOAD DUP1 DUP4 SUB DUP2 DUP6 DUP8 GAS CALL SWAP3 POP POP POP RETURNDATASIZE DUP1 PUSH1 0x0 DUP2 EQ PUSH2 0x1C5C JUMPI PUSH1 0x40 MLOAD SWAP2 POP PUSH1 0x1F NOT PUSH1 0x3F RETURNDATASIZE ADD AND DUP3 ADD PUSH1 0x40 MSTORE RETURNDATASIZE DUP3 MSTORE RETURNDATASIZE PUSH1 0x0 PUSH1 0x20 DUP5 ADD RETURNDATACOPY PUSH2 0x1C61 JUMP JUMPDEST PUSH1 0x60 SWAP2 POP JUMPDEST POP SWAP2 POP SWAP2 POP PUSH2 0x1C71 DUP3 DUP3 DUP7 PUSH2 0x1C7C JUMP JUMPDEST SWAP8 SWAP7 POP POP POP POP POP POP POP JUMP JUMPDEST PUSH1 0x60 DUP4 ISZERO PUSH2 0x1C8B JUMPI POP DUP2 PUSH2 0x6B4 JUMP JUMPDEST DUP3 MLOAD ISZERO PUSH2 0x1C9B JUMPI DUP3 MLOAD DUP1 DUP5 PUSH1 0x20 ADD REVERT JUMPDEST DUP2 PUSH1 0x40 MLOAD PUSH3 0x461BCD PUSH1 0xE5 SHL DUP2 MSTORE PUSH1 0x4 ADD PUSH2 0x625 SWAP2 SWAP1 PUSH2 0x1FB4 JUMP JUMPDEST PUSH1 0x0 PUSH1 0x20 DUP3 DUP5 SUB SLT ISZERO PUSH2 0x1CC7 JUMPI PUSH1 0x0 DUP1 REVERT JUMPDEST DUP2 CALLDATALOAD PUSH2 0x6B4 DUP2 PUSH2 0x2169 JUMP JUMPDEST PUSH1 0x0 PUSH1 0x20 DUP3 DUP5 SUB SLT ISZERO PUSH2 0x1CE4 JUMPI PUSH1 0x0 DUP1 REVERT JUMPDEST DUP2 MLOAD PUSH2 0x6B4 DUP2 PUSH2 0x2169 JUMP JUMPDEST PUSH1 0x0 DUP1 PUSH1 0x40 DUP4 DUP6 SUB SLT ISZERO PUSH2 0x1D02 JUMPI PUSH1 0x0 DUP1 REVERT JUMPDEST DUP3 CALLDATALOAD PUSH2 0x1D0D DUP2 PUSH2 0x2169 JUMP JUMPDEST SWAP2 POP PUSH1 0x20 DUP4 DUP2 ADD CALLDATALOAD PUSH8 0xFFFFFFFFFFFFFFFF DUP1 DUP3 GT ISZERO PUSH2 0x1D2B JUMPI PUSH1 0x0 DUP1 REVERT JUMPDEST DUP2 DUP7 ADD SWAP2 POP DUP7 PUSH1 0x1F DUP4 ADD SLT PUSH2 0x1D3F JUMPI PUSH1 0x0 DUP1 REVERT JUMPDEST DUP2 CALLDATALOAD DUP2 DUP2 GT ISZERO PUSH2 0x1D51 JUMPI PUSH2 0x1D51 PUSH2 0x2153 JUMP JUMPDEST DUP1 PUSH1 0x5 SHL PUSH1 0x40 MLOAD PUSH1 0x1F NOT PUSH1 0x3F DUP4 ADD AND DUP2 ADD DUP2 DUP2 LT DUP6 DUP3 GT OR ISZERO PUSH2 0x1D76 JUMPI PUSH2 0x1D76 PUSH2 0x2153 JUMP JUMPDEST PUSH1 0x40 MSTORE DUP3 DUP2 MSTORE DUP6 DUP2 ADD SWAP4 POP DUP5 DUP7 ADD DUP3 DUP7 ADD DUP8 ADD DUP12 LT ISZERO PUSH2 0x1D95 JUMPI PUSH1 0x0 DUP1 REVERT JUMPDEST PUSH1 0x0 SWAP6 POP JUMPDEST DUP4 DUP7 LT ISZERO PUSH2 0x1DB8 JUMPI DUP1 CALLDATALOAD DUP6 MSTORE PUSH1 0x1 SWAP6 SWAP1 SWAP6 ADD SWAP5 SWAP4 DUP7 ADD SWAP4 DUP7 ADD PUSH2 0x1D9A JUMP JUMPDEST POP DUP1 SWAP7 POP POP POP POP POP POP POP SWAP3 POP SWAP3 SWAP1 POP JUMP JUMPDEST PUSH1 0x0 DUP1 PUSH1 0x40 DUP4 DUP6 SUB SLT ISZERO PUSH2 0x1DDC JUMPI PUSH1 0x0 DUP1 REVERT JUMPDEST DUP3 CALLDATALOAD PUSH2 0x1DE7 DUP2 PUSH2 0x2169 JUMP JUMPDEST SWAP5 PUSH1 0x20 SWAP4 SWAP1 SWAP4 ADD CALLDATALOAD SWAP4 POP POP POP JUMP JUMPDEST PUSH1 0x0 DUP1 PUSH1 0x20 DUP4 DUP6 SUB SLT ISZERO PUSH2 0x1E08 JUMPI PUSH1 0x0 DUP1 REVERT JUMPDEST DUP3 CALLDATALOAD PUSH8 0xFFFFFFFFFFFFFFFF DUP1 DUP3 GT ISZERO PUSH2 0x1E20 JUMPI PUSH1 0x0 DUP1 REVERT JUMPDEST DUP2 DUP6 ADD SWAP2 POP DUP6 PUSH1 0x1F DUP4 ADD SLT PUSH2 0x1E34 JUMPI PUSH1 0x0 DUP1 REVERT JUMPDEST DUP2 CALLDATALOAD DUP2 DUP2 GT ISZERO PUSH2 0x1E43 JUMPI PUSH1 0x0 DUP1 REVERT JUMPDEST DUP7 PUSH1 0x20 DUP3 PUSH1 0x5 SHL DUP6 ADD ADD GT ISZERO PUSH2 0x1E58 JUMPI PUSH1 0x0 DUP1 REVERT JUMPDEST PUSH1 0x20 SWAP3 SWAP1 SWAP3 ADD SWAP7 SWAP2 SWAP6 POP SWAP1 SWAP4 POP POP POP POP JUMP JUMPDEST PUSH1 0x0 PUSH1 0x20 DUP3 DUP5 SUB SLT ISZERO PUSH2 0x1E7C JUMPI PUSH1 0x0 DUP1 REVERT JUMPDEST DUP2 CALLDATALOAD PUSH2 0x6B4 DUP2 PUSH2 0x217E JUMP JUMPDEST PUSH1 0x0 PUSH1 0x20 DUP3 DUP5 SUB SLT ISZERO PUSH2 0x1E99 JUMPI PUSH1 0x0 DUP1 REVERT JUMPDEST DUP2 MLOAD PUSH2 0x6B4 DUP2 PUSH2 0x217E JUMP JUMPDEST PUSH1 0x0 DUP1 PUSH1 0x40 DUP4 DUP6 SUB SLT ISZERO PUSH2 0x1EB7 JUMPI PUSH1 0x0 DUP1 REVERT JUMPDEST POP POP DUP1 CALLDATALOAD SWAP3 PUSH1 0x20 SWAP1 SWAP2 ADD CALLDATALOAD SWAP2 POP JUMP JUMPDEST PUSH1 0x0 PUSH1 0x20 DUP3 DUP5 SUB SLT ISZERO PUSH2 0x1ED8 JUMPI PUSH1 0x0 DUP1 REVERT JUMPDEST POP CALLDATALOAD SWAP2 SWAP1 POP JUMP JUMPDEST PUSH1 0x0 PUSH1 0x20 DUP3 DUP5 SUB SLT ISZERO PUSH2 0x1EF1 JUMPI PUSH1 0x0 DUP1 REVERT JUMPDEST POP MLOAD SWAP2 SWAP1 POP JUMP JUMPDEST PUSH1 0x0 DUP2 MLOAD DUP1 DUP5 MSTORE PUSH2 0x1F10 DUP2 PUSH1 0x20 DUP7 ADD PUSH1 0x20 DUP7 ADD PUSH2 0x20A0 JUMP JUMPDEST PUSH1 0x1F ADD PUSH1 0x1F NOT AND SWAP3 SWAP1 SWAP3 ADD PUSH1 0x20 ADD SWAP3 SWAP2 POP POP JUMP JUMPDEST PUSH1 0x0 DUP3 MLOAD PUSH2 0x1F36 DUP2 DUP5 PUSH1 0x20 DUP8 ADD PUSH2 0x20A0 JUMP JUMPDEST SWAP2 SWAP1 SWAP2 ADD SWAP3 SWAP2 POP POP JUMP JUMPDEST PUSH1 0x1 DUP1 PUSH1 0xA0 SHL SUB DUP5 AND DUP2 MSTORE DUP3 PUSH1 0x20 DUP3 ADD MSTORE PUSH1 0x60 PUSH1 0x40 DUP3 ADD MSTORE PUSH1 0x0 PUSH2 0x1F67 PUSH1 0x60 DUP4 ADD DUP5 PUSH2 0x1EF8 JUMP JUMPDEST SWAP6 SWAP5 POP POP POP POP POP JUMP JUMPDEST PUSH1 0x20 DUP1 DUP3 MSTORE DUP3 MLOAD DUP3 DUP3 ADD DUP2 SWAP1 MSTORE PUSH1 0x0 SWAP2 SWAP1 DUP5 DUP3 ADD SWAP1 PUSH1 0x40 DUP6 ADD SWAP1 DUP5 JUMPDEST DUP2 DUP2 LT ISZERO PUSH2 0x1FA8 JUMPI DUP4 MLOAD DUP4 MSTORE SWAP3 DUP5 ADD SWAP3 SWAP2 DUP5 ADD SWAP2 PUSH1 0x1 ADD PUSH2 0x1F8C JUMP JUMPDEST POP SWAP1 SWAP7 SWAP6 POP POP POP POP POP POP JUMP JUMPDEST PUSH1 0x20 DUP2 MSTORE PUSH1 0x0 PUSH2 0x6B4 PUSH1 0x20 DUP4 ADD DUP5 PUSH2 0x1EF8 JUMP JUMPDEST PUSH1 0x20 DUP1 DUP3 MSTORE DUP2 DUP2 ADD MSTORE PUSH32 0x4F776E61626C653A2063616C6C6572206973206E6F7420746865206F776E6572 PUSH1 0x40 DUP3 ADD MSTORE PUSH1 0x60 ADD SWAP1 JUMP JUMPDEST PUSH1 0x20 DUP1 DUP3 MSTORE PUSH1 0x22 SWAP1 DUP3 ADD MSTORE PUSH32 0x596F7520617265206E6F7420746865206F776E6572206F662074686520746F6B PUSH1 0x40 DUP3 ADD MSTORE PUSH2 0x32B7 PUSH1 0xF1 SHL PUSH1 0x60 DUP3 ADD MSTORE PUSH1 0x80 ADD SWAP1 JUMP JUMPDEST PUSH1 0x0 DUP3 NOT DUP3 GT ISZERO PUSH2 0x2051 JUMPI PUSH2 0x2051 PUSH2 0x20FB JUMP JUMPDEST POP ADD SWAP1 JUMP JUMPDEST PUSH1 0x0 DUP3 PUSH2 0x2065 JUMPI PUSH2 0x2065 PUSH2 0x2111 JUMP JUMPDEST POP DIV SWAP1 JUMP JUMPDEST PUSH1 0x0 DUP2 PUSH1 0x0 NOT DIV DUP4 GT DUP3 ISZERO ISZERO AND ISZERO PUSH2 0x2084 JUMPI PUSH2 0x2084 PUSH2 0x20FB JUMP JUMPDEST POP MUL SWAP1 JUMP JUMPDEST PUSH1 0x0 DUP3 DUP3 LT ISZERO PUSH2 0x209B JUMPI PUSH2 0x209B PUSH2 0x20FB JUMP JUMPDEST POP SUB SWAP1 JUMP JUMPDEST PUSH1 0x0 JUMPDEST DUP4 DUP2 LT ISZERO PUSH2 0x20BB JUMPI DUP2 DUP2 ADD MLOAD DUP4 DUP3 ADD MSTORE PUSH1 0x20 ADD PUSH2 0x20A3 JUMP JUMPDEST DUP4 DUP2 GT ISZERO PUSH2 0x9E9 JUMPI POP POP PUSH1 0x0 SWAP2 ADD MSTORE JUMP JUMPDEST PUSH1 0x0 PUSH1 0x0 NOT DUP3 EQ ISZERO PUSH2 0x20E0 JUMPI PUSH2 0x20E0 PUSH2 0x20FB JUMP JUMPDEST POP PUSH1 0x1 ADD SWAP1 JUMP JUMPDEST PUSH1 0x0 DUP3 PUSH2 0x20F6 JUMPI PUSH2 0x20F6 PUSH2 0x2111 JUMP JUMPDEST POP MOD SWAP1 JUMP JUMPDEST PUSH4 0x4E487B71 PUSH1 0xE0 SHL PUSH1 0x0 MSTORE PUSH1 0x11 PUSH1 0x4 MSTORE PUSH1 0x24 PUSH1 0x0 REVERT JUMPDEST PUSH4 0x4E487B71 PUSH1 0xE0 SHL PUSH1 0x0 MSTORE PUSH1 0x12 PUSH1 0x4 MSTORE PUSH1 0x24 PUSH1 0x0 REVERT JUMPDEST PUSH4 0x4E487B71 PUSH1 0xE0 SHL PUSH1 0x0 MSTORE PUSH1 0x31 PUSH1 0x4 MSTORE PUSH1 0x24 PUSH1 0x0 REVERT JUMPDEST PUSH4 0x4E487B71 PUSH1 0xE0 SHL PUSH1 0x0 MSTORE PUSH1 0x32 PUSH1 0x4 MSTORE PUSH1 0x24 PUSH1 0x0 REVERT JUMPDEST PUSH4 0x4E487B71 PUSH1 0xE0 SHL PUSH1 0x0 MSTORE PUSH1 0x41 PUSH1 0x4 MSTORE PUSH1 0x24 PUSH1 0x0 REVERT JUMPDEST PUSH1 0x1 PUSH1 0x1 PUSH1 0xA0 SHL SUB DUP2 AND DUP2 EQ PUSH2 0x7B1 JUMPI PUSH1 0x0 DUP1 REVERT JUMPDEST DUP1 ISZERO ISZERO DUP2 EQ PUSH2 0x7B1 JUMPI PUSH1 0x0 DUP1 REVERT INVALID LOG2 PUSH5 0x6970667358 0x22 SLT KECCAK256 0x5D 0x5D 0xDC PUSH12 0x3002B4FED726B16B12EC9BB1 0x4D GASPRICE SIGNEXTEND 0xB4 LT 0xCE 0xE5 PUSH12 0xBDE9E6D671DB88D64736F6C PUSH4 0x43000807 STOP CALLER "
		},
		"gasEstimates": {
			"creation": {
				"codeDepositCost": "1728400",
				"executionCost": "infinite",
				"totalCost": "infinite"
			},
			"external": {
				"_depositBlocks(address,uint256)": "2695",
				"calculateReward(address,uint256)": "infinite",
				"calculateRewards(address,uint256[])": "infinite",
				"claimRewards(uint256[])": "infinite",
				"deposit(uint256[])": "infinite",
				"depositsOf(address)": "infinite",
				"enterTheDungeon(uint256)": "infinite",
				"exp()": "2404",
				"expMint()": "2448",
				"expiration()": "2341",
				"fee()": "2362",
				"gold()": "2436",
				"heroStats(uint256)": "6749",
				"heros()": "2403",
				"largeReward()": "2407",
				"levelStats(uint256,uint256)": "infinite",
				"mythicReward()": "2340",
				"owner()": "2388",
				"rate()": "2363",
				"rawFulfillRandomness(bytes32,uint256)": "infinite",
				"regReward()": "2405",
				"renounceOwnership()": "28163",
				"setExpiration(uint256)": "24647",
				"setFee(uint256)": "24553",
				"setRate(uint256)": "24554",
				"smallReward()": "2385",
				"started()": "2356",
				"status(bool)": "26708",
				"transferOwnership(address)": "infinite",
				"withdraw(uint256[])": "infinite",
				"withdrawTokens(address)": "infinite"
			},
			"internal": {
				"_enterTheDungeon(address,uint256,uint256)": "infinite",
				"fulfillRandomness(bytes32,uint256)": "infinite"
			}
		},
		"methodIdentifiers": {
			"_depositBlocks(address,uint256)": "b343ae14",
			"calculateReward(address,uint256)": "1852e8d9",
			"calculateRewards(address,uint256[])": "068c526f",
			"claimRewards(uint256[])": "5eac6239",
			"deposit(uint256[])": "598b8e71",
			"depositsOf(address)": "e3a9db1a",
			"enterTheDungeon(uint256)": "c3b86b13",
			"exp()": "ab60ffda",
			"expMint()": "e96fa395",
			"expiration()": "4665096d",
			"fee()": "ddca3f43",
			"gold()": "fbec6f21",
			"heroStats(uint256)": "01bd7ec6",
			"heros()": "f468a089",
			"largeReward()": "3646a87e",
			"levelStats(uint256,uint256)": "6c074e02",
			"mythicReward()": "99e987d9",
			"owner()": "8da5cb5b",
			"rate()": "2c4e722e",
			"rawFulfillRandomness(bytes32,uint256)": "94985ddd",
			"regReward()": "fd026aef",
			"renounceOwnership()": "715018a6",
			"setExpiration(uint256)": "515a20ba",
			"setFee(uint256)": "69fe0e2d",
			"setRate(uint256)": "34fcf437",
			"smallReward()": "4e077aa2",
			"started()": "1f2698ab",
			"status(bool)": "c84dabcf",
			"transferOwnership(address)": "f2fde38b",
			"withdraw(uint256[])": "983d95ce",
			"withdrawTokens(address)": "49df728c"
		}
	},
	"abi": [
		{
			"inputs": [
				{
					"internalType": "contract Gold",
					"name": "gold_",
					"type": "address"
				},
				{
					"internalType": "contract NFTmain",
					"name": "heros_",
					"type": "address"
				},
				{
					"internalType": "address",
					"name": "exp_",
					"type": "address"
				}
			],
			"stateMutability": "nonpayable",
			"type": "constructor"
		},
		{
			"anonymous": false,
			"inputs": [
				{
					"indexed": true,
					"internalType": "address",
					"name": "previousOwner",
					"type": "address"
				},
				{
					"indexed": true,
					"internalType": "address",
					"name": "newOwner",
					"type": "address"
				}
			],
			"name": "OwnershipTransferred",
			"type": "event"
		},
		{
			"anonymous": false,
			"inputs": [
				{
					"indexed": false,
					"internalType": "address",
					"name": "user",
					"type": "address"
				},
				{
					"indexed": false,
					"internalType": "uint256",
					"name": "outcome",
					"type": "uint256"
				}
			],
			"name": "dungeonReward",
			"type": "event"
		},
		{
			"inputs": [
				{
					"internalType": "address",
					"name": "",
					"type": "address"
				},
				{
					"internalType": "uint256",
					"name": "",
					"type": "uint256"
				}
			],
			"name": "_depositBlocks",
			"outputs": [
				{
					"internalType": "uint256",
					"name": "",
					"type": "uint256"
				}
			],
			"stateMutability": "view",
			"type": "function"
		},
		{
			"inputs": [
				{
					"internalType": "address",
					"name": "account",
					"type": "address"
				},
				{
					"internalType": "uint256",
					"name": "tokenId",
					"type": "uint256"
				}
			],
			"name": "calculateReward",
			"outputs": [
				{
					"internalType": "uint256",
					"name": "",
					"type": "uint256"
				}
			],
			"stateMutability": "view",
			"type": "function"
		},
		{
			"inputs": [
				{
					"internalType": "address",
					"name": "account",
					"type": "address"
				},
				{
					"internalType": "uint256[]",
					"name": "tokenIds",
					"type": "uint256[]"
				}
			],
			"name": "calculateRewards",
			"outputs": [
				{
					"internalType": "uint256[]",
					"name": "rewards",
					"type": "uint256[]"
				}
			],
			"stateMutability": "view",
			"type": "function"
		},
		{
			"inputs": [
				{
					"internalType": "uint256[]",
					"name": "tokenIds",
					"type": "uint256[]"
				}
			],
			"name": "claimRewards",
			"outputs": [],
			"stateMutability": "nonpayable",
			"type": "function"
		},
		{
			"inputs": [
				{
					"internalType": "uint256[]",
					"name": "tokenIds",
					"type": "uint256[]"
				}
			],
			"name": "deposit",
			"outputs": [],
			"stateMutability": "nonpayable",
			"type": "function"
		},
		{
			"inputs": [
				{
					"internalType": "address",
					"name": "account",
					"type": "address"
				}
			],
			"name": "depositsOf",
			"outputs": [
				{
					"internalType": "uint256[]",
					"name": "",
					"type": "uint256[]"
				}
			],
			"stateMutability": "view",
			"type": "function"
		},
		{
			"inputs": [
				{
					"internalType": "uint256",
					"name": "_tokenId",
					"type": "uint256"
				}
			],
			"name": "enterTheDungeon",
			"outputs": [
				{
					"internalType": "bool",
					"name": "",
					"type": "bool"
				}
			],
			"stateMutability": "nonpayable",
			"type": "function"
		},
		{
			"inputs": [],
			"name": "exp",
			"outputs": [
				{
					"internalType": "contract IERC20",
					"name": "",
					"type": "address"
				}
			],
			"stateMutability": "view",
			"type": "function"
		},
		{
			"inputs": [],
			"name": "expMint",
			"outputs": [
				{
					"internalType": "contract Gold",
					"name": "",
					"type": "address"
				}
			],
			"stateMutability": "view",
			"type": "function"
		},
		{
			"inputs": [],
			"name": "expiration",
			"outputs": [
				{
					"internalType": "uint256",
					"name": "",
					"type": "uint256"
				}
			],
			"stateMutability": "view",
			"type": "function"
		},
		{
			"inputs": [],
			"name": "fee",
			"outputs": [
				{
					"internalType": "uint256",
					"name": "",
					"type": "uint256"
				}
			],
			"stateMutability": "view",
			"type": "function"
		},
		{
			"inputs": [],
			"name": "gold",
			"outputs": [
				{
					"internalType": "contract Gold",
					"name": "",
					"type": "address"
				}
			],
			"stateMutability": "view",
			"type": "function"
		},
		{
			"inputs": [
				{
					"internalType": "uint256",
					"name": "",
					"type": "uint256"
				}
			],
			"name": "heroStats",
			"outputs": [
				{
					"internalType": "uint256",
					"name": "luck",
					"type": "uint256"
				},
				{
					"internalType": "uint256",
					"name": "vitality",
					"type": "uint256"
				},
				{
					"internalType": "uint256",
					"name": "strength",
					"type": "uint256"
				}
			],
			"stateMutability": "view",
			"type": "function"
		},
		{
			"inputs": [],
			"name": "heros",
			"outputs": [
				{
					"internalType": "contract NFTmain",
					"name": "",
					"type": "address"
				}
			],
			"stateMutability": "view",
			"type": "function"
		},
		{
			"inputs": [],
			"name": "largeReward",
			"outputs": [
				{
					"internalType": "uint256",
					"name": "",
					"type": "uint256"
				}
			],
			"stateMutability": "view",
			"type": "function"
		},
		{
			"inputs": [
				{
					"internalType": "uint256",
					"name": "_tokenId",
					"type": "uint256"
				},
				{
					"internalType": "uint256",
					"name": "_statId",
					"type": "uint256"
				}
			],
			"name": "levelStats",
			"outputs": [],
			"stateMutability": "nonpayable",
			"type": "function"
		},
		{
			"inputs": [],
			"name": "mythicReward",
			"outputs": [
				{
					"internalType": "uint256",
					"name": "",
					"type": "uint256"
				}
			],
			"stateMutability": "view",
			"type": "function"
		},
		{
			"inputs": [],
			"name": "owner",
			"outputs": [
				{
					"internalType": "address",
					"name": "",
					"type": "address"
				}
			],
			"stateMutability": "view",
			"type": "function"
		},
		{
			"inputs": [],
			"name": "rate",
			"outputs": [
				{
					"internalType": "uint256",
					"name": "",
					"type": "uint256"
				}
			],
			"stateMutability": "view",
			"type": "function"
		},
		{
			"inputs": [
				{
					"internalType": "bytes32",
					"name": "requestId",
					"type": "bytes32"
				},
				{
					"internalType": "uint256",
					"name": "randomness",
					"type": "uint256"
				}
			],
			"name": "rawFulfillRandomness",
			"outputs": [],
			"stateMutability": "nonpayable",
			"type": "function"
		},
		{
			"inputs": [],
			"name": "regReward",
			"outputs": [
				{
					"internalType": "uint256",
					"name": "",
					"type": "uint256"
				}
			],
			"stateMutability": "view",
			"type": "function"
		},
		{
			"inputs": [],
			"name": "renounceOwnership",
			"outputs": [],
			"stateMutability": "nonpayable",
			"type": "function"
		},
		{
			"inputs": [
				{
					"internalType": "uint256",
					"name": "_expiration",
					"type": "uint256"
				}
			],
			"name": "setExpiration",
			"outputs": [],
			"stateMutability": "nonpayable",
			"type": "function"
		},
		{
			"inputs": [
				{
					"internalType": "uint256",
					"name": "_fee",
					"type": "uint256"
				}
			],
			"name": "setFee",
			"outputs": [],
			"stateMutability": "nonpayable",
			"type": "function"
		},
		{
			"inputs": [
				{
					"internalType": "uint256",
					"name": "_rate",
					"type": "uint256"
				}
			],
			"name": "setRate",
			"outputs": [],
			"stateMutability": "nonpayable",
			"type": "function"
		},
		{
			"inputs": [],
			"name": "smallReward",
			"outputs": [
				{
					"internalType": "uint256",
					"name": "",
					"type": "uint256"
				}
			],
			"stateMutability": "view",
			"type": "function"
		},
		{
			"inputs": [],
			"name": "started",
			"outputs": [
				{
					"internalType": "bool",
					"name": "",
					"type": "bool"
				}
			],
			"stateMutability": "view",
			"type": "function"
		},
		{
			"inputs": [
				{
					"internalType": "bool",
					"name": "newStatus",
					"type": "bool"
				}
			],
			"name": "status",
			"outputs": [],
			"stateMutability": "nonpayable",
			"type": "function"
		},
		{
			"inputs": [
				{
					"internalType": "address",
					"name": "newOwner",
					"type": "address"
				}
			],
			"name": "transferOwnership",
			"outputs": [],
			"stateMutability": "nonpayable",
			"type": "function"
		},
		{
			"inputs": [
				{
					"internalType": "uint256[]",
					"name": "tokenIds",
					"type": "uint256[]"
				}
			],
			"name": "withdraw",
			"outputs": [],
			"stateMutability": "nonpayable",
			"type": "function"
		},
		{
			"inputs": [
				{
					"internalType": "address",
					"name": "token_address",
					"type": "address"
				}
			],
			"name": "withdrawTokens",
			"outputs": [],
			"stateMutability": "nonpayable",
			"type": "function"
		}
	]
}