{
	"data": {
		"bytecode": {
			"linkReferences": {},
			"object": "60c0604052600a608081905269506f6c794865726f657360b01b60a09081526200002d91600791906200025d565b5060408051808201909152600a80825269506f6c794865726f657360b01b602090920191825262000061916008916200025d565b5060006009819055600a819055612710600b819055600c55600f805460ff60a01b1990811690915566470de4df82000060105568056bc75e2d63100000601155601591909155614e36805460ff19169055614e3a80549091169055348015620000c957600080fd5b5060405162003c6138038062003c61833981016040819052620000ec9162000303565b620000f7336200020d565b600160208190527fb45820386466a8e01597d6e1efaf8f11ba4467972de5ca6c1f8aa3544ac2888e805460ff1990811683179091557fb8349d7b7b0b2b924bf96f90971cda8c7ac1ea4cde292a182bd2a203eef6c5d080548216831790557f0e20bd7b4297895bdd985faac9360f413d46658b4c96e853899576249f1474ab8054821683179055635b5e139f60e01b6000527fce9309d5fe1c6050fdfde39d28ca0616e34393306d1cba1a247c40f9ef5c5d0980549091169091179055614e3991909155614e3a80546001600160a01b03199081166001600160a01b0393841617909155600e8054821695831695909517909455600f8054851693821693909317909255601380549093169116179055620003cd565b600080546001600160a01b038381166001600160a01b0319831681178455604051919092169283917f8be0079c531659141344cd1fd0a4f28419497f9722a3daafe3b4186f6b6457e09190a35050565b8280546200026b9062000377565b90600052602060002090601f0160209004810192826200028f5760008555620002da565b82601f10620002aa57805160ff1916838001178555620002da565b82800160010185558215620002da579182015b82811115620002da578251825591602001919060010190620002bd565b50620002e8929150620002ec565b5090565b5b80821115620002e85760008155600101620002ed565b600080600080600060a086880312156200031c57600080fd5b85516200032981620003b4565b60208701519095506200033c81620003b4565b60408701519094506200034f81620003b4565b6060870151608088015191945092506200036981620003b4565b809150509295509295909350565b600181811c908216806200038c57607f821691505b60208210811415620003ae57634e487b7160e01b600052602260045260246000fd5b50919050565b6001600160a01b0381168114620003ca57600080fd5b50565b61388480620003dd6000396000f3fe6080604052600436106102935760003560e01c80636ef25c3a1161015a578063b88d4fde116100c1578063ed38b79c1161007a578063ed38b79c14610849578063f25f4b561461085f578063f2fde38b14610880578063f79e4164146108a0578063f9ae7aaf146108c6578063fbec6f21146108d957600080fd5b8063b88d4fde14610747578063c2db2c4214610767578063c87b56dd1461079e578063d4c66861146107be578063e0e081d7146107de578063e985e9c51461080057600080fd5b806395d89b411161011357806395d89b41146106a85780639abc8320146106bd5780639b642de1146106d2578063a22cb465146106f2578063b03053b614610712578063b66a0e5d1461073257600080fd5b80636ef25c3a146105a457806370a08231146105bb578063715018a6146105db57806375bea166146105f057806380c9419e146106105780638da5cb5b1461068a57600080fd5b806320d1fc62116101fe57806344c66be7116101b757806344c66be7146104f9578063479ad4c31461050e5780634c211c281461052e5780634f6ccce7146105445780636352211e1461056457806369fe0e2d1461058457600080fd5b806320d1fc621461044557806323b872dd146104655780632db11544146104855780632f745c591461049857806333bc1c5c146104b857806342842e0e146104d957600080fd5b80630cef3df1116102505780630cef3df1146103a757806310a15cc8146103c757806318160ddd146103da5780631bcd39aa146103ef5780631cbaee2d1461040f5780631d2e5a3a1461042557600080fd5b806301ffc9a714610298578063031bd4c4146102e75780630612c4781461030b57806306fdde031461032d578063081812fc1461034f578063095ea7b314610387575b600080fd5b3480156102a457600080fd5b506102d26102b336600461328c565b6001600160e01b03191660009081526001602052604090205460ff1690565b60405190151581526020015b60405180910390f35b3480156102f357600080fd5b506102fd614e2081565b6040519081526020016102de565b34801561031757600080fd5b5061032b6103263660046133a9565b6108f9565b005b34801561033957600080fd5b5061034261095b565b6040516102de9190613540565b34801561035b57600080fd5b5061036f61036a366004613377565b6109ed565b6040516001600160a01b0390911681526020016102de565b34801561039357600080fd5b5061032b6103a2366004613228565b610a44565b3480156103b357600080fd5b506102d26103c23660046133a9565b610b8b565b61032b6103d5366004613377565b610c19565b3480156103e657600080fd5b506009546102fd565b3480156103fb57600080fd5b5061032b61040a3660046130cc565b610db9565b34801561041b57600080fd5b506102fd60145481565b34801561043157600080fd5b5061032b610440366004613252565b610e0c565b34801561045157600080fd5b5061032b61046036600461311a565b610e55565b34801561047157600080fd5b5061032b61048036600461311a565b610f7c565b61032b610493366004613377565b61111d565b3480156104a457600080fd5b506102fd6104b3366004613228565b61135c565b3480156104c457600080fd5b50600f546102d290600160a01b900460ff1681565b3480156104e557600080fd5b5061032b6104f436600461311a565b6113bd565b34801561050557600080fd5b506102fd6113dd565b34801561051a57600080fd5b5061032b610529366004613377565b6113fb565b34801561053a57600080fd5b506102fd600b5481565b34801561055057600080fd5b506102fd61055f366004613377565b61156d565b34801561057057600080fd5b5061036f61057f366004613377565b611588565b34801561059057600080fd5b5061032b61059f366004613377565b6115c5565b3480156105b057600080fd5b506102fd614e395481565b3480156105c757600080fd5b506102fd6105d63660046130cc565b6115f5565b3480156105e757600080fd5b5061032b611628565b3480156105fc57600080fd5b506102fd61060b366004613377565b61165e565b34801561061c57600080fd5b5061066061062b366004613377565b614e376020526000908152604090208054600182015460029092015460ff8216926101009092046001600160a01b0316919084565b6040805194151585526001600160a01b0390931660208501529183015260608201526080016102de565b34801561069657600080fd5b506000546001600160a01b031661036f565b3480156106b457600080fd5b50610342611680565b3480156106c957600080fd5b5061034261168f565b3480156106de57600080fd5b5061032b6106ed3660046132c6565b61171d565b3480156106fe57600080fd5b5061032b61070d3660046131f1565b61175a565b34801561071e57600080fd5b5061032b61072d3660046133cc565b6117c6565b34801561073e57600080fd5b5061032b611914565b34801561075357600080fd5b5061032b610762366004613156565b61196e565b34801561077357600080fd5b5061036f610782366004613377565b614e38602052600090815260409020546001600160a01b031681565b3480156107aa57600080fd5b506103426107b9366004613377565b6119b0565b3480156107ca57600080fd5b5061032b6107d9366004613377565b611a1c565b3480156107ea57600080fd5b50614e3a546102d290600160a01b900460ff1681565b34801561080c57600080fd5b506102d261081b3660046130e7565b6001600160a01b03918216600090815260046020908152604080832093909416825291909152205460ff1690565b34801561085557600080fd5b506102fd600c5481565b34801561086b57600080fd5b50614e3a5461036f906001600160a01b031681565b34801561088c57600080fd5b5061032b61089b3660046130cc565b611f38565b3480156108ac57600080fd5b50614e365461036f9061010090046001600160a01b031681565b61032b6108d4366004613377565b611fd3565b3480156108e557600080fd5b5060135461036f906001600160a01b031681565b6000546001600160a01b0316331461092c5760405162461bcd60e51b8152600401610923906135a7565b60405180910390fd5b6000918252614e38602052604090912080546001600160a01b0319166001600160a01b03909216919091179055565b60606007805461096a90613758565b80601f016020809104026020016040519081016040528092919081815260200182805461099690613758565b80156109e35780601f106109b8576101008083540402835291602001916109e3565b820191906000526020600020905b8154815290600101906020018083116109c657829003601f168201915b5050505050905090565b60008181526002602052604081205482906001600160a01b0316610a235760405162461bcd60e51b815260040161092390613553565b6000838152600360205260409020546001600160a01b031691505b50919050565b60008181526002602052604090205481906001600160a01b031633811480610a8f57506001600160a01b038116600090815260046020908152604080832033845290915290205460ff165b610acd5760405162461bcd60e51b815260206004820152600f60248201526e21b0b73737ba1037b832b930ba329760891b6044820152606401610923565b60008381526002602052604090205483906001600160a01b0316610b035760405162461bcd60e51b815260040161092390613553565b6000848152600260205260409020546001600160a01b03908116908616811415610b2c57600080fd5b60008581526003602052604080822080546001600160a01b0319166001600160a01b038a811691821790925591518893918516917f8c5be1e5ebec7d5bd14f71427d1e84f3dd0314c0f7b2291e5b200ac8c7c3b92591a4505050505050565b6000828152600260205260408120546001600160a01b03908116908316811480610bce57506000848152600360205260409020546001600160a01b038481169116145b80610bfe57506001600160a01b0380821660009081526004602090815260408083209387168352929052205460ff165b15610c0d576001915050610c13565b60009150505b92915050565b614e365460ff1615610c2a57600080fd5b614e36805460ff19166001179055600f54600160a01b900460ff16610c855760405162461bcd60e51b815260206004820152601160248201527029b0b632903737ba1039ba30b93a32b21760791b6044820152606401610923565b6014811115610ca65760405162461bcd60e51b8152600401610923906135dc565b614e20610cbc82610cb660095490565b90612373565b1115610d005760405162461bcd60e51b8152602060048201526013602482015272115e18d959591cc81513d2d15397d312535255606a1b6044820152606401610923565b600c54600090610d10908361238e565b1015610d2e5760405162461bcd60e51b815260040161092390613667565b610d5c3330610d48846011546123ae90919063ffffffff16565b6013546001600160a01b03169291906123de565b60005b81811015610daa57600a8054906000610d778361378d565b91905055506001600c54610d8b91906136fe565b600c55610d9733612438565b5080610da28161378d565b915050610d5f565b5050614e36805460ff19169055565b6000546001600160a01b03163314610de35760405162461bcd60e51b8152600401610923906135a7565b614e3680546001600160a01b0390921661010002610100600160a81b0319909216919091179055565b6000546001600160a01b03163314610e365760405162461bcd60e51b8152600401610923906135a7565b614e3a8054911515600160a01b0260ff60a01b19909216919091179055565b60008181526002602052604090205481906001600160a01b0316610e8b5760405162461bcd60e51b815260040161092390613553565b6001600160a01b038316301480610eb55750614e36546001600160a01b0384811661010090920416145b610ebe57600080fd5b6000828152600260205260409020546001600160a01b039081169085168114610f1f5760405162461bcd60e51b81526020600482015260136024820152722bb937b73390333937b69030b2323932b9b99760691b6044820152606401610923565b6001600160a01b038416610f6b5760405162461bcd60e51b815260206004820152601360248201527221b0b73737ba1039b2b732103a3790183c181760691b6044820152606401610923565b610f75848461256c565b5050505050565b60008181526002602052604090205481906001600160a01b031633811480610fba57506000828152600360205260409020546001600160a01b031633145b80610fe857506001600160a01b038116600090815260046020908152604080832033845290915290205460ff165b6110275760405162461bcd60e51b815260206004820152601060248201526f21b0b73737ba103a3930b739b332b91760811b6044820152606401610923565b60008381526002602052604090205483906001600160a01b031661105d5760405162461bcd60e51b815260040161092390613553565b6000848152600260205260409020546001600160a01b0390811690871681146110be5760405162461bcd60e51b81526020600482015260136024820152722bb937b73390333937b69030b2323932b9b99760691b6044820152606401610923565b6001600160a01b03861661110a5760405162461bcd60e51b815260206004820152601360248201527221b0b73737ba1039b2b732103a3790183c181760691b6044820152606401610923565b611114868661256c565b50505050505050565b614e365460ff161561112e57600080fd5b614e36805460ff19166001179055600f54600160a01b900460ff166111895760405162461bcd60e51b815260206004820152601160248201527029b0b632903737ba1039ba30b93a32b21760791b6044820152606401610923565b60148111156111aa5760405162461bcd60e51b8152600401610923906135dc565b614e206111ba82610cb660095490565b11156111fe5760405162461bcd60e51b8152602060048201526013602482015272115e18d959591cc81513d2d15397d312535255606a1b6044820152606401610923565b600b5460009061120e908361238e565b101561122c5760405162461bcd60e51b815260040161092390613667565b601054349061123b90836123ae565b146112885760405162461bcd60e51b815260206004820152601f60248201527f4d415449432076616c75652073656e74206973206e6f7420636f7272656374006044820152606401610923565b600e546001600160a01b03166108fc6112a2346002612660565b6040518115909202916000818181858888f193505050501580156112ca573d6000803e3d6000fd5b50600f546001600160a01b03166108fc6112e5346002612660565b6040518115909202916000818181858888f1935050505015801561130d573d6000803e3d6000fd5b5060005b81811015610daa57600a80549060006113298361378d565b91905055506001600b5461133d91906136fe565b600b5561134933612438565b50806113548161378d565b915050611311565b6001600160a01b038216600090815260056020526040812054821061138057600080fd5b6001600160a01b03831660009081526005602052604090208054839081106113aa576113aa6137fe565b9060005260206000200154905092915050565b6113d88383836040518060200160405280600081525061266c565b505050565b60006113f6600a54614e2061238e90919063ffffffff16565b905090565b614e3a54600160a01b900460ff166114255760405162461bcd60e51b81526004016109239061357b565b3361142f82611588565b6001600160a01b0316146114555760405162461bcd60e51b815260040161092390613625565b604080516080810182526000808252602080830182815283850183815260608501848152878552614e37909352928590209351845491516001600160a01b031661010002610100600160a81b0319911515919091166001600160a81b0319909216919091171783559051600183015551600290910155517f76915038033fd095a1c41c63de78ca96195fdeb0013ce2bfe4fbc0afe4b0b187906114fb9083815260200190565b60405180910390a160005b614e3b548110156115695781614e3b8281548110611526576115266137fe565b9060005260206000200154141561155757614e3b818154811061154b5761154b6137fe565b60009182526020822001555b806115618161378d565b915050611506565b5050565b6000614e20821061157d57600080fd5b610c138260016136b3565b6000818152600260205260408120546001600160a01b03166115a957600080fd5b506000908152600260205260409020546001600160a01b031690565b6000546001600160a01b031633146115ef5760405162461bcd60e51b8152600401610923906135a7565b614e3955565b60006001600160a01b03821661160a57600080fd5b6001600160a01b038216600090815260056020526040902054610c13565b6000546001600160a01b031633146116525760405162461bcd60e51b8152600401610923906135a7565b61165c6000612881565b565b614e3b818154811061166f57600080fd5b600091825260209091200154905081565b60606008805461096a90613758565b6012805461169c90613758565b80601f01602080910402602001604051908101604052809291908181526020018280546116c890613758565b80156117155780601f106116ea57610100808354040283529160200191611715565b820191906000526020600020905b8154815290600101906020018083116116f857829003601f168201915b505050505081565b6000546001600160a01b031633146117475760405162461bcd60e51b8152600401610923906135a7565b8051611569906012906020840190613017565b3360008181526004602090815260408083206001600160a01b03871680855290835292819020805460ff191686151590811790915590519081529192917f17307eab39ab6107e8899845ad3d59bd9653f200f220920489ca2b5937696c31910160405180910390a35050565b614e3a54600160a01b900460ff166117f05760405162461bcd60e51b81526004016109239061357b565b336117fa83611588565b6001600160a01b0316146118205760405162461bcd60e51b815260040161092390613625565b604080516080810182526001808252336020808401918252838501888152606080860188815260008a8152614e3785528890209651875495516001600160a81b0319909616901515610100600160a81b031916176101006001600160a01b0390961695909502949094178655905193850193909355905160029093019290925582518581529182018690529181018390527fe04275091c8ec0cacfa344ba26fef01e27e1aa9fa1c5211500f11e92ff862e05910160405180910390a150614e3b80546001810182556000919091527f9c134bf00a5ad545fbf5c27e8f9e91d26ff70c9ea5b8ffb7be9aa840d0537ccf015550565b6000546001600160a01b0316331461193e5760405162461bcd60e51b8152600401610923906135a7565b600f54600160a01b900460ff161561195557600080fd5b42601455600f805460ff60a01b1916600160a01b179055565b610f7585858585858080601f01602080910402602001604051908101604052809392919081815260200183838082843760009201919091525061266c92505050565b60008181526002602052604090205460609082906001600160a01b03166119e95760405162461bcd60e51b815260040161092390613553565b60126119f4846128d1565b604051602001611a0592919061345c565b604051602081830303815290604052915050919050565b611a268130610b8b565b611a685760405162461bcd60e51b8152602060048201526013602482015272115c9c9bdc881dda5d1a08185c1c1c9bdd985b606a1b6044820152606401610923565b614e3a54600160a01b900460ff16611a925760405162461bcd60e51b81526004016109239061357b565b6000818152614e37602052604090205460ff16611aed5760405162461bcd60e51b815260206004820152601960248201527854686520746f6b656e206973206e6f7420666f722073616c6560381b6044820152606401610923565b6000818152614e376020526040902060020154611b4c5760405162461bcd60e51b815260206004820152601860248201527f4572726f72207769746820746f6b656e207061796d656e7400000000000000006044820152606401610923565b6000818152614e376020908152604080832060018101546002909101548452614e38909252918290205491516370a0823160e01b815233600482015290916001600160a01b0316906370a082319060240160206040518083038186803b158015611bb557600080fd5b505afa158015611bc9573d6000803e3d6000fd5b505050506040513d601f19601f82011682018060405250810190611bed9190613390565b1015611c3b5760405162461bcd60e51b815260206004820152601a60248201527f596f7520646f206e6f74206f776e20656e6f75676820676f6c640000000000006044820152606401610923565b6000818152614e376020908152604080832060018101546002909101548452614e3890925291829020549151636eb1769f60e11b815233600482015230602482015290916001600160a01b03169063dd62ed3e9060440160206040518083038186803b158015611caa57600080fd5b505afa158015611cbe573d6000803e3d6000fd5b505050506040513d601f19601f82011682018060405250810190611ce29190613390565b1015611d305760405162461bcd60e51b815260206004820152601a60248201527f596f7520616c6c6f77616e636520697320746f6f20736d616c6c0000000000006044820152606401610923565b614e39546000611d42826103e86136fe565b614e3a546000858152614e376020526040902060010154919250611db69133916001600160a01b031690611d84906103e890611d7e90886123ae565b90612660565b6000878152614e3760209081526040808320600201548352614e389091529020546001600160a01b03169291906123de565b6000838152614e37602052604090208054600190910154611df59133916101009091046001600160a01b031690611d84906103e890611d7e90876123ae565b611dff338461256c565b6000838152614e37602090815260409182902060018101546002909101548351878152928301919091528183015290517f9695d5ebf5115e7b172f9c06e511f76a01df1de76571b792ff9b6d506f06d3ef9181900360600190a1604080516080810182526000808252602080830182815283850183815260608501848152898552614e379093529483209351845491516001600160a81b0319909216901515610100600160a81b031916176101006001600160a01b03909216919091021783559251600183015591516002909101555b614e3b54811015611f325783614e3b8281548110611eef57611eef6137fe565b90600052602060002001541415611f2057614e3b8181548110611f1457611f146137fe565b60009182526020822001555b80611f2a8161378d565b915050611ecf565b50505050565b6000546001600160a01b03163314611f625760405162461bcd60e51b8152600401610923906135a7565b6001600160a01b038116611fc75760405162461bcd60e51b815260206004820152602660248201527f4f776e61626c653a206e6577206f776e657220697320746865207a65726f206160448201526564647265737360d01b6064820152608401610923565b611fd081612881565b50565b611fdd8130610b8b565b61201f5760405162461bcd60e51b8152602060048201526013602482015272115c9c9bdc881dda5d1a08185c1c1c9bdd985b606a1b6044820152606401610923565b614e3a54600160a01b900460ff166120495760405162461bcd60e51b81526004016109239061357b565b6000818152614e37602052604090205460ff166120a45760405162461bcd60e51b815260206004820152601960248201527854686520746f6b656e206973206e6f7420666f722073616c6560381b6044820152606401610923565b6000818152614e376020526040902060020154156120fa5760405162461bcd60e51b81526020600482015260136024820152724e6f74206c697374656420696e204d6174696360681b6044820152606401610923565b6000818152614e376020526040902060010154341461215b5760405162461bcd60e51b815260206004820152601a60248201527f57726f6e6720616d6f756e74206f66204d617469632073656e740000000000006044820152606401610923565b614e3954600061216d826103e86136fe565b614e3a546000858152614e3760205260409020600101549192506001600160a01b0316906108fc906121a7906103e890611d7e90876123ae565b6040518115909202916000818181858888f193505050501580156121cf573d6000803e3d6000fd5b506000838152614e376020526040902080546001909101546101009091046001600160a01b0316906108fc9061220d906103e890611d7e90866123ae565b6040518115909202916000818181858888f19350505050158015612235573d6000803e3d6000fd5b50612240338461256c565b6000838152614e37602090815260409182902060018101546002909101548351878152928301919091528183015290517f9695d5ebf5115e7b172f9c06e511f76a01df1de76571b792ff9b6d506f06d3ef9181900360600190a1604080516080810182526000808252602080830182815283850183815260608501848152898552614e379093529483209351845491516001600160a81b0319909216901515610100600160a81b031916176101006001600160a01b03909216919091021783559251600183015591516002909101555b614e3b54811015611f325783614e3b8281548110612330576123306137fe565b9060005260206000200154141561236157614e3b8181548110612355576123556137fe565b60009182526020822001555b8061236b8161378d565b915050612310565b600061237f82846136b3565b905082811015610c1357600080fd5b60008282111561239d57600080fd5b6123a782846136fe565b9392505050565b6000826123bd57506000610c13565b6123c782846136df565b9050816123d484836136cb565b14610c1357600080fd5b604080516001600160a01b0385811660248301528416604482015260648082018490528251808303909101815260849091019091526020810180516001600160e01b03166323b872dd60e01b179052611f329085906129e8565b60006001600160a01b0382166124865760405162461bcd60e51b815260206004820152601360248201527221b0b73737ba1036b4b73a103a3790183c181760691b6044820152606401610923565b614e20600954106124d05760405162461bcd60e51b81526020600482015260146024820152732a37b5b2b7103634b6b4ba103932b0b1b432b21760611b6044820152606401610923565b60006124da612aba565b905060095460016124eb91906136b3565b6009556124f88382612c16565b6040516001600160a01b0384169082907ff3cea5493d790af0133817606f7350a91d7f154ea52eaa79d179d4d231e5010290600090a360405181906001600160a01b038516906000907fddf252ad1be2c89b69c2b068fc378daa952ba7f163c4a11628f55a4df523b3ef908290a492915050565b6000818152600260205260409020546001600160a01b031661258d82612ce5565b604080516080810182526000808252602080830182815283850183815260608501848152888552614e37909352949092209251835492516001600160a81b0319909316901515610100600160a81b031916176101006001600160a01b03909316929092029190911782559151600182015590516002909101556126108183612d20565b61261a8383612c16565b81836001600160a01b0316826001600160a01b03167fddf252ad1be2c89b69c2b068fc378daa952ba7f163c4a11628f55a4df523b3ef60405160405180910390a4505050565b60006123a782846136cb565b60008281526002602052604090205482906001600160a01b0316338114806126aa57506000828152600360205260409020546001600160a01b031633145b806126d857506001600160a01b038116600090815260046020908152604080832033845290915290205460ff165b6127175760405162461bcd60e51b815260206004820152601060248201526f21b0b73737ba103a3930b739b332b91760811b6044820152606401610923565b60008481526002602052604090205484906001600160a01b031661274d5760405162461bcd60e51b815260040161092390613553565b6000858152600260205260409020546001600160a01b0390811690881681146127ab5760405162461bcd60e51b815260206004820152601060248201526f24b731b7b93932b1ba1037bbb732b91760811b6044820152606401610923565b6001600160a01b0387166127be57600080fd5b6127c8878761256c565b863b1561287757604051630a85bd0160e11b81526000906001600160a01b0389169063150b7a02906128049033908d908c908c90600401613503565b602060405180830381600087803b15801561281e57600080fd5b505af1158015612832573d6000803e3d6000fd5b505050506040513d601f19601f8201168201806040525081019061285691906132a9565b90506001600160e01b03198116630a85bd0160e11b1461287557600080fd5b505b5050505050505050565b600080546001600160a01b038381166001600160a01b0319831681178455604051919092169283917f8be0079c531659141344cd1fd0a4f28419497f9722a3daafe3b4186f6b6457e09190a35050565b6060816128f55750506040805180820190915260018152600360fc1b602082015290565b8160005b811561291f57806129098161378d565b91506129189050600a836136cb565b91506128f9565b60008167ffffffffffffffff81111561293a5761293a613814565b6040519080825280601f01601f191660200182016040528015612964576020820181803683370190505b50905060006129746001846136fe565b90508593505b83156129df5761298b600a856137a8565b6129969060306136b3565b60f81b82826129a481613741565b9350815181106129b6576129b66137fe565b60200101906001600160f81b031916908160001a9053506129d8600a856136cb565b935061297a565b50949350505050565b6000612a3d826040518060400160405280602081526020017f5361666545524332303a206c6f772d6c6576656c2063616c6c206661696c6564815250856001600160a01b0316612e9f9092919063ffffffff16565b8051909150156113d85780806020019051810190612a5b919061326f565b6113d85760405162461bcd60e51b815260206004820152602a60248201527f5361666545524332303a204552433230206f7065726174696f6e20646964206e6044820152691bdd081cdd58d8d9595960b21b6064820152608401610923565b600080600954614e20612acd91906136fe565b6015546040805160208101929092526bffffffffffffffffffffffff193360601b169082015244605482015242607482015290915060009082906094016040516020818303038152906040528051906020012060001c612b2d91906137a8565b90506000601682614e208110612b4557612b456137fe565b015415612b6957601682614e208110612b6057612b606137fe565b01549050612b6c565b50805b6016612b796001856136fe565b614e208110612b8a57612b8a6137fe565b0154612bb657612b9b6001846136fe565b601683614e208110612baf57612baf6137fe565b0155612bed565b6016612bc36001856136fe565b614e208110612bd457612bd46137fe565b0154601683614e208110612bea57612bea6137fe565b01555b60158054906000612bfd8361378d565b90915550612c0e9050816001612373565b935050505090565b6000818152600260205260409020546001600160a01b031615612c7b5760405162461bcd60e51b815260206004820152601a60248201527f43616e6e6f74206164642c20616c7265616479206f776e65642e0000000000006044820152606401610923565b600081815260026020908152604080832080546001600160a01b0319166001600160a01b038716908117909155808452600583529083208054600181810183558286529385200185905592529054612cd29161238e565b6000918252600660205260409091205550565b6000818152600360205260409020546001600160a01b031615611fd057600090815260036020526040902080546001600160a01b0319169055565b6000818152600260205260409020546001600160a01b03838116911614612d7c5760405162461bcd60e51b815260206004820152601060248201526f24b731b7b93932b1ba1037bbb732b91760811b6044820152606401610923565b600081815260026020908152604080832080546001600160a01b031916905560068252808320546001600160a01b03861684526005909252822054909190612dc590600161238e565b9050818114612e5c576001600160a01b0384166000908152600560205260408120805483908110612df857612df86137fe565b906000526020600020015490508060056000876001600160a01b03166001600160a01b031681526020019081526020016000208481548110612e3c57612e3c6137fe565b600091825260208083209091019290925591825260069052604090208290555b6001600160a01b0384166000908152600560205260409020805480612e8357612e836137e8565b6001900381819060005260206000200160009055905550505050565b6060612eae8484600085612eb6565b949350505050565b606082471015612f175760405162461bcd60e51b815260206004820152602660248201527f416464726573733a20696e73756666696369656e742062616c616e636520666f6044820152651c8818d85b1b60d21b6064820152608401610923565b843b612f655760405162461bcd60e51b815260206004820152601d60248201527f416464726573733a2063616c6c20746f206e6f6e2d636f6e74726163740000006044820152606401610923565b600080866001600160a01b03168587604051612f819190613440565b60006040518083038185875af1925050503d8060008114612fbe576040519150601f19603f3d011682016040523d82523d6000602084013e612fc3565b606091505b5091509150612fd3828286612fde565b979650505050505050565b60608315612fed5750816123a7565b825115612ffd5782518084602001fd5b8160405162461bcd60e51b81526004016109239190613540565b82805461302390613758565b90600052602060002090601f016020900481019282613045576000855561308b565b82601f1061305e57805160ff191683800117855561308b565b8280016001018555821561308b579182015b8281111561308b578251825591602001919060010190613070565b5061309792915061309b565b5090565b5b80821115613097576000815560010161309c565b80356001600160a01b03811681146130c757600080fd5b919050565b6000602082840312156130de57600080fd5b6123a7826130b0565b600080604083850312156130fa57600080fd5b613103836130b0565b9150613111602084016130b0565b90509250929050565b60008060006060848603121561312f57600080fd5b613138846130b0565b9250613146602085016130b0565b9150604084013590509250925092565b60008060008060006080868803121561316e57600080fd5b613177866130b0565b9450613185602087016130b0565b935060408601359250606086013567ffffffffffffffff808211156131a957600080fd5b818801915088601f8301126131bd57600080fd5b8135818111156131cc57600080fd5b8960208285010111156131de57600080fd5b9699959850939650602001949392505050565b6000806040838503121561320457600080fd5b61320d836130b0565b9150602083013561321d8161382a565b809150509250929050565b6000806040838503121561323b57600080fd5b613244836130b0565b946020939093013593505050565b60006020828403121561326457600080fd5b81356123a78161382a565b60006020828403121561328157600080fd5b81516123a78161382a565b60006020828403121561329e57600080fd5b81356123a781613838565b6000602082840312156132bb57600080fd5b81516123a781613838565b6000602082840312156132d857600080fd5b813567ffffffffffffffff808211156132f057600080fd5b818401915084601f83011261330457600080fd5b81358181111561331657613316613814565b604051601f8201601f19908116603f0116810190838211818310171561333e5761333e613814565b8160405282815287602084870101111561335757600080fd5b826020860160208301376000928101602001929092525095945050505050565b60006020828403121561338957600080fd5b5035919050565b6000602082840312156133a257600080fd5b5051919050565b600080604083850312156133bc57600080fd5b82359150613111602084016130b0565b6000806000606084860312156133e157600080fd5b505081359360208301359350604090920135919050565b60008151808452613410816020860160208601613715565b601f01601f19169290920160200192915050565b60008151613436818560208601613715565b9290920192915050565b60008251613452818460208701613715565b9190910192915050565b600080845481600182811c91508083168061347857607f831692505b602080841082141561349857634e487b7160e01b86526022600452602486fd5b8180156134ac57600181146134bd576134ea565b60ff198616895284890196506134ea565b60008b81526020902060005b868110156134e25781548b8201529085019083016134c9565b505084890196505b5050505050506134fa8185613424565b95945050505050565b6001600160a01b0385811682528416602082015260408101839052608060608201819052600090613536908301846133f8565b9695505050505050565b6020815260006123a760208301846133f8565b6020808252600e908201526d24b73b30b634b2103a37b5b2b71760911b604082015260600190565b60208082526012908201527113585c9ad95d081b9bdd081cdd185c9d195960721b604082015260600190565b6020808252818101527f4f776e61626c653a2063616c6c6572206973206e6f7420746865206f776e6572604082015260600190565b60208082526029908201527f596f752063616e206e6f7420627579206d6f7265207468616e203230204e465460408201526873206174206f6e636560b81b606082015260800190565b60208082526022908201527f596f7520617265206e6f7420746865206f776e6572206f662074686520746f6b60408201526132b760f11b606082015260800190565b6020808252602c908201527f457863656564732072656d61696e696e67207072696d6172792073616c65206f60408201526b66204d415449432073616c6560a01b606082015260800190565b600082198211156136c6576136c66137bc565b500190565b6000826136da576136da6137d2565b500490565b60008160001904831182151516156136f9576136f96137bc565b500290565b600082821015613710576137106137bc565b500390565b60005b83811015613730578181015183820152602001613718565b83811115611f325750506000910152565b600081613750576137506137bc565b506000190190565b600181811c9082168061376c57607f821691505b60208210811415610a3e57634e487b7160e01b600052602260045260246000fd5b60006000198214156137a1576137a16137bc565b5060010190565b6000826137b7576137b76137d2565b500690565b634e487b7160e01b600052601160045260246000fd5b634e487b7160e01b600052601260045260246000fd5b634e487b7160e01b600052603160045260246000fd5b634e487b7160e01b600052603260045260246000fd5b634e487b7160e01b600052604160045260246000fd5b8015158114611fd057600080fd5b6001600160e01b031981168114611fd057600080fdfea2646970667358221220c8db05cf352415511437ecd65dda5fd62b43a8bd19aa56b5ff74ffa99fd1f37f64736f6c63430008070033",
			"opcodes": "PUSH1 0xC0 PUSH1 0x40 MSTORE PUSH1 0xA PUSH1 0x80 DUP2 SWAP1 MSTORE PUSH10 0x506F6C794865726F6573 PUSH1 0xB0 SHL PUSH1 0xA0 SWAP1 DUP2 MSTORE PUSH3 0x2D SWAP2 PUSH1 0x7 SWAP2 SWAP1 PUSH3 0x25D JUMP JUMPDEST POP PUSH1 0x40 DUP1 MLOAD DUP1 DUP3 ADD SWAP1 SWAP2 MSTORE PUSH1 0xA DUP1 DUP3 MSTORE PUSH10 0x506F6C794865726F6573 PUSH1 0xB0 SHL PUSH1 0x20 SWAP1 SWAP3 ADD SWAP2 DUP3 MSTORE PUSH3 0x61 SWAP2 PUSH1 0x8 SWAP2 PUSH3 0x25D JUMP JUMPDEST POP PUSH1 0x0 PUSH1 0x9 DUP2 SWAP1 SSTORE PUSH1 0xA DUP2 SWAP1 SSTORE PUSH2 0x2710 PUSH1 0xB DUP2 SWAP1 SSTORE PUSH1 0xC SSTORE PUSH1 0xF DUP1 SLOAD PUSH1 0xFF PUSH1 0xA0 SHL NOT SWAP1 DUP2 AND SWAP1 SWAP2 SSTORE PUSH7 0x470DE4DF820000 PUSH1 0x10 SSTORE PUSH9 0x56BC75E2D63100000 PUSH1 0x11 SSTORE PUSH1 0x15 SWAP2 SWAP1 SWAP2 SSTORE PUSH2 0x4E36 DUP1 SLOAD PUSH1 0xFF NOT AND SWAP1 SSTORE PUSH2 0x4E3A DUP1 SLOAD SWAP1 SWAP2 AND SWAP1 SSTORE CALLVALUE DUP1 ISZERO PUSH3 0xC9 JUMPI PUSH1 0x0 DUP1 REVERT JUMPDEST POP PUSH1 0x40 MLOAD PUSH3 0x3C61 CODESIZE SUB DUP1 PUSH3 0x3C61 DUP4 CODECOPY DUP2 ADD PUSH1 0x40 DUP2 SWAP1 MSTORE PUSH3 0xEC SWAP2 PUSH3 0x303 JUMP JUMPDEST PUSH3 0xF7 CALLER PUSH3 0x20D JUMP JUMPDEST PUSH1 0x1 PUSH1 0x20 DUP2 SWAP1 MSTORE PUSH32 0xB45820386466A8E01597D6E1EFAF8F11BA4467972DE5CA6C1F8AA3544AC2888E DUP1 SLOAD PUSH1 0xFF NOT SWAP1 DUP2 AND DUP4 OR SWAP1 SWAP2 SSTORE PUSH32 0xB8349D7B7B0B2B924BF96F90971CDA8C7AC1EA4CDE292A182BD2A203EEF6C5D0 DUP1 SLOAD DUP3 AND DUP4 OR SWAP1 SSTORE PUSH32 0xE20BD7B4297895BDD985FAAC9360F413D46658B4C96E853899576249F1474AB DUP1 SLOAD DUP3 AND DUP4 OR SWAP1 SSTORE PUSH4 0x5B5E139F PUSH1 0xE0 SHL PUSH1 0x0 MSTORE PUSH32 0xCE9309D5FE1C6050FDFDE39D28CA0616E34393306D1CBA1A247C40F9EF5C5D09 DUP1 SLOAD SWAP1 SWAP2 AND SWAP1 SWAP2 OR SWAP1 SSTORE PUSH2 0x4E39 SWAP2 SWAP1 SWAP2 SSTORE PUSH2 0x4E3A DUP1 SLOAD PUSH1 0x1 PUSH1 0x1 PUSH1 0xA0 SHL SUB NOT SWAP1 DUP2 AND PUSH1 0x1 PUSH1 0x1 PUSH1 0xA0 SHL SUB SWAP4 DUP5 AND OR SWAP1 SWAP2 SSTORE PUSH1 0xE DUP1 SLOAD DUP3 AND SWAP6 DUP4 AND SWAP6 SWAP1 SWAP6 OR SWAP1 SWAP5 SSTORE PUSH1 0xF DUP1 SLOAD DUP6 AND SWAP4 DUP3 AND SWAP4 SWAP1 SWAP4 OR SWAP1 SWAP3 SSTORE PUSH1 0x13 DUP1 SLOAD SWAP1 SWAP4 AND SWAP2 AND OR SWAP1 SSTORE PUSH3 0x3CD JUMP JUMPDEST PUSH1 0x0 DUP1 SLOAD PUSH1 0x1 PUSH1 0x1 PUSH1 0xA0 SHL SUB DUP4 DUP2 AND PUSH1 0x1 PUSH1 0x1 PUSH1 0xA0 SHL SUB NOT DUP4 AND DUP2 OR DUP5 SSTORE PUSH1 0x40 MLOAD SWAP2 SWAP1 SWAP3 AND SWAP3 DUP4 SWAP2 PUSH32 0x8BE0079C531659141344CD1FD0A4F28419497F9722A3DAAFE3B4186F6B6457E0 SWAP2 SWAP1 LOG3 POP POP JUMP JUMPDEST DUP3 DUP1 SLOAD PUSH3 0x26B SWAP1 PUSH3 0x377 JUMP JUMPDEST SWAP1 PUSH1 0x0 MSTORE PUSH1 0x20 PUSH1 0x0 KECCAK256 SWAP1 PUSH1 0x1F ADD PUSH1 0x20 SWAP1 DIV DUP2 ADD SWAP3 DUP3 PUSH3 0x28F JUMPI PUSH1 0x0 DUP6 SSTORE PUSH3 0x2DA JUMP JUMPDEST DUP3 PUSH1 0x1F LT PUSH3 0x2AA JUMPI DUP1 MLOAD PUSH1 0xFF NOT AND DUP4 DUP1 ADD OR DUP6 SSTORE PUSH3 0x2DA JUMP JUMPDEST DUP3 DUP1 ADD PUSH1 0x1 ADD DUP6 SSTORE DUP3 ISZERO PUSH3 0x2DA JUMPI SWAP2 DUP3 ADD JUMPDEST DUP3 DUP2 GT ISZERO PUSH3 0x2DA JUMPI DUP3 MLOAD DUP3 SSTORE SWAP2 PUSH1 0x20 ADD SWAP2 SWAP1 PUSH1 0x1 ADD SWAP1 PUSH3 0x2BD JUMP JUMPDEST POP PUSH3 0x2E8 SWAP3 SWAP2 POP PUSH3 0x2EC JUMP JUMPDEST POP SWAP1 JUMP JUMPDEST JUMPDEST DUP1 DUP3 GT ISZERO PUSH3 0x2E8 JUMPI PUSH1 0x0 DUP2 SSTORE PUSH1 0x1 ADD PUSH3 0x2ED JUMP JUMPDEST PUSH1 0x0 DUP1 PUSH1 0x0 DUP1 PUSH1 0x0 PUSH1 0xA0 DUP7 DUP9 SUB SLT ISZERO PUSH3 0x31C JUMPI PUSH1 0x0 DUP1 REVERT JUMPDEST DUP6 MLOAD PUSH3 0x329 DUP2 PUSH3 0x3B4 JUMP JUMPDEST PUSH1 0x20 DUP8 ADD MLOAD SWAP1 SWAP6 POP PUSH3 0x33C DUP2 PUSH3 0x3B4 JUMP JUMPDEST PUSH1 0x40 DUP8 ADD MLOAD SWAP1 SWAP5 POP PUSH3 0x34F DUP2 PUSH3 0x3B4 JUMP JUMPDEST PUSH1 0x60 DUP8 ADD MLOAD PUSH1 0x80 DUP9 ADD MLOAD SWAP2 SWAP5 POP SWAP3 POP PUSH3 0x369 DUP2 PUSH3 0x3B4 JUMP JUMPDEST DUP1 SWAP2 POP POP SWAP3 SWAP6 POP SWAP3 SWAP6 SWAP1 SWAP4 POP JUMP JUMPDEST PUSH1 0x1 DUP2 DUP2 SHR SWAP1 DUP3 AND DUP1 PUSH3 0x38C JUMPI PUSH1 0x7F DUP3 AND SWAP2 POP JUMPDEST PUSH1 0x20 DUP3 LT DUP2 EQ ISZERO PUSH3 0x3AE JUMPI PUSH4 0x4E487B71 PUSH1 0xE0 SHL PUSH1 0x0 MSTORE PUSH1 0x22 PUSH1 0x4 MSTORE PUSH1 0x24 PUSH1 0x0 REVERT JUMPDEST POP SWAP2 SWAP1 POP JUMP JUMPDEST PUSH1 0x1 PUSH1 0x1 PUSH1 0xA0 SHL SUB DUP2 AND DUP2 EQ PUSH3 0x3CA JUMPI PUSH1 0x0 DUP1 REVERT JUMPDEST POP JUMP JUMPDEST PUSH2 0x3884 DUP1 PUSH3 0x3DD PUSH1 0x0 CODECOPY PUSH1 0x0 RETURN INVALID PUSH1 0x80 PUSH1 0x40 MSTORE PUSH1 0x4 CALLDATASIZE LT PUSH2 0x293 JUMPI PUSH1 0x0 CALLDATALOAD PUSH1 0xE0 SHR DUP1 PUSH4 0x6EF25C3A GT PUSH2 0x15A JUMPI DUP1 PUSH4 0xB88D4FDE GT PUSH2 0xC1 JUMPI DUP1 PUSH4 0xED38B79C GT PUSH2 0x7A JUMPI DUP1 PUSH4 0xED38B79C EQ PUSH2 0x849 JUMPI DUP1 PUSH4 0xF25F4B56 EQ PUSH2 0x85F JUMPI DUP1 PUSH4 0xF2FDE38B EQ PUSH2 0x880 JUMPI DUP1 PUSH4 0xF79E4164 EQ PUSH2 0x8A0 JUMPI DUP1 PUSH4 0xF9AE7AAF EQ PUSH2 0x8C6 JUMPI DUP1 PUSH4 0xFBEC6F21 EQ PUSH2 0x8D9 JUMPI PUSH1 0x0 DUP1 REVERT JUMPDEST DUP1 PUSH4 0xB88D4FDE EQ PUSH2 0x747 JUMPI DUP1 PUSH4 0xC2DB2C42 EQ PUSH2 0x767 JUMPI DUP1 PUSH4 0xC87B56DD EQ PUSH2 0x79E JUMPI DUP1 PUSH4 0xD4C66861 EQ PUSH2 0x7BE JUMPI DUP1 PUSH4 0xE0E081D7 EQ PUSH2 0x7DE JUMPI DUP1 PUSH4 0xE985E9C5 EQ PUSH2 0x800 JUMPI PUSH1 0x0 DUP1 REVERT JUMPDEST DUP1 PUSH4 0x95D89B41 GT PUSH2 0x113 JUMPI DUP1 PUSH4 0x95D89B41 EQ PUSH2 0x6A8 JUMPI DUP1 PUSH4 0x9ABC8320 EQ PUSH2 0x6BD JUMPI DUP1 PUSH4 0x9B642DE1 EQ PUSH2 0x6D2 JUMPI DUP1 PUSH4 0xA22CB465 EQ PUSH2 0x6F2 JUMPI DUP1 PUSH4 0xB03053B6 EQ PUSH2 0x712 JUMPI DUP1 PUSH4 0xB66A0E5D EQ PUSH2 0x732 JUMPI PUSH1 0x0 DUP1 REVERT JUMPDEST DUP1 PUSH4 0x6EF25C3A EQ PUSH2 0x5A4 JUMPI DUP1 PUSH4 0x70A08231 EQ PUSH2 0x5BB JUMPI DUP1 PUSH4 0x715018A6 EQ PUSH2 0x5DB JUMPI DUP1 PUSH4 0x75BEA166 EQ PUSH2 0x5F0 JUMPI DUP1 PUSH4 0x80C9419E EQ PUSH2 0x610 JUMPI DUP1 PUSH4 0x8DA5CB5B EQ PUSH2 0x68A JUMPI PUSH1 0x0 DUP1 REVERT JUMPDEST DUP1 PUSH4 0x20D1FC62 GT PUSH2 0x1FE JUMPI DUP1 PUSH4 0x44C66BE7 GT PUSH2 0x1B7 JUMPI DUP1 PUSH4 0x44C66BE7 EQ PUSH2 0x4F9 JUMPI DUP1 PUSH4 0x479AD4C3 EQ PUSH2 0x50E JUMPI DUP1 PUSH4 0x4C211C28 EQ PUSH2 0x52E JUMPI DUP1 PUSH4 0x4F6CCCE7 EQ PUSH2 0x544 JUMPI DUP1 PUSH4 0x6352211E EQ PUSH2 0x564 JUMPI DUP1 PUSH4 0x69FE0E2D EQ PUSH2 0x584 JUMPI PUSH1 0x0 DUP1 REVERT JUMPDEST DUP1 PUSH4 0x20D1FC62 EQ PUSH2 0x445 JUMPI DUP1 PUSH4 0x23B872DD EQ PUSH2 0x465 JUMPI DUP1 PUSH4 0x2DB11544 EQ PUSH2 0x485 JUMPI DUP1 PUSH4 0x2F745C59 EQ PUSH2 0x498 JUMPI DUP1 PUSH4 0x33BC1C5C EQ PUSH2 0x4B8 JUMPI DUP1 PUSH4 0x42842E0E EQ PUSH2 0x4D9 JUMPI PUSH1 0x0 DUP1 REVERT JUMPDEST DUP1 PUSH4 0xCEF3DF1 GT PUSH2 0x250 JUMPI DUP1 PUSH4 0xCEF3DF1 EQ PUSH2 0x3A7 JUMPI DUP1 PUSH4 0x10A15CC8 EQ PUSH2 0x3C7 JUMPI DUP1 PUSH4 0x18160DDD EQ PUSH2 0x3DA JUMPI DUP1 PUSH4 0x1BCD39AA EQ PUSH2 0x3EF JUMPI DUP1 PUSH4 0x1CBAEE2D EQ PUSH2 0x40F JUMPI DUP1 PUSH4 0x1D2E5A3A EQ PUSH2 0x425 JUMPI PUSH1 0x0 DUP1 REVERT JUMPDEST DUP1 PUSH4 0x1FFC9A7 EQ PUSH2 0x298 JUMPI DUP1 PUSH4 0x31BD4C4 EQ PUSH2 0x2E7 JUMPI DUP1 PUSH4 0x612C478 EQ PUSH2 0x30B JUMPI DUP1 PUSH4 0x6FDDE03 EQ PUSH2 0x32D JUMPI DUP1 PUSH4 0x81812FC EQ PUSH2 0x34F JUMPI DUP1 PUSH4 0x95EA7B3 EQ PUSH2 0x387 JUMPI JUMPDEST PUSH1 0x0 DUP1 REVERT JUMPDEST CALLVALUE DUP1 ISZERO PUSH2 0x2A4 JUMPI PUSH1 0x0 DUP1 REVERT JUMPDEST POP PUSH2 0x2D2 PUSH2 0x2B3 CALLDATASIZE PUSH1 0x4 PUSH2 0x328C JUMP JUMPDEST PUSH1 0x1 PUSH1 0x1 PUSH1 0xE0 SHL SUB NOT AND PUSH1 0x0 SWAP1 DUP2 MSTORE PUSH1 0x1 PUSH1 0x20 MSTORE PUSH1 0x40 SWAP1 KECCAK256 SLOAD PUSH1 0xFF AND SWAP1 JUMP JUMPDEST PUSH1 0x40 MLOAD SWAP1 ISZERO ISZERO DUP2 MSTORE PUSH1 0x20 ADD JUMPDEST PUSH1 0x40 MLOAD DUP1 SWAP2 SUB SWAP1 RETURN JUMPDEST CALLVALUE DUP1 ISZERO PUSH2 0x2F3 JUMPI PUSH1 0x0 DUP1 REVERT JUMPDEST POP PUSH2 0x2FD PUSH2 0x4E20 DUP2 JUMP JUMPDEST PUSH1 0x40 MLOAD SWAP1 DUP2 MSTORE PUSH1 0x20 ADD PUSH2 0x2DE JUMP JUMPDEST CALLVALUE DUP1 ISZERO PUSH2 0x317 JUMPI PUSH1 0x0 DUP1 REVERT JUMPDEST POP PUSH2 0x32B PUSH2 0x326 CALLDATASIZE PUSH1 0x4 PUSH2 0x33A9 JUMP JUMPDEST PUSH2 0x8F9 JUMP JUMPDEST STOP JUMPDEST CALLVALUE DUP1 ISZERO PUSH2 0x339 JUMPI PUSH1 0x0 DUP1 REVERT JUMPDEST POP PUSH2 0x342 PUSH2 0x95B JUMP JUMPDEST PUSH1 0x40 MLOAD PUSH2 0x2DE SWAP2 SWAP1 PUSH2 0x3540 JUMP JUMPDEST CALLVALUE DUP1 ISZERO PUSH2 0x35B JUMPI PUSH1 0x0 DUP1 REVERT JUMPDEST POP PUSH2 0x36F PUSH2 0x36A CALLDATASIZE PUSH1 0x4 PUSH2 0x3377 JUMP JUMPDEST PUSH2 0x9ED JUMP JUMPDEST PUSH1 0x40 MLOAD PUSH1 0x1 PUSH1 0x1 PUSH1 0xA0 SHL SUB SWAP1 SWAP2 AND DUP2 MSTORE PUSH1 0x20 ADD PUSH2 0x2DE JUMP JUMPDEST CALLVALUE DUP1 ISZERO PUSH2 0x393 JUMPI PUSH1 0x0 DUP1 REVERT JUMPDEST POP PUSH2 0x32B PUSH2 0x3A2 CALLDATASIZE PUSH1 0x4 PUSH2 0x3228 JUMP JUMPDEST PUSH2 0xA44 JUMP JUMPDEST CALLVALUE DUP1 ISZERO PUSH2 0x3B3 JUMPI PUSH1 0x0 DUP1 REVERT JUMPDEST POP PUSH2 0x2D2 PUSH2 0x3C2 CALLDATASIZE PUSH1 0x4 PUSH2 0x33A9 JUMP JUMPDEST PUSH2 0xB8B JUMP JUMPDEST PUSH2 0x32B PUSH2 0x3D5 CALLDATASIZE PUSH1 0x4 PUSH2 0x3377 JUMP JUMPDEST PUSH2 0xC19 JUMP JUMPDEST CALLVALUE DUP1 ISZERO PUSH2 0x3E6 JUMPI PUSH1 0x0 DUP1 REVERT JUMPDEST POP PUSH1 0x9 SLOAD PUSH2 0x2FD JUMP JUMPDEST CALLVALUE DUP1 ISZERO PUSH2 0x3FB JUMPI PUSH1 0x0 DUP1 REVERT JUMPDEST POP PUSH2 0x32B PUSH2 0x40A CALLDATASIZE PUSH1 0x4 PUSH2 0x30CC JUMP JUMPDEST PUSH2 0xDB9 JUMP JUMPDEST CALLVALUE DUP1 ISZERO PUSH2 0x41B JUMPI PUSH1 0x0 DUP1 REVERT JUMPDEST POP PUSH2 0x2FD PUSH1 0x14 SLOAD DUP2 JUMP JUMPDEST CALLVALUE DUP1 ISZERO PUSH2 0x431 JUMPI PUSH1 0x0 DUP1 REVERT JUMPDEST POP PUSH2 0x32B PUSH2 0x440 CALLDATASIZE PUSH1 0x4 PUSH2 0x3252 JUMP JUMPDEST PUSH2 0xE0C JUMP JUMPDEST CALLVALUE DUP1 ISZERO PUSH2 0x451 JUMPI PUSH1 0x0 DUP1 REVERT JUMPDEST POP PUSH2 0x32B PUSH2 0x460 CALLDATASIZE PUSH1 0x4 PUSH2 0x311A JUMP JUMPDEST PUSH2 0xE55 JUMP JUMPDEST CALLVALUE DUP1 ISZERO PUSH2 0x471 JUMPI PUSH1 0x0 DUP1 REVERT JUMPDEST POP PUSH2 0x32B PUSH2 0x480 CALLDATASIZE PUSH1 0x4 PUSH2 0x311A JUMP JUMPDEST PUSH2 0xF7C JUMP JUMPDEST PUSH2 0x32B PUSH2 0x493 CALLDATASIZE PUSH1 0x4 PUSH2 0x3377 JUMP JUMPDEST PUSH2 0x111D JUMP JUMPDEST CALLVALUE DUP1 ISZERO PUSH2 0x4A4 JUMPI PUSH1 0x0 DUP1 REVERT JUMPDEST POP PUSH2 0x2FD PUSH2 0x4B3 CALLDATASIZE PUSH1 0x4 PUSH2 0x3228 JUMP JUMPDEST PUSH2 0x135C JUMP JUMPDEST CALLVALUE DUP1 ISZERO PUSH2 0x4C4 JUMPI PUSH1 0x0 DUP1 REVERT JUMPDEST POP PUSH1 0xF SLOAD PUSH2 0x2D2 SWAP1 PUSH1 0x1 PUSH1 0xA0 SHL SWAP1 DIV PUSH1 0xFF AND DUP2 JUMP JUMPDEST CALLVALUE DUP1 ISZERO PUSH2 0x4E5 JUMPI PUSH1 0x0 DUP1 REVERT JUMPDEST POP PUSH2 0x32B PUSH2 0x4F4 CALLDATASIZE PUSH1 0x4 PUSH2 0x311A JUMP JUMPDEST PUSH2 0x13BD JUMP JUMPDEST CALLVALUE DUP1 ISZERO PUSH2 0x505 JUMPI PUSH1 0x0 DUP1 REVERT JUMPDEST POP PUSH2 0x2FD PUSH2 0x13DD JUMP JUMPDEST CALLVALUE DUP1 ISZERO PUSH2 0x51A JUMPI PUSH1 0x0 DUP1 REVERT JUMPDEST POP PUSH2 0x32B PUSH2 0x529 CALLDATASIZE PUSH1 0x4 PUSH2 0x3377 JUMP JUMPDEST PUSH2 0x13FB JUMP JUMPDEST CALLVALUE DUP1 ISZERO PUSH2 0x53A JUMPI PUSH1 0x0 DUP1 REVERT JUMPDEST POP PUSH2 0x2FD PUSH1 0xB SLOAD DUP2 JUMP JUMPDEST CALLVALUE DUP1 ISZERO PUSH2 0x550 JUMPI PUSH1 0x0 DUP1 REVERT JUMPDEST POP PUSH2 0x2FD PUSH2 0x55F CALLDATASIZE PUSH1 0x4 PUSH2 0x3377 JUMP JUMPDEST PUSH2 0x156D JUMP JUMPDEST CALLVALUE DUP1 ISZERO PUSH2 0x570 JUMPI PUSH1 0x0 DUP1 REVERT JUMPDEST POP PUSH2 0x36F PUSH2 0x57F CALLDATASIZE PUSH1 0x4 PUSH2 0x3377 JUMP JUMPDEST PUSH2 0x1588 JUMP JUMPDEST CALLVALUE DUP1 ISZERO PUSH2 0x590 JUMPI PUSH1 0x0 DUP1 REVERT JUMPDEST POP PUSH2 0x32B PUSH2 0x59F CALLDATASIZE PUSH1 0x4 PUSH2 0x3377 JUMP JUMPDEST PUSH2 0x15C5 JUMP JUMPDEST CALLVALUE DUP1 ISZERO PUSH2 0x5B0 JUMPI PUSH1 0x0 DUP1 REVERT JUMPDEST POP PUSH2 0x2FD PUSH2 0x4E39 SLOAD DUP2 JUMP JUMPDEST CALLVALUE DUP1 ISZERO PUSH2 0x5C7 JUMPI PUSH1 0x0 DUP1 REVERT JUMPDEST POP PUSH2 0x2FD PUSH2 0x5D6 CALLDATASIZE PUSH1 0x4 PUSH2 0x30CC JUMP JUMPDEST PUSH2 0x15F5 JUMP JUMPDEST CALLVALUE DUP1 ISZERO PUSH2 0x5E7 JUMPI PUSH1 0x0 DUP1 REVERT JUMPDEST POP PUSH2 0x32B PUSH2 0x1628 JUMP JUMPDEST CALLVALUE DUP1 ISZERO PUSH2 0x5FC JUMPI PUSH1 0x0 DUP1 REVERT JUMPDEST POP PUSH2 0x2FD PUSH2 0x60B CALLDATASIZE PUSH1 0x4 PUSH2 0x3377 JUMP JUMPDEST PUSH2 0x165E JUMP JUMPDEST CALLVALUE DUP1 ISZERO PUSH2 0x61C JUMPI PUSH1 0x0 DUP1 REVERT JUMPDEST POP PUSH2 0x660 PUSH2 0x62B CALLDATASIZE PUSH1 0x4 PUSH2 0x3377 JUMP JUMPDEST PUSH2 0x4E37 PUSH1 0x20 MSTORE PUSH1 0x0 SWAP1 DUP2 MSTORE PUSH1 0x40 SWAP1 KECCAK256 DUP1 SLOAD PUSH1 0x1 DUP3 ADD SLOAD PUSH1 0x2 SWAP1 SWAP3 ADD SLOAD PUSH1 0xFF DUP3 AND SWAP3 PUSH2 0x100 SWAP1 SWAP3 DIV PUSH1 0x1 PUSH1 0x1 PUSH1 0xA0 SHL SUB AND SWAP2 SWAP1 DUP5 JUMP JUMPDEST PUSH1 0x40 DUP1 MLOAD SWAP5 ISZERO ISZERO DUP6 MSTORE PUSH1 0x1 PUSH1 0x1 PUSH1 0xA0 SHL SUB SWAP1 SWAP4 AND PUSH1 0x20 DUP6 ADD MSTORE SWAP2 DUP4 ADD MSTORE PUSH1 0x60 DUP3 ADD MSTORE PUSH1 0x80 ADD PUSH2 0x2DE JUMP JUMPDEST CALLVALUE DUP1 ISZERO PUSH2 0x696 JUMPI PUSH1 0x0 DUP1 REVERT JUMPDEST POP PUSH1 0x0 SLOAD PUSH1 0x1 PUSH1 0x1 PUSH1 0xA0 SHL SUB AND PUSH2 0x36F JUMP JUMPDEST CALLVALUE DUP1 ISZERO PUSH2 0x6B4 JUMPI PUSH1 0x0 DUP1 REVERT JUMPDEST POP PUSH2 0x342 PUSH2 0x1680 JUMP JUMPDEST CALLVALUE DUP1 ISZERO PUSH2 0x6C9 JUMPI PUSH1 0x0 DUP1 REVERT JUMPDEST POP PUSH2 0x342 PUSH2 0x168F JUMP JUMPDEST CALLVALUE DUP1 ISZERO PUSH2 0x6DE JUMPI PUSH1 0x0 DUP1 REVERT JUMPDEST POP PUSH2 0x32B PUSH2 0x6ED CALLDATASIZE PUSH1 0x4 PUSH2 0x32C6 JUMP JUMPDEST PUSH2 0x171D JUMP JUMPDEST CALLVALUE DUP1 ISZERO PUSH2 0x6FE JUMPI PUSH1 0x0 DUP1 REVERT JUMPDEST POP PUSH2 0x32B PUSH2 0x70D CALLDATASIZE PUSH1 0x4 PUSH2 0x31F1 JUMP JUMPDEST PUSH2 0x175A JUMP JUMPDEST CALLVALUE DUP1 ISZERO PUSH2 0x71E JUMPI PUSH1 0x0 DUP1 REVERT JUMPDEST POP PUSH2 0x32B PUSH2 0x72D CALLDATASIZE PUSH1 0x4 PUSH2 0x33CC JUMP JUMPDEST PUSH2 0x17C6 JUMP JUMPDEST CALLVALUE DUP1 ISZERO PUSH2 0x73E JUMPI PUSH1 0x0 DUP1 REVERT JUMPDEST POP PUSH2 0x32B PUSH2 0x1914 JUMP JUMPDEST CALLVALUE DUP1 ISZERO PUSH2 0x753 JUMPI PUSH1 0x0 DUP1 REVERT JUMPDEST POP PUSH2 0x32B PUSH2 0x762 CALLDATASIZE PUSH1 0x4 PUSH2 0x3156 JUMP JUMPDEST PUSH2 0x196E JUMP JUMPDEST CALLVALUE DUP1 ISZERO PUSH2 0x773 JUMPI PUSH1 0x0 DUP1 REVERT JUMPDEST POP PUSH2 0x36F PUSH2 0x782 CALLDATASIZE PUSH1 0x4 PUSH2 0x3377 JUMP JUMPDEST PUSH2 0x4E38 PUSH1 0x20 MSTORE PUSH1 0x0 SWAP1 DUP2 MSTORE PUSH1 0x40 SWAP1 KECCAK256 SLOAD PUSH1 0x1 PUSH1 0x1 PUSH1 0xA0 SHL SUB AND DUP2 JUMP JUMPDEST CALLVALUE DUP1 ISZERO PUSH2 0x7AA JUMPI PUSH1 0x0 DUP1 REVERT JUMPDEST POP PUSH2 0x342 PUSH2 0x7B9 CALLDATASIZE PUSH1 0x4 PUSH2 0x3377 JUMP JUMPDEST PUSH2 0x19B0 JUMP JUMPDEST CALLVALUE DUP1 ISZERO PUSH2 0x7CA JUMPI PUSH1 0x0 DUP1 REVERT JUMPDEST POP PUSH2 0x32B PUSH2 0x7D9 CALLDATASIZE PUSH1 0x4 PUSH2 0x3377 JUMP JUMPDEST PUSH2 0x1A1C JUMP JUMPDEST CALLVALUE DUP1 ISZERO PUSH2 0x7EA JUMPI PUSH1 0x0 DUP1 REVERT JUMPDEST POP PUSH2 0x4E3A SLOAD PUSH2 0x2D2 SWAP1 PUSH1 0x1 PUSH1 0xA0 SHL SWAP1 DIV PUSH1 0xFF AND DUP2 JUMP JUMPDEST CALLVALUE DUP1 ISZERO PUSH2 0x80C JUMPI PUSH1 0x0 DUP1 REVERT JUMPDEST POP PUSH2 0x2D2 PUSH2 0x81B CALLDATASIZE PUSH1 0x4 PUSH2 0x30E7 JUMP JUMPDEST PUSH1 0x1 PUSH1 0x1 PUSH1 0xA0 SHL SUB SWAP2 DUP3 AND PUSH1 0x0 SWAP1 DUP2 MSTORE PUSH1 0x4 PUSH1 0x20 SWAP1 DUP2 MSTORE PUSH1 0x40 DUP1 DUP4 KECCAK256 SWAP4 SWAP1 SWAP5 AND DUP3 MSTORE SWAP2 SWAP1 SWAP2 MSTORE KECCAK256 SLOAD PUSH1 0xFF AND SWAP1 JUMP JUMPDEST CALLVALUE DUP1 ISZERO PUSH2 0x855 JUMPI PUSH1 0x0 DUP1 REVERT JUMPDEST POP PUSH2 0x2FD PUSH1 0xC SLOAD DUP2 JUMP JUMPDEST CALLVALUE DUP1 ISZERO PUSH2 0x86B JUMPI PUSH1 0x0 DUP1 REVERT JUMPDEST POP PUSH2 0x4E3A SLOAD PUSH2 0x36F SWAP1 PUSH1 0x1 PUSH1 0x1 PUSH1 0xA0 SHL SUB AND DUP2 JUMP JUMPDEST CALLVALUE DUP1 ISZERO PUSH2 0x88C JUMPI PUSH1 0x0 DUP1 REVERT JUMPDEST POP PUSH2 0x32B PUSH2 0x89B CALLDATASIZE PUSH1 0x4 PUSH2 0x30CC JUMP JUMPDEST PUSH2 0x1F38 JUMP JUMPDEST CALLVALUE DUP1 ISZERO PUSH2 0x8AC JUMPI PUSH1 0x0 DUP1 REVERT JUMPDEST POP PUSH2 0x4E36 SLOAD PUSH2 0x36F SWAP1 PUSH2 0x100 SWAP1 DIV PUSH1 0x1 PUSH1 0x1 PUSH1 0xA0 SHL SUB AND DUP2 JUMP JUMPDEST PUSH2 0x32B PUSH2 0x8D4 CALLDATASIZE PUSH1 0x4 PUSH2 0x3377 JUMP JUMPDEST PUSH2 0x1FD3 JUMP JUMPDEST CALLVALUE DUP1 ISZERO PUSH2 0x8E5 JUMPI PUSH1 0x0 DUP1 REVERT JUMPDEST POP PUSH1 0x13 SLOAD PUSH2 0x36F SWAP1 PUSH1 0x1 PUSH1 0x1 PUSH1 0xA0 SHL SUB AND DUP2 JUMP JUMPDEST PUSH1 0x0 SLOAD PUSH1 0x1 PUSH1 0x1 PUSH1 0xA0 SHL SUB AND CALLER EQ PUSH2 0x92C JUMPI PUSH1 0x40 MLOAD PUSH3 0x461BCD PUSH1 0xE5 SHL DUP2 MSTORE PUSH1 0x4 ADD PUSH2 0x923 SWAP1 PUSH2 0x35A7 JUMP JUMPDEST PUSH1 0x40 MLOAD DUP1 SWAP2 SUB SWAP1 REVERT JUMPDEST PUSH1 0x0 SWAP2 DUP3 MSTORE PUSH2 0x4E38 PUSH1 0x20 MSTORE PUSH1 0x40 SWAP1 SWAP2 KECCAK256 DUP1 SLOAD PUSH1 0x1 PUSH1 0x1 PUSH1 0xA0 SHL SUB NOT AND PUSH1 0x1 PUSH1 0x1 PUSH1 0xA0 SHL SUB SWAP1 SWAP3 AND SWAP2 SWAP1 SWAP2 OR SWAP1 SSTORE JUMP JUMPDEST PUSH1 0x60 PUSH1 0x7 DUP1 SLOAD PUSH2 0x96A SWAP1 PUSH2 0x3758 JUMP JUMPDEST DUP1 PUSH1 0x1F ADD PUSH1 0x20 DUP1 SWAP2 DIV MUL PUSH1 0x20 ADD PUSH1 0x40 MLOAD SWAP1 DUP2 ADD PUSH1 0x40 MSTORE DUP1 SWAP3 SWAP2 SWAP1 DUP2 DUP2 MSTORE PUSH1 0x20 ADD DUP3 DUP1 SLOAD PUSH2 0x996 SWAP1 PUSH2 0x3758 JUMP JUMPDEST DUP1 ISZERO PUSH2 0x9E3 JUMPI DUP1 PUSH1 0x1F LT PUSH2 0x9B8 JUMPI PUSH2 0x100 DUP1 DUP4 SLOAD DIV MUL DUP4 MSTORE SWAP2 PUSH1 0x20 ADD SWAP2 PUSH2 0x9E3 JUMP JUMPDEST DUP3 ADD SWAP2 SWAP1 PUSH1 0x0 MSTORE PUSH1 0x20 PUSH1 0x0 KECCAK256 SWAP1 JUMPDEST DUP2 SLOAD DUP2 MSTORE SWAP1 PUSH1 0x1 ADD SWAP1 PUSH1 0x20 ADD DUP1 DUP4 GT PUSH2 0x9C6 JUMPI DUP3 SWAP1 SUB PUSH1 0x1F AND DUP3 ADD SWAP2 JUMPDEST POP POP POP POP POP SWAP1 POP SWAP1 JUMP JUMPDEST PUSH1 0x0 DUP2 DUP2 MSTORE PUSH1 0x2 PUSH1 0x20 MSTORE PUSH1 0x40 DUP2 KECCAK256 SLOAD DUP3 SWAP1 PUSH1 0x1 PUSH1 0x1 PUSH1 0xA0 SHL SUB AND PUSH2 0xA23 JUMPI PUSH1 0x40 MLOAD PUSH3 0x461BCD PUSH1 0xE5 SHL DUP2 MSTORE PUSH1 0x4 ADD PUSH2 0x923 SWAP1 PUSH2 0x3553 JUMP JUMPDEST PUSH1 0x0 DUP4 DUP2 MSTORE PUSH1 0x3 PUSH1 0x20 MSTORE PUSH1 0x40 SWAP1 KECCAK256 SLOAD PUSH1 0x1 PUSH1 0x1 PUSH1 0xA0 SHL SUB AND SWAP2 POP JUMPDEST POP SWAP2 SWAP1 POP JUMP JUMPDEST PUSH1 0x0 DUP2 DUP2 MSTORE PUSH1 0x2 PUSH1 0x20 MSTORE PUSH1 0x40 SWAP1 KECCAK256 SLOAD DUP2 SWAP1 PUSH1 0x1 PUSH1 0x1 PUSH1 0xA0 SHL SUB AND CALLER DUP2 EQ DUP1 PUSH2 0xA8F JUMPI POP PUSH1 0x1 PUSH1 0x1 PUSH1 0xA0 SHL SUB DUP2 AND PUSH1 0x0 SWAP1 DUP2 MSTORE PUSH1 0x4 PUSH1 0x20 SWAP1 DUP2 MSTORE PUSH1 0x40 DUP1 DUP4 KECCAK256 CALLER DUP5 MSTORE SWAP1 SWAP2 MSTORE SWAP1 KECCAK256 SLOAD PUSH1 0xFF AND JUMPDEST PUSH2 0xACD JUMPI PUSH1 0x40 MLOAD PUSH3 0x461BCD PUSH1 0xE5 SHL DUP2 MSTORE PUSH1 0x20 PUSH1 0x4 DUP3 ADD MSTORE PUSH1 0xF PUSH1 0x24 DUP3 ADD MSTORE PUSH15 0x21B0B73737BA1037B832B930BA3297 PUSH1 0x89 SHL PUSH1 0x44 DUP3 ADD MSTORE PUSH1 0x64 ADD PUSH2 0x923 JUMP JUMPDEST PUSH1 0x0 DUP4 DUP2 MSTORE PUSH1 0x2 PUSH1 0x20 MSTORE PUSH1 0x40 SWAP1 KECCAK256 SLOAD DUP4 SWAP1 PUSH1 0x1 PUSH1 0x1 PUSH1 0xA0 SHL SUB AND PUSH2 0xB03 JUMPI PUSH1 0x40 MLOAD PUSH3 0x461BCD PUSH1 0xE5 SHL DUP2 MSTORE PUSH1 0x4 ADD PUSH2 0x923 SWAP1 PUSH2 0x3553 JUMP JUMPDEST PUSH1 0x0 DUP5 DUP2 MSTORE PUSH1 0x2 PUSH1 0x20 MSTORE PUSH1 0x40 SWAP1 KECCAK256 SLOAD PUSH1 0x1 PUSH1 0x1 PUSH1 0xA0 SHL SUB SWAP1 DUP2 AND SWAP1 DUP7 AND DUP2 EQ ISZERO PUSH2 0xB2C JUMPI PUSH1 0x0 DUP1 REVERT JUMPDEST PUSH1 0x0 DUP6 DUP2 MSTORE PUSH1 0x3 PUSH1 0x20 MSTORE PUSH1 0x40 DUP1 DUP3 KECCAK256 DUP1 SLOAD PUSH1 0x1 PUSH1 0x1 PUSH1 0xA0 SHL SUB NOT AND PUSH1 0x1 PUSH1 0x1 PUSH1 0xA0 SHL SUB DUP11 DUP2 AND SWAP2 DUP3 OR SWAP1 SWAP3 SSTORE SWAP2 MLOAD DUP9 SWAP4 SWAP2 DUP6 AND SWAP2 PUSH32 0x8C5BE1E5EBEC7D5BD14F71427D1E84F3DD0314C0F7B2291E5B200AC8C7C3B925 SWAP2 LOG4 POP POP POP POP POP POP JUMP JUMPDEST PUSH1 0x0 DUP3 DUP2 MSTORE PUSH1 0x2 PUSH1 0x20 MSTORE PUSH1 0x40 DUP2 KECCAK256 SLOAD PUSH1 0x1 PUSH1 0x1 PUSH1 0xA0 SHL SUB SWAP1 DUP2 AND SWAP1 DUP4 AND DUP2 EQ DUP1 PUSH2 0xBCE JUMPI POP PUSH1 0x0 DUP5 DUP2 MSTORE PUSH1 0x3 PUSH1 0x20 MSTORE PUSH1 0x40 SWAP1 KECCAK256 SLOAD PUSH1 0x1 PUSH1 0x1 PUSH1 0xA0 SHL SUB DUP5 DUP2 AND SWAP2 AND EQ JUMPDEST DUP1 PUSH2 0xBFE JUMPI POP PUSH1 0x1 PUSH1 0x1 PUSH1 0xA0 SHL SUB DUP1 DUP3 AND PUSH1 0x0 SWAP1 DUP2 MSTORE PUSH1 0x4 PUSH1 0x20 SWAP1 DUP2 MSTORE PUSH1 0x40 DUP1 DUP4 KECCAK256 SWAP4 DUP8 AND DUP4 MSTORE SWAP3 SWAP1 MSTORE KECCAK256 SLOAD PUSH1 0xFF AND JUMPDEST ISZERO PUSH2 0xC0D JUMPI PUSH1 0x1 SWAP2 POP POP PUSH2 0xC13 JUMP JUMPDEST PUSH1 0x0 SWAP2 POP POP JUMPDEST SWAP3 SWAP2 POP POP JUMP JUMPDEST PUSH2 0x4E36 SLOAD PUSH1 0xFF AND ISZERO PUSH2 0xC2A JUMPI PUSH1 0x0 DUP1 REVERT JUMPDEST PUSH2 0x4E36 DUP1 SLOAD PUSH1 0xFF NOT AND PUSH1 0x1 OR SWAP1 SSTORE PUSH1 0xF SLOAD PUSH1 0x1 PUSH1 0xA0 SHL SWAP1 DIV PUSH1 0xFF AND PUSH2 0xC85 JUMPI PUSH1 0x40 MLOAD PUSH3 0x461BCD PUSH1 0xE5 SHL DUP2 MSTORE PUSH1 0x20 PUSH1 0x4 DUP3 ADD MSTORE PUSH1 0x11 PUSH1 0x24 DUP3 ADD MSTORE PUSH17 0x29B0B632903737BA1039BA30B93A32B217 PUSH1 0x79 SHL PUSH1 0x44 DUP3 ADD MSTORE PUSH1 0x64 ADD PUSH2 0x923 JUMP JUMPDEST PUSH1 0x14 DUP2 GT ISZERO PUSH2 0xCA6 JUMPI PUSH1 0x40 MLOAD PUSH3 0x461BCD PUSH1 0xE5 SHL DUP2 MSTORE PUSH1 0x4 ADD PUSH2 0x923 SWAP1 PUSH2 0x35DC JUMP JUMPDEST PUSH2 0x4E20 PUSH2 0xCBC DUP3 PUSH2 0xCB6 PUSH1 0x9 SLOAD SWAP1 JUMP JUMPDEST SWAP1 PUSH2 0x2373 JUMP JUMPDEST GT ISZERO PUSH2 0xD00 JUMPI PUSH1 0x40 MLOAD PUSH3 0x461BCD PUSH1 0xE5 SHL DUP2 MSTORE PUSH1 0x20 PUSH1 0x4 DUP3 ADD MSTORE PUSH1 0x13 PUSH1 0x24 DUP3 ADD MSTORE PUSH19 0x115E18D959591CC81513D2D15397D312535255 PUSH1 0x6A SHL PUSH1 0x44 DUP3 ADD MSTORE PUSH1 0x64 ADD PUSH2 0x923 JUMP JUMPDEST PUSH1 0xC SLOAD PUSH1 0x0 SWAP1 PUSH2 0xD10 SWAP1 DUP4 PUSH2 0x238E JUMP JUMPDEST LT ISZERO PUSH2 0xD2E JUMPI PUSH1 0x40 MLOAD PUSH3 0x461BCD PUSH1 0xE5 SHL DUP2 MSTORE PUSH1 0x4 ADD PUSH2 0x923 SWAP1 PUSH2 0x3667 JUMP JUMPDEST PUSH2 0xD5C CALLER ADDRESS PUSH2 0xD48 DUP5 PUSH1 0x11 SLOAD PUSH2 0x23AE SWAP1 SWAP2 SWAP1 PUSH4 0xFFFFFFFF AND JUMP JUMPDEST PUSH1 0x13 SLOAD PUSH1 0x1 PUSH1 0x1 PUSH1 0xA0 SHL SUB AND SWAP3 SWAP2 SWAP1 PUSH2 0x23DE JUMP JUMPDEST PUSH1 0x0 JUMPDEST DUP2 DUP2 LT ISZERO PUSH2 0xDAA JUMPI PUSH1 0xA DUP1 SLOAD SWAP1 PUSH1 0x0 PUSH2 0xD77 DUP4 PUSH2 0x378D JUMP JUMPDEST SWAP2 SWAP1 POP SSTORE POP PUSH1 0x1 PUSH1 0xC SLOAD PUSH2 0xD8B SWAP2 SWAP1 PUSH2 0x36FE JUMP JUMPDEST PUSH1 0xC SSTORE PUSH2 0xD97 CALLER PUSH2 0x2438 JUMP JUMPDEST POP DUP1 PUSH2 0xDA2 DUP2 PUSH2 0x378D JUMP JUMPDEST SWAP2 POP POP PUSH2 0xD5F JUMP JUMPDEST POP POP PUSH2 0x4E36 DUP1 SLOAD PUSH1 0xFF NOT AND SWAP1 SSTORE JUMP JUMPDEST PUSH1 0x0 SLOAD PUSH1 0x1 PUSH1 0x1 PUSH1 0xA0 SHL SUB AND CALLER EQ PUSH2 0xDE3 JUMPI PUSH1 0x40 MLOAD PUSH3 0x461BCD PUSH1 0xE5 SHL DUP2 MSTORE PUSH1 0x4 ADD PUSH2 0x923 SWAP1 PUSH2 0x35A7 JUMP JUMPDEST PUSH2 0x4E36 DUP1 SLOAD PUSH1 0x1 PUSH1 0x1 PUSH1 0xA0 SHL SUB SWAP1 SWAP3 AND PUSH2 0x100 MUL PUSH2 0x100 PUSH1 0x1 PUSH1 0xA8 SHL SUB NOT SWAP1 SWAP3 AND SWAP2 SWAP1 SWAP2 OR SWAP1 SSTORE JUMP JUMPDEST PUSH1 0x0 SLOAD PUSH1 0x1 PUSH1 0x1 PUSH1 0xA0 SHL SUB AND CALLER EQ PUSH2 0xE36 JUMPI PUSH1 0x40 MLOAD PUSH3 0x461BCD PUSH1 0xE5 SHL DUP2 MSTORE PUSH1 0x4 ADD PUSH2 0x923 SWAP1 PUSH2 0x35A7 JUMP JUMPDEST PUSH2 0x4E3A DUP1 SLOAD SWAP2 ISZERO ISZERO PUSH1 0x1 PUSH1 0xA0 SHL MUL PUSH1 0xFF PUSH1 0xA0 SHL NOT SWAP1 SWAP3 AND SWAP2 SWAP1 SWAP2 OR SWAP1 SSTORE JUMP JUMPDEST PUSH1 0x0 DUP2 DUP2 MSTORE PUSH1 0x2 PUSH1 0x20 MSTORE PUSH1 0x40 SWAP1 KECCAK256 SLOAD DUP2 SWAP1 PUSH1 0x1 PUSH1 0x1 PUSH1 0xA0 SHL SUB AND PUSH2 0xE8B JUMPI PUSH1 0x40 MLOAD PUSH3 0x461BCD PUSH1 0xE5 SHL DUP2 MSTORE PUSH1 0x4 ADD PUSH2 0x923 SWAP1 PUSH2 0x3553 JUMP JUMPDEST PUSH1 0x1 PUSH1 0x1 PUSH1 0xA0 SHL SUB DUP4 AND ADDRESS EQ DUP1 PUSH2 0xEB5 JUMPI POP PUSH2 0x4E36 SLOAD PUSH1 0x1 PUSH1 0x1 PUSH1 0xA0 SHL SUB DUP5 DUP2 AND PUSH2 0x100 SWAP1 SWAP3 DIV AND EQ JUMPDEST PUSH2 0xEBE JUMPI PUSH1 0x0 DUP1 REVERT JUMPDEST PUSH1 0x0 DUP3 DUP2 MSTORE PUSH1 0x2 PUSH1 0x20 MSTORE PUSH1 0x40 SWAP1 KECCAK256 SLOAD PUSH1 0x1 PUSH1 0x1 PUSH1 0xA0 SHL SUB SWAP1 DUP2 AND SWAP1 DUP6 AND DUP2 EQ PUSH2 0xF1F JUMPI PUSH1 0x40 MLOAD PUSH3 0x461BCD PUSH1 0xE5 SHL DUP2 MSTORE PUSH1 0x20 PUSH1 0x4 DUP3 ADD MSTORE PUSH1 0x13 PUSH1 0x24 DUP3 ADD MSTORE PUSH19 0x2BB937B73390333937B69030B2323932B9B997 PUSH1 0x69 SHL PUSH1 0x44 DUP3 ADD MSTORE PUSH1 0x64 ADD PUSH2 0x923 JUMP JUMPDEST PUSH1 0x1 PUSH1 0x1 PUSH1 0xA0 SHL SUB DUP5 AND PUSH2 0xF6B JUMPI PUSH1 0x40 MLOAD PUSH3 0x461BCD PUSH1 0xE5 SHL DUP2 MSTORE PUSH1 0x20 PUSH1 0x4 DUP3 ADD MSTORE PUSH1 0x13 PUSH1 0x24 DUP3 ADD MSTORE PUSH19 0x21B0B73737BA1039B2B732103A3790183C1817 PUSH1 0x69 SHL PUSH1 0x44 DUP3 ADD MSTORE PUSH1 0x64 ADD PUSH2 0x923 JUMP JUMPDEST PUSH2 0xF75 DUP5 DUP5 PUSH2 0x256C JUMP JUMPDEST POP POP POP POP POP JUMP JUMPDEST PUSH1 0x0 DUP2 DUP2 MSTORE PUSH1 0x2 PUSH1 0x20 MSTORE PUSH1 0x40 SWAP1 KECCAK256 SLOAD DUP2 SWAP1 PUSH1 0x1 PUSH1 0x1 PUSH1 0xA0 SHL SUB AND CALLER DUP2 EQ DUP1 PUSH2 0xFBA JUMPI POP PUSH1 0x0 DUP3 DUP2 MSTORE PUSH1 0x3 PUSH1 0x20 MSTORE PUSH1 0x40 SWAP1 KECCAK256 SLOAD PUSH1 0x1 PUSH1 0x1 PUSH1 0xA0 SHL SUB AND CALLER EQ JUMPDEST DUP1 PUSH2 0xFE8 JUMPI POP PUSH1 0x1 PUSH1 0x1 PUSH1 0xA0 SHL SUB DUP2 AND PUSH1 0x0 SWAP1 DUP2 MSTORE PUSH1 0x4 PUSH1 0x20 SWAP1 DUP2 MSTORE PUSH1 0x40 DUP1 DUP4 KECCAK256 CALLER DUP5 MSTORE SWAP1 SWAP2 MSTORE SWAP1 KECCAK256 SLOAD PUSH1 0xFF AND JUMPDEST PUSH2 0x1027 JUMPI PUSH1 0x40 MLOAD PUSH3 0x461BCD PUSH1 0xE5 SHL DUP2 MSTORE PUSH1 0x20 PUSH1 0x4 DUP3 ADD MSTORE PUSH1 0x10 PUSH1 0x24 DUP3 ADD MSTORE PUSH16 0x21B0B73737BA103A3930B739B332B917 PUSH1 0x81 SHL PUSH1 0x44 DUP3 ADD MSTORE PUSH1 0x64 ADD PUSH2 0x923 JUMP JUMPDEST PUSH1 0x0 DUP4 DUP2 MSTORE PUSH1 0x2 PUSH1 0x20 MSTORE PUSH1 0x40 SWAP1 KECCAK256 SLOAD DUP4 SWAP1 PUSH1 0x1 PUSH1 0x1 PUSH1 0xA0 SHL SUB AND PUSH2 0x105D JUMPI PUSH1 0x40 MLOAD PUSH3 0x461BCD PUSH1 0xE5 SHL DUP2 MSTORE PUSH1 0x4 ADD PUSH2 0x923 SWAP1 PUSH2 0x3553 JUMP JUMPDEST PUSH1 0x0 DUP5 DUP2 MSTORE PUSH1 0x2 PUSH1 0x20 MSTORE PUSH1 0x40 SWAP1 KECCAK256 SLOAD PUSH1 0x1 PUSH1 0x1 PUSH1 0xA0 SHL SUB SWAP1 DUP2 AND SWAP1 DUP8 AND DUP2 EQ PUSH2 0x10BE JUMPI PUSH1 0x40 MLOAD PUSH3 0x461BCD PUSH1 0xE5 SHL DUP2 MSTORE PUSH1 0x20 PUSH1 0x4 DUP3 ADD MSTORE PUSH1 0x13 PUSH1 0x24 DUP3 ADD MSTORE PUSH19 0x2BB937B73390333937B69030B2323932B9B997 PUSH1 0x69 SHL PUSH1 0x44 DUP3 ADD MSTORE PUSH1 0x64 ADD PUSH2 0x923 JUMP JUMPDEST PUSH1 0x1 PUSH1 0x1 PUSH1 0xA0 SHL SUB DUP7 AND PUSH2 0x110A JUMPI PUSH1 0x40 MLOAD PUSH3 0x461BCD PUSH1 0xE5 SHL DUP2 MSTORE PUSH1 0x20 PUSH1 0x4 DUP3 ADD MSTORE PUSH1 0x13 PUSH1 0x24 DUP3 ADD MSTORE PUSH19 0x21B0B73737BA1039B2B732103A3790183C1817 PUSH1 0x69 SHL PUSH1 0x44 DUP3 ADD MSTORE PUSH1 0x64 ADD PUSH2 0x923 JUMP JUMPDEST PUSH2 0x1114 DUP7 DUP7 PUSH2 0x256C JUMP JUMPDEST POP POP POP POP POP POP POP JUMP JUMPDEST PUSH2 0x4E36 SLOAD PUSH1 0xFF AND ISZERO PUSH2 0x112E JUMPI PUSH1 0x0 DUP1 REVERT JUMPDEST PUSH2 0x4E36 DUP1 SLOAD PUSH1 0xFF NOT AND PUSH1 0x1 OR SWAP1 SSTORE PUSH1 0xF SLOAD PUSH1 0x1 PUSH1 0xA0 SHL SWAP1 DIV PUSH1 0xFF AND PUSH2 0x1189 JUMPI PUSH1 0x40 MLOAD PUSH3 0x461BCD PUSH1 0xE5 SHL DUP2 MSTORE PUSH1 0x20 PUSH1 0x4 DUP3 ADD MSTORE PUSH1 0x11 PUSH1 0x24 DUP3 ADD MSTORE PUSH17 0x29B0B632903737BA1039BA30B93A32B217 PUSH1 0x79 SHL PUSH1 0x44 DUP3 ADD MSTORE PUSH1 0x64 ADD PUSH2 0x923 JUMP JUMPDEST PUSH1 0x14 DUP2 GT ISZERO PUSH2 0x11AA JUMPI PUSH1 0x40 MLOAD PUSH3 0x461BCD PUSH1 0xE5 SHL DUP2 MSTORE PUSH1 0x4 ADD PUSH2 0x923 SWAP1 PUSH2 0x35DC JUMP JUMPDEST PUSH2 0x4E20 PUSH2 0x11BA DUP3 PUSH2 0xCB6 PUSH1 0x9 SLOAD SWAP1 JUMP JUMPDEST GT ISZERO PUSH2 0x11FE JUMPI PUSH1 0x40 MLOAD PUSH3 0x461BCD PUSH1 0xE5 SHL DUP2 MSTORE PUSH1 0x20 PUSH1 0x4 DUP3 ADD MSTORE PUSH1 0x13 PUSH1 0x24 DUP3 ADD MSTORE PUSH19 0x115E18D959591CC81513D2D15397D312535255 PUSH1 0x6A SHL PUSH1 0x44 DUP3 ADD MSTORE PUSH1 0x64 ADD PUSH2 0x923 JUMP JUMPDEST PUSH1 0xB SLOAD PUSH1 0x0 SWAP1 PUSH2 0x120E SWAP1 DUP4 PUSH2 0x238E JUMP JUMPDEST LT ISZERO PUSH2 0x122C JUMPI PUSH1 0x40 MLOAD PUSH3 0x461BCD PUSH1 0xE5 SHL DUP2 MSTORE PUSH1 0x4 ADD PUSH2 0x923 SWAP1 PUSH2 0x3667 JUMP JUMPDEST PUSH1 0x10 SLOAD CALLVALUE SWAP1 PUSH2 0x123B SWAP1 DUP4 PUSH2 0x23AE JUMP JUMPDEST EQ PUSH2 0x1288 JUMPI PUSH1 0x40 MLOAD PUSH3 0x461BCD PUSH1 0xE5 SHL DUP2 MSTORE PUSH1 0x20 PUSH1 0x4 DUP3 ADD MSTORE PUSH1 0x1F PUSH1 0x24 DUP3 ADD MSTORE PUSH32 0x4D415449432076616C75652073656E74206973206E6F7420636F727265637400 PUSH1 0x44 DUP3 ADD MSTORE PUSH1 0x64 ADD PUSH2 0x923 JUMP JUMPDEST PUSH1 0xE SLOAD PUSH1 0x1 PUSH1 0x1 PUSH1 0xA0 SHL SUB AND PUSH2 0x8FC PUSH2 0x12A2 CALLVALUE PUSH1 0x2 PUSH2 0x2660 JUMP JUMPDEST PUSH1 0x40 MLOAD DUP2 ISZERO SWAP1 SWAP3 MUL SWAP2 PUSH1 0x0 DUP2 DUP2 DUP2 DUP6 DUP9 DUP9 CALL SWAP4 POP POP POP POP ISZERO DUP1 ISZERO PUSH2 0x12CA JUMPI RETURNDATASIZE PUSH1 0x0 DUP1 RETURNDATACOPY RETURNDATASIZE PUSH1 0x0 REVERT JUMPDEST POP PUSH1 0xF SLOAD PUSH1 0x1 PUSH1 0x1 PUSH1 0xA0 SHL SUB AND PUSH2 0x8FC PUSH2 0x12E5 CALLVALUE PUSH1 0x2 PUSH2 0x2660 JUMP JUMPDEST PUSH1 0x40 MLOAD DUP2 ISZERO SWAP1 SWAP3 MUL SWAP2 PUSH1 0x0 DUP2 DUP2 DUP2 DUP6 DUP9 DUP9 CALL SWAP4 POP POP POP POP ISZERO DUP1 ISZERO PUSH2 0x130D JUMPI RETURNDATASIZE PUSH1 0x0 DUP1 RETURNDATACOPY RETURNDATASIZE PUSH1 0x0 REVERT JUMPDEST POP PUSH1 0x0 JUMPDEST DUP2 DUP2 LT ISZERO PUSH2 0xDAA JUMPI PUSH1 0xA DUP1 SLOAD SWAP1 PUSH1 0x0 PUSH2 0x1329 DUP4 PUSH2 0x378D JUMP JUMPDEST SWAP2 SWAP1 POP SSTORE POP PUSH1 0x1 PUSH1 0xB SLOAD PUSH2 0x133D SWAP2 SWAP1 PUSH2 0x36FE JUMP JUMPDEST PUSH1 0xB SSTORE PUSH2 0x1349 CALLER PUSH2 0x2438 JUMP JUMPDEST POP DUP1 PUSH2 0x1354 DUP2 PUSH2 0x378D JUMP JUMPDEST SWAP2 POP POP PUSH2 0x1311 JUMP JUMPDEST PUSH1 0x1 PUSH1 0x1 PUSH1 0xA0 SHL SUB DUP3 AND PUSH1 0x0 SWAP1 DUP2 MSTORE PUSH1 0x5 PUSH1 0x20 MSTORE PUSH1 0x40 DUP2 KECCAK256 SLOAD DUP3 LT PUSH2 0x1380 JUMPI PUSH1 0x0 DUP1 REVERT JUMPDEST PUSH1 0x1 PUSH1 0x1 PUSH1 0xA0 SHL SUB DUP4 AND PUSH1 0x0 SWAP1 DUP2 MSTORE PUSH1 0x5 PUSH1 0x20 MSTORE PUSH1 0x40 SWAP1 KECCAK256 DUP1 SLOAD DUP4 SWAP1 DUP2 LT PUSH2 0x13AA JUMPI PUSH2 0x13AA PUSH2 0x37FE JUMP JUMPDEST SWAP1 PUSH1 0x0 MSTORE PUSH1 0x20 PUSH1 0x0 KECCAK256 ADD SLOAD SWAP1 POP SWAP3 SWAP2 POP POP JUMP JUMPDEST PUSH2 0x13D8 DUP4 DUP4 DUP4 PUSH1 0x40 MLOAD DUP1 PUSH1 0x20 ADD PUSH1 0x40 MSTORE DUP1 PUSH1 0x0 DUP2 MSTORE POP PUSH2 0x266C JUMP JUMPDEST POP POP POP JUMP JUMPDEST PUSH1 0x0 PUSH2 0x13F6 PUSH1 0xA SLOAD PUSH2 0x4E20 PUSH2 0x238E SWAP1 SWAP2 SWAP1 PUSH4 0xFFFFFFFF AND JUMP JUMPDEST SWAP1 POP SWAP1 JUMP JUMPDEST PUSH2 0x4E3A SLOAD PUSH1 0x1 PUSH1 0xA0 SHL SWAP1 DIV PUSH1 0xFF AND PUSH2 0x1425 JUMPI PUSH1 0x40 MLOAD PUSH3 0x461BCD PUSH1 0xE5 SHL DUP2 MSTORE PUSH1 0x4 ADD PUSH2 0x923 SWAP1 PUSH2 0x357B JUMP JUMPDEST CALLER PUSH2 0x142F DUP3 PUSH2 0x1588 JUMP JUMPDEST PUSH1 0x1 PUSH1 0x1 PUSH1 0xA0 SHL SUB AND EQ PUSH2 0x1455 JUMPI PUSH1 0x40 MLOAD PUSH3 0x461BCD PUSH1 0xE5 SHL DUP2 MSTORE PUSH1 0x4 ADD PUSH2 0x923 SWAP1 PUSH2 0x3625 JUMP JUMPDEST PUSH1 0x40 DUP1 MLOAD PUSH1 0x80 DUP2 ADD DUP3 MSTORE PUSH1 0x0 DUP1 DUP3 MSTORE PUSH1 0x20 DUP1 DUP4 ADD DUP3 DUP2 MSTORE DUP4 DUP6 ADD DUP4 DUP2 MSTORE PUSH1 0x60 DUP6 ADD DUP5 DUP2 MSTORE DUP8 DUP6 MSTORE PUSH2 0x4E37 SWAP1 SWAP4 MSTORE SWAP3 DUP6 SWAP1 KECCAK256 SWAP4 MLOAD DUP5 SLOAD SWAP2 MLOAD PUSH1 0x1 PUSH1 0x1 PUSH1 0xA0 SHL SUB AND PUSH2 0x100 MUL PUSH2 0x100 PUSH1 0x1 PUSH1 0xA8 SHL SUB NOT SWAP2 ISZERO ISZERO SWAP2 SWAP1 SWAP2 AND PUSH1 0x1 PUSH1 0x1 PUSH1 0xA8 SHL SUB NOT SWAP1 SWAP3 AND SWAP2 SWAP1 SWAP2 OR OR DUP4 SSTORE SWAP1 MLOAD PUSH1 0x1 DUP4 ADD SSTORE MLOAD PUSH1 0x2 SWAP1 SWAP2 ADD SSTORE MLOAD PUSH32 0x76915038033FD095A1C41C63DE78CA96195FDEB0013CE2BFE4FBC0AFE4B0B187 SWAP1 PUSH2 0x14FB SWAP1 DUP4 DUP2 MSTORE PUSH1 0x20 ADD SWAP1 JUMP JUMPDEST PUSH1 0x40 MLOAD DUP1 SWAP2 SUB SWAP1 LOG1 PUSH1 0x0 JUMPDEST PUSH2 0x4E3B SLOAD DUP2 LT ISZERO PUSH2 0x1569 JUMPI DUP2 PUSH2 0x4E3B DUP3 DUP2 SLOAD DUP2 LT PUSH2 0x1526 JUMPI PUSH2 0x1526 PUSH2 0x37FE JUMP JUMPDEST SWAP1 PUSH1 0x0 MSTORE PUSH1 0x20 PUSH1 0x0 KECCAK256 ADD SLOAD EQ ISZERO PUSH2 0x1557 JUMPI PUSH2 0x4E3B DUP2 DUP2 SLOAD DUP2 LT PUSH2 0x154B JUMPI PUSH2 0x154B PUSH2 0x37FE JUMP JUMPDEST PUSH1 0x0 SWAP2 DUP3 MSTORE PUSH1 0x20 DUP3 KECCAK256 ADD SSTORE JUMPDEST DUP1 PUSH2 0x1561 DUP2 PUSH2 0x378D JUMP JUMPDEST SWAP2 POP POP PUSH2 0x1506 JUMP JUMPDEST POP POP JUMP JUMPDEST PUSH1 0x0 PUSH2 0x4E20 DUP3 LT PUSH2 0x157D JUMPI PUSH1 0x0 DUP1 REVERT JUMPDEST PUSH2 0xC13 DUP3 PUSH1 0x1 PUSH2 0x36B3 JUMP JUMPDEST PUSH1 0x0 DUP2 DUP2 MSTORE PUSH1 0x2 PUSH1 0x20 MSTORE PUSH1 0x40 DUP2 KECCAK256 SLOAD PUSH1 0x1 PUSH1 0x1 PUSH1 0xA0 SHL SUB AND PUSH2 0x15A9 JUMPI PUSH1 0x0 DUP1 REVERT JUMPDEST POP PUSH1 0x0 SWAP1 DUP2 MSTORE PUSH1 0x2 PUSH1 0x20 MSTORE PUSH1 0x40 SWAP1 KECCAK256 SLOAD PUSH1 0x1 PUSH1 0x1 PUSH1 0xA0 SHL SUB AND SWAP1 JUMP JUMPDEST PUSH1 0x0 SLOAD PUSH1 0x1 PUSH1 0x1 PUSH1 0xA0 SHL SUB AND CALLER EQ PUSH2 0x15EF JUMPI PUSH1 0x40 MLOAD PUSH3 0x461BCD PUSH1 0xE5 SHL DUP2 MSTORE PUSH1 0x4 ADD PUSH2 0x923 SWAP1 PUSH2 0x35A7 JUMP JUMPDEST PUSH2 0x4E39 SSTORE JUMP JUMPDEST PUSH1 0x0 PUSH1 0x1 PUSH1 0x1 PUSH1 0xA0 SHL SUB DUP3 AND PUSH2 0x160A JUMPI PUSH1 0x0 DUP1 REVERT JUMPDEST PUSH1 0x1 PUSH1 0x1 PUSH1 0xA0 SHL SUB DUP3 AND PUSH1 0x0 SWAP1 DUP2 MSTORE PUSH1 0x5 PUSH1 0x20 MSTORE PUSH1 0x40 SWAP1 KECCAK256 SLOAD PUSH2 0xC13 JUMP JUMPDEST PUSH1 0x0 SLOAD PUSH1 0x1 PUSH1 0x1 PUSH1 0xA0 SHL SUB AND CALLER EQ PUSH2 0x1652 JUMPI PUSH1 0x40 MLOAD PUSH3 0x461BCD PUSH1 0xE5 SHL DUP2 MSTORE PUSH1 0x4 ADD PUSH2 0x923 SWAP1 PUSH2 0x35A7 JUMP JUMPDEST PUSH2 0x165C PUSH1 0x0 PUSH2 0x2881 JUMP JUMPDEST JUMP JUMPDEST PUSH2 0x4E3B DUP2 DUP2 SLOAD DUP2 LT PUSH2 0x166F JUMPI PUSH1 0x0 DUP1 REVERT JUMPDEST PUSH1 0x0 SWAP2 DUP3 MSTORE PUSH1 0x20 SWAP1 SWAP2 KECCAK256 ADD SLOAD SWAP1 POP DUP2 JUMP JUMPDEST PUSH1 0x60 PUSH1 0x8 DUP1 SLOAD PUSH2 0x96A SWAP1 PUSH2 0x3758 JUMP JUMPDEST PUSH1 0x12 DUP1 SLOAD PUSH2 0x169C SWAP1 PUSH2 0x3758 JUMP JUMPDEST DUP1 PUSH1 0x1F ADD PUSH1 0x20 DUP1 SWAP2 DIV MUL PUSH1 0x20 ADD PUSH1 0x40 MLOAD SWAP1 DUP2 ADD PUSH1 0x40 MSTORE DUP1 SWAP3 SWAP2 SWAP1 DUP2 DUP2 MSTORE PUSH1 0x20 ADD DUP3 DUP1 SLOAD PUSH2 0x16C8 SWAP1 PUSH2 0x3758 JUMP JUMPDEST DUP1 ISZERO PUSH2 0x1715 JUMPI DUP1 PUSH1 0x1F LT PUSH2 0x16EA JUMPI PUSH2 0x100 DUP1 DUP4 SLOAD DIV MUL DUP4 MSTORE SWAP2 PUSH1 0x20 ADD SWAP2 PUSH2 0x1715 JUMP JUMPDEST DUP3 ADD SWAP2 SWAP1 PUSH1 0x0 MSTORE PUSH1 0x20 PUSH1 0x0 KECCAK256 SWAP1 JUMPDEST DUP2 SLOAD DUP2 MSTORE SWAP1 PUSH1 0x1 ADD SWAP1 PUSH1 0x20 ADD DUP1 DUP4 GT PUSH2 0x16F8 JUMPI DUP3 SWAP1 SUB PUSH1 0x1F AND DUP3 ADD SWAP2 JUMPDEST POP POP POP POP POP DUP2 JUMP JUMPDEST PUSH1 0x0 SLOAD PUSH1 0x1 PUSH1 0x1 PUSH1 0xA0 SHL SUB AND CALLER EQ PUSH2 0x1747 JUMPI PUSH1 0x40 MLOAD PUSH3 0x461BCD PUSH1 0xE5 SHL DUP2 MSTORE PUSH1 0x4 ADD PUSH2 0x923 SWAP1 PUSH2 0x35A7 JUMP JUMPDEST DUP1 MLOAD PUSH2 0x1569 SWAP1 PUSH1 0x12 SWAP1 PUSH1 0x20 DUP5 ADD SWAP1 PUSH2 0x3017 JUMP JUMPDEST CALLER PUSH1 0x0 DUP2 DUP2 MSTORE PUSH1 0x4 PUSH1 0x20 SWAP1 DUP2 MSTORE PUSH1 0x40 DUP1 DUP4 KECCAK256 PUSH1 0x1 PUSH1 0x1 PUSH1 0xA0 SHL SUB DUP8 AND DUP1 DUP6 MSTORE SWAP1 DUP4 MSTORE SWAP3 DUP2 SWAP1 KECCAK256 DUP1 SLOAD PUSH1 0xFF NOT AND DUP7 ISZERO ISZERO SWAP1 DUP2 OR SWAP1 SWAP2 SSTORE SWAP1 MLOAD SWAP1 DUP2 MSTORE SWAP2 SWAP3 SWAP2 PUSH32 0x17307EAB39AB6107E8899845AD3D59BD9653F200F220920489CA2B5937696C31 SWAP2 ADD PUSH1 0x40 MLOAD DUP1 SWAP2 SUB SWAP1 LOG3 POP POP JUMP JUMPDEST PUSH2 0x4E3A SLOAD PUSH1 0x1 PUSH1 0xA0 SHL SWAP1 DIV PUSH1 0xFF AND PUSH2 0x17F0 JUMPI PUSH1 0x40 MLOAD PUSH3 0x461BCD PUSH1 0xE5 SHL DUP2 MSTORE PUSH1 0x4 ADD PUSH2 0x923 SWAP1 PUSH2 0x357B JUMP JUMPDEST CALLER PUSH2 0x17FA DUP4 PUSH2 0x1588 JUMP JUMPDEST PUSH1 0x1 PUSH1 0x1 PUSH1 0xA0 SHL SUB AND EQ PUSH2 0x1820 JUMPI PUSH1 0x40 MLOAD PUSH3 0x461BCD PUSH1 0xE5 SHL DUP2 MSTORE PUSH1 0x4 ADD PUSH2 0x923 SWAP1 PUSH2 0x3625 JUMP JUMPDEST PUSH1 0x40 DUP1 MLOAD PUSH1 0x80 DUP2 ADD DUP3 MSTORE PUSH1 0x1 DUP1 DUP3 MSTORE CALLER PUSH1 0x20 DUP1 DUP5 ADD SWAP2 DUP3 MSTORE DUP4 DUP6 ADD DUP9 DUP2 MSTORE PUSH1 0x60 DUP1 DUP7 ADD DUP9 DUP2 MSTORE PUSH1 0x0 DUP11 DUP2 MSTORE PUSH2 0x4E37 DUP6 MSTORE DUP9 SWAP1 KECCAK256 SWAP7 MLOAD DUP8 SLOAD SWAP6 MLOAD PUSH1 0x1 PUSH1 0x1 PUSH1 0xA8 SHL SUB NOT SWAP1 SWAP7 AND SWAP1 ISZERO ISZERO PUSH2 0x100 PUSH1 0x1 PUSH1 0xA8 SHL SUB NOT AND OR PUSH2 0x100 PUSH1 0x1 PUSH1 0x1 PUSH1 0xA0 SHL SUB SWAP1 SWAP7 AND SWAP6 SWAP1 SWAP6 MUL SWAP5 SWAP1 SWAP5 OR DUP7 SSTORE SWAP1 MLOAD SWAP4 DUP6 ADD SWAP4 SWAP1 SWAP4 SSTORE SWAP1 MLOAD PUSH1 0x2 SWAP1 SWAP4 ADD SWAP3 SWAP1 SWAP3 SSTORE DUP3 MLOAD DUP6 DUP2 MSTORE SWAP2 DUP3 ADD DUP7 SWAP1 MSTORE SWAP2 DUP2 ADD DUP4 SWAP1 MSTORE PUSH32 0xE04275091C8EC0CACFA344BA26FEF01E27E1AA9FA1C5211500F11E92FF862E05 SWAP2 ADD PUSH1 0x40 MLOAD DUP1 SWAP2 SUB SWAP1 LOG1 POP PUSH2 0x4E3B DUP1 SLOAD PUSH1 0x1 DUP2 ADD DUP3 SSTORE PUSH1 0x0 SWAP2 SWAP1 SWAP2 MSTORE PUSH32 0x9C134BF00A5AD545FBF5C27E8F9E91D26FF70C9EA5B8FFB7BE9AA840D0537CCF ADD SSTORE POP JUMP JUMPDEST PUSH1 0x0 SLOAD PUSH1 0x1 PUSH1 0x1 PUSH1 0xA0 SHL SUB AND CALLER EQ PUSH2 0x193E JUMPI PUSH1 0x40 MLOAD PUSH3 0x461BCD PUSH1 0xE5 SHL DUP2 MSTORE PUSH1 0x4 ADD PUSH2 0x923 SWAP1 PUSH2 0x35A7 JUMP JUMPDEST PUSH1 0xF SLOAD PUSH1 0x1 PUSH1 0xA0 SHL SWAP1 DIV PUSH1 0xFF AND ISZERO PUSH2 0x1955 JUMPI PUSH1 0x0 DUP1 REVERT JUMPDEST TIMESTAMP PUSH1 0x14 SSTORE PUSH1 0xF DUP1 SLOAD PUSH1 0xFF PUSH1 0xA0 SHL NOT AND PUSH1 0x1 PUSH1 0xA0 SHL OR SWAP1 SSTORE JUMP JUMPDEST PUSH2 0xF75 DUP6 DUP6 DUP6 DUP6 DUP6 DUP1 DUP1 PUSH1 0x1F ADD PUSH1 0x20 DUP1 SWAP2 DIV MUL PUSH1 0x20 ADD PUSH1 0x40 MLOAD SWAP1 DUP2 ADD PUSH1 0x40 MSTORE DUP1 SWAP4 SWAP3 SWAP2 SWAP1 DUP2 DUP2 MSTORE PUSH1 0x20 ADD DUP4 DUP4 DUP1 DUP3 DUP5 CALLDATACOPY PUSH1 0x0 SWAP3 ADD SWAP2 SWAP1 SWAP2 MSTORE POP PUSH2 0x266C SWAP3 POP POP POP JUMP JUMPDEST PUSH1 0x0 DUP2 DUP2 MSTORE PUSH1 0x2 PUSH1 0x20 MSTORE PUSH1 0x40 SWAP1 KECCAK256 SLOAD PUSH1 0x60 SWAP1 DUP3 SWAP1 PUSH1 0x1 PUSH1 0x1 PUSH1 0xA0 SHL SUB AND PUSH2 0x19E9 JUMPI PUSH1 0x40 MLOAD PUSH3 0x461BCD PUSH1 0xE5 SHL DUP2 MSTORE PUSH1 0x4 ADD PUSH2 0x923 SWAP1 PUSH2 0x3553 JUMP JUMPDEST PUSH1 0x12 PUSH2 0x19F4 DUP5 PUSH2 0x28D1 JUMP JUMPDEST PUSH1 0x40 MLOAD PUSH1 0x20 ADD PUSH2 0x1A05 SWAP3 SWAP2 SWAP1 PUSH2 0x345C JUMP JUMPDEST PUSH1 0x40 MLOAD PUSH1 0x20 DUP2 DUP4 SUB SUB DUP2 MSTORE SWAP1 PUSH1 0x40 MSTORE SWAP2 POP POP SWAP2 SWAP1 POP JUMP JUMPDEST PUSH2 0x1A26 DUP2 ADDRESS PUSH2 0xB8B JUMP JUMPDEST PUSH2 0x1A68 JUMPI PUSH1 0x40 MLOAD PUSH3 0x461BCD PUSH1 0xE5 SHL DUP2 MSTORE PUSH1 0x20 PUSH1 0x4 DUP3 ADD MSTORE PUSH1 0x13 PUSH1 0x24 DUP3 ADD MSTORE PUSH19 0x115C9C9BDC881DDA5D1A08185C1C1C9BDD985B PUSH1 0x6A SHL PUSH1 0x44 DUP3 ADD MSTORE PUSH1 0x64 ADD PUSH2 0x923 JUMP JUMPDEST PUSH2 0x4E3A SLOAD PUSH1 0x1 PUSH1 0xA0 SHL SWAP1 DIV PUSH1 0xFF AND PUSH2 0x1A92 JUMPI PUSH1 0x40 MLOAD PUSH3 0x461BCD PUSH1 0xE5 SHL DUP2 MSTORE PUSH1 0x4 ADD PUSH2 0x923 SWAP1 PUSH2 0x357B JUMP JUMPDEST PUSH1 0x0 DUP2 DUP2 MSTORE PUSH2 0x4E37 PUSH1 0x20 MSTORE PUSH1 0x40 SWAP1 KECCAK256 SLOAD PUSH1 0xFF AND PUSH2 0x1AED JUMPI PUSH1 0x40 MLOAD PUSH3 0x461BCD PUSH1 0xE5 SHL DUP2 MSTORE PUSH1 0x20 PUSH1 0x4 DUP3 ADD MSTORE PUSH1 0x19 PUSH1 0x24 DUP3 ADD MSTORE PUSH25 0x54686520746F6B656E206973206E6F7420666F722073616C65 PUSH1 0x38 SHL PUSH1 0x44 DUP3 ADD MSTORE PUSH1 0x64 ADD PUSH2 0x923 JUMP JUMPDEST PUSH1 0x0 DUP2 DUP2 MSTORE PUSH2 0x4E37 PUSH1 0x20 MSTORE PUSH1 0x40 SWAP1 KECCAK256 PUSH1 0x2 ADD SLOAD PUSH2 0x1B4C JUMPI PUSH1 0x40 MLOAD PUSH3 0x461BCD PUSH1 0xE5 SHL DUP2 MSTORE PUSH1 0x20 PUSH1 0x4 DUP3 ADD MSTORE PUSH1 0x18 PUSH1 0x24 DUP3 ADD MSTORE PUSH32 0x4572726F72207769746820746F6B656E207061796D656E740000000000000000 PUSH1 0x44 DUP3 ADD MSTORE PUSH1 0x64 ADD PUSH2 0x923 JUMP JUMPDEST PUSH1 0x0 DUP2 DUP2 MSTORE PUSH2 0x4E37 PUSH1 0x20 SWAP1 DUP2 MSTORE PUSH1 0x40 DUP1 DUP4 KECCAK256 PUSH1 0x1 DUP2 ADD SLOAD PUSH1 0x2 SWAP1 SWAP2 ADD SLOAD DUP5 MSTORE PUSH2 0x4E38 SWAP1 SWAP3 MSTORE SWAP2 DUP3 SWAP1 KECCAK256 SLOAD SWAP2 MLOAD PUSH4 0x70A08231 PUSH1 0xE0 SHL DUP2 MSTORE CALLER PUSH1 0x4 DUP3 ADD MSTORE SWAP1 SWAP2 PUSH1 0x1 PUSH1 0x1 PUSH1 0xA0 SHL SUB AND SWAP1 PUSH4 0x70A08231 SWAP1 PUSH1 0x24 ADD PUSH1 0x20 PUSH1 0x40 MLOAD DUP1 DUP4 SUB DUP2 DUP7 DUP1 EXTCODESIZE ISZERO DUP1 ISZERO PUSH2 0x1BB5 JUMPI PUSH1 0x0 DUP1 REVERT JUMPDEST POP GAS STATICCALL ISZERO DUP1 ISZERO PUSH2 0x1BC9 JUMPI RETURNDATASIZE PUSH1 0x0 DUP1 RETURNDATACOPY RETURNDATASIZE PUSH1 0x0 REVERT JUMPDEST POP POP POP POP PUSH1 0x40 MLOAD RETURNDATASIZE PUSH1 0x1F NOT PUSH1 0x1F DUP3 ADD AND DUP3 ADD DUP1 PUSH1 0x40 MSTORE POP DUP2 ADD SWAP1 PUSH2 0x1BED SWAP2 SWAP1 PUSH2 0x3390 JUMP JUMPDEST LT ISZERO PUSH2 0x1C3B JUMPI PUSH1 0x40 MLOAD PUSH3 0x461BCD PUSH1 0xE5 SHL DUP2 MSTORE PUSH1 0x20 PUSH1 0x4 DUP3 ADD MSTORE PUSH1 0x1A PUSH1 0x24 DUP3 ADD MSTORE PUSH32 0x596F7520646F206E6F74206F776E20656E6F75676820676F6C64000000000000 PUSH1 0x44 DUP3 ADD MSTORE PUSH1 0x64 ADD PUSH2 0x923 JUMP JUMPDEST PUSH1 0x0 DUP2 DUP2 MSTORE PUSH2 0x4E37 PUSH1 0x20 SWAP1 DUP2 MSTORE PUSH1 0x40 DUP1 DUP4 KECCAK256 PUSH1 0x1 DUP2 ADD SLOAD PUSH1 0x2 SWAP1 SWAP2 ADD SLOAD DUP5 MSTORE PUSH2 0x4E38 SWAP1 SWAP3 MSTORE SWAP2 DUP3 SWAP1 KECCAK256 SLOAD SWAP2 MLOAD PUSH4 0x6EB1769F PUSH1 0xE1 SHL DUP2 MSTORE CALLER PUSH1 0x4 DUP3 ADD MSTORE ADDRESS PUSH1 0x24 DUP3 ADD MSTORE SWAP1 SWAP2 PUSH1 0x1 PUSH1 0x1 PUSH1 0xA0 SHL SUB AND SWAP1 PUSH4 0xDD62ED3E SWAP1 PUSH1 0x44 ADD PUSH1 0x20 PUSH1 0x40 MLOAD DUP1 DUP4 SUB DUP2 DUP7 DUP1 EXTCODESIZE ISZERO DUP1 ISZERO PUSH2 0x1CAA JUMPI PUSH1 0x0 DUP1 REVERT JUMPDEST POP GAS STATICCALL ISZERO DUP1 ISZERO PUSH2 0x1CBE JUMPI RETURNDATASIZE PUSH1 0x0 DUP1 RETURNDATACOPY RETURNDATASIZE PUSH1 0x0 REVERT JUMPDEST POP POP POP POP PUSH1 0x40 MLOAD RETURNDATASIZE PUSH1 0x1F NOT PUSH1 0x1F DUP3 ADD AND DUP3 ADD DUP1 PUSH1 0x40 MSTORE POP DUP2 ADD SWAP1 PUSH2 0x1CE2 SWAP2 SWAP1 PUSH2 0x3390 JUMP JUMPDEST LT ISZERO PUSH2 0x1D30 JUMPI PUSH1 0x40 MLOAD PUSH3 0x461BCD PUSH1 0xE5 SHL DUP2 MSTORE PUSH1 0x20 PUSH1 0x4 DUP3 ADD MSTORE PUSH1 0x1A PUSH1 0x24 DUP3 ADD MSTORE PUSH32 0x596F7520616C6C6F77616E636520697320746F6F20736D616C6C000000000000 PUSH1 0x44 DUP3 ADD MSTORE PUSH1 0x64 ADD PUSH2 0x923 JUMP JUMPDEST PUSH2 0x4E39 SLOAD PUSH1 0x0 PUSH2 0x1D42 DUP3 PUSH2 0x3E8 PUSH2 0x36FE JUMP JUMPDEST PUSH2 0x4E3A SLOAD PUSH1 0x0 DUP6 DUP2 MSTORE PUSH2 0x4E37 PUSH1 0x20 MSTORE PUSH1 0x40 SWAP1 KECCAK256 PUSH1 0x1 ADD SLOAD SWAP2 SWAP3 POP PUSH2 0x1DB6 SWAP2 CALLER SWAP2 PUSH1 0x1 PUSH1 0x1 PUSH1 0xA0 SHL SUB AND SWAP1 PUSH2 0x1D84 SWAP1 PUSH2 0x3E8 SWAP1 PUSH2 0x1D7E SWAP1 DUP9 PUSH2 0x23AE JUMP JUMPDEST SWAP1 PUSH2 0x2660 JUMP JUMPDEST PUSH1 0x0 DUP8 DUP2 MSTORE PUSH2 0x4E37 PUSH1 0x20 SWAP1 DUP2 MSTORE PUSH1 0x40 DUP1 DUP4 KECCAK256 PUSH1 0x2 ADD SLOAD DUP4 MSTORE PUSH2 0x4E38 SWAP1 SWAP2 MSTORE SWAP1 KECCAK256 SLOAD PUSH1 0x1 PUSH1 0x1 PUSH1 0xA0 SHL SUB AND SWAP3 SWAP2 SWAP1 PUSH2 0x23DE JUMP JUMPDEST PUSH1 0x0 DUP4 DUP2 MSTORE PUSH2 0x4E37 PUSH1 0x20 MSTORE PUSH1 0x40 SWAP1 KECCAK256 DUP1 SLOAD PUSH1 0x1 SWAP1 SWAP2 ADD SLOAD PUSH2 0x1DF5 SWAP2 CALLER SWAP2 PUSH2 0x100 SWAP1 SWAP2 DIV PUSH1 0x1 PUSH1 0x1 PUSH1 0xA0 SHL SUB AND SWAP1 PUSH2 0x1D84 SWAP1 PUSH2 0x3E8 SWAP1 PUSH2 0x1D7E SWAP1 DUP8 PUSH2 0x23AE JUMP JUMPDEST PUSH2 0x1DFF CALLER DUP5 PUSH2 0x256C JUMP JUMPDEST PUSH1 0x0 DUP4 DUP2 MSTORE PUSH2 0x4E37 PUSH1 0x20 SWAP1 DUP2 MSTORE PUSH1 0x40 SWAP2 DUP3 SWAP1 KECCAK256 PUSH1 0x1 DUP2 ADD SLOAD PUSH1 0x2 SWAP1 SWAP2 ADD SLOAD DUP4 MLOAD DUP8 DUP2 MSTORE SWAP3 DUP4 ADD SWAP2 SWAP1 SWAP2 MSTORE DUP2 DUP4 ADD MSTORE SWAP1 MLOAD PUSH32 0x9695D5EBF5115E7B172F9C06E511F76A01DF1DE76571B792FF9B6D506F06D3EF SWAP2 DUP2 SWAP1 SUB PUSH1 0x60 ADD SWAP1 LOG1 PUSH1 0x40 DUP1 MLOAD PUSH1 0x80 DUP2 ADD DUP3 MSTORE PUSH1 0x0 DUP1 DUP3 MSTORE PUSH1 0x20 DUP1 DUP4 ADD DUP3 DUP2 MSTORE DUP4 DUP6 ADD DUP4 DUP2 MSTORE PUSH1 0x60 DUP6 ADD DUP5 DUP2 MSTORE DUP10 DUP6 MSTORE PUSH2 0x4E37 SWAP1 SWAP4 MSTORE SWAP5 DUP4 KECCAK256 SWAP4 MLOAD DUP5 SLOAD SWAP2 MLOAD PUSH1 0x1 PUSH1 0x1 PUSH1 0xA8 SHL SUB NOT SWAP1 SWAP3 AND SWAP1 ISZERO ISZERO PUSH2 0x100 PUSH1 0x1 PUSH1 0xA8 SHL SUB NOT AND OR PUSH2 0x100 PUSH1 0x1 PUSH1 0x1 PUSH1 0xA0 SHL SUB SWAP1 SWAP3 AND SWAP2 SWAP1 SWAP2 MUL OR DUP4 SSTORE SWAP3 MLOAD PUSH1 0x1 DUP4 ADD SSTORE SWAP2 MLOAD PUSH1 0x2 SWAP1 SWAP2 ADD SSTORE JUMPDEST PUSH2 0x4E3B SLOAD DUP2 LT ISZERO PUSH2 0x1F32 JUMPI DUP4 PUSH2 0x4E3B DUP3 DUP2 SLOAD DUP2 LT PUSH2 0x1EEF JUMPI PUSH2 0x1EEF PUSH2 0x37FE JUMP JUMPDEST SWAP1 PUSH1 0x0 MSTORE PUSH1 0x20 PUSH1 0x0 KECCAK256 ADD SLOAD EQ ISZERO PUSH2 0x1F20 JUMPI PUSH2 0x4E3B DUP2 DUP2 SLOAD DUP2 LT PUSH2 0x1F14 JUMPI PUSH2 0x1F14 PUSH2 0x37FE JUMP JUMPDEST PUSH1 0x0 SWAP2 DUP3 MSTORE PUSH1 0x20 DUP3 KECCAK256 ADD SSTORE JUMPDEST DUP1 PUSH2 0x1F2A DUP2 PUSH2 0x378D JUMP JUMPDEST SWAP2 POP POP PUSH2 0x1ECF JUMP JUMPDEST POP POP POP POP JUMP JUMPDEST PUSH1 0x0 SLOAD PUSH1 0x1 PUSH1 0x1 PUSH1 0xA0 SHL SUB AND CALLER EQ PUSH2 0x1F62 JUMPI PUSH1 0x40 MLOAD PUSH3 0x461BCD PUSH1 0xE5 SHL DUP2 MSTORE PUSH1 0x4 ADD PUSH2 0x923 SWAP1 PUSH2 0x35A7 JUMP JUMPDEST PUSH1 0x1 PUSH1 0x1 PUSH1 0xA0 SHL SUB DUP2 AND PUSH2 0x1FC7 JUMPI PUSH1 0x40 MLOAD PUSH3 0x461BCD PUSH1 0xE5 SHL DUP2 MSTORE PUSH1 0x20 PUSH1 0x4 DUP3 ADD MSTORE PUSH1 0x26 PUSH1 0x24 DUP3 ADD MSTORE PUSH32 0x4F776E61626C653A206E6577206F776E657220697320746865207A65726F2061 PUSH1 0x44 DUP3 ADD MSTORE PUSH6 0x646472657373 PUSH1 0xD0 SHL PUSH1 0x64 DUP3 ADD MSTORE PUSH1 0x84 ADD PUSH2 0x923 JUMP JUMPDEST PUSH2 0x1FD0 DUP2 PUSH2 0x2881 JUMP JUMPDEST POP JUMP JUMPDEST PUSH2 0x1FDD DUP2 ADDRESS PUSH2 0xB8B JUMP JUMPDEST PUSH2 0x201F JUMPI PUSH1 0x40 MLOAD PUSH3 0x461BCD PUSH1 0xE5 SHL DUP2 MSTORE PUSH1 0x20 PUSH1 0x4 DUP3 ADD MSTORE PUSH1 0x13 PUSH1 0x24 DUP3 ADD MSTORE PUSH19 0x115C9C9BDC881DDA5D1A08185C1C1C9BDD985B PUSH1 0x6A SHL PUSH1 0x44 DUP3 ADD MSTORE PUSH1 0x64 ADD PUSH2 0x923 JUMP JUMPDEST PUSH2 0x4E3A SLOAD PUSH1 0x1 PUSH1 0xA0 SHL SWAP1 DIV PUSH1 0xFF AND PUSH2 0x2049 JUMPI PUSH1 0x40 MLOAD PUSH3 0x461BCD PUSH1 0xE5 SHL DUP2 MSTORE PUSH1 0x4 ADD PUSH2 0x923 SWAP1 PUSH2 0x357B JUMP JUMPDEST PUSH1 0x0 DUP2 DUP2 MSTORE PUSH2 0x4E37 PUSH1 0x20 MSTORE PUSH1 0x40 SWAP1 KECCAK256 SLOAD PUSH1 0xFF AND PUSH2 0x20A4 JUMPI PUSH1 0x40 MLOAD PUSH3 0x461BCD PUSH1 0xE5 SHL DUP2 MSTORE PUSH1 0x20 PUSH1 0x4 DUP3 ADD MSTORE PUSH1 0x19 PUSH1 0x24 DUP3 ADD MSTORE PUSH25 0x54686520746F6B656E206973206E6F7420666F722073616C65 PUSH1 0x38 SHL PUSH1 0x44 DUP3 ADD MSTORE PUSH1 0x64 ADD PUSH2 0x923 JUMP JUMPDEST PUSH1 0x0 DUP2 DUP2 MSTORE PUSH2 0x4E37 PUSH1 0x20 MSTORE PUSH1 0x40 SWAP1 KECCAK256 PUSH1 0x2 ADD SLOAD ISZERO PUSH2 0x20FA JUMPI PUSH1 0x40 MLOAD PUSH3 0x461BCD PUSH1 0xE5 SHL DUP2 MSTORE PUSH1 0x20 PUSH1 0x4 DUP3 ADD MSTORE PUSH1 0x13 PUSH1 0x24 DUP3 ADD MSTORE PUSH19 0x4E6F74206C697374656420696E204D61746963 PUSH1 0x68 SHL PUSH1 0x44 DUP3 ADD MSTORE PUSH1 0x64 ADD PUSH2 0x923 JUMP JUMPDEST PUSH1 0x0 DUP2 DUP2 MSTORE PUSH2 0x4E37 PUSH1 0x20 MSTORE PUSH1 0x40 SWAP1 KECCAK256 PUSH1 0x1 ADD SLOAD CALLVALUE EQ PUSH2 0x215B JUMPI PUSH1 0x40 MLOAD PUSH3 0x461BCD PUSH1 0xE5 SHL DUP2 MSTORE PUSH1 0x20 PUSH1 0x4 DUP3 ADD MSTORE PUSH1 0x1A PUSH1 0x24 DUP3 ADD MSTORE PUSH32 0x57726F6E6720616D6F756E74206F66204D617469632073656E74000000000000 PUSH1 0x44 DUP3 ADD MSTORE PUSH1 0x64 ADD PUSH2 0x923 JUMP JUMPDEST PUSH2 0x4E39 SLOAD PUSH1 0x0 PUSH2 0x216D DUP3 PUSH2 0x3E8 PUSH2 0x36FE JUMP JUMPDEST PUSH2 0x4E3A SLOAD PUSH1 0x0 DUP6 DUP2 MSTORE PUSH2 0x4E37 PUSH1 0x20 MSTORE PUSH1 0x40 SWAP1 KECCAK256 PUSH1 0x1 ADD SLOAD SWAP2 SWAP3 POP PUSH1 0x1 PUSH1 0x1 PUSH1 0xA0 SHL SUB AND SWAP1 PUSH2 0x8FC SWAP1 PUSH2 0x21A7 SWAP1 PUSH2 0x3E8 SWAP1 PUSH2 0x1D7E SWAP1 DUP8 PUSH2 0x23AE JUMP JUMPDEST PUSH1 0x40 MLOAD DUP2 ISZERO SWAP1 SWAP3 MUL SWAP2 PUSH1 0x0 DUP2 DUP2 DUP2 DUP6 DUP9 DUP9 CALL SWAP4 POP POP POP POP ISZERO DUP1 ISZERO PUSH2 0x21CF JUMPI RETURNDATASIZE PUSH1 0x0 DUP1 RETURNDATACOPY RETURNDATASIZE PUSH1 0x0 REVERT JUMPDEST POP PUSH1 0x0 DUP4 DUP2 MSTORE PUSH2 0x4E37 PUSH1 0x20 MSTORE PUSH1 0x40 SWAP1 KECCAK256 DUP1 SLOAD PUSH1 0x1 SWAP1 SWAP2 ADD SLOAD PUSH2 0x100 SWAP1 SWAP2 DIV PUSH1 0x1 PUSH1 0x1 PUSH1 0xA0 SHL SUB AND SWAP1 PUSH2 0x8FC SWAP1 PUSH2 0x220D SWAP1 PUSH2 0x3E8 SWAP1 PUSH2 0x1D7E SWAP1 DUP7 PUSH2 0x23AE JUMP JUMPDEST PUSH1 0x40 MLOAD DUP2 ISZERO SWAP1 SWAP3 MUL SWAP2 PUSH1 0x0 DUP2 DUP2 DUP2 DUP6 DUP9 DUP9 CALL SWAP4 POP POP POP POP ISZERO DUP1 ISZERO PUSH2 0x2235 JUMPI RETURNDATASIZE PUSH1 0x0 DUP1 RETURNDATACOPY RETURNDATASIZE PUSH1 0x0 REVERT JUMPDEST POP PUSH2 0x2240 CALLER DUP5 PUSH2 0x256C JUMP JUMPDEST PUSH1 0x0 DUP4 DUP2 MSTORE PUSH2 0x4E37 PUSH1 0x20 SWAP1 DUP2 MSTORE PUSH1 0x40 SWAP2 DUP3 SWAP1 KECCAK256 PUSH1 0x1 DUP2 ADD SLOAD PUSH1 0x2 SWAP1 SWAP2 ADD SLOAD DUP4 MLOAD DUP8 DUP2 MSTORE SWAP3 DUP4 ADD SWAP2 SWAP1 SWAP2 MSTORE DUP2 DUP4 ADD MSTORE SWAP1 MLOAD PUSH32 0x9695D5EBF5115E7B172F9C06E511F76A01DF1DE76571B792FF9B6D506F06D3EF SWAP2 DUP2 SWAP1 SUB PUSH1 0x60 ADD SWAP1 LOG1 PUSH1 0x40 DUP1 MLOAD PUSH1 0x80 DUP2 ADD DUP3 MSTORE PUSH1 0x0 DUP1 DUP3 MSTORE PUSH1 0x20 DUP1 DUP4 ADD DUP3 DUP2 MSTORE DUP4 DUP6 ADD DUP4 DUP2 MSTORE PUSH1 0x60 DUP6 ADD DUP5 DUP2 MSTORE DUP10 DUP6 MSTORE PUSH2 0x4E37 SWAP1 SWAP4 MSTORE SWAP5 DUP4 KECCAK256 SWAP4 MLOAD DUP5 SLOAD SWAP2 MLOAD PUSH1 0x1 PUSH1 0x1 PUSH1 0xA8 SHL SUB NOT SWAP1 SWAP3 AND SWAP1 ISZERO ISZERO PUSH2 0x100 PUSH1 0x1 PUSH1 0xA8 SHL SUB NOT AND OR PUSH2 0x100 PUSH1 0x1 PUSH1 0x1 PUSH1 0xA0 SHL SUB SWAP1 SWAP3 AND SWAP2 SWAP1 SWAP2 MUL OR DUP4 SSTORE SWAP3 MLOAD PUSH1 0x1 DUP4 ADD SSTORE SWAP2 MLOAD PUSH1 0x2 SWAP1 SWAP2 ADD SSTORE JUMPDEST PUSH2 0x4E3B SLOAD DUP2 LT ISZERO PUSH2 0x1F32 JUMPI DUP4 PUSH2 0x4E3B DUP3 DUP2 SLOAD DUP2 LT PUSH2 0x2330 JUMPI PUSH2 0x2330 PUSH2 0x37FE JUMP JUMPDEST SWAP1 PUSH1 0x0 MSTORE PUSH1 0x20 PUSH1 0x0 KECCAK256 ADD SLOAD EQ ISZERO PUSH2 0x2361 JUMPI PUSH2 0x4E3B DUP2 DUP2 SLOAD DUP2 LT PUSH2 0x2355 JUMPI PUSH2 0x2355 PUSH2 0x37FE JUMP JUMPDEST PUSH1 0x0 SWAP2 DUP3 MSTORE PUSH1 0x20 DUP3 KECCAK256 ADD SSTORE JUMPDEST DUP1 PUSH2 0x236B DUP2 PUSH2 0x378D JUMP JUMPDEST SWAP2 POP POP PUSH2 0x2310 JUMP JUMPDEST PUSH1 0x0 PUSH2 0x237F DUP3 DUP5 PUSH2 0x36B3 JUMP JUMPDEST SWAP1 POP DUP3 DUP2 LT ISZERO PUSH2 0xC13 JUMPI PUSH1 0x0 DUP1 REVERT JUMPDEST PUSH1 0x0 DUP3 DUP3 GT ISZERO PUSH2 0x239D JUMPI PUSH1 0x0 DUP1 REVERT JUMPDEST PUSH2 0x23A7 DUP3 DUP5 PUSH2 0x36FE JUMP JUMPDEST SWAP4 SWAP3 POP POP POP JUMP JUMPDEST PUSH1 0x0 DUP3 PUSH2 0x23BD JUMPI POP PUSH1 0x0 PUSH2 0xC13 JUMP JUMPDEST PUSH2 0x23C7 DUP3 DUP5 PUSH2 0x36DF JUMP JUMPDEST SWAP1 POP DUP2 PUSH2 0x23D4 DUP5 DUP4 PUSH2 0x36CB JUMP JUMPDEST EQ PUSH2 0xC13 JUMPI PUSH1 0x0 DUP1 REVERT JUMPDEST PUSH1 0x40 DUP1 MLOAD PUSH1 0x1 PUSH1 0x1 PUSH1 0xA0 SHL SUB DUP6 DUP2 AND PUSH1 0x24 DUP4 ADD MSTORE DUP5 AND PUSH1 0x44 DUP3 ADD MSTORE PUSH1 0x64 DUP1 DUP3 ADD DUP5 SWAP1 MSTORE DUP3 MLOAD DUP1 DUP4 SUB SWAP1 SWAP2 ADD DUP2 MSTORE PUSH1 0x84 SWAP1 SWAP2 ADD SWAP1 SWAP2 MSTORE PUSH1 0x20 DUP2 ADD DUP1 MLOAD PUSH1 0x1 PUSH1 0x1 PUSH1 0xE0 SHL SUB AND PUSH4 0x23B872DD PUSH1 0xE0 SHL OR SWAP1 MSTORE PUSH2 0x1F32 SWAP1 DUP6 SWAP1 PUSH2 0x29E8 JUMP JUMPDEST PUSH1 0x0 PUSH1 0x1 PUSH1 0x1 PUSH1 0xA0 SHL SUB DUP3 AND PUSH2 0x2486 JUMPI PUSH1 0x40 MLOAD PUSH3 0x461BCD PUSH1 0xE5 SHL DUP2 MSTORE PUSH1 0x20 PUSH1 0x4 DUP3 ADD MSTORE PUSH1 0x13 PUSH1 0x24 DUP3 ADD MSTORE PUSH19 0x21B0B73737BA1036B4B73A103A3790183C1817 PUSH1 0x69 SHL PUSH1 0x44 DUP3 ADD MSTORE PUSH1 0x64 ADD PUSH2 0x923 JUMP JUMPDEST PUSH2 0x4E20 PUSH1 0x9 SLOAD LT PUSH2 0x24D0 JUMPI PUSH1 0x40 MLOAD PUSH3 0x461BCD PUSH1 0xE5 SHL DUP2 MSTORE PUSH1 0x20 PUSH1 0x4 DUP3 ADD MSTORE PUSH1 0x14 PUSH1 0x24 DUP3 ADD MSTORE PUSH20 0x2A37B5B2B7103634B6B4BA103932B0B1B432B217 PUSH1 0x61 SHL PUSH1 0x44 DUP3 ADD MSTORE PUSH1 0x64 ADD PUSH2 0x923 JUMP JUMPDEST PUSH1 0x0 PUSH2 0x24DA PUSH2 0x2ABA JUMP JUMPDEST SWAP1 POP PUSH1 0x9 SLOAD PUSH1 0x1 PUSH2 0x24EB SWAP2 SWAP1 PUSH2 0x36B3 JUMP JUMPDEST PUSH1 0x9 SSTORE PUSH2 0x24F8 DUP4 DUP3 PUSH2 0x2C16 JUMP JUMPDEST PUSH1 0x40 MLOAD PUSH1 0x1 PUSH1 0x1 PUSH1 0xA0 SHL SUB DUP5 AND SWAP1 DUP3 SWAP1 PUSH32 0xF3CEA5493D790AF0133817606F7350A91D7F154EA52EAA79D179D4D231E50102 SWAP1 PUSH1 0x0 SWAP1 LOG3 PUSH1 0x40 MLOAD DUP2 SWAP1 PUSH1 0x1 PUSH1 0x1 PUSH1 0xA0 SHL SUB DUP6 AND SWAP1 PUSH1 0x0 SWAP1 PUSH32 0xDDF252AD1BE2C89B69C2B068FC378DAA952BA7F163C4A11628F55A4DF523B3EF SWAP1 DUP3 SWAP1 LOG4 SWAP3 SWAP2 POP POP JUMP JUMPDEST PUSH1 0x0 DUP2 DUP2 MSTORE PUSH1 0x2 PUSH1 0x20 MSTORE PUSH1 0x40 SWAP1 KECCAK256 SLOAD PUSH1 0x1 PUSH1 0x1 PUSH1 0xA0 SHL SUB AND PUSH2 0x258D DUP3 PUSH2 0x2CE5 JUMP JUMPDEST PUSH1 0x40 DUP1 MLOAD PUSH1 0x80 DUP2 ADD DUP3 MSTORE PUSH1 0x0 DUP1 DUP3 MSTORE PUSH1 0x20 DUP1 DUP4 ADD DUP3 DUP2 MSTORE DUP4 DUP6 ADD DUP4 DUP2 MSTORE PUSH1 0x60 DUP6 ADD DUP5 DUP2 MSTORE DUP9 DUP6 MSTORE PUSH2 0x4E37 SWAP1 SWAP4 MSTORE SWAP5 SWAP1 SWAP3 KECCAK256 SWAP3 MLOAD DUP4 SLOAD SWAP3 MLOAD PUSH1 0x1 PUSH1 0x1 PUSH1 0xA8 SHL SUB NOT SWAP1 SWAP4 AND SWAP1 ISZERO ISZERO PUSH2 0x100 PUSH1 0x1 PUSH1 0xA8 SHL SUB NOT AND OR PUSH2 0x100 PUSH1 0x1 PUSH1 0x1 PUSH1 0xA0 SHL SUB SWAP1 SWAP4 AND SWAP3 SWAP1 SWAP3 MUL SWAP2 SWAP1 SWAP2 OR DUP3 SSTORE SWAP2 MLOAD PUSH1 0x1 DUP3 ADD SSTORE SWAP1 MLOAD PUSH1 0x2 SWAP1 SWAP2 ADD SSTORE PUSH2 0x2610 DUP2 DUP4 PUSH2 0x2D20 JUMP JUMPDEST PUSH2 0x261A DUP4 DUP4 PUSH2 0x2C16 JUMP JUMPDEST DUP2 DUP4 PUSH1 0x1 PUSH1 0x1 PUSH1 0xA0 SHL SUB AND DUP3 PUSH1 0x1 PUSH1 0x1 PUSH1 0xA0 SHL SUB AND PUSH32 0xDDF252AD1BE2C89B69C2B068FC378DAA952BA7F163C4A11628F55A4DF523B3EF PUSH1 0x40 MLOAD PUSH1 0x40 MLOAD DUP1 SWAP2 SUB SWAP1 LOG4 POP POP POP JUMP JUMPDEST PUSH1 0x0 PUSH2 0x23A7 DUP3 DUP5 PUSH2 0x36CB JUMP JUMPDEST PUSH1 0x0 DUP3 DUP2 MSTORE PUSH1 0x2 PUSH1 0x20 MSTORE PUSH1 0x40 SWAP1 KECCAK256 SLOAD DUP3 SWAP1 PUSH1 0x1 PUSH1 0x1 PUSH1 0xA0 SHL SUB AND CALLER DUP2 EQ DUP1 PUSH2 0x26AA JUMPI POP PUSH1 0x0 DUP3 DUP2 MSTORE PUSH1 0x3 PUSH1 0x20 MSTORE PUSH1 0x40 SWAP1 KECCAK256 SLOAD PUSH1 0x1 PUSH1 0x1 PUSH1 0xA0 SHL SUB AND CALLER EQ JUMPDEST DUP1 PUSH2 0x26D8 JUMPI POP PUSH1 0x1 PUSH1 0x1 PUSH1 0xA0 SHL SUB DUP2 AND PUSH1 0x0 SWAP1 DUP2 MSTORE PUSH1 0x4 PUSH1 0x20 SWAP1 DUP2 MSTORE PUSH1 0x40 DUP1 DUP4 KECCAK256 CALLER DUP5 MSTORE SWAP1 SWAP2 MSTORE SWAP1 KECCAK256 SLOAD PUSH1 0xFF AND JUMPDEST PUSH2 0x2717 JUMPI PUSH1 0x40 MLOAD PUSH3 0x461BCD PUSH1 0xE5 SHL DUP2 MSTORE PUSH1 0x20 PUSH1 0x4 DUP3 ADD MSTORE PUSH1 0x10 PUSH1 0x24 DUP3 ADD MSTORE PUSH16 0x21B0B73737BA103A3930B739B332B917 PUSH1 0x81 SHL PUSH1 0x44 DUP3 ADD MSTORE PUSH1 0x64 ADD PUSH2 0x923 JUMP JUMPDEST PUSH1 0x0 DUP5 DUP2 MSTORE PUSH1 0x2 PUSH1 0x20 MSTORE PUSH1 0x40 SWAP1 KECCAK256 SLOAD DUP5 SWAP1 PUSH1 0x1 PUSH1 0x1 PUSH1 0xA0 SHL SUB AND PUSH2 0x274D JUMPI PUSH1 0x40 MLOAD PUSH3 0x461BCD PUSH1 0xE5 SHL DUP2 MSTORE PUSH1 0x4 ADD PUSH2 0x923 SWAP1 PUSH2 0x3553 JUMP JUMPDEST PUSH1 0x0 DUP6 DUP2 MSTORE PUSH1 0x2 PUSH1 0x20 MSTORE PUSH1 0x40 SWAP1 KECCAK256 SLOAD PUSH1 0x1 PUSH1 0x1 PUSH1 0xA0 SHL SUB SWAP1 DUP2 AND SWAP1 DUP9 AND DUP2 EQ PUSH2 0x27AB JUMPI PUSH1 0x40 MLOAD PUSH3 0x461BCD PUSH1 0xE5 SHL DUP2 MSTORE PUSH1 0x20 PUSH1 0x4 DUP3 ADD MSTORE PUSH1 0x10 PUSH1 0x24 DUP3 ADD MSTORE PUSH16 0x24B731B7B93932B1BA1037BBB732B917 PUSH1 0x81 SHL PUSH1 0x44 DUP3 ADD MSTORE PUSH1 0x64 ADD PUSH2 0x923 JUMP JUMPDEST PUSH1 0x1 PUSH1 0x1 PUSH1 0xA0 SHL SUB DUP8 AND PUSH2 0x27BE JUMPI PUSH1 0x0 DUP1 REVERT JUMPDEST PUSH2 0x27C8 DUP8 DUP8 PUSH2 0x256C JUMP JUMPDEST DUP7 EXTCODESIZE ISZERO PUSH2 0x2877 JUMPI PUSH1 0x40 MLOAD PUSH4 0xA85BD01 PUSH1 0xE1 SHL DUP2 MSTORE PUSH1 0x0 SWAP1 PUSH1 0x1 PUSH1 0x1 PUSH1 0xA0 SHL SUB DUP10 AND SWAP1 PUSH4 0x150B7A02 SWAP1 PUSH2 0x2804 SWAP1 CALLER SWAP1 DUP14 SWAP1 DUP13 SWAP1 DUP13 SWAP1 PUSH1 0x4 ADD PUSH2 0x3503 JUMP JUMPDEST PUSH1 0x20 PUSH1 0x40 MLOAD DUP1 DUP4 SUB DUP2 PUSH1 0x0 DUP8 DUP1 EXTCODESIZE ISZERO DUP1 ISZERO PUSH2 0x281E JUMPI PUSH1 0x0 DUP1 REVERT JUMPDEST POP GAS CALL ISZERO DUP1 ISZERO PUSH2 0x2832 JUMPI RETURNDATASIZE PUSH1 0x0 DUP1 RETURNDATACOPY RETURNDATASIZE PUSH1 0x0 REVERT JUMPDEST POP POP POP POP PUSH1 0x40 MLOAD RETURNDATASIZE PUSH1 0x1F NOT PUSH1 0x1F DUP3 ADD AND DUP3 ADD DUP1 PUSH1 0x40 MSTORE POP DUP2 ADD SWAP1 PUSH2 0x2856 SWAP2 SWAP1 PUSH2 0x32A9 JUMP JUMPDEST SWAP1 POP PUSH1 0x1 PUSH1 0x1 PUSH1 0xE0 SHL SUB NOT DUP2 AND PUSH4 0xA85BD01 PUSH1 0xE1 SHL EQ PUSH2 0x2875 JUMPI PUSH1 0x0 DUP1 REVERT JUMPDEST POP JUMPDEST POP POP POP POP POP POP POP POP JUMP JUMPDEST PUSH1 0x0 DUP1 SLOAD PUSH1 0x1 PUSH1 0x1 PUSH1 0xA0 SHL SUB DUP4 DUP2 AND PUSH1 0x1 PUSH1 0x1 PUSH1 0xA0 SHL SUB NOT DUP4 AND DUP2 OR DUP5 SSTORE PUSH1 0x40 MLOAD SWAP2 SWAP1 SWAP3 AND SWAP3 DUP4 SWAP2 PUSH32 0x8BE0079C531659141344CD1FD0A4F28419497F9722A3DAAFE3B4186F6B6457E0 SWAP2 SWAP1 LOG3 POP POP JUMP JUMPDEST PUSH1 0x60 DUP2 PUSH2 0x28F5 JUMPI POP POP PUSH1 0x40 DUP1 MLOAD DUP1 DUP3 ADD SWAP1 SWAP2 MSTORE PUSH1 0x1 DUP2 MSTORE PUSH1 0x3 PUSH1 0xFC SHL PUSH1 0x20 DUP3 ADD MSTORE SWAP1 JUMP JUMPDEST DUP2 PUSH1 0x0 JUMPDEST DUP2 ISZERO PUSH2 0x291F JUMPI DUP1 PUSH2 0x2909 DUP2 PUSH2 0x378D JUMP JUMPDEST SWAP2 POP PUSH2 0x2918 SWAP1 POP PUSH1 0xA DUP4 PUSH2 0x36CB JUMP JUMPDEST SWAP2 POP PUSH2 0x28F9 JUMP JUMPDEST PUSH1 0x0 DUP2 PUSH8 0xFFFFFFFFFFFFFFFF DUP2 GT ISZERO PUSH2 0x293A JUMPI PUSH2 0x293A PUSH2 0x3814 JUMP JUMPDEST PUSH1 0x40 MLOAD SWAP1 DUP1 DUP3 MSTORE DUP1 PUSH1 0x1F ADD PUSH1 0x1F NOT AND PUSH1 0x20 ADD DUP3 ADD PUSH1 0x40 MSTORE DUP1 ISZERO PUSH2 0x2964 JUMPI PUSH1 0x20 DUP3 ADD DUP2 DUP1 CALLDATASIZE DUP4 CALLDATACOPY ADD SWAP1 POP JUMPDEST POP SWAP1 POP PUSH1 0x0 PUSH2 0x2974 PUSH1 0x1 DUP5 PUSH2 0x36FE JUMP JUMPDEST SWAP1 POP DUP6 SWAP4 POP JUMPDEST DUP4 ISZERO PUSH2 0x29DF JUMPI PUSH2 0x298B PUSH1 0xA DUP6 PUSH2 0x37A8 JUMP JUMPDEST PUSH2 0x2996 SWAP1 PUSH1 0x30 PUSH2 0x36B3 JUMP JUMPDEST PUSH1 0xF8 SHL DUP3 DUP3 PUSH2 0x29A4 DUP2 PUSH2 0x3741 JUMP JUMPDEST SWAP4 POP DUP2 MLOAD DUP2 LT PUSH2 0x29B6 JUMPI PUSH2 0x29B6 PUSH2 0x37FE JUMP JUMPDEST PUSH1 0x20 ADD ADD SWAP1 PUSH1 0x1 PUSH1 0x1 PUSH1 0xF8 SHL SUB NOT AND SWAP1 DUP2 PUSH1 0x0 BYTE SWAP1 MSTORE8 POP PUSH2 0x29D8 PUSH1 0xA DUP6 PUSH2 0x36CB JUMP JUMPDEST SWAP4 POP PUSH2 0x297A JUMP JUMPDEST POP SWAP5 SWAP4 POP POP POP POP JUMP JUMPDEST PUSH1 0x0 PUSH2 0x2A3D DUP3 PUSH1 0x40 MLOAD DUP1 PUSH1 0x40 ADD PUSH1 0x40 MSTORE DUP1 PUSH1 0x20 DUP2 MSTORE PUSH1 0x20 ADD PUSH32 0x5361666545524332303A206C6F772D6C6576656C2063616C6C206661696C6564 DUP2 MSTORE POP DUP6 PUSH1 0x1 PUSH1 0x1 PUSH1 0xA0 SHL SUB AND PUSH2 0x2E9F SWAP1 SWAP3 SWAP2 SWAP1 PUSH4 0xFFFFFFFF AND JUMP JUMPDEST DUP1 MLOAD SWAP1 SWAP2 POP ISZERO PUSH2 0x13D8 JUMPI DUP1 DUP1 PUSH1 0x20 ADD SWAP1 MLOAD DUP2 ADD SWAP1 PUSH2 0x2A5B SWAP2 SWAP1 PUSH2 0x326F JUMP JUMPDEST PUSH2 0x13D8 JUMPI PUSH1 0x40 MLOAD PUSH3 0x461BCD PUSH1 0xE5 SHL DUP2 MSTORE PUSH1 0x20 PUSH1 0x4 DUP3 ADD MSTORE PUSH1 0x2A PUSH1 0x24 DUP3 ADD MSTORE PUSH32 0x5361666545524332303A204552433230206F7065726174696F6E20646964206E PUSH1 0x44 DUP3 ADD MSTORE PUSH10 0x1BDD081CDD58D8D95959 PUSH1 0xB2 SHL PUSH1 0x64 DUP3 ADD MSTORE PUSH1 0x84 ADD PUSH2 0x923 JUMP JUMPDEST PUSH1 0x0 DUP1 PUSH1 0x9 SLOAD PUSH2 0x4E20 PUSH2 0x2ACD SWAP2 SWAP1 PUSH2 0x36FE JUMP JUMPDEST PUSH1 0x15 SLOAD PUSH1 0x40 DUP1 MLOAD PUSH1 0x20 DUP2 ADD SWAP3 SWAP1 SWAP3 MSTORE PUSH12 0xFFFFFFFFFFFFFFFFFFFFFFFF NOT CALLER PUSH1 0x60 SHL AND SWAP1 DUP3 ADD MSTORE DIFFICULTY PUSH1 0x54 DUP3 ADD MSTORE TIMESTAMP PUSH1 0x74 DUP3 ADD MSTORE SWAP1 SWAP2 POP PUSH1 0x0 SWAP1 DUP3 SWAP1 PUSH1 0x94 ADD PUSH1 0x40 MLOAD PUSH1 0x20 DUP2 DUP4 SUB SUB DUP2 MSTORE SWAP1 PUSH1 0x40 MSTORE DUP1 MLOAD SWAP1 PUSH1 0x20 ADD KECCAK256 PUSH1 0x0 SHR PUSH2 0x2B2D SWAP2 SWAP1 PUSH2 0x37A8 JUMP JUMPDEST SWAP1 POP PUSH1 0x0 PUSH1 0x16 DUP3 PUSH2 0x4E20 DUP2 LT PUSH2 0x2B45 JUMPI PUSH2 0x2B45 PUSH2 0x37FE JUMP JUMPDEST ADD SLOAD ISZERO PUSH2 0x2B69 JUMPI PUSH1 0x16 DUP3 PUSH2 0x4E20 DUP2 LT PUSH2 0x2B60 JUMPI PUSH2 0x2B60 PUSH2 0x37FE JUMP JUMPDEST ADD SLOAD SWAP1 POP PUSH2 0x2B6C JUMP JUMPDEST POP DUP1 JUMPDEST PUSH1 0x16 PUSH2 0x2B79 PUSH1 0x1 DUP6 PUSH2 0x36FE JUMP JUMPDEST PUSH2 0x4E20 DUP2 LT PUSH2 0x2B8A JUMPI PUSH2 0x2B8A PUSH2 0x37FE JUMP JUMPDEST ADD SLOAD PUSH2 0x2BB6 JUMPI PUSH2 0x2B9B PUSH1 0x1 DUP5 PUSH2 0x36FE JUMP JUMPDEST PUSH1 0x16 DUP4 PUSH2 0x4E20 DUP2 LT PUSH2 0x2BAF JUMPI PUSH2 0x2BAF PUSH2 0x37FE JUMP JUMPDEST ADD SSTORE PUSH2 0x2BED JUMP JUMPDEST PUSH1 0x16 PUSH2 0x2BC3 PUSH1 0x1 DUP6 PUSH2 0x36FE JUMP JUMPDEST PUSH2 0x4E20 DUP2 LT PUSH2 0x2BD4 JUMPI PUSH2 0x2BD4 PUSH2 0x37FE JUMP JUMPDEST ADD SLOAD PUSH1 0x16 DUP4 PUSH2 0x4E20 DUP2 LT PUSH2 0x2BEA JUMPI PUSH2 0x2BEA PUSH2 0x37FE JUMP JUMPDEST ADD SSTORE JUMPDEST PUSH1 0x15 DUP1 SLOAD SWAP1 PUSH1 0x0 PUSH2 0x2BFD DUP4 PUSH2 0x378D JUMP JUMPDEST SWAP1 SWAP2 SSTORE POP PUSH2 0x2C0E SWAP1 POP DUP2 PUSH1 0x1 PUSH2 0x2373 JUMP JUMPDEST SWAP4 POP POP POP POP SWAP1 JUMP JUMPDEST PUSH1 0x0 DUP2 DUP2 MSTORE PUSH1 0x2 PUSH1 0x20 MSTORE PUSH1 0x40 SWAP1 KECCAK256 SLOAD PUSH1 0x1 PUSH1 0x1 PUSH1 0xA0 SHL SUB AND ISZERO PUSH2 0x2C7B JUMPI PUSH1 0x40 MLOAD PUSH3 0x461BCD PUSH1 0xE5 SHL DUP2 MSTORE PUSH1 0x20 PUSH1 0x4 DUP3 ADD MSTORE PUSH1 0x1A PUSH1 0x24 DUP3 ADD MSTORE PUSH32 0x43616E6E6F74206164642C20616C7265616479206F776E65642E000000000000 PUSH1 0x44 DUP3 ADD MSTORE PUSH1 0x64 ADD PUSH2 0x923 JUMP JUMPDEST PUSH1 0x0 DUP2 DUP2 MSTORE PUSH1 0x2 PUSH1 0x20 SWAP1 DUP2 MSTORE PUSH1 0x40 DUP1 DUP4 KECCAK256 DUP1 SLOAD PUSH1 0x1 PUSH1 0x1 PUSH1 0xA0 SHL SUB NOT AND PUSH1 0x1 PUSH1 0x1 PUSH1 0xA0 SHL SUB DUP8 AND SWAP1 DUP2 OR SWAP1 SWAP2 SSTORE DUP1 DUP5 MSTORE PUSH1 0x5 DUP4 MSTORE SWAP1 DUP4 KECCAK256 DUP1 SLOAD PUSH1 0x1 DUP2 DUP2 ADD DUP4 SSTORE DUP3 DUP7 MSTORE SWAP4 DUP6 KECCAK256 ADD DUP6 SWAP1 SSTORE SWAP3 MSTORE SWAP1 SLOAD PUSH2 0x2CD2 SWAP2 PUSH2 0x238E JUMP JUMPDEST PUSH1 0x0 SWAP2 DUP3 MSTORE PUSH1 0x6 PUSH1 0x20 MSTORE PUSH1 0x40 SWAP1 SWAP2 KECCAK256 SSTORE POP JUMP JUMPDEST PUSH1 0x0 DUP2 DUP2 MSTORE PUSH1 0x3 PUSH1 0x20 MSTORE PUSH1 0x40 SWAP1 KECCAK256 SLOAD PUSH1 0x1 PUSH1 0x1 PUSH1 0xA0 SHL SUB AND ISZERO PUSH2 0x1FD0 JUMPI PUSH1 0x0 SWAP1 DUP2 MSTORE PUSH1 0x3 PUSH1 0x20 MSTORE PUSH1 0x40 SWAP1 KECCAK256 DUP1 SLOAD PUSH1 0x1 PUSH1 0x1 PUSH1 0xA0 SHL SUB NOT AND SWAP1 SSTORE JUMP JUMPDEST PUSH1 0x0 DUP2 DUP2 MSTORE PUSH1 0x2 PUSH1 0x20 MSTORE PUSH1 0x40 SWAP1 KECCAK256 SLOAD PUSH1 0x1 PUSH1 0x1 PUSH1 0xA0 SHL SUB DUP4 DUP2 AND SWAP2 AND EQ PUSH2 0x2D7C JUMPI PUSH1 0x40 MLOAD PUSH3 0x461BCD PUSH1 0xE5 SHL DUP2 MSTORE PUSH1 0x20 PUSH1 0x4 DUP3 ADD MSTORE PUSH1 0x10 PUSH1 0x24 DUP3 ADD MSTORE PUSH16 0x24B731B7B93932B1BA1037BBB732B917 PUSH1 0x81 SHL PUSH1 0x44 DUP3 ADD MSTORE PUSH1 0x64 ADD PUSH2 0x923 JUMP JUMPDEST PUSH1 0x0 DUP2 DUP2 MSTORE PUSH1 0x2 PUSH1 0x20 SWAP1 DUP2 MSTORE PUSH1 0x40 DUP1 DUP4 KECCAK256 DUP1 SLOAD PUSH1 0x1 PUSH1 0x1 PUSH1 0xA0 SHL SUB NOT AND SWAP1 SSTORE PUSH1 0x6 DUP3 MSTORE DUP1 DUP4 KECCAK256 SLOAD PUSH1 0x1 PUSH1 0x1 PUSH1 0xA0 SHL SUB DUP7 AND DUP5 MSTORE PUSH1 0x5 SWAP1 SWAP3 MSTORE DUP3 KECCAK256 SLOAD SWAP1 SWAP2 SWAP1 PUSH2 0x2DC5 SWAP1 PUSH1 0x1 PUSH2 0x238E JUMP JUMPDEST SWAP1 POP DUP2 DUP2 EQ PUSH2 0x2E5C JUMPI PUSH1 0x1 PUSH1 0x1 PUSH1 0xA0 SHL SUB DUP5 AND PUSH1 0x0 SWAP1 DUP2 MSTORE PUSH1 0x5 PUSH1 0x20 MSTORE PUSH1 0x40 DUP2 KECCAK256 DUP1 SLOAD DUP4 SWAP1 DUP2 LT PUSH2 0x2DF8 JUMPI PUSH2 0x2DF8 PUSH2 0x37FE JUMP JUMPDEST SWAP1 PUSH1 0x0 MSTORE PUSH1 0x20 PUSH1 0x0 KECCAK256 ADD SLOAD SWAP1 POP DUP1 PUSH1 0x5 PUSH1 0x0 DUP8 PUSH1 0x1 PUSH1 0x1 PUSH1 0xA0 SHL SUB AND PUSH1 0x1 PUSH1 0x1 PUSH1 0xA0 SHL SUB AND DUP2 MSTORE PUSH1 0x20 ADD SWAP1 DUP2 MSTORE PUSH1 0x20 ADD PUSH1 0x0 KECCAK256 DUP5 DUP2 SLOAD DUP2 LT PUSH2 0x2E3C JUMPI PUSH2 0x2E3C PUSH2 0x37FE JUMP JUMPDEST PUSH1 0x0 SWAP2 DUP3 MSTORE PUSH1 0x20 DUP1 DUP4 KECCAK256 SWAP1 SWAP2 ADD SWAP3 SWAP1 SWAP3 SSTORE SWAP2 DUP3 MSTORE PUSH1 0x6 SWAP1 MSTORE PUSH1 0x40 SWAP1 KECCAK256 DUP3 SWAP1 SSTORE JUMPDEST PUSH1 0x1 PUSH1 0x1 PUSH1 0xA0 SHL SUB DUP5 AND PUSH1 0x0 SWAP1 DUP2 MSTORE PUSH1 0x5 PUSH1 0x20 MSTORE PUSH1 0x40 SWAP1 KECCAK256 DUP1 SLOAD DUP1 PUSH2 0x2E83 JUMPI PUSH2 0x2E83 PUSH2 0x37E8 JUMP JUMPDEST PUSH1 0x1 SWAP1 SUB DUP2 DUP2 SWAP1 PUSH1 0x0 MSTORE PUSH1 0x20 PUSH1 0x0 KECCAK256 ADD PUSH1 0x0 SWAP1 SSTORE SWAP1 SSTORE POP POP POP POP JUMP JUMPDEST PUSH1 0x60 PUSH2 0x2EAE DUP5 DUP5 PUSH1 0x0 DUP6 PUSH2 0x2EB6 JUMP JUMPDEST SWAP5 SWAP4 POP POP POP POP JUMP JUMPDEST PUSH1 0x60 DUP3 SELFBALANCE LT ISZERO PUSH2 0x2F17 JUMPI PUSH1 0x40 MLOAD PUSH3 0x461BCD PUSH1 0xE5 SHL DUP2 MSTORE PUSH1 0x20 PUSH1 0x4 DUP3 ADD MSTORE PUSH1 0x26 PUSH1 0x24 DUP3 ADD MSTORE PUSH32 0x416464726573733A20696E73756666696369656E742062616C616E636520666F PUSH1 0x44 DUP3 ADD MSTORE PUSH6 0x1C8818D85B1B PUSH1 0xD2 SHL PUSH1 0x64 DUP3 ADD MSTORE PUSH1 0x84 ADD PUSH2 0x923 JUMP JUMPDEST DUP5 EXTCODESIZE PUSH2 0x2F65 JUMPI PUSH1 0x40 MLOAD PUSH3 0x461BCD PUSH1 0xE5 SHL DUP2 MSTORE PUSH1 0x20 PUSH1 0x4 DUP3 ADD MSTORE PUSH1 0x1D PUSH1 0x24 DUP3 ADD MSTORE PUSH32 0x416464726573733A2063616C6C20746F206E6F6E2D636F6E7472616374000000 PUSH1 0x44 DUP3 ADD MSTORE PUSH1 0x64 ADD PUSH2 0x923 JUMP JUMPDEST PUSH1 0x0 DUP1 DUP7 PUSH1 0x1 PUSH1 0x1 PUSH1 0xA0 SHL SUB AND DUP6 DUP8 PUSH1 0x40 MLOAD PUSH2 0x2F81 SWAP2 SWAP1 PUSH2 0x3440 JUMP JUMPDEST PUSH1 0x0 PUSH1 0x40 MLOAD DUP1 DUP4 SUB DUP2 DUP6 DUP8 GAS CALL SWAP3 POP POP POP RETURNDATASIZE DUP1 PUSH1 0x0 DUP2 EQ PUSH2 0x2FBE JUMPI PUSH1 0x40 MLOAD SWAP2 POP PUSH1 0x1F NOT PUSH1 0x3F RETURNDATASIZE ADD AND DUP3 ADD PUSH1 0x40 MSTORE RETURNDATASIZE DUP3 MSTORE RETURNDATASIZE PUSH1 0x0 PUSH1 0x20 DUP5 ADD RETURNDATACOPY PUSH2 0x2FC3 JUMP JUMPDEST PUSH1 0x60 SWAP2 POP JUMPDEST POP SWAP2 POP SWAP2 POP PUSH2 0x2FD3 DUP3 DUP3 DUP7 PUSH2 0x2FDE JUMP JUMPDEST SWAP8 SWAP7 POP POP POP POP POP POP POP JUMP JUMPDEST PUSH1 0x60 DUP4 ISZERO PUSH2 0x2FED JUMPI POP DUP2 PUSH2 0x23A7 JUMP JUMPDEST DUP3 MLOAD ISZERO PUSH2 0x2FFD JUMPI DUP3 MLOAD DUP1 DUP5 PUSH1 0x20 ADD REVERT JUMPDEST DUP2 PUSH1 0x40 MLOAD PUSH3 0x461BCD PUSH1 0xE5 SHL DUP2 MSTORE PUSH1 0x4 ADD PUSH2 0x923 SWAP2 SWAP1 PUSH2 0x3540 JUMP JUMPDEST DUP3 DUP1 SLOAD PUSH2 0x3023 SWAP1 PUSH2 0x3758 JUMP JUMPDEST SWAP1 PUSH1 0x0 MSTORE PUSH1 0x20 PUSH1 0x0 KECCAK256 SWAP1 PUSH1 0x1F ADD PUSH1 0x20 SWAP1 DIV DUP2 ADD SWAP3 DUP3 PUSH2 0x3045 JUMPI PUSH1 0x0 DUP6 SSTORE PUSH2 0x308B JUMP JUMPDEST DUP3 PUSH1 0x1F LT PUSH2 0x305E JUMPI DUP1 MLOAD PUSH1 0xFF NOT AND DUP4 DUP1 ADD OR DUP6 SSTORE PUSH2 0x308B JUMP JUMPDEST DUP3 DUP1 ADD PUSH1 0x1 ADD DUP6 SSTORE DUP3 ISZERO PUSH2 0x308B JUMPI SWAP2 DUP3 ADD JUMPDEST DUP3 DUP2 GT ISZERO PUSH2 0x308B JUMPI DUP3 MLOAD DUP3 SSTORE SWAP2 PUSH1 0x20 ADD SWAP2 SWAP1 PUSH1 0x1 ADD SWAP1 PUSH2 0x3070 JUMP JUMPDEST POP PUSH2 0x3097 SWAP3 SWAP2 POP PUSH2 0x309B JUMP JUMPDEST POP SWAP1 JUMP JUMPDEST JUMPDEST DUP1 DUP3 GT ISZERO PUSH2 0x3097 JUMPI PUSH1 0x0 DUP2 SSTORE PUSH1 0x1 ADD PUSH2 0x309C JUMP JUMPDEST DUP1 CALLDATALOAD PUSH1 0x1 PUSH1 0x1 PUSH1 0xA0 SHL SUB DUP2 AND DUP2 EQ PUSH2 0x30C7 JUMPI PUSH1 0x0 DUP1 REVERT JUMPDEST SWAP2 SWAP1 POP JUMP JUMPDEST PUSH1 0x0 PUSH1 0x20 DUP3 DUP5 SUB SLT ISZERO PUSH2 0x30DE JUMPI PUSH1 0x0 DUP1 REVERT JUMPDEST PUSH2 0x23A7 DUP3 PUSH2 0x30B0 JUMP JUMPDEST PUSH1 0x0 DUP1 PUSH1 0x40 DUP4 DUP6 SUB SLT ISZERO PUSH2 0x30FA JUMPI PUSH1 0x0 DUP1 REVERT JUMPDEST PUSH2 0x3103 DUP4 PUSH2 0x30B0 JUMP JUMPDEST SWAP2 POP PUSH2 0x3111 PUSH1 0x20 DUP5 ADD PUSH2 0x30B0 JUMP JUMPDEST SWAP1 POP SWAP3 POP SWAP3 SWAP1 POP JUMP JUMPDEST PUSH1 0x0 DUP1 PUSH1 0x0 PUSH1 0x60 DUP5 DUP7 SUB SLT ISZERO PUSH2 0x312F JUMPI PUSH1 0x0 DUP1 REVERT JUMPDEST PUSH2 0x3138 DUP5 PUSH2 0x30B0 JUMP JUMPDEST SWAP3 POP PUSH2 0x3146 PUSH1 0x20 DUP6 ADD PUSH2 0x30B0 JUMP JUMPDEST SWAP2 POP PUSH1 0x40 DUP5 ADD CALLDATALOAD SWAP1 POP SWAP3 POP SWAP3 POP SWAP3 JUMP JUMPDEST PUSH1 0x0 DUP1 PUSH1 0x0 DUP1 PUSH1 0x0 PUSH1 0x80 DUP7 DUP9 SUB SLT ISZERO PUSH2 0x316E JUMPI PUSH1 0x0 DUP1 REVERT JUMPDEST PUSH2 0x3177 DUP7 PUSH2 0x30B0 JUMP JUMPDEST SWAP5 POP PUSH2 0x3185 PUSH1 0x20 DUP8 ADD PUSH2 0x30B0 JUMP JUMPDEST SWAP4 POP PUSH1 0x40 DUP7 ADD CALLDATALOAD SWAP3 POP PUSH1 0x60 DUP7 ADD CALLDATALOAD PUSH8 0xFFFFFFFFFFFFFFFF DUP1 DUP3 GT ISZERO PUSH2 0x31A9 JUMPI PUSH1 0x0 DUP1 REVERT JUMPDEST DUP2 DUP9 ADD SWAP2 POP DUP9 PUSH1 0x1F DUP4 ADD SLT PUSH2 0x31BD JUMPI PUSH1 0x0 DUP1 REVERT JUMPDEST DUP2 CALLDATALOAD DUP2 DUP2 GT ISZERO PUSH2 0x31CC JUMPI PUSH1 0x0 DUP1 REVERT JUMPDEST DUP10 PUSH1 0x20 DUP3 DUP6 ADD ADD GT ISZERO PUSH2 0x31DE JUMPI PUSH1 0x0 DUP1 REVERT JUMPDEST SWAP7 SWAP10 SWAP6 SWAP9 POP SWAP4 SWAP7 POP PUSH1 0x20 ADD SWAP5 SWAP4 SWAP3 POP POP POP JUMP JUMPDEST PUSH1 0x0 DUP1 PUSH1 0x40 DUP4 DUP6 SUB SLT ISZERO PUSH2 0x3204 JUMPI PUSH1 0x0 DUP1 REVERT JUMPDEST PUSH2 0x320D DUP4 PUSH2 0x30B0 JUMP JUMPDEST SWAP2 POP PUSH1 0x20 DUP4 ADD CALLDATALOAD PUSH2 0x321D DUP2 PUSH2 0x382A JUMP JUMPDEST DUP1 SWAP2 POP POP SWAP3 POP SWAP3 SWAP1 POP JUMP JUMPDEST PUSH1 0x0 DUP1 PUSH1 0x40 DUP4 DUP6 SUB SLT ISZERO PUSH2 0x323B JUMPI PUSH1 0x0 DUP1 REVERT JUMPDEST PUSH2 0x3244 DUP4 PUSH2 0x30B0 JUMP JUMPDEST SWAP5 PUSH1 0x20 SWAP4 SWAP1 SWAP4 ADD CALLDATALOAD SWAP4 POP POP POP JUMP JUMPDEST PUSH1 0x0 PUSH1 0x20 DUP3 DUP5 SUB SLT ISZERO PUSH2 0x3264 JUMPI PUSH1 0x0 DUP1 REVERT JUMPDEST DUP2 CALLDATALOAD PUSH2 0x23A7 DUP2 PUSH2 0x382A JUMP JUMPDEST PUSH1 0x0 PUSH1 0x20 DUP3 DUP5 SUB SLT ISZERO PUSH2 0x3281 JUMPI PUSH1 0x0 DUP1 REVERT JUMPDEST DUP2 MLOAD PUSH2 0x23A7 DUP2 PUSH2 0x382A JUMP JUMPDEST PUSH1 0x0 PUSH1 0x20 DUP3 DUP5 SUB SLT ISZERO PUSH2 0x329E JUMPI PUSH1 0x0 DUP1 REVERT JUMPDEST DUP2 CALLDATALOAD PUSH2 0x23A7 DUP2 PUSH2 0x3838 JUMP JUMPDEST PUSH1 0x0 PUSH1 0x20 DUP3 DUP5 SUB SLT ISZERO PUSH2 0x32BB JUMPI PUSH1 0x0 DUP1 REVERT JUMPDEST DUP2 MLOAD PUSH2 0x23A7 DUP2 PUSH2 0x3838 JUMP JUMPDEST PUSH1 0x0 PUSH1 0x20 DUP3 DUP5 SUB SLT ISZERO PUSH2 0x32D8 JUMPI PUSH1 0x0 DUP1 REVERT JUMPDEST DUP2 CALLDATALOAD PUSH8 0xFFFFFFFFFFFFFFFF DUP1 DUP3 GT ISZERO PUSH2 0x32F0 JUMPI PUSH1 0x0 DUP1 REVERT JUMPDEST DUP2 DUP5 ADD SWAP2 POP DUP5 PUSH1 0x1F DUP4 ADD SLT PUSH2 0x3304 JUMPI PUSH1 0x0 DUP1 REVERT JUMPDEST DUP2 CALLDATALOAD DUP2 DUP2 GT ISZERO PUSH2 0x3316 JUMPI PUSH2 0x3316 PUSH2 0x3814 JUMP JUMPDEST PUSH1 0x40 MLOAD PUSH1 0x1F DUP3 ADD PUSH1 0x1F NOT SWAP1 DUP2 AND PUSH1 0x3F ADD AND DUP2 ADD SWAP1 DUP4 DUP3 GT DUP2 DUP4 LT OR ISZERO PUSH2 0x333E JUMPI PUSH2 0x333E PUSH2 0x3814 JUMP JUMPDEST DUP2 PUSH1 0x40 MSTORE DUP3 DUP2 MSTORE DUP8 PUSH1 0x20 DUP5 DUP8 ADD ADD GT ISZERO PUSH2 0x3357 JUMPI PUSH1 0x0 DUP1 REVERT JUMPDEST DUP3 PUSH1 0x20 DUP7 ADD PUSH1 0x20 DUP4 ADD CALLDATACOPY PUSH1 0x0 SWAP3 DUP2 ADD PUSH1 0x20 ADD SWAP3 SWAP1 SWAP3 MSTORE POP SWAP6 SWAP5 POP POP POP POP POP JUMP JUMPDEST PUSH1 0x0 PUSH1 0x20 DUP3 DUP5 SUB SLT ISZERO PUSH2 0x3389 JUMPI PUSH1 0x0 DUP1 REVERT JUMPDEST POP CALLDATALOAD SWAP2 SWAP1 POP JUMP JUMPDEST PUSH1 0x0 PUSH1 0x20 DUP3 DUP5 SUB SLT ISZERO PUSH2 0x33A2 JUMPI PUSH1 0x0 DUP1 REVERT JUMPDEST POP MLOAD SWAP2 SWAP1 POP JUMP JUMPDEST PUSH1 0x0 DUP1 PUSH1 0x40 DUP4 DUP6 SUB SLT ISZERO PUSH2 0x33BC JUMPI PUSH1 0x0 DUP1 REVERT JUMPDEST DUP3 CALLDATALOAD SWAP2 POP PUSH2 0x3111 PUSH1 0x20 DUP5 ADD PUSH2 0x30B0 JUMP JUMPDEST PUSH1 0x0 DUP1 PUSH1 0x0 PUSH1 0x60 DUP5 DUP7 SUB SLT ISZERO PUSH2 0x33E1 JUMPI PUSH1 0x0 DUP1 REVERT JUMPDEST POP POP DUP2 CALLDATALOAD SWAP4 PUSH1 0x20 DUP4 ADD CALLDATALOAD SWAP4 POP PUSH1 0x40 SWAP1 SWAP3 ADD CALLDATALOAD SWAP2 SWAP1 POP JUMP JUMPDEST PUSH1 0x0 DUP2 MLOAD DUP1 DUP5 MSTORE PUSH2 0x3410 DUP2 PUSH1 0x20 DUP7 ADD PUSH1 0x20 DUP7 ADD PUSH2 0x3715 JUMP JUMPDEST PUSH1 0x1F ADD PUSH1 0x1F NOT AND SWAP3 SWAP1 SWAP3 ADD PUSH1 0x20 ADD SWAP3 SWAP2 POP POP JUMP JUMPDEST PUSH1 0x0 DUP2 MLOAD PUSH2 0x3436 DUP2 DUP6 PUSH1 0x20 DUP7 ADD PUSH2 0x3715 JUMP JUMPDEST SWAP3 SWAP1 SWAP3 ADD SWAP3 SWAP2 POP POP JUMP JUMPDEST PUSH1 0x0 DUP3 MLOAD PUSH2 0x3452 DUP2 DUP5 PUSH1 0x20 DUP8 ADD PUSH2 0x3715 JUMP JUMPDEST SWAP2 SWAP1 SWAP2 ADD SWAP3 SWAP2 POP POP JUMP JUMPDEST PUSH1 0x0 DUP1 DUP5 SLOAD DUP2 PUSH1 0x1 DUP3 DUP2 SHR SWAP2 POP DUP1 DUP4 AND DUP1 PUSH2 0x3478 JUMPI PUSH1 0x7F DUP4 AND SWAP3 POP JUMPDEST PUSH1 0x20 DUP1 DUP5 LT DUP3 EQ ISZERO PUSH2 0x3498 JUMPI PUSH4 0x4E487B71 PUSH1 0xE0 SHL DUP7 MSTORE PUSH1 0x22 PUSH1 0x4 MSTORE PUSH1 0x24 DUP7 REVERT JUMPDEST DUP2 DUP1 ISZERO PUSH2 0x34AC JUMPI PUSH1 0x1 DUP2 EQ PUSH2 0x34BD JUMPI PUSH2 0x34EA JUMP JUMPDEST PUSH1 0xFF NOT DUP7 AND DUP10 MSTORE DUP5 DUP10 ADD SWAP7 POP PUSH2 0x34EA JUMP JUMPDEST PUSH1 0x0 DUP12 DUP2 MSTORE PUSH1 0x20 SWAP1 KECCAK256 PUSH1 0x0 JUMPDEST DUP7 DUP2 LT ISZERO PUSH2 0x34E2 JUMPI DUP2 SLOAD DUP12 DUP3 ADD MSTORE SWAP1 DUP6 ADD SWAP1 DUP4 ADD PUSH2 0x34C9 JUMP JUMPDEST POP POP DUP5 DUP10 ADD SWAP7 POP JUMPDEST POP POP POP POP POP POP PUSH2 0x34FA DUP2 DUP6 PUSH2 0x3424 JUMP JUMPDEST SWAP6 SWAP5 POP POP POP POP POP JUMP JUMPDEST PUSH1 0x1 PUSH1 0x1 PUSH1 0xA0 SHL SUB DUP6 DUP2 AND DUP3 MSTORE DUP5 AND PUSH1 0x20 DUP3 ADD MSTORE PUSH1 0x40 DUP2 ADD DUP4 SWAP1 MSTORE PUSH1 0x80 PUSH1 0x60 DUP3 ADD DUP2 SWAP1 MSTORE PUSH1 0x0 SWAP1 PUSH2 0x3536 SWAP1 DUP4 ADD DUP5 PUSH2 0x33F8 JUMP JUMPDEST SWAP7 SWAP6 POP POP POP POP POP POP JUMP JUMPDEST PUSH1 0x20 DUP2 MSTORE PUSH1 0x0 PUSH2 0x23A7 PUSH1 0x20 DUP4 ADD DUP5 PUSH2 0x33F8 JUMP JUMPDEST PUSH1 0x20 DUP1 DUP3 MSTORE PUSH1 0xE SWAP1 DUP3 ADD MSTORE PUSH14 0x24B73B30B634B2103A37B5B2B717 PUSH1 0x91 SHL PUSH1 0x40 DUP3 ADD MSTORE PUSH1 0x60 ADD SWAP1 JUMP JUMPDEST PUSH1 0x20 DUP1 DUP3 MSTORE PUSH1 0x12 SWAP1 DUP3 ADD MSTORE PUSH18 0x13585C9AD95D081B9BDD081CDD185C9D1959 PUSH1 0x72 SHL PUSH1 0x40 DUP3 ADD MSTORE PUSH1 0x60 ADD SWAP1 JUMP JUMPDEST PUSH1 0x20 DUP1 DUP3 MSTORE DUP2 DUP2 ADD MSTORE PUSH32 0x4F776E61626C653A2063616C6C6572206973206E6F7420746865206F776E6572 PUSH1 0x40 DUP3 ADD MSTORE PUSH1 0x60 ADD SWAP1 JUMP JUMPDEST PUSH1 0x20 DUP1 DUP3 MSTORE PUSH1 0x29 SWAP1 DUP3 ADD MSTORE PUSH32 0x596F752063616E206E6F7420627579206D6F7265207468616E203230204E4654 PUSH1 0x40 DUP3 ADD MSTORE PUSH9 0x73206174206F6E6365 PUSH1 0xB8 SHL PUSH1 0x60 DUP3 ADD MSTORE PUSH1 0x80 ADD SWAP1 JUMP JUMPDEST PUSH1 0x20 DUP1 DUP3 MSTORE PUSH1 0x22 SWAP1 DUP3 ADD MSTORE PUSH32 0x596F7520617265206E6F7420746865206F776E6572206F662074686520746F6B PUSH1 0x40 DUP3 ADD MSTORE PUSH2 0x32B7 PUSH1 0xF1 SHL PUSH1 0x60 DUP3 ADD MSTORE PUSH1 0x80 ADD SWAP1 JUMP JUMPDEST PUSH1 0x20 DUP1 DUP3 MSTORE PUSH1 0x2C SWAP1 DUP3 ADD MSTORE PUSH32 0x457863656564732072656D61696E696E67207072696D6172792073616C65206F PUSH1 0x40 DUP3 ADD MSTORE PUSH12 0x66204D415449432073616C65 PUSH1 0xA0 SHL PUSH1 0x60 DUP3 ADD MSTORE PUSH1 0x80 ADD SWAP1 JUMP JUMPDEST PUSH1 0x0 DUP3 NOT DUP3 GT ISZERO PUSH2 0x36C6 JUMPI PUSH2 0x36C6 PUSH2 0x37BC JUMP JUMPDEST POP ADD SWAP1 JUMP JUMPDEST PUSH1 0x0 DUP3 PUSH2 0x36DA JUMPI PUSH2 0x36DA PUSH2 0x37D2 JUMP JUMPDEST POP DIV SWAP1 JUMP JUMPDEST PUSH1 0x0 DUP2 PUSH1 0x0 NOT DIV DUP4 GT DUP3 ISZERO ISZERO AND ISZERO PUSH2 0x36F9 JUMPI PUSH2 0x36F9 PUSH2 0x37BC JUMP JUMPDEST POP MUL SWAP1 JUMP JUMPDEST PUSH1 0x0 DUP3 DUP3 LT ISZERO PUSH2 0x3710 JUMPI PUSH2 0x3710 PUSH2 0x37BC JUMP JUMPDEST POP SUB SWAP1 JUMP JUMPDEST PUSH1 0x0 JUMPDEST DUP4 DUP2 LT ISZERO PUSH2 0x3730 JUMPI DUP2 DUP2 ADD MLOAD DUP4 DUP3 ADD MSTORE PUSH1 0x20 ADD PUSH2 0x3718 JUMP JUMPDEST DUP4 DUP2 GT ISZERO PUSH2 0x1F32 JUMPI POP POP PUSH1 0x0 SWAP2 ADD MSTORE JUMP JUMPDEST PUSH1 0x0 DUP2 PUSH2 0x3750 JUMPI PUSH2 0x3750 PUSH2 0x37BC JUMP JUMPDEST POP PUSH1 0x0 NOT ADD SWAP1 JUMP JUMPDEST PUSH1 0x1 DUP2 DUP2 SHR SWAP1 DUP3 AND DUP1 PUSH2 0x376C JUMPI PUSH1 0x7F DUP3 AND SWAP2 POP JUMPDEST PUSH1 0x20 DUP3 LT DUP2 EQ ISZERO PUSH2 0xA3E JUMPI PUSH4 0x4E487B71 PUSH1 0xE0 SHL PUSH1 0x0 MSTORE PUSH1 0x22 PUSH1 0x4 MSTORE PUSH1 0x24 PUSH1 0x0 REVERT JUMPDEST PUSH1 0x0 PUSH1 0x0 NOT DUP3 EQ ISZERO PUSH2 0x37A1 JUMPI PUSH2 0x37A1 PUSH2 0x37BC JUMP JUMPDEST POP PUSH1 0x1 ADD SWAP1 JUMP JUMPDEST PUSH1 0x0 DUP3 PUSH2 0x37B7 JUMPI PUSH2 0x37B7 PUSH2 0x37D2 JUMP JUMPDEST POP MOD SWAP1 JUMP JUMPDEST PUSH4 0x4E487B71 PUSH1 0xE0 SHL PUSH1 0x0 MSTORE PUSH1 0x11 PUSH1 0x4 MSTORE PUSH1 0x24 PUSH1 0x0 REVERT JUMPDEST PUSH4 0x4E487B71 PUSH1 0xE0 SHL PUSH1 0x0 MSTORE PUSH1 0x12 PUSH1 0x4 MSTORE PUSH1 0x24 PUSH1 0x0 REVERT JUMPDEST PUSH4 0x4E487B71 PUSH1 0xE0 SHL PUSH1 0x0 MSTORE PUSH1 0x31 PUSH1 0x4 MSTORE PUSH1 0x24 PUSH1 0x0 REVERT JUMPDEST PUSH4 0x4E487B71 PUSH1 0xE0 SHL PUSH1 0x0 MSTORE PUSH1 0x32 PUSH1 0x4 MSTORE PUSH1 0x24 PUSH1 0x0 REVERT JUMPDEST PUSH4 0x4E487B71 PUSH1 0xE0 SHL PUSH1 0x0 MSTORE PUSH1 0x41 PUSH1 0x4 MSTORE PUSH1 0x24 PUSH1 0x0 REVERT JUMPDEST DUP1 ISZERO ISZERO DUP2 EQ PUSH2 0x1FD0 JUMPI PUSH1 0x0 DUP1 REVERT JUMPDEST PUSH1 0x1 PUSH1 0x1 PUSH1 0xE0 SHL SUB NOT DUP2 AND DUP2 EQ PUSH2 0x1FD0 JUMPI PUSH1 0x0 DUP1 REVERT INVALID LOG2 PUSH5 0x6970667358 0x22 SLT KECCAK256 0xC8 0xDB SDIV 0xCF CALLDATALOAD 0x24 ISZERO MLOAD EQ CALLDATACOPY 0xEC 0xD6 0x5D 0xDA 0x5F 0xD6 0x2B NUMBER 0xA8 0xBD NOT 0xAA JUMP 0xB5 SELFDESTRUCT PUSH21 0xFFA99FD1F37F64736F6C6343000807003300000000 "
		},
		"gasEstimates": {
			"creation": {
				"codeDepositCost": "2893600",
				"executionCost": "infinite",
				"totalCost": "infinite"
			},
			"external": {
				"Goldmint(uint256)": "infinite",
				"TOKEN_LIMIT()": "264",
				"addPaymentToken(uint256,address)": "26894",
				"approve(address,uint256)": "35665",
				"balanceOf(address)": "2677",
				"baseFee()": "2341",
				"baseUri()": "infinite",
				"buyNFTMatic(uint256)": "infinite",
				"buyNFTWithToken(uint256)": "infinite",
				"canUse(uint256,address)": "7196",
				"createListing(uint256,uint256,uint256)": "123709",
				"dungeonContract()": "2458",
				"feeWallet()": "2403",
				"getApproved(uint256)": "4844",
				"gold()": "2491",
				"isApprovedForAll(address,address)": "infinite",
				"list(uint256)": "6924",
				"marketStatus()": "2449",
				"mintsRemaining()": "infinite",
				"name()": "infinite",
				"nftList(uint256)": "4687",
				"owner()": "2487",
				"ownerOf(uint256)": "4825",
				"publicMint(uint256)": "infinite",
				"publicSale()": "2450",
				"purchaseToken(uint256)": "2544",
				"remainderOfGold()": "2339",
				"remainderOfPrimary()": "2384",
				"removeListing(uint256)": "infinite",
				"renounceOwnership()": "28204",
				"safeTransferFrom(address,address,uint256)": "infinite",
				"safeTransferFrom(address,address,uint256,bytes)": "infinite",
				"saleStartTime()": "2429",
				"setApprovalForAll(address,bool)": "26725",
				"setDungeonContract(address)": "26834",
				"setFee(uint256)": "24619",
				"setSale(bool)": "26845",
				"setUri(string)": "infinite",
				"startSale()": "50923",
				"supportsInterface(bytes4)": "2585",
				"symbol()": "infinite",
				"tokenByIndex(uint256)": "495",
				"tokenOfOwnerByIndex(address,uint256)": "7090",
				"tokenURI(uint256)": "infinite",
				"totalSupply()": "2382",
				"transferFrom(address,address,uint256)": "infinite",
				"transferOwnership(address)": "28397",
				"transferToDungeon(address,address,uint256)": "infinite"
			},
			"internal": {
				"_addNFToken(address,uint256)": "infinite",
				"_clearApproval(uint256)": "26514",
				"_getOwnerNFTCount(address)": "infinite",
				"_mint(address)": "infinite",
				"_removeListing(uint256)": "infinite",
				"_removeNFToken(address,uint256)": "infinite",
				"_safeTransfer(address,address,uint256,bytes memory)": "infinite",
				"_safeTransferFrom(address,address,uint256,bytes memory)": "infinite",
				"_transfer(address,uint256)": "infinite",
				"isContract(address)": "infinite",
				"randomIndex()": "infinite",
				"toString(uint256)": "infinite"
			}
		},
		"methodIdentifiers": {
			"Goldmint(uint256)": "10a15cc8",
			"TOKEN_LIMIT()": "031bd4c4",
			"addPaymentToken(uint256,address)": "0612c478",
			"approve(address,uint256)": "095ea7b3",
			"balanceOf(address)": "70a08231",
			"baseFee()": "6ef25c3a",
			"baseUri()": "9abc8320",
			"buyNFTMatic(uint256)": "f9ae7aaf",
			"buyNFTWithToken(uint256)": "d4c66861",
			"canUse(uint256,address)": "0cef3df1",
			"createListing(uint256,uint256,uint256)": "b03053b6",
			"dungeonContract()": "f79e4164",
			"feeWallet()": "f25f4b56",
			"getApproved(uint256)": "081812fc",
			"gold()": "fbec6f21",
			"isApprovedForAll(address,address)": "e985e9c5",
			"list(uint256)": "80c9419e",
			"marketStatus()": "e0e081d7",
			"mintsRemaining()": "44c66be7",
			"name()": "06fdde03",
			"nftList(uint256)": "75bea166",
			"owner()": "8da5cb5b",
			"ownerOf(uint256)": "6352211e",
			"publicMint(uint256)": "2db11544",
			"publicSale()": "33bc1c5c",
			"purchaseToken(uint256)": "c2db2c42",
			"remainderOfGold()": "ed38b79c",
			"remainderOfPrimary()": "4c211c28",
			"removeListing(uint256)": "479ad4c3",
			"renounceOwnership()": "715018a6",
			"safeTransferFrom(address,address,uint256)": "42842e0e",
			"safeTransferFrom(address,address,uint256,bytes)": "b88d4fde",
			"saleStartTime()": "1cbaee2d",
			"setApprovalForAll(address,bool)": "a22cb465",
			"setDungeonContract(address)": "1bcd39aa",
			"setFee(uint256)": "69fe0e2d",
			"setSale(bool)": "1d2e5a3a",
			"setUri(string)": "9b642de1",
			"startSale()": "b66a0e5d",
			"supportsInterface(bytes4)": "01ffc9a7",
			"symbol()": "95d89b41",
			"tokenByIndex(uint256)": "4f6ccce7",
			"tokenOfOwnerByIndex(address,uint256)": "2f745c59",
			"tokenURI(uint256)": "c87b56dd",
			"totalSupply()": "18160ddd",
			"transferFrom(address,address,uint256)": "23b872dd",
			"transferOwnership(address)": "f2fde38b",
			"transferToDungeon(address,address,uint256)": "20d1fc62"
		}
	},
	"abi": [
		{
			"inputs": [
				{
					"internalType": "address payable",
					"name": "_marketer",
					"type": "address"
				},
				{
					"internalType": "address payable",
					"name": "_developer",
					"type": "address"
				},
				{
					"internalType": "address",
					"name": "gold_",
					"type": "address"
				},
				{
					"internalType": "uint256",
					"name": "_fee",
					"type": "uint256"
				},
				{
					"internalType": "address",
					"name": "_feeAddress",
					"type": "address"
				}
			],
			"stateMutability": "nonpayable",
			"type": "constructor"
		},
		{
			"anonymous": false,
			"inputs": [
				{
					"indexed": true,
					"internalType": "address",
					"name": "owner",
					"type": "address"
				},
				{
					"indexed": true,
					"internalType": "address",
					"name": "approved",
					"type": "address"
				},
				{
					"indexed": true,
					"internalType": "uint256",
					"name": "tokenId",
					"type": "uint256"
				}
			],
			"name": "Approval",
			"type": "event"
		},
		{
			"anonymous": false,
			"inputs": [
				{
					"indexed": true,
					"internalType": "address",
					"name": "owner",
					"type": "address"
				},
				{
					"indexed": true,
					"internalType": "address",
					"name": "operator",
					"type": "address"
				},
				{
					"indexed": false,
					"internalType": "bool",
					"name": "approved",
					"type": "bool"
				}
			],
			"name": "ApprovalForAll",
			"type": "event"
		},
		{
			"anonymous": false,
			"inputs": [
				{
					"indexed": true,
					"internalType": "uint256",
					"name": "index",
					"type": "uint256"
				},
				{
					"indexed": true,
					"internalType": "address",
					"name": "minter",
					"type": "address"
				}
			],
			"name": "Mint",
			"type": "event"
		},
		{
			"anonymous": false,
			"inputs": [
				{
					"indexed": false,
					"internalType": "uint256",
					"name": "_tokenId",
					"type": "uint256"
				},
				{
					"indexed": false,
					"internalType": "uint256",
					"name": "price",
					"type": "uint256"
				},
				{
					"indexed": false,
					"internalType": "uint256",
					"name": "purchaseTokenId",
					"type": "uint256"
				}
			],
			"name": "NFTbought",
			"type": "event"
		},
		{
			"anonymous": false,
			"inputs": [
				{
					"indexed": true,
					"internalType": "address",
					"name": "previousOwner",
					"type": "address"
				},
				{
					"indexed": true,
					"internalType": "address",
					"name": "newOwner",
					"type": "address"
				}
			],
			"name": "OwnershipTransferred",
			"type": "event"
		},
		{
			"anonymous": false,
			"inputs": [
				{
					"indexed": true,
					"internalType": "address",
					"name": "from",
					"type": "address"
				},
				{
					"indexed": true,
					"internalType": "address",
					"name": "to",
					"type": "address"
				},
				{
					"indexed": true,
					"internalType": "uint256",
					"name": "tokenId",
					"type": "uint256"
				}
			],
			"name": "Transfer",
			"type": "event"
		},
		{
			"anonymous": false,
			"inputs": [
				{
					"indexed": false,
					"internalType": "uint256",
					"name": "_tokenId",
					"type": "uint256"
				},
				{
					"indexed": false,
					"internalType": "uint256",
					"name": "_price",
					"type": "uint256"
				},
				{
					"indexed": false,
					"internalType": "uint256",
					"name": "purchaseTokenId",
					"type": "uint256"
				}
			],
			"name": "listingCreated",
			"type": "event"
		},
		{
			"anonymous": false,
			"inputs": [
				{
					"indexed": false,
					"internalType": "uint256",
					"name": "_tokenId",
					"type": "uint256"
				}
			],
			"name": "listingRemoved",
			"type": "event"
		},
		{
			"inputs": [
				{
					"internalType": "uint256",
					"name": "numberOfNfts",
					"type": "uint256"
				}
			],
			"name": "Goldmint",
			"outputs": [],
			"stateMutability": "payable",
			"type": "function"
		},
		{
			"inputs": [],
			"name": "TOKEN_LIMIT",
			"outputs": [
				{
					"internalType": "uint256",
					"name": "",
					"type": "uint256"
				}
			],
			"stateMutability": "view",
			"type": "function"
		},
		{
			"inputs": [
				{
					"internalType": "uint256",
					"name": "_paymentTokenId",
					"type": "uint256"
				},
				{
					"internalType": "address",
					"name": "_tokenAddress",
					"type": "address"
				}
			],
			"name": "addPaymentToken",
			"outputs": [],
			"stateMutability": "nonpayable",
			"type": "function"
		},
		{
			"inputs": [
				{
					"internalType": "address",
					"name": "_approved",
					"type": "address"
				},
				{
					"internalType": "uint256",
					"name": "_tokenId",
					"type": "uint256"
				}
			],
			"name": "approve",
			"outputs": [],
			"stateMutability": "nonpayable",
			"type": "function"
		},
		{
			"inputs": [
				{
					"internalType": "address",
					"name": "_owner",
					"type": "address"
				}
			],
			"name": "balanceOf",
			"outputs": [
				{
					"internalType": "uint256",
					"name": "",
					"type": "uint256"
				}
			],
			"stateMutability": "view",
			"type": "function"
		},
		{
			"inputs": [],
			"name": "baseFee",
			"outputs": [
				{
					"internalType": "uint256",
					"name": "",
					"type": "uint256"
				}
			],
			"stateMutability": "view",
			"type": "function"
		},
		{
			"inputs": [],
			"name": "baseUri",
			"outputs": [
				{
					"internalType": "string",
					"name": "",
					"type": "string"
				}
			],
			"stateMutability": "view",
			"type": "function"
		},
		{
			"inputs": [
				{
					"internalType": "uint256",
					"name": "_tokenId",
					"type": "uint256"
				}
			],
			"name": "buyNFTMatic",
			"outputs": [],
			"stateMutability": "payable",
			"type": "function"
		},
		{
			"inputs": [
				{
					"internalType": "uint256",
					"name": "_tokenId",
					"type": "uint256"
				}
			],
			"name": "buyNFTWithToken",
			"outputs": [],
			"stateMutability": "nonpayable",
			"type": "function"
		},
		{
			"inputs": [
				{
					"internalType": "uint256",
					"name": "_tokenId",
					"type": "uint256"
				},
				{
					"internalType": "address",
					"name": "_check",
					"type": "address"
				}
			],
			"name": "canUse",
			"outputs": [
				{
					"internalType": "bool",
					"name": "",
					"type": "bool"
				}
			],
			"stateMutability": "view",
			"type": "function"
		},
		{
			"inputs": [
				{
					"internalType": "uint256",
					"name": "_price",
					"type": "uint256"
				},
				{
					"internalType": "uint256",
					"name": "_tokenId",
					"type": "uint256"
				},
				{
					"internalType": "uint256",
					"name": "_purchaseTokenId",
					"type": "uint256"
				}
			],
			"name": "createListing",
			"outputs": [],
			"stateMutability": "nonpayable",
			"type": "function"
		},
		{
			"inputs": [],
			"name": "dungeonContract",
			"outputs": [
				{
					"internalType": "address",
					"name": "",
					"type": "address"
				}
			],
			"stateMutability": "view",
			"type": "function"
		},
		{
			"inputs": [],
			"name": "feeWallet",
			"outputs": [
				{
					"internalType": "address",
					"name": "",
					"type": "address"
				}
			],
			"stateMutability": "view",
			"type": "function"
		},
		{
			"inputs": [
				{
					"internalType": "uint256",
					"name": "_tokenId",
					"type": "uint256"
				}
			],
			"name": "getApproved",
			"outputs": [
				{
					"internalType": "address",
					"name": "",
					"type": "address"
				}
			],
			"stateMutability": "view",
			"type": "function"
		},
		{
			"inputs": [],
			"name": "gold",
			"outputs": [
				{
					"internalType": "contract IERC20",
					"name": "",
					"type": "address"
				}
			],
			"stateMutability": "view",
			"type": "function"
		},
		{
			"inputs": [
				{
					"internalType": "address",
					"name": "_owner",
					"type": "address"
				},
				{
					"internalType": "address",
					"name": "_operator",
					"type": "address"
				}
			],
			"name": "isApprovedForAll",
			"outputs": [
				{
					"internalType": "bool",
					"name": "",
					"type": "bool"
				}
			],
			"stateMutability": "view",
			"type": "function"
		},
		{
			"inputs": [
				{
					"internalType": "uint256",
					"name": "",
					"type": "uint256"
				}
			],
			"name": "list",
			"outputs": [
				{
					"internalType": "bool",
					"name": "isForSale",
					"type": "bool"
				},
				{
					"internalType": "address",
					"name": "owner",
					"type": "address"
				},
				{
					"internalType": "uint256",
					"name": "price",
					"type": "uint256"
				},
				{
					"internalType": "uint256",
					"name": "purchaseTokenId",
					"type": "uint256"
				}
			],
			"stateMutability": "view",
			"type": "function"
		},
		{
			"inputs": [],
			"name": "marketStatus",
			"outputs": [
				{
					"internalType": "bool",
					"name": "",
					"type": "bool"
				}
			],
			"stateMutability": "view",
			"type": "function"
		},
		{
			"inputs": [],
			"name": "mintsRemaining",
			"outputs": [
				{
					"internalType": "uint256",
					"name": "",
					"type": "uint256"
				}
			],
			"stateMutability": "view",
			"type": "function"
		},
		{
			"inputs": [],
			"name": "name",
			"outputs": [
				{
					"internalType": "string",
					"name": "_name",
					"type": "string"
				}
			],
			"stateMutability": "view",
			"type": "function"
		},
		{
			"inputs": [
				{
					"internalType": "uint256",
					"name": "",
					"type": "uint256"
				}
			],
			"name": "nftList",
			"outputs": [
				{
					"internalType": "uint256",
					"name": "",
					"type": "uint256"
				}
			],
			"stateMutability": "view",
			"type": "function"
		},
		{
			"inputs": [],
			"name": "owner",
			"outputs": [
				{
					"internalType": "address",
					"name": "",
					"type": "address"
				}
			],
			"stateMutability": "view",
			"type": "function"
		},
		{
			"inputs": [
				{
					"internalType": "uint256",
					"name": "_tokenId",
					"type": "uint256"
				}
			],
			"name": "ownerOf",
			"outputs": [
				{
					"internalType": "address",
					"name": "_owner",
					"type": "address"
				}
			],
			"stateMutability": "view",
			"type": "function"
		},
		{
			"inputs": [
				{
					"internalType": "uint256",
					"name": "numberOfNfts",
					"type": "uint256"
				}
			],
			"name": "publicMint",
			"outputs": [],
			"stateMutability": "payable",
			"type": "function"
		},
		{
			"inputs": [],
			"name": "publicSale",
			"outputs": [
				{
					"internalType": "bool",
					"name": "",
					"type": "bool"
				}
			],
			"stateMutability": "view",
			"type": "function"
		},
		{
			"inputs": [
				{
					"internalType": "uint256",
					"name": "",
					"type": "uint256"
				}
			],
			"name": "purchaseToken",
			"outputs": [
				{
					"internalType": "contract IERC20",
					"name": "",
					"type": "address"
				}
			],
			"stateMutability": "view",
			"type": "function"
		},
		{
			"inputs": [],
			"name": "remainderOfGold",
			"outputs": [
				{
					"internalType": "uint256",
					"name": "",
					"type": "uint256"
				}
			],
			"stateMutability": "view",
			"type": "function"
		},
		{
			"inputs": [],
			"name": "remainderOfPrimary",
			"outputs": [
				{
					"internalType": "uint256",
					"name": "",
					"type": "uint256"
				}
			],
			"stateMutability": "view",
			"type": "function"
		},
		{
			"inputs": [
				{
					"internalType": "uint256",
					"name": "_tokenId",
					"type": "uint256"
				}
			],
			"name": "removeListing",
			"outputs": [],
			"stateMutability": "nonpayable",
			"type": "function"
		},
		{
			"inputs": [],
			"name": "renounceOwnership",
			"outputs": [],
			"stateMutability": "nonpayable",
			"type": "function"
		},
		{
			"inputs": [
				{
					"internalType": "address",
					"name": "_from",
					"type": "address"
				},
				{
					"internalType": "address",
					"name": "_to",
					"type": "address"
				},
				{
					"internalType": "uint256",
					"name": "_tokenId",
					"type": "uint256"
				}
			],
			"name": "safeTransferFrom",
			"outputs": [],
			"stateMutability": "nonpayable",
			"type": "function"
		},
		{
			"inputs": [
				{
					"internalType": "address",
					"name": "_from",
					"type": "address"
				},
				{
					"internalType": "address",
					"name": "_to",
					"type": "address"
				},
				{
					"internalType": "uint256",
					"name": "_tokenId",
					"type": "uint256"
				},
				{
					"internalType": "bytes",
					"name": "_data",
					"type": "bytes"
				}
			],
			"name": "safeTransferFrom",
			"outputs": [],
			"stateMutability": "nonpayable",
			"type": "function"
		},
		{
			"inputs": [],
			"name": "saleStartTime",
			"outputs": [
				{
					"internalType": "uint256",
					"name": "",
					"type": "uint256"
				}
			],
			"stateMutability": "view",
			"type": "function"
		},
		{
			"inputs": [
				{
					"internalType": "address",
					"name": "_operator",
					"type": "address"
				},
				{
					"internalType": "bool",
					"name": "_approved",
					"type": "bool"
				}
			],
			"name": "setApprovalForAll",
			"outputs": [],
			"stateMutability": "nonpayable",
			"type": "function"
		},
		{
			"inputs": [
				{
					"internalType": "address",
					"name": "_dungeonContract",
					"type": "address"
				}
			],
			"name": "setDungeonContract",
			"outputs": [],
			"stateMutability": "nonpayable",
			"type": "function"
		},
		{
			"inputs": [
				{
					"internalType": "uint256",
					"name": "_newBaseFee",
					"type": "uint256"
				}
			],
			"name": "setFee",
			"outputs": [],
			"stateMutability": "nonpayable",
			"type": "function"
		},
		{
			"inputs": [
				{
					"internalType": "bool",
					"name": "_marketStatus",
					"type": "bool"
				}
			],
			"name": "setSale",
			"outputs": [],
			"stateMutability": "nonpayable",
			"type": "function"
		},
		{
			"inputs": [
				{
					"internalType": "string",
					"name": "newUri",
					"type": "string"
				}
			],
			"name": "setUri",
			"outputs": [],
			"stateMutability": "nonpayable",
			"type": "function"
		},
		{
			"inputs": [],
			"name": "startSale",
			"outputs": [],
			"stateMutability": "nonpayable",
			"type": "function"
		},
		{
			"inputs": [
				{
					"internalType": "bytes4",
					"name": "_interfaceID",
					"type": "bytes4"
				}
			],
			"name": "supportsInterface",
			"outputs": [
				{
					"internalType": "bool",
					"name": "",
					"type": "bool"
				}
			],
			"stateMutability": "view",
			"type": "function"
		},
		{
			"inputs": [],
			"name": "symbol",
			"outputs": [
				{
					"internalType": "string",
					"name": "_symbol",
					"type": "string"
				}
			],
			"stateMutability": "view",
			"type": "function"
		},
		{
			"inputs": [
				{
					"internalType": "uint256",
					"name": "index",
					"type": "uint256"
				}
			],
			"name": "tokenByIndex",
			"outputs": [
				{
					"internalType": "uint256",
					"name": "",
					"type": "uint256"
				}
			],
			"stateMutability": "pure",
			"type": "function"
		},
		{
			"inputs": [
				{
					"internalType": "address",
					"name": "_owner",
					"type": "address"
				},
				{
					"internalType": "uint256",
					"name": "_index",
					"type": "uint256"
				}
			],
			"name": "tokenOfOwnerByIndex",
			"outputs": [
				{
					"internalType": "uint256",
					"name": "",
					"type": "uint256"
				}
			],
			"stateMutability": "view",
			"type": "function"
		},
		{
			"inputs": [
				{
					"internalType": "uint256",
					"name": "_tokenId",
					"type": "uint256"
				}
			],
			"name": "tokenURI",
			"outputs": [
				{
					"internalType": "string",
					"name": "",
					"type": "string"
				}
			],
			"stateMutability": "view",
			"type": "function"
		},
		{
			"inputs": [],
			"name": "totalSupply",
			"outputs": [
				{
					"internalType": "uint256",
					"name": "",
					"type": "uint256"
				}
			],
			"stateMutability": "view",
			"type": "function"
		},
		{
			"inputs": [
				{
					"internalType": "address",
					"name": "_from",
					"type": "address"
				},
				{
					"internalType": "address",
					"name": "_to",
					"type": "address"
				},
				{
					"internalType": "uint256",
					"name": "_tokenId",
					"type": "uint256"
				}
			],
			"name": "transferFrom",
			"outputs": [],
			"stateMutability": "nonpayable",
			"type": "function"
		},
		{
			"inputs": [
				{
					"internalType": "address",
					"name": "newOwner",
					"type": "address"
				}
			],
			"name": "transferOwnership",
			"outputs": [],
			"stateMutability": "nonpayable",
			"type": "function"
		},
		{
			"inputs": [
				{
					"internalType": "address",
					"name": "_from",
					"type": "address"
				},
				{
					"internalType": "address",
					"name": "_to",
					"type": "address"
				},
				{
					"internalType": "uint256",
					"name": "_tokenId",
					"type": "uint256"
				}
			],
			"name": "transferToDungeon",
			"outputs": [],
			"stateMutability": "nonpayable",
			"type": "function"
		}
	]
}